{"contracts/Robot.sol":{"Robot":{"abi":[{"inputs":[{"internalType":"string","name":"_versoion","type":"string"}],"stateMutability":"nonpayable","type":"constructor"},{"anonymous":false,"inputs":[{"indexed":true,"internalType":"address","name":"contractAddress","type":"address"},{"indexed":true,"internalType":"uint256","name":"cType","type":"uint256"},{"indexed":true,"internalType":"uint256","name":"tokenId","type":"uint256"},{"indexed":false,"internalType":"address","name":"from","type":"address"},{"indexed":false,"internalType":"address","name":"to","type":"address"},{"indexed":false,"internalType":"uint256","name":"amount","type":"uint256"},{"indexed":false,"internalType":"uint256","name":"price","type":"uint256"}],"name":"Buy","type":"event"},{"anonymous":false,"inputs":[{"indexed":true,"internalType":"address","name":"contractAddress","type":"address"},{"indexed":true,"internalType":"string","name":"name","type":"string"},{"indexed":true,"internalType":"string","name":"tokenURI","type":"string"},{"indexed":false,"internalType":"address","name":"to","type":"address"},{"indexed":false,"internalType":"uint256","name":"tokenId","type":"uint256"},{"indexed":false,"internalType":"uint256","name":"amount","type":"uint256"}],"name":"Lock","type":"event"},{"inputs":[{"internalType":"address[]","name":"addresses","type":"address[]"},{"internalType":"uint256[]","name":"types","type":"uint256[]"},{"internalType":"string[]","name":"orderIds","type":"string[]"},{"internalType":"string[]","name":"orderHashs","type":"string[]"},{"internalType":"address[]","name":"froms","type":"address[]"},{"internalType":"address[]","name":"tos","type":"address[]"},{"internalType":"uint256[]","name":"tokenIds","type":"uint256[]"},{"internalType":"uint256[]","name":"amounts","type":"uint256[]"},{"internalType":"string[]","name":"tokenURIs","type":"string[]"},{"internalType":"string[]","name":"names","type":"string[]"},{"internalType":"uint256[]","name":"values","type":"uint256[]"}],"name":"batchAll","outputs":[],"stateMutability":"payable","type":"function"},{"inputs":[{"internalType":"address","name":"erc1155","type":"address"},{"internalType":"address[]","name":"tos","type":"address[]"},{"internalType":"uint256[]","name":"tokenIds","type":"uint256[]"},{"internalType":"string[]","name":"names","type":"string[]"},{"internalType":"string[]","name":"tokenURIs","type":"string[]"},{"internalType":"uint256[]","name":"amounts","type":"uint256[]"}],"name":"batchLockt1155","outputs":[],"stateMutability":"payable","type":"function"},{"inputs":[{"internalType":"address","name":"erc721","type":"address"},{"internalType":"address[]","name":"accounts","type":"address[]"},{"internalType":"string[]","name":"tokenURIs","type":"string[]"},{"internalType":"string[]","name":"collectionIds","type":"string[]"}],"name":"batchMint721","outputs":[],"stateMutability":"nonpayable","type":"function"},{"inputs":[],"name":"version","outputs":[{"internalType":"string","name":"","type":"string"}],"stateMutability":"view","type":"function"}],"evm":{"bytecode":{"linkReferences":{},"object":"60806040523480156200001157600080fd5b506040516200201d3803806200201d8339818101604052810190620000379190620001e3565b80600090816200004891906200047f565b505062000566565b6000604051905090565b600080fd5b600080fd5b600080fd5b600080fd5b6000601f19601f8301169050919050565b7f4e487b7100000000000000000000000000000000000000000000000000000000600052604160045260246000fd5b620000b9826200006e565b810181811067ffffffffffffffff82111715620000db57620000da6200007f565b5b80604052505050565b6000620000f062000050565b9050620000fe8282620000ae565b919050565b600067ffffffffffffffff8211156200012157620001206200007f565b5b6200012c826200006e565b9050602081019050919050565b60005b83811015620001595780820151818401526020810190506200013c565b60008484015250505050565b60006200017c620001768462000103565b620000e4565b9050828152602081018484840111156200019b576200019a62000069565b5b620001a884828562000139565b509392505050565b600082601f830112620001c857620001c762000064565b5b8151620001da84826020860162000165565b91505092915050565b600060208284031215620001fc57620001fb6200005a565b5b600082015167ffffffffffffffff8111156200021d576200021c6200005f565b5b6200022b84828501620001b0565b91505092915050565b600081519050919050565b7f4e487b7100000000000000000000000000000000000000000000000000000000600052602260045260246000fd5b600060028204905060018216806200028757607f821691505b6020821081036200029d576200029c6200023f565b5b50919050565b60008190508160005260206000209050919050565b60006020601f8301049050919050565b600082821b905092915050565b600060088302620003077fffffffffffffffffffffffffffffffffffffffffffffffffffffffffffffffff82620002c8565b620003138683620002c8565b95508019841693508086168417925050509392505050565b6000819050919050565b6000819050919050565b6000620003606200035a62000354846200032b565b62000335565b6200032b565b9050919050565b6000819050919050565b6200037c836200033f565b620003946200038b8262000367565b848454620002d5565b825550505050565b600090565b620003ab6200039c565b620003b881848462000371565b505050565b5b81811015620003e057620003d4600082620003a1565b600181019050620003be565b5050565b601f8211156200042f57620003f981620002a3565b6200040484620002b8565b8101602085101562000414578190505b6200042c6200042385620002b8565b830182620003bd565b50505b505050565b600082821c905092915050565b6000620004546000198460080262000434565b1980831691505092915050565b60006200046f838362000441565b9150826002028217905092915050565b6200048a8262000234565b67ffffffffffffffff811115620004a657620004a56200007f565b5b620004b282546200026e565b620004bf828285620003e4565b600060209050601f831160018114620004f75760008415620004e2578287015190505b620004ee858262000461565b8655506200055e565b601f1984166200050786620002a3565b60005b8281101562000531578489015182556001820191506020850194506020810190506200050a565b868310156200055157848901516200054d601f89168262000441565b8355505b6001600288020188555050505b505050505050565b611aa780620005766000396000f3fe60806040526004361061003f5760003560e01c8063486115c11461004457806354fd4d5014610060578063abc04d8a1461008b578063d6c2a1c7146100a7575b600080fd5b61005e60048036038101906100599190611035565b6100d0565b005b34801561006c57600080fd5b50610075610358565b60405161008291906111cd565b60405180910390f35b6100a560048036038101906100a091906111ef565b6103ea565b005b3480156100b357600080fd5b506100ce60048036038101906100c99190611417565b610a93565b005b835185511480156100e2575080518451145b80156100ef575081518151145b80156100fc575082518251145b61013b576040517f08c379a00000000000000000000000000000000000000000000000000000000081526004016101329061151e565b60405180910390fd5b60005b855181101561034f5782818151811061015a5761015961153e565b5b602002602001015160405161016f91906115a9565b604051809103902084828151811061018a5761018961153e565b5b602002602001015160405161019f91906115a9565b60405180910390208873ffffffffffffffffffffffffffffffffffffffff167fc37dc1b1fab95366f4247bdfb31bdec1e49642e878c0316766b469b1af36f0738985815181106101f2576101f161153e565b5b602002602001015189868151811061020d5761020c61153e565b5b60200260200101518787815181106102285761022761153e565b5b602002602001015160405161023f939291906115de565b60405180910390a48673ffffffffffffffffffffffffffffffffffffffff1663af72bd918783815181106102765761027561153e565b5b60200260200101518784815181106102915761029061153e565b5b60200260200101518785815181106102ac576102ab61153e565b5b60200260200101518786815181106102c7576102c661153e565b5b60200260200101518787815181106102e2576102e161153e565b5b60200260200101516040518663ffffffff1660e01b815260040161030a959493929190611615565b600060405180830381600087803b15801561032457600080fd5b505af1158015610338573d6000803e3d6000fd5b505050508080610347906116a5565b91505061013e565b50505050505050565b6060600080546103679061171c565b80601f01602080910402602001604051908101604052809291908181526020018280546103939061171c565b80156103e05780601f106103b5576101008083540402835291602001916103e0565b820191906000526020600020905b8154815290600101906020018083116103c357829003601f168201915b5050505050905090565b89518b511480156103fc575088518a51145b8015610409575087518951145b8015610416575086518851145b8015610423575085518751145b8015610430575084518651145b801561043d575083518551145b801561044a575082518451145b8015610457575081518351145b8015610464575080518251145b6104a3576040517f08c379a000000000000000000000000000000000000000000000000000000000815260040161049a9061151e565b60405180910390fd5b6000805b82518110156104eb578281815181106104c3576104c261153e565b5b6020026020010151826104d6919061174d565b915080806104e3906116a5565b9150506104a7565b5034811461052e576040517f08c379a0000000000000000000000000000000000000000000000000000000008152600401610525906117cd565b60405180910390fd5b60005b8c51811015610a845760028c828151811061054f5761054e61153e565b5b6020026020010151036107eb5786818151811061056f5761056e61153e565b5b60200260200101518c828151811061058a5761058961153e565b5b60200260200101518e83815181106105a5576105a461153e565b5b602002602001015173ffffffffffffffffffffffffffffffffffffffff167f5477f9965f93d173424ef8e21fac70c586b2fdb903ecf743d7a0973e6bfe3c948c85815181106105f7576105f661153e565b5b60200260200101518c86815181106106125761061161153e565b5b60200260200101518b878151811061062d5761062c61153e565b5b60200260200101518988815181106106485761064761153e565b5b602002602001015160405161066094939291906117ed565b60405180910390a48c818151811061067b5761067a61153e565b5b602002602001015173ffffffffffffffffffffffffffffffffffffffff1663144e17108483815181106106b1576106b061153e565b5b60200260200101518d84815181106106cc576106cb61153e565b5b60200260200101518d85815181106106e7576106e661153e565b5b60200260200101518d86815181106107025761070161153e565b5b60200260200101518d878151811061071d5761071c61153e565b5b60200260200101518d88815181106107385761073761153e565b5b60200260200101518d89815181106107535761075261153e565b5b60200260200101518d8a8151811061076e5761076d61153e565b5b60200260200101518d8b815181106107895761078861153e565b5b60200260200101516040518a63ffffffff1660e01b81526004016107b4989796959493929190611832565b6000604051808303818588803b1580156107cd57600080fd5b505af11580156107e1573d6000803e3d6000fd5b5050505050610a71565b60018c8281518110610800576107ff61153e565b5b602002602001015103610a705760008d82815181106108225761082161153e565b5b602002602001015173ffffffffffffffffffffffffffffffffffffffff166312e8ac068984815181106108585761085761153e565b5b60200260200101516040518263ffffffff1660e01b815260040161087c91906118cc565b602060405180830381865afa158015610899573d6000803e3d6000fd5b505050506040513d601f19601f820116820180604052508101906108bd91906118fc565b90508782815181106108d2576108d161153e565b5b60200260200101518d83815181106108ed576108ec61153e565b5b60200260200101518f84815181106109085761090761153e565b5b602002602001015173ffffffffffffffffffffffffffffffffffffffff167f5477f9965f93d173424ef8e21fac70c586b2fdb903ecf743d7a0973e6bfe3c94848d878151811061095b5761095a61153e565b5b602002602001015160018a89815181106109785761097761153e565b5b6020026020010151604051610990949392919061196e565b60405180910390a48d82815181106109ab576109aa61153e565b5b602002602001015173ffffffffffffffffffffffffffffffffffffffff16637deb60258584815181106109e1576109e061153e565b5b60200260200101518a85815181106109fc576109fb61153e565b5b60200260200101518c8681518110610a1757610a1661153e565b5b60200260200101516040518463ffffffff1660e01b8152600401610a3c9291906119b3565b6000604051808303818588803b158015610a5557600080fd5b505af1158015610a69573d6000803e3d6000fd5b5050505050505b5b8080610a7c906116a5565b915050610531565b50505050505050505050505050565b81518351148015610aa5575080518251145b610ae4576040517f08c379a0000000000000000000000000000000000000000000000000000000008152600401610adb9061151e565b60405180910390fd5b60005b8351811015610bd4578473ffffffffffffffffffffffffffffffffffffffff1663ba3737cc858381518110610b1f57610b1e61153e565b5b6020026020010151858481518110610b3a57610b3961153e565b5b6020026020010151858581518110610b5557610b5461153e565b5b6020026020010151336040518563ffffffff1660e01b8152600401610b7d94939291906119dc565b6020604051808303816000875af1158015610b9c573d6000803e3d6000fd5b505050506040513d601f19601f82011682018060405250810190610bc09190611a44565b508080610bcc906116a5565b915050610ae7565b5050505050565b6000604051905090565b600080fd5b600080fd5b600073ffffffffffffffffffffffffffffffffffffffff82169050919050565b6000610c1a82610bef565b9050919050565b610c2a81610c0f565b8114610c3557600080fd5b50565b600081359050610c4781610c21565b92915050565b600080fd5b6000601f19601f8301169050919050565b7f4e487b7100000000000000000000000000000000000000000000000000000000600052604160045260246000fd5b610c9b82610c52565b810181811067ffffffffffffffff82111715610cba57610cb9610c63565b5b80604052505050565b6000610ccd610bdb565b9050610cd98282610c92565b919050565b600067ffffffffffffffff821115610cf957610cf8610c63565b5b602082029050602081019050919050565b600080fd5b6000610d22610d1d84610cde565b610cc3565b90508083825260208201905060208402830185811115610d4557610d44610d0a565b5b835b81811015610d6e5780610d5a8882610c38565b845260208401935050602081019050610d47565b5050509392505050565b600082601f830112610d8d57610d8c610c4d565b5b8135610d9d848260208601610d0f565b91505092915050565b600067ffffffffffffffff821115610dc157610dc0610c63565b5b602082029050602081019050919050565b6000819050919050565b610de581610dd2565b8114610df057600080fd5b50565b600081359050610e0281610ddc565b92915050565b6000610e1b610e1684610da6565b610cc3565b90508083825260208201905060208402830185811115610e3e57610e3d610d0a565b5b835b81811015610e675780610e538882610df3565b845260208401935050602081019050610e40565b5050509392505050565b600082601f830112610e8657610e85610c4d565b5b8135610e96848260208601610e08565b91505092915050565b600067ffffffffffffffff821115610eba57610eb9610c63565b5b602082029050602081019050919050565b600080fd5b600067ffffffffffffffff821115610eeb57610eea610c63565b5b610ef482610c52565b9050602081019050919050565b82818337600083830152505050565b6000610f23610f1e84610ed0565b610cc3565b905082815260208101848484011115610f3f57610f3e610ecb565b5b610f4a848285610f01565b509392505050565b600082601f830112610f6757610f66610c4d565b5b8135610f77848260208601610f10565b91505092915050565b6000610f93610f8e84610e9f565b610cc3565b90508083825260208201905060208402830185811115610fb657610fb5610d0a565b5b835b81811015610ffd57803567ffffffffffffffff811115610fdb57610fda610c4d565b5b808601610fe88982610f52565b85526020850194505050602081019050610fb8565b5050509392505050565b600082601f83011261101c5761101b610c4d565b5b813561102c848260208601610f80565b91505092915050565b60008060008060008060c0878903121561105257611051610be5565b5b600061106089828a01610c38565b965050602087013567ffffffffffffffff81111561108157611080610bea565b5b61108d89828a01610d78565b955050604087013567ffffffffffffffff8111156110ae576110ad610bea565b5b6110ba89828a01610e71565b945050606087013567ffffffffffffffff8111156110db576110da610bea565b5b6110e789828a01611007565b935050608087013567ffffffffffffffff81111561110857611107610bea565b5b61111489828a01611007565b92505060a087013567ffffffffffffffff81111561113557611134610bea565b5b61114189828a01610e71565b9150509295509295509295565b600081519050919050565b600082825260208201905092915050565b60005b8381101561118857808201518184015260208101905061116d565b60008484015250505050565b600061119f8261114e565b6111a98185611159565b93506111b981856020860161116a565b6111c281610c52565b840191505092915050565b600060208201905081810360008301526111e78184611194565b905092915050565b60008060008060008060008060008060006101608c8e03121561121557611214610be5565b5b60008c013567ffffffffffffffff81111561123357611232610bea565b5b61123f8e828f01610d78565b9b505060208c013567ffffffffffffffff8111156112605761125f610bea565b5b61126c8e828f01610e71565b9a505060408c013567ffffffffffffffff81111561128d5761128c610bea565b5b6112998e828f01611007565b99505060608c013567ffffffffffffffff8111156112ba576112b9610bea565b5b6112c68e828f01611007565b98505060808c013567ffffffffffffffff8111156112e7576112e6610bea565b5b6112f38e828f01610d78565b97505060a08c013567ffffffffffffffff81111561131457611313610bea565b5b6113208e828f01610d78565b96505060c08c013567ffffffffffffffff81111561134157611340610bea565b5b61134d8e828f01610e71565b95505060e08c013567ffffffffffffffff81111561136e5761136d610bea565b5b61137a8e828f01610e71565b9450506101008c013567ffffffffffffffff81111561139c5761139b610bea565b5b6113a88e828f01611007565b9350506101208c013567ffffffffffffffff8111156113ca576113c9610bea565b5b6113d68e828f01611007565b9250506101408c013567ffffffffffffffff8111156113f8576113f7610bea565b5b6114048e828f01610e71565b9150509295989b509295989b9093969950565b6000806000806080858703121561143157611430610be5565b5b600061143f87828801610c38565b945050602085013567ffffffffffffffff8111156114605761145f610bea565b5b61146c87828801610d78565b935050604085013567ffffffffffffffff81111561148d5761148c610bea565b5b61149987828801611007565b925050606085013567ffffffffffffffff8111156114ba576114b9610bea565b5b6114c687828801611007565b91505092959194509250565b7f6c656e677468206e6f742073616d650000000000000000000000000000000000600082015250565b6000611508600f83611159565b9150611513826114d2565b602082019050919050565b60006020820190508181036000830152611537816114fb565b9050919050565b7f4e487b7100000000000000000000000000000000000000000000000000000000600052603260045260246000fd5b600081905092915050565b60006115838261114e565b61158d818561156d565b935061159d81856020860161116a565b80840191505092915050565b60006115b58284611578565b915081905092915050565b6115c981610c0f565b82525050565b6115d881610dd2565b82525050565b60006060820190506115f360008301866115c0565b61160060208301856115cf565b61160d60408301846115cf565b949350505050565b600060a08201905061162a60008301886115c0565b61163760208301876115cf565b81810360408301526116498186611194565b9050818103606083015261165d8185611194565b905061166c60808301846115cf565b9695505050505050565b7f4e487b7100000000000000000000000000000000000000000000000000000000600052601160045260246000fd5b60006116b082610dd2565b91507fffffffffffffffffffffffffffffffffffffffffffffffffffffffffffffffff82036116e2576116e1611676565b5b600182019050919050565b7f4e487b7100000000000000000000000000000000000000000000000000000000600052602260045260246000fd5b6000600282049050600182168061173457607f821691505b602082108103611747576117466116ed565b5b50919050565b600061175882610dd2565b915061176383610dd2565b925082820190508082111561177b5761177a611676565b5b92915050565b7f76616c756520213d2073756d2076616c75657300000000000000000000000000600082015250565b60006117b7601383611159565b91506117c282611781565b602082019050919050565b600060208201905081810360008301526117e6816117aa565b9050919050565b600060808201905061180260008301876115c0565b61180f60208301866115c0565b61181c60408301856115cf565b61182960608301846115cf565b95945050505050565b600061010082019050818103600083015261184d818b611194565b90508181036020830152611861818a611194565b905061187060408301896115c0565b61187d60608301886115c0565b61188a60808301876115cf565b61189760a08301866115cf565b81810360c08301526118a98185611194565b905081810360e08301526118bd8184611194565b90509998505050505050505050565b60006020820190506118e160008301846115cf565b92915050565b6000815190506118f681610c21565b92915050565b60006020828403121561191257611911610be5565b5b6000611920848285016118e7565b91505092915050565b6000819050919050565b6000819050919050565b600061195861195361194e84611929565b611933565b610dd2565b9050919050565b6119688161193d565b82525050565b600060808201905061198360008301876115c0565b61199060208301866115c0565b61199d604083018561195f565b6119aa60608301846115cf565b95945050505050565b60006040820190506119c860008301856115cf565b6119d560208301846115c0565b9392505050565b60006080820190506119f160008301876115c0565b8181036020830152611a038186611194565b90508181036040830152611a178185611194565b9050611a2660608301846115c0565b95945050505050565b600081519050611a3e81610ddc565b92915050565b600060208284031215611a5a57611a59610be5565b5b6000611a6884828501611a2f565b9150509291505056fea2646970667358221220fa6146b45d0064727ceae8c8d7f0714b2cb9c4edc4baa8f78171387a3381425b64736f6c63430008110033","opcodes":"PUSH1 0x80 PUSH1 0x40 MSTORE CALLVALUE DUP1 ISZERO PUSH3 0x11 JUMPI PUSH1 0x0 DUP1 REVERT JUMPDEST POP PUSH1 0x40 MLOAD PUSH3 0x201D CODESIZE SUB DUP1 PUSH3 0x201D DUP4 CODECOPY DUP2 DUP2 ADD PUSH1 0x40 MSTORE DUP2 ADD SWAP1 PUSH3 0x37 SWAP2 SWAP1 PUSH3 0x1E3 JUMP JUMPDEST DUP1 PUSH1 0x0 SWAP1 DUP2 PUSH3 0x48 SWAP2 SWAP1 PUSH3 0x47F JUMP JUMPDEST POP POP PUSH3 0x566 JUMP JUMPDEST PUSH1 0x0 PUSH1 0x40 MLOAD SWAP1 POP SWAP1 JUMP JUMPDEST PUSH1 0x0 DUP1 REVERT JUMPDEST PUSH1 0x0 DUP1 REVERT JUMPDEST PUSH1 0x0 DUP1 REVERT JUMPDEST PUSH1 0x0 DUP1 REVERT JUMPDEST PUSH1 0x0 PUSH1 0x1F NOT PUSH1 0x1F DUP4 ADD AND SWAP1 POP SWAP2 SWAP1 POP JUMP JUMPDEST PUSH32 0x4E487B7100000000000000000000000000000000000000000000000000000000 PUSH1 0x0 MSTORE PUSH1 0x41 PUSH1 0x4 MSTORE PUSH1 0x24 PUSH1 0x0 REVERT JUMPDEST PUSH3 0xB9 DUP3 PUSH3 0x6E JUMP JUMPDEST DUP2 ADD DUP2 DUP2 LT PUSH8 0xFFFFFFFFFFFFFFFF DUP3 GT OR ISZERO PUSH3 0xDB JUMPI PUSH3 0xDA PUSH3 0x7F JUMP JUMPDEST JUMPDEST DUP1 PUSH1 0x40 MSTORE POP POP POP JUMP JUMPDEST PUSH1 0x0 PUSH3 0xF0 PUSH3 0x50 JUMP JUMPDEST SWAP1 POP PUSH3 0xFE DUP3 DUP3 PUSH3 0xAE JUMP JUMPDEST SWAP2 SWAP1 POP JUMP JUMPDEST PUSH1 0x0 PUSH8 0xFFFFFFFFFFFFFFFF DUP3 GT ISZERO PUSH3 0x121 JUMPI PUSH3 0x120 PUSH3 0x7F JUMP JUMPDEST JUMPDEST PUSH3 0x12C DUP3 PUSH3 0x6E JUMP JUMPDEST SWAP1 POP PUSH1 0x20 DUP2 ADD SWAP1 POP SWAP2 SWAP1 POP JUMP JUMPDEST PUSH1 0x0 JUMPDEST DUP4 DUP2 LT ISZERO PUSH3 0x159 JUMPI DUP1 DUP3 ADD MLOAD DUP2 DUP5 ADD MSTORE PUSH1 0x20 DUP2 ADD SWAP1 POP PUSH3 0x13C JUMP JUMPDEST PUSH1 0x0 DUP5 DUP5 ADD MSTORE POP POP POP POP JUMP JUMPDEST PUSH1 0x0 PUSH3 0x17C PUSH3 0x176 DUP5 PUSH3 0x103 JUMP JUMPDEST PUSH3 0xE4 JUMP JUMPDEST SWAP1 POP DUP3 DUP2 MSTORE PUSH1 0x20 DUP2 ADD DUP5 DUP5 DUP5 ADD GT ISZERO PUSH3 0x19B JUMPI PUSH3 0x19A PUSH3 0x69 JUMP JUMPDEST JUMPDEST PUSH3 0x1A8 DUP5 DUP3 DUP6 PUSH3 0x139 JUMP JUMPDEST POP SWAP4 SWAP3 POP POP POP JUMP JUMPDEST PUSH1 0x0 DUP3 PUSH1 0x1F DUP4 ADD SLT PUSH3 0x1C8 JUMPI PUSH3 0x1C7 PUSH3 0x64 JUMP JUMPDEST JUMPDEST DUP2 MLOAD PUSH3 0x1DA DUP5 DUP3 PUSH1 0x20 DUP7 ADD PUSH3 0x165 JUMP JUMPDEST SWAP2 POP POP SWAP3 SWAP2 POP POP JUMP JUMPDEST PUSH1 0x0 PUSH1 0x20 DUP3 DUP5 SUB SLT ISZERO PUSH3 0x1FC JUMPI PUSH3 0x1FB PUSH3 0x5A JUMP JUMPDEST JUMPDEST PUSH1 0x0 DUP3 ADD MLOAD PUSH8 0xFFFFFFFFFFFFFFFF DUP2 GT ISZERO PUSH3 0x21D JUMPI PUSH3 0x21C PUSH3 0x5F JUMP JUMPDEST JUMPDEST PUSH3 0x22B DUP5 DUP3 DUP6 ADD PUSH3 0x1B0 JUMP JUMPDEST SWAP2 POP POP SWAP3 SWAP2 POP POP JUMP JUMPDEST PUSH1 0x0 DUP2 MLOAD SWAP1 POP SWAP2 SWAP1 POP JUMP JUMPDEST PUSH32 0x4E487B7100000000000000000000000000000000000000000000000000000000 PUSH1 0x0 MSTORE PUSH1 0x22 PUSH1 0x4 MSTORE PUSH1 0x24 PUSH1 0x0 REVERT JUMPDEST PUSH1 0x0 PUSH1 0x2 DUP3 DIV SWAP1 POP PUSH1 0x1 DUP3 AND DUP1 PUSH3 0x287 JUMPI PUSH1 0x7F DUP3 AND SWAP2 POP JUMPDEST PUSH1 0x20 DUP3 LT DUP2 SUB PUSH3 0x29D JUMPI PUSH3 0x29C PUSH3 0x23F JUMP JUMPDEST JUMPDEST POP SWAP2 SWAP1 POP JUMP JUMPDEST PUSH1 0x0 DUP2 SWAP1 POP DUP2 PUSH1 0x0 MSTORE PUSH1 0x20 PUSH1 0x0 KECCAK256 SWAP1 POP SWAP2 SWAP1 POP JUMP JUMPDEST PUSH1 0x0 PUSH1 0x20 PUSH1 0x1F DUP4 ADD DIV SWAP1 POP SWAP2 SWAP1 POP JUMP JUMPDEST PUSH1 0x0 DUP3 DUP3 SHL SWAP1 POP SWAP3 SWAP2 POP POP JUMP JUMPDEST PUSH1 0x0 PUSH1 0x8 DUP4 MUL PUSH3 0x307 PUSH32 0xFFFFFFFFFFFFFFFFFFFFFFFFFFFFFFFFFFFFFFFFFFFFFFFFFFFFFFFFFFFFFFFF DUP3 PUSH3 0x2C8 JUMP JUMPDEST PUSH3 0x313 DUP7 DUP4 PUSH3 0x2C8 JUMP JUMPDEST SWAP6 POP DUP1 NOT DUP5 AND SWAP4 POP DUP1 DUP7 AND DUP5 OR SWAP3 POP POP POP SWAP4 SWAP3 POP POP POP JUMP JUMPDEST PUSH1 0x0 DUP2 SWAP1 POP SWAP2 SWAP1 POP JUMP JUMPDEST PUSH1 0x0 DUP2 SWAP1 POP SWAP2 SWAP1 POP JUMP JUMPDEST PUSH1 0x0 PUSH3 0x360 PUSH3 0x35A PUSH3 0x354 DUP5 PUSH3 0x32B JUMP JUMPDEST PUSH3 0x335 JUMP JUMPDEST PUSH3 0x32B JUMP JUMPDEST SWAP1 POP SWAP2 SWAP1 POP JUMP JUMPDEST PUSH1 0x0 DUP2 SWAP1 POP SWAP2 SWAP1 POP JUMP JUMPDEST PUSH3 0x37C DUP4 PUSH3 0x33F JUMP JUMPDEST PUSH3 0x394 PUSH3 0x38B DUP3 PUSH3 0x367 JUMP JUMPDEST DUP5 DUP5 SLOAD PUSH3 0x2D5 JUMP JUMPDEST DUP3 SSTORE POP POP POP POP JUMP JUMPDEST PUSH1 0x0 SWAP1 JUMP JUMPDEST PUSH3 0x3AB PUSH3 0x39C JUMP JUMPDEST PUSH3 0x3B8 DUP2 DUP5 DUP5 PUSH3 0x371 JUMP JUMPDEST POP POP POP JUMP JUMPDEST JUMPDEST DUP2 DUP2 LT ISZERO PUSH3 0x3E0 JUMPI PUSH3 0x3D4 PUSH1 0x0 DUP3 PUSH3 0x3A1 JUMP JUMPDEST PUSH1 0x1 DUP2 ADD SWAP1 POP PUSH3 0x3BE JUMP JUMPDEST POP POP JUMP JUMPDEST PUSH1 0x1F DUP3 GT ISZERO PUSH3 0x42F JUMPI PUSH3 0x3F9 DUP2 PUSH3 0x2A3 JUMP JUMPDEST PUSH3 0x404 DUP5 PUSH3 0x2B8 JUMP JUMPDEST DUP2 ADD PUSH1 0x20 DUP6 LT ISZERO PUSH3 0x414 JUMPI DUP2 SWAP1 POP JUMPDEST PUSH3 0x42C PUSH3 0x423 DUP6 PUSH3 0x2B8 JUMP JUMPDEST DUP4 ADD DUP3 PUSH3 0x3BD JUMP JUMPDEST POP POP JUMPDEST POP POP POP JUMP JUMPDEST PUSH1 0x0 DUP3 DUP3 SHR SWAP1 POP SWAP3 SWAP2 POP POP JUMP JUMPDEST PUSH1 0x0 PUSH3 0x454 PUSH1 0x0 NOT DUP5 PUSH1 0x8 MUL PUSH3 0x434 JUMP JUMPDEST NOT DUP1 DUP4 AND SWAP2 POP POP SWAP3 SWAP2 POP POP JUMP JUMPDEST PUSH1 0x0 PUSH3 0x46F DUP4 DUP4 PUSH3 0x441 JUMP JUMPDEST SWAP2 POP DUP3 PUSH1 0x2 MUL DUP3 OR SWAP1 POP SWAP3 SWAP2 POP POP JUMP JUMPDEST PUSH3 0x48A DUP3 PUSH3 0x234 JUMP JUMPDEST PUSH8 0xFFFFFFFFFFFFFFFF DUP2 GT ISZERO PUSH3 0x4A6 JUMPI PUSH3 0x4A5 PUSH3 0x7F JUMP JUMPDEST JUMPDEST PUSH3 0x4B2 DUP3 SLOAD PUSH3 0x26E JUMP JUMPDEST PUSH3 0x4BF DUP3 DUP3 DUP6 PUSH3 0x3E4 JUMP JUMPDEST PUSH1 0x0 PUSH1 0x20 SWAP1 POP PUSH1 0x1F DUP4 GT PUSH1 0x1 DUP2 EQ PUSH3 0x4F7 JUMPI PUSH1 0x0 DUP5 ISZERO PUSH3 0x4E2 JUMPI DUP3 DUP8 ADD MLOAD SWAP1 POP JUMPDEST PUSH3 0x4EE DUP6 DUP3 PUSH3 0x461 JUMP JUMPDEST DUP7 SSTORE POP PUSH3 0x55E JUMP JUMPDEST PUSH1 0x1F NOT DUP5 AND PUSH3 0x507 DUP7 PUSH3 0x2A3 JUMP JUMPDEST PUSH1 0x0 JUMPDEST DUP3 DUP2 LT ISZERO PUSH3 0x531 JUMPI DUP5 DUP10 ADD MLOAD DUP3 SSTORE PUSH1 0x1 DUP3 ADD SWAP2 POP PUSH1 0x20 DUP6 ADD SWAP5 POP PUSH1 0x20 DUP2 ADD SWAP1 POP PUSH3 0x50A JUMP JUMPDEST DUP7 DUP4 LT ISZERO PUSH3 0x551 JUMPI DUP5 DUP10 ADD MLOAD PUSH3 0x54D PUSH1 0x1F DUP10 AND DUP3 PUSH3 0x441 JUMP JUMPDEST DUP4 SSTORE POP JUMPDEST PUSH1 0x1 PUSH1 0x2 DUP9 MUL ADD DUP9 SSTORE POP POP POP JUMPDEST POP POP POP POP POP POP JUMP JUMPDEST PUSH2 0x1AA7 DUP1 PUSH3 0x576 PUSH1 0x0 CODECOPY PUSH1 0x0 RETURN INVALID PUSH1 0x80 PUSH1 0x40 MSTORE PUSH1 0x4 CALLDATASIZE LT PUSH2 0x3F JUMPI PUSH1 0x0 CALLDATALOAD PUSH1 0xE0 SHR DUP1 PUSH4 0x486115C1 EQ PUSH2 0x44 JUMPI DUP1 PUSH4 0x54FD4D50 EQ PUSH2 0x60 JUMPI DUP1 PUSH4 0xABC04D8A EQ PUSH2 0x8B JUMPI DUP1 PUSH4 0xD6C2A1C7 EQ PUSH2 0xA7 JUMPI JUMPDEST PUSH1 0x0 DUP1 REVERT JUMPDEST PUSH2 0x5E PUSH1 0x4 DUP1 CALLDATASIZE SUB DUP2 ADD SWAP1 PUSH2 0x59 SWAP2 SWAP1 PUSH2 0x1035 JUMP JUMPDEST PUSH2 0xD0 JUMP JUMPDEST STOP JUMPDEST CALLVALUE DUP1 ISZERO PUSH2 0x6C JUMPI PUSH1 0x0 DUP1 REVERT JUMPDEST POP PUSH2 0x75 PUSH2 0x358 JUMP JUMPDEST PUSH1 0x40 MLOAD PUSH2 0x82 SWAP2 SWAP1 PUSH2 0x11CD JUMP JUMPDEST PUSH1 0x40 MLOAD DUP1 SWAP2 SUB SWAP1 RETURN JUMPDEST PUSH2 0xA5 PUSH1 0x4 DUP1 CALLDATASIZE SUB DUP2 ADD SWAP1 PUSH2 0xA0 SWAP2 SWAP1 PUSH2 0x11EF JUMP JUMPDEST PUSH2 0x3EA JUMP JUMPDEST STOP JUMPDEST CALLVALUE DUP1 ISZERO PUSH2 0xB3 JUMPI PUSH1 0x0 DUP1 REVERT JUMPDEST POP PUSH2 0xCE PUSH1 0x4 DUP1 CALLDATASIZE SUB DUP2 ADD SWAP1 PUSH2 0xC9 SWAP2 SWAP1 PUSH2 0x1417 JUMP JUMPDEST PUSH2 0xA93 JUMP JUMPDEST STOP JUMPDEST DUP4 MLOAD DUP6 MLOAD EQ DUP1 ISZERO PUSH2 0xE2 JUMPI POP DUP1 MLOAD DUP5 MLOAD EQ JUMPDEST DUP1 ISZERO PUSH2 0xEF JUMPI POP DUP2 MLOAD DUP2 MLOAD EQ JUMPDEST DUP1 ISZERO PUSH2 0xFC JUMPI POP DUP3 MLOAD DUP3 MLOAD EQ JUMPDEST PUSH2 0x13B JUMPI PUSH1 0x40 MLOAD PUSH32 0x8C379A000000000000000000000000000000000000000000000000000000000 DUP2 MSTORE PUSH1 0x4 ADD PUSH2 0x132 SWAP1 PUSH2 0x151E JUMP JUMPDEST PUSH1 0x40 MLOAD DUP1 SWAP2 SUB SWAP1 REVERT JUMPDEST PUSH1 0x0 JUMPDEST DUP6 MLOAD DUP2 LT ISZERO PUSH2 0x34F JUMPI DUP3 DUP2 DUP2 MLOAD DUP2 LT PUSH2 0x15A JUMPI PUSH2 0x159 PUSH2 0x153E JUMP JUMPDEST JUMPDEST PUSH1 0x20 MUL PUSH1 0x20 ADD ADD MLOAD PUSH1 0x40 MLOAD PUSH2 0x16F SWAP2 SWAP1 PUSH2 0x15A9 JUMP JUMPDEST PUSH1 0x40 MLOAD DUP1 SWAP2 SUB SWAP1 KECCAK256 DUP5 DUP3 DUP2 MLOAD DUP2 LT PUSH2 0x18A JUMPI PUSH2 0x189 PUSH2 0x153E JUMP JUMPDEST JUMPDEST PUSH1 0x20 MUL PUSH1 0x20 ADD ADD MLOAD PUSH1 0x40 MLOAD PUSH2 0x19F SWAP2 SWAP1 PUSH2 0x15A9 JUMP JUMPDEST PUSH1 0x40 MLOAD DUP1 SWAP2 SUB SWAP1 KECCAK256 DUP9 PUSH20 0xFFFFFFFFFFFFFFFFFFFFFFFFFFFFFFFFFFFFFFFF AND PUSH32 0xC37DC1B1FAB95366F4247BDFB31BDEC1E49642E878C0316766B469B1AF36F073 DUP10 DUP6 DUP2 MLOAD DUP2 LT PUSH2 0x1F2 JUMPI PUSH2 0x1F1 PUSH2 0x153E JUMP JUMPDEST JUMPDEST PUSH1 0x20 MUL PUSH1 0x20 ADD ADD MLOAD DUP10 DUP7 DUP2 MLOAD DUP2 LT PUSH2 0x20D JUMPI PUSH2 0x20C PUSH2 0x153E JUMP JUMPDEST JUMPDEST PUSH1 0x20 MUL PUSH1 0x20 ADD ADD MLOAD DUP8 DUP8 DUP2 MLOAD DUP2 LT PUSH2 0x228 JUMPI PUSH2 0x227 PUSH2 0x153E JUMP JUMPDEST JUMPDEST PUSH1 0x20 MUL PUSH1 0x20 ADD ADD MLOAD PUSH1 0x40 MLOAD PUSH2 0x23F SWAP4 SWAP3 SWAP2 SWAP1 PUSH2 0x15DE JUMP JUMPDEST PUSH1 0x40 MLOAD DUP1 SWAP2 SUB SWAP1 LOG4 DUP7 PUSH20 0xFFFFFFFFFFFFFFFFFFFFFFFFFFFFFFFFFFFFFFFF AND PUSH4 0xAF72BD91 DUP8 DUP4 DUP2 MLOAD DUP2 LT PUSH2 0x276 JUMPI PUSH2 0x275 PUSH2 0x153E JUMP JUMPDEST JUMPDEST PUSH1 0x20 MUL PUSH1 0x20 ADD ADD MLOAD DUP8 DUP5 DUP2 MLOAD DUP2 LT PUSH2 0x291 JUMPI PUSH2 0x290 PUSH2 0x153E JUMP JUMPDEST JUMPDEST PUSH1 0x20 MUL PUSH1 0x20 ADD ADD MLOAD DUP8 DUP6 DUP2 MLOAD DUP2 LT PUSH2 0x2AC JUMPI PUSH2 0x2AB PUSH2 0x153E JUMP JUMPDEST JUMPDEST PUSH1 0x20 MUL PUSH1 0x20 ADD ADD MLOAD DUP8 DUP7 DUP2 MLOAD DUP2 LT PUSH2 0x2C7 JUMPI PUSH2 0x2C6 PUSH2 0x153E JUMP JUMPDEST JUMPDEST PUSH1 0x20 MUL PUSH1 0x20 ADD ADD MLOAD DUP8 DUP8 DUP2 MLOAD DUP2 LT PUSH2 0x2E2 JUMPI PUSH2 0x2E1 PUSH2 0x153E JUMP JUMPDEST JUMPDEST PUSH1 0x20 MUL PUSH1 0x20 ADD ADD MLOAD PUSH1 0x40 MLOAD DUP7 PUSH4 0xFFFFFFFF AND PUSH1 0xE0 SHL DUP2 MSTORE PUSH1 0x4 ADD PUSH2 0x30A SWAP6 SWAP5 SWAP4 SWAP3 SWAP2 SWAP1 PUSH2 0x1615 JUMP JUMPDEST PUSH1 0x0 PUSH1 0x40 MLOAD DUP1 DUP4 SUB DUP2 PUSH1 0x0 DUP8 DUP1 EXTCODESIZE ISZERO DUP1 ISZERO PUSH2 0x324 JUMPI PUSH1 0x0 DUP1 REVERT JUMPDEST POP GAS CALL ISZERO DUP1 ISZERO PUSH2 0x338 JUMPI RETURNDATASIZE PUSH1 0x0 DUP1 RETURNDATACOPY RETURNDATASIZE PUSH1 0x0 REVERT JUMPDEST POP POP POP POP DUP1 DUP1 PUSH2 0x347 SWAP1 PUSH2 0x16A5 JUMP JUMPDEST SWAP2 POP POP PUSH2 0x13E JUMP JUMPDEST POP POP POP POP POP POP POP JUMP JUMPDEST PUSH1 0x60 PUSH1 0x0 DUP1 SLOAD PUSH2 0x367 SWAP1 PUSH2 0x171C JUMP JUMPDEST DUP1 PUSH1 0x1F ADD PUSH1 0x20 DUP1 SWAP2 DIV MUL PUSH1 0x20 ADD PUSH1 0x40 MLOAD SWAP1 DUP2 ADD PUSH1 0x40 MSTORE DUP1 SWAP3 SWAP2 SWAP1 DUP2 DUP2 MSTORE PUSH1 0x20 ADD DUP3 DUP1 SLOAD PUSH2 0x393 SWAP1 PUSH2 0x171C JUMP JUMPDEST DUP1 ISZERO PUSH2 0x3E0 JUMPI DUP1 PUSH1 0x1F LT PUSH2 0x3B5 JUMPI PUSH2 0x100 DUP1 DUP4 SLOAD DIV MUL DUP4 MSTORE SWAP2 PUSH1 0x20 ADD SWAP2 PUSH2 0x3E0 JUMP JUMPDEST DUP3 ADD SWAP2 SWAP1 PUSH1 0x0 MSTORE PUSH1 0x20 PUSH1 0x0 KECCAK256 SWAP1 JUMPDEST DUP2 SLOAD DUP2 MSTORE SWAP1 PUSH1 0x1 ADD SWAP1 PUSH1 0x20 ADD DUP1 DUP4 GT PUSH2 0x3C3 JUMPI DUP3 SWAP1 SUB PUSH1 0x1F AND DUP3 ADD SWAP2 JUMPDEST POP POP POP POP POP SWAP1 POP SWAP1 JUMP JUMPDEST DUP10 MLOAD DUP12 MLOAD EQ DUP1 ISZERO PUSH2 0x3FC JUMPI POP DUP9 MLOAD DUP11 MLOAD EQ JUMPDEST DUP1 ISZERO PUSH2 0x409 JUMPI POP DUP8 MLOAD DUP10 MLOAD EQ JUMPDEST DUP1 ISZERO PUSH2 0x416 JUMPI POP DUP7 MLOAD DUP9 MLOAD EQ JUMPDEST DUP1 ISZERO PUSH2 0x423 JUMPI POP DUP6 MLOAD DUP8 MLOAD EQ JUMPDEST DUP1 ISZERO PUSH2 0x430 JUMPI POP DUP5 MLOAD DUP7 MLOAD EQ JUMPDEST DUP1 ISZERO PUSH2 0x43D JUMPI POP DUP4 MLOAD DUP6 MLOAD EQ JUMPDEST DUP1 ISZERO PUSH2 0x44A JUMPI POP DUP3 MLOAD DUP5 MLOAD EQ JUMPDEST DUP1 ISZERO PUSH2 0x457 JUMPI POP DUP2 MLOAD DUP4 MLOAD EQ JUMPDEST DUP1 ISZERO PUSH2 0x464 JUMPI POP DUP1 MLOAD DUP3 MLOAD EQ JUMPDEST PUSH2 0x4A3 JUMPI PUSH1 0x40 MLOAD PUSH32 0x8C379A000000000000000000000000000000000000000000000000000000000 DUP2 MSTORE PUSH1 0x4 ADD PUSH2 0x49A SWAP1 PUSH2 0x151E JUMP JUMPDEST PUSH1 0x40 MLOAD DUP1 SWAP2 SUB SWAP1 REVERT JUMPDEST PUSH1 0x0 DUP1 JUMPDEST DUP3 MLOAD DUP2 LT ISZERO PUSH2 0x4EB JUMPI DUP3 DUP2 DUP2 MLOAD DUP2 LT PUSH2 0x4C3 JUMPI PUSH2 0x4C2 PUSH2 0x153E JUMP JUMPDEST JUMPDEST PUSH1 0x20 MUL PUSH1 0x20 ADD ADD MLOAD DUP3 PUSH2 0x4D6 SWAP2 SWAP1 PUSH2 0x174D JUMP JUMPDEST SWAP2 POP DUP1 DUP1 PUSH2 0x4E3 SWAP1 PUSH2 0x16A5 JUMP JUMPDEST SWAP2 POP POP PUSH2 0x4A7 JUMP JUMPDEST POP CALLVALUE DUP2 EQ PUSH2 0x52E JUMPI PUSH1 0x40 MLOAD PUSH32 0x8C379A000000000000000000000000000000000000000000000000000000000 DUP2 MSTORE PUSH1 0x4 ADD PUSH2 0x525 SWAP1 PUSH2 0x17CD JUMP JUMPDEST PUSH1 0x40 MLOAD DUP1 SWAP2 SUB SWAP1 REVERT JUMPDEST PUSH1 0x0 JUMPDEST DUP13 MLOAD DUP2 LT ISZERO PUSH2 0xA84 JUMPI PUSH1 0x2 DUP13 DUP3 DUP2 MLOAD DUP2 LT PUSH2 0x54F JUMPI PUSH2 0x54E PUSH2 0x153E JUMP JUMPDEST JUMPDEST PUSH1 0x20 MUL PUSH1 0x20 ADD ADD MLOAD SUB PUSH2 0x7EB JUMPI DUP7 DUP2 DUP2 MLOAD DUP2 LT PUSH2 0x56F JUMPI PUSH2 0x56E PUSH2 0x153E JUMP JUMPDEST JUMPDEST PUSH1 0x20 MUL PUSH1 0x20 ADD ADD MLOAD DUP13 DUP3 DUP2 MLOAD DUP2 LT PUSH2 0x58A JUMPI PUSH2 0x589 PUSH2 0x153E JUMP JUMPDEST JUMPDEST PUSH1 0x20 MUL PUSH1 0x20 ADD ADD MLOAD DUP15 DUP4 DUP2 MLOAD DUP2 LT PUSH2 0x5A5 JUMPI PUSH2 0x5A4 PUSH2 0x153E JUMP JUMPDEST JUMPDEST PUSH1 0x20 MUL PUSH1 0x20 ADD ADD MLOAD PUSH20 0xFFFFFFFFFFFFFFFFFFFFFFFFFFFFFFFFFFFFFFFF AND PUSH32 0x5477F9965F93D173424EF8E21FAC70C586B2FDB903ECF743D7A0973E6BFE3C94 DUP13 DUP6 DUP2 MLOAD DUP2 LT PUSH2 0x5F7 JUMPI PUSH2 0x5F6 PUSH2 0x153E JUMP JUMPDEST JUMPDEST PUSH1 0x20 MUL PUSH1 0x20 ADD ADD MLOAD DUP13 DUP7 DUP2 MLOAD DUP2 LT PUSH2 0x612 JUMPI PUSH2 0x611 PUSH2 0x153E JUMP JUMPDEST JUMPDEST PUSH1 0x20 MUL PUSH1 0x20 ADD ADD MLOAD DUP12 DUP8 DUP2 MLOAD DUP2 LT PUSH2 0x62D JUMPI PUSH2 0x62C PUSH2 0x153E JUMP JUMPDEST JUMPDEST PUSH1 0x20 MUL PUSH1 0x20 ADD ADD MLOAD DUP10 DUP9 DUP2 MLOAD DUP2 LT PUSH2 0x648 JUMPI PUSH2 0x647 PUSH2 0x153E JUMP JUMPDEST JUMPDEST PUSH1 0x20 MUL PUSH1 0x20 ADD ADD MLOAD PUSH1 0x40 MLOAD PUSH2 0x660 SWAP5 SWAP4 SWAP3 SWAP2 SWAP1 PUSH2 0x17ED JUMP JUMPDEST PUSH1 0x40 MLOAD DUP1 SWAP2 SUB SWAP1 LOG4 DUP13 DUP2 DUP2 MLOAD DUP2 LT PUSH2 0x67B JUMPI PUSH2 0x67A PUSH2 0x153E JUMP JUMPDEST JUMPDEST PUSH1 0x20 MUL PUSH1 0x20 ADD ADD MLOAD PUSH20 0xFFFFFFFFFFFFFFFFFFFFFFFFFFFFFFFFFFFFFFFF AND PUSH4 0x144E1710 DUP5 DUP4 DUP2 MLOAD DUP2 LT PUSH2 0x6B1 JUMPI PUSH2 0x6B0 PUSH2 0x153E JUMP JUMPDEST JUMPDEST PUSH1 0x20 MUL PUSH1 0x20 ADD ADD MLOAD DUP14 DUP5 DUP2 MLOAD DUP2 LT PUSH2 0x6CC JUMPI PUSH2 0x6CB PUSH2 0x153E JUMP JUMPDEST JUMPDEST PUSH1 0x20 MUL PUSH1 0x20 ADD ADD MLOAD DUP14 DUP6 DUP2 MLOAD DUP2 LT PUSH2 0x6E7 JUMPI PUSH2 0x6E6 PUSH2 0x153E JUMP JUMPDEST JUMPDEST PUSH1 0x20 MUL PUSH1 0x20 ADD ADD MLOAD DUP14 DUP7 DUP2 MLOAD DUP2 LT PUSH2 0x702 JUMPI PUSH2 0x701 PUSH2 0x153E JUMP JUMPDEST JUMPDEST PUSH1 0x20 MUL PUSH1 0x20 ADD ADD MLOAD DUP14 DUP8 DUP2 MLOAD DUP2 LT PUSH2 0x71D JUMPI PUSH2 0x71C PUSH2 0x153E JUMP JUMPDEST JUMPDEST PUSH1 0x20 MUL PUSH1 0x20 ADD ADD MLOAD DUP14 DUP9 DUP2 MLOAD DUP2 LT PUSH2 0x738 JUMPI PUSH2 0x737 PUSH2 0x153E JUMP JUMPDEST JUMPDEST PUSH1 0x20 MUL PUSH1 0x20 ADD ADD MLOAD DUP14 DUP10 DUP2 MLOAD DUP2 LT PUSH2 0x753 JUMPI PUSH2 0x752 PUSH2 0x153E JUMP JUMPDEST JUMPDEST PUSH1 0x20 MUL PUSH1 0x20 ADD ADD MLOAD DUP14 DUP11 DUP2 MLOAD DUP2 LT PUSH2 0x76E JUMPI PUSH2 0x76D PUSH2 0x153E JUMP JUMPDEST JUMPDEST PUSH1 0x20 MUL PUSH1 0x20 ADD ADD MLOAD DUP14 DUP12 DUP2 MLOAD DUP2 LT PUSH2 0x789 JUMPI PUSH2 0x788 PUSH2 0x153E JUMP JUMPDEST JUMPDEST PUSH1 0x20 MUL PUSH1 0x20 ADD ADD MLOAD PUSH1 0x40 MLOAD DUP11 PUSH4 0xFFFFFFFF AND PUSH1 0xE0 SHL DUP2 MSTORE PUSH1 0x4 ADD PUSH2 0x7B4 SWAP9 SWAP8 SWAP7 SWAP6 SWAP5 SWAP4 SWAP3 SWAP2 SWAP1 PUSH2 0x1832 JUMP JUMPDEST PUSH1 0x0 PUSH1 0x40 MLOAD DUP1 DUP4 SUB DUP2 DUP6 DUP9 DUP1 EXTCODESIZE ISZERO DUP1 ISZERO PUSH2 0x7CD JUMPI PUSH1 0x0 DUP1 REVERT JUMPDEST POP GAS CALL ISZERO DUP1 ISZERO PUSH2 0x7E1 JUMPI RETURNDATASIZE PUSH1 0x0 DUP1 RETURNDATACOPY RETURNDATASIZE PUSH1 0x0 REVERT JUMPDEST POP POP POP POP POP PUSH2 0xA71 JUMP JUMPDEST PUSH1 0x1 DUP13 DUP3 DUP2 MLOAD DUP2 LT PUSH2 0x800 JUMPI PUSH2 0x7FF PUSH2 0x153E JUMP JUMPDEST JUMPDEST PUSH1 0x20 MUL PUSH1 0x20 ADD ADD MLOAD SUB PUSH2 0xA70 JUMPI PUSH1 0x0 DUP14 DUP3 DUP2 MLOAD DUP2 LT PUSH2 0x822 JUMPI PUSH2 0x821 PUSH2 0x153E JUMP JUMPDEST JUMPDEST PUSH1 0x20 MUL PUSH1 0x20 ADD ADD MLOAD PUSH20 0xFFFFFFFFFFFFFFFFFFFFFFFFFFFFFFFFFFFFFFFF AND PUSH4 0x12E8AC06 DUP10 DUP5 DUP2 MLOAD DUP2 LT PUSH2 0x858 JUMPI PUSH2 0x857 PUSH2 0x153E JUMP JUMPDEST JUMPDEST PUSH1 0x20 MUL PUSH1 0x20 ADD ADD MLOAD PUSH1 0x40 MLOAD DUP3 PUSH4 0xFFFFFFFF AND PUSH1 0xE0 SHL DUP2 MSTORE PUSH1 0x4 ADD PUSH2 0x87C SWAP2 SWAP1 PUSH2 0x18CC JUMP JUMPDEST PUSH1 0x20 PUSH1 0x40 MLOAD DUP1 DUP4 SUB DUP2 DUP7 GAS STATICCALL ISZERO DUP1 ISZERO PUSH2 0x899 JUMPI RETURNDATASIZE PUSH1 0x0 DUP1 RETURNDATACOPY RETURNDATASIZE PUSH1 0x0 REVERT JUMPDEST POP POP POP POP PUSH1 0x40 MLOAD RETURNDATASIZE PUSH1 0x1F NOT PUSH1 0x1F DUP3 ADD AND DUP3 ADD DUP1 PUSH1 0x40 MSTORE POP DUP2 ADD SWAP1 PUSH2 0x8BD SWAP2 SWAP1 PUSH2 0x18FC JUMP JUMPDEST SWAP1 POP DUP8 DUP3 DUP2 MLOAD DUP2 LT PUSH2 0x8D2 JUMPI PUSH2 0x8D1 PUSH2 0x153E JUMP JUMPDEST JUMPDEST PUSH1 0x20 MUL PUSH1 0x20 ADD ADD MLOAD DUP14 DUP4 DUP2 MLOAD DUP2 LT PUSH2 0x8ED JUMPI PUSH2 0x8EC PUSH2 0x153E JUMP JUMPDEST JUMPDEST PUSH1 0x20 MUL PUSH1 0x20 ADD ADD MLOAD DUP16 DUP5 DUP2 MLOAD DUP2 LT PUSH2 0x908 JUMPI PUSH2 0x907 PUSH2 0x153E JUMP JUMPDEST JUMPDEST PUSH1 0x20 MUL PUSH1 0x20 ADD ADD MLOAD PUSH20 0xFFFFFFFFFFFFFFFFFFFFFFFFFFFFFFFFFFFFFFFF AND PUSH32 0x5477F9965F93D173424EF8E21FAC70C586B2FDB903ECF743D7A0973E6BFE3C94 DUP5 DUP14 DUP8 DUP2 MLOAD DUP2 LT PUSH2 0x95B JUMPI PUSH2 0x95A PUSH2 0x153E JUMP JUMPDEST JUMPDEST PUSH1 0x20 MUL PUSH1 0x20 ADD ADD MLOAD PUSH1 0x1 DUP11 DUP10 DUP2 MLOAD DUP2 LT PUSH2 0x978 JUMPI PUSH2 0x977 PUSH2 0x153E JUMP JUMPDEST JUMPDEST PUSH1 0x20 MUL PUSH1 0x20 ADD ADD MLOAD PUSH1 0x40 MLOAD PUSH2 0x990 SWAP5 SWAP4 SWAP3 SWAP2 SWAP1 PUSH2 0x196E JUMP JUMPDEST PUSH1 0x40 MLOAD DUP1 SWAP2 SUB SWAP1 LOG4 DUP14 DUP3 DUP2 MLOAD DUP2 LT PUSH2 0x9AB JUMPI PUSH2 0x9AA PUSH2 0x153E JUMP JUMPDEST JUMPDEST PUSH1 0x20 MUL PUSH1 0x20 ADD ADD MLOAD PUSH20 0xFFFFFFFFFFFFFFFFFFFFFFFFFFFFFFFFFFFFFFFF AND PUSH4 0x7DEB6025 DUP6 DUP5 DUP2 MLOAD DUP2 LT PUSH2 0x9E1 JUMPI PUSH2 0x9E0 PUSH2 0x153E JUMP JUMPDEST JUMPDEST PUSH1 0x20 MUL PUSH1 0x20 ADD ADD MLOAD DUP11 DUP6 DUP2 MLOAD DUP2 LT PUSH2 0x9FC JUMPI PUSH2 0x9FB PUSH2 0x153E JUMP JUMPDEST JUMPDEST PUSH1 0x20 MUL PUSH1 0x20 ADD ADD MLOAD DUP13 DUP7 DUP2 MLOAD DUP2 LT PUSH2 0xA17 JUMPI PUSH2 0xA16 PUSH2 0x153E JUMP JUMPDEST JUMPDEST PUSH1 0x20 MUL PUSH1 0x20 ADD ADD MLOAD PUSH1 0x40 MLOAD DUP5 PUSH4 0xFFFFFFFF AND PUSH1 0xE0 SHL DUP2 MSTORE PUSH1 0x4 ADD PUSH2 0xA3C SWAP3 SWAP2 SWAP1 PUSH2 0x19B3 JUMP JUMPDEST PUSH1 0x0 PUSH1 0x40 MLOAD DUP1 DUP4 SUB DUP2 DUP6 DUP9 DUP1 EXTCODESIZE ISZERO DUP1 ISZERO PUSH2 0xA55 JUMPI PUSH1 0x0 DUP1 REVERT JUMPDEST POP GAS CALL ISZERO DUP1 ISZERO PUSH2 0xA69 JUMPI RETURNDATASIZE PUSH1 0x0 DUP1 RETURNDATACOPY RETURNDATASIZE PUSH1 0x0 REVERT JUMPDEST POP POP POP POP POP POP JUMPDEST JUMPDEST DUP1 DUP1 PUSH2 0xA7C SWAP1 PUSH2 0x16A5 JUMP JUMPDEST SWAP2 POP POP PUSH2 0x531 JUMP JUMPDEST POP POP POP POP POP POP POP POP POP POP POP POP POP JUMP JUMPDEST DUP2 MLOAD DUP4 MLOAD EQ DUP1 ISZERO PUSH2 0xAA5 JUMPI POP DUP1 MLOAD DUP3 MLOAD EQ JUMPDEST PUSH2 0xAE4 JUMPI PUSH1 0x40 MLOAD PUSH32 0x8C379A000000000000000000000000000000000000000000000000000000000 DUP2 MSTORE PUSH1 0x4 ADD PUSH2 0xADB SWAP1 PUSH2 0x151E JUMP JUMPDEST PUSH1 0x40 MLOAD DUP1 SWAP2 SUB SWAP1 REVERT JUMPDEST PUSH1 0x0 JUMPDEST DUP4 MLOAD DUP2 LT ISZERO PUSH2 0xBD4 JUMPI DUP5 PUSH20 0xFFFFFFFFFFFFFFFFFFFFFFFFFFFFFFFFFFFFFFFF AND PUSH4 0xBA3737CC DUP6 DUP4 DUP2 MLOAD DUP2 LT PUSH2 0xB1F JUMPI PUSH2 0xB1E PUSH2 0x153E JUMP JUMPDEST JUMPDEST PUSH1 0x20 MUL PUSH1 0x20 ADD ADD MLOAD DUP6 DUP5 DUP2 MLOAD DUP2 LT PUSH2 0xB3A JUMPI PUSH2 0xB39 PUSH2 0x153E JUMP JUMPDEST JUMPDEST PUSH1 0x20 MUL PUSH1 0x20 ADD ADD MLOAD DUP6 DUP6 DUP2 MLOAD DUP2 LT PUSH2 0xB55 JUMPI PUSH2 0xB54 PUSH2 0x153E JUMP JUMPDEST JUMPDEST PUSH1 0x20 MUL PUSH1 0x20 ADD ADD MLOAD CALLER PUSH1 0x40 MLOAD DUP6 PUSH4 0xFFFFFFFF AND PUSH1 0xE0 SHL DUP2 MSTORE PUSH1 0x4 ADD PUSH2 0xB7D SWAP5 SWAP4 SWAP3 SWAP2 SWAP1 PUSH2 0x19DC JUMP JUMPDEST PUSH1 0x20 PUSH1 0x40 MLOAD DUP1 DUP4 SUB DUP2 PUSH1 0x0 DUP8 GAS CALL ISZERO DUP1 ISZERO PUSH2 0xB9C JUMPI RETURNDATASIZE PUSH1 0x0 DUP1 RETURNDATACOPY RETURNDATASIZE PUSH1 0x0 REVERT JUMPDEST POP POP POP POP PUSH1 0x40 MLOAD RETURNDATASIZE PUSH1 0x1F NOT PUSH1 0x1F DUP3 ADD AND DUP3 ADD DUP1 PUSH1 0x40 MSTORE POP DUP2 ADD SWAP1 PUSH2 0xBC0 SWAP2 SWAP1 PUSH2 0x1A44 JUMP JUMPDEST POP DUP1 DUP1 PUSH2 0xBCC SWAP1 PUSH2 0x16A5 JUMP JUMPDEST SWAP2 POP POP PUSH2 0xAE7 JUMP JUMPDEST POP POP POP POP POP JUMP JUMPDEST PUSH1 0x0 PUSH1 0x40 MLOAD SWAP1 POP SWAP1 JUMP JUMPDEST PUSH1 0x0 DUP1 REVERT JUMPDEST PUSH1 0x0 DUP1 REVERT JUMPDEST PUSH1 0x0 PUSH20 0xFFFFFFFFFFFFFFFFFFFFFFFFFFFFFFFFFFFFFFFF DUP3 AND SWAP1 POP SWAP2 SWAP1 POP JUMP JUMPDEST PUSH1 0x0 PUSH2 0xC1A DUP3 PUSH2 0xBEF JUMP JUMPDEST SWAP1 POP SWAP2 SWAP1 POP JUMP JUMPDEST PUSH2 0xC2A DUP2 PUSH2 0xC0F JUMP JUMPDEST DUP2 EQ PUSH2 0xC35 JUMPI PUSH1 0x0 DUP1 REVERT JUMPDEST POP JUMP JUMPDEST PUSH1 0x0 DUP2 CALLDATALOAD SWAP1 POP PUSH2 0xC47 DUP2 PUSH2 0xC21 JUMP JUMPDEST SWAP3 SWAP2 POP POP JUMP JUMPDEST PUSH1 0x0 DUP1 REVERT JUMPDEST PUSH1 0x0 PUSH1 0x1F NOT PUSH1 0x1F DUP4 ADD AND SWAP1 POP SWAP2 SWAP1 POP JUMP JUMPDEST PUSH32 0x4E487B7100000000000000000000000000000000000000000000000000000000 PUSH1 0x0 MSTORE PUSH1 0x41 PUSH1 0x4 MSTORE PUSH1 0x24 PUSH1 0x0 REVERT JUMPDEST PUSH2 0xC9B DUP3 PUSH2 0xC52 JUMP JUMPDEST DUP2 ADD DUP2 DUP2 LT PUSH8 0xFFFFFFFFFFFFFFFF DUP3 GT OR ISZERO PUSH2 0xCBA JUMPI PUSH2 0xCB9 PUSH2 0xC63 JUMP JUMPDEST JUMPDEST DUP1 PUSH1 0x40 MSTORE POP POP POP JUMP JUMPDEST PUSH1 0x0 PUSH2 0xCCD PUSH2 0xBDB JUMP JUMPDEST SWAP1 POP PUSH2 0xCD9 DUP3 DUP3 PUSH2 0xC92 JUMP JUMPDEST SWAP2 SWAP1 POP JUMP JUMPDEST PUSH1 0x0 PUSH8 0xFFFFFFFFFFFFFFFF DUP3 GT ISZERO PUSH2 0xCF9 JUMPI PUSH2 0xCF8 PUSH2 0xC63 JUMP JUMPDEST JUMPDEST PUSH1 0x20 DUP3 MUL SWAP1 POP PUSH1 0x20 DUP2 ADD SWAP1 POP SWAP2 SWAP1 POP JUMP JUMPDEST PUSH1 0x0 DUP1 REVERT JUMPDEST PUSH1 0x0 PUSH2 0xD22 PUSH2 0xD1D DUP5 PUSH2 0xCDE JUMP JUMPDEST PUSH2 0xCC3 JUMP JUMPDEST SWAP1 POP DUP1 DUP4 DUP3 MSTORE PUSH1 0x20 DUP3 ADD SWAP1 POP PUSH1 0x20 DUP5 MUL DUP4 ADD DUP6 DUP2 GT ISZERO PUSH2 0xD45 JUMPI PUSH2 0xD44 PUSH2 0xD0A JUMP JUMPDEST JUMPDEST DUP4 JUMPDEST DUP2 DUP2 LT ISZERO PUSH2 0xD6E JUMPI DUP1 PUSH2 0xD5A DUP9 DUP3 PUSH2 0xC38 JUMP JUMPDEST DUP5 MSTORE PUSH1 0x20 DUP5 ADD SWAP4 POP POP PUSH1 0x20 DUP2 ADD SWAP1 POP PUSH2 0xD47 JUMP JUMPDEST POP POP POP SWAP4 SWAP3 POP POP POP JUMP JUMPDEST PUSH1 0x0 DUP3 PUSH1 0x1F DUP4 ADD SLT PUSH2 0xD8D JUMPI PUSH2 0xD8C PUSH2 0xC4D JUMP JUMPDEST JUMPDEST DUP2 CALLDATALOAD PUSH2 0xD9D DUP5 DUP3 PUSH1 0x20 DUP7 ADD PUSH2 0xD0F JUMP JUMPDEST SWAP2 POP POP SWAP3 SWAP2 POP POP JUMP JUMPDEST PUSH1 0x0 PUSH8 0xFFFFFFFFFFFFFFFF DUP3 GT ISZERO PUSH2 0xDC1 JUMPI PUSH2 0xDC0 PUSH2 0xC63 JUMP JUMPDEST JUMPDEST PUSH1 0x20 DUP3 MUL SWAP1 POP PUSH1 0x20 DUP2 ADD SWAP1 POP SWAP2 SWAP1 POP JUMP JUMPDEST PUSH1 0x0 DUP2 SWAP1 POP SWAP2 SWAP1 POP JUMP JUMPDEST PUSH2 0xDE5 DUP2 PUSH2 0xDD2 JUMP JUMPDEST DUP2 EQ PUSH2 0xDF0 JUMPI PUSH1 0x0 DUP1 REVERT JUMPDEST POP JUMP JUMPDEST PUSH1 0x0 DUP2 CALLDATALOAD SWAP1 POP PUSH2 0xE02 DUP2 PUSH2 0xDDC JUMP JUMPDEST SWAP3 SWAP2 POP POP JUMP JUMPDEST PUSH1 0x0 PUSH2 0xE1B PUSH2 0xE16 DUP5 PUSH2 0xDA6 JUMP JUMPDEST PUSH2 0xCC3 JUMP JUMPDEST SWAP1 POP DUP1 DUP4 DUP3 MSTORE PUSH1 0x20 DUP3 ADD SWAP1 POP PUSH1 0x20 DUP5 MUL DUP4 ADD DUP6 DUP2 GT ISZERO PUSH2 0xE3E JUMPI PUSH2 0xE3D PUSH2 0xD0A JUMP JUMPDEST JUMPDEST DUP4 JUMPDEST DUP2 DUP2 LT ISZERO PUSH2 0xE67 JUMPI DUP1 PUSH2 0xE53 DUP9 DUP3 PUSH2 0xDF3 JUMP JUMPDEST DUP5 MSTORE PUSH1 0x20 DUP5 ADD SWAP4 POP POP PUSH1 0x20 DUP2 ADD SWAP1 POP PUSH2 0xE40 JUMP JUMPDEST POP POP POP SWAP4 SWAP3 POP POP POP JUMP JUMPDEST PUSH1 0x0 DUP3 PUSH1 0x1F DUP4 ADD SLT PUSH2 0xE86 JUMPI PUSH2 0xE85 PUSH2 0xC4D JUMP JUMPDEST JUMPDEST DUP2 CALLDATALOAD PUSH2 0xE96 DUP5 DUP3 PUSH1 0x20 DUP7 ADD PUSH2 0xE08 JUMP JUMPDEST SWAP2 POP POP SWAP3 SWAP2 POP POP JUMP JUMPDEST PUSH1 0x0 PUSH8 0xFFFFFFFFFFFFFFFF DUP3 GT ISZERO PUSH2 0xEBA JUMPI PUSH2 0xEB9 PUSH2 0xC63 JUMP JUMPDEST JUMPDEST PUSH1 0x20 DUP3 MUL SWAP1 POP PUSH1 0x20 DUP2 ADD SWAP1 POP SWAP2 SWAP1 POP JUMP JUMPDEST PUSH1 0x0 DUP1 REVERT JUMPDEST PUSH1 0x0 PUSH8 0xFFFFFFFFFFFFFFFF DUP3 GT ISZERO PUSH2 0xEEB JUMPI PUSH2 0xEEA PUSH2 0xC63 JUMP JUMPDEST JUMPDEST PUSH2 0xEF4 DUP3 PUSH2 0xC52 JUMP JUMPDEST SWAP1 POP PUSH1 0x20 DUP2 ADD SWAP1 POP SWAP2 SWAP1 POP JUMP JUMPDEST DUP3 DUP2 DUP4 CALLDATACOPY PUSH1 0x0 DUP4 DUP4 ADD MSTORE POP POP POP JUMP JUMPDEST PUSH1 0x0 PUSH2 0xF23 PUSH2 0xF1E DUP5 PUSH2 0xED0 JUMP JUMPDEST PUSH2 0xCC3 JUMP JUMPDEST SWAP1 POP DUP3 DUP2 MSTORE PUSH1 0x20 DUP2 ADD DUP5 DUP5 DUP5 ADD GT ISZERO PUSH2 0xF3F JUMPI PUSH2 0xF3E PUSH2 0xECB JUMP JUMPDEST JUMPDEST PUSH2 0xF4A DUP5 DUP3 DUP6 PUSH2 0xF01 JUMP JUMPDEST POP SWAP4 SWAP3 POP POP POP JUMP JUMPDEST PUSH1 0x0 DUP3 PUSH1 0x1F DUP4 ADD SLT PUSH2 0xF67 JUMPI PUSH2 0xF66 PUSH2 0xC4D JUMP JUMPDEST JUMPDEST DUP2 CALLDATALOAD PUSH2 0xF77 DUP5 DUP3 PUSH1 0x20 DUP7 ADD PUSH2 0xF10 JUMP JUMPDEST SWAP2 POP POP SWAP3 SWAP2 POP POP JUMP JUMPDEST PUSH1 0x0 PUSH2 0xF93 PUSH2 0xF8E DUP5 PUSH2 0xE9F JUMP JUMPDEST PUSH2 0xCC3 JUMP JUMPDEST SWAP1 POP DUP1 DUP4 DUP3 MSTORE PUSH1 0x20 DUP3 ADD SWAP1 POP PUSH1 0x20 DUP5 MUL DUP4 ADD DUP6 DUP2 GT ISZERO PUSH2 0xFB6 JUMPI PUSH2 0xFB5 PUSH2 0xD0A JUMP JUMPDEST JUMPDEST DUP4 JUMPDEST DUP2 DUP2 LT ISZERO PUSH2 0xFFD JUMPI DUP1 CALLDATALOAD PUSH8 0xFFFFFFFFFFFFFFFF DUP2 GT ISZERO PUSH2 0xFDB JUMPI PUSH2 0xFDA PUSH2 0xC4D JUMP JUMPDEST JUMPDEST DUP1 DUP7 ADD PUSH2 0xFE8 DUP10 DUP3 PUSH2 0xF52 JUMP JUMPDEST DUP6 MSTORE PUSH1 0x20 DUP6 ADD SWAP5 POP POP POP PUSH1 0x20 DUP2 ADD SWAP1 POP PUSH2 0xFB8 JUMP JUMPDEST POP POP POP SWAP4 SWAP3 POP POP POP JUMP JUMPDEST PUSH1 0x0 DUP3 PUSH1 0x1F DUP4 ADD SLT PUSH2 0x101C JUMPI PUSH2 0x101B PUSH2 0xC4D JUMP JUMPDEST JUMPDEST DUP2 CALLDATALOAD PUSH2 0x102C DUP5 DUP3 PUSH1 0x20 DUP7 ADD PUSH2 0xF80 JUMP JUMPDEST SWAP2 POP POP SWAP3 SWAP2 POP POP JUMP JUMPDEST PUSH1 0x0 DUP1 PUSH1 0x0 DUP1 PUSH1 0x0 DUP1 PUSH1 0xC0 DUP8 DUP10 SUB SLT ISZERO PUSH2 0x1052 JUMPI PUSH2 0x1051 PUSH2 0xBE5 JUMP JUMPDEST JUMPDEST PUSH1 0x0 PUSH2 0x1060 DUP10 DUP3 DUP11 ADD PUSH2 0xC38 JUMP JUMPDEST SWAP7 POP POP PUSH1 0x20 DUP8 ADD CALLDATALOAD PUSH8 0xFFFFFFFFFFFFFFFF DUP2 GT ISZERO PUSH2 0x1081 JUMPI PUSH2 0x1080 PUSH2 0xBEA JUMP JUMPDEST JUMPDEST PUSH2 0x108D DUP10 DUP3 DUP11 ADD PUSH2 0xD78 JUMP JUMPDEST SWAP6 POP POP PUSH1 0x40 DUP8 ADD CALLDATALOAD PUSH8 0xFFFFFFFFFFFFFFFF DUP2 GT ISZERO PUSH2 0x10AE JUMPI PUSH2 0x10AD PUSH2 0xBEA JUMP JUMPDEST JUMPDEST PUSH2 0x10BA DUP10 DUP3 DUP11 ADD PUSH2 0xE71 JUMP JUMPDEST SWAP5 POP POP PUSH1 0x60 DUP8 ADD CALLDATALOAD PUSH8 0xFFFFFFFFFFFFFFFF DUP2 GT ISZERO PUSH2 0x10DB JUMPI PUSH2 0x10DA PUSH2 0xBEA JUMP JUMPDEST JUMPDEST PUSH2 0x10E7 DUP10 DUP3 DUP11 ADD PUSH2 0x1007 JUMP JUMPDEST SWAP4 POP POP PUSH1 0x80 DUP8 ADD CALLDATALOAD PUSH8 0xFFFFFFFFFFFFFFFF DUP2 GT ISZERO PUSH2 0x1108 JUMPI PUSH2 0x1107 PUSH2 0xBEA JUMP JUMPDEST JUMPDEST PUSH2 0x1114 DUP10 DUP3 DUP11 ADD PUSH2 0x1007 JUMP JUMPDEST SWAP3 POP POP PUSH1 0xA0 DUP8 ADD CALLDATALOAD PUSH8 0xFFFFFFFFFFFFFFFF DUP2 GT ISZERO PUSH2 0x1135 JUMPI PUSH2 0x1134 PUSH2 0xBEA JUMP JUMPDEST JUMPDEST PUSH2 0x1141 DUP10 DUP3 DUP11 ADD PUSH2 0xE71 JUMP JUMPDEST SWAP2 POP POP SWAP3 SWAP6 POP SWAP3 SWAP6 POP SWAP3 SWAP6 JUMP JUMPDEST PUSH1 0x0 DUP2 MLOAD SWAP1 POP SWAP2 SWAP1 POP JUMP JUMPDEST PUSH1 0x0 DUP3 DUP3 MSTORE PUSH1 0x20 DUP3 ADD SWAP1 POP SWAP3 SWAP2 POP POP JUMP JUMPDEST PUSH1 0x0 JUMPDEST DUP4 DUP2 LT ISZERO PUSH2 0x1188 JUMPI DUP1 DUP3 ADD MLOAD DUP2 DUP5 ADD MSTORE PUSH1 0x20 DUP2 ADD SWAP1 POP PUSH2 0x116D JUMP JUMPDEST PUSH1 0x0 DUP5 DUP5 ADD MSTORE POP POP POP POP JUMP JUMPDEST PUSH1 0x0 PUSH2 0x119F DUP3 PUSH2 0x114E JUMP JUMPDEST PUSH2 0x11A9 DUP2 DUP6 PUSH2 0x1159 JUMP JUMPDEST SWAP4 POP PUSH2 0x11B9 DUP2 DUP6 PUSH1 0x20 DUP7 ADD PUSH2 0x116A JUMP JUMPDEST PUSH2 0x11C2 DUP2 PUSH2 0xC52 JUMP JUMPDEST DUP5 ADD SWAP2 POP POP SWAP3 SWAP2 POP POP JUMP JUMPDEST PUSH1 0x0 PUSH1 0x20 DUP3 ADD SWAP1 POP DUP2 DUP2 SUB PUSH1 0x0 DUP4 ADD MSTORE PUSH2 0x11E7 DUP2 DUP5 PUSH2 0x1194 JUMP JUMPDEST SWAP1 POP SWAP3 SWAP2 POP POP JUMP JUMPDEST PUSH1 0x0 DUP1 PUSH1 0x0 DUP1 PUSH1 0x0 DUP1 PUSH1 0x0 DUP1 PUSH1 0x0 DUP1 PUSH1 0x0 PUSH2 0x160 DUP13 DUP15 SUB SLT ISZERO PUSH2 0x1215 JUMPI PUSH2 0x1214 PUSH2 0xBE5 JUMP JUMPDEST JUMPDEST PUSH1 0x0 DUP13 ADD CALLDATALOAD PUSH8 0xFFFFFFFFFFFFFFFF DUP2 GT ISZERO PUSH2 0x1233 JUMPI PUSH2 0x1232 PUSH2 0xBEA JUMP JUMPDEST JUMPDEST PUSH2 0x123F DUP15 DUP3 DUP16 ADD PUSH2 0xD78 JUMP JUMPDEST SWAP12 POP POP PUSH1 0x20 DUP13 ADD CALLDATALOAD PUSH8 0xFFFFFFFFFFFFFFFF DUP2 GT ISZERO PUSH2 0x1260 JUMPI PUSH2 0x125F PUSH2 0xBEA JUMP JUMPDEST JUMPDEST PUSH2 0x126C DUP15 DUP3 DUP16 ADD PUSH2 0xE71 JUMP JUMPDEST SWAP11 POP POP PUSH1 0x40 DUP13 ADD CALLDATALOAD PUSH8 0xFFFFFFFFFFFFFFFF DUP2 GT ISZERO PUSH2 0x128D JUMPI PUSH2 0x128C PUSH2 0xBEA JUMP JUMPDEST JUMPDEST PUSH2 0x1299 DUP15 DUP3 DUP16 ADD PUSH2 0x1007 JUMP JUMPDEST SWAP10 POP POP PUSH1 0x60 DUP13 ADD CALLDATALOAD PUSH8 0xFFFFFFFFFFFFFFFF DUP2 GT ISZERO PUSH2 0x12BA JUMPI PUSH2 0x12B9 PUSH2 0xBEA JUMP JUMPDEST JUMPDEST PUSH2 0x12C6 DUP15 DUP3 DUP16 ADD PUSH2 0x1007 JUMP JUMPDEST SWAP9 POP POP PUSH1 0x80 DUP13 ADD CALLDATALOAD PUSH8 0xFFFFFFFFFFFFFFFF DUP2 GT ISZERO PUSH2 0x12E7 JUMPI PUSH2 0x12E6 PUSH2 0xBEA JUMP JUMPDEST JUMPDEST PUSH2 0x12F3 DUP15 DUP3 DUP16 ADD PUSH2 0xD78 JUMP JUMPDEST SWAP8 POP POP PUSH1 0xA0 DUP13 ADD CALLDATALOAD PUSH8 0xFFFFFFFFFFFFFFFF DUP2 GT ISZERO PUSH2 0x1314 JUMPI PUSH2 0x1313 PUSH2 0xBEA JUMP JUMPDEST JUMPDEST PUSH2 0x1320 DUP15 DUP3 DUP16 ADD PUSH2 0xD78 JUMP JUMPDEST SWAP7 POP POP PUSH1 0xC0 DUP13 ADD CALLDATALOAD PUSH8 0xFFFFFFFFFFFFFFFF DUP2 GT ISZERO PUSH2 0x1341 JUMPI PUSH2 0x1340 PUSH2 0xBEA JUMP JUMPDEST JUMPDEST PUSH2 0x134D DUP15 DUP3 DUP16 ADD PUSH2 0xE71 JUMP JUMPDEST SWAP6 POP POP PUSH1 0xE0 DUP13 ADD CALLDATALOAD PUSH8 0xFFFFFFFFFFFFFFFF DUP2 GT ISZERO PUSH2 0x136E JUMPI PUSH2 0x136D PUSH2 0xBEA JUMP JUMPDEST JUMPDEST PUSH2 0x137A DUP15 DUP3 DUP16 ADD PUSH2 0xE71 JUMP JUMPDEST SWAP5 POP POP PUSH2 0x100 DUP13 ADD CALLDATALOAD PUSH8 0xFFFFFFFFFFFFFFFF DUP2 GT ISZERO PUSH2 0x139C JUMPI PUSH2 0x139B PUSH2 0xBEA JUMP JUMPDEST JUMPDEST PUSH2 0x13A8 DUP15 DUP3 DUP16 ADD PUSH2 0x1007 JUMP JUMPDEST SWAP4 POP POP PUSH2 0x120 DUP13 ADD CALLDATALOAD PUSH8 0xFFFFFFFFFFFFFFFF DUP2 GT ISZERO PUSH2 0x13CA JUMPI PUSH2 0x13C9 PUSH2 0xBEA JUMP JUMPDEST JUMPDEST PUSH2 0x13D6 DUP15 DUP3 DUP16 ADD PUSH2 0x1007 JUMP JUMPDEST SWAP3 POP POP PUSH2 0x140 DUP13 ADD CALLDATALOAD PUSH8 0xFFFFFFFFFFFFFFFF DUP2 GT ISZERO PUSH2 0x13F8 JUMPI PUSH2 0x13F7 PUSH2 0xBEA JUMP JUMPDEST JUMPDEST PUSH2 0x1404 DUP15 DUP3 DUP16 ADD PUSH2 0xE71 JUMP JUMPDEST SWAP2 POP POP SWAP3 SWAP6 SWAP9 SWAP12 POP SWAP3 SWAP6 SWAP9 SWAP12 SWAP1 SWAP4 SWAP7 SWAP10 POP JUMP JUMPDEST PUSH1 0x0 DUP1 PUSH1 0x0 DUP1 PUSH1 0x80 DUP6 DUP8 SUB SLT ISZERO PUSH2 0x1431 JUMPI PUSH2 0x1430 PUSH2 0xBE5 JUMP JUMPDEST JUMPDEST PUSH1 0x0 PUSH2 0x143F DUP8 DUP3 DUP9 ADD PUSH2 0xC38 JUMP JUMPDEST SWAP5 POP POP PUSH1 0x20 DUP6 ADD CALLDATALOAD PUSH8 0xFFFFFFFFFFFFFFFF DUP2 GT ISZERO PUSH2 0x1460 JUMPI PUSH2 0x145F PUSH2 0xBEA JUMP JUMPDEST JUMPDEST PUSH2 0x146C DUP8 DUP3 DUP9 ADD PUSH2 0xD78 JUMP JUMPDEST SWAP4 POP POP PUSH1 0x40 DUP6 ADD CALLDATALOAD PUSH8 0xFFFFFFFFFFFFFFFF DUP2 GT ISZERO PUSH2 0x148D JUMPI PUSH2 0x148C PUSH2 0xBEA JUMP JUMPDEST JUMPDEST PUSH2 0x1499 DUP8 DUP3 DUP9 ADD PUSH2 0x1007 JUMP JUMPDEST SWAP3 POP POP PUSH1 0x60 DUP6 ADD CALLDATALOAD PUSH8 0xFFFFFFFFFFFFFFFF DUP2 GT ISZERO PUSH2 0x14BA JUMPI PUSH2 0x14B9 PUSH2 0xBEA JUMP JUMPDEST JUMPDEST PUSH2 0x14C6 DUP8 DUP3 DUP9 ADD PUSH2 0x1007 JUMP JUMPDEST SWAP2 POP POP SWAP3 SWAP6 SWAP2 SWAP5 POP SWAP3 POP JUMP JUMPDEST PUSH32 0x6C656E677468206E6F742073616D650000000000000000000000000000000000 PUSH1 0x0 DUP3 ADD MSTORE POP JUMP JUMPDEST PUSH1 0x0 PUSH2 0x1508 PUSH1 0xF DUP4 PUSH2 0x1159 JUMP JUMPDEST SWAP2 POP PUSH2 0x1513 DUP3 PUSH2 0x14D2 JUMP JUMPDEST PUSH1 0x20 DUP3 ADD SWAP1 POP SWAP2 SWAP1 POP JUMP JUMPDEST PUSH1 0x0 PUSH1 0x20 DUP3 ADD SWAP1 POP DUP2 DUP2 SUB PUSH1 0x0 DUP4 ADD MSTORE PUSH2 0x1537 DUP2 PUSH2 0x14FB JUMP JUMPDEST SWAP1 POP SWAP2 SWAP1 POP JUMP JUMPDEST PUSH32 0x4E487B7100000000000000000000000000000000000000000000000000000000 PUSH1 0x0 MSTORE PUSH1 0x32 PUSH1 0x4 MSTORE PUSH1 0x24 PUSH1 0x0 REVERT JUMPDEST PUSH1 0x0 DUP2 SWAP1 POP SWAP3 SWAP2 POP POP JUMP JUMPDEST PUSH1 0x0 PUSH2 0x1583 DUP3 PUSH2 0x114E JUMP JUMPDEST PUSH2 0x158D DUP2 DUP6 PUSH2 0x156D JUMP JUMPDEST SWAP4 POP PUSH2 0x159D DUP2 DUP6 PUSH1 0x20 DUP7 ADD PUSH2 0x116A JUMP JUMPDEST DUP1 DUP5 ADD SWAP2 POP POP SWAP3 SWAP2 POP POP JUMP JUMPDEST PUSH1 0x0 PUSH2 0x15B5 DUP3 DUP5 PUSH2 0x1578 JUMP JUMPDEST SWAP2 POP DUP2 SWAP1 POP SWAP3 SWAP2 POP POP JUMP JUMPDEST PUSH2 0x15C9 DUP2 PUSH2 0xC0F JUMP JUMPDEST DUP3 MSTORE POP POP JUMP JUMPDEST PUSH2 0x15D8 DUP2 PUSH2 0xDD2 JUMP JUMPDEST DUP3 MSTORE POP POP JUMP JUMPDEST PUSH1 0x0 PUSH1 0x60 DUP3 ADD SWAP1 POP PUSH2 0x15F3 PUSH1 0x0 DUP4 ADD DUP7 PUSH2 0x15C0 JUMP JUMPDEST PUSH2 0x1600 PUSH1 0x20 DUP4 ADD DUP6 PUSH2 0x15CF JUMP JUMPDEST PUSH2 0x160D PUSH1 0x40 DUP4 ADD DUP5 PUSH2 0x15CF JUMP JUMPDEST SWAP5 SWAP4 POP POP POP POP JUMP JUMPDEST PUSH1 0x0 PUSH1 0xA0 DUP3 ADD SWAP1 POP PUSH2 0x162A PUSH1 0x0 DUP4 ADD DUP9 PUSH2 0x15C0 JUMP JUMPDEST PUSH2 0x1637 PUSH1 0x20 DUP4 ADD DUP8 PUSH2 0x15CF JUMP JUMPDEST DUP2 DUP2 SUB PUSH1 0x40 DUP4 ADD MSTORE PUSH2 0x1649 DUP2 DUP7 PUSH2 0x1194 JUMP JUMPDEST SWAP1 POP DUP2 DUP2 SUB PUSH1 0x60 DUP4 ADD MSTORE PUSH2 0x165D DUP2 DUP6 PUSH2 0x1194 JUMP JUMPDEST SWAP1 POP PUSH2 0x166C PUSH1 0x80 DUP4 ADD DUP5 PUSH2 0x15CF JUMP JUMPDEST SWAP7 SWAP6 POP POP POP POP POP POP JUMP JUMPDEST PUSH32 0x4E487B7100000000000000000000000000000000000000000000000000000000 PUSH1 0x0 MSTORE PUSH1 0x11 PUSH1 0x4 MSTORE PUSH1 0x24 PUSH1 0x0 REVERT JUMPDEST PUSH1 0x0 PUSH2 0x16B0 DUP3 PUSH2 0xDD2 JUMP JUMPDEST SWAP2 POP PUSH32 0xFFFFFFFFFFFFFFFFFFFFFFFFFFFFFFFFFFFFFFFFFFFFFFFFFFFFFFFFFFFFFFFF DUP3 SUB PUSH2 0x16E2 JUMPI PUSH2 0x16E1 PUSH2 0x1676 JUMP JUMPDEST JUMPDEST PUSH1 0x1 DUP3 ADD SWAP1 POP SWAP2 SWAP1 POP JUMP JUMPDEST PUSH32 0x4E487B7100000000000000000000000000000000000000000000000000000000 PUSH1 0x0 MSTORE PUSH1 0x22 PUSH1 0x4 MSTORE PUSH1 0x24 PUSH1 0x0 REVERT JUMPDEST PUSH1 0x0 PUSH1 0x2 DUP3 DIV SWAP1 POP PUSH1 0x1 DUP3 AND DUP1 PUSH2 0x1734 JUMPI PUSH1 0x7F DUP3 AND SWAP2 POP JUMPDEST PUSH1 0x20 DUP3 LT DUP2 SUB PUSH2 0x1747 JUMPI PUSH2 0x1746 PUSH2 0x16ED JUMP JUMPDEST JUMPDEST POP SWAP2 SWAP1 POP JUMP JUMPDEST PUSH1 0x0 PUSH2 0x1758 DUP3 PUSH2 0xDD2 JUMP JUMPDEST SWAP2 POP PUSH2 0x1763 DUP4 PUSH2 0xDD2 JUMP JUMPDEST SWAP3 POP DUP3 DUP3 ADD SWAP1 POP DUP1 DUP3 GT ISZERO PUSH2 0x177B JUMPI PUSH2 0x177A PUSH2 0x1676 JUMP JUMPDEST JUMPDEST SWAP3 SWAP2 POP POP JUMP JUMPDEST PUSH32 0x76616C756520213D2073756D2076616C75657300000000000000000000000000 PUSH1 0x0 DUP3 ADD MSTORE POP JUMP JUMPDEST PUSH1 0x0 PUSH2 0x17B7 PUSH1 0x13 DUP4 PUSH2 0x1159 JUMP JUMPDEST SWAP2 POP PUSH2 0x17C2 DUP3 PUSH2 0x1781 JUMP JUMPDEST PUSH1 0x20 DUP3 ADD SWAP1 POP SWAP2 SWAP1 POP JUMP JUMPDEST PUSH1 0x0 PUSH1 0x20 DUP3 ADD SWAP1 POP DUP2 DUP2 SUB PUSH1 0x0 DUP4 ADD MSTORE PUSH2 0x17E6 DUP2 PUSH2 0x17AA JUMP JUMPDEST SWAP1 POP SWAP2 SWAP1 POP JUMP JUMPDEST PUSH1 0x0 PUSH1 0x80 DUP3 ADD SWAP1 POP PUSH2 0x1802 PUSH1 0x0 DUP4 ADD DUP8 PUSH2 0x15C0 JUMP JUMPDEST PUSH2 0x180F PUSH1 0x20 DUP4 ADD DUP7 PUSH2 0x15C0 JUMP JUMPDEST PUSH2 0x181C PUSH1 0x40 DUP4 ADD DUP6 PUSH2 0x15CF JUMP JUMPDEST PUSH2 0x1829 PUSH1 0x60 DUP4 ADD DUP5 PUSH2 0x15CF JUMP JUMPDEST SWAP6 SWAP5 POP POP POP POP POP JUMP JUMPDEST PUSH1 0x0 PUSH2 0x100 DUP3 ADD SWAP1 POP DUP2 DUP2 SUB PUSH1 0x0 DUP4 ADD MSTORE PUSH2 0x184D DUP2 DUP12 PUSH2 0x1194 JUMP JUMPDEST SWAP1 POP DUP2 DUP2 SUB PUSH1 0x20 DUP4 ADD MSTORE PUSH2 0x1861 DUP2 DUP11 PUSH2 0x1194 JUMP JUMPDEST SWAP1 POP PUSH2 0x1870 PUSH1 0x40 DUP4 ADD DUP10 PUSH2 0x15C0 JUMP JUMPDEST PUSH2 0x187D PUSH1 0x60 DUP4 ADD DUP9 PUSH2 0x15C0 JUMP JUMPDEST PUSH2 0x188A PUSH1 0x80 DUP4 ADD DUP8 PUSH2 0x15CF JUMP JUMPDEST PUSH2 0x1897 PUSH1 0xA0 DUP4 ADD DUP7 PUSH2 0x15CF JUMP JUMPDEST DUP2 DUP2 SUB PUSH1 0xC0 DUP4 ADD MSTORE PUSH2 0x18A9 DUP2 DUP6 PUSH2 0x1194 JUMP JUMPDEST SWAP1 POP DUP2 DUP2 SUB PUSH1 0xE0 DUP4 ADD MSTORE PUSH2 0x18BD DUP2 DUP5 PUSH2 0x1194 JUMP JUMPDEST SWAP1 POP SWAP10 SWAP9 POP POP POP POP POP POP POP POP POP JUMP JUMPDEST PUSH1 0x0 PUSH1 0x20 DUP3 ADD SWAP1 POP PUSH2 0x18E1 PUSH1 0x0 DUP4 ADD DUP5 PUSH2 0x15CF JUMP JUMPDEST SWAP3 SWAP2 POP POP JUMP JUMPDEST PUSH1 0x0 DUP2 MLOAD SWAP1 POP PUSH2 0x18F6 DUP2 PUSH2 0xC21 JUMP JUMPDEST SWAP3 SWAP2 POP POP JUMP JUMPDEST PUSH1 0x0 PUSH1 0x20 DUP3 DUP5 SUB SLT ISZERO PUSH2 0x1912 JUMPI PUSH2 0x1911 PUSH2 0xBE5 JUMP JUMPDEST JUMPDEST PUSH1 0x0 PUSH2 0x1920 DUP5 DUP3 DUP6 ADD PUSH2 0x18E7 JUMP JUMPDEST SWAP2 POP POP SWAP3 SWAP2 POP POP JUMP JUMPDEST PUSH1 0x0 DUP2 SWAP1 POP SWAP2 SWAP1 POP JUMP JUMPDEST PUSH1 0x0 DUP2 SWAP1 POP SWAP2 SWAP1 POP JUMP JUMPDEST PUSH1 0x0 PUSH2 0x1958 PUSH2 0x1953 PUSH2 0x194E DUP5 PUSH2 0x1929 JUMP JUMPDEST PUSH2 0x1933 JUMP JUMPDEST PUSH2 0xDD2 JUMP JUMPDEST SWAP1 POP SWAP2 SWAP1 POP JUMP JUMPDEST PUSH2 0x1968 DUP2 PUSH2 0x193D JUMP JUMPDEST DUP3 MSTORE POP POP JUMP JUMPDEST PUSH1 0x0 PUSH1 0x80 DUP3 ADD SWAP1 POP PUSH2 0x1983 PUSH1 0x0 DUP4 ADD DUP8 PUSH2 0x15C0 JUMP JUMPDEST PUSH2 0x1990 PUSH1 0x20 DUP4 ADD DUP7 PUSH2 0x15C0 JUMP JUMPDEST PUSH2 0x199D PUSH1 0x40 DUP4 ADD DUP6 PUSH2 0x195F JUMP JUMPDEST PUSH2 0x19AA PUSH1 0x60 DUP4 ADD DUP5 PUSH2 0x15CF JUMP JUMPDEST SWAP6 SWAP5 POP POP POP POP POP JUMP JUMPDEST PUSH1 0x0 PUSH1 0x40 DUP3 ADD SWAP1 POP PUSH2 0x19C8 PUSH1 0x0 DUP4 ADD DUP6 PUSH2 0x15CF JUMP JUMPDEST PUSH2 0x19D5 PUSH1 0x20 DUP4 ADD DUP5 PUSH2 0x15C0 JUMP JUMPDEST SWAP4 SWAP3 POP POP POP JUMP JUMPDEST PUSH1 0x0 PUSH1 0x80 DUP3 ADD SWAP1 POP PUSH2 0x19F1 PUSH1 0x0 DUP4 ADD DUP8 PUSH2 0x15C0 JUMP JUMPDEST DUP2 DUP2 SUB PUSH1 0x20 DUP4 ADD MSTORE PUSH2 0x1A03 DUP2 DUP7 PUSH2 0x1194 JUMP JUMPDEST SWAP1 POP DUP2 DUP2 SUB PUSH1 0x40 DUP4 ADD MSTORE PUSH2 0x1A17 DUP2 DUP6 PUSH2 0x1194 JUMP JUMPDEST SWAP1 POP PUSH2 0x1A26 PUSH1 0x60 DUP4 ADD DUP5 PUSH2 0x15C0 JUMP JUMPDEST SWAP6 SWAP5 POP POP POP POP POP JUMP JUMPDEST PUSH1 0x0 DUP2 MLOAD SWAP1 POP PUSH2 0x1A3E DUP2 PUSH2 0xDDC JUMP JUMPDEST SWAP3 SWAP2 POP POP JUMP JUMPDEST PUSH1 0x0 PUSH1 0x20 DUP3 DUP5 SUB SLT ISZERO PUSH2 0x1A5A JUMPI PUSH2 0x1A59 PUSH2 0xBE5 JUMP JUMPDEST JUMPDEST PUSH1 0x0 PUSH2 0x1A68 DUP5 DUP3 DUP6 ADD PUSH2 0x1A2F JUMP JUMPDEST SWAP2 POP POP SWAP3 SWAP2 POP POP JUMP INVALID LOG2 PUSH5 0x6970667358 0x22 SLT KECCAK256 STATICCALL PUSH2 0x46B4 0x5D STOP PUSH5 0x727CEAE8C8 0xD7 CREATE PUSH18 0x4B2CB9C4EDC4BAA8F78171387A3381425B64 PUSH20 0x6F6C634300081100330000000000000000000000 "},"methodIdentifiers":{"batchAll(address[],uint256[],string[],string[],address[],address[],uint256[],uint256[],string[],string[],uint256[])":"abc04d8a","batchLockt1155(address,address[],uint256[],string[],string[],uint256[])":"486115c1","batchMint721(address,address[],string[],string[])":"d6c2a1c7","version()":"54fd4d50"}}}}}