{
  "_format": "hh-sol-artifact-1",
  "contractName": "Erc721Factory",
  "sourceName": "contracts/Erc721Factory.sol",
  "abi": [
    {
      "inputs": [
        {
          "internalType": "string",
          "name": "_versoion",
          "type": "string"
        },
        {
          "internalType": "address",
          "name": "_robot",
          "type": "address"
        }
      ],
      "stateMutability": "nonpayable",
      "type": "constructor"
    },
    {
      "anonymous": false,
      "inputs": [
        {
          "indexed": true,
          "internalType": "address",
          "name": "erc721",
          "type": "address"
        }
      ],
      "name": "Created",
      "type": "event"
    },
    {
      "inputs": [
        {
          "internalType": "string",
          "name": "_name",
          "type": "string"
        },
        {
          "internalType": "string",
          "name": "_symbol",
          "type": "string"
        }
      ],
      "name": "createErc721",
      "outputs": [
        {
          "internalType": "address",
          "name": "erc721",
          "type": "address"
        }
      ],
      "stateMutability": "nonpayable",
      "type": "function"
    },
    {
      "inputs": [],
      "name": "version",
      "outputs": [
        {
          "internalType": "string",
          "name": "",
          "type": "string"
        }
      ],
      "stateMutability": "view",
      "type": "function"
    }
  ],
  "bytecode": "0x608060405234610208576125238038038061001981610221565b9283398101906040818303126102085780516001600160401b039081811161020857820190601f848184011215610208578251938285116101f257602094601f199461006a84830187168801610221565b97828952878383010111610208579086929160005b82811061020d575050600090880183015201516001600160a01b03811694908590036102085785519283116101f25760019384548581811c911680156101e8575b838210146101d25783811161018c575b508192841160011461012c57505081929394600092610121575b5050600019600383901b1c191690821b1790555b600280546001600160a01b0319169190911790556040516122dc90816102478239f35b0151905038806100ea565b6000858152828120918516979193925b888210610175575050838596971061015c575b505050811b0190556100fe565b015160001960f88460031b161c1916905538808061014f565b80878596829496860151815501950193019061013c565b85600052826000208480870160051c8201928588106101c9575b0160051c019086905b8281106101bd5750506100d0565b600081550186906101af565b925081926101a6565b634e487b7160e01b600052602260045260246000fd5b90607f16906100c0565b634e487b7160e01b600052604160045260246000fd5b600080fd5b8181018501518a820186015288940161007f565b6040519190601f01601f191682016001600160401b038111838210176101f25760405256fe6080604052600436101562000014575b600080fd5b6000803560e01c90816354fd4d501462000043575063574620cf146200003957600080fd5b6200000f620002b7565b346200011d57806003193601126200011d578060018054906200006682620004a3565b91826080528181169081600014620000fc5750600114620000a4575b62000091607f198401620001cd565b60405180620000a0816200016e565b0390f35b8091925083527fb10e2d527612073b26eecdfd717e6a320cf44b4afac2b0732d9fcbe2b7fa0cf65b828410620000e75750505060a0620000919101828062000082565b81816020925460a087015201930192620000cc565b91505062000091935060a0925060ff19168252151560051b01828062000082565b80fd5b60009103126200000f57565b919082519283825260005b84811062000159575050826000602080949584010152601f8019910116010190565b60208183018101518483018201520162000137565b90602091828152608051808483015260005b818110620001a2575060409293506000838284010152601f8019910116010190565b60a081015183820160400152840162000180565b50634e487b7160e01b600052604160045260246000fd5b601f80199101166080016080811067ffffffffffffffff821117620001f157604052565b620001fb620001b6565b604052565b67ffffffffffffffff8111620001f157604052565b90601f8019910116810190811067ffffffffffffffff821117620001f157604052565b9062000248604051928362000215565b565b81601f820112156200000f5780359067ffffffffffffffff8211620002a7575b6040519262000284601f8401601f19166020018562000215565b828452602083830101116200000f57816000926020809301838601378301015290565b620002b1620001b6565b6200026a565b50346200000f5760403660031901126200000f5767ffffffffffffffff6004358181116200000f57620002ef9036906004016200024a565b906024359081116200000f576200030b9036906004016200024a565b90611cbe916200031e6020840162000238565b8381526020810193620005e985396200033b600160005401600055565b600080546040516bffffffffffffffffffffffff193360601b16602082019081526034808301939093529181529195916200037860548262000215565b51902091519085f560025490926001600160a01b03808516939216918591843b156200047857620003be6040519485938493635c6d8da160e01b855260048501620004e0565b038183865af1801562000493575b6200047c575b50803b15620004785760405163a843c51f60e01b81523360048201527f1449abf21e49fd025f33495e77f7b1461caefdd3d4bb646424a3f445c4576a5b9392620000a0929091848160248183865af1801562000468575b6200044a575b5060405194848695a26001600160a01b031682526020820190565b806200045a620004619262000200565b8062000120565b386200042f565b62000472620005db565b62000429565b8280fd5b806200045a6200048c9262000200565b38620003d2565b6200049d620005db565b620003cc565b90600182811c92168015620004d5575b6020831014620004bf57565b634e487b7160e01b600052602260045260246000fd5b91607f1691620004b3565b93929190620004fc6200050c916080875260808701906200012c565b602092868203848801526200012c565b9084820360408601526000916001908154916200052983620004a3565b80835292818116908115620005b957506001146200055d575b5050506001600160a01b039092166060949094019390935250565b60008181529394509091907fb10e2d527612073b26eecdfd717e6a320cf44b4afac2b0732d9fcbe2b7fa0cf65b828510620005a5575050500101606062000248388062000542565b80548486018701529385019381016200058a565b60ff191683860152505090151560051b01019050606062000248388062000542565b506040513d6000823e3d90fdfe60803462000354576001600160401b03906040818101838111838210176200033e578152600682526020916545524337323160d01b83820152815193828501858110828211176200033e57835260048552634537323160e01b8486015281518181116200033e576000948554916001948584811c9416801562000333575b838510146200031f578190601f94858111620002cc575b508390858311600114620002685789926200025c575b5050600019600383901b1c191690851b1786555b8651928311620002485783548481811c911680156200023d575b828210146200022957828111620001e1575b50809183116001146200017a5750849582939495926200016e575b5050600019600383901b1c191690821b1790555b60078054336001600160a01b03198216811790925591519290916001600160a01b0316907f8be0079c531659141344cd1fd0a4f28419497f9722a3daafe3b4186f6b6457e09080a361196490816200035a8239f35b01519050388062000105565b90601f198316968487528287209287905b898210620001c9575050838596979810620001af575b505050811b01905562000119565b015160001960f88460031b161c19169055388080620001a1565b8087859682949686015181550195019301906200018b565b8487528187208380860160051c8201928487106200021f575b0160051c019085905b82811062000213575050620000ea565b88815501859062000203565b92508192620001fa565b634e487b7160e01b87526022600452602487fd5b90607f1690620000d8565b634e487b7160e01b86526041600452602486fd5b015190503880620000aa565b898052848a208894509190601f1984168b5b87828210620002b557505084116200029b575b505050811b018655620000be565b015160001960f88460031b161c191690553880806200028d565b8385015186558b979095019493840193016200027a565b9091508880528389208580850160051c82019286861062000315575b918991869594930160051c01915b8281106200030657505062000094565b8b8155859450899101620002f6565b92508192620002e8565b634e487b7160e01b88526022600452602488fd5b93607f16936200007d565b634e487b7160e01b600052604160045260246000fd5b600080fdfe6080604081815260048036101561001557600080fd5b600092833560e01c90816301ffc9a7146111695750806306fdde03146110bf578063081812fc1461109f578063095ea7b314610f4057806323b872dd14610f165780633f8a4d6714610eed57806342842e0e14610ec457806354fd4d5014610e1a5780635c6d8da11461099b5780636352211e1461096a57806370a08231146108d4578063715018a6146108745780638da5cb5b1461084b57806395d89b4114610766578063a22cb4651461069b578063a843c51f14610670578063b88d4fde1461060b578063c87b56dd146104fd578063d0def52114610203578063e00dd161146101e4578063e985e9c5146101a95763f2fde38b1461011557600080fd5b346101a55760203660031901126101a55761012e611215565b91610137611340565b6001600160a01b03831615610153578361015084611398565b80f35b906020608492519162461bcd60e51b8352820152602660248201527f4f776e61626c653a206e6577206f776e657220697320746865207a65726f206160448201526564647265737360d01b6064820152fd5b8280fd5b5050346101e057806003193601126101e0576020906101d76101c9611215565b6101d1611230565b906118ec565b90519015158152f35b5080fd5b5050346101e057816003193601126101e057602090600c549051908152f35b5090346101a557806003193601126101a55761021d611215565b67ffffffffffffffff90602480358381116104f95761023f9036908701611322565b9060019485600c54019384600c5560018060a01b03169384156104b7576000818152600260205260409020546001600160a01b03166104755784895260209460038652828a208054908982018092116104635755818a5260028652828a2080546001600160a01b0319168217905581908a7fddf252ad1be2c89b69c2b068fc378daa952ba7f163c4a11628f55a4df523b3ef8180a46000818152600260205260409020546001600160a01b03161561040a5788526006845287209582519485116103f957505061030f85546118b2565b601f81116103b3575b5081601f841160011461035257509282939183928794610347575b50501b916000199060031b1c191617905580f35b015192503880610333565b919083601f1981168789528489209489905b888383106103995750505010610380575b505050811b01905580f35b015160001960f88460031b161c19169055388080610375565b858701518855909601959485019487935090810190610364565b858752828720601f850160051c8101918486106103ef575b601f0160051c019085905b8281106103e4575050610318565b8881550185906103d6565b90915081906103cb565b634e487b7160e01b88526041905286fd5b815162461bcd60e51b8152808901869052602e818501527f45524337323155524953746f726167653a2055524920736574206f66206e6f6e60448201526d32bc34b9ba32b73a103a37b5b2b760911b6064820152608490fd5b634e487b7160e01b8c5260118b52858cfd5b815162461bcd60e51b81526020818a0152601c818501527f4552433732313a20746f6b656e20616c7265616479206d696e746564000000006044820152606490fd5b815162461bcd60e51b81526020818a01819052818501527f4552433732313a206d696e7420746f20746865207a65726f20616464726573736044820152606490fd5b8680fd5b5090346101a557602091826003193601126106075735600081815260026020526040902054610536906001600160a01b031615156113e1565b835260068252808320928151809482908054610551816118b2565b918285526001918883821691826000146105e05750506001146105a2575b50505061059e9392916105839103866112ad565b815161058e8161127b565b52519282849384528301906111d5565b0390f35b8552868520879350859291905b8284106105c8575050508201018161058361059e61056f565b8054848b0186015289955088949093019281016105af565b60ff19168782015293151560051b86019093019350849250610583915061059e905061056f565b8380fd5b8382346101e05760803660031901126101e057610626611215565b61062e611230565b9060643567ffffffffffffffff811161066c573660238201121561066c5761015093816024610662933693013591016112eb565b91604435916114f1565b8480fd5b50346101a55760203660031901126101a55761068a611215565b91610693611340565b610137611340565b5090346101a557806003193601126101a5576106b5611215565b906024359182151580930361066c576001600160a01b0316923384146107245750338452600560205280842083855260205280842060ff1981541660ff8416179055519081527f17307eab39ab6107e8899845ad3d59bd9653f200f220920489ca2b5937696c3160203392a380f35b6020606492519162461bcd60e51b8352820152601960248201527f4552433732313a20617070726f766520746f2063616c6c6572000000000000006044820152fd5b5050346101e057816003193601126101e05780519082600954610788816118b2565b8085529160019180831690811561082357506001146107c6575b5050506107b48261059e9403836112ad565b519182916020835260208301906111d5565b9450600985527f6e1540171b6c0c960b71a7020d9f60077f6af931a8bbf590da0223dacf75c7af5b82861061080b575050506107b482602061059e95820101946107a2565b805460208787018101919091529095019481016107ee565b61059e9750869350602092506107b494915060ff191682840152151560051b820101946107a2565b5050346101e057816003193601126101e05760075490516001600160a01b039091168152602090f35b83346108d157806003193601126108d15761088d611340565b600780546001600160a01b0319811690915581906001600160a01b03167f8be0079c531659141344cd1fd0a4f28419497f9722a3daafe3b4186f6b6457e08280a380f35b80fd5b508290346101e05760203660031901126101e0576001600160a01b036108f8611215565b169081156109155760208480858581526003845220549051908152f35b608490602085519162461bcd60e51b8352820152602960248201527f4552433732313a2061646472657373207a65726f206973206e6f7420612076616044820152683634b21037bbb732b960b91b6064820152fd5b5091346108d15760203660031901126108d1575061098a6020923561142d565b90516001600160a01b039091168152f35b5082346108d15760803660031901126108d15767ffffffffffffffff82358181116101a5576109cd9036908501611322565b90602435818111610607576109e59036908601611322565b9160443582811161066c576109fd9036908701611322565b946064356001600160a01b0381169490859003610e16578251848111610d095780610a296008546118b2565b94601f95868111610daa575b50602090868311600114610d27578992610d1c575b50508160011b916000199060031b1c1916176008555b805190848211610d09578190610a776009546118b2565b858111610c9d575b50602090858311600114610c1a578892610c0f575b50508160011b916000199060031b1c1916176009555b8551928311610bfc5750610abf600a546118b2565b818111610b9c575b506020908211600114610b1b57839482939492610b10575b50508160011b916000199060031b1c191617600a555b6bffffffffffffffffffffffff60a01b600b541617600b5580f35b015190508480610adf565b600a84527fc65a7bb8d6351c1cf70c95a316cc6a92839c986682d98bc35f958f4883f9d2a890601f198316855b818110610b8457509583600195969710610b6b575b505050811b01600a55610af5565b015160001960f88460031b161c19169055848080610b5d565b9192602060018192868b015181550194019201610b48565b600a85527fc65a7bb8d6351c1cf70c95a316cc6a92839c986682d98bc35f958f4883f9d2a88280850160051c82019260208610610bf3575b0160051c01905b818110610be85750610ac7565b858155600101610bdb565b92508192610bd4565b634e487b7160e01b855260419052602484fd5b015190508880610a94565b600989527f6e1540171b6c0c960b71a7020d9f60077f6af931a8bbf590da0223dacf75c7af9250601f198416895b818110610c855750908460019594939210610c6c575b505050811b01600955610aaa565b015160001960f88460031b161c19169055888080610c5e565b92936020600181928786015181550195019301610c48565b909150600988527f6e1540171b6c0c960b71a7020d9f60077f6af931a8bbf590da0223dacf75c7af8580850160051c82019260208610610d00575b9085949392910160051c01905b818110610cf25750610a7f565b898155849350600101610ce5565b92508192610cd8565b634e487b7160e01b875260418352602487fd5b015190508980610a4a565b60088a527ff3f7a9fe364faab93b216da50a3214154f22a0a2b415b23a84c8169e8b636ee39250601f1984168a5b818110610d925750908460019594939210610d79575b505050811b01600855610a60565b015160001960f88460031b161c19169055898080610d6b565b92936020600181928786015181550195019301610d55565b909150600889527ff3f7a9fe364faab93b216da50a3214154f22a0a2b415b23a84c8169e8b636ee38680850160051c82019260208610610e0d575b9085949392910160051c01905b818110610dff5750610a35565b8a8155849350600101610df2565b92508192610de5565b8580fd5b5050346101e057816003193601126101e05780519082600a54610e3c816118b2565b808552916001918083169081156108235750600114610e67575050506107b48261059e9403836112ad565b9450600a85527fc65a7bb8d6351c1cf70c95a316cc6a92839c986682d98bc35f958f4883f9d2a85b828610610eac575050506107b482602061059e95820101946107a2565b80546020878701810191909152909501948101610e8f565b5050346101e05761015090610ed836611246565b91925192610ee58461127b565b8584526114f1565b5050346101e057816003193601126101e057600b5490516001600160a01b039091168152602090f35b83346108d157610150610f2836611246565b91610f3b610f36843361158c565b61148e565b6115e7565b50346101a557816003193601126101a557610f59611215565b9060243592610f678461142d565b6001600160a01b03938416939290838116858114611052573314908115611040575b5015610fd857848652602052842080546001600160a01b03191683179055610fb08361142d565b167f8c5be1e5ebec7d5bd14f71427d1e84f3dd0314c0f7b2291e5b200ac8c7c3b9258480a480f35b6020608492519162461bcd60e51b8352820152603e60248201527f4552433732313a20617070726f76652063616c6c6572206973206e6f7420746f60448201527f6b656e206f776e6572206e6f7220617070726f76656420666f7220616c6c00006064820152fd5b61104c915033906118ec565b38610f89565b835162461bcd60e51b8152602081850152602160248201527f4552433732313a20617070726f76616c20746f2063757272656e74206f776e656044820152603960f91b6064820152608490fd5b5091346108d15760203660031901126108d1575061098a60209235611450565b5050346101e057816003193601126101e057805190826008546110e1816118b2565b80855291600191808316908115610823575060011461110c575050506107b48261059e9403836112ad565b9450600885527ff3f7a9fe364faab93b216da50a3214154f22a0a2b415b23a84c8169e8b636ee35b828610611151575050506107b482602061059e95820101946107a2565b80546020878701810191909152909501948101611134565b925050346101a55760203660031901126101a5573563ffffffff60e01b81168091036101a557602092506380ac58cd60e01b81149081156111c4575b81156111b3575b5015158152f35b6301ffc9a760e01b149050386111ac565b635b5e139f60e01b811491506111a5565b919082519283825260005b848110611201575050826000602080949584010152601f8019910116010190565b6020818301810151848301820152016111e0565b600435906001600160a01b038216820361122b57565b600080fd5b602435906001600160a01b038216820361122b57565b606090600319011261122b576001600160a01b0390600435828116810361122b5791602435908116810361122b579060443590565b6020810190811067ffffffffffffffff82111761129757604052565b634e487b7160e01b600052604160045260246000fd5b90601f8019910116810190811067ffffffffffffffff82111761129757604052565b67ffffffffffffffff811161129757601f01601f191660200190565b9291926112f7826112cf565b9161130560405193846112ad565b82948184528183011161122b578281602093846000960137010152565b9080601f8301121561122b5781602061133d933591016112eb565b90565b6007546001600160a01b0316330361135457565b606460405162461bcd60e51b815260206004820152602060248201527f4f776e61626c653a2063616c6c6572206973206e6f7420746865206f776e65726044820152fd5b600780546001600160a01b039283166001600160a01b0319821681179092559091167f8be0079c531659141344cd1fd0a4f28419497f9722a3daafe3b4186f6b6457e0600080a3565b156113e857565b60405162461bcd60e51b815260206004820152601860248201527f4552433732313a20696e76616c696420746f6b656e20494400000000000000006044820152606490fd5b6000908152600260205260409020546001600160a01b031661133d8115156113e1565b600081815260026020526040902054611473906001600160a01b031615156113e1565b6000908152600460205260409020546001600160a01b031690565b1561149557565b60405162461bcd60e51b815260206004820152602e60248201527f4552433732313a2063616c6c6572206973206e6f7420746f6b656e206f776e6560448201526d1c881b9bdc88185c1c1c9bdd995960921b6064820152608490fd5b90611515939291611505610f36843361158c565b6115108383836115e7565b611791565b1561151c57565b60405162461bcd60e51b81528061153560048201611539565b0390fd5b60809060208152603260208201527f4552433732313a207472616e7366657220746f206e6f6e20455243373231526560408201527131b2b4bb32b91034b6b83632b6b2b73a32b960711b60608201520190565b6115958261142d565b9160018060a01b03908183169282851684149485156115d4575b505083156115be575b50505090565b6115ca91929350611450565b16143880806115b8565b6115df9295506118ec565b9238806115af565b6115f08361142d565b6001600160a01b03929183169190831682900361173e5782169182156116ed576000908482526004602052848260408120926bffffffffffffffffffffffff60a01b938481541690556116428361142d565b167f8c5be1e5ebec7d5bd14f71427d1e84f3dd0314c0f7b2291e5b200ac8c7c3b9258280a482825260036020526040822080546000198101919082116116d95755838252600360205260408220805490600182018092116116d957558482526002602052604082208054909116841790557fddf252ad1be2c89b69c2b068fc378daa952ba7f163c4a11628f55a4df523b3ef9080a4565b634e487b7160e01b84526011600452602484fd5b60405162461bcd60e51b8152602060048201526024808201527f4552433732313a207472616e7366657220746f20746865207a65726f206164646044820152637265737360e01b6064820152608490fd5b60405162461bcd60e51b815260206004820152602560248201527f4552433732313a207472616e736665722066726f6d20696e636f72726563742060448201526437bbb732b960d91b6064820152608490fd5b9293600093909291803b156118a7579484916117eb9660405180948193630a85bd0160e11b9788845233600485015260018060a01b0380921660248501526044840152608060648401528260209b8c9760848301906111d5565b0393165af1849181611867575b50611856575050503d60001461184e573d611812816112cf565b9061182060405192836112ad565b81528091833d92013e5b8051918261184b5760405162461bcd60e51b81528061153560048201611539565b01fd5b50606061182a565b6001600160e01b0319161492509050565b9091508581813d83116118a0575b61187f81836112ad565b8101031261066c57516001600160e01b03198116810361066c5790386117f8565b503d611875565b505050915050600190565b90600182811c921680156118e2575b60208310146118cc57565b634e487b7160e01b600052602260045260246000fd5b91607f16916118c1565b600b546001600160a01b039283169291908216830361190d57505050600190565b16600052600560205260406000209060005260205260ff604060002054169056fea2646970667358221220ef4ef2cd4de635c4f632b41145898bf5276cc1f9f199d76e59c934c85cf2183a64736f6c63430008110033a264697066735822122084aaa53477c2e0c66b7baeab6f67bd2aa5bf5275bcdb23fc8adf44c4cb21b06164736f6c63430008110033",
  "linkReferences": {},
  "deployedLinkReferences": {}
}