{
  "_format": "hh-sol-artifact-1",
  "contractName": "Erc721",
  "sourceName": "contracts/Erc721.sol",
  "abi": [
    {
      "inputs": [],
      "stateMutability": "nonpayable",
      "type": "constructor"
    },
    {
      "anonymous": false,
      "inputs": [
        {
          "indexed": true,
          "internalType": "address",
          "name": "owner",
          "type": "address"
        },
        {
          "indexed": true,
          "internalType": "address",
          "name": "approved",
          "type": "address"
        },
        {
          "indexed": true,
          "internalType": "uint256",
          "name": "tokenId",
          "type": "uint256"
        }
      ],
      "name": "Approval",
      "type": "event"
    },
    {
      "anonymous": false,
      "inputs": [
        {
          "indexed": true,
          "internalType": "address",
          "name": "owner",
          "type": "address"
        },
        {
          "indexed": true,
          "internalType": "address",
          "name": "operator",
          "type": "address"
        },
        {
          "indexed": false,
          "internalType": "bool",
          "name": "approved",
          "type": "bool"
        }
      ],
      "name": "ApprovalForAll",
      "type": "event"
    },
    {
      "anonymous": false,
      "inputs": [
        {
          "indexed": true,
          "internalType": "uint256",
          "name": "tokenId",
          "type": "uint256"
        },
        {
          "indexed": true,
          "internalType": "uint8",
          "name": "status",
          "type": "uint8"
        }
      ],
      "name": "CancelSell",
      "type": "event"
    },
    {
      "anonymous": false,
      "inputs": [
        {
          "indexed": true,
          "internalType": "address",
          "name": "account",
          "type": "address"
        },
        {
          "indexed": true,
          "internalType": "uint8",
          "name": "rate",
          "type": "uint8"
        }
      ],
      "name": "Creator",
      "type": "event"
    },
    {
      "anonymous": false,
      "inputs": [
        {
          "indexed": true,
          "internalType": "uint256",
          "name": "tokenId",
          "type": "uint256"
        },
        {
          "indexed": true,
          "internalType": "string",
          "name": "collectionId",
          "type": "string"
        },
        {
          "indexed": true,
          "internalType": "address",
          "name": "createBy",
          "type": "address"
        }
      ],
      "name": "Mint",
      "type": "event"
    },
    {
      "anonymous": false,
      "inputs": [
        {
          "indexed": true,
          "internalType": "address",
          "name": "previousOwner",
          "type": "address"
        },
        {
          "indexed": true,
          "internalType": "address",
          "name": "newOwner",
          "type": "address"
        }
      ],
      "name": "OwnershipTransferred",
      "type": "event"
    },
    {
      "anonymous": false,
      "inputs": [
        {
          "indexed": true,
          "internalType": "uint256",
          "name": "tokenId",
          "type": "uint256"
        },
        {
          "indexed": true,
          "internalType": "uint256",
          "name": "price",
          "type": "uint256"
        }
      ],
      "name": "Sell",
      "type": "event"
    },
    {
      "anonymous": false,
      "inputs": [
        {
          "indexed": true,
          "internalType": "address",
          "name": "from",
          "type": "address"
        },
        {
          "indexed": true,
          "internalType": "address",
          "name": "to",
          "type": "address"
        },
        {
          "indexed": true,
          "internalType": "uint256",
          "name": "tokenId",
          "type": "uint256"
        }
      ],
      "name": "Transfer",
      "type": "event"
    },
    {
      "inputs": [
        {
          "internalType": "address",
          "name": "to",
          "type": "address"
        },
        {
          "internalType": "uint256",
          "name": "tokenId",
          "type": "uint256"
        }
      ],
      "name": "approve",
      "outputs": [],
      "stateMutability": "nonpayable",
      "type": "function"
    },
    {
      "inputs": [
        {
          "internalType": "address",
          "name": "owner",
          "type": "address"
        }
      ],
      "name": "balanceOf",
      "outputs": [
        {
          "internalType": "uint256",
          "name": "",
          "type": "uint256"
        }
      ],
      "stateMutability": "view",
      "type": "function"
    },
    {
      "inputs": [
        {
          "internalType": "uint256",
          "name": "tokenId",
          "type": "uint256"
        },
        {
          "internalType": "address",
          "name": "to",
          "type": "address"
        }
      ],
      "name": "buy",
      "outputs": [],
      "stateMutability": "payable",
      "type": "function"
    },
    {
      "inputs": [
        {
          "internalType": "uint256",
          "name": "tokenId",
          "type": "uint256"
        }
      ],
      "name": "cancelSell",
      "outputs": [],
      "stateMutability": "nonpayable",
      "type": "function"
    },
    {
      "inputs": [
        {
          "internalType": "uint256",
          "name": "tokenId",
          "type": "uint256"
        }
      ],
      "name": "getApproved",
      "outputs": [
        {
          "internalType": "address",
          "name": "",
          "type": "address"
        }
      ],
      "stateMutability": "view",
      "type": "function"
    },
    {
      "inputs": [
        {
          "internalType": "string",
          "name": "_name",
          "type": "string"
        },
        {
          "internalType": "string",
          "name": "_symbol",
          "type": "string"
        },
        {
          "internalType": "string",
          "name": "_verison",
          "type": "string"
        }
      ],
      "name": "initialize",
      "outputs": [],
      "stateMutability": "nonpayable",
      "type": "function"
    },
    {
      "inputs": [
        {
          "internalType": "address",
          "name": "owner",
          "type": "address"
        },
        {
          "internalType": "address",
          "name": "operator",
          "type": "address"
        }
      ],
      "name": "isApprovedForAll",
      "outputs": [
        {
          "internalType": "bool",
          "name": "",
          "type": "bool"
        }
      ],
      "stateMutability": "view",
      "type": "function"
    },
    {
      "inputs": [
        {
          "internalType": "address",
          "name": "account",
          "type": "address"
        },
        {
          "internalType": "string",
          "name": "tokenURI",
          "type": "string"
        },
        {
          "internalType": "string",
          "name": "collectionId",
          "type": "string"
        },
        {
          "internalType": "address",
          "name": "createBy",
          "type": "address"
        }
      ],
      "name": "mint",
      "outputs": [
        {
          "internalType": "uint256",
          "name": "",
          "type": "uint256"
        }
      ],
      "stateMutability": "nonpayable",
      "type": "function"
    },
    {
      "inputs": [],
      "name": "name",
      "outputs": [
        {
          "internalType": "string",
          "name": "",
          "type": "string"
        }
      ],
      "stateMutability": "view",
      "type": "function"
    },
    {
      "inputs": [],
      "name": "owner",
      "outputs": [
        {
          "internalType": "address",
          "name": "",
          "type": "address"
        }
      ],
      "stateMutability": "view",
      "type": "function"
    },
    {
      "inputs": [
        {
          "internalType": "uint256",
          "name": "tokenId",
          "type": "uint256"
        }
      ],
      "name": "ownerOf",
      "outputs": [
        {
          "internalType": "address",
          "name": "",
          "type": "address"
        }
      ],
      "stateMutability": "view",
      "type": "function"
    },
    {
      "inputs": [
        {
          "internalType": "uint256",
          "name": "tokenId",
          "type": "uint256"
        }
      ],
      "name": "ownerOfTokenId",
      "outputs": [
        {
          "internalType": "address",
          "name": "owner",
          "type": "address"
        }
      ],
      "stateMutability": "view",
      "type": "function"
    },
    {
      "inputs": [],
      "name": "renounceOwnership",
      "outputs": [],
      "stateMutability": "nonpayable",
      "type": "function"
    },
    {
      "inputs": [
        {
          "internalType": "address",
          "name": "from",
          "type": "address"
        },
        {
          "internalType": "address",
          "name": "to",
          "type": "address"
        },
        {
          "internalType": "uint256",
          "name": "tokenId",
          "type": "uint256"
        }
      ],
      "name": "safeTransferFrom",
      "outputs": [],
      "stateMutability": "nonpayable",
      "type": "function"
    },
    {
      "inputs": [
        {
          "internalType": "address",
          "name": "from",
          "type": "address"
        },
        {
          "internalType": "address",
          "name": "to",
          "type": "address"
        },
        {
          "internalType": "uint256",
          "name": "tokenId",
          "type": "uint256"
        },
        {
          "internalType": "bytes",
          "name": "data",
          "type": "bytes"
        }
      ],
      "name": "safeTransferFrom",
      "outputs": [],
      "stateMutability": "nonpayable",
      "type": "function"
    },
    {
      "inputs": [
        {
          "internalType": "uint256",
          "name": "tokenId",
          "type": "uint256"
        },
        {
          "internalType": "uint256",
          "name": "price",
          "type": "uint256"
        }
      ],
      "name": "sell",
      "outputs": [],
      "stateMutability": "nonpayable",
      "type": "function"
    },
    {
      "inputs": [
        {
          "internalType": "address",
          "name": "operator",
          "type": "address"
        },
        {
          "internalType": "bool",
          "name": "approved",
          "type": "bool"
        }
      ],
      "name": "setApprovalForAll",
      "outputs": [],
      "stateMutability": "nonpayable",
      "type": "function"
    },
    {
      "inputs": [
        {
          "internalType": "bytes4",
          "name": "interfaceId",
          "type": "bytes4"
        }
      ],
      "name": "supportsInterface",
      "outputs": [
        {
          "internalType": "bool",
          "name": "",
          "type": "bool"
        }
      ],
      "stateMutability": "view",
      "type": "function"
    },
    {
      "inputs": [],
      "name": "symbol",
      "outputs": [
        {
          "internalType": "string",
          "name": "",
          "type": "string"
        }
      ],
      "stateMutability": "view",
      "type": "function"
    },
    {
      "inputs": [
        {
          "internalType": "uint256",
          "name": "tokenId",
          "type": "uint256"
        }
      ],
      "name": "tokenURI",
      "outputs": [
        {
          "internalType": "string",
          "name": "",
          "type": "string"
        }
      ],
      "stateMutability": "view",
      "type": "function"
    },
    {
      "inputs": [
        {
          "internalType": "address",
          "name": "newOwner",
          "type": "address"
        }
      ],
      "name": "transferContractOwnership",
      "outputs": [],
      "stateMutability": "nonpayable",
      "type": "function"
    },
    {
      "inputs": [
        {
          "internalType": "address",
          "name": "from",
          "type": "address"
        },
        {
          "internalType": "address",
          "name": "to",
          "type": "address"
        },
        {
          "internalType": "uint256",
          "name": "tokenId",
          "type": "uint256"
        }
      ],
      "name": "transferFrom",
      "outputs": [],
      "stateMutability": "nonpayable",
      "type": "function"
    },
    {
      "inputs": [
        {
          "internalType": "address",
          "name": "newOwner",
          "type": "address"
        }
      ],
      "name": "transferOwnership",
      "outputs": [],
      "stateMutability": "nonpayable",
      "type": "function"
    },
    {
      "inputs": [],
      "name": "version",
      "outputs": [
        {
          "internalType": "string",
          "name": "",
          "type": "string"
        }
      ],
      "stateMutability": "view",
      "type": "function"
    }
  ],
  "bytecode": "0x60806040523480156200001157600080fd5b506040518060400160405280600681526020017f45524337323100000000000000000000000000000000000000000000000000008152506040518060400160405280600481526020017f453732310000000000000000000000000000000000000000000000000000000081525081600090816200008f919062000412565b508060019081620000a1919062000412565b505050620000c4620000b8620000ca60201b60201c565b620000d260201b60201c565b620004f9565b600033905090565b6000600760009054906101000a900473ffffffffffffffffffffffffffffffffffffffff16905081600760006101000a81548173ffffffffffffffffffffffffffffffffffffffff021916908373ffffffffffffffffffffffffffffffffffffffff1602179055508173ffffffffffffffffffffffffffffffffffffffff168173ffffffffffffffffffffffffffffffffffffffff167f8be0079c531659141344cd1fd0a4f28419497f9722a3daafe3b4186f6b6457e060405160405180910390a35050565b600081519050919050565b7f4e487b7100000000000000000000000000000000000000000000000000000000600052604160045260246000fd5b7f4e487b7100000000000000000000000000000000000000000000000000000000600052602260045260246000fd5b600060028204905060018216806200021a57607f821691505b60208210810362000230576200022f620001d2565b5b50919050565b60008190508160005260206000209050919050565b60006020601f8301049050919050565b600082821b905092915050565b6000600883026200029a7fffffffffffffffffffffffffffffffffffffffffffffffffffffffffffffffff826200025b565b620002a686836200025b565b95508019841693508086168417925050509392505050565b6000819050919050565b6000819050919050565b6000620002f3620002ed620002e784620002be565b620002c8565b620002be565b9050919050565b6000819050919050565b6200030f83620002d2565b620003276200031e82620002fa565b84845462000268565b825550505050565b600090565b6200033e6200032f565b6200034b81848462000304565b505050565b5b8181101562000373576200036760008262000334565b60018101905062000351565b5050565b601f821115620003c2576200038c8162000236565b62000397846200024b565b81016020851015620003a7578190505b620003bf620003b6856200024b565b83018262000350565b50505b505050565b600082821c905092915050565b6000620003e760001984600802620003c7565b1980831691505092915050565b6000620004028383620003d4565b9150826002028217905092915050565b6200041d8262000198565b67ffffffffffffffff811115620004395762000438620001a3565b5b62000445825462000201565b6200045282828562000377565b600060209050601f8311600181146200048a576000841562000475578287015190505b620004818582620003f4565b865550620004f1565b601f1984166200049a8662000236565b60005b82811015620004c4578489015182556001820191506020850194506020810190506200049d565b86831015620004e45784890151620004e0601f891682620003d4565b8355505b6001600288020188555050505b505050505050565b613a1380620005096000396000f3fe60806040526004361061014b5760003560e01c80637deb6025116100b6578063b88d4fde1161006f578063b88d4fde1461047f578063ba3737cc146104a8578063c87b56dd146104e5578063d79875eb14610522578063e985e9c51461054b578063f2fde38b146105885761014b565b80637deb6025146103925780638da5cb5b146103ae57806395d89b41146103d9578063a22cb46514610404578063a6487c531461042d578063a843c51f146104565761014b565b806323b872dd1161010857806323b872dd1461028457806342842e0e146102ad57806354fd4d50146102d65780636352211e1461030157806370a082311461033e578063715018a61461037b5761014b565b806301ffc9a71461015057806306fdde031461018d57806307c9cd45146101b8578063081812fc146101e1578063095ea7b31461021e57806312e8ac0614610247575b600080fd5b34801561015c57600080fd5b5061017760048036038101906101729190612265565b6105b1565b60405161018491906122ad565b60405180910390f35b34801561019957600080fd5b506101a2610693565b6040516101af9190612358565b60405180910390f35b3480156101c457600080fd5b506101df60048036038101906101da91906123b0565b610725565b005b3480156101ed57600080fd5b50610208600480360381019061020391906123b0565b61083a565b604051610215919061241e565b60405180910390f35b34801561022a57600080fd5b5061024560048036038101906102409190612465565b610880565b005b34801561025357600080fd5b5061026e600480360381019061026991906123b0565b610997565b60405161027b919061241e565b60405180910390f35b34801561029057600080fd5b506102ab60048036038101906102a691906124a5565b6109a9565b005b3480156102b957600080fd5b506102d460048036038101906102cf91906124a5565b610a0f565b005b3480156102e257600080fd5b506102eb610a75565b6040516102f89190612358565b60405180910390f35b34801561030d57600080fd5b50610328600480360381019061032391906123b0565b610b07565b604051610335919061241e565b60405180910390f35b34801561034a57600080fd5b50610365600480360381019061036091906124f8565b610bb8565b6040516103729190612534565b60405180910390f35b34801561038757600080fd5b50610390610c6f565b005b6103ac60048036038101906103a7919061254f565b610c83565b005b3480156103ba57600080fd5b506103c3610de6565b6040516103d0919061241e565b60405180910390f35b3480156103e557600080fd5b506103ee610e10565b6040516103fb9190612358565b60405180910390f35b34801561041057600080fd5b5061042b600480360381019061042691906125bb565b610ea2565b005b34801561043957600080fd5b50610454600480360381019061044f9190612730565b610eb8565b005b34801561046257600080fd5b5061047d600480360381019061047891906124f8565b610eed565b005b34801561048b57600080fd5b506104a660048036038101906104a19190612878565b610f01565b005b3480156104b457600080fd5b506104cf60048036038101906104ca91906128fb565b610f69565b6040516104dc9190612534565b60405180910390f35b3480156104f157600080fd5b5061050c600480360381019061050791906123b0565b611005565b6040516105199190612358565b60405180910390f35b34801561052e57600080fd5b506105496004803603810190610544919061299a565b611117565b005b34801561055757600080fd5b50610572600480360381019061056d91906129da565b61121a565b60405161057f91906122ad565b60405180910390f35b34801561059457600080fd5b506105af60048036038101906105aa91906124f8565b6112ae565b005b60007f80ac58cd000000000000000000000000000000000000000000000000000000007bffffffffffffffffffffffffffffffffffffffffffffffffffffffff1916827bffffffffffffffffffffffffffffffffffffffffffffffffffffffff1916148061067c57507f5b5e139f000000000000000000000000000000000000000000000000000000007bffffffffffffffffffffffffffffffffffffffffffffffffffffffff1916827bffffffffffffffffffffffffffffffffffffffffffffffffffffffff1916145b8061068c575061068b82611331565b5b9050919050565b6060600880546106a290612a49565b80601f01602080910402602001604051908101604052809291908181526020018280546106ce90612a49565b801561071b5780601f106106f05761010080835404028352916020019161071b565b820191906000526020600020905b8154815290600101906020018083116106fe57829003601f168201915b5050505050905090565b3373ffffffffffffffffffffffffffffffffffffffff1661074582610b07565b73ffffffffffffffffffffffffffffffffffffffff161461079b576040517f08c379a000000000000000000000000000000000000000000000000000000000815260040161079290612aec565b60405180910390fd5b6000600c600083815260200190815260200160002054116107f1576040517f08c379a00000000000000000000000000000000000000000000000000000000081526004016107e890612b58565b60405180910390fd5b600c6000828152602001908152602001600020600090556001817f398f963ea5112f09c24eaa96a4faf79584d20934fdfc897bf23482975d9b31c360405160405180910390a350565b60006108458261139b565b6004600083815260200190815260200160002060009054906101000a900473ffffffffffffffffffffffffffffffffffffffff169050919050565b600061088b82610b07565b90508073ffffffffffffffffffffffffffffffffffffffff168373ffffffffffffffffffffffffffffffffffffffff16036108fb576040517f08c379a00000000000000000000000000000000000000000000000000000000081526004016108f290612bea565b60405180910390fd5b8073ffffffffffffffffffffffffffffffffffffffff1661091a6113e6565b73ffffffffffffffffffffffffffffffffffffffff1614806109495750610948816109436113e6565b61121a565b5b610988576040517f08c379a000000000000000000000000000000000000000000000000000000000815260040161097f90612c7c565b60405180910390fd5b61099283836113ee565b505050565b60006109a282610b07565b9050919050565b6000600c600083815260200190815260200160002054146109ff576040517f08c379a00000000000000000000000000000000000000000000000000000000081526004016109f690612ce8565b60405180910390fd5b610a0a8383836114a7565b505050565b6000600c60008381526020019081526020016000205414610a65576040517f08c379a0000000000000000000000000000000000000000000000000000000008152600401610a5c90612ce8565b60405180910390fd5b610a70838383611507565b505050565b6060600a8054610a8490612a49565b80601f0160208091040260200160405190810160405280929190818152602001828054610ab090612a49565b8015610afd5780601f10610ad257610100808354040283529160200191610afd565b820191906000526020600020905b815481529060010190602001808311610ae057829003601f168201915b5050505050905090565b6000806002600084815260200190815260200160002060009054906101000a900473ffffffffffffffffffffffffffffffffffffffff169050600073ffffffffffffffffffffffffffffffffffffffff168173ffffffffffffffffffffffffffffffffffffffff1603610baf576040517f08c379a0000000000000000000000000000000000000000000000000000000008152600401610ba690612d54565b60405180910390fd5b80915050919050565b60008073ffffffffffffffffffffffffffffffffffffffff168273ffffffffffffffffffffffffffffffffffffffff1603610c28576040517f08c379a0000000000000000000000000000000000000000000000000000000008152600401610c1f90612de6565b60405180910390fd5b600360008373ffffffffffffffffffffffffffffffffffffffff1673ffffffffffffffffffffffffffffffffffffffff168152602001908152602001600020549050919050565b610c77611527565b610c8160006115a5565b565b6000600c60008481526020019081526020016000205403610cd9576040517f08c379a0000000000000000000000000000000000000000000000000000000008152600401610cd090612e52565b60405180910390fd5b600c6000838152602001908152602001600020543414610d2e576040517f08c379a0000000000000000000000000000000000000000000000000000000008152600401610d2590612ebe565b60405180910390fd5b6002827f398f963ea5112f09c24eaa96a4faf79584d20934fdfc897bf23482975d9b31c360405160405180910390a36000610d6883610b07565b9050600c600084815260200190815260200160002060009055610d94610d8d84610b07565b8385610a0f565b60003490508173ffffffffffffffffffffffffffffffffffffffff166108fc829081150290604051600060405180830381858888f19350505050158015610ddf573d6000803e3d6000fd5b5050505050565b6000600760009054906101000a900473ffffffffffffffffffffffffffffffffffffffff16905090565b606060098054610e1f90612a49565b80601f0160208091040260200160405190810160405280929190818152602001828054610e4b90612a49565b8015610e985780601f10610e6d57610100808354040283529160200191610e98565b820191906000526020600020905b815481529060010190602001808311610e7b57829003601f168201915b5050505050905090565b610eb4610ead6113e6565b838361166b565b5050565b8260089081610ec7919061308a565b508160099081610ed7919061308a565b5080600a9081610ee7919061308a565b50505050565b610ef5611527565b610efe816112ae565b50565b6000600c60008481526020019081526020016000205414610f57576040517f08c379a0000000000000000000000000000000000000000000000000000000008152600401610f4e90612ce8565b60405180910390fd5b610f63848484846117d7565b50505050565b6000610f73611527565b610f7d600b611839565b6000610f89600b61184f565b9050610f95868261185d565b610f9f8186611a36565b8273ffffffffffffffffffffffffffffffffffffffff1684604051610fc49190613198565b6040518091039020827f983d37d8751fcfa80e95e5fe2c0f46fb7b541b280961dc7ac00aa2670e2edd8760405160405180910390a480915050949350505050565b60606110108261139b565b600060066000848152602001908152602001600020805461103090612a49565b80601f016020809104026020016040519081016040528092919081815260200182805461105c90612a49565b80156110a95780601f1061107e576101008083540402835291602001916110a9565b820191906000526020600020905b81548152906001019060200180831161108c57829003601f168201915b5050505050905060006110ba611aa3565b905060008151036110cf578192505050611112565b6000825111156111045780826040516020016110ec9291906131af565b60405160208183030381529060405292505050611112565b61110d84611aba565b925050505b919050565b3373ffffffffffffffffffffffffffffffffffffffff1661113783610b07565b73ffffffffffffffffffffffffffffffffffffffff161461118d576040517f08c379a000000000000000000000000000000000000000000000000000000000815260040161118490612aec565b60405180910390fd5b600081116111d0576040517f08c379a00000000000000000000000000000000000000000000000000000000081526004016111c79061321f565b60405180910390fd5b80600c60008481526020019081526020016000208190555080827f8ed05978f1a2453a08590ad9c67430e04d0b816de1318b575d1c28b7965ff5d560405160405180910390a35050565b6000600560008473ffffffffffffffffffffffffffffffffffffffff1673ffffffffffffffffffffffffffffffffffffffff16815260200190815260200160002060008373ffffffffffffffffffffffffffffffffffffffff1673ffffffffffffffffffffffffffffffffffffffff16815260200190815260200160002060009054906101000a900460ff16905092915050565b6112b6611527565b600073ffffffffffffffffffffffffffffffffffffffff168173ffffffffffffffffffffffffffffffffffffffff1603611325576040517f08c379a000000000000000000000000000000000000000000000000000000000815260040161131c906132b1565b60405180910390fd5b61132e816115a5565b50565b60007f01ffc9a7000000000000000000000000000000000000000000000000000000007bffffffffffffffffffffffffffffffffffffffffffffffffffffffff1916827bffffffffffffffffffffffffffffffffffffffffffffffffffffffff1916149050919050565b6113a481611b22565b6113e3576040517f08c379a00000000000000000000000000000000000000000000000000000000081526004016113da90612d54565b60405180910390fd5b50565b600033905090565b816004600083815260200190815260200160002060006101000a81548173ffffffffffffffffffffffffffffffffffffffff021916908373ffffffffffffffffffffffffffffffffffffffff160217905550808273ffffffffffffffffffffffffffffffffffffffff1661146183610b07565b73ffffffffffffffffffffffffffffffffffffffff167f8c5be1e5ebec7d5bd14f71427d1e84f3dd0314c0f7b2291e5b200ac8c7c3b92560405160405180910390a45050565b6114b86114b26113e6565b82611b8e565b6114f7576040517f08c379a00000000000000000000000000000000000000000000000000000000081526004016114ee90613343565b60405180910390fd5b611502838383611c23565b505050565b61152283838360405180602001604052806000815250610f01565b505050565b61152f6113e6565b73ffffffffffffffffffffffffffffffffffffffff1661154d610de6565b73ffffffffffffffffffffffffffffffffffffffff16146115a3576040517f08c379a000000000000000000000000000000000000000000000000000000000815260040161159a906133af565b60405180910390fd5b565b6000600760009054906101000a900473ffffffffffffffffffffffffffffffffffffffff16905081600760006101000a81548173ffffffffffffffffffffffffffffffffffffffff021916908373ffffffffffffffffffffffffffffffffffffffff1602179055508173ffffffffffffffffffffffffffffffffffffffff168173ffffffffffffffffffffffffffffffffffffffff167f8be0079c531659141344cd1fd0a4f28419497f9722a3daafe3b4186f6b6457e060405160405180910390a35050565b8173ffffffffffffffffffffffffffffffffffffffff168373ffffffffffffffffffffffffffffffffffffffff16036116d9576040517f08c379a00000000000000000000000000000000000000000000000000000000081526004016116d09061341b565b60405180910390fd5b80600560008573ffffffffffffffffffffffffffffffffffffffff1673ffffffffffffffffffffffffffffffffffffffff16815260200190815260200160002060008473ffffffffffffffffffffffffffffffffffffffff1673ffffffffffffffffffffffffffffffffffffffff16815260200190815260200160002060006101000a81548160ff0219169083151502179055508173ffffffffffffffffffffffffffffffffffffffff168373ffffffffffffffffffffffffffffffffffffffff167f17307eab39ab6107e8899845ad3d59bd9653f200f220920489ca2b5937696c31836040516117ca91906122ad565b60405180910390a3505050565b6117e86117e26113e6565b83611b8e565b611827576040517f08c379a000000000000000000000000000000000000000000000000000000000815260040161181e90613343565b60405180910390fd5b61183384848484611e89565b50505050565b6001816000016000828254019250508190555050565b600081600001549050919050565b600073ffffffffffffffffffffffffffffffffffffffff168273ffffffffffffffffffffffffffffffffffffffff16036118cc576040517f08c379a00000000000000000000000000000000000000000000000000000000081526004016118c390613487565b60405180910390fd5b6118d581611b22565b15611915576040517f08c379a000000000000000000000000000000000000000000000000000000000815260040161190c906134f3565b60405180910390fd5b61192160008383611ee5565b6001600360008473ffffffffffffffffffffffffffffffffffffffff1673ffffffffffffffffffffffffffffffffffffffff16815260200190815260200160002060008282546119719190613542565b92505081905550816002600083815260200190815260200160002060006101000a81548173ffffffffffffffffffffffffffffffffffffffff021916908373ffffffffffffffffffffffffffffffffffffffff160217905550808273ffffffffffffffffffffffffffffffffffffffff16600073ffffffffffffffffffffffffffffffffffffffff167fddf252ad1be2c89b69c2b068fc378daa952ba7f163c4a11628f55a4df523b3ef60405160405180910390a4611a3260008383611eea565b5050565b611a3f82611b22565b611a7e576040517f08c379a0000000000000000000000000000000000000000000000000000000008152600401611a75906135e8565b60405180910390fd5b80600660008481526020019081526020016000209081611a9e919061308a565b505050565b606060405180602001604052806000815250905090565b6060611ac58261139b565b6000611acf611aa3565b90506000815111611aef5760405180602001604052806000815250611b1a565b80611af984611eef565b604051602001611b0a9291906131af565b6040516020818303038152906040525b915050919050565b60008073ffffffffffffffffffffffffffffffffffffffff166002600084815260200190815260200160002060009054906101000a900473ffffffffffffffffffffffffffffffffffffffff1673ffffffffffffffffffffffffffffffffffffffff1614159050919050565b600080611b9a83610b07565b90508073ffffffffffffffffffffffffffffffffffffffff168473ffffffffffffffffffffffffffffffffffffffff161480611bdc5750611bdb818561121a565b5b80611c1a57508373ffffffffffffffffffffffffffffffffffffffff16611c028461083a565b73ffffffffffffffffffffffffffffffffffffffff16145b91505092915050565b8273ffffffffffffffffffffffffffffffffffffffff16611c4382610b07565b73ffffffffffffffffffffffffffffffffffffffff1614611c99576040517f08c379a0000000000000000000000000000000000000000000000000000000008152600401611c909061367a565b60405180910390fd5b600073ffffffffffffffffffffffffffffffffffffffff168273ffffffffffffffffffffffffffffffffffffffff1603611d08576040517f08c379a0000000000000000000000000000000000000000000000000000000008152600401611cff9061370c565b60405180910390fd5b611d13838383611ee5565b611d1e6000826113ee565b6001600360008573ffffffffffffffffffffffffffffffffffffffff1673ffffffffffffffffffffffffffffffffffffffff1681526020019081526020016000206000828254611d6e919061372c565b925050819055506001600360008473ffffffffffffffffffffffffffffffffffffffff1673ffffffffffffffffffffffffffffffffffffffff1681526020019081526020016000206000828254611dc59190613542565b92505081905550816002600083815260200190815260200160002060006101000a81548173ffffffffffffffffffffffffffffffffffffffff021916908373ffffffffffffffffffffffffffffffffffffffff160217905550808273ffffffffffffffffffffffffffffffffffffffff168473ffffffffffffffffffffffffffffffffffffffff167fddf252ad1be2c89b69c2b068fc378daa952ba7f163c4a11628f55a4df523b3ef60405160405180910390a4611e84838383611eea565b505050565b611e94848484611c23565b611ea08484848461204f565b611edf576040517f08c379a0000000000000000000000000000000000000000000000000000000008152600401611ed6906137d2565b60405180910390fd5b50505050565b505050565b505050565b606060008203611f36576040518060400160405280600181526020017f3000000000000000000000000000000000000000000000000000000000000000815250905061204a565b600082905060005b60008214611f68578080611f51906137f2565b915050600a82611f619190613869565b9150611f3e565b60008167ffffffffffffffff811115611f8457611f83612605565b5b6040519080825280601f01601f191660200182016040528015611fb65781602001600182028036833780820191505090505b5090505b6000851461204357600182611fcf919061372c565b9150600a85611fde919061389a565b6030611fea9190613542565b60f81b81838151811061200057611fff6138cb565b5b60200101907effffffffffffffffffffffffffffffffffffffffffffffffffffffffffffff1916908160001a905350600a8561203c9190613869565b9450611fba565b8093505050505b919050565b60006120708473ffffffffffffffffffffffffffffffffffffffff166121d6565b156121c9578373ffffffffffffffffffffffffffffffffffffffff1663150b7a026120996113e6565b8786866040518563ffffffff1660e01b81526004016120bb949392919061394f565b6020604051808303816000875af19250505080156120f757506040513d601f19601f820116820180604052508101906120f491906139b0565b60015b612179573d8060008114612127576040519150601f19603f3d011682016040523d82523d6000602084013e61212c565b606091505b506000815103612171576040517f08c379a0000000000000000000000000000000000000000000000000000000008152600401612168906137d2565b60405180910390fd5b805181602001fd5b63150b7a0260e01b7bffffffffffffffffffffffffffffffffffffffffffffffffffffffff1916817bffffffffffffffffffffffffffffffffffffffffffffffffffffffff1916149150506121ce565b600190505b949350505050565b6000808273ffffffffffffffffffffffffffffffffffffffff163b119050919050565b6000604051905090565b600080fd5b600080fd5b60007fffffffff0000000000000000000000000000000000000000000000000000000082169050919050565b6122428161220d565b811461224d57600080fd5b50565b60008135905061225f81612239565b92915050565b60006020828403121561227b5761227a612203565b5b600061228984828501612250565b91505092915050565b60008115159050919050565b6122a781612292565b82525050565b60006020820190506122c2600083018461229e565b92915050565b600081519050919050565b600082825260208201905092915050565b60005b838110156123025780820151818401526020810190506122e7565b60008484015250505050565b6000601f19601f8301169050919050565b600061232a826122c8565b61233481856122d3565b93506123448185602086016122e4565b61234d8161230e565b840191505092915050565b60006020820190508181036000830152612372818461231f565b905092915050565b6000819050919050565b61238d8161237a565b811461239857600080fd5b50565b6000813590506123aa81612384565b92915050565b6000602082840312156123c6576123c5612203565b5b60006123d48482850161239b565b91505092915050565b600073ffffffffffffffffffffffffffffffffffffffff82169050919050565b6000612408826123dd565b9050919050565b612418816123fd565b82525050565b6000602082019050612433600083018461240f565b92915050565b612442816123fd565b811461244d57600080fd5b50565b60008135905061245f81612439565b92915050565b6000806040838503121561247c5761247b612203565b5b600061248a85828601612450565b925050602061249b8582860161239b565b9150509250929050565b6000806000606084860312156124be576124bd612203565b5b60006124cc86828701612450565b93505060206124dd86828701612450565b92505060406124ee8682870161239b565b9150509250925092565b60006020828403121561250e5761250d612203565b5b600061251c84828501612450565b91505092915050565b61252e8161237a565b82525050565b60006020820190506125496000830184612525565b92915050565b6000806040838503121561256657612565612203565b5b60006125748582860161239b565b925050602061258585828601612450565b9150509250929050565b61259881612292565b81146125a357600080fd5b50565b6000813590506125b58161258f565b92915050565b600080604083850312156125d2576125d1612203565b5b60006125e085828601612450565b92505060206125f1858286016125a6565b9150509250929050565b600080fd5b600080fd5b7f4e487b7100000000000000000000000000000000000000000000000000000000600052604160045260246000fd5b61263d8261230e565b810181811067ffffffffffffffff8211171561265c5761265b612605565b5b80604052505050565b600061266f6121f9565b905061267b8282612634565b919050565b600067ffffffffffffffff82111561269b5761269a612605565b5b6126a48261230e565b9050602081019050919050565b82818337600083830152505050565b60006126d36126ce84612680565b612665565b9050828152602081018484840111156126ef576126ee612600565b5b6126fa8482856126b1565b509392505050565b600082601f830112612717576127166125fb565b5b81356127278482602086016126c0565b91505092915050565b60008060006060848603121561274957612748612203565b5b600084013567ffffffffffffffff81111561276757612766612208565b5b61277386828701612702565b935050602084013567ffffffffffffffff81111561279457612793612208565b5b6127a086828701612702565b925050604084013567ffffffffffffffff8111156127c1576127c0612208565b5b6127cd86828701612702565b9150509250925092565b600067ffffffffffffffff8211156127f2576127f1612605565b5b6127fb8261230e565b9050602081019050919050565b600061281b612816846127d7565b612665565b90508281526020810184848401111561283757612836612600565b5b6128428482856126b1565b509392505050565b600082601f83011261285f5761285e6125fb565b5b813561286f848260208601612808565b91505092915050565b6000806000806080858703121561289257612891612203565b5b60006128a087828801612450565b94505060206128b187828801612450565b93505060406128c28782880161239b565b925050606085013567ffffffffffffffff8111156128e3576128e2612208565b5b6128ef8782880161284a565b91505092959194509250565b6000806000806080858703121561291557612914612203565b5b600061292387828801612450565b945050602085013567ffffffffffffffff81111561294457612943612208565b5b61295087828801612702565b935050604085013567ffffffffffffffff81111561297157612970612208565b5b61297d87828801612702565b925050606061298e87828801612450565b91505092959194509250565b600080604083850312156129b1576129b0612203565b5b60006129bf8582860161239b565b92505060206129d08582860161239b565b9150509250929050565b600080604083850312156129f1576129f0612203565b5b60006129ff85828601612450565b9250506020612a1085828601612450565b9150509250929050565b7f4e487b7100000000000000000000000000000000000000000000000000000000600052602260045260246000fd5b60006002820490506001821680612a6157607f821691505b602082108103612a7457612a73612a1a565b5b50919050565b7f5065726d697373696f6e2064656e6965643a6e66742069742773206e6f74207960008201527f6f75727300000000000000000000000000000000000000000000000000000000602082015250565b6000612ad66024836122d3565b9150612ae182612a7a565b604082019050919050565b60006020820190508181036000830152612b0581612ac9565b9050919050565b7f6e6f742073656c6c696e67000000000000000000000000000000000000000000600082015250565b6000612b42600b836122d3565b9150612b4d82612b0c565b602082019050919050565b60006020820190508181036000830152612b7181612b35565b9050919050565b7f4552433732313a20617070726f76616c20746f2063757272656e74206f776e6560008201527f7200000000000000000000000000000000000000000000000000000000000000602082015250565b6000612bd46021836122d3565b9150612bdf82612b78565b604082019050919050565b60006020820190508181036000830152612c0381612bc7565b9050919050565b7f4552433732313a20617070726f76652063616c6c6572206973206e6f7420746f60008201527f6b656e206f776e6572206e6f7220617070726f76656420666f7220616c6c0000602082015250565b6000612c66603e836122d3565b9150612c7182612c0a565b604082019050919050565b60006020820190508181036000830152612c9581612c59565b9050919050565b7f4974656d2069732073656c6c696e670000000000000000000000000000000000600082015250565b6000612cd2600f836122d3565b9150612cdd82612c9c565b602082019050919050565b60006020820190508181036000830152612d0181612cc5565b9050919050565b7f4552433732313a20696e76616c696420746f6b656e2049440000000000000000600082015250565b6000612d3e6018836122d3565b9150612d4982612d08565b602082019050919050565b60006020820190508181036000830152612d6d81612d31565b9050919050565b7f4552433732313a2061646472657373207a65726f206973206e6f74206120766160008201527f6c6964206f776e65720000000000000000000000000000000000000000000000602082015250565b6000612dd06029836122d3565b9150612ddb82612d74565b604082019050919050565b60006020820190508181036000830152612dff81612dc3565b9050919050565b7f4974656d206e6f742073656c6c696e6700000000000000000000000000000000600082015250565b6000612e3c6010836122d3565b9150612e4782612e06565b602082019050919050565b60006020820190508181036000830152612e6b81612e2f565b9050919050565b7f496e636f72726563742070726963650000000000000000000000000000000000600082015250565b6000612ea8600f836122d3565b9150612eb382612e72565b602082019050919050565b60006020820190508181036000830152612ed781612e9b565b9050919050565b60008190508160005260206000209050919050565b60006020601f8301049050919050565b600082821b905092915050565b600060088302612f407fffffffffffffffffffffffffffffffffffffffffffffffffffffffffffffffff82612f03565b612f4a8683612f03565b95508019841693508086168417925050509392505050565b6000819050919050565b6000612f87612f82612f7d8461237a565b612f62565b61237a565b9050919050565b6000819050919050565b612fa183612f6c565b612fb5612fad82612f8e565b848454612f10565b825550505050565b600090565b612fca612fbd565b612fd5818484612f98565b505050565b5b81811015612ff957612fee600082612fc2565b600181019050612fdb565b5050565b601f82111561303e5761300f81612ede565b61301884612ef3565b81016020851015613027578190505b61303b61303385612ef3565b830182612fda565b50505b505050565b600082821c905092915050565b600061306160001984600802613043565b1980831691505092915050565b600061307a8383613050565b9150826002028217905092915050565b613093826122c8565b67ffffffffffffffff8111156130ac576130ab612605565b5b6130b68254612a49565b6130c1828285612ffd565b600060209050601f8311600181146130f457600084156130e2578287015190505b6130ec858261306e565b865550613154565b601f19841661310286612ede565b60005b8281101561312a57848901518255600182019150602085019450602081019050613105565b868310156131475784890151613143601f891682613050565b8355505b6001600288020188555050505b505050505050565b600081905092915050565b6000613172826122c8565b61317c818561315c565b935061318c8185602086016122e4565b80840191505092915050565b60006131a48284613167565b915081905092915050565b60006131bb8285613167565b91506131c78284613167565b91508190509392505050565b7f7072696365206d757374206d6f7265207468616e207468652030000000000000600082015250565b6000613209601a836122d3565b9150613214826131d3565b602082019050919050565b60006020820190508181036000830152613238816131fc565b9050919050565b7f4f776e61626c653a206e6577206f776e657220697320746865207a65726f206160008201527f6464726573730000000000000000000000000000000000000000000000000000602082015250565b600061329b6026836122d3565b91506132a68261323f565b604082019050919050565b600060208201905081810360008301526132ca8161328e565b9050919050565b7f4552433732313a2063616c6c6572206973206e6f7420746f6b656e206f776e6560008201527f72206e6f7220617070726f766564000000000000000000000000000000000000602082015250565b600061332d602e836122d3565b9150613338826132d1565b604082019050919050565b6000602082019050818103600083015261335c81613320565b9050919050565b7f4f776e61626c653a2063616c6c6572206973206e6f7420746865206f776e6572600082015250565b60006133996020836122d3565b91506133a482613363565b602082019050919050565b600060208201905081810360008301526133c88161338c565b9050919050565b7f4552433732313a20617070726f766520746f2063616c6c657200000000000000600082015250565b60006134056019836122d3565b9150613410826133cf565b602082019050919050565b60006020820190508181036000830152613434816133f8565b9050919050565b7f4552433732313a206d696e7420746f20746865207a65726f2061646472657373600082015250565b60006134716020836122d3565b915061347c8261343b565b602082019050919050565b600060208201905081810360008301526134a081613464565b9050919050565b7f4552433732313a20746f6b656e20616c7265616479206d696e74656400000000600082015250565b60006134dd601c836122d3565b91506134e8826134a7565b602082019050919050565b6000602082019050818103600083015261350c816134d0565b9050919050565b7f4e487b7100000000000000000000000000000000000000000000000000000000600052601160045260246000fd5b600061354d8261237a565b91506135588361237a565b92508282019050808211156135705761356f613513565b5b92915050565b7f45524337323155524953746f726167653a2055524920736574206f66206e6f6e60008201527f6578697374656e7420746f6b656e000000000000000000000000000000000000602082015250565b60006135d2602e836122d3565b91506135dd82613576565b604082019050919050565b60006020820190508181036000830152613601816135c5565b9050919050565b7f4552433732313a207472616e736665722066726f6d20696e636f72726563742060008201527f6f776e6572000000000000000000000000000000000000000000000000000000602082015250565b60006136646025836122d3565b915061366f82613608565b604082019050919050565b6000602082019050818103600083015261369381613657565b9050919050565b7f4552433732313a207472616e7366657220746f20746865207a65726f2061646460008201527f7265737300000000000000000000000000000000000000000000000000000000602082015250565b60006136f66024836122d3565b91506137018261369a565b604082019050919050565b60006020820190508181036000830152613725816136e9565b9050919050565b60006137378261237a565b91506137428361237a565b925082820390508181111561375a57613759613513565b5b92915050565b7f4552433732313a207472616e7366657220746f206e6f6e20455243373231526560008201527f63656976657220696d706c656d656e7465720000000000000000000000000000602082015250565b60006137bc6032836122d3565b91506137c782613760565b604082019050919050565b600060208201905081810360008301526137eb816137af565b9050919050565b60006137fd8261237a565b91507fffffffffffffffffffffffffffffffffffffffffffffffffffffffffffffffff820361382f5761382e613513565b5b600182019050919050565b7f4e487b7100000000000000000000000000000000000000000000000000000000600052601260045260246000fd5b60006138748261237a565b915061387f8361237a565b92508261388f5761388e61383a565b5b828204905092915050565b60006138a58261237a565b91506138b08361237a565b9250826138c0576138bf61383a565b5b828206905092915050565b7f4e487b7100000000000000000000000000000000000000000000000000000000600052603260045260246000fd5b600081519050919050565b600082825260208201905092915050565b6000613921826138fa565b61392b8185613905565b935061393b8185602086016122e4565b6139448161230e565b840191505092915050565b6000608082019050613964600083018761240f565b613971602083018661240f565b61397e6040830185612525565b81810360608301526139908184613916565b905095945050505050565b6000815190506139aa81612239565b92915050565b6000602082840312156139c6576139c5612203565b5b60006139d48482850161399b565b9150509291505056fea26469706673582212206e7d3467af64498e5391def6ff7d97c5bbc413c461a0dfc73c816270b42119d764736f6c63430008110033",
  "linkReferences": {},
  "deployedLinkReferences": {}
}