{"contracts/Robot.sol":{"Robot":{"abi":[{"inputs":[{"internalType":"string","name":"_versoion","type":"string"},{"internalType":"string","name":"_salt","type":"string"}],"stateMutability":"nonpayable","type":"constructor"},{"anonymous":false,"inputs":[{"indexed":true,"internalType":"address","name":"contractAddress","type":"address"},{"indexed":true,"internalType":"uint256","name":"cType","type":"uint256"},{"indexed":true,"internalType":"uint256","name":"tokenId","type":"uint256"},{"indexed":false,"internalType":"address","name":"from","type":"address"},{"indexed":false,"internalType":"address","name":"to","type":"address"},{"indexed":false,"internalType":"uint256","name":"amount","type":"uint256"},{"indexed":false,"internalType":"uint256","name":"price","type":"uint256"}],"name":"Buy","type":"event"},{"anonymous":false,"inputs":[{"indexed":true,"internalType":"address","name":"c","type":"address"},{"indexed":true,"internalType":"uint256","name":"tokenId","type":"uint256"}],"name":"CancelSell721","type":"event"},{"anonymous":false,"inputs":[{"indexed":true,"internalType":"uint256","name":"tokenId","type":"uint256"},{"indexed":true,"internalType":"uint256","name":"amount","type":"uint256"},{"indexed":true,"internalType":"address","name":"owner","type":"address"}],"name":"Mint1155","type":"event"},{"anonymous":false,"inputs":[{"indexed":true,"internalType":"address","name":"c","type":"address"},{"indexed":true,"internalType":"uint256","name":"tokenId","type":"uint256"},{"indexed":true,"internalType":"uint256","name":"collectionId","type":"uint256"},{"indexed":false,"internalType":"address","name":"createBy","type":"address"},{"indexed":false,"internalType":"address","name":"to","type":"address"}],"name":"Mint721","type":"event"},{"anonymous":false,"inputs":[{"indexed":true,"internalType":"address","name":"c","type":"address"},{"indexed":true,"internalType":"uint256","name":"tokenId","type":"uint256"},{"indexed":true,"internalType":"uint256","name":"price","type":"uint256"}],"name":"Sell721","type":"event"},{"inputs":[{"internalType":"address[]","name":"addresses","type":"address[]"},{"internalType":"uint256[]","name":"types","type":"uint256[]"},{"internalType":"string[]","name":"orderIds","type":"string[]"},{"internalType":"string[]","name":"ordersHash","type":"string[]"},{"internalType":"address[]","name":"fromAddresses","type":"address[]"},{"internalType":"address[]","name":"tos","type":"address[]"},{"internalType":"uint256[]","name":"tokenIds","type":"uint256[]"},{"internalType":"uint256[]","name":"amounts","type":"uint256[]"},{"internalType":"string[]","name":"tokenURIs","type":"string[]"},{"internalType":"string[]","name":"names","type":"string[]"},{"internalType":"uint256[]","name":"values","type":"uint256[]"},{"internalType":"uint256[]","name":"supplies","type":"uint256[]"},{"internalType":"string[]","name":"suppliesHash","type":"string[]"}],"name":"batchAll","outputs":[],"stateMutability":"payable","type":"function"},{"inputs":[{"internalType":"address","name":"erc1155","type":"address"},{"internalType":"address[]","name":"tos","type":"address[]"},{"internalType":"uint256[]","name":"tokenIds","type":"uint256[]"},{"internalType":"string[]","name":"names","type":"string[]"},{"internalType":"string[]","name":"tokenURIs","type":"string[]"},{"internalType":"uint256[]","name":"amounts","type":"uint256[]"},{"internalType":"uint256[]","name":"supplies","type":"uint256[]"},{"internalType":"string[]","name":"suppliesHash","type":"string[]"}],"name":"batchLock1155","outputs":[],"stateMutability":"payable","type":"function"},{"inputs":[{"internalType":"address","name":"erc721","type":"address"},{"internalType":"address[]","name":"accounts","type":"address[]"},{"internalType":"string[]","name":"tokenURIs","type":"string[]"},{"internalType":"uint256[]","name":"collectionIds","type":"uint256[]"}],"name":"batchMint721","outputs":[],"stateMutability":"nonpayable","type":"function"},{"inputs":[{"internalType":"address[]","name":"c","type":"address[]"},{"internalType":"uint256[]","name":"tokenIds","type":"uint256[]"},{"internalType":"uint256[]","name":"prices","type":"uint256[]"}],"name":"batchSell","outputs":[],"stateMutability":"nonpayable","type":"function"},{"inputs":[{"internalType":"bytes","name":"buffer","type":"bytes"}],"name":"bytesToHex","outputs":[{"internalType":"string","name":"","type":"string"}],"stateMutability":"pure","type":"function"},{"inputs":[{"internalType":"address","name":"c","type":"address"},{"internalType":"uint256","name":"tokenId","type":"uint256"}],"name":"cancelSell","outputs":[],"stateMutability":"nonpayable","type":"function"},{"inputs":[{"internalType":"address","name":"c","type":"address"},{"internalType":"uint256","name":"tokenId","type":"uint256"},{"internalType":"uint256","name":"price","type":"uint256"}],"name":"sell","outputs":[],"stateMutability":"nonpayable","type":"function"},{"inputs":[],"name":"version","outputs":[{"internalType":"string","name":"","type":"string"}],"stateMutability":"view","type":"function"}],"evm":{"bytecode":{"linkReferences":{},"object":"608060405234620003195762002596803803806200001d816200031e565b928339810190604081830312620003195780516001600160401b03908181116200031957836200004f91840162000344565b916020938482015183811162000319576200006b920162000344565b825190828211620003035760008054926001958685811c95168015620002f8575b88861014620002e4578190601f9586811162000291575b5088908683116001146200022d57849262000221575b5050600019600383901b1c191690861b1781555b81519384116200020d5784548581811c9116801562000202575b87821014620001ee57838111620001a6575b50859284116001146200014157839495509262000135575b5050600019600383901b1c191690821b1790555b6040516121df9081620003b78239f35b01519050388062000111565b9190601f1984169585845280842093905b8782106200018e5750508385961062000174575b505050811b01905562000125565b015160001960f88460031b161c1916905538808062000166565b80878596829496860151815501950193019062000152565b8582528682208480870160051c820192898810620001e4575b0160051c019086905b828110620001d8575050620000f9565b838155018690620001c8565b92508192620001bf565b634e487b7160e01b82526022600452602482fd5b90607f1690620000e7565b634e487b7160e01b81526041600452602490fd5b015190503880620000b9565b8480528985208994509190601f198416865b8c8282106200027a575050841162000260575b505050811b018155620000cd565b015160001960f88460031b161c1916905538808062000252565b8385015186558c979095019493840193016200023f565b9091508380528884208680850160051c8201928b8610620002da575b918a91869594930160051c01915b828110620002cb575050620000a3565b8681558594508a9101620002bb565b92508192620002ad565b634e487b7160e01b83526022600452602483fd5b94607f16946200008c565b634e487b7160e01b600052604160045260246000fd5b600080fd5b6040519190601f01601f191682016001600160401b038111838210176200030357604052565b919080601f84011215620003195782516001600160401b03811162000303576020906200037a601f8201601f191683016200031e565b92818452828287010111620003195760005b818110620003a257508260009394955001015290565b85810183015184820184015282016200038c56fe60c0604052600436101561001257600080fd5b60003560e01c80631546f67f146118335780633edbed1914611698578063451d89fa1461165157806354fd4d501461156e5780636a272462146114b0578063aa6ecb55146113b4578063ce73136f1461104e5763df36914a1461007457600080fd5b6101a036600319011261085e576004356001600160401b03811161085e576100a0903690600401611aaa565b60a0526024356001600160401b03811161085e576100c2903690600401611bfc565b6044356001600160401b03811161085e576100e1903690600401611b6a565b906064356001600160401b03811161085e57610101903690600401611b6a565b906084356001600160401b03811161085e57610121903690600401611aaa565b60805260a4356001600160401b03811161085e57610143903690600401611aaa565b906001600160401b0360c4351161085e576101633660c435600401611bfc565b906001600160401b0360e4351161085e576101833660e435600401611bfc565b94610104356001600160401b03811161085e576101a4903690600401611b6a565b95610124356001600160401b03811161085e576101c5903690600401611b6a565b94610144356001600160401b03811161085e576101e6903690600401611bfc565b95610164356001600160401b03811161085e57610207903690600401611bfc565b98610184356001600160401b03811161085e57610228903690600401611b6a565b9960a0515187518091149081611043575b5080611038575b8061102b575b8061101e575b80611013575b80611008575b80610ffd575b80610ff2575b80610fe7575b61027390611ebd565b60009a8b5b8a518d1015610321578c8b600161028f838d611efb565b51146102ba575b916102a76102ae926102b494611efb565b5190611d5a565b9c611d0e565b9b610278565b6102c7826102cf92611efb565b51918c611efb565b516000526002602052604060002054036102ea578c8b610296565b60405162461bcd60e51b815260206004820152600f60248201526e496e636f727265637420707269636560881b6044820152606490fd5b8b909a9496999895979a3403610fac5760005b60a05151811015610faa57808c600261034d838b611efb565b5103610ccd576103db9161036091611efb565b5160206103bd610379610373868c611efb565b51611fec565b6040519283916103ae82808501976103a06103938a611f0f565b9182815194859201611c5a565b019182815194859201611c5a565b0103601f198101835282611a72565b519020604051906020820152602081526103d681611a57565b611d67565b604051610405602082816103f88183019687815193849201611c5a565b8101038084520182611a72565b5190206104128284611efb565b51604051610430602082816103f88183019687815193849201611c5a565b51902003610c925760a0516001600160a01b039061044f908390611efb565b5116600061045d838d611efb565b516024604051809481936303a24d0760e21b835260048301525afa801561083a57600090610bf7575b7fc5d2460186f7233c927e7db2dcc703c0e500b653ca82273b7bfad8045d85a47091506040516104c6602082816103f88183019687815193849201611c5a565b519020036108ab576104d8818b611efb565b516104e3828d611efb565b516080516001600160a01b03906104fb908590611efb565b5116917f8effabb75f28a28d3080db6e33fd63bab02725de42cda7b8fd1132dc90d0e8c8600080a461058f60208b60018060a01b0361053c8560a051611efb565b511661055d8560018060a01b0361055582608051611efb565b511693611efb565b51604051627eeac760e11b81526001600160a01b03909316600484015260248301529092839190829081906044820190565b03915afa801561083a578c8392600092610872575b506105b2926102a791611efb565b6105bc8286611efb565b511061085e576106386105e76105d5610373848e611efb565b60206103bd610379610373878b611efb565b604051610604602082816103f88183019687815193849201611c5a565b5190206106118386611efb565b5160405161062f602082816103f88183019687815193849201611c5a565b519020146120c1565b8a8a60018060a01b0361064d8460a051611efb565b51166106668460018060a01b0361055582608051611efb565b5190610672858d611efb565b519161068986610682818d611efb565b5196611efb565b51823b1561085e576000946106b686926040519889978896879563af72bd9160e01b875260048701611f9d565b03925af1801561083a57610863575b505b8a8a887f5477f9965f93d173424ef8e21fac70c586b2fdb903ecf743d7a0973e6bfe3c9460808d610711876106828160018060a01b036107098260a051611efb565b511697611efb565b51958c6107548961074d8160018060a01b0361072e828a51611efb565b5116966001600160a01b0390610745908390611efb565b511695611efb565b5192611efb565b5191604051938452602084015260408301526060820152a48a6107778288611efb565b518a8c60018060a01b0361078d8660a051611efb565b51166107aa866106828160018060a01b0361072e82608051611efb565b5192813b1561085e57600060c49281956040519889968795637921219560e11b8752600487015260248601526044850152606484015260a060848401528160a48401525af191821561083a5760009283928392839261084f575b506080516001600160a01b039061081c908890611efb565b5116828215610846575bf11561083a5761083590611d0e565b610334565b6040513d6000823e3d90fd5b506108fc610826565b61085890611a2e565b38610804565b600080fd5b61086c90611a2e565b8c6106c5565b925050506020813d6020116108a3575b8161088f60209383611a72565b8101031261085e575181908c6105b26105a4565b3d9150610882565b6108c460208b60018060a01b0361053c8560a051611efb565b03915afa801561083a578b83918e93600091610bbe575b506108e68385611efb565b51116108f5575b5050506106c7565b8161090661096f9361090d93611efb565b5193611efb565b5160208d60018060a01b036109248760a051611efb565b511661093d8760018060a01b0361055582608051611efb565b51604051627eeac760e11b81526001600160a01b03909316600484015260248301529093849190829081906044820190565b03915afa90811561083a57600091610b88575b61098c9250611fdf565b6080516001600160a01b03906109a3908590611efb565b5116917f8effabb75f28a28d3080db6e33fd63bab02725de42cda7b8fd1132dc90d0e8c8600080a46109e460208b60018060a01b0361053c8560a051611efb565b03915afa801561083a578c8392600092610b4f575b50610a07926102a791611efb565b610a118286611efb565b511061085e57610a2a6105e76105d5610373848e611efb565b8a8a8660018060a01b03610a408560a051611efb565b51168b610aa960018060a01b03610a5988608051611efb565b5116946020610a7b89610a7481610a7481610a748189611efb565b5199611efb565b519160018060a01b03610a908b60a051611efb565b511661093d8b60018060a01b0361055582608051611efb565b03915afa90811561083a57600091610b19575b610ac69250611fdf565b823b1561085e57600094610af286926040519889978896879563af72bd9160e01b875260048701611f9d565b03925af1801561083a57610b0a575b508a818b6108ed565b610b1390611a2e565b8c610b01565b90506020823d602011610b47575b81610b3460209383611a72565b8101031261085e57610ac6915190610abc565b3d9150610b27565b925050506020813d602011610b80575b81610b6c60209383611a72565b8101031261085e575181908c610a076109f9565b3d9150610b5f565b90506020823d602011610bb6575b81610ba360209383611a72565b8101031261085e5761098c915190610982565b3d9150610b96565b93505050506020813d602011610bef575b81610bdc60209383611a72565b8101031261085e57818b8d9251386108db565b3d9150610bcf565b503d806000833e610c088183611a72565b81019060208183031261085e578051906001600160401b03821161085e57019080601f8301121561085e57815191610c3f83611b18565b91610c4d6040519384611a72565b8383526020848301011161085e577fc5d2460186f7233c927e7db2dcc703c0e500b653ca82273b7bfad8045d85a47092610c8d9160208085019101611c5a565b610486565b60405162461bcd60e51b81526020600482015260136024820152723b30b63ab2903430b9b41034b99032b93937b960691b6044820152606490fd5b50610cda60019189611efb565b5114610cea575b61083590611d0e565b60a0516001600160a01b0390610d01908390611efb565b51166020610d0f838d611efb565b516024604051809481936331a9108f60e11b835260048301525afa90811561083a57600091610f8b575b50898b897f5477f9965f93d173424ef8e21fac70c586b2fdb903ecf743d7a0973e6bfe3c9460808b610dad88610d8f81610d888160018060a01b03610d808260a051611efb565b511699611efb565b5198611efb565b51976001600160a01b0390610da5908390611efb565b511692611efb565b51604080516001600160a01b038a16815260208101939093526001908301526060820152a4610ddc828c611efb565b51600052600260205260406000205415610f5357610dfa828c611efb565b5160005260026020526000604081205560018060a01b03610e1d8360a051611efb565b5116908b6020610e3a8560018060a01b036105558260a051611efb565b516024604051809481936331a9108f60e11b835260048301525afa90811561083a57848d8f92600094610f1c575b50610e8291906001600160a01b0390610da5908390611efb565b5193803b1561085e57600092836064926040519788958694632142170760e11b865260018060a01b03166004860152602485015260448401525af191821561083a57600092839283928392610f0d575b50610edd868c611efb565b519082908215610f03575b6001600160a01b031690f1610ce1576040513d6000823e3d90fd5b6108fc9150610ee8565b610f1690611a2e565b38610ed2565b610e8292919450610f449060203d602011610f4c575b610f3c8183611a72565b8101906120a2565b939091610e68565b503d610f32565b60405162461bcd60e51b815260206004820152601060248201526f4974656d206e6f742073656c6c696e6760801b6044820152606490fd5b610fa4915060203d602011610f4c57610f3c8183611a72565b8d610d39565b005b60405162461bcd60e51b815260206004820152601360248201527276616c756520213d2073756d2076616c75657360681b6044820152606490fd5b50825189511461026a565b508151835114610264565b50845182511461025e565b508751855114610258565b508351885114610252565b506080515184511461024c565b5089516080515114610246565b5085518a5114610240565b905086511438610239565b61010036600319011261085e57611063611a18565b6001600160401b039060243582811161085e57611084903690600401611aaa565b9060443583811161085e5761109d903690600401611bfc565b9060643584811161085e576110b6903690600401611b6a565b9060843585811161085e576110cf903690600401611b6a565b9160a43586811161085e576110e8903690600401611bfc565b9560c43581811161085e57611101903690600401611bfc565b9060e43590811161085e5761111a903690600401611b6a565b958051865180911490816113a9575b508061139e575b80611393575b61114290979297611ebd565b6001600160a01b039160005b8251811015610faa576111a16020856111678487611efb565b5116611173848c611efb565b51604051627eeac760e11b81526001600160a01b039092166004830152602482015291829081906044820190565b0381888b165afa801561083a5760009061135f575b6111c591506102a7838d611efb565b6111cf828b611efb565b511061085e576111f98960206103bd610379610373866111f38f8261037391611efb565b95611efb565b604051611216602082816103f88183019687815193849201611c5a565b5190206112238284611efb565b51604051611241602082816103f88183019687815193849201611c5a565b5190200361132357808a868a6112c4846112bd81610d888f996112b6818f8f826112ae918e611275838f8161074d91611efb565b51856112818585611efb565b5116917f8effabb75f28a28d3080db6e33fd63bab02725de42cda7b8fd1132dc90d0e8c8600080a4611efb565b511698611efb565b5197611efb565b5194611efb565b5192888b163b1561085e576000936112f191604051978895869563af72bd9160e01b875260048701611f9d565b038183898c165af191821561083a5761130f92611314575b50611d0e565b61114e565b61131d90611a2e565b8b611309565b60405162461bcd60e51b815260206004820152601460248201527339bab838363c903430b9b41034b99032b93937b960611b6044820152606490fd5b506020813d60201161138b575b8161137960209383611a72565b8101031261085e576111c590516111b6565b3d915061136c565b508451835114611136565b508751855114611130565b905088511489611129565b3461085e57604036600319011261085e576113cd611a18565b6024359060018060a01b03809116906040516331a9108f60e11b81528360048201526020918282602481875afa90811561083a5761141692600092611491575b50163314612105565b82600052600281526040600020541561145f576002908360005252600060408120557fa5700e6e137f0686a6aeb9ae573396b3ce22f929686865812dbda871081193b9600080a3005b6064906040519062461bcd60e51b82526004820152600b60248201526a6e6f742073656c6c696e6760a81b6044820152fd5b6114a9919250843d8611610f4c57610f3c8183611a72565b908661140d565b3461085e57606036600319011261085e576114c9611a18565b6024356044359160018060a01b0380911690604051906331a9108f60e11b8252836004830152602082602481865afa90811561083a57611513926000926115555750163314612105565b61151e83151561215d565b816000526002602052826040600020557fcf5c0bd1db1bda5f264be4f84ee9dcd59f04653ca22197bbf710f2c3bb2b7c76600080a4005b6114a991925060203d8111610f4c57610f3c8183611a72565b3461085e57600036600319011261085e576040516000805461158f81611ca2565b8084529060019081811690811561162a57506001146115d1575b6115cd846115b981860382611a72565b604051918291602083526020830190611c7d565b0390f35b600080805292507f290decd9548b62a8d60345a988386fc84ba6bc95484008f6362f93160ef3e5635b8284106116125750505081016020016115b9826115a9565b805460208587018101919091529093019281016115fa565b60ff191660208087019190915292151560051b850190920192506115b991508390506115a9565b3461085e57602036600319011261085e576004356001600160401b03811161085e573660238201121561085e576115b96103d66115cd923690602481600401359101611b33565b3461085e57606036600319011261085e576001600160401b0360043581811161085e576116c9903690600401611aaa565b90602490813581811161085e576116e4903690600401611bfc565b9060443590811161085e576116fd903690600401611bfc565b611714845183518091149081611828575b50611ebd565b60005b8451811015610faa576001600160a01b0390816117348288611efb565b5116916117418286611efb565b516040519384916331a9108f60e11b83526004830152818860209384935afa93841561083a57611806946117819160009161180b575b5083163314612105565b61179661178e8487611efb565b51151561215d565b60026117a28487611efb565b51916117ae8589611efb565b51600052526040600020556117c38288611efb565b51166117cf8286611efb565b516117da8386611efb565b51917fcf5c0bd1db1bda5f264be4f84ee9dcd59f04653ca22197bbf710f2c3bb2b7c76600080a4611d0e565b611717565b6118229150833d8511610f4c57610f3c8183611a72565b8a611777565b90508251148661170e565b3461085e57608036600319011261085e5761184c611a18565b6001600160401b036024803582811161085e5761186d903690600401611aaa565b91604493843582811161085e57611888903690600401611b6a565b9160643590811161085e576118a1903690600401611bfc565b906118bc855184518091149081611a0d575b50959295611ebd565b6001600160a01b039081169160005b8151811015610faa5760405163e00dd16160e01b81526020908181600481895afa90811561083a576000916119e0575b50600181018091116119cb57857fa491b2906955de9b9a0a0e6d8d87c1688f5207237fe435504138a6b00e7e92e86040611935868d611efb565b519488611942888a611efb565b5116825191338352820152a4826119598284611efb565b5116906119668187611efb565b5191853b1561085e5761199c92600091604051948592839263d0def52160e01b8452600484015260408c8401528d830190611c7d565b038183895af191821561083a576119b7926119bc5750611d0e565b6118cb565b6119c590611a2e565b89611309565b87634e487b7160e01b60005260116004526000fd5b90508181813d8311611a06575b6119f78183611a72565b8101031261085e57518a6118fb565b503d6119ed565b9050835114886118b3565b600435906001600160a01b038216820361085e57565b6001600160401b038111611a4157604052565b634e487b7160e01b600052604160045260246000fd5b604081019081106001600160401b03821117611a4157604052565b90601f801991011681019081106001600160401b03821117611a4157604052565b6001600160401b038111611a415760051b60200190565b81601f8201121561085e57803591611ac183611a93565b92611acf6040519485611a72565b808452602092838086019260051b82010192831161085e578301905b828210611af9575050505090565b81356001600160a01b038116810361085e578152908301908301611aeb565b6001600160401b038111611a4157601f01601f191660200190565b929192611b3f82611b18565b91611b4d6040519384611a72565b82948184528183011161085e578281602093846000960137010152565b81601f8201121561085e57803590611b8182611a93565b92604092611b9184519586611a72565b808552602093848087019260051b8501019383851161085e57858101925b858410611bc0575050505050505090565b83356001600160401b03811161085e57820185603f8201121561085e578791611bf187838786809601359101611b33565b815201930192611baf565b81601f8201121561085e57803591611c1383611a93565b92611c216040519485611a72565b808452602092838086019260051b82010192831161085e578301905b828210611c4b575050505090565b81358152908301908301611c3d565b60005b838110611c6d5750506000910152565b8181015183820152602001611c5d565b90602091611c9681518092818552858086019101611c5a565b601f01601f1916010190565b90600182811c92168015611cd2575b6020831014611cbc57565b634e487b7160e01b600052602260045260246000fd5b91607f1691611cb1565b90611ce682611b18565b611cf36040519182611a72565b8281528092611d04601f1991611b18565b0190602036910137565b6000198114611d1d5760010190565b634e487b7160e01b600052601160045260246000fd5b908151811015611d44570160200190565b634e487b7160e01b600052603260045260246000fd5b91908201809211611d1d57565b8051600181811b600292808204841490151715611d1d57611d888291611cdc565b93604051611d9581611a57565b601081526f181899199a1a9b1b9c1cb0b131b232b360811b60208201526000925b611dfa575b505050506022611df791604051809461060f60f31b6020830152611de88151809260208786019101611c5a565b81010390810184520182611a72565b90565b8151831015611eb857611e0d8383611d33565b519281518015611ea25760f8946001600160f81b0319918291611e349190881c0485611d33565b51169482871b95838704891484151715611d1d5760001a611e55878b611d33565b53611e608386611d33565b51901c83518015611ea257611e76910684611d33565b511690858501809511611d1d578594611e96611e9c9360001a918a611d33565b53611d0e565b92611db6565b634e487b7160e01b600052601260045260246000fd5b611dbb565b15611ec457565b60405162461bcd60e51b815260206004820152600f60248201526e6c656e677468206e6f742073616d6560881b6044820152606490fd5b8051821015611d445760209160051b010190565b90600091600190815491611f2283611ca2565b92818116908115611f8a5750600114611f3a57505050565b8091929394506000527fb10e2d527612073b26eecdfd717e6a320cf44b4afac2b0732d9fcbe2b7fa0cf6906000915b848310611f77575050500190565b8181602092548587015201920191611f69565b60ff191683525050811515909102019150565b95949390608093611fda93611fcc9260018060a01b03168952602089015260a0604089015260a0880190611c7d565b908682036060880152611c7d565b930152565b91908203918211611d1d57565b80156120845780816000925b61207057508061200783611cdc565b92915b61201357505090565b6000198201918211611d1d5781600a80830492818402918483041484151715611d1d5761204360ff928392611fdf565b16603001908111611d1d5760f81b6001600160f81b03191660001a906120699085611d33565b538061200a565b9161207c600a91611d0e565b920480611ff8565b5060405161209181611a57565b60018152600360fc1b602082015290565b9081602091031261085e57516001600160a01b038116810361085e5790565b156120c857565b60405162461bcd60e51b815260206004820152601560248201527439bab838363c903b30b63ab29034b99032b93937b960591b6044820152606490fd5b1561210c57565b60405162461bcd60e51b8152602060048201526024808201527f5065726d697373696f6e2064656e6965643a6e66742069742773206e6f7420796044820152636f75727360e01b6064820152608490fd5b1561216457565b60405162461bcd60e51b815260206004820152601a60248201527f7072696365206d757374206d6f7265207468616e2074686520300000000000006044820152606490fdfea26469706673582212203193a8457460f6be6c565f9867da1c7b86b9cd06f1531a9a37d529e0627e8daf64736f6c63430008110033","opcodes":"PUSH1 0x80 PUSH1 0x40 MSTORE CALLVALUE PUSH3 0x319 JUMPI PUSH3 0x2596 DUP1 CODESIZE SUB DUP1 PUSH3 0x1D DUP2 PUSH3 0x31E JUMP JUMPDEST SWAP3 DUP4 CODECOPY DUP2 ADD SWAP1 PUSH1 0x40 DUP2 DUP4 SUB SLT PUSH3 0x319 JUMPI DUP1 MLOAD PUSH1 0x1 PUSH1 0x1 PUSH1 0x40 SHL SUB SWAP1 DUP2 DUP2 GT PUSH3 0x319 JUMPI DUP4 PUSH3 0x4F SWAP2 DUP5 ADD PUSH3 0x344 JUMP JUMPDEST SWAP2 PUSH1 0x20 SWAP4 DUP5 DUP3 ADD MLOAD DUP4 DUP2 GT PUSH3 0x319 JUMPI PUSH3 0x6B SWAP3 ADD PUSH3 0x344 JUMP JUMPDEST DUP3 MLOAD SWAP1 DUP3 DUP3 GT PUSH3 0x303 JUMPI PUSH1 0x0 DUP1 SLOAD SWAP3 PUSH1 0x1 SWAP6 DUP7 DUP6 DUP2 SHR SWAP6 AND DUP1 ISZERO PUSH3 0x2F8 JUMPI JUMPDEST DUP9 DUP7 LT EQ PUSH3 0x2E4 JUMPI DUP2 SWAP1 PUSH1 0x1F SWAP6 DUP7 DUP2 GT PUSH3 0x291 JUMPI JUMPDEST POP DUP9 SWAP1 DUP7 DUP4 GT PUSH1 0x1 EQ PUSH3 0x22D JUMPI DUP5 SWAP3 PUSH3 0x221 JUMPI JUMPDEST POP POP PUSH1 0x0 NOT PUSH1 0x3 DUP4 SWAP1 SHL SHR NOT AND SWAP1 DUP7 SHL OR DUP2 SSTORE JUMPDEST DUP2 MLOAD SWAP4 DUP5 GT PUSH3 0x20D JUMPI DUP5 SLOAD DUP6 DUP2 DUP2 SHR SWAP2 AND DUP1 ISZERO PUSH3 0x202 JUMPI JUMPDEST DUP8 DUP3 LT EQ PUSH3 0x1EE JUMPI DUP4 DUP2 GT PUSH3 0x1A6 JUMPI JUMPDEST POP DUP6 SWAP3 DUP5 GT PUSH1 0x1 EQ PUSH3 0x141 JUMPI DUP4 SWAP5 SWAP6 POP SWAP3 PUSH3 0x135 JUMPI JUMPDEST POP POP PUSH1 0x0 NOT PUSH1 0x3 DUP4 SWAP1 SHL SHR NOT AND SWAP1 DUP3 SHL OR SWAP1 SSTORE JUMPDEST PUSH1 0x40 MLOAD PUSH2 0x21DF SWAP1 DUP2 PUSH3 0x3B7 DUP3 CODECOPY RETURN JUMPDEST ADD MLOAD SWAP1 POP CODESIZE DUP1 PUSH3 0x111 JUMP JUMPDEST SWAP2 SWAP1 PUSH1 0x1F NOT DUP5 AND SWAP6 DUP6 DUP5 MSTORE DUP1 DUP5 KECCAK256 SWAP4 SWAP1 JUMPDEST DUP8 DUP3 LT PUSH3 0x18E JUMPI POP POP DUP4 DUP6 SWAP7 LT PUSH3 0x174 JUMPI JUMPDEST POP POP POP DUP2 SHL ADD SWAP1 SSTORE PUSH3 0x125 JUMP JUMPDEST ADD MLOAD PUSH1 0x0 NOT PUSH1 0xF8 DUP5 PUSH1 0x3 SHL AND SHR NOT AND SWAP1 SSTORE CODESIZE DUP1 DUP1 PUSH3 0x166 JUMP JUMPDEST DUP1 DUP8 DUP6 SWAP7 DUP3 SWAP5 SWAP7 DUP7 ADD MLOAD DUP2 SSTORE ADD SWAP6 ADD SWAP4 ADD SWAP1 PUSH3 0x152 JUMP JUMPDEST DUP6 DUP3 MSTORE DUP7 DUP3 KECCAK256 DUP5 DUP1 DUP8 ADD PUSH1 0x5 SHR DUP3 ADD SWAP3 DUP10 DUP9 LT PUSH3 0x1E4 JUMPI JUMPDEST ADD PUSH1 0x5 SHR ADD SWAP1 DUP7 SWAP1 JUMPDEST DUP3 DUP2 LT PUSH3 0x1D8 JUMPI POP POP PUSH3 0xF9 JUMP JUMPDEST DUP4 DUP2 SSTORE ADD DUP7 SWAP1 PUSH3 0x1C8 JUMP JUMPDEST SWAP3 POP DUP2 SWAP3 PUSH3 0x1BF JUMP JUMPDEST PUSH4 0x4E487B71 PUSH1 0xE0 SHL DUP3 MSTORE PUSH1 0x22 PUSH1 0x4 MSTORE PUSH1 0x24 DUP3 REVERT JUMPDEST SWAP1 PUSH1 0x7F AND SWAP1 PUSH3 0xE7 JUMP JUMPDEST PUSH4 0x4E487B71 PUSH1 0xE0 SHL DUP2 MSTORE PUSH1 0x41 PUSH1 0x4 MSTORE PUSH1 0x24 SWAP1 REVERT JUMPDEST ADD MLOAD SWAP1 POP CODESIZE DUP1 PUSH3 0xB9 JUMP JUMPDEST DUP5 DUP1 MSTORE DUP10 DUP6 KECCAK256 DUP10 SWAP5 POP SWAP2 SWAP1 PUSH1 0x1F NOT DUP5 AND DUP7 JUMPDEST DUP13 DUP3 DUP3 LT PUSH3 0x27A JUMPI POP POP DUP5 GT PUSH3 0x260 JUMPI JUMPDEST POP POP POP DUP2 SHL ADD DUP2 SSTORE PUSH3 0xCD JUMP JUMPDEST ADD MLOAD PUSH1 0x0 NOT PUSH1 0xF8 DUP5 PUSH1 0x3 SHL AND SHR NOT AND SWAP1 SSTORE CODESIZE DUP1 DUP1 PUSH3 0x252 JUMP JUMPDEST DUP4 DUP6 ADD MLOAD DUP7 SSTORE DUP13 SWAP8 SWAP1 SWAP6 ADD SWAP5 SWAP4 DUP5 ADD SWAP4 ADD PUSH3 0x23F JUMP JUMPDEST SWAP1 SWAP2 POP DUP4 DUP1 MSTORE DUP9 DUP5 KECCAK256 DUP7 DUP1 DUP6 ADD PUSH1 0x5 SHR DUP3 ADD SWAP3 DUP12 DUP7 LT PUSH3 0x2DA JUMPI JUMPDEST SWAP2 DUP11 SWAP2 DUP7 SWAP6 SWAP5 SWAP4 ADD PUSH1 0x5 SHR ADD SWAP2 JUMPDEST DUP3 DUP2 LT PUSH3 0x2CB JUMPI POP POP PUSH3 0xA3 JUMP JUMPDEST DUP7 DUP2 SSTORE DUP6 SWAP5 POP DUP11 SWAP2 ADD PUSH3 0x2BB JUMP JUMPDEST SWAP3 POP DUP2 SWAP3 PUSH3 0x2AD JUMP JUMPDEST PUSH4 0x4E487B71 PUSH1 0xE0 SHL DUP4 MSTORE PUSH1 0x22 PUSH1 0x4 MSTORE PUSH1 0x24 DUP4 REVERT JUMPDEST SWAP5 PUSH1 0x7F AND SWAP5 PUSH3 0x8C JUMP JUMPDEST PUSH4 0x4E487B71 PUSH1 0xE0 SHL PUSH1 0x0 MSTORE PUSH1 0x41 PUSH1 0x4 MSTORE PUSH1 0x24 PUSH1 0x0 REVERT JUMPDEST PUSH1 0x0 DUP1 REVERT JUMPDEST PUSH1 0x40 MLOAD SWAP2 SWAP1 PUSH1 0x1F ADD PUSH1 0x1F NOT AND DUP3 ADD PUSH1 0x1 PUSH1 0x1 PUSH1 0x40 SHL SUB DUP2 GT DUP4 DUP3 LT OR PUSH3 0x303 JUMPI PUSH1 0x40 MSTORE JUMP JUMPDEST SWAP2 SWAP1 DUP1 PUSH1 0x1F DUP5 ADD SLT ISZERO PUSH3 0x319 JUMPI DUP3 MLOAD PUSH1 0x1 PUSH1 0x1 PUSH1 0x40 SHL SUB DUP2 GT PUSH3 0x303 JUMPI PUSH1 0x20 SWAP1 PUSH3 0x37A PUSH1 0x1F DUP3 ADD PUSH1 0x1F NOT AND DUP4 ADD PUSH3 0x31E JUMP JUMPDEST SWAP3 DUP2 DUP5 MSTORE DUP3 DUP3 DUP8 ADD ADD GT PUSH3 0x319 JUMPI PUSH1 0x0 JUMPDEST DUP2 DUP2 LT PUSH3 0x3A2 JUMPI POP DUP3 PUSH1 0x0 SWAP4 SWAP5 SWAP6 POP ADD ADD MSTORE SWAP1 JUMP JUMPDEST DUP6 DUP2 ADD DUP4 ADD MLOAD DUP5 DUP3 ADD DUP5 ADD MSTORE DUP3 ADD PUSH3 0x38C JUMP INVALID PUSH1 0xC0 PUSH1 0x40 MSTORE PUSH1 0x4 CALLDATASIZE LT ISZERO PUSH2 0x12 JUMPI PUSH1 0x0 DUP1 REVERT JUMPDEST PUSH1 0x0 CALLDATALOAD PUSH1 0xE0 SHR DUP1 PUSH4 0x1546F67F EQ PUSH2 0x1833 JUMPI DUP1 PUSH4 0x3EDBED19 EQ PUSH2 0x1698 JUMPI DUP1 PUSH4 0x451D89FA EQ PUSH2 0x1651 JUMPI DUP1 PUSH4 0x54FD4D50 EQ PUSH2 0x156E JUMPI DUP1 PUSH4 0x6A272462 EQ PUSH2 0x14B0 JUMPI DUP1 PUSH4 0xAA6ECB55 EQ PUSH2 0x13B4 JUMPI DUP1 PUSH4 0xCE73136F EQ PUSH2 0x104E JUMPI PUSH4 0xDF36914A EQ PUSH2 0x74 JUMPI PUSH1 0x0 DUP1 REVERT JUMPDEST PUSH2 0x1A0 CALLDATASIZE PUSH1 0x3 NOT ADD SLT PUSH2 0x85E JUMPI PUSH1 0x4 CALLDATALOAD PUSH1 0x1 PUSH1 0x1 PUSH1 0x40 SHL SUB DUP2 GT PUSH2 0x85E JUMPI PUSH2 0xA0 SWAP1 CALLDATASIZE SWAP1 PUSH1 0x4 ADD PUSH2 0x1AAA JUMP JUMPDEST PUSH1 0xA0 MSTORE PUSH1 0x24 CALLDATALOAD PUSH1 0x1 PUSH1 0x1 PUSH1 0x40 SHL SUB DUP2 GT PUSH2 0x85E JUMPI PUSH2 0xC2 SWAP1 CALLDATASIZE SWAP1 PUSH1 0x4 ADD PUSH2 0x1BFC JUMP JUMPDEST PUSH1 0x44 CALLDATALOAD PUSH1 0x1 PUSH1 0x1 PUSH1 0x40 SHL SUB DUP2 GT PUSH2 0x85E JUMPI PUSH2 0xE1 SWAP1 CALLDATASIZE SWAP1 PUSH1 0x4 ADD PUSH2 0x1B6A JUMP JUMPDEST SWAP1 PUSH1 0x64 CALLDATALOAD PUSH1 0x1 PUSH1 0x1 PUSH1 0x40 SHL SUB DUP2 GT PUSH2 0x85E JUMPI PUSH2 0x101 SWAP1 CALLDATASIZE SWAP1 PUSH1 0x4 ADD PUSH2 0x1B6A JUMP JUMPDEST SWAP1 PUSH1 0x84 CALLDATALOAD PUSH1 0x1 PUSH1 0x1 PUSH1 0x40 SHL SUB DUP2 GT PUSH2 0x85E JUMPI PUSH2 0x121 SWAP1 CALLDATASIZE SWAP1 PUSH1 0x4 ADD PUSH2 0x1AAA JUMP JUMPDEST PUSH1 0x80 MSTORE PUSH1 0xA4 CALLDATALOAD PUSH1 0x1 PUSH1 0x1 PUSH1 0x40 SHL SUB DUP2 GT PUSH2 0x85E JUMPI PUSH2 0x143 SWAP1 CALLDATASIZE SWAP1 PUSH1 0x4 ADD PUSH2 0x1AAA JUMP JUMPDEST SWAP1 PUSH1 0x1 PUSH1 0x1 PUSH1 0x40 SHL SUB PUSH1 0xC4 CALLDATALOAD GT PUSH2 0x85E JUMPI PUSH2 0x163 CALLDATASIZE PUSH1 0xC4 CALLDATALOAD PUSH1 0x4 ADD PUSH2 0x1BFC JUMP JUMPDEST SWAP1 PUSH1 0x1 PUSH1 0x1 PUSH1 0x40 SHL SUB PUSH1 0xE4 CALLDATALOAD GT PUSH2 0x85E JUMPI PUSH2 0x183 CALLDATASIZE PUSH1 0xE4 CALLDATALOAD PUSH1 0x4 ADD PUSH2 0x1BFC JUMP JUMPDEST SWAP5 PUSH2 0x104 CALLDATALOAD PUSH1 0x1 PUSH1 0x1 PUSH1 0x40 SHL SUB DUP2 GT PUSH2 0x85E JUMPI PUSH2 0x1A4 SWAP1 CALLDATASIZE SWAP1 PUSH1 0x4 ADD PUSH2 0x1B6A JUMP JUMPDEST SWAP6 PUSH2 0x124 CALLDATALOAD PUSH1 0x1 PUSH1 0x1 PUSH1 0x40 SHL SUB DUP2 GT PUSH2 0x85E JUMPI PUSH2 0x1C5 SWAP1 CALLDATASIZE SWAP1 PUSH1 0x4 ADD PUSH2 0x1B6A JUMP JUMPDEST SWAP5 PUSH2 0x144 CALLDATALOAD PUSH1 0x1 PUSH1 0x1 PUSH1 0x40 SHL SUB DUP2 GT PUSH2 0x85E JUMPI PUSH2 0x1E6 SWAP1 CALLDATASIZE SWAP1 PUSH1 0x4 ADD PUSH2 0x1BFC JUMP JUMPDEST SWAP6 PUSH2 0x164 CALLDATALOAD PUSH1 0x1 PUSH1 0x1 PUSH1 0x40 SHL SUB DUP2 GT PUSH2 0x85E JUMPI PUSH2 0x207 SWAP1 CALLDATASIZE SWAP1 PUSH1 0x4 ADD PUSH2 0x1BFC JUMP JUMPDEST SWAP9 PUSH2 0x184 CALLDATALOAD PUSH1 0x1 PUSH1 0x1 PUSH1 0x40 SHL SUB DUP2 GT PUSH2 0x85E JUMPI PUSH2 0x228 SWAP1 CALLDATASIZE SWAP1 PUSH1 0x4 ADD PUSH2 0x1B6A JUMP JUMPDEST SWAP10 PUSH1 0xA0 MLOAD MLOAD DUP8 MLOAD DUP1 SWAP2 EQ SWAP1 DUP2 PUSH2 0x1043 JUMPI JUMPDEST POP DUP1 PUSH2 0x1038 JUMPI JUMPDEST DUP1 PUSH2 0x102B JUMPI JUMPDEST DUP1 PUSH2 0x101E JUMPI JUMPDEST DUP1 PUSH2 0x1013 JUMPI JUMPDEST DUP1 PUSH2 0x1008 JUMPI JUMPDEST DUP1 PUSH2 0xFFD JUMPI JUMPDEST DUP1 PUSH2 0xFF2 JUMPI JUMPDEST DUP1 PUSH2 0xFE7 JUMPI JUMPDEST PUSH2 0x273 SWAP1 PUSH2 0x1EBD JUMP JUMPDEST PUSH1 0x0 SWAP11 DUP12 JUMPDEST DUP11 MLOAD DUP14 LT ISZERO PUSH2 0x321 JUMPI DUP13 DUP12 PUSH1 0x1 PUSH2 0x28F DUP4 DUP14 PUSH2 0x1EFB JUMP JUMPDEST MLOAD EQ PUSH2 0x2BA JUMPI JUMPDEST SWAP2 PUSH2 0x2A7 PUSH2 0x2AE SWAP3 PUSH2 0x2B4 SWAP5 PUSH2 0x1EFB JUMP JUMPDEST MLOAD SWAP1 PUSH2 0x1D5A JUMP JUMPDEST SWAP13 PUSH2 0x1D0E JUMP JUMPDEST SWAP12 PUSH2 0x278 JUMP JUMPDEST PUSH2 0x2C7 DUP3 PUSH2 0x2CF SWAP3 PUSH2 0x1EFB JUMP JUMPDEST MLOAD SWAP2 DUP13 PUSH2 0x1EFB JUMP JUMPDEST MLOAD PUSH1 0x0 MSTORE PUSH1 0x2 PUSH1 0x20 MSTORE PUSH1 0x40 PUSH1 0x0 KECCAK256 SLOAD SUB PUSH2 0x2EA JUMPI DUP13 DUP12 PUSH2 0x296 JUMP JUMPDEST PUSH1 0x40 MLOAD PUSH3 0x461BCD PUSH1 0xE5 SHL DUP2 MSTORE PUSH1 0x20 PUSH1 0x4 DUP3 ADD MSTORE PUSH1 0xF PUSH1 0x24 DUP3 ADD MSTORE PUSH15 0x496E636F7272656374207072696365 PUSH1 0x88 SHL PUSH1 0x44 DUP3 ADD MSTORE PUSH1 0x64 SWAP1 REVERT JUMPDEST DUP12 SWAP1 SWAP11 SWAP5 SWAP7 SWAP10 SWAP9 SWAP6 SWAP8 SWAP11 CALLVALUE SUB PUSH2 0xFAC JUMPI PUSH1 0x0 JUMPDEST PUSH1 0xA0 MLOAD MLOAD DUP2 LT ISZERO PUSH2 0xFAA JUMPI DUP1 DUP13 PUSH1 0x2 PUSH2 0x34D DUP4 DUP12 PUSH2 0x1EFB JUMP JUMPDEST MLOAD SUB PUSH2 0xCCD JUMPI PUSH2 0x3DB SWAP2 PUSH2 0x360 SWAP2 PUSH2 0x1EFB JUMP JUMPDEST MLOAD PUSH1 0x20 PUSH2 0x3BD PUSH2 0x379 PUSH2 0x373 DUP7 DUP13 PUSH2 0x1EFB JUMP JUMPDEST MLOAD PUSH2 0x1FEC JUMP JUMPDEST PUSH1 0x40 MLOAD SWAP3 DUP4 SWAP2 PUSH2 0x3AE DUP3 DUP1 DUP6 ADD SWAP8 PUSH2 0x3A0 PUSH2 0x393 DUP11 PUSH2 0x1F0F JUMP JUMPDEST SWAP2 DUP3 DUP2 MLOAD SWAP5 DUP6 SWAP3 ADD PUSH2 0x1C5A JUMP JUMPDEST ADD SWAP2 DUP3 DUP2 MLOAD SWAP5 DUP6 SWAP3 ADD PUSH2 0x1C5A JUMP JUMPDEST ADD SUB PUSH1 0x1F NOT DUP2 ADD DUP4 MSTORE DUP3 PUSH2 0x1A72 JUMP JUMPDEST MLOAD SWAP1 KECCAK256 PUSH1 0x40 MLOAD SWAP1 PUSH1 0x20 DUP3 ADD MSTORE PUSH1 0x20 DUP2 MSTORE PUSH2 0x3D6 DUP2 PUSH2 0x1A57 JUMP JUMPDEST PUSH2 0x1D67 JUMP JUMPDEST PUSH1 0x40 MLOAD PUSH2 0x405 PUSH1 0x20 DUP3 DUP2 PUSH2 0x3F8 DUP2 DUP4 ADD SWAP7 DUP8 DUP2 MLOAD SWAP4 DUP5 SWAP3 ADD PUSH2 0x1C5A JUMP JUMPDEST DUP2 ADD SUB DUP1 DUP5 MSTORE ADD DUP3 PUSH2 0x1A72 JUMP JUMPDEST MLOAD SWAP1 KECCAK256 PUSH2 0x412 DUP3 DUP5 PUSH2 0x1EFB JUMP JUMPDEST MLOAD PUSH1 0x40 MLOAD PUSH2 0x430 PUSH1 0x20 DUP3 DUP2 PUSH2 0x3F8 DUP2 DUP4 ADD SWAP7 DUP8 DUP2 MLOAD SWAP4 DUP5 SWAP3 ADD PUSH2 0x1C5A JUMP JUMPDEST MLOAD SWAP1 KECCAK256 SUB PUSH2 0xC92 JUMPI PUSH1 0xA0 MLOAD PUSH1 0x1 PUSH1 0x1 PUSH1 0xA0 SHL SUB SWAP1 PUSH2 0x44F SWAP1 DUP4 SWAP1 PUSH2 0x1EFB JUMP JUMPDEST MLOAD AND PUSH1 0x0 PUSH2 0x45D DUP4 DUP14 PUSH2 0x1EFB JUMP JUMPDEST MLOAD PUSH1 0x24 PUSH1 0x40 MLOAD DUP1 SWAP5 DUP2 SWAP4 PUSH4 0x3A24D07 PUSH1 0xE2 SHL DUP4 MSTORE PUSH1 0x4 DUP4 ADD MSTORE GAS STATICCALL DUP1 ISZERO PUSH2 0x83A JUMPI PUSH1 0x0 SWAP1 PUSH2 0xBF7 JUMPI JUMPDEST PUSH32 0xC5D2460186F7233C927E7DB2DCC703C0E500B653CA82273B7BFAD8045D85A470 SWAP2 POP PUSH1 0x40 MLOAD PUSH2 0x4C6 PUSH1 0x20 DUP3 DUP2 PUSH2 0x3F8 DUP2 DUP4 ADD SWAP7 DUP8 DUP2 MLOAD SWAP4 DUP5 SWAP3 ADD PUSH2 0x1C5A JUMP JUMPDEST MLOAD SWAP1 KECCAK256 SUB PUSH2 0x8AB JUMPI PUSH2 0x4D8 DUP2 DUP12 PUSH2 0x1EFB JUMP JUMPDEST MLOAD PUSH2 0x4E3 DUP3 DUP14 PUSH2 0x1EFB JUMP JUMPDEST MLOAD PUSH1 0x80 MLOAD PUSH1 0x1 PUSH1 0x1 PUSH1 0xA0 SHL SUB SWAP1 PUSH2 0x4FB SWAP1 DUP6 SWAP1 PUSH2 0x1EFB JUMP JUMPDEST MLOAD AND SWAP2 PUSH32 0x8EFFABB75F28A28D3080DB6E33FD63BAB02725DE42CDA7B8FD1132DC90D0E8C8 PUSH1 0x0 DUP1 LOG4 PUSH2 0x58F PUSH1 0x20 DUP12 PUSH1 0x1 DUP1 PUSH1 0xA0 SHL SUB PUSH2 0x53C DUP6 PUSH1 0xA0 MLOAD PUSH2 0x1EFB JUMP JUMPDEST MLOAD AND PUSH2 0x55D DUP6 PUSH1 0x1 DUP1 PUSH1 0xA0 SHL SUB PUSH2 0x555 DUP3 PUSH1 0x80 MLOAD PUSH2 0x1EFB JUMP JUMPDEST MLOAD AND SWAP4 PUSH2 0x1EFB JUMP JUMPDEST MLOAD PUSH1 0x40 MLOAD PUSH3 0x7EEAC7 PUSH1 0xE1 SHL DUP2 MSTORE PUSH1 0x1 PUSH1 0x1 PUSH1 0xA0 SHL SUB SWAP1 SWAP4 AND PUSH1 0x4 DUP5 ADD MSTORE PUSH1 0x24 DUP4 ADD MSTORE SWAP1 SWAP3 DUP4 SWAP2 SWAP1 DUP3 SWAP1 DUP2 SWAP1 PUSH1 0x44 DUP3 ADD SWAP1 JUMP JUMPDEST SUB SWAP2 GAS STATICCALL DUP1 ISZERO PUSH2 0x83A JUMPI DUP13 DUP4 SWAP3 PUSH1 0x0 SWAP3 PUSH2 0x872 JUMPI JUMPDEST POP PUSH2 0x5B2 SWAP3 PUSH2 0x2A7 SWAP2 PUSH2 0x1EFB JUMP JUMPDEST PUSH2 0x5BC DUP3 DUP7 PUSH2 0x1EFB JUMP JUMPDEST MLOAD LT PUSH2 0x85E JUMPI PUSH2 0x638 PUSH2 0x5E7 PUSH2 0x5D5 PUSH2 0x373 DUP5 DUP15 PUSH2 0x1EFB JUMP JUMPDEST PUSH1 0x20 PUSH2 0x3BD PUSH2 0x379 PUSH2 0x373 DUP8 DUP12 PUSH2 0x1EFB JUMP JUMPDEST PUSH1 0x40 MLOAD PUSH2 0x604 PUSH1 0x20 DUP3 DUP2 PUSH2 0x3F8 DUP2 DUP4 ADD SWAP7 DUP8 DUP2 MLOAD SWAP4 DUP5 SWAP3 ADD PUSH2 0x1C5A JUMP JUMPDEST MLOAD SWAP1 KECCAK256 PUSH2 0x611 DUP4 DUP7 PUSH2 0x1EFB JUMP JUMPDEST MLOAD PUSH1 0x40 MLOAD PUSH2 0x62F PUSH1 0x20 DUP3 DUP2 PUSH2 0x3F8 DUP2 DUP4 ADD SWAP7 DUP8 DUP2 MLOAD SWAP4 DUP5 SWAP3 ADD PUSH2 0x1C5A JUMP JUMPDEST MLOAD SWAP1 KECCAK256 EQ PUSH2 0x20C1 JUMP JUMPDEST DUP11 DUP11 PUSH1 0x1 DUP1 PUSH1 0xA0 SHL SUB PUSH2 0x64D DUP5 PUSH1 0xA0 MLOAD PUSH2 0x1EFB JUMP JUMPDEST MLOAD AND PUSH2 0x666 DUP5 PUSH1 0x1 DUP1 PUSH1 0xA0 SHL SUB PUSH2 0x555 DUP3 PUSH1 0x80 MLOAD PUSH2 0x1EFB JUMP JUMPDEST MLOAD SWAP1 PUSH2 0x672 DUP6 DUP14 PUSH2 0x1EFB JUMP JUMPDEST MLOAD SWAP2 PUSH2 0x689 DUP7 PUSH2 0x682 DUP2 DUP14 PUSH2 0x1EFB JUMP JUMPDEST MLOAD SWAP7 PUSH2 0x1EFB JUMP JUMPDEST MLOAD DUP3 EXTCODESIZE ISZERO PUSH2 0x85E JUMPI PUSH1 0x0 SWAP5 PUSH2 0x6B6 DUP7 SWAP3 PUSH1 0x40 MLOAD SWAP9 DUP10 SWAP8 DUP9 SWAP7 DUP8 SWAP6 PUSH4 0xAF72BD91 PUSH1 0xE0 SHL DUP8 MSTORE PUSH1 0x4 DUP8 ADD PUSH2 0x1F9D JUMP JUMPDEST SUB SWAP3 GAS CALL DUP1 ISZERO PUSH2 0x83A JUMPI PUSH2 0x863 JUMPI JUMPDEST POP JUMPDEST DUP11 DUP11 DUP9 PUSH32 0x5477F9965F93D173424EF8E21FAC70C586B2FDB903ECF743D7A0973E6BFE3C94 PUSH1 0x80 DUP14 PUSH2 0x711 DUP8 PUSH2 0x682 DUP2 PUSH1 0x1 DUP1 PUSH1 0xA0 SHL SUB PUSH2 0x709 DUP3 PUSH1 0xA0 MLOAD PUSH2 0x1EFB JUMP JUMPDEST MLOAD AND SWAP8 PUSH2 0x1EFB JUMP JUMPDEST MLOAD SWAP6 DUP13 PUSH2 0x754 DUP10 PUSH2 0x74D DUP2 PUSH1 0x1 DUP1 PUSH1 0xA0 SHL SUB PUSH2 0x72E DUP3 DUP11 MLOAD PUSH2 0x1EFB JUMP JUMPDEST MLOAD AND SWAP7 PUSH1 0x1 PUSH1 0x1 PUSH1 0xA0 SHL SUB SWAP1 PUSH2 0x745 SWAP1 DUP4 SWAP1 PUSH2 0x1EFB JUMP JUMPDEST MLOAD AND SWAP6 PUSH2 0x1EFB JUMP JUMPDEST MLOAD SWAP3 PUSH2 0x1EFB JUMP JUMPDEST MLOAD SWAP2 PUSH1 0x40 MLOAD SWAP4 DUP5 MSTORE PUSH1 0x20 DUP5 ADD MSTORE PUSH1 0x40 DUP4 ADD MSTORE PUSH1 0x60 DUP3 ADD MSTORE LOG4 DUP11 PUSH2 0x777 DUP3 DUP9 PUSH2 0x1EFB JUMP JUMPDEST MLOAD DUP11 DUP13 PUSH1 0x1 DUP1 PUSH1 0xA0 SHL SUB PUSH2 0x78D DUP7 PUSH1 0xA0 MLOAD PUSH2 0x1EFB JUMP JUMPDEST MLOAD AND PUSH2 0x7AA DUP7 PUSH2 0x682 DUP2 PUSH1 0x1 DUP1 PUSH1 0xA0 SHL SUB PUSH2 0x72E DUP3 PUSH1 0x80 MLOAD PUSH2 0x1EFB JUMP JUMPDEST MLOAD SWAP3 DUP2 EXTCODESIZE ISZERO PUSH2 0x85E JUMPI PUSH1 0x0 PUSH1 0xC4 SWAP3 DUP2 SWAP6 PUSH1 0x40 MLOAD SWAP9 DUP10 SWAP7 DUP8 SWAP6 PUSH4 0x79212195 PUSH1 0xE1 SHL DUP8 MSTORE PUSH1 0x4 DUP8 ADD MSTORE PUSH1 0x24 DUP7 ADD MSTORE PUSH1 0x44 DUP6 ADD MSTORE PUSH1 0x64 DUP5 ADD MSTORE PUSH1 0xA0 PUSH1 0x84 DUP5 ADD MSTORE DUP2 PUSH1 0xA4 DUP5 ADD MSTORE GAS CALL SWAP2 DUP3 ISZERO PUSH2 0x83A JUMPI PUSH1 0x0 SWAP3 DUP4 SWAP3 DUP4 SWAP3 DUP4 SWAP3 PUSH2 0x84F JUMPI JUMPDEST POP PUSH1 0x80 MLOAD PUSH1 0x1 PUSH1 0x1 PUSH1 0xA0 SHL SUB SWAP1 PUSH2 0x81C SWAP1 DUP9 SWAP1 PUSH2 0x1EFB JUMP JUMPDEST MLOAD AND DUP3 DUP3 ISZERO PUSH2 0x846 JUMPI JUMPDEST CALL ISZERO PUSH2 0x83A JUMPI PUSH2 0x835 SWAP1 PUSH2 0x1D0E JUMP JUMPDEST PUSH2 0x334 JUMP JUMPDEST PUSH1 0x40 MLOAD RETURNDATASIZE PUSH1 0x0 DUP3 RETURNDATACOPY RETURNDATASIZE SWAP1 REVERT JUMPDEST POP PUSH2 0x8FC PUSH2 0x826 JUMP JUMPDEST PUSH2 0x858 SWAP1 PUSH2 0x1A2E JUMP JUMPDEST CODESIZE PUSH2 0x804 JUMP JUMPDEST PUSH1 0x0 DUP1 REVERT JUMPDEST PUSH2 0x86C SWAP1 PUSH2 0x1A2E JUMP JUMPDEST DUP13 PUSH2 0x6C5 JUMP JUMPDEST SWAP3 POP POP POP PUSH1 0x20 DUP2 RETURNDATASIZE PUSH1 0x20 GT PUSH2 0x8A3 JUMPI JUMPDEST DUP2 PUSH2 0x88F PUSH1 0x20 SWAP4 DUP4 PUSH2 0x1A72 JUMP JUMPDEST DUP2 ADD SUB SLT PUSH2 0x85E JUMPI MLOAD DUP2 SWAP1 DUP13 PUSH2 0x5B2 PUSH2 0x5A4 JUMP JUMPDEST RETURNDATASIZE SWAP2 POP PUSH2 0x882 JUMP JUMPDEST PUSH2 0x8C4 PUSH1 0x20 DUP12 PUSH1 0x1 DUP1 PUSH1 0xA0 SHL SUB PUSH2 0x53C DUP6 PUSH1 0xA0 MLOAD PUSH2 0x1EFB JUMP JUMPDEST SUB SWAP2 GAS STATICCALL DUP1 ISZERO PUSH2 0x83A JUMPI DUP12 DUP4 SWAP2 DUP15 SWAP4 PUSH1 0x0 SWAP2 PUSH2 0xBBE JUMPI JUMPDEST POP PUSH2 0x8E6 DUP4 DUP6 PUSH2 0x1EFB JUMP JUMPDEST MLOAD GT PUSH2 0x8F5 JUMPI JUMPDEST POP POP POP PUSH2 0x6C7 JUMP JUMPDEST DUP2 PUSH2 0x906 PUSH2 0x96F SWAP4 PUSH2 0x90D SWAP4 PUSH2 0x1EFB JUMP JUMPDEST MLOAD SWAP4 PUSH2 0x1EFB JUMP JUMPDEST MLOAD PUSH1 0x20 DUP14 PUSH1 0x1 DUP1 PUSH1 0xA0 SHL SUB PUSH2 0x924 DUP8 PUSH1 0xA0 MLOAD PUSH2 0x1EFB JUMP JUMPDEST MLOAD AND PUSH2 0x93D DUP8 PUSH1 0x1 DUP1 PUSH1 0xA0 SHL SUB PUSH2 0x555 DUP3 PUSH1 0x80 MLOAD PUSH2 0x1EFB JUMP JUMPDEST MLOAD PUSH1 0x40 MLOAD PUSH3 0x7EEAC7 PUSH1 0xE1 SHL DUP2 MSTORE PUSH1 0x1 PUSH1 0x1 PUSH1 0xA0 SHL SUB SWAP1 SWAP4 AND PUSH1 0x4 DUP5 ADD MSTORE PUSH1 0x24 DUP4 ADD MSTORE SWAP1 SWAP4 DUP5 SWAP2 SWAP1 DUP3 SWAP1 DUP2 SWAP1 PUSH1 0x44 DUP3 ADD SWAP1 JUMP JUMPDEST SUB SWAP2 GAS STATICCALL SWAP1 DUP2 ISZERO PUSH2 0x83A JUMPI PUSH1 0x0 SWAP2 PUSH2 0xB88 JUMPI JUMPDEST PUSH2 0x98C SWAP3 POP PUSH2 0x1FDF JUMP JUMPDEST PUSH1 0x80 MLOAD PUSH1 0x1 PUSH1 0x1 PUSH1 0xA0 SHL SUB SWAP1 PUSH2 0x9A3 SWAP1 DUP6 SWAP1 PUSH2 0x1EFB JUMP JUMPDEST MLOAD AND SWAP2 PUSH32 0x8EFFABB75F28A28D3080DB6E33FD63BAB02725DE42CDA7B8FD1132DC90D0E8C8 PUSH1 0x0 DUP1 LOG4 PUSH2 0x9E4 PUSH1 0x20 DUP12 PUSH1 0x1 DUP1 PUSH1 0xA0 SHL SUB PUSH2 0x53C DUP6 PUSH1 0xA0 MLOAD PUSH2 0x1EFB JUMP JUMPDEST SUB SWAP2 GAS STATICCALL DUP1 ISZERO PUSH2 0x83A JUMPI DUP13 DUP4 SWAP3 PUSH1 0x0 SWAP3 PUSH2 0xB4F JUMPI JUMPDEST POP PUSH2 0xA07 SWAP3 PUSH2 0x2A7 SWAP2 PUSH2 0x1EFB JUMP JUMPDEST PUSH2 0xA11 DUP3 DUP7 PUSH2 0x1EFB JUMP JUMPDEST MLOAD LT PUSH2 0x85E JUMPI PUSH2 0xA2A PUSH2 0x5E7 PUSH2 0x5D5 PUSH2 0x373 DUP5 DUP15 PUSH2 0x1EFB JUMP JUMPDEST DUP11 DUP11 DUP7 PUSH1 0x1 DUP1 PUSH1 0xA0 SHL SUB PUSH2 0xA40 DUP6 PUSH1 0xA0 MLOAD PUSH2 0x1EFB JUMP JUMPDEST MLOAD AND DUP12 PUSH2 0xAA9 PUSH1 0x1 DUP1 PUSH1 0xA0 SHL SUB PUSH2 0xA59 DUP9 PUSH1 0x80 MLOAD PUSH2 0x1EFB JUMP JUMPDEST MLOAD AND SWAP5 PUSH1 0x20 PUSH2 0xA7B DUP10 PUSH2 0xA74 DUP2 PUSH2 0xA74 DUP2 PUSH2 0xA74 DUP2 DUP10 PUSH2 0x1EFB JUMP JUMPDEST MLOAD SWAP10 PUSH2 0x1EFB JUMP JUMPDEST MLOAD SWAP2 PUSH1 0x1 DUP1 PUSH1 0xA0 SHL SUB PUSH2 0xA90 DUP12 PUSH1 0xA0 MLOAD PUSH2 0x1EFB JUMP JUMPDEST MLOAD AND PUSH2 0x93D DUP12 PUSH1 0x1 DUP1 PUSH1 0xA0 SHL SUB PUSH2 0x555 DUP3 PUSH1 0x80 MLOAD PUSH2 0x1EFB JUMP JUMPDEST SUB SWAP2 GAS STATICCALL SWAP1 DUP2 ISZERO PUSH2 0x83A JUMPI PUSH1 0x0 SWAP2 PUSH2 0xB19 JUMPI JUMPDEST PUSH2 0xAC6 SWAP3 POP PUSH2 0x1FDF JUMP JUMPDEST DUP3 EXTCODESIZE ISZERO PUSH2 0x85E JUMPI PUSH1 0x0 SWAP5 PUSH2 0xAF2 DUP7 SWAP3 PUSH1 0x40 MLOAD SWAP9 DUP10 SWAP8 DUP9 SWAP7 DUP8 SWAP6 PUSH4 0xAF72BD91 PUSH1 0xE0 SHL DUP8 MSTORE PUSH1 0x4 DUP8 ADD PUSH2 0x1F9D JUMP JUMPDEST SUB SWAP3 GAS CALL DUP1 ISZERO PUSH2 0x83A JUMPI PUSH2 0xB0A JUMPI JUMPDEST POP DUP11 DUP2 DUP12 PUSH2 0x8ED JUMP JUMPDEST PUSH2 0xB13 SWAP1 PUSH2 0x1A2E JUMP JUMPDEST DUP13 PUSH2 0xB01 JUMP JUMPDEST SWAP1 POP PUSH1 0x20 DUP3 RETURNDATASIZE PUSH1 0x20 GT PUSH2 0xB47 JUMPI JUMPDEST DUP2 PUSH2 0xB34 PUSH1 0x20 SWAP4 DUP4 PUSH2 0x1A72 JUMP JUMPDEST DUP2 ADD SUB SLT PUSH2 0x85E JUMPI PUSH2 0xAC6 SWAP2 MLOAD SWAP1 PUSH2 0xABC JUMP JUMPDEST RETURNDATASIZE SWAP2 POP PUSH2 0xB27 JUMP JUMPDEST SWAP3 POP POP POP PUSH1 0x20 DUP2 RETURNDATASIZE PUSH1 0x20 GT PUSH2 0xB80 JUMPI JUMPDEST DUP2 PUSH2 0xB6C PUSH1 0x20 SWAP4 DUP4 PUSH2 0x1A72 JUMP JUMPDEST DUP2 ADD SUB SLT PUSH2 0x85E JUMPI MLOAD DUP2 SWAP1 DUP13 PUSH2 0xA07 PUSH2 0x9F9 JUMP JUMPDEST RETURNDATASIZE SWAP2 POP PUSH2 0xB5F JUMP JUMPDEST SWAP1 POP PUSH1 0x20 DUP3 RETURNDATASIZE PUSH1 0x20 GT PUSH2 0xBB6 JUMPI JUMPDEST DUP2 PUSH2 0xBA3 PUSH1 0x20 SWAP4 DUP4 PUSH2 0x1A72 JUMP JUMPDEST DUP2 ADD SUB SLT PUSH2 0x85E JUMPI PUSH2 0x98C SWAP2 MLOAD SWAP1 PUSH2 0x982 JUMP JUMPDEST RETURNDATASIZE SWAP2 POP PUSH2 0xB96 JUMP JUMPDEST SWAP4 POP POP POP POP PUSH1 0x20 DUP2 RETURNDATASIZE PUSH1 0x20 GT PUSH2 0xBEF JUMPI JUMPDEST DUP2 PUSH2 0xBDC PUSH1 0x20 SWAP4 DUP4 PUSH2 0x1A72 JUMP JUMPDEST DUP2 ADD SUB SLT PUSH2 0x85E JUMPI DUP2 DUP12 DUP14 SWAP3 MLOAD CODESIZE PUSH2 0x8DB JUMP JUMPDEST RETURNDATASIZE SWAP2 POP PUSH2 0xBCF JUMP JUMPDEST POP RETURNDATASIZE DUP1 PUSH1 0x0 DUP4 RETURNDATACOPY PUSH2 0xC08 DUP2 DUP4 PUSH2 0x1A72 JUMP JUMPDEST DUP2 ADD SWAP1 PUSH1 0x20 DUP2 DUP4 SUB SLT PUSH2 0x85E JUMPI DUP1 MLOAD SWAP1 PUSH1 0x1 PUSH1 0x1 PUSH1 0x40 SHL SUB DUP3 GT PUSH2 0x85E JUMPI ADD SWAP1 DUP1 PUSH1 0x1F DUP4 ADD SLT ISZERO PUSH2 0x85E JUMPI DUP2 MLOAD SWAP2 PUSH2 0xC3F DUP4 PUSH2 0x1B18 JUMP JUMPDEST SWAP2 PUSH2 0xC4D PUSH1 0x40 MLOAD SWAP4 DUP5 PUSH2 0x1A72 JUMP JUMPDEST DUP4 DUP4 MSTORE PUSH1 0x20 DUP5 DUP4 ADD ADD GT PUSH2 0x85E JUMPI PUSH32 0xC5D2460186F7233C927E7DB2DCC703C0E500B653CA82273B7BFAD8045D85A470 SWAP3 PUSH2 0xC8D SWAP2 PUSH1 0x20 DUP1 DUP6 ADD SWAP2 ADD PUSH2 0x1C5A JUMP JUMPDEST PUSH2 0x486 JUMP JUMPDEST PUSH1 0x40 MLOAD PUSH3 0x461BCD PUSH1 0xE5 SHL DUP2 MSTORE PUSH1 0x20 PUSH1 0x4 DUP3 ADD MSTORE PUSH1 0x13 PUSH1 0x24 DUP3 ADD MSTORE PUSH19 0x3B30B63AB2903430B9B41034B99032B93937B9 PUSH1 0x69 SHL PUSH1 0x44 DUP3 ADD MSTORE PUSH1 0x64 SWAP1 REVERT JUMPDEST POP PUSH2 0xCDA PUSH1 0x1 SWAP2 DUP10 PUSH2 0x1EFB JUMP JUMPDEST MLOAD EQ PUSH2 0xCEA JUMPI JUMPDEST PUSH2 0x835 SWAP1 PUSH2 0x1D0E JUMP JUMPDEST PUSH1 0xA0 MLOAD PUSH1 0x1 PUSH1 0x1 PUSH1 0xA0 SHL SUB SWAP1 PUSH2 0xD01 SWAP1 DUP4 SWAP1 PUSH2 0x1EFB JUMP JUMPDEST MLOAD AND PUSH1 0x20 PUSH2 0xD0F DUP4 DUP14 PUSH2 0x1EFB JUMP JUMPDEST MLOAD PUSH1 0x24 PUSH1 0x40 MLOAD DUP1 SWAP5 DUP2 SWAP4 PUSH4 0x31A9108F PUSH1 0xE1 SHL DUP4 MSTORE PUSH1 0x4 DUP4 ADD MSTORE GAS STATICCALL SWAP1 DUP2 ISZERO PUSH2 0x83A JUMPI PUSH1 0x0 SWAP2 PUSH2 0xF8B JUMPI JUMPDEST POP DUP10 DUP12 DUP10 PUSH32 0x5477F9965F93D173424EF8E21FAC70C586B2FDB903ECF743D7A0973E6BFE3C94 PUSH1 0x80 DUP12 PUSH2 0xDAD DUP9 PUSH2 0xD8F DUP2 PUSH2 0xD88 DUP2 PUSH1 0x1 DUP1 PUSH1 0xA0 SHL SUB PUSH2 0xD80 DUP3 PUSH1 0xA0 MLOAD PUSH2 0x1EFB JUMP JUMPDEST MLOAD AND SWAP10 PUSH2 0x1EFB JUMP JUMPDEST MLOAD SWAP9 PUSH2 0x1EFB JUMP JUMPDEST MLOAD SWAP8 PUSH1 0x1 PUSH1 0x1 PUSH1 0xA0 SHL SUB SWAP1 PUSH2 0xDA5 SWAP1 DUP4 SWAP1 PUSH2 0x1EFB JUMP JUMPDEST MLOAD AND SWAP3 PUSH2 0x1EFB JUMP JUMPDEST MLOAD PUSH1 0x40 DUP1 MLOAD PUSH1 0x1 PUSH1 0x1 PUSH1 0xA0 SHL SUB DUP11 AND DUP2 MSTORE PUSH1 0x20 DUP2 ADD SWAP4 SWAP1 SWAP4 MSTORE PUSH1 0x1 SWAP1 DUP4 ADD MSTORE PUSH1 0x60 DUP3 ADD MSTORE LOG4 PUSH2 0xDDC DUP3 DUP13 PUSH2 0x1EFB JUMP JUMPDEST MLOAD PUSH1 0x0 MSTORE PUSH1 0x2 PUSH1 0x20 MSTORE PUSH1 0x40 PUSH1 0x0 KECCAK256 SLOAD ISZERO PUSH2 0xF53 JUMPI PUSH2 0xDFA DUP3 DUP13 PUSH2 0x1EFB JUMP JUMPDEST MLOAD PUSH1 0x0 MSTORE PUSH1 0x2 PUSH1 0x20 MSTORE PUSH1 0x0 PUSH1 0x40 DUP2 KECCAK256 SSTORE PUSH1 0x1 DUP1 PUSH1 0xA0 SHL SUB PUSH2 0xE1D DUP4 PUSH1 0xA0 MLOAD PUSH2 0x1EFB JUMP JUMPDEST MLOAD AND SWAP1 DUP12 PUSH1 0x20 PUSH2 0xE3A DUP6 PUSH1 0x1 DUP1 PUSH1 0xA0 SHL SUB PUSH2 0x555 DUP3 PUSH1 0xA0 MLOAD PUSH2 0x1EFB JUMP JUMPDEST MLOAD PUSH1 0x24 PUSH1 0x40 MLOAD DUP1 SWAP5 DUP2 SWAP4 PUSH4 0x31A9108F PUSH1 0xE1 SHL DUP4 MSTORE PUSH1 0x4 DUP4 ADD MSTORE GAS STATICCALL SWAP1 DUP2 ISZERO PUSH2 0x83A JUMPI DUP5 DUP14 DUP16 SWAP3 PUSH1 0x0 SWAP5 PUSH2 0xF1C JUMPI JUMPDEST POP PUSH2 0xE82 SWAP2 SWAP1 PUSH1 0x1 PUSH1 0x1 PUSH1 0xA0 SHL SUB SWAP1 PUSH2 0xDA5 SWAP1 DUP4 SWAP1 PUSH2 0x1EFB JUMP JUMPDEST MLOAD SWAP4 DUP1 EXTCODESIZE ISZERO PUSH2 0x85E JUMPI PUSH1 0x0 SWAP3 DUP4 PUSH1 0x64 SWAP3 PUSH1 0x40 MLOAD SWAP8 DUP9 SWAP6 DUP7 SWAP5 PUSH4 0x21421707 PUSH1 0xE1 SHL DUP7 MSTORE PUSH1 0x1 DUP1 PUSH1 0xA0 SHL SUB AND PUSH1 0x4 DUP7 ADD MSTORE PUSH1 0x24 DUP6 ADD MSTORE PUSH1 0x44 DUP5 ADD MSTORE GAS CALL SWAP2 DUP3 ISZERO PUSH2 0x83A JUMPI PUSH1 0x0 SWAP3 DUP4 SWAP3 DUP4 SWAP3 DUP4 SWAP3 PUSH2 0xF0D JUMPI JUMPDEST POP PUSH2 0xEDD DUP7 DUP13 PUSH2 0x1EFB JUMP JUMPDEST MLOAD SWAP1 DUP3 SWAP1 DUP3 ISZERO PUSH2 0xF03 JUMPI JUMPDEST PUSH1 0x1 PUSH1 0x1 PUSH1 0xA0 SHL SUB AND SWAP1 CALL PUSH2 0xCE1 JUMPI PUSH1 0x40 MLOAD RETURNDATASIZE PUSH1 0x0 DUP3 RETURNDATACOPY RETURNDATASIZE SWAP1 REVERT JUMPDEST PUSH2 0x8FC SWAP2 POP PUSH2 0xEE8 JUMP JUMPDEST PUSH2 0xF16 SWAP1 PUSH2 0x1A2E JUMP JUMPDEST CODESIZE PUSH2 0xED2 JUMP JUMPDEST PUSH2 0xE82 SWAP3 SWAP2 SWAP5 POP PUSH2 0xF44 SWAP1 PUSH1 0x20 RETURNDATASIZE PUSH1 0x20 GT PUSH2 0xF4C JUMPI JUMPDEST PUSH2 0xF3C DUP2 DUP4 PUSH2 0x1A72 JUMP JUMPDEST DUP2 ADD SWAP1 PUSH2 0x20A2 JUMP JUMPDEST SWAP4 SWAP1 SWAP2 PUSH2 0xE68 JUMP JUMPDEST POP RETURNDATASIZE PUSH2 0xF32 JUMP JUMPDEST PUSH1 0x40 MLOAD PUSH3 0x461BCD PUSH1 0xE5 SHL DUP2 MSTORE PUSH1 0x20 PUSH1 0x4 DUP3 ADD MSTORE PUSH1 0x10 PUSH1 0x24 DUP3 ADD MSTORE PUSH16 0x4974656D206E6F742073656C6C696E67 PUSH1 0x80 SHL PUSH1 0x44 DUP3 ADD MSTORE PUSH1 0x64 SWAP1 REVERT JUMPDEST PUSH2 0xFA4 SWAP2 POP PUSH1 0x20 RETURNDATASIZE PUSH1 0x20 GT PUSH2 0xF4C JUMPI PUSH2 0xF3C DUP2 DUP4 PUSH2 0x1A72 JUMP JUMPDEST DUP14 PUSH2 0xD39 JUMP JUMPDEST STOP JUMPDEST PUSH1 0x40 MLOAD PUSH3 0x461BCD PUSH1 0xE5 SHL DUP2 MSTORE PUSH1 0x20 PUSH1 0x4 DUP3 ADD MSTORE PUSH1 0x13 PUSH1 0x24 DUP3 ADD MSTORE PUSH19 0x76616C756520213D2073756D2076616C756573 PUSH1 0x68 SHL PUSH1 0x44 DUP3 ADD MSTORE PUSH1 0x64 SWAP1 REVERT JUMPDEST POP DUP3 MLOAD DUP10 MLOAD EQ PUSH2 0x26A JUMP JUMPDEST POP DUP2 MLOAD DUP4 MLOAD EQ PUSH2 0x264 JUMP JUMPDEST POP DUP5 MLOAD DUP3 MLOAD EQ PUSH2 0x25E JUMP JUMPDEST POP DUP8 MLOAD DUP6 MLOAD EQ PUSH2 0x258 JUMP JUMPDEST POP DUP4 MLOAD DUP9 MLOAD EQ PUSH2 0x252 JUMP JUMPDEST POP PUSH1 0x80 MLOAD MLOAD DUP5 MLOAD EQ PUSH2 0x24C JUMP JUMPDEST POP DUP10 MLOAD PUSH1 0x80 MLOAD MLOAD EQ PUSH2 0x246 JUMP JUMPDEST POP DUP6 MLOAD DUP11 MLOAD EQ PUSH2 0x240 JUMP JUMPDEST SWAP1 POP DUP7 MLOAD EQ CODESIZE PUSH2 0x239 JUMP JUMPDEST PUSH2 0x100 CALLDATASIZE PUSH1 0x3 NOT ADD SLT PUSH2 0x85E JUMPI PUSH2 0x1063 PUSH2 0x1A18 JUMP JUMPDEST PUSH1 0x1 PUSH1 0x1 PUSH1 0x40 SHL SUB SWAP1 PUSH1 0x24 CALLDATALOAD DUP3 DUP2 GT PUSH2 0x85E JUMPI PUSH2 0x1084 SWAP1 CALLDATASIZE SWAP1 PUSH1 0x4 ADD PUSH2 0x1AAA JUMP JUMPDEST SWAP1 PUSH1 0x44 CALLDATALOAD DUP4 DUP2 GT PUSH2 0x85E JUMPI PUSH2 0x109D SWAP1 CALLDATASIZE SWAP1 PUSH1 0x4 ADD PUSH2 0x1BFC JUMP JUMPDEST SWAP1 PUSH1 0x64 CALLDATALOAD DUP5 DUP2 GT PUSH2 0x85E JUMPI PUSH2 0x10B6 SWAP1 CALLDATASIZE SWAP1 PUSH1 0x4 ADD PUSH2 0x1B6A JUMP JUMPDEST SWAP1 PUSH1 0x84 CALLDATALOAD DUP6 DUP2 GT PUSH2 0x85E JUMPI PUSH2 0x10CF SWAP1 CALLDATASIZE SWAP1 PUSH1 0x4 ADD PUSH2 0x1B6A JUMP JUMPDEST SWAP2 PUSH1 0xA4 CALLDATALOAD DUP7 DUP2 GT PUSH2 0x85E JUMPI PUSH2 0x10E8 SWAP1 CALLDATASIZE SWAP1 PUSH1 0x4 ADD PUSH2 0x1BFC JUMP JUMPDEST SWAP6 PUSH1 0xC4 CALLDATALOAD DUP2 DUP2 GT PUSH2 0x85E JUMPI PUSH2 0x1101 SWAP1 CALLDATASIZE SWAP1 PUSH1 0x4 ADD PUSH2 0x1BFC JUMP JUMPDEST SWAP1 PUSH1 0xE4 CALLDATALOAD SWAP1 DUP2 GT PUSH2 0x85E JUMPI PUSH2 0x111A SWAP1 CALLDATASIZE SWAP1 PUSH1 0x4 ADD PUSH2 0x1B6A JUMP JUMPDEST SWAP6 DUP1 MLOAD DUP7 MLOAD DUP1 SWAP2 EQ SWAP1 DUP2 PUSH2 0x13A9 JUMPI JUMPDEST POP DUP1 PUSH2 0x139E JUMPI JUMPDEST DUP1 PUSH2 0x1393 JUMPI JUMPDEST PUSH2 0x1142 SWAP1 SWAP8 SWAP3 SWAP8 PUSH2 0x1EBD JUMP JUMPDEST PUSH1 0x1 PUSH1 0x1 PUSH1 0xA0 SHL SUB SWAP2 PUSH1 0x0 JUMPDEST DUP3 MLOAD DUP2 LT ISZERO PUSH2 0xFAA JUMPI PUSH2 0x11A1 PUSH1 0x20 DUP6 PUSH2 0x1167 DUP5 DUP8 PUSH2 0x1EFB JUMP JUMPDEST MLOAD AND PUSH2 0x1173 DUP5 DUP13 PUSH2 0x1EFB JUMP JUMPDEST MLOAD PUSH1 0x40 MLOAD PUSH3 0x7EEAC7 PUSH1 0xE1 SHL DUP2 MSTORE PUSH1 0x1 PUSH1 0x1 PUSH1 0xA0 SHL SUB SWAP1 SWAP3 AND PUSH1 0x4 DUP4 ADD MSTORE PUSH1 0x24 DUP3 ADD MSTORE SWAP2 DUP3 SWAP1 DUP2 SWAP1 PUSH1 0x44 DUP3 ADD SWAP1 JUMP JUMPDEST SUB DUP2 DUP9 DUP12 AND GAS STATICCALL DUP1 ISZERO PUSH2 0x83A JUMPI PUSH1 0x0 SWAP1 PUSH2 0x135F JUMPI JUMPDEST PUSH2 0x11C5 SWAP2 POP PUSH2 0x2A7 DUP4 DUP14 PUSH2 0x1EFB JUMP JUMPDEST PUSH2 0x11CF DUP3 DUP12 PUSH2 0x1EFB JUMP JUMPDEST MLOAD LT PUSH2 0x85E JUMPI PUSH2 0x11F9 DUP10 PUSH1 0x20 PUSH2 0x3BD PUSH2 0x379 PUSH2 0x373 DUP7 PUSH2 0x11F3 DUP16 DUP3 PUSH2 0x373 SWAP2 PUSH2 0x1EFB JUMP JUMPDEST SWAP6 PUSH2 0x1EFB JUMP JUMPDEST PUSH1 0x40 MLOAD PUSH2 0x1216 PUSH1 0x20 DUP3 DUP2 PUSH2 0x3F8 DUP2 DUP4 ADD SWAP7 DUP8 DUP2 MLOAD SWAP4 DUP5 SWAP3 ADD PUSH2 0x1C5A JUMP JUMPDEST MLOAD SWAP1 KECCAK256 PUSH2 0x1223 DUP3 DUP5 PUSH2 0x1EFB JUMP JUMPDEST MLOAD PUSH1 0x40 MLOAD PUSH2 0x1241 PUSH1 0x20 DUP3 DUP2 PUSH2 0x3F8 DUP2 DUP4 ADD SWAP7 DUP8 DUP2 MLOAD SWAP4 DUP5 SWAP3 ADD PUSH2 0x1C5A JUMP JUMPDEST MLOAD SWAP1 KECCAK256 SUB PUSH2 0x1323 JUMPI DUP1 DUP11 DUP7 DUP11 PUSH2 0x12C4 DUP5 PUSH2 0x12BD DUP2 PUSH2 0xD88 DUP16 SWAP10 PUSH2 0x12B6 DUP2 DUP16 DUP16 DUP3 PUSH2 0x12AE SWAP2 DUP15 PUSH2 0x1275 DUP4 DUP16 DUP2 PUSH2 0x74D SWAP2 PUSH2 0x1EFB JUMP JUMPDEST MLOAD DUP6 PUSH2 0x1281 DUP6 DUP6 PUSH2 0x1EFB JUMP JUMPDEST MLOAD AND SWAP2 PUSH32 0x8EFFABB75F28A28D3080DB6E33FD63BAB02725DE42CDA7B8FD1132DC90D0E8C8 PUSH1 0x0 DUP1 LOG4 PUSH2 0x1EFB JUMP JUMPDEST MLOAD AND SWAP9 PUSH2 0x1EFB JUMP JUMPDEST MLOAD SWAP8 PUSH2 0x1EFB JUMP JUMPDEST MLOAD SWAP5 PUSH2 0x1EFB JUMP JUMPDEST MLOAD SWAP3 DUP9 DUP12 AND EXTCODESIZE ISZERO PUSH2 0x85E JUMPI PUSH1 0x0 SWAP4 PUSH2 0x12F1 SWAP2 PUSH1 0x40 MLOAD SWAP8 DUP9 SWAP6 DUP7 SWAP6 PUSH4 0xAF72BD91 PUSH1 0xE0 SHL DUP8 MSTORE PUSH1 0x4 DUP8 ADD PUSH2 0x1F9D JUMP JUMPDEST SUB DUP2 DUP4 DUP10 DUP13 AND GAS CALL SWAP2 DUP3 ISZERO PUSH2 0x83A JUMPI PUSH2 0x130F SWAP3 PUSH2 0x1314 JUMPI JUMPDEST POP PUSH2 0x1D0E JUMP JUMPDEST PUSH2 0x114E JUMP JUMPDEST PUSH2 0x131D SWAP1 PUSH2 0x1A2E JUMP JUMPDEST DUP12 PUSH2 0x1309 JUMP JUMPDEST PUSH1 0x40 MLOAD PUSH3 0x461BCD PUSH1 0xE5 SHL DUP2 MSTORE PUSH1 0x20 PUSH1 0x4 DUP3 ADD MSTORE PUSH1 0x14 PUSH1 0x24 DUP3 ADD MSTORE PUSH20 0x39BAB838363C903430B9B41034B99032B93937B9 PUSH1 0x61 SHL PUSH1 0x44 DUP3 ADD MSTORE PUSH1 0x64 SWAP1 REVERT JUMPDEST POP PUSH1 0x20 DUP2 RETURNDATASIZE PUSH1 0x20 GT PUSH2 0x138B JUMPI JUMPDEST DUP2 PUSH2 0x1379 PUSH1 0x20 SWAP4 DUP4 PUSH2 0x1A72 JUMP JUMPDEST DUP2 ADD SUB SLT PUSH2 0x85E JUMPI PUSH2 0x11C5 SWAP1 MLOAD PUSH2 0x11B6 JUMP JUMPDEST RETURNDATASIZE SWAP2 POP PUSH2 0x136C JUMP JUMPDEST POP DUP5 MLOAD DUP4 MLOAD EQ PUSH2 0x1136 JUMP JUMPDEST POP DUP8 MLOAD DUP6 MLOAD EQ PUSH2 0x1130 JUMP JUMPDEST SWAP1 POP DUP9 MLOAD EQ DUP10 PUSH2 0x1129 JUMP JUMPDEST CALLVALUE PUSH2 0x85E JUMPI PUSH1 0x40 CALLDATASIZE PUSH1 0x3 NOT ADD SLT PUSH2 0x85E JUMPI PUSH2 0x13CD PUSH2 0x1A18 JUMP JUMPDEST PUSH1 0x24 CALLDATALOAD SWAP1 PUSH1 0x1 DUP1 PUSH1 0xA0 SHL SUB DUP1 SWAP2 AND SWAP1 PUSH1 0x40 MLOAD PUSH4 0x31A9108F PUSH1 0xE1 SHL DUP2 MSTORE DUP4 PUSH1 0x4 DUP3 ADD MSTORE PUSH1 0x20 SWAP2 DUP3 DUP3 PUSH1 0x24 DUP2 DUP8 GAS STATICCALL SWAP1 DUP2 ISZERO PUSH2 0x83A JUMPI PUSH2 0x1416 SWAP3 PUSH1 0x0 SWAP3 PUSH2 0x1491 JUMPI JUMPDEST POP AND CALLER EQ PUSH2 0x2105 JUMP JUMPDEST DUP3 PUSH1 0x0 MSTORE PUSH1 0x2 DUP2 MSTORE PUSH1 0x40 PUSH1 0x0 KECCAK256 SLOAD ISZERO PUSH2 0x145F JUMPI PUSH1 0x2 SWAP1 DUP4 PUSH1 0x0 MSTORE MSTORE PUSH1 0x0 PUSH1 0x40 DUP2 KECCAK256 SSTORE PUSH32 0xA5700E6E137F0686A6AEB9AE573396B3CE22F929686865812DBDA871081193B9 PUSH1 0x0 DUP1 LOG3 STOP JUMPDEST PUSH1 0x64 SWAP1 PUSH1 0x40 MLOAD SWAP1 PUSH3 0x461BCD PUSH1 0xE5 SHL DUP3 MSTORE PUSH1 0x4 DUP3 ADD MSTORE PUSH1 0xB PUSH1 0x24 DUP3 ADD MSTORE PUSH11 0x6E6F742073656C6C696E67 PUSH1 0xA8 SHL PUSH1 0x44 DUP3 ADD MSTORE REVERT JUMPDEST PUSH2 0x14A9 SWAP2 SWAP3 POP DUP5 RETURNDATASIZE DUP7 GT PUSH2 0xF4C JUMPI PUSH2 0xF3C DUP2 DUP4 PUSH2 0x1A72 JUMP JUMPDEST SWAP1 DUP7 PUSH2 0x140D JUMP JUMPDEST CALLVALUE PUSH2 0x85E JUMPI PUSH1 0x60 CALLDATASIZE PUSH1 0x3 NOT ADD SLT PUSH2 0x85E JUMPI PUSH2 0x14C9 PUSH2 0x1A18 JUMP JUMPDEST PUSH1 0x24 CALLDATALOAD PUSH1 0x44 CALLDATALOAD SWAP2 PUSH1 0x1 DUP1 PUSH1 0xA0 SHL SUB DUP1 SWAP2 AND SWAP1 PUSH1 0x40 MLOAD SWAP1 PUSH4 0x31A9108F PUSH1 0xE1 SHL DUP3 MSTORE DUP4 PUSH1 0x4 DUP4 ADD MSTORE PUSH1 0x20 DUP3 PUSH1 0x24 DUP2 DUP7 GAS STATICCALL SWAP1 DUP2 ISZERO PUSH2 0x83A JUMPI PUSH2 0x1513 SWAP3 PUSH1 0x0 SWAP3 PUSH2 0x1555 JUMPI POP AND CALLER EQ PUSH2 0x2105 JUMP JUMPDEST PUSH2 0x151E DUP4 ISZERO ISZERO PUSH2 0x215D JUMP JUMPDEST DUP2 PUSH1 0x0 MSTORE PUSH1 0x2 PUSH1 0x20 MSTORE DUP3 PUSH1 0x40 PUSH1 0x0 KECCAK256 SSTORE PUSH32 0xCF5C0BD1DB1BDA5F264BE4F84EE9DCD59F04653CA22197BBF710F2C3BB2B7C76 PUSH1 0x0 DUP1 LOG4 STOP JUMPDEST PUSH2 0x14A9 SWAP2 SWAP3 POP PUSH1 0x20 RETURNDATASIZE DUP2 GT PUSH2 0xF4C JUMPI PUSH2 0xF3C DUP2 DUP4 PUSH2 0x1A72 JUMP JUMPDEST CALLVALUE PUSH2 0x85E JUMPI PUSH1 0x0 CALLDATASIZE PUSH1 0x3 NOT ADD SLT PUSH2 0x85E JUMPI PUSH1 0x40 MLOAD PUSH1 0x0 DUP1 SLOAD PUSH2 0x158F DUP2 PUSH2 0x1CA2 JUMP JUMPDEST DUP1 DUP5 MSTORE SWAP1 PUSH1 0x1 SWAP1 DUP2 DUP2 AND SWAP1 DUP2 ISZERO PUSH2 0x162A JUMPI POP PUSH1 0x1 EQ PUSH2 0x15D1 JUMPI JUMPDEST PUSH2 0x15CD DUP5 PUSH2 0x15B9 DUP2 DUP7 SUB DUP3 PUSH2 0x1A72 JUMP JUMPDEST PUSH1 0x40 MLOAD SWAP2 DUP3 SWAP2 PUSH1 0x20 DUP4 MSTORE PUSH1 0x20 DUP4 ADD SWAP1 PUSH2 0x1C7D JUMP JUMPDEST SUB SWAP1 RETURN JUMPDEST PUSH1 0x0 DUP1 DUP1 MSTORE SWAP3 POP PUSH32 0x290DECD9548B62A8D60345A988386FC84BA6BC95484008F6362F93160EF3E563 JUMPDEST DUP3 DUP5 LT PUSH2 0x1612 JUMPI POP POP POP DUP2 ADD PUSH1 0x20 ADD PUSH2 0x15B9 DUP3 PUSH2 0x15A9 JUMP JUMPDEST DUP1 SLOAD PUSH1 0x20 DUP6 DUP8 ADD DUP2 ADD SWAP2 SWAP1 SWAP2 MSTORE SWAP1 SWAP4 ADD SWAP3 DUP2 ADD PUSH2 0x15FA JUMP JUMPDEST PUSH1 0xFF NOT AND PUSH1 0x20 DUP1 DUP8 ADD SWAP2 SWAP1 SWAP2 MSTORE SWAP3 ISZERO ISZERO PUSH1 0x5 SHL DUP6 ADD SWAP1 SWAP3 ADD SWAP3 POP PUSH2 0x15B9 SWAP2 POP DUP4 SWAP1 POP PUSH2 0x15A9 JUMP JUMPDEST CALLVALUE PUSH2 0x85E JUMPI PUSH1 0x20 CALLDATASIZE PUSH1 0x3 NOT ADD SLT PUSH2 0x85E JUMPI PUSH1 0x4 CALLDATALOAD PUSH1 0x1 PUSH1 0x1 PUSH1 0x40 SHL SUB DUP2 GT PUSH2 0x85E JUMPI CALLDATASIZE PUSH1 0x23 DUP3 ADD SLT ISZERO PUSH2 0x85E JUMPI PUSH2 0x15B9 PUSH2 0x3D6 PUSH2 0x15CD SWAP3 CALLDATASIZE SWAP1 PUSH1 0x24 DUP2 PUSH1 0x4 ADD CALLDATALOAD SWAP2 ADD PUSH2 0x1B33 JUMP JUMPDEST CALLVALUE PUSH2 0x85E JUMPI PUSH1 0x60 CALLDATASIZE PUSH1 0x3 NOT ADD SLT PUSH2 0x85E JUMPI PUSH1 0x1 PUSH1 0x1 PUSH1 0x40 SHL SUB PUSH1 0x4 CALLDATALOAD DUP2 DUP2 GT PUSH2 0x85E JUMPI PUSH2 0x16C9 SWAP1 CALLDATASIZE SWAP1 PUSH1 0x4 ADD PUSH2 0x1AAA JUMP JUMPDEST SWAP1 PUSH1 0x24 SWAP1 DUP2 CALLDATALOAD DUP2 DUP2 GT PUSH2 0x85E JUMPI PUSH2 0x16E4 SWAP1 CALLDATASIZE SWAP1 PUSH1 0x4 ADD PUSH2 0x1BFC JUMP JUMPDEST SWAP1 PUSH1 0x44 CALLDATALOAD SWAP1 DUP2 GT PUSH2 0x85E JUMPI PUSH2 0x16FD SWAP1 CALLDATASIZE SWAP1 PUSH1 0x4 ADD PUSH2 0x1BFC JUMP JUMPDEST PUSH2 0x1714 DUP5 MLOAD DUP4 MLOAD DUP1 SWAP2 EQ SWAP1 DUP2 PUSH2 0x1828 JUMPI JUMPDEST POP PUSH2 0x1EBD JUMP JUMPDEST PUSH1 0x0 JUMPDEST DUP5 MLOAD DUP2 LT ISZERO PUSH2 0xFAA JUMPI PUSH1 0x1 PUSH1 0x1 PUSH1 0xA0 SHL SUB SWAP1 DUP2 PUSH2 0x1734 DUP3 DUP9 PUSH2 0x1EFB JUMP JUMPDEST MLOAD AND SWAP2 PUSH2 0x1741 DUP3 DUP7 PUSH2 0x1EFB JUMP JUMPDEST MLOAD PUSH1 0x40 MLOAD SWAP4 DUP5 SWAP2 PUSH4 0x31A9108F PUSH1 0xE1 SHL DUP4 MSTORE PUSH1 0x4 DUP4 ADD MSTORE DUP2 DUP9 PUSH1 0x20 SWAP4 DUP5 SWAP4 GAS STATICCALL SWAP4 DUP5 ISZERO PUSH2 0x83A JUMPI PUSH2 0x1806 SWAP5 PUSH2 0x1781 SWAP2 PUSH1 0x0 SWAP2 PUSH2 0x180B JUMPI JUMPDEST POP DUP4 AND CALLER EQ PUSH2 0x2105 JUMP JUMPDEST PUSH2 0x1796 PUSH2 0x178E DUP5 DUP8 PUSH2 0x1EFB JUMP JUMPDEST MLOAD ISZERO ISZERO PUSH2 0x215D JUMP JUMPDEST PUSH1 0x2 PUSH2 0x17A2 DUP5 DUP8 PUSH2 0x1EFB JUMP JUMPDEST MLOAD SWAP2 PUSH2 0x17AE DUP6 DUP10 PUSH2 0x1EFB JUMP JUMPDEST MLOAD PUSH1 0x0 MSTORE MSTORE PUSH1 0x40 PUSH1 0x0 KECCAK256 SSTORE PUSH2 0x17C3 DUP3 DUP9 PUSH2 0x1EFB JUMP JUMPDEST MLOAD AND PUSH2 0x17CF DUP3 DUP7 PUSH2 0x1EFB JUMP JUMPDEST MLOAD PUSH2 0x17DA DUP4 DUP7 PUSH2 0x1EFB JUMP JUMPDEST MLOAD SWAP2 PUSH32 0xCF5C0BD1DB1BDA5F264BE4F84EE9DCD59F04653CA22197BBF710F2C3BB2B7C76 PUSH1 0x0 DUP1 LOG4 PUSH2 0x1D0E JUMP JUMPDEST PUSH2 0x1717 JUMP JUMPDEST PUSH2 0x1822 SWAP2 POP DUP4 RETURNDATASIZE DUP6 GT PUSH2 0xF4C JUMPI PUSH2 0xF3C DUP2 DUP4 PUSH2 0x1A72 JUMP JUMPDEST DUP11 PUSH2 0x1777 JUMP JUMPDEST SWAP1 POP DUP3 MLOAD EQ DUP7 PUSH2 0x170E JUMP JUMPDEST CALLVALUE PUSH2 0x85E JUMPI PUSH1 0x80 CALLDATASIZE PUSH1 0x3 NOT ADD SLT PUSH2 0x85E JUMPI PUSH2 0x184C PUSH2 0x1A18 JUMP JUMPDEST PUSH1 0x1 PUSH1 0x1 PUSH1 0x40 SHL SUB PUSH1 0x24 DUP1 CALLDATALOAD DUP3 DUP2 GT PUSH2 0x85E JUMPI PUSH2 0x186D SWAP1 CALLDATASIZE SWAP1 PUSH1 0x4 ADD PUSH2 0x1AAA JUMP JUMPDEST SWAP2 PUSH1 0x44 SWAP4 DUP5 CALLDATALOAD DUP3 DUP2 GT PUSH2 0x85E JUMPI PUSH2 0x1888 SWAP1 CALLDATASIZE SWAP1 PUSH1 0x4 ADD PUSH2 0x1B6A JUMP JUMPDEST SWAP2 PUSH1 0x64 CALLDATALOAD SWAP1 DUP2 GT PUSH2 0x85E JUMPI PUSH2 0x18A1 SWAP1 CALLDATASIZE SWAP1 PUSH1 0x4 ADD PUSH2 0x1BFC JUMP JUMPDEST SWAP1 PUSH2 0x18BC DUP6 MLOAD DUP5 MLOAD DUP1 SWAP2 EQ SWAP1 DUP2 PUSH2 0x1A0D JUMPI JUMPDEST POP SWAP6 SWAP3 SWAP6 PUSH2 0x1EBD JUMP JUMPDEST PUSH1 0x1 PUSH1 0x1 PUSH1 0xA0 SHL SUB SWAP1 DUP2 AND SWAP2 PUSH1 0x0 JUMPDEST DUP2 MLOAD DUP2 LT ISZERO PUSH2 0xFAA JUMPI PUSH1 0x40 MLOAD PUSH4 0xE00DD161 PUSH1 0xE0 SHL DUP2 MSTORE PUSH1 0x20 SWAP1 DUP2 DUP2 PUSH1 0x4 DUP2 DUP10 GAS STATICCALL SWAP1 DUP2 ISZERO PUSH2 0x83A JUMPI PUSH1 0x0 SWAP2 PUSH2 0x19E0 JUMPI JUMPDEST POP PUSH1 0x1 DUP2 ADD DUP1 SWAP2 GT PUSH2 0x19CB JUMPI DUP6 PUSH32 0xA491B2906955DE9B9A0A0E6D8D87C1688F5207237FE435504138A6B00E7E92E8 PUSH1 0x40 PUSH2 0x1935 DUP7 DUP14 PUSH2 0x1EFB JUMP JUMPDEST MLOAD SWAP5 DUP9 PUSH2 0x1942 DUP9 DUP11 PUSH2 0x1EFB JUMP JUMPDEST MLOAD AND DUP3 MLOAD SWAP2 CALLER DUP4 MSTORE DUP3 ADD MSTORE LOG4 DUP3 PUSH2 0x1959 DUP3 DUP5 PUSH2 0x1EFB JUMP JUMPDEST MLOAD AND SWAP1 PUSH2 0x1966 DUP2 DUP8 PUSH2 0x1EFB JUMP JUMPDEST MLOAD SWAP2 DUP6 EXTCODESIZE ISZERO PUSH2 0x85E JUMPI PUSH2 0x199C SWAP3 PUSH1 0x0 SWAP2 PUSH1 0x40 MLOAD SWAP5 DUP6 SWAP3 DUP4 SWAP3 PUSH4 0xD0DEF521 PUSH1 0xE0 SHL DUP5 MSTORE PUSH1 0x4 DUP5 ADD MSTORE PUSH1 0x40 DUP13 DUP5 ADD MSTORE DUP14 DUP4 ADD SWAP1 PUSH2 0x1C7D JUMP JUMPDEST SUB DUP2 DUP4 DUP10 GAS CALL SWAP2 DUP3 ISZERO PUSH2 0x83A JUMPI PUSH2 0x19B7 SWAP3 PUSH2 0x19BC JUMPI POP PUSH2 0x1D0E JUMP JUMPDEST PUSH2 0x18CB JUMP JUMPDEST PUSH2 0x19C5 SWAP1 PUSH2 0x1A2E JUMP JUMPDEST DUP10 PUSH2 0x1309 JUMP JUMPDEST DUP8 PUSH4 0x4E487B71 PUSH1 0xE0 SHL PUSH1 0x0 MSTORE PUSH1 0x11 PUSH1 0x4 MSTORE PUSH1 0x0 REVERT JUMPDEST SWAP1 POP DUP2 DUP2 DUP2 RETURNDATASIZE DUP4 GT PUSH2 0x1A06 JUMPI JUMPDEST PUSH2 0x19F7 DUP2 DUP4 PUSH2 0x1A72 JUMP JUMPDEST DUP2 ADD SUB SLT PUSH2 0x85E JUMPI MLOAD DUP11 PUSH2 0x18FB JUMP JUMPDEST POP RETURNDATASIZE PUSH2 0x19ED JUMP JUMPDEST SWAP1 POP DUP4 MLOAD EQ DUP9 PUSH2 0x18B3 JUMP JUMPDEST PUSH1 0x4 CALLDATALOAD SWAP1 PUSH1 0x1 PUSH1 0x1 PUSH1 0xA0 SHL SUB DUP3 AND DUP3 SUB PUSH2 0x85E JUMPI JUMP JUMPDEST PUSH1 0x1 PUSH1 0x1 PUSH1 0x40 SHL SUB DUP2 GT PUSH2 0x1A41 JUMPI PUSH1 0x40 MSTORE JUMP JUMPDEST PUSH4 0x4E487B71 PUSH1 0xE0 SHL PUSH1 0x0 MSTORE PUSH1 0x41 PUSH1 0x4 MSTORE PUSH1 0x24 PUSH1 0x0 REVERT JUMPDEST PUSH1 0x40 DUP2 ADD SWAP1 DUP2 LT PUSH1 0x1 PUSH1 0x1 PUSH1 0x40 SHL SUB DUP3 GT OR PUSH2 0x1A41 JUMPI PUSH1 0x40 MSTORE JUMP JUMPDEST SWAP1 PUSH1 0x1F DUP1 NOT SWAP2 ADD AND DUP2 ADD SWAP1 DUP2 LT PUSH1 0x1 PUSH1 0x1 PUSH1 0x40 SHL SUB DUP3 GT OR PUSH2 0x1A41 JUMPI PUSH1 0x40 MSTORE JUMP JUMPDEST PUSH1 0x1 PUSH1 0x1 PUSH1 0x40 SHL SUB DUP2 GT PUSH2 0x1A41 JUMPI PUSH1 0x5 SHL PUSH1 0x20 ADD SWAP1 JUMP JUMPDEST DUP2 PUSH1 0x1F DUP3 ADD SLT ISZERO PUSH2 0x85E JUMPI DUP1 CALLDATALOAD SWAP2 PUSH2 0x1AC1 DUP4 PUSH2 0x1A93 JUMP JUMPDEST SWAP3 PUSH2 0x1ACF PUSH1 0x40 MLOAD SWAP5 DUP6 PUSH2 0x1A72 JUMP JUMPDEST DUP1 DUP5 MSTORE PUSH1 0x20 SWAP3 DUP4 DUP1 DUP7 ADD SWAP3 PUSH1 0x5 SHL DUP3 ADD ADD SWAP3 DUP4 GT PUSH2 0x85E JUMPI DUP4 ADD SWAP1 JUMPDEST DUP3 DUP3 LT PUSH2 0x1AF9 JUMPI POP POP POP POP SWAP1 JUMP JUMPDEST DUP2 CALLDATALOAD PUSH1 0x1 PUSH1 0x1 PUSH1 0xA0 SHL SUB DUP2 AND DUP2 SUB PUSH2 0x85E JUMPI DUP2 MSTORE SWAP1 DUP4 ADD SWAP1 DUP4 ADD PUSH2 0x1AEB JUMP JUMPDEST PUSH1 0x1 PUSH1 0x1 PUSH1 0x40 SHL SUB DUP2 GT PUSH2 0x1A41 JUMPI PUSH1 0x1F ADD PUSH1 0x1F NOT AND PUSH1 0x20 ADD SWAP1 JUMP JUMPDEST SWAP3 SWAP2 SWAP3 PUSH2 0x1B3F DUP3 PUSH2 0x1B18 JUMP JUMPDEST SWAP2 PUSH2 0x1B4D PUSH1 0x40 MLOAD SWAP4 DUP5 PUSH2 0x1A72 JUMP JUMPDEST DUP3 SWAP5 DUP2 DUP5 MSTORE DUP2 DUP4 ADD GT PUSH2 0x85E JUMPI DUP3 DUP2 PUSH1 0x20 SWAP4 DUP5 PUSH1 0x0 SWAP7 ADD CALLDATACOPY ADD ADD MSTORE JUMP JUMPDEST DUP2 PUSH1 0x1F DUP3 ADD SLT ISZERO PUSH2 0x85E JUMPI DUP1 CALLDATALOAD SWAP1 PUSH2 0x1B81 DUP3 PUSH2 0x1A93 JUMP JUMPDEST SWAP3 PUSH1 0x40 SWAP3 PUSH2 0x1B91 DUP5 MLOAD SWAP6 DUP7 PUSH2 0x1A72 JUMP JUMPDEST DUP1 DUP6 MSTORE PUSH1 0x20 SWAP4 DUP5 DUP1 DUP8 ADD SWAP3 PUSH1 0x5 SHL DUP6 ADD ADD SWAP4 DUP4 DUP6 GT PUSH2 0x85E JUMPI DUP6 DUP2 ADD SWAP3 JUMPDEST DUP6 DUP5 LT PUSH2 0x1BC0 JUMPI POP POP POP POP POP POP POP SWAP1 JUMP JUMPDEST DUP4 CALLDATALOAD PUSH1 0x1 PUSH1 0x1 PUSH1 0x40 SHL SUB DUP2 GT PUSH2 0x85E JUMPI DUP3 ADD DUP6 PUSH1 0x3F DUP3 ADD SLT ISZERO PUSH2 0x85E JUMPI DUP8 SWAP2 PUSH2 0x1BF1 DUP8 DUP4 DUP8 DUP7 DUP1 SWAP7 ADD CALLDATALOAD SWAP2 ADD PUSH2 0x1B33 JUMP JUMPDEST DUP2 MSTORE ADD SWAP4 ADD SWAP3 PUSH2 0x1BAF JUMP JUMPDEST DUP2 PUSH1 0x1F DUP3 ADD SLT ISZERO PUSH2 0x85E JUMPI DUP1 CALLDATALOAD SWAP2 PUSH2 0x1C13 DUP4 PUSH2 0x1A93 JUMP JUMPDEST SWAP3 PUSH2 0x1C21 PUSH1 0x40 MLOAD SWAP5 DUP6 PUSH2 0x1A72 JUMP JUMPDEST DUP1 DUP5 MSTORE PUSH1 0x20 SWAP3 DUP4 DUP1 DUP7 ADD SWAP3 PUSH1 0x5 SHL DUP3 ADD ADD SWAP3 DUP4 GT PUSH2 0x85E JUMPI DUP4 ADD SWAP1 JUMPDEST DUP3 DUP3 LT PUSH2 0x1C4B JUMPI POP POP POP POP SWAP1 JUMP JUMPDEST DUP2 CALLDATALOAD DUP2 MSTORE SWAP1 DUP4 ADD SWAP1 DUP4 ADD PUSH2 0x1C3D JUMP JUMPDEST PUSH1 0x0 JUMPDEST DUP4 DUP2 LT PUSH2 0x1C6D JUMPI POP POP PUSH1 0x0 SWAP2 ADD MSTORE JUMP JUMPDEST DUP2 DUP2 ADD MLOAD DUP4 DUP3 ADD MSTORE PUSH1 0x20 ADD PUSH2 0x1C5D JUMP JUMPDEST SWAP1 PUSH1 0x20 SWAP2 PUSH2 0x1C96 DUP2 MLOAD DUP1 SWAP3 DUP2 DUP6 MSTORE DUP6 DUP1 DUP7 ADD SWAP2 ADD PUSH2 0x1C5A JUMP JUMPDEST PUSH1 0x1F ADD PUSH1 0x1F NOT AND ADD ADD SWAP1 JUMP JUMPDEST SWAP1 PUSH1 0x1 DUP3 DUP2 SHR SWAP3 AND DUP1 ISZERO PUSH2 0x1CD2 JUMPI JUMPDEST PUSH1 0x20 DUP4 LT EQ PUSH2 0x1CBC JUMPI JUMP JUMPDEST PUSH4 0x4E487B71 PUSH1 0xE0 SHL PUSH1 0x0 MSTORE PUSH1 0x22 PUSH1 0x4 MSTORE PUSH1 0x24 PUSH1 0x0 REVERT JUMPDEST SWAP2 PUSH1 0x7F AND SWAP2 PUSH2 0x1CB1 JUMP JUMPDEST SWAP1 PUSH2 0x1CE6 DUP3 PUSH2 0x1B18 JUMP JUMPDEST PUSH2 0x1CF3 PUSH1 0x40 MLOAD SWAP2 DUP3 PUSH2 0x1A72 JUMP JUMPDEST DUP3 DUP2 MSTORE DUP1 SWAP3 PUSH2 0x1D04 PUSH1 0x1F NOT SWAP2 PUSH2 0x1B18 JUMP JUMPDEST ADD SWAP1 PUSH1 0x20 CALLDATASIZE SWAP2 ADD CALLDATACOPY JUMP JUMPDEST PUSH1 0x0 NOT DUP2 EQ PUSH2 0x1D1D JUMPI PUSH1 0x1 ADD SWAP1 JUMP JUMPDEST PUSH4 0x4E487B71 PUSH1 0xE0 SHL PUSH1 0x0 MSTORE PUSH1 0x11 PUSH1 0x4 MSTORE PUSH1 0x24 PUSH1 0x0 REVERT JUMPDEST SWAP1 DUP2 MLOAD DUP2 LT ISZERO PUSH2 0x1D44 JUMPI ADD PUSH1 0x20 ADD SWAP1 JUMP JUMPDEST PUSH4 0x4E487B71 PUSH1 0xE0 SHL PUSH1 0x0 MSTORE PUSH1 0x32 PUSH1 0x4 MSTORE PUSH1 0x24 PUSH1 0x0 REVERT JUMPDEST SWAP2 SWAP1 DUP3 ADD DUP1 SWAP3 GT PUSH2 0x1D1D JUMPI JUMP JUMPDEST DUP1 MLOAD PUSH1 0x1 DUP2 DUP2 SHL PUSH1 0x2 SWAP3 DUP1 DUP3 DIV DUP5 EQ SWAP1 ISZERO OR ISZERO PUSH2 0x1D1D JUMPI PUSH2 0x1D88 DUP3 SWAP2 PUSH2 0x1CDC JUMP JUMPDEST SWAP4 PUSH1 0x40 MLOAD PUSH2 0x1D95 DUP2 PUSH2 0x1A57 JUMP JUMPDEST PUSH1 0x10 DUP2 MSTORE PUSH16 0x181899199A1A9B1B9C1CB0B131B232B3 PUSH1 0x81 SHL PUSH1 0x20 DUP3 ADD MSTORE PUSH1 0x0 SWAP3 JUMPDEST PUSH2 0x1DFA JUMPI JUMPDEST POP POP POP POP PUSH1 0x22 PUSH2 0x1DF7 SWAP2 PUSH1 0x40 MLOAD DUP1 SWAP5 PUSH2 0x60F PUSH1 0xF3 SHL PUSH1 0x20 DUP4 ADD MSTORE PUSH2 0x1DE8 DUP2 MLOAD DUP1 SWAP3 PUSH1 0x20 DUP8 DUP7 ADD SWAP2 ADD PUSH2 0x1C5A JUMP JUMPDEST DUP2 ADD SUB SWAP1 DUP2 ADD DUP5 MSTORE ADD DUP3 PUSH2 0x1A72 JUMP JUMPDEST SWAP1 JUMP JUMPDEST DUP2 MLOAD DUP4 LT ISZERO PUSH2 0x1EB8 JUMPI PUSH2 0x1E0D DUP4 DUP4 PUSH2 0x1D33 JUMP JUMPDEST MLOAD SWAP3 DUP2 MLOAD DUP1 ISZERO PUSH2 0x1EA2 JUMPI PUSH1 0xF8 SWAP5 PUSH1 0x1 PUSH1 0x1 PUSH1 0xF8 SHL SUB NOT SWAP2 DUP3 SWAP2 PUSH2 0x1E34 SWAP2 SWAP1 DUP9 SHR DIV DUP6 PUSH2 0x1D33 JUMP JUMPDEST MLOAD AND SWAP5 DUP3 DUP8 SHL SWAP6 DUP4 DUP8 DIV DUP10 EQ DUP5 ISZERO OR ISZERO PUSH2 0x1D1D JUMPI PUSH1 0x0 BYTE PUSH2 0x1E55 DUP8 DUP12 PUSH2 0x1D33 JUMP JUMPDEST MSTORE8 PUSH2 0x1E60 DUP4 DUP7 PUSH2 0x1D33 JUMP JUMPDEST MLOAD SWAP1 SHR DUP4 MLOAD DUP1 ISZERO PUSH2 0x1EA2 JUMPI PUSH2 0x1E76 SWAP2 MOD DUP5 PUSH2 0x1D33 JUMP JUMPDEST MLOAD AND SWAP1 DUP6 DUP6 ADD DUP1 SWAP6 GT PUSH2 0x1D1D JUMPI DUP6 SWAP5 PUSH2 0x1E96 PUSH2 0x1E9C SWAP4 PUSH1 0x0 BYTE SWAP2 DUP11 PUSH2 0x1D33 JUMP JUMPDEST MSTORE8 PUSH2 0x1D0E JUMP JUMPDEST SWAP3 PUSH2 0x1DB6 JUMP JUMPDEST PUSH4 0x4E487B71 PUSH1 0xE0 SHL PUSH1 0x0 MSTORE PUSH1 0x12 PUSH1 0x4 MSTORE PUSH1 0x24 PUSH1 0x0 REVERT JUMPDEST PUSH2 0x1DBB JUMP JUMPDEST ISZERO PUSH2 0x1EC4 JUMPI JUMP JUMPDEST PUSH1 0x40 MLOAD PUSH3 0x461BCD PUSH1 0xE5 SHL DUP2 MSTORE PUSH1 0x20 PUSH1 0x4 DUP3 ADD MSTORE PUSH1 0xF PUSH1 0x24 DUP3 ADD MSTORE PUSH15 0x6C656E677468206E6F742073616D65 PUSH1 0x88 SHL PUSH1 0x44 DUP3 ADD MSTORE PUSH1 0x64 SWAP1 REVERT JUMPDEST DUP1 MLOAD DUP3 LT ISZERO PUSH2 0x1D44 JUMPI PUSH1 0x20 SWAP2 PUSH1 0x5 SHL ADD ADD SWAP1 JUMP JUMPDEST SWAP1 PUSH1 0x0 SWAP2 PUSH1 0x1 SWAP1 DUP2 SLOAD SWAP2 PUSH2 0x1F22 DUP4 PUSH2 0x1CA2 JUMP JUMPDEST SWAP3 DUP2 DUP2 AND SWAP1 DUP2 ISZERO PUSH2 0x1F8A JUMPI POP PUSH1 0x1 EQ PUSH2 0x1F3A JUMPI POP POP POP JUMP JUMPDEST DUP1 SWAP2 SWAP3 SWAP4 SWAP5 POP PUSH1 0x0 MSTORE PUSH32 0xB10E2D527612073B26EECDFD717E6A320CF44B4AFAC2B0732D9FCBE2B7FA0CF6 SWAP1 PUSH1 0x0 SWAP2 JUMPDEST DUP5 DUP4 LT PUSH2 0x1F77 JUMPI POP POP POP ADD SWAP1 JUMP JUMPDEST DUP2 DUP2 PUSH1 0x20 SWAP3 SLOAD DUP6 DUP8 ADD MSTORE ADD SWAP3 ADD SWAP2 PUSH2 0x1F69 JUMP JUMPDEST PUSH1 0xFF NOT AND DUP4 MSTORE POP POP DUP2 ISZERO ISZERO SWAP1 SWAP2 MUL ADD SWAP2 POP JUMP JUMPDEST SWAP6 SWAP5 SWAP4 SWAP1 PUSH1 0x80 SWAP4 PUSH2 0x1FDA SWAP4 PUSH2 0x1FCC SWAP3 PUSH1 0x1 DUP1 PUSH1 0xA0 SHL SUB AND DUP10 MSTORE PUSH1 0x20 DUP10 ADD MSTORE PUSH1 0xA0 PUSH1 0x40 DUP10 ADD MSTORE PUSH1 0xA0 DUP9 ADD SWAP1 PUSH2 0x1C7D JUMP JUMPDEST SWAP1 DUP7 DUP3 SUB PUSH1 0x60 DUP9 ADD MSTORE PUSH2 0x1C7D JUMP JUMPDEST SWAP4 ADD MSTORE JUMP JUMPDEST SWAP2 SWAP1 DUP3 SUB SWAP2 DUP3 GT PUSH2 0x1D1D JUMPI JUMP JUMPDEST DUP1 ISZERO PUSH2 0x2084 JUMPI DUP1 DUP2 PUSH1 0x0 SWAP3 JUMPDEST PUSH2 0x2070 JUMPI POP DUP1 PUSH2 0x2007 DUP4 PUSH2 0x1CDC JUMP JUMPDEST SWAP3 SWAP2 JUMPDEST PUSH2 0x2013 JUMPI POP POP SWAP1 JUMP JUMPDEST PUSH1 0x0 NOT DUP3 ADD SWAP2 DUP3 GT PUSH2 0x1D1D JUMPI DUP2 PUSH1 0xA DUP1 DUP4 DIV SWAP3 DUP2 DUP5 MUL SWAP2 DUP5 DUP4 DIV EQ DUP5 ISZERO OR ISZERO PUSH2 0x1D1D JUMPI PUSH2 0x2043 PUSH1 0xFF SWAP3 DUP4 SWAP3 PUSH2 0x1FDF JUMP JUMPDEST AND PUSH1 0x30 ADD SWAP1 DUP2 GT PUSH2 0x1D1D JUMPI PUSH1 0xF8 SHL PUSH1 0x1 PUSH1 0x1 PUSH1 0xF8 SHL SUB NOT AND PUSH1 0x0 BYTE SWAP1 PUSH2 0x2069 SWAP1 DUP6 PUSH2 0x1D33 JUMP JUMPDEST MSTORE8 DUP1 PUSH2 0x200A JUMP JUMPDEST SWAP2 PUSH2 0x207C PUSH1 0xA SWAP2 PUSH2 0x1D0E JUMP JUMPDEST SWAP3 DIV DUP1 PUSH2 0x1FF8 JUMP JUMPDEST POP PUSH1 0x40 MLOAD PUSH2 0x2091 DUP2 PUSH2 0x1A57 JUMP JUMPDEST PUSH1 0x1 DUP2 MSTORE PUSH1 0x3 PUSH1 0xFC SHL PUSH1 0x20 DUP3 ADD MSTORE SWAP1 JUMP JUMPDEST SWAP1 DUP2 PUSH1 0x20 SWAP2 SUB SLT PUSH2 0x85E JUMPI MLOAD PUSH1 0x1 PUSH1 0x1 PUSH1 0xA0 SHL SUB DUP2 AND DUP2 SUB PUSH2 0x85E JUMPI SWAP1 JUMP JUMPDEST ISZERO PUSH2 0x20C8 JUMPI JUMP JUMPDEST PUSH1 0x40 MLOAD PUSH3 0x461BCD PUSH1 0xE5 SHL DUP2 MSTORE PUSH1 0x20 PUSH1 0x4 DUP3 ADD MSTORE PUSH1 0x15 PUSH1 0x24 DUP3 ADD MSTORE PUSH21 0x39BAB838363C903B30B63AB29034B99032B93937B9 PUSH1 0x59 SHL PUSH1 0x44 DUP3 ADD MSTORE PUSH1 0x64 SWAP1 REVERT JUMPDEST ISZERO PUSH2 0x210C JUMPI JUMP JUMPDEST PUSH1 0x40 MLOAD PUSH3 0x461BCD PUSH1 0xE5 SHL DUP2 MSTORE PUSH1 0x20 PUSH1 0x4 DUP3 ADD MSTORE PUSH1 0x24 DUP1 DUP3 ADD MSTORE PUSH32 0x5065726D697373696F6E2064656E6965643A6E66742069742773206E6F742079 PUSH1 0x44 DUP3 ADD MSTORE PUSH4 0x6F757273 PUSH1 0xE0 SHL PUSH1 0x64 DUP3 ADD MSTORE PUSH1 0x84 SWAP1 REVERT JUMPDEST ISZERO PUSH2 0x2164 JUMPI JUMP JUMPDEST PUSH1 0x40 MLOAD PUSH3 0x461BCD PUSH1 0xE5 SHL DUP2 MSTORE PUSH1 0x20 PUSH1 0x4 DUP3 ADD MSTORE PUSH1 0x1A PUSH1 0x24 DUP3 ADD MSTORE PUSH32 0x7072696365206D757374206D6F7265207468616E207468652030000000000000 PUSH1 0x44 DUP3 ADD MSTORE PUSH1 0x64 SWAP1 REVERT INVALID LOG2 PUSH5 0x6970667358 0x22 SLT KECCAK256 BALANCE SWAP4 0xA8 GASLIMIT PUSH21 0x60F6BE6C565F9867DA1C7B86B9CD06F1531A9A37D5 0x29 0xE0 PUSH3 0x7E8DAF PUSH5 0x736F6C6343 STOP ADDMOD GT STOP CALLER "},"methodIdentifiers":{"batchAll(address[],uint256[],string[],string[],address[],address[],uint256[],uint256[],string[],string[],uint256[],uint256[],string[])":"df36914a","batchLock1155(address,address[],uint256[],string[],string[],uint256[],uint256[],string[])":"ce73136f","batchMint721(address,address[],string[],uint256[])":"1546f67f","batchSell(address[],uint256[],uint256[])":"3edbed19","bytesToHex(bytes)":"451d89fa","cancelSell(address,uint256)":"aa6ecb55","sell(address,uint256,uint256)":"6a272462","version()":"54fd4d50"}}}}}