{"contracts/Robot.sol":{"Robot":{"abi":[{"inputs":[{"internalType":"string","name":"_versoion","type":"string"},{"internalType":"string","name":"_salt","type":"string"}],"stateMutability":"nonpayable","type":"constructor"},{"anonymous":false,"inputs":[{"indexed":true,"internalType":"address","name":"contractAddress","type":"address"},{"indexed":true,"internalType":"uint256","name":"cType","type":"uint256"},{"indexed":true,"internalType":"uint256","name":"tokenId","type":"uint256"},{"indexed":false,"internalType":"address","name":"from","type":"address"},{"indexed":false,"internalType":"address","name":"to","type":"address"},{"indexed":false,"internalType":"uint256","name":"amount","type":"uint256"},{"indexed":false,"internalType":"uint256","name":"price","type":"uint256"}],"name":"Buy","type":"event"},{"anonymous":false,"inputs":[{"indexed":false,"internalType":"address","name":"c","type":"address"},{"indexed":true,"internalType":"uint256","name":"tokenId","type":"uint256"}],"name":"CancelSell721","type":"event"},{"anonymous":false,"inputs":[{"indexed":true,"internalType":"uint256","name":"tokenId","type":"uint256"}],"name":"Lock1155","type":"event"},{"anonymous":false,"inputs":[{"indexed":true,"internalType":"address","name":"c","type":"address"},{"indexed":true,"internalType":"uint256","name":"tokenId","type":"uint256"},{"indexed":true,"internalType":"uint256","name":"collectionId","type":"uint256"},{"indexed":false,"internalType":"address","name":"createBy","type":"address"},{"indexed":false,"internalType":"address","name":"to","type":"address"}],"name":"Mint721","type":"event"},{"anonymous":false,"inputs":[{"indexed":false,"internalType":"address","name":"c","type":"address"},{"indexed":true,"internalType":"uint256","name":"tokenId","type":"uint256"},{"indexed":true,"internalType":"uint256","name":"price","type":"uint256"}],"name":"Sell721","type":"event"},{"inputs":[{"internalType":"address[]","name":"addresses","type":"address[]"},{"internalType":"uint256[]","name":"types","type":"uint256[]"},{"internalType":"string[]","name":"orderIds","type":"string[]"},{"internalType":"string[]","name":"orderHashs","type":"string[]"},{"internalType":"address[]","name":"froms","type":"address[]"},{"internalType":"address[]","name":"tos","type":"address[]"},{"internalType":"uint256[]","name":"tokenIds","type":"uint256[]"},{"internalType":"uint256[]","name":"amounts","type":"uint256[]"},{"internalType":"string[]","name":"tokenURIs","type":"string[]"},{"internalType":"string[]","name":"names","type":"string[]"},{"internalType":"uint256[]","name":"values","type":"uint256[]"}],"name":"batchAll","outputs":[],"stateMutability":"payable","type":"function"},{"inputs":[{"internalType":"address","name":"erc1155","type":"address"},{"internalType":"address[]","name":"tos","type":"address[]"},{"internalType":"uint256[]","name":"tokenIds","type":"uint256[]"},{"internalType":"string[]","name":"names","type":"string[]"},{"internalType":"string[]","name":"tokenURIs","type":"string[]"},{"internalType":"uint256[]","name":"amounts","type":"uint256[]"}],"name":"batchLockt1155","outputs":[],"stateMutability":"payable","type":"function"},{"inputs":[{"internalType":"address","name":"erc721","type":"address"},{"internalType":"address[]","name":"accounts","type":"address[]"},{"internalType":"string[]","name":"tokenURIs","type":"string[]"},{"internalType":"uint256[]","name":"collectionIds","type":"uint256[]"}],"name":"batchMint721","outputs":[],"stateMutability":"nonpayable","type":"function"},{"inputs":[{"internalType":"bytes","name":"buffer","type":"bytes"}],"name":"bytesToHex","outputs":[{"internalType":"string","name":"","type":"string"}],"stateMutability":"pure","type":"function"},{"inputs":[{"internalType":"address","name":"c","type":"address"},{"internalType":"uint256","name":"tokenId","type":"uint256"}],"name":"cancelSell","outputs":[],"stateMutability":"nonpayable","type":"function"},{"inputs":[{"internalType":"address","name":"c","type":"address"},{"internalType":"uint256","name":"tokenId","type":"uint256"},{"internalType":"uint256","name":"price","type":"uint256"}],"name":"sell","outputs":[],"stateMutability":"nonpayable","type":"function"},{"inputs":[],"name":"version","outputs":[{"internalType":"string","name":"","type":"string"}],"stateMutability":"view","type":"function"}],"evm":{"bytecode":{"linkReferences":{},"object":"60806040523480156200001157600080fd5b5060405162003873380380620038738339818101604052810190620000379190620001f6565b8160009081620000489190620004c6565b5080600190816200005a9190620004c6565b505050620005ad565b6000604051905090565b600080fd5b600080fd5b600080fd5b600080fd5b6000601f19601f8301169050919050565b7f4e487b7100000000000000000000000000000000000000000000000000000000600052604160045260246000fd5b620000cc8262000081565b810181811067ffffffffffffffff82111715620000ee57620000ed62000092565b5b80604052505050565b60006200010362000063565b9050620001118282620000c1565b919050565b600067ffffffffffffffff82111562000134576200013362000092565b5b6200013f8262000081565b9050602081019050919050565b60005b838110156200016c5780820151818401526020810190506200014f565b60008484015250505050565b60006200018f620001898462000116565b620000f7565b905082815260208101848484011115620001ae57620001ad6200007c565b5b620001bb8482856200014c565b509392505050565b600082601f830112620001db57620001da62000077565b5b8151620001ed84826020860162000178565b91505092915050565b6000806040838503121562000210576200020f6200006d565b5b600083015167ffffffffffffffff81111562000231576200023062000072565b5b6200023f85828601620001c3565b925050602083015167ffffffffffffffff81111562000263576200026262000072565b5b6200027185828601620001c3565b9150509250929050565b600081519050919050565b7f4e487b7100000000000000000000000000000000000000000000000000000000600052602260045260246000fd5b60006002820490506001821680620002ce57607f821691505b602082108103620002e457620002e362000286565b5b50919050565b60008190508160005260206000209050919050565b60006020601f8301049050919050565b600082821b905092915050565b6000600883026200034e7fffffffffffffffffffffffffffffffffffffffffffffffffffffffffffffffff826200030f565b6200035a86836200030f565b95508019841693508086168417925050509392505050565b6000819050919050565b6000819050919050565b6000620003a7620003a16200039b8462000372565b6200037c565b62000372565b9050919050565b6000819050919050565b620003c38362000386565b620003db620003d282620003ae565b8484546200031c565b825550505050565b600090565b620003f2620003e3565b620003ff818484620003b8565b505050565b5b8181101562000427576200041b600082620003e8565b60018101905062000405565b5050565b601f82111562000476576200044081620002ea565b6200044b84620002ff565b810160208510156200045b578190505b620004736200046a85620002ff565b83018262000404565b50505b505050565b600082821c905092915050565b60006200049b600019846008026200047b565b1980831691505092915050565b6000620004b6838362000488565b9150826002028217905092915050565b620004d1826200027b565b67ffffffffffffffff811115620004ed57620004ec62000092565b5b620004f98254620002b5565b620005068282856200042b565b600060209050601f8311600181146200053e576000841562000529578287015190505b620005358582620004a8565b865550620005a5565b601f1984166200054e86620002ea565b60005b82811015620005785784890151825560018201915060208501945060208101905062000551565b8683101562000598578489015162000594601f89168262000488565b8355505b6001600288020188555050505b505050505050565b6132b680620005bd6000396000f3fe6080604052600436106100705760003560e01c806354fd4d501161004e57806354fd4d50146100f75780636a27246214610122578063aa6ecb551461014b578063abc04d8a1461017457610070565b80631546f67f14610075578063451d89fa1461009e578063486115c1146100db575b600080fd5b34801561008157600080fd5b5061009c60048036038101906100979190611fe8565b610190565b005b3480156100aa57600080fd5b506100c560048036038101906100c09190612144565b6103ae565b6040516100d2919061220c565b60405180910390f35b6100f560048036038101906100f0919061222e565b6105d3565b005b34801561010357600080fd5b5061010c6107a2565b604051610119919061220c565b60405180910390f35b34801561012e57600080fd5b5061014960048036038101906101449190612347565b610834565b005b34801561015757600080fd5b50610172600480360381019061016d919061239a565b6109b4565b005b61018e600480360381019061018991906123da565b610b44565b005b815183511480156101a2575080518251145b6101e1576040517f08c379a00000000000000000000000000000000000000000000000000000000081526004016101d89061264e565b60405180910390fd5b60005b83518110156103a757600060018673ffffffffffffffffffffffffffffffffffffffff1663e00dd1616040518163ffffffff1660e01b8152600401602060405180830381865afa15801561023c573d6000803e3d6000fd5b505050506040513d601f19601f820116820180604052508101906102609190612683565b61026a91906126df565b905082828151811061027f5761027e612713565b5b6020026020010151818773ffffffffffffffffffffffffffffffffffffffff167fa491b2906955de9b9a0a0e6d8d87c1688f5207237fe435504138a6b00e7e92e8338987815181106102d4576102d3612713565b5b60200260200101516040516102ea929190612751565b60405180910390a48573ffffffffffffffffffffffffffffffffffffffff1663d0def52186848151811061032157610320612713565b5b602002602001015186858151811061033c5761033b612713565b5b60200260200101516040518363ffffffff1660e01b815260040161036192919061277a565b600060405180830381600087803b15801561037b57600080fd5b505af115801561038f573d6000803e3d6000fd5b5050505050808061039f906127aa565b9150506101e4565b5050505050565b60606000600283516103c091906127f2565b67ffffffffffffffff8111156103d9576103d8611c16565b5b6040519080825280601f01601f19166020018201604052801561040b5781602001600182028036833780820191505090505b50905060006040518060400160405280601081526020017f3031323334353637383961626364656600000000000000000000000000000000815250905060005b84518110156105a95781825186838151811061046a57610469612713565b5b602001015160f81c60f81b60f81c60ff166104859190612863565b8151811061049657610495612713565b5b602001015160f81c60f81b836002836104af91906127f2565b815181106104c0576104bf612713565b5b60200101907effffffffffffffffffffffffffffffffffffffffffffffffffffffffffffff1916908160001a90535081825186838151811061050557610504612713565b5b602001015160f81c60f81b60f81c60ff166105209190612894565b8151811061053157610530612713565b5b602001015160f81c60f81b83600160028461054c91906127f2565b61055691906126df565b8151811061056757610566612713565b5b60200101907effffffffffffffffffffffffffffffffffffffffffffffffffffffffffffff1916908160001a90535080806105a1906127aa565b91505061044b565b50816040516020016105bb9190612963565b60405160208183030381529060405292505050919050565b835185511480156105e5575080518451145b80156105f2575081518151145b80156105ff575082518251145b61063e576040517f08c379a00000000000000000000000000000000000000000000000000000000081526004016106359061264e565b60405180910390fd5b60005b85518110156107995784818151811061065d5761065c612713565b5b60200260200101517f1584cade467323441f28ef89c6a3cdee444e1c31e57ca58b7a2e96ef6e0b6ef860405160405180910390a28673ffffffffffffffffffffffffffffffffffffffff1663af72bd918783815181106106c0576106bf612713565b5b60200260200101518784815181106106db576106da612713565b5b60200260200101518785815181106106f6576106f5612713565b5b602002602001015187868151811061071157610710612713565b5b602002602001015187878151811061072c5761072b612713565b5b60200260200101516040518663ffffffff1660e01b8152600401610754959493929190612994565b600060405180830381600087803b15801561076e57600080fd5b505af1158015610782573d6000803e3d6000fd5b505050508080610791906127aa565b915050610641565b50505050505050565b6060600080546107b190612a24565b80601f01602080910402602001604051908101604052809291908181526020018280546107dd90612a24565b801561082a5780601f106107ff5761010080835404028352916020019161082a565b820191906000526020600020905b81548152906001019060200180831161080d57829003601f168201915b5050505050905090565b3373ffffffffffffffffffffffffffffffffffffffff168373ffffffffffffffffffffffffffffffffffffffff16636352211e846040518263ffffffff1660e01b81526004016108849190612a55565b602060405180830381865afa1580156108a1573d6000803e3d6000fd5b505050506040513d601f19601f820116820180604052508101906108c59190612a85565b73ffffffffffffffffffffffffffffffffffffffff161461091b576040517f08c379a000000000000000000000000000000000000000000000000000000000815260040161091290612b24565b60405180910390fd5b6000811161095e576040517f08c379a000000000000000000000000000000000000000000000000000000000815260040161095590612b90565b60405180910390fd5b80600260008481526020019081526020016000208190555080827fcf5c0bd1db1bda5f264be4f84ee9dcd59f04653ca22197bbf710f2c3bb2b7c76856040516109a79190612bb0565b60405180910390a3505050565b3373ffffffffffffffffffffffffffffffffffffffff168273ffffffffffffffffffffffffffffffffffffffff16636352211e836040518263ffffffff1660e01b8152600401610a049190612a55565b602060405180830381865afa158015610a21573d6000803e3d6000fd5b505050506040513d601f19601f82011682018060405250810190610a459190612a85565b73ffffffffffffffffffffffffffffffffffffffff1614610a9b576040517f08c379a0000000000000000000000000000000000000000000000000000000008152600401610a9290612b24565b60405180910390fd5b6000600260008381526020019081526020016000205411610af1576040517f08c379a0000000000000000000000000000000000000000000000000000000008152600401610ae890612c17565b60405180910390fd5b6002600082815260200190815260200160002060009055807fa5700e6e137f0686a6aeb9ae573396b3ce22f929686865812dbda871081193b983604051610b389190612bb0565b60405180910390a25050565b89518b51148015610b56575088518a51145b8015610b63575087518951145b8015610b70575086518851145b8015610b7d575085518751145b8015610b8a575084518651145b8015610b97575083518551145b8015610ba4575082518451145b8015610bb1575081518351145b8015610bbe575080518251145b610bfd576040517f08c379a0000000000000000000000000000000000000000000000000000000008152600401610bf49061264e565b60405180910390fd5b6000805b8251811015610cf15760018c8281518110610c1f57610c1e612713565b5b602002602001015103610cb65760026000888381518110610c4357610c42612713565b5b6020026020010151815260200190815260200160002054838281518110610c6d57610c6c612713565b5b602002602001015114610cb5576040517f08c379a0000000000000000000000000000000000000000000000000000000008152600401610cac90612c83565b60405180910390fd5b5b828181518110610cc957610cc8612713565b5b602002602001015182610cdc91906126df565b91508080610ce9906127aa565b915050610c01565b50348114610d34576040517f08c379a0000000000000000000000000000000000000000000000000000000008152600401610d2b90612cef565b60405180910390fd5b60005b8c518110156119f75760028c8281518110610d5557610d54612713565b5b6020026020010151036115dc57868181518110610d7557610d74612713565b5b60200260200101518c8281518110610d9057610d8f612713565b5b60200260200101518e8381518110610dab57610daa612713565b5b602002602001015173ffffffffffffffffffffffffffffffffffffffff167f5477f9965f93d173424ef8e21fac70c586b2fdb903ecf743d7a0973e6bfe3c948c8581518110610dfd57610dfc612713565b5b60200260200101518c8681518110610e1857610e17612713565b5b60200260200101518b8781518110610e3357610e32612713565b5b6020026020010151898881518110610e4e57610e4d612713565b5b6020026020010151604051610e669493929190612d0f565b60405180910390a46000610ee560018d8481518110610e8857610e87612713565b5b6020026020010151610e9934611a06565b604051602001610eab93929190612e1d565b60405160208183030381529060405280519060200120604051602001610ed19190612e79565b6040516020818303038152906040526103ae565b90508a8281518110610efa57610ef9612713565b5b6020026020010151604051602001610f129190612e94565b6040516020818303038152906040528051906020012081604051602001610f399190612e94565b6040516020818303038152906040528051906020012014610f8f576040517f08c379a0000000000000000000000000000000000000000000000000000000008152600401610f8690612ef7565b60405180910390fd5b7fc5d2460186f7233c927e7db2dcc703c0e500b653ca82273b7bfad8045d85a4708e8381518110610fc357610fc2612713565b5b602002602001015173ffffffffffffffffffffffffffffffffffffffff16630e89341c8a8581518110610ff957610ff8612713565b5b60200260200101516040518263ffffffff1660e01b815260040161101d9190612a55565b600060405180830381865afa15801561103a573d6000803e3d6000fd5b505050506040513d6000823e3d601f19601f820116820180604052508101906110639190612f87565b6040516020016110739190612e94565b60405160208183030381529060405280519060200120036111a2578d82815181106110a1576110a0612713565b5b602002602001015173ffffffffffffffffffffffffffffffffffffffff1663af72bd918a84815181106110d7576110d6612713565b5b60200260200101518a85815181106110f2576110f1612713565b5b602002602001015188868151811061110d5761110c612713565b5b60200260200101518a878151811061112857611127612713565b5b60200260200101518c888151811061114357611142612713565b5b60200260200101516040518663ffffffff1660e01b815260040161116b959493929190612994565b600060405180830381600087803b15801561118557600080fd5b505af1158015611199573d6000803e3d6000fd5b50505050611476565b8682815181106111b5576111b4612713565b5b60200260200101518e83815181106111d0576111cf612713565b5b602002602001015173ffffffffffffffffffffffffffffffffffffffff1662fdd58e8c858151811061120557611204612713565b5b60200260200101518b86815181106112205761121f612713565b5b60200260200101516040518363ffffffff1660e01b8152600401611245929190612fd0565b602060405180830381865afa158015611262573d6000803e3d6000fd5b505050506040513d601f19601f820116820180604052508101906112869190612683565b10156114755760008e83815181106112a1576112a0612713565b5b602002602001015173ffffffffffffffffffffffffffffffffffffffff1662fdd58e8c85815181106112d6576112d5612713565b5b60200260200101518b86815181106112f1576112f0612713565b5b60200260200101516040518363ffffffff1660e01b8152600401611316929190612fd0565b602060405180830381865afa158015611333573d6000803e3d6000fd5b505050506040513d601f19601f820116820180604052508101906113579190612683565b90508e838151811061136c5761136b612713565b5b602002602001015173ffffffffffffffffffffffffffffffffffffffff1663af72bd918b85815181106113a2576113a1612713565b5b60200260200101518b86815181106113bd576113bc612713565b5b60200260200101518987815181106113d8576113d7612713565b5b60200260200101518b88815181106113f3576113f2612713565b5b6020026020010151868e8a8151811061140f5761140e612713565b5b60200260200101516114219190612ff9565b6040518663ffffffff1660e01b8152600401611441959493929190612994565b600060405180830381600087803b15801561145b57600080fd5b505af115801561146f573d6000803e3d6000fd5b50505050505b5b60003490508e838151811061148e5761148d612713565b5b602002602001015173ffffffffffffffffffffffffffffffffffffffff1663f242432a8c85815181106114c4576114c3612713565b5b60200260200101518c86815181106114df576114de612713565b5b60200260200101518c87815181106114fa576114f9612713565b5b60200260200101518c888151811061151557611514612713565b5b60200260200101516040518563ffffffff1660e01b815260040161153c9493929190613064565b600060405180830381600087803b15801561155657600080fd5b505af115801561156a573d6000803e3d6000fd5b5050505060008b848151811061158357611582612713565b5b602002602001015190508073ffffffffffffffffffffffffffffffffffffffff166108fc839081150290604051600060405180830381858888f193505050501580156115d3573d6000803e3d6000fd5b505050506119e4565b60018c82815181106115f1576115f0612713565b5b6020026020010151036119e35760008d828151811061161357611612612713565b5b602002602001015173ffffffffffffffffffffffffffffffffffffffff16636352211e89848151811061164957611648612713565b5b60200260200101516040518263ffffffff1660e01b815260040161166d9190612a55565b602060405180830381865afa15801561168a573d6000803e3d6000fd5b505050506040513d601f19601f820116820180604052508101906116ae9190612a85565b90508782815181106116c3576116c2612713565b5b60200260200101518d83815181106116de576116dd612713565b5b60200260200101518f84815181106116f9576116f8612713565b5b602002602001015173ffffffffffffffffffffffffffffffffffffffff167f5477f9965f93d173424ef8e21fac70c586b2fdb903ecf743d7a0973e6bfe3c94848d878151811061174c5761174b612713565b5b602002602001015160018a898151811061176957611768612713565b5b60200260200101516040516117819493929190613156565b60405180910390a46000600260008a85815181106117a2576117a1612713565b5b6020026020010151815260200190815260200160002054036117f9576040517f08c379a00000000000000000000000000000000000000000000000000000000081526004016117f0906131e7565b60405180910390fd5b600260008984815181106118105761180f612713565b5b60200260200101518152602001908152602001600020600090558d828151811061183d5761183c612713565b5b602002602001015173ffffffffffffffffffffffffffffffffffffffff166342842e0e8f848151811061187357611872612713565b5b602002602001015173ffffffffffffffffffffffffffffffffffffffff16636352211e8b86815181106118a9576118a8612713565b5b60200260200101516040518263ffffffff1660e01b81526004016118cd9190612a55565b602060405180830381865afa1580156118ea573d6000803e3d6000fd5b505050506040513d601f19601f8201168201806040525081019061190e9190612a85565b8b858151811061192157611920612713565b5b60200260200101518b868151811061193c5761193b612713565b5b60200260200101516040518463ffffffff1660e01b815260040161196293929190613207565b600060405180830381600087803b15801561197c57600080fd5b505af1158015611990573d6000803e3d6000fd5b5050505060003490508173ffffffffffffffffffffffffffffffffffffffff166108fc829081150290604051600060405180830381858888f193505050501580156119df573d6000803e3d6000fd5b5050505b5b80806119ef906127aa565b915050610d37565b50505050505050505050505050565b606060008203611a4d576040518060400160405280600181526020017f30000000000000000000000000000000000000000000000000000000000000008152509050611b89565b600082905060005b60008214611a7f578080611a68906127aa565b915050600a82611a789190612863565b9150611a55565b60008167ffffffffffffffff811115611a9b57611a9a611c16565b5b6040519080825280601f01601f191660200182016040528015611acd5781602001600182028036833780820191505090505b50905060008290505b60008614611b8157600181611aeb9190612ff9565b90506000600a8088611afd9190612863565b611b0791906127f2565b87611b129190612ff9565b6030611b1e919061324b565b905060008160f81b905080848481518110611b3c57611b3b612713565b5b60200101907effffffffffffffffffffffffffffffffffffffffffffffffffffffffffffff1916908160001a905350600a88611b789190612863565b97505050611ad6565b819450505050505b919050565b6000604051905090565b600080fd5b600080fd5b600073ffffffffffffffffffffffffffffffffffffffff82169050919050565b6000611bcd82611ba2565b9050919050565b611bdd81611bc2565b8114611be857600080fd5b50565b600081359050611bfa81611bd4565b92915050565b600080fd5b6000601f19601f8301169050919050565b7f4e487b7100000000000000000000000000000000000000000000000000000000600052604160045260246000fd5b611c4e82611c05565b810181811067ffffffffffffffff82111715611c6d57611c6c611c16565b5b80604052505050565b6000611c80611b8e565b9050611c8c8282611c45565b919050565b600067ffffffffffffffff821115611cac57611cab611c16565b5b602082029050602081019050919050565b600080fd5b6000611cd5611cd084611c91565b611c76565b90508083825260208201905060208402830185811115611cf857611cf7611cbd565b5b835b81811015611d215780611d0d8882611beb565b845260208401935050602081019050611cfa565b5050509392505050565b600082601f830112611d4057611d3f611c00565b5b8135611d50848260208601611cc2565b91505092915050565b600067ffffffffffffffff821115611d7457611d73611c16565b5b602082029050602081019050919050565b600080fd5b600067ffffffffffffffff821115611da557611da4611c16565b5b611dae82611c05565b9050602081019050919050565b82818337600083830152505050565b6000611ddd611dd884611d8a565b611c76565b905082815260208101848484011115611df957611df8611d85565b5b611e04848285611dbb565b509392505050565b600082601f830112611e2157611e20611c00565b5b8135611e31848260208601611dca565b91505092915050565b6000611e4d611e4884611d59565b611c76565b90508083825260208201905060208402830185811115611e7057611e6f611cbd565b5b835b81811015611eb757803567ffffffffffffffff811115611e9557611e94611c00565b5b808601611ea28982611e0c565b85526020850194505050602081019050611e72565b5050509392505050565b600082601f830112611ed657611ed5611c00565b5b8135611ee6848260208601611e3a565b91505092915050565b600067ffffffffffffffff821115611f0a57611f09611c16565b5b602082029050602081019050919050565b6000819050919050565b611f2e81611f1b565b8114611f3957600080fd5b50565b600081359050611f4b81611f25565b92915050565b6000611f64611f5f84611eef565b611c76565b90508083825260208201905060208402830185811115611f8757611f86611cbd565b5b835b81811015611fb05780611f9c8882611f3c565b845260208401935050602081019050611f89565b5050509392505050565b600082601f830112611fcf57611fce611c00565b5b8135611fdf848260208601611f51565b91505092915050565b6000806000806080858703121561200257612001611b98565b5b600061201087828801611beb565b945050602085013567ffffffffffffffff81111561203157612030611b9d565b5b61203d87828801611d2b565b935050604085013567ffffffffffffffff81111561205e5761205d611b9d565b5b61206a87828801611ec1565b925050606085013567ffffffffffffffff81111561208b5761208a611b9d565b5b61209787828801611fba565b91505092959194509250565b600067ffffffffffffffff8211156120be576120bd611c16565b5b6120c782611c05565b9050602081019050919050565b60006120e76120e2846120a3565b611c76565b90508281526020810184848401111561210357612102611d85565b5b61210e848285611dbb565b509392505050565b600082601f83011261212b5761212a611c00565b5b813561213b8482602086016120d4565b91505092915050565b60006020828403121561215a57612159611b98565b5b600082013567ffffffffffffffff81111561217857612177611b9d565b5b61218484828501612116565b91505092915050565b600081519050919050565b600082825260208201905092915050565b60005b838110156121c75780820151818401526020810190506121ac565b60008484015250505050565b60006121de8261218d565b6121e88185612198565b93506121f88185602086016121a9565b61220181611c05565b840191505092915050565b6000602082019050818103600083015261222681846121d3565b905092915050565b60008060008060008060c0878903121561224b5761224a611b98565b5b600061225989828a01611beb565b965050602087013567ffffffffffffffff81111561227a57612279611b9d565b5b61228689828a01611d2b565b955050604087013567ffffffffffffffff8111156122a7576122a6611b9d565b5b6122b389828a01611fba565b945050606087013567ffffffffffffffff8111156122d4576122d3611b9d565b5b6122e089828a01611ec1565b935050608087013567ffffffffffffffff81111561230157612300611b9d565b5b61230d89828a01611ec1565b92505060a087013567ffffffffffffffff81111561232e5761232d611b9d565b5b61233a89828a01611fba565b9150509295509295509295565b6000806000606084860312156123605761235f611b98565b5b600061236e86828701611beb565b935050602061237f86828701611f3c565b925050604061239086828701611f3c565b9150509250925092565b600080604083850312156123b1576123b0611b98565b5b60006123bf85828601611beb565b92505060206123d085828601611f3c565b9150509250929050565b60008060008060008060008060008060006101608c8e031215612400576123ff611b98565b5b60008c013567ffffffffffffffff81111561241e5761241d611b9d565b5b61242a8e828f01611d2b565b9b505060208c013567ffffffffffffffff81111561244b5761244a611b9d565b5b6124578e828f01611fba565b9a505060408c013567ffffffffffffffff81111561247857612477611b9d565b5b6124848e828f01611ec1565b99505060608c013567ffffffffffffffff8111156124a5576124a4611b9d565b5b6124b18e828f01611ec1565b98505060808c013567ffffffffffffffff8111156124d2576124d1611b9d565b5b6124de8e828f01611d2b565b97505060a08c013567ffffffffffffffff8111156124ff576124fe611b9d565b5b61250b8e828f01611d2b565b96505060c08c013567ffffffffffffffff81111561252c5761252b611b9d565b5b6125388e828f01611fba565b95505060e08c013567ffffffffffffffff81111561255957612558611b9d565b5b6125658e828f01611fba565b9450506101008c013567ffffffffffffffff81111561258757612586611b9d565b5b6125938e828f01611ec1565b9350506101208c013567ffffffffffffffff8111156125b5576125b4611b9d565b5b6125c18e828f01611ec1565b9250506101408c013567ffffffffffffffff8111156125e3576125e2611b9d565b5b6125ef8e828f01611fba565b9150509295989b509295989b9093969950565b7f6c656e677468206e6f742073616d650000000000000000000000000000000000600082015250565b6000612638600f83612198565b915061264382612602565b602082019050919050565b600060208201905081810360008301526126678161262b565b9050919050565b60008151905061267d81611f25565b92915050565b60006020828403121561269957612698611b98565b5b60006126a78482850161266e565b91505092915050565b7f4e487b7100000000000000000000000000000000000000000000000000000000600052601160045260246000fd5b60006126ea82611f1b565b91506126f583611f1b565b925082820190508082111561270d5761270c6126b0565b5b92915050565b7f4e487b7100000000000000000000000000000000000000000000000000000000600052603260045260246000fd5b61274b81611bc2565b82525050565b60006040820190506127666000830185612742565b6127736020830184612742565b9392505050565b600060408201905061278f6000830185612742565b81810360208301526127a181846121d3565b90509392505050565b60006127b582611f1b565b91507fffffffffffffffffffffffffffffffffffffffffffffffffffffffffffffffff82036127e7576127e66126b0565b5b600182019050919050565b60006127fd82611f1b565b915061280883611f1b565b925082820261281681611f1b565b9150828204841483151761282d5761282c6126b0565b5b5092915050565b7f4e487b7100000000000000000000000000000000000000000000000000000000600052601260045260246000fd5b600061286e82611f1b565b915061287983611f1b565b92508261288957612888612834565b5b828204905092915050565b600061289f82611f1b565b91506128aa83611f1b565b9250826128ba576128b9612834565b5b828206905092915050565b600081905092915050565b7f3078000000000000000000000000000000000000000000000000000000000000600082015250565b60006129066002836128c5565b9150612911826128d0565b600282019050919050565b600081519050919050565b600081905092915050565b600061293d8261291c565b6129478185612927565b93506129578185602086016121a9565b80840191505092915050565b600061296e826128f9565b915061297a8284612932565b915081905092915050565b61298e81611f1b565b82525050565b600060a0820190506129a96000830188612742565b6129b66020830187612985565b81810360408301526129c881866121d3565b905081810360608301526129dc81856121d3565b90506129eb6080830184612985565b9695505050505050565b7f4e487b7100000000000000000000000000000000000000000000000000000000600052602260045260246000fd5b60006002820490506001821680612a3c57607f821691505b602082108103612a4f57612a4e6129f5565b5b50919050565b6000602082019050612a6a6000830184612985565b92915050565b600081519050612a7f81611bd4565b92915050565b600060208284031215612a9b57612a9a611b98565b5b6000612aa984828501612a70565b91505092915050565b7f5065726d697373696f6e2064656e6965643a6e66742069742773206e6f74207960008201527f6f75727300000000000000000000000000000000000000000000000000000000602082015250565b6000612b0e602483612198565b9150612b1982612ab2565b604082019050919050565b60006020820190508181036000830152612b3d81612b01565b9050919050565b7f7072696365206d757374206d6f7265207468616e207468652030000000000000600082015250565b6000612b7a601a83612198565b9150612b8582612b44565b602082019050919050565b60006020820190508181036000830152612ba981612b6d565b9050919050565b6000602082019050612bc56000830184612742565b92915050565b7f6e6f742073656c6c696e67000000000000000000000000000000000000000000600082015250565b6000612c01600b83612198565b9150612c0c82612bcb565b602082019050919050565b60006020820190508181036000830152612c3081612bf4565b9050919050565b7f496e636f72726563742070726963650000000000000000000000000000000000600082015250565b6000612c6d600f83612198565b9150612c7882612c37565b602082019050919050565b60006020820190508181036000830152612c9c81612c60565b9050919050565b7f76616c756520213d2073756d2076616c75657300000000000000000000000000600082015250565b6000612cd9601383612198565b9150612ce482612ca3565b602082019050919050565b60006020820190508181036000830152612d0881612ccc565b9050919050565b6000608082019050612d246000830187612742565b612d316020830186612742565b612d3e6040830185612985565b612d4b6060830184612985565b95945050505050565b60008190508160005260206000209050919050565b60008154612d7681612a24565b612d8081866128c5565b94506001821660008114612d9b5760018114612db057612de3565b60ff1983168652811515820286019350612de3565b612db985612d54565b60005b83811015612ddb57815481890152600182019150602081019050612dbc565b838801955050505b50505092915050565b6000612df78261218d565b612e0181856128c5565b9350612e118185602086016121a9565b80840191505092915050565b6000612e298286612d69565b9150612e358285612dec565b9150612e418284612dec565b9150819050949350505050565b6000819050919050565b6000819050919050565b612e73612e6e82612e4e565b612e58565b82525050565b6000612e858284612e62565b60208201915081905092915050565b6000612ea08284612dec565b915081905092915050565b7f68617368206973206572726f7200000000000000000000000000000000000000600082015250565b6000612ee1600d83612198565b9150612eec82612eab565b602082019050919050565b60006020820190508181036000830152612f1081612ed4565b9050919050565b6000612f2a612f2584611d8a565b611c76565b905082815260208101848484011115612f4657612f45611d85565b5b612f518482856121a9565b509392505050565b600082601f830112612f6e57612f6d611c00565b5b8151612f7e848260208601612f17565b91505092915050565b600060208284031215612f9d57612f9c611b98565b5b600082015167ffffffffffffffff811115612fbb57612fba611b9d565b5b612fc784828501612f59565b91505092915050565b6000604082019050612fe56000830185612742565b612ff26020830184612985565b9392505050565b600061300482611f1b565b915061300f83611f1b565b9250828203905081811115613027576130266126b0565b5b92915050565b600082825260208201905092915050565b50565b600061304e60008361302d565b91506130598261303e565b600082019050919050565b600060a0820190506130796000830187612742565b6130866020830186612742565b6130936040830185612985565b6130a06060830184612985565b81810360808301526130b181613041565b905095945050505050565b6000819050919050565b60006130e16130dc6130d784611ba2565b6130bc565b611ba2565b9050919050565b60006130f3826130c6565b9050919050565b6000613105826130e8565b9050919050565b613115816130fa565b82525050565b6000819050919050565b600061314061313b6131368461311b565b6130bc565b611f1b565b9050919050565b61315081613125565b82525050565b600060808201905061316b600083018761310c565b6131786020830186612742565b6131856040830185613147565b6131926060830184612985565b95945050505050565b7f4974656d206e6f742073656c6c696e6700000000000000000000000000000000600082015250565b60006131d1601083612198565b91506131dc8261319b565b602082019050919050565b60006020820190508181036000830152613200816131c4565b9050919050565b600060608201905061321c6000830186612742565b6132296020830185612742565b6132366040830184612985565b949350505050565b600060ff82169050919050565b60006132568261323e565b91506132618361323e565b9250828201905060ff81111561327a576132796126b0565b5b9291505056fea26469706673582212202eb2de7f83d92fbee588bc706e1f7e458dea3e188a86e8ab31bd161ac5811d7964736f6c63430008110033","opcodes":"PUSH1 0x80 PUSH1 0x40 MSTORE CALLVALUE DUP1 ISZERO PUSH3 0x11 JUMPI PUSH1 0x0 DUP1 REVERT JUMPDEST POP PUSH1 0x40 MLOAD PUSH3 0x3873 CODESIZE SUB DUP1 PUSH3 0x3873 DUP4 CODECOPY DUP2 DUP2 ADD PUSH1 0x40 MSTORE DUP2 ADD SWAP1 PUSH3 0x37 SWAP2 SWAP1 PUSH3 0x1F6 JUMP JUMPDEST DUP2 PUSH1 0x0 SWAP1 DUP2 PUSH3 0x48 SWAP2 SWAP1 PUSH3 0x4C6 JUMP JUMPDEST POP DUP1 PUSH1 0x1 SWAP1 DUP2 PUSH3 0x5A SWAP2 SWAP1 PUSH3 0x4C6 JUMP JUMPDEST POP POP POP PUSH3 0x5AD JUMP JUMPDEST PUSH1 0x0 PUSH1 0x40 MLOAD SWAP1 POP SWAP1 JUMP JUMPDEST PUSH1 0x0 DUP1 REVERT JUMPDEST PUSH1 0x0 DUP1 REVERT JUMPDEST PUSH1 0x0 DUP1 REVERT JUMPDEST PUSH1 0x0 DUP1 REVERT JUMPDEST PUSH1 0x0 PUSH1 0x1F NOT PUSH1 0x1F DUP4 ADD AND SWAP1 POP SWAP2 SWAP1 POP JUMP JUMPDEST PUSH32 0x4E487B7100000000000000000000000000000000000000000000000000000000 PUSH1 0x0 MSTORE PUSH1 0x41 PUSH1 0x4 MSTORE PUSH1 0x24 PUSH1 0x0 REVERT JUMPDEST PUSH3 0xCC DUP3 PUSH3 0x81 JUMP JUMPDEST DUP2 ADD DUP2 DUP2 LT PUSH8 0xFFFFFFFFFFFFFFFF DUP3 GT OR ISZERO PUSH3 0xEE JUMPI PUSH3 0xED PUSH3 0x92 JUMP JUMPDEST JUMPDEST DUP1 PUSH1 0x40 MSTORE POP POP POP JUMP JUMPDEST PUSH1 0x0 PUSH3 0x103 PUSH3 0x63 JUMP JUMPDEST SWAP1 POP PUSH3 0x111 DUP3 DUP3 PUSH3 0xC1 JUMP JUMPDEST SWAP2 SWAP1 POP JUMP JUMPDEST PUSH1 0x0 PUSH8 0xFFFFFFFFFFFFFFFF DUP3 GT ISZERO PUSH3 0x134 JUMPI PUSH3 0x133 PUSH3 0x92 JUMP JUMPDEST JUMPDEST PUSH3 0x13F DUP3 PUSH3 0x81 JUMP JUMPDEST SWAP1 POP PUSH1 0x20 DUP2 ADD SWAP1 POP SWAP2 SWAP1 POP JUMP JUMPDEST PUSH1 0x0 JUMPDEST DUP4 DUP2 LT ISZERO PUSH3 0x16C JUMPI DUP1 DUP3 ADD MLOAD DUP2 DUP5 ADD MSTORE PUSH1 0x20 DUP2 ADD SWAP1 POP PUSH3 0x14F JUMP JUMPDEST PUSH1 0x0 DUP5 DUP5 ADD MSTORE POP POP POP POP JUMP JUMPDEST PUSH1 0x0 PUSH3 0x18F PUSH3 0x189 DUP5 PUSH3 0x116 JUMP JUMPDEST PUSH3 0xF7 JUMP JUMPDEST SWAP1 POP DUP3 DUP2 MSTORE PUSH1 0x20 DUP2 ADD DUP5 DUP5 DUP5 ADD GT ISZERO PUSH3 0x1AE JUMPI PUSH3 0x1AD PUSH3 0x7C JUMP JUMPDEST JUMPDEST PUSH3 0x1BB DUP5 DUP3 DUP6 PUSH3 0x14C JUMP JUMPDEST POP SWAP4 SWAP3 POP POP POP JUMP JUMPDEST PUSH1 0x0 DUP3 PUSH1 0x1F DUP4 ADD SLT PUSH3 0x1DB JUMPI PUSH3 0x1DA PUSH3 0x77 JUMP JUMPDEST JUMPDEST DUP2 MLOAD PUSH3 0x1ED DUP5 DUP3 PUSH1 0x20 DUP7 ADD PUSH3 0x178 JUMP JUMPDEST SWAP2 POP POP SWAP3 SWAP2 POP POP JUMP JUMPDEST PUSH1 0x0 DUP1 PUSH1 0x40 DUP4 DUP6 SUB SLT ISZERO PUSH3 0x210 JUMPI PUSH3 0x20F PUSH3 0x6D JUMP JUMPDEST JUMPDEST PUSH1 0x0 DUP4 ADD MLOAD PUSH8 0xFFFFFFFFFFFFFFFF DUP2 GT ISZERO PUSH3 0x231 JUMPI PUSH3 0x230 PUSH3 0x72 JUMP JUMPDEST JUMPDEST PUSH3 0x23F DUP6 DUP3 DUP7 ADD PUSH3 0x1C3 JUMP JUMPDEST SWAP3 POP POP PUSH1 0x20 DUP4 ADD MLOAD PUSH8 0xFFFFFFFFFFFFFFFF DUP2 GT ISZERO PUSH3 0x263 JUMPI PUSH3 0x262 PUSH3 0x72 JUMP JUMPDEST JUMPDEST PUSH3 0x271 DUP6 DUP3 DUP7 ADD PUSH3 0x1C3 JUMP JUMPDEST SWAP2 POP POP SWAP3 POP SWAP3 SWAP1 POP JUMP JUMPDEST PUSH1 0x0 DUP2 MLOAD SWAP1 POP SWAP2 SWAP1 POP JUMP JUMPDEST PUSH32 0x4E487B7100000000000000000000000000000000000000000000000000000000 PUSH1 0x0 MSTORE PUSH1 0x22 PUSH1 0x4 MSTORE PUSH1 0x24 PUSH1 0x0 REVERT JUMPDEST PUSH1 0x0 PUSH1 0x2 DUP3 DIV SWAP1 POP PUSH1 0x1 DUP3 AND DUP1 PUSH3 0x2CE JUMPI PUSH1 0x7F DUP3 AND SWAP2 POP JUMPDEST PUSH1 0x20 DUP3 LT DUP2 SUB PUSH3 0x2E4 JUMPI PUSH3 0x2E3 PUSH3 0x286 JUMP JUMPDEST JUMPDEST POP SWAP2 SWAP1 POP JUMP JUMPDEST PUSH1 0x0 DUP2 SWAP1 POP DUP2 PUSH1 0x0 MSTORE PUSH1 0x20 PUSH1 0x0 KECCAK256 SWAP1 POP SWAP2 SWAP1 POP JUMP JUMPDEST PUSH1 0x0 PUSH1 0x20 PUSH1 0x1F DUP4 ADD DIV SWAP1 POP SWAP2 SWAP1 POP JUMP JUMPDEST PUSH1 0x0 DUP3 DUP3 SHL SWAP1 POP SWAP3 SWAP2 POP POP JUMP JUMPDEST PUSH1 0x0 PUSH1 0x8 DUP4 MUL PUSH3 0x34E PUSH32 0xFFFFFFFFFFFFFFFFFFFFFFFFFFFFFFFFFFFFFFFFFFFFFFFFFFFFFFFFFFFFFFFF DUP3 PUSH3 0x30F JUMP JUMPDEST PUSH3 0x35A DUP7 DUP4 PUSH3 0x30F JUMP JUMPDEST SWAP6 POP DUP1 NOT DUP5 AND SWAP4 POP DUP1 DUP7 AND DUP5 OR SWAP3 POP POP POP SWAP4 SWAP3 POP POP POP JUMP JUMPDEST PUSH1 0x0 DUP2 SWAP1 POP SWAP2 SWAP1 POP JUMP JUMPDEST PUSH1 0x0 DUP2 SWAP1 POP SWAP2 SWAP1 POP JUMP JUMPDEST PUSH1 0x0 PUSH3 0x3A7 PUSH3 0x3A1 PUSH3 0x39B DUP5 PUSH3 0x372 JUMP JUMPDEST PUSH3 0x37C JUMP JUMPDEST PUSH3 0x372 JUMP JUMPDEST SWAP1 POP SWAP2 SWAP1 POP JUMP JUMPDEST PUSH1 0x0 DUP2 SWAP1 POP SWAP2 SWAP1 POP JUMP JUMPDEST PUSH3 0x3C3 DUP4 PUSH3 0x386 JUMP JUMPDEST PUSH3 0x3DB PUSH3 0x3D2 DUP3 PUSH3 0x3AE JUMP JUMPDEST DUP5 DUP5 SLOAD PUSH3 0x31C JUMP JUMPDEST DUP3 SSTORE POP POP POP POP JUMP JUMPDEST PUSH1 0x0 SWAP1 JUMP JUMPDEST PUSH3 0x3F2 PUSH3 0x3E3 JUMP JUMPDEST PUSH3 0x3FF DUP2 DUP5 DUP5 PUSH3 0x3B8 JUMP JUMPDEST POP POP POP JUMP JUMPDEST JUMPDEST DUP2 DUP2 LT ISZERO PUSH3 0x427 JUMPI PUSH3 0x41B PUSH1 0x0 DUP3 PUSH3 0x3E8 JUMP JUMPDEST PUSH1 0x1 DUP2 ADD SWAP1 POP PUSH3 0x405 JUMP JUMPDEST POP POP JUMP JUMPDEST PUSH1 0x1F DUP3 GT ISZERO PUSH3 0x476 JUMPI PUSH3 0x440 DUP2 PUSH3 0x2EA JUMP JUMPDEST PUSH3 0x44B DUP5 PUSH3 0x2FF JUMP JUMPDEST DUP2 ADD PUSH1 0x20 DUP6 LT ISZERO PUSH3 0x45B JUMPI DUP2 SWAP1 POP JUMPDEST PUSH3 0x473 PUSH3 0x46A DUP6 PUSH3 0x2FF JUMP JUMPDEST DUP4 ADD DUP3 PUSH3 0x404 JUMP JUMPDEST POP POP JUMPDEST POP POP POP JUMP JUMPDEST PUSH1 0x0 DUP3 DUP3 SHR SWAP1 POP SWAP3 SWAP2 POP POP JUMP JUMPDEST PUSH1 0x0 PUSH3 0x49B PUSH1 0x0 NOT DUP5 PUSH1 0x8 MUL PUSH3 0x47B JUMP JUMPDEST NOT DUP1 DUP4 AND SWAP2 POP POP SWAP3 SWAP2 POP POP JUMP JUMPDEST PUSH1 0x0 PUSH3 0x4B6 DUP4 DUP4 PUSH3 0x488 JUMP JUMPDEST SWAP2 POP DUP3 PUSH1 0x2 MUL DUP3 OR SWAP1 POP SWAP3 SWAP2 POP POP JUMP JUMPDEST PUSH3 0x4D1 DUP3 PUSH3 0x27B JUMP JUMPDEST PUSH8 0xFFFFFFFFFFFFFFFF DUP2 GT ISZERO PUSH3 0x4ED JUMPI PUSH3 0x4EC PUSH3 0x92 JUMP JUMPDEST JUMPDEST PUSH3 0x4F9 DUP3 SLOAD PUSH3 0x2B5 JUMP JUMPDEST PUSH3 0x506 DUP3 DUP3 DUP6 PUSH3 0x42B JUMP JUMPDEST PUSH1 0x0 PUSH1 0x20 SWAP1 POP PUSH1 0x1F DUP4 GT PUSH1 0x1 DUP2 EQ PUSH3 0x53E JUMPI PUSH1 0x0 DUP5 ISZERO PUSH3 0x529 JUMPI DUP3 DUP8 ADD MLOAD SWAP1 POP JUMPDEST PUSH3 0x535 DUP6 DUP3 PUSH3 0x4A8 JUMP JUMPDEST DUP7 SSTORE POP PUSH3 0x5A5 JUMP JUMPDEST PUSH1 0x1F NOT DUP5 AND PUSH3 0x54E DUP7 PUSH3 0x2EA JUMP JUMPDEST PUSH1 0x0 JUMPDEST DUP3 DUP2 LT ISZERO PUSH3 0x578 JUMPI DUP5 DUP10 ADD MLOAD DUP3 SSTORE PUSH1 0x1 DUP3 ADD SWAP2 POP PUSH1 0x20 DUP6 ADD SWAP5 POP PUSH1 0x20 DUP2 ADD SWAP1 POP PUSH3 0x551 JUMP JUMPDEST DUP7 DUP4 LT ISZERO PUSH3 0x598 JUMPI DUP5 DUP10 ADD MLOAD PUSH3 0x594 PUSH1 0x1F DUP10 AND DUP3 PUSH3 0x488 JUMP JUMPDEST DUP4 SSTORE POP JUMPDEST PUSH1 0x1 PUSH1 0x2 DUP9 MUL ADD DUP9 SSTORE POP POP POP JUMPDEST POP POP POP POP POP POP JUMP JUMPDEST PUSH2 0x32B6 DUP1 PUSH3 0x5BD PUSH1 0x0 CODECOPY PUSH1 0x0 RETURN INVALID PUSH1 0x80 PUSH1 0x40 MSTORE PUSH1 0x4 CALLDATASIZE LT PUSH2 0x70 JUMPI PUSH1 0x0 CALLDATALOAD PUSH1 0xE0 SHR DUP1 PUSH4 0x54FD4D50 GT PUSH2 0x4E JUMPI DUP1 PUSH4 0x54FD4D50 EQ PUSH2 0xF7 JUMPI DUP1 PUSH4 0x6A272462 EQ PUSH2 0x122 JUMPI DUP1 PUSH4 0xAA6ECB55 EQ PUSH2 0x14B JUMPI DUP1 PUSH4 0xABC04D8A EQ PUSH2 0x174 JUMPI PUSH2 0x70 JUMP JUMPDEST DUP1 PUSH4 0x1546F67F EQ PUSH2 0x75 JUMPI DUP1 PUSH4 0x451D89FA EQ PUSH2 0x9E JUMPI DUP1 PUSH4 0x486115C1 EQ PUSH2 0xDB JUMPI JUMPDEST PUSH1 0x0 DUP1 REVERT JUMPDEST CALLVALUE DUP1 ISZERO PUSH2 0x81 JUMPI PUSH1 0x0 DUP1 REVERT JUMPDEST POP PUSH2 0x9C PUSH1 0x4 DUP1 CALLDATASIZE SUB DUP2 ADD SWAP1 PUSH2 0x97 SWAP2 SWAP1 PUSH2 0x1FE8 JUMP JUMPDEST PUSH2 0x190 JUMP JUMPDEST STOP JUMPDEST CALLVALUE DUP1 ISZERO PUSH2 0xAA JUMPI PUSH1 0x0 DUP1 REVERT JUMPDEST POP PUSH2 0xC5 PUSH1 0x4 DUP1 CALLDATASIZE SUB DUP2 ADD SWAP1 PUSH2 0xC0 SWAP2 SWAP1 PUSH2 0x2144 JUMP JUMPDEST PUSH2 0x3AE JUMP JUMPDEST PUSH1 0x40 MLOAD PUSH2 0xD2 SWAP2 SWAP1 PUSH2 0x220C JUMP JUMPDEST PUSH1 0x40 MLOAD DUP1 SWAP2 SUB SWAP1 RETURN JUMPDEST PUSH2 0xF5 PUSH1 0x4 DUP1 CALLDATASIZE SUB DUP2 ADD SWAP1 PUSH2 0xF0 SWAP2 SWAP1 PUSH2 0x222E JUMP JUMPDEST PUSH2 0x5D3 JUMP JUMPDEST STOP JUMPDEST CALLVALUE DUP1 ISZERO PUSH2 0x103 JUMPI PUSH1 0x0 DUP1 REVERT JUMPDEST POP PUSH2 0x10C PUSH2 0x7A2 JUMP JUMPDEST PUSH1 0x40 MLOAD PUSH2 0x119 SWAP2 SWAP1 PUSH2 0x220C JUMP JUMPDEST PUSH1 0x40 MLOAD DUP1 SWAP2 SUB SWAP1 RETURN JUMPDEST CALLVALUE DUP1 ISZERO PUSH2 0x12E JUMPI PUSH1 0x0 DUP1 REVERT JUMPDEST POP PUSH2 0x149 PUSH1 0x4 DUP1 CALLDATASIZE SUB DUP2 ADD SWAP1 PUSH2 0x144 SWAP2 SWAP1 PUSH2 0x2347 JUMP JUMPDEST PUSH2 0x834 JUMP JUMPDEST STOP JUMPDEST CALLVALUE DUP1 ISZERO PUSH2 0x157 JUMPI PUSH1 0x0 DUP1 REVERT JUMPDEST POP PUSH2 0x172 PUSH1 0x4 DUP1 CALLDATASIZE SUB DUP2 ADD SWAP1 PUSH2 0x16D SWAP2 SWAP1 PUSH2 0x239A JUMP JUMPDEST PUSH2 0x9B4 JUMP JUMPDEST STOP JUMPDEST PUSH2 0x18E PUSH1 0x4 DUP1 CALLDATASIZE SUB DUP2 ADD SWAP1 PUSH2 0x189 SWAP2 SWAP1 PUSH2 0x23DA JUMP JUMPDEST PUSH2 0xB44 JUMP JUMPDEST STOP JUMPDEST DUP2 MLOAD DUP4 MLOAD EQ DUP1 ISZERO PUSH2 0x1A2 JUMPI POP DUP1 MLOAD DUP3 MLOAD EQ JUMPDEST PUSH2 0x1E1 JUMPI PUSH1 0x40 MLOAD PUSH32 0x8C379A000000000000000000000000000000000000000000000000000000000 DUP2 MSTORE PUSH1 0x4 ADD PUSH2 0x1D8 SWAP1 PUSH2 0x264E JUMP JUMPDEST PUSH1 0x40 MLOAD DUP1 SWAP2 SUB SWAP1 REVERT JUMPDEST PUSH1 0x0 JUMPDEST DUP4 MLOAD DUP2 LT ISZERO PUSH2 0x3A7 JUMPI PUSH1 0x0 PUSH1 0x1 DUP7 PUSH20 0xFFFFFFFFFFFFFFFFFFFFFFFFFFFFFFFFFFFFFFFF AND PUSH4 0xE00DD161 PUSH1 0x40 MLOAD DUP2 PUSH4 0xFFFFFFFF AND PUSH1 0xE0 SHL DUP2 MSTORE PUSH1 0x4 ADD PUSH1 0x20 PUSH1 0x40 MLOAD DUP1 DUP4 SUB DUP2 DUP7 GAS STATICCALL ISZERO DUP1 ISZERO PUSH2 0x23C JUMPI RETURNDATASIZE PUSH1 0x0 DUP1 RETURNDATACOPY RETURNDATASIZE PUSH1 0x0 REVERT JUMPDEST POP POP POP POP PUSH1 0x40 MLOAD RETURNDATASIZE PUSH1 0x1F NOT PUSH1 0x1F DUP3 ADD AND DUP3 ADD DUP1 PUSH1 0x40 MSTORE POP DUP2 ADD SWAP1 PUSH2 0x260 SWAP2 SWAP1 PUSH2 0x2683 JUMP JUMPDEST PUSH2 0x26A SWAP2 SWAP1 PUSH2 0x26DF JUMP JUMPDEST SWAP1 POP DUP3 DUP3 DUP2 MLOAD DUP2 LT PUSH2 0x27F JUMPI PUSH2 0x27E PUSH2 0x2713 JUMP JUMPDEST JUMPDEST PUSH1 0x20 MUL PUSH1 0x20 ADD ADD MLOAD DUP2 DUP8 PUSH20 0xFFFFFFFFFFFFFFFFFFFFFFFFFFFFFFFFFFFFFFFF AND PUSH32 0xA491B2906955DE9B9A0A0E6D8D87C1688F5207237FE435504138A6B00E7E92E8 CALLER DUP10 DUP8 DUP2 MLOAD DUP2 LT PUSH2 0x2D4 JUMPI PUSH2 0x2D3 PUSH2 0x2713 JUMP JUMPDEST JUMPDEST PUSH1 0x20 MUL PUSH1 0x20 ADD ADD MLOAD PUSH1 0x40 MLOAD PUSH2 0x2EA SWAP3 SWAP2 SWAP1 PUSH2 0x2751 JUMP JUMPDEST PUSH1 0x40 MLOAD DUP1 SWAP2 SUB SWAP1 LOG4 DUP6 PUSH20 0xFFFFFFFFFFFFFFFFFFFFFFFFFFFFFFFFFFFFFFFF AND PUSH4 0xD0DEF521 DUP7 DUP5 DUP2 MLOAD DUP2 LT PUSH2 0x321 JUMPI PUSH2 0x320 PUSH2 0x2713 JUMP JUMPDEST JUMPDEST PUSH1 0x20 MUL PUSH1 0x20 ADD ADD MLOAD DUP7 DUP6 DUP2 MLOAD DUP2 LT PUSH2 0x33C JUMPI PUSH2 0x33B PUSH2 0x2713 JUMP JUMPDEST JUMPDEST PUSH1 0x20 MUL PUSH1 0x20 ADD ADD MLOAD PUSH1 0x40 MLOAD DUP4 PUSH4 0xFFFFFFFF AND PUSH1 0xE0 SHL DUP2 MSTORE PUSH1 0x4 ADD PUSH2 0x361 SWAP3 SWAP2 SWAP1 PUSH2 0x277A JUMP JUMPDEST PUSH1 0x0 PUSH1 0x40 MLOAD DUP1 DUP4 SUB DUP2 PUSH1 0x0 DUP8 DUP1 EXTCODESIZE ISZERO DUP1 ISZERO PUSH2 0x37B JUMPI PUSH1 0x0 DUP1 REVERT JUMPDEST POP GAS CALL ISZERO DUP1 ISZERO PUSH2 0x38F JUMPI RETURNDATASIZE PUSH1 0x0 DUP1 RETURNDATACOPY RETURNDATASIZE PUSH1 0x0 REVERT JUMPDEST POP POP POP POP POP DUP1 DUP1 PUSH2 0x39F SWAP1 PUSH2 0x27AA JUMP JUMPDEST SWAP2 POP POP PUSH2 0x1E4 JUMP JUMPDEST POP POP POP POP POP JUMP JUMPDEST PUSH1 0x60 PUSH1 0x0 PUSH1 0x2 DUP4 MLOAD PUSH2 0x3C0 SWAP2 SWAP1 PUSH2 0x27F2 JUMP JUMPDEST PUSH8 0xFFFFFFFFFFFFFFFF DUP2 GT ISZERO PUSH2 0x3D9 JUMPI PUSH2 0x3D8 PUSH2 0x1C16 JUMP JUMPDEST JUMPDEST PUSH1 0x40 MLOAD SWAP1 DUP1 DUP3 MSTORE DUP1 PUSH1 0x1F ADD PUSH1 0x1F NOT AND PUSH1 0x20 ADD DUP3 ADD PUSH1 0x40 MSTORE DUP1 ISZERO PUSH2 0x40B JUMPI DUP2 PUSH1 0x20 ADD PUSH1 0x1 DUP3 MUL DUP1 CALLDATASIZE DUP4 CALLDATACOPY DUP1 DUP3 ADD SWAP2 POP POP SWAP1 POP JUMPDEST POP SWAP1 POP PUSH1 0x0 PUSH1 0x40 MLOAD DUP1 PUSH1 0x40 ADD PUSH1 0x40 MSTORE DUP1 PUSH1 0x10 DUP2 MSTORE PUSH1 0x20 ADD PUSH32 0x3031323334353637383961626364656600000000000000000000000000000000 DUP2 MSTORE POP SWAP1 POP PUSH1 0x0 JUMPDEST DUP5 MLOAD DUP2 LT ISZERO PUSH2 0x5A9 JUMPI DUP2 DUP3 MLOAD DUP7 DUP4 DUP2 MLOAD DUP2 LT PUSH2 0x46A JUMPI PUSH2 0x469 PUSH2 0x2713 JUMP JUMPDEST JUMPDEST PUSH1 0x20 ADD ADD MLOAD PUSH1 0xF8 SHR PUSH1 0xF8 SHL PUSH1 0xF8 SHR PUSH1 0xFF AND PUSH2 0x485 SWAP2 SWAP1 PUSH2 0x2863 JUMP JUMPDEST DUP2 MLOAD DUP2 LT PUSH2 0x496 JUMPI PUSH2 0x495 PUSH2 0x2713 JUMP JUMPDEST JUMPDEST PUSH1 0x20 ADD ADD MLOAD PUSH1 0xF8 SHR PUSH1 0xF8 SHL DUP4 PUSH1 0x2 DUP4 PUSH2 0x4AF SWAP2 SWAP1 PUSH2 0x27F2 JUMP JUMPDEST DUP2 MLOAD DUP2 LT PUSH2 0x4C0 JUMPI PUSH2 0x4BF PUSH2 0x2713 JUMP JUMPDEST JUMPDEST PUSH1 0x20 ADD ADD SWAP1 PUSH31 0xFFFFFFFFFFFFFFFFFFFFFFFFFFFFFFFFFFFFFFFFFFFFFFFFFFFFFFFFFFFFFF NOT AND SWAP1 DUP2 PUSH1 0x0 BYTE SWAP1 MSTORE8 POP DUP2 DUP3 MLOAD DUP7 DUP4 DUP2 MLOAD DUP2 LT PUSH2 0x505 JUMPI PUSH2 0x504 PUSH2 0x2713 JUMP JUMPDEST JUMPDEST PUSH1 0x20 ADD ADD MLOAD PUSH1 0xF8 SHR PUSH1 0xF8 SHL PUSH1 0xF8 SHR PUSH1 0xFF AND PUSH2 0x520 SWAP2 SWAP1 PUSH2 0x2894 JUMP JUMPDEST DUP2 MLOAD DUP2 LT PUSH2 0x531 JUMPI PUSH2 0x530 PUSH2 0x2713 JUMP JUMPDEST JUMPDEST PUSH1 0x20 ADD ADD MLOAD PUSH1 0xF8 SHR PUSH1 0xF8 SHL DUP4 PUSH1 0x1 PUSH1 0x2 DUP5 PUSH2 0x54C SWAP2 SWAP1 PUSH2 0x27F2 JUMP JUMPDEST PUSH2 0x556 SWAP2 SWAP1 PUSH2 0x26DF JUMP JUMPDEST DUP2 MLOAD DUP2 LT PUSH2 0x567 JUMPI PUSH2 0x566 PUSH2 0x2713 JUMP JUMPDEST JUMPDEST PUSH1 0x20 ADD ADD SWAP1 PUSH31 0xFFFFFFFFFFFFFFFFFFFFFFFFFFFFFFFFFFFFFFFFFFFFFFFFFFFFFFFFFFFFFF NOT AND SWAP1 DUP2 PUSH1 0x0 BYTE SWAP1 MSTORE8 POP DUP1 DUP1 PUSH2 0x5A1 SWAP1 PUSH2 0x27AA JUMP JUMPDEST SWAP2 POP POP PUSH2 0x44B JUMP JUMPDEST POP DUP2 PUSH1 0x40 MLOAD PUSH1 0x20 ADD PUSH2 0x5BB SWAP2 SWAP1 PUSH2 0x2963 JUMP JUMPDEST PUSH1 0x40 MLOAD PUSH1 0x20 DUP2 DUP4 SUB SUB DUP2 MSTORE SWAP1 PUSH1 0x40 MSTORE SWAP3 POP POP POP SWAP2 SWAP1 POP JUMP JUMPDEST DUP4 MLOAD DUP6 MLOAD EQ DUP1 ISZERO PUSH2 0x5E5 JUMPI POP DUP1 MLOAD DUP5 MLOAD EQ JUMPDEST DUP1 ISZERO PUSH2 0x5F2 JUMPI POP DUP2 MLOAD DUP2 MLOAD EQ JUMPDEST DUP1 ISZERO PUSH2 0x5FF JUMPI POP DUP3 MLOAD DUP3 MLOAD EQ JUMPDEST PUSH2 0x63E JUMPI PUSH1 0x40 MLOAD PUSH32 0x8C379A000000000000000000000000000000000000000000000000000000000 DUP2 MSTORE PUSH1 0x4 ADD PUSH2 0x635 SWAP1 PUSH2 0x264E JUMP JUMPDEST PUSH1 0x40 MLOAD DUP1 SWAP2 SUB SWAP1 REVERT JUMPDEST PUSH1 0x0 JUMPDEST DUP6 MLOAD DUP2 LT ISZERO PUSH2 0x799 JUMPI DUP5 DUP2 DUP2 MLOAD DUP2 LT PUSH2 0x65D JUMPI PUSH2 0x65C PUSH2 0x2713 JUMP JUMPDEST JUMPDEST PUSH1 0x20 MUL PUSH1 0x20 ADD ADD MLOAD PUSH32 0x1584CADE467323441F28EF89C6A3CDEE444E1C31E57CA58B7A2E96EF6E0B6EF8 PUSH1 0x40 MLOAD PUSH1 0x40 MLOAD DUP1 SWAP2 SUB SWAP1 LOG2 DUP7 PUSH20 0xFFFFFFFFFFFFFFFFFFFFFFFFFFFFFFFFFFFFFFFF AND PUSH4 0xAF72BD91 DUP8 DUP4 DUP2 MLOAD DUP2 LT PUSH2 0x6C0 JUMPI PUSH2 0x6BF PUSH2 0x2713 JUMP JUMPDEST JUMPDEST PUSH1 0x20 MUL PUSH1 0x20 ADD ADD MLOAD DUP8 DUP5 DUP2 MLOAD DUP2 LT PUSH2 0x6DB JUMPI PUSH2 0x6DA PUSH2 0x2713 JUMP JUMPDEST JUMPDEST PUSH1 0x20 MUL PUSH1 0x20 ADD ADD MLOAD DUP8 DUP6 DUP2 MLOAD DUP2 LT PUSH2 0x6F6 JUMPI PUSH2 0x6F5 PUSH2 0x2713 JUMP JUMPDEST JUMPDEST PUSH1 0x20 MUL PUSH1 0x20 ADD ADD MLOAD DUP8 DUP7 DUP2 MLOAD DUP2 LT PUSH2 0x711 JUMPI PUSH2 0x710 PUSH2 0x2713 JUMP JUMPDEST JUMPDEST PUSH1 0x20 MUL PUSH1 0x20 ADD ADD MLOAD DUP8 DUP8 DUP2 MLOAD DUP2 LT PUSH2 0x72C JUMPI PUSH2 0x72B PUSH2 0x2713 JUMP JUMPDEST JUMPDEST PUSH1 0x20 MUL PUSH1 0x20 ADD ADD MLOAD PUSH1 0x40 MLOAD DUP7 PUSH4 0xFFFFFFFF AND PUSH1 0xE0 SHL DUP2 MSTORE PUSH1 0x4 ADD PUSH2 0x754 SWAP6 SWAP5 SWAP4 SWAP3 SWAP2 SWAP1 PUSH2 0x2994 JUMP JUMPDEST PUSH1 0x0 PUSH1 0x40 MLOAD DUP1 DUP4 SUB DUP2 PUSH1 0x0 DUP8 DUP1 EXTCODESIZE ISZERO DUP1 ISZERO PUSH2 0x76E JUMPI PUSH1 0x0 DUP1 REVERT JUMPDEST POP GAS CALL ISZERO DUP1 ISZERO PUSH2 0x782 JUMPI RETURNDATASIZE PUSH1 0x0 DUP1 RETURNDATACOPY RETURNDATASIZE PUSH1 0x0 REVERT JUMPDEST POP POP POP POP DUP1 DUP1 PUSH2 0x791 SWAP1 PUSH2 0x27AA JUMP JUMPDEST SWAP2 POP POP PUSH2 0x641 JUMP JUMPDEST POP POP POP POP POP POP POP JUMP JUMPDEST PUSH1 0x60 PUSH1 0x0 DUP1 SLOAD PUSH2 0x7B1 SWAP1 PUSH2 0x2A24 JUMP JUMPDEST DUP1 PUSH1 0x1F ADD PUSH1 0x20 DUP1 SWAP2 DIV MUL PUSH1 0x20 ADD PUSH1 0x40 MLOAD SWAP1 DUP2 ADD PUSH1 0x40 MSTORE DUP1 SWAP3 SWAP2 SWAP1 DUP2 DUP2 MSTORE PUSH1 0x20 ADD DUP3 DUP1 SLOAD PUSH2 0x7DD SWAP1 PUSH2 0x2A24 JUMP JUMPDEST DUP1 ISZERO PUSH2 0x82A JUMPI DUP1 PUSH1 0x1F LT PUSH2 0x7FF JUMPI PUSH2 0x100 DUP1 DUP4 SLOAD DIV MUL DUP4 MSTORE SWAP2 PUSH1 0x20 ADD SWAP2 PUSH2 0x82A JUMP JUMPDEST DUP3 ADD SWAP2 SWAP1 PUSH1 0x0 MSTORE PUSH1 0x20 PUSH1 0x0 KECCAK256 SWAP1 JUMPDEST DUP2 SLOAD DUP2 MSTORE SWAP1 PUSH1 0x1 ADD SWAP1 PUSH1 0x20 ADD DUP1 DUP4 GT PUSH2 0x80D JUMPI DUP3 SWAP1 SUB PUSH1 0x1F AND DUP3 ADD SWAP2 JUMPDEST POP POP POP POP POP SWAP1 POP SWAP1 JUMP JUMPDEST CALLER PUSH20 0xFFFFFFFFFFFFFFFFFFFFFFFFFFFFFFFFFFFFFFFF AND DUP4 PUSH20 0xFFFFFFFFFFFFFFFFFFFFFFFFFFFFFFFFFFFFFFFF AND PUSH4 0x6352211E DUP5 PUSH1 0x40 MLOAD DUP3 PUSH4 0xFFFFFFFF AND PUSH1 0xE0 SHL DUP2 MSTORE PUSH1 0x4 ADD PUSH2 0x884 SWAP2 SWAP1 PUSH2 0x2A55 JUMP JUMPDEST PUSH1 0x20 PUSH1 0x40 MLOAD DUP1 DUP4 SUB DUP2 DUP7 GAS STATICCALL ISZERO DUP1 ISZERO PUSH2 0x8A1 JUMPI RETURNDATASIZE PUSH1 0x0 DUP1 RETURNDATACOPY RETURNDATASIZE PUSH1 0x0 REVERT JUMPDEST POP POP POP POP PUSH1 0x40 MLOAD RETURNDATASIZE PUSH1 0x1F NOT PUSH1 0x1F DUP3 ADD AND DUP3 ADD DUP1 PUSH1 0x40 MSTORE POP DUP2 ADD SWAP1 PUSH2 0x8C5 SWAP2 SWAP1 PUSH2 0x2A85 JUMP JUMPDEST PUSH20 0xFFFFFFFFFFFFFFFFFFFFFFFFFFFFFFFFFFFFFFFF AND EQ PUSH2 0x91B JUMPI PUSH1 0x40 MLOAD PUSH32 0x8C379A000000000000000000000000000000000000000000000000000000000 DUP2 MSTORE PUSH1 0x4 ADD PUSH2 0x912 SWAP1 PUSH2 0x2B24 JUMP JUMPDEST PUSH1 0x40 MLOAD DUP1 SWAP2 SUB SWAP1 REVERT JUMPDEST PUSH1 0x0 DUP2 GT PUSH2 0x95E JUMPI PUSH1 0x40 MLOAD PUSH32 0x8C379A000000000000000000000000000000000000000000000000000000000 DUP2 MSTORE PUSH1 0x4 ADD PUSH2 0x955 SWAP1 PUSH2 0x2B90 JUMP JUMPDEST PUSH1 0x40 MLOAD DUP1 SWAP2 SUB SWAP1 REVERT JUMPDEST DUP1 PUSH1 0x2 PUSH1 0x0 DUP5 DUP2 MSTORE PUSH1 0x20 ADD SWAP1 DUP2 MSTORE PUSH1 0x20 ADD PUSH1 0x0 KECCAK256 DUP2 SWAP1 SSTORE POP DUP1 DUP3 PUSH32 0xCF5C0BD1DB1BDA5F264BE4F84EE9DCD59F04653CA22197BBF710F2C3BB2B7C76 DUP6 PUSH1 0x40 MLOAD PUSH2 0x9A7 SWAP2 SWAP1 PUSH2 0x2BB0 JUMP JUMPDEST PUSH1 0x40 MLOAD DUP1 SWAP2 SUB SWAP1 LOG3 POP POP POP JUMP JUMPDEST CALLER PUSH20 0xFFFFFFFFFFFFFFFFFFFFFFFFFFFFFFFFFFFFFFFF AND DUP3 PUSH20 0xFFFFFFFFFFFFFFFFFFFFFFFFFFFFFFFFFFFFFFFF AND PUSH4 0x6352211E DUP4 PUSH1 0x40 MLOAD DUP3 PUSH4 0xFFFFFFFF AND PUSH1 0xE0 SHL DUP2 MSTORE PUSH1 0x4 ADD PUSH2 0xA04 SWAP2 SWAP1 PUSH2 0x2A55 JUMP JUMPDEST PUSH1 0x20 PUSH1 0x40 MLOAD DUP1 DUP4 SUB DUP2 DUP7 GAS STATICCALL ISZERO DUP1 ISZERO PUSH2 0xA21 JUMPI RETURNDATASIZE PUSH1 0x0 DUP1 RETURNDATACOPY RETURNDATASIZE PUSH1 0x0 REVERT JUMPDEST POP POP POP POP PUSH1 0x40 MLOAD RETURNDATASIZE PUSH1 0x1F NOT PUSH1 0x1F DUP3 ADD AND DUP3 ADD DUP1 PUSH1 0x40 MSTORE POP DUP2 ADD SWAP1 PUSH2 0xA45 SWAP2 SWAP1 PUSH2 0x2A85 JUMP JUMPDEST PUSH20 0xFFFFFFFFFFFFFFFFFFFFFFFFFFFFFFFFFFFFFFFF AND EQ PUSH2 0xA9B JUMPI PUSH1 0x40 MLOAD PUSH32 0x8C379A000000000000000000000000000000000000000000000000000000000 DUP2 MSTORE PUSH1 0x4 ADD PUSH2 0xA92 SWAP1 PUSH2 0x2B24 JUMP JUMPDEST PUSH1 0x40 MLOAD DUP1 SWAP2 SUB SWAP1 REVERT JUMPDEST PUSH1 0x0 PUSH1 0x2 PUSH1 0x0 DUP4 DUP2 MSTORE PUSH1 0x20 ADD SWAP1 DUP2 MSTORE PUSH1 0x20 ADD PUSH1 0x0 KECCAK256 SLOAD GT PUSH2 0xAF1 JUMPI PUSH1 0x40 MLOAD PUSH32 0x8C379A000000000000000000000000000000000000000000000000000000000 DUP2 MSTORE PUSH1 0x4 ADD PUSH2 0xAE8 SWAP1 PUSH2 0x2C17 JUMP JUMPDEST PUSH1 0x40 MLOAD DUP1 SWAP2 SUB SWAP1 REVERT JUMPDEST PUSH1 0x2 PUSH1 0x0 DUP3 DUP2 MSTORE PUSH1 0x20 ADD SWAP1 DUP2 MSTORE PUSH1 0x20 ADD PUSH1 0x0 KECCAK256 PUSH1 0x0 SWAP1 SSTORE DUP1 PUSH32 0xA5700E6E137F0686A6AEB9AE573396B3CE22F929686865812DBDA871081193B9 DUP4 PUSH1 0x40 MLOAD PUSH2 0xB38 SWAP2 SWAP1 PUSH2 0x2BB0 JUMP JUMPDEST PUSH1 0x40 MLOAD DUP1 SWAP2 SUB SWAP1 LOG2 POP POP JUMP JUMPDEST DUP10 MLOAD DUP12 MLOAD EQ DUP1 ISZERO PUSH2 0xB56 JUMPI POP DUP9 MLOAD DUP11 MLOAD EQ JUMPDEST DUP1 ISZERO PUSH2 0xB63 JUMPI POP DUP8 MLOAD DUP10 MLOAD EQ JUMPDEST DUP1 ISZERO PUSH2 0xB70 JUMPI POP DUP7 MLOAD DUP9 MLOAD EQ JUMPDEST DUP1 ISZERO PUSH2 0xB7D JUMPI POP DUP6 MLOAD DUP8 MLOAD EQ JUMPDEST DUP1 ISZERO PUSH2 0xB8A JUMPI POP DUP5 MLOAD DUP7 MLOAD EQ JUMPDEST DUP1 ISZERO PUSH2 0xB97 JUMPI POP DUP4 MLOAD DUP6 MLOAD EQ JUMPDEST DUP1 ISZERO PUSH2 0xBA4 JUMPI POP DUP3 MLOAD DUP5 MLOAD EQ JUMPDEST DUP1 ISZERO PUSH2 0xBB1 JUMPI POP DUP2 MLOAD DUP4 MLOAD EQ JUMPDEST DUP1 ISZERO PUSH2 0xBBE JUMPI POP DUP1 MLOAD DUP3 MLOAD EQ JUMPDEST PUSH2 0xBFD JUMPI PUSH1 0x40 MLOAD PUSH32 0x8C379A000000000000000000000000000000000000000000000000000000000 DUP2 MSTORE PUSH1 0x4 ADD PUSH2 0xBF4 SWAP1 PUSH2 0x264E JUMP JUMPDEST PUSH1 0x40 MLOAD DUP1 SWAP2 SUB SWAP1 REVERT JUMPDEST PUSH1 0x0 DUP1 JUMPDEST DUP3 MLOAD DUP2 LT ISZERO PUSH2 0xCF1 JUMPI PUSH1 0x1 DUP13 DUP3 DUP2 MLOAD DUP2 LT PUSH2 0xC1F JUMPI PUSH2 0xC1E PUSH2 0x2713 JUMP JUMPDEST JUMPDEST PUSH1 0x20 MUL PUSH1 0x20 ADD ADD MLOAD SUB PUSH2 0xCB6 JUMPI PUSH1 0x2 PUSH1 0x0 DUP9 DUP4 DUP2 MLOAD DUP2 LT PUSH2 0xC43 JUMPI PUSH2 0xC42 PUSH2 0x2713 JUMP JUMPDEST JUMPDEST PUSH1 0x20 MUL PUSH1 0x20 ADD ADD MLOAD DUP2 MSTORE PUSH1 0x20 ADD SWAP1 DUP2 MSTORE PUSH1 0x20 ADD PUSH1 0x0 KECCAK256 SLOAD DUP4 DUP3 DUP2 MLOAD DUP2 LT PUSH2 0xC6D JUMPI PUSH2 0xC6C PUSH2 0x2713 JUMP JUMPDEST JUMPDEST PUSH1 0x20 MUL PUSH1 0x20 ADD ADD MLOAD EQ PUSH2 0xCB5 JUMPI PUSH1 0x40 MLOAD PUSH32 0x8C379A000000000000000000000000000000000000000000000000000000000 DUP2 MSTORE PUSH1 0x4 ADD PUSH2 0xCAC SWAP1 PUSH2 0x2C83 JUMP JUMPDEST PUSH1 0x40 MLOAD DUP1 SWAP2 SUB SWAP1 REVERT JUMPDEST JUMPDEST DUP3 DUP2 DUP2 MLOAD DUP2 LT PUSH2 0xCC9 JUMPI PUSH2 0xCC8 PUSH2 0x2713 JUMP JUMPDEST JUMPDEST PUSH1 0x20 MUL PUSH1 0x20 ADD ADD MLOAD DUP3 PUSH2 0xCDC SWAP2 SWAP1 PUSH2 0x26DF JUMP JUMPDEST SWAP2 POP DUP1 DUP1 PUSH2 0xCE9 SWAP1 PUSH2 0x27AA JUMP JUMPDEST SWAP2 POP POP PUSH2 0xC01 JUMP JUMPDEST POP CALLVALUE DUP2 EQ PUSH2 0xD34 JUMPI PUSH1 0x40 MLOAD PUSH32 0x8C379A000000000000000000000000000000000000000000000000000000000 DUP2 MSTORE PUSH1 0x4 ADD PUSH2 0xD2B SWAP1 PUSH2 0x2CEF JUMP JUMPDEST PUSH1 0x40 MLOAD DUP1 SWAP2 SUB SWAP1 REVERT JUMPDEST PUSH1 0x0 JUMPDEST DUP13 MLOAD DUP2 LT ISZERO PUSH2 0x19F7 JUMPI PUSH1 0x2 DUP13 DUP3 DUP2 MLOAD DUP2 LT PUSH2 0xD55 JUMPI PUSH2 0xD54 PUSH2 0x2713 JUMP JUMPDEST JUMPDEST PUSH1 0x20 MUL PUSH1 0x20 ADD ADD MLOAD SUB PUSH2 0x15DC JUMPI DUP7 DUP2 DUP2 MLOAD DUP2 LT PUSH2 0xD75 JUMPI PUSH2 0xD74 PUSH2 0x2713 JUMP JUMPDEST JUMPDEST PUSH1 0x20 MUL PUSH1 0x20 ADD ADD MLOAD DUP13 DUP3 DUP2 MLOAD DUP2 LT PUSH2 0xD90 JUMPI PUSH2 0xD8F PUSH2 0x2713 JUMP JUMPDEST JUMPDEST PUSH1 0x20 MUL PUSH1 0x20 ADD ADD MLOAD DUP15 DUP4 DUP2 MLOAD DUP2 LT PUSH2 0xDAB JUMPI PUSH2 0xDAA PUSH2 0x2713 JUMP JUMPDEST JUMPDEST PUSH1 0x20 MUL PUSH1 0x20 ADD ADD MLOAD PUSH20 0xFFFFFFFFFFFFFFFFFFFFFFFFFFFFFFFFFFFFFFFF AND PUSH32 0x5477F9965F93D173424EF8E21FAC70C586B2FDB903ECF743D7A0973E6BFE3C94 DUP13 DUP6 DUP2 MLOAD DUP2 LT PUSH2 0xDFD JUMPI PUSH2 0xDFC PUSH2 0x2713 JUMP JUMPDEST JUMPDEST PUSH1 0x20 MUL PUSH1 0x20 ADD ADD MLOAD DUP13 DUP7 DUP2 MLOAD DUP2 LT PUSH2 0xE18 JUMPI PUSH2 0xE17 PUSH2 0x2713 JUMP JUMPDEST JUMPDEST PUSH1 0x20 MUL PUSH1 0x20 ADD ADD MLOAD DUP12 DUP8 DUP2 MLOAD DUP2 LT PUSH2 0xE33 JUMPI PUSH2 0xE32 PUSH2 0x2713 JUMP JUMPDEST JUMPDEST PUSH1 0x20 MUL PUSH1 0x20 ADD ADD MLOAD DUP10 DUP9 DUP2 MLOAD DUP2 LT PUSH2 0xE4E JUMPI PUSH2 0xE4D PUSH2 0x2713 JUMP JUMPDEST JUMPDEST PUSH1 0x20 MUL PUSH1 0x20 ADD ADD MLOAD PUSH1 0x40 MLOAD PUSH2 0xE66 SWAP5 SWAP4 SWAP3 SWAP2 SWAP1 PUSH2 0x2D0F JUMP JUMPDEST PUSH1 0x40 MLOAD DUP1 SWAP2 SUB SWAP1 LOG4 PUSH1 0x0 PUSH2 0xEE5 PUSH1 0x1 DUP14 DUP5 DUP2 MLOAD DUP2 LT PUSH2 0xE88 JUMPI PUSH2 0xE87 PUSH2 0x2713 JUMP JUMPDEST JUMPDEST PUSH1 0x20 MUL PUSH1 0x20 ADD ADD MLOAD PUSH2 0xE99 CALLVALUE PUSH2 0x1A06 JUMP JUMPDEST PUSH1 0x40 MLOAD PUSH1 0x20 ADD PUSH2 0xEAB SWAP4 SWAP3 SWAP2 SWAP1 PUSH2 0x2E1D JUMP JUMPDEST PUSH1 0x40 MLOAD PUSH1 0x20 DUP2 DUP4 SUB SUB DUP2 MSTORE SWAP1 PUSH1 0x40 MSTORE DUP1 MLOAD SWAP1 PUSH1 0x20 ADD KECCAK256 PUSH1 0x40 MLOAD PUSH1 0x20 ADD PUSH2 0xED1 SWAP2 SWAP1 PUSH2 0x2E79 JUMP JUMPDEST PUSH1 0x40 MLOAD PUSH1 0x20 DUP2 DUP4 SUB SUB DUP2 MSTORE SWAP1 PUSH1 0x40 MSTORE PUSH2 0x3AE JUMP JUMPDEST SWAP1 POP DUP11 DUP3 DUP2 MLOAD DUP2 LT PUSH2 0xEFA JUMPI PUSH2 0xEF9 PUSH2 0x2713 JUMP JUMPDEST JUMPDEST PUSH1 0x20 MUL PUSH1 0x20 ADD ADD MLOAD PUSH1 0x40 MLOAD PUSH1 0x20 ADD PUSH2 0xF12 SWAP2 SWAP1 PUSH2 0x2E94 JUMP JUMPDEST PUSH1 0x40 MLOAD PUSH1 0x20 DUP2 DUP4 SUB SUB DUP2 MSTORE SWAP1 PUSH1 0x40 MSTORE DUP1 MLOAD SWAP1 PUSH1 0x20 ADD KECCAK256 DUP2 PUSH1 0x40 MLOAD PUSH1 0x20 ADD PUSH2 0xF39 SWAP2 SWAP1 PUSH2 0x2E94 JUMP JUMPDEST PUSH1 0x40 MLOAD PUSH1 0x20 DUP2 DUP4 SUB SUB DUP2 MSTORE SWAP1 PUSH1 0x40 MSTORE DUP1 MLOAD SWAP1 PUSH1 0x20 ADD KECCAK256 EQ PUSH2 0xF8F JUMPI PUSH1 0x40 MLOAD PUSH32 0x8C379A000000000000000000000000000000000000000000000000000000000 DUP2 MSTORE PUSH1 0x4 ADD PUSH2 0xF86 SWAP1 PUSH2 0x2EF7 JUMP JUMPDEST PUSH1 0x40 MLOAD DUP1 SWAP2 SUB SWAP1 REVERT JUMPDEST PUSH32 0xC5D2460186F7233C927E7DB2DCC703C0E500B653CA82273B7BFAD8045D85A470 DUP15 DUP4 DUP2 MLOAD DUP2 LT PUSH2 0xFC3 JUMPI PUSH2 0xFC2 PUSH2 0x2713 JUMP JUMPDEST JUMPDEST PUSH1 0x20 MUL PUSH1 0x20 ADD ADD MLOAD PUSH20 0xFFFFFFFFFFFFFFFFFFFFFFFFFFFFFFFFFFFFFFFF AND PUSH4 0xE89341C DUP11 DUP6 DUP2 MLOAD DUP2 LT PUSH2 0xFF9 JUMPI PUSH2 0xFF8 PUSH2 0x2713 JUMP JUMPDEST JUMPDEST PUSH1 0x20 MUL PUSH1 0x20 ADD ADD MLOAD PUSH1 0x40 MLOAD DUP3 PUSH4 0xFFFFFFFF AND PUSH1 0xE0 SHL DUP2 MSTORE PUSH1 0x4 ADD PUSH2 0x101D SWAP2 SWAP1 PUSH2 0x2A55 JUMP JUMPDEST PUSH1 0x0 PUSH1 0x40 MLOAD DUP1 DUP4 SUB DUP2 DUP7 GAS STATICCALL ISZERO DUP1 ISZERO PUSH2 0x103A JUMPI RETURNDATASIZE PUSH1 0x0 DUP1 RETURNDATACOPY RETURNDATASIZE PUSH1 0x0 REVERT JUMPDEST POP POP POP POP PUSH1 0x40 MLOAD RETURNDATASIZE PUSH1 0x0 DUP3 RETURNDATACOPY RETURNDATASIZE PUSH1 0x1F NOT PUSH1 0x1F DUP3 ADD AND DUP3 ADD DUP1 PUSH1 0x40 MSTORE POP DUP2 ADD SWAP1 PUSH2 0x1063 SWAP2 SWAP1 PUSH2 0x2F87 JUMP JUMPDEST PUSH1 0x40 MLOAD PUSH1 0x20 ADD PUSH2 0x1073 SWAP2 SWAP1 PUSH2 0x2E94 JUMP JUMPDEST PUSH1 0x40 MLOAD PUSH1 0x20 DUP2 DUP4 SUB SUB DUP2 MSTORE SWAP1 PUSH1 0x40 MSTORE DUP1 MLOAD SWAP1 PUSH1 0x20 ADD KECCAK256 SUB PUSH2 0x11A2 JUMPI DUP14 DUP3 DUP2 MLOAD DUP2 LT PUSH2 0x10A1 JUMPI PUSH2 0x10A0 PUSH2 0x2713 JUMP JUMPDEST JUMPDEST PUSH1 0x20 MUL PUSH1 0x20 ADD ADD MLOAD PUSH20 0xFFFFFFFFFFFFFFFFFFFFFFFFFFFFFFFFFFFFFFFF AND PUSH4 0xAF72BD91 DUP11 DUP5 DUP2 MLOAD DUP2 LT PUSH2 0x10D7 JUMPI PUSH2 0x10D6 PUSH2 0x2713 JUMP JUMPDEST JUMPDEST PUSH1 0x20 MUL PUSH1 0x20 ADD ADD MLOAD DUP11 DUP6 DUP2 MLOAD DUP2 LT PUSH2 0x10F2 JUMPI PUSH2 0x10F1 PUSH2 0x2713 JUMP JUMPDEST JUMPDEST PUSH1 0x20 MUL PUSH1 0x20 ADD ADD MLOAD DUP9 DUP7 DUP2 MLOAD DUP2 LT PUSH2 0x110D JUMPI PUSH2 0x110C PUSH2 0x2713 JUMP JUMPDEST JUMPDEST PUSH1 0x20 MUL PUSH1 0x20 ADD ADD MLOAD DUP11 DUP8 DUP2 MLOAD DUP2 LT PUSH2 0x1128 JUMPI PUSH2 0x1127 PUSH2 0x2713 JUMP JUMPDEST JUMPDEST PUSH1 0x20 MUL PUSH1 0x20 ADD ADD MLOAD DUP13 DUP9 DUP2 MLOAD DUP2 LT PUSH2 0x1143 JUMPI PUSH2 0x1142 PUSH2 0x2713 JUMP JUMPDEST JUMPDEST PUSH1 0x20 MUL PUSH1 0x20 ADD ADD MLOAD PUSH1 0x40 MLOAD DUP7 PUSH4 0xFFFFFFFF AND PUSH1 0xE0 SHL DUP2 MSTORE PUSH1 0x4 ADD PUSH2 0x116B SWAP6 SWAP5 SWAP4 SWAP3 SWAP2 SWAP1 PUSH2 0x2994 JUMP JUMPDEST PUSH1 0x0 PUSH1 0x40 MLOAD DUP1 DUP4 SUB DUP2 PUSH1 0x0 DUP8 DUP1 EXTCODESIZE ISZERO DUP1 ISZERO PUSH2 0x1185 JUMPI PUSH1 0x0 DUP1 REVERT JUMPDEST POP GAS CALL ISZERO DUP1 ISZERO PUSH2 0x1199 JUMPI RETURNDATASIZE PUSH1 0x0 DUP1 RETURNDATACOPY RETURNDATASIZE PUSH1 0x0 REVERT JUMPDEST POP POP POP POP PUSH2 0x1476 JUMP JUMPDEST DUP7 DUP3 DUP2 MLOAD DUP2 LT PUSH2 0x11B5 JUMPI PUSH2 0x11B4 PUSH2 0x2713 JUMP JUMPDEST JUMPDEST PUSH1 0x20 MUL PUSH1 0x20 ADD ADD MLOAD DUP15 DUP4 DUP2 MLOAD DUP2 LT PUSH2 0x11D0 JUMPI PUSH2 0x11CF PUSH2 0x2713 JUMP JUMPDEST JUMPDEST PUSH1 0x20 MUL PUSH1 0x20 ADD ADD MLOAD PUSH20 0xFFFFFFFFFFFFFFFFFFFFFFFFFFFFFFFFFFFFFFFF AND PUSH3 0xFDD58E DUP13 DUP6 DUP2 MLOAD DUP2 LT PUSH2 0x1205 JUMPI PUSH2 0x1204 PUSH2 0x2713 JUMP JUMPDEST JUMPDEST PUSH1 0x20 MUL PUSH1 0x20 ADD ADD MLOAD DUP12 DUP7 DUP2 MLOAD DUP2 LT PUSH2 0x1220 JUMPI PUSH2 0x121F PUSH2 0x2713 JUMP JUMPDEST JUMPDEST PUSH1 0x20 MUL PUSH1 0x20 ADD ADD MLOAD PUSH1 0x40 MLOAD DUP4 PUSH4 0xFFFFFFFF AND PUSH1 0xE0 SHL DUP2 MSTORE PUSH1 0x4 ADD PUSH2 0x1245 SWAP3 SWAP2 SWAP1 PUSH2 0x2FD0 JUMP JUMPDEST PUSH1 0x20 PUSH1 0x40 MLOAD DUP1 DUP4 SUB DUP2 DUP7 GAS STATICCALL ISZERO DUP1 ISZERO PUSH2 0x1262 JUMPI RETURNDATASIZE PUSH1 0x0 DUP1 RETURNDATACOPY RETURNDATASIZE PUSH1 0x0 REVERT JUMPDEST POP POP POP POP PUSH1 0x40 MLOAD RETURNDATASIZE PUSH1 0x1F NOT PUSH1 0x1F DUP3 ADD AND DUP3 ADD DUP1 PUSH1 0x40 MSTORE POP DUP2 ADD SWAP1 PUSH2 0x1286 SWAP2 SWAP1 PUSH2 0x2683 JUMP JUMPDEST LT ISZERO PUSH2 0x1475 JUMPI PUSH1 0x0 DUP15 DUP4 DUP2 MLOAD DUP2 LT PUSH2 0x12A1 JUMPI PUSH2 0x12A0 PUSH2 0x2713 JUMP JUMPDEST JUMPDEST PUSH1 0x20 MUL PUSH1 0x20 ADD ADD MLOAD PUSH20 0xFFFFFFFFFFFFFFFFFFFFFFFFFFFFFFFFFFFFFFFF AND PUSH3 0xFDD58E DUP13 DUP6 DUP2 MLOAD DUP2 LT PUSH2 0x12D6 JUMPI PUSH2 0x12D5 PUSH2 0x2713 JUMP JUMPDEST JUMPDEST PUSH1 0x20 MUL PUSH1 0x20 ADD ADD MLOAD DUP12 DUP7 DUP2 MLOAD DUP2 LT PUSH2 0x12F1 JUMPI PUSH2 0x12F0 PUSH2 0x2713 JUMP JUMPDEST JUMPDEST PUSH1 0x20 MUL PUSH1 0x20 ADD ADD MLOAD PUSH1 0x40 MLOAD DUP4 PUSH4 0xFFFFFFFF AND PUSH1 0xE0 SHL DUP2 MSTORE PUSH1 0x4 ADD PUSH2 0x1316 SWAP3 SWAP2 SWAP1 PUSH2 0x2FD0 JUMP JUMPDEST PUSH1 0x20 PUSH1 0x40 MLOAD DUP1 DUP4 SUB DUP2 DUP7 GAS STATICCALL ISZERO DUP1 ISZERO PUSH2 0x1333 JUMPI RETURNDATASIZE PUSH1 0x0 DUP1 RETURNDATACOPY RETURNDATASIZE PUSH1 0x0 REVERT JUMPDEST POP POP POP POP PUSH1 0x40 MLOAD RETURNDATASIZE PUSH1 0x1F NOT PUSH1 0x1F DUP3 ADD AND DUP3 ADD DUP1 PUSH1 0x40 MSTORE POP DUP2 ADD SWAP1 PUSH2 0x1357 SWAP2 SWAP1 PUSH2 0x2683 JUMP JUMPDEST SWAP1 POP DUP15 DUP4 DUP2 MLOAD DUP2 LT PUSH2 0x136C JUMPI PUSH2 0x136B PUSH2 0x2713 JUMP JUMPDEST JUMPDEST PUSH1 0x20 MUL PUSH1 0x20 ADD ADD MLOAD PUSH20 0xFFFFFFFFFFFFFFFFFFFFFFFFFFFFFFFFFFFFFFFF AND PUSH4 0xAF72BD91 DUP12 DUP6 DUP2 MLOAD DUP2 LT PUSH2 0x13A2 JUMPI PUSH2 0x13A1 PUSH2 0x2713 JUMP JUMPDEST JUMPDEST PUSH1 0x20 MUL PUSH1 0x20 ADD ADD MLOAD DUP12 DUP7 DUP2 MLOAD DUP2 LT PUSH2 0x13BD JUMPI PUSH2 0x13BC PUSH2 0x2713 JUMP JUMPDEST JUMPDEST PUSH1 0x20 MUL PUSH1 0x20 ADD ADD MLOAD DUP10 DUP8 DUP2 MLOAD DUP2 LT PUSH2 0x13D8 JUMPI PUSH2 0x13D7 PUSH2 0x2713 JUMP JUMPDEST JUMPDEST PUSH1 0x20 MUL PUSH1 0x20 ADD ADD MLOAD DUP12 DUP9 DUP2 MLOAD DUP2 LT PUSH2 0x13F3 JUMPI PUSH2 0x13F2 PUSH2 0x2713 JUMP JUMPDEST JUMPDEST PUSH1 0x20 MUL PUSH1 0x20 ADD ADD MLOAD DUP7 DUP15 DUP11 DUP2 MLOAD DUP2 LT PUSH2 0x140F JUMPI PUSH2 0x140E PUSH2 0x2713 JUMP JUMPDEST JUMPDEST PUSH1 0x20 MUL PUSH1 0x20 ADD ADD MLOAD PUSH2 0x1421 SWAP2 SWAP1 PUSH2 0x2FF9 JUMP JUMPDEST PUSH1 0x40 MLOAD DUP7 PUSH4 0xFFFFFFFF AND PUSH1 0xE0 SHL DUP2 MSTORE PUSH1 0x4 ADD PUSH2 0x1441 SWAP6 SWAP5 SWAP4 SWAP3 SWAP2 SWAP1 PUSH2 0x2994 JUMP JUMPDEST PUSH1 0x0 PUSH1 0x40 MLOAD DUP1 DUP4 SUB DUP2 PUSH1 0x0 DUP8 DUP1 EXTCODESIZE ISZERO DUP1 ISZERO PUSH2 0x145B JUMPI PUSH1 0x0 DUP1 REVERT JUMPDEST POP GAS CALL ISZERO DUP1 ISZERO PUSH2 0x146F JUMPI RETURNDATASIZE PUSH1 0x0 DUP1 RETURNDATACOPY RETURNDATASIZE PUSH1 0x0 REVERT JUMPDEST POP POP POP POP POP JUMPDEST JUMPDEST PUSH1 0x0 CALLVALUE SWAP1 POP DUP15 DUP4 DUP2 MLOAD DUP2 LT PUSH2 0x148E JUMPI PUSH2 0x148D PUSH2 0x2713 JUMP JUMPDEST JUMPDEST PUSH1 0x20 MUL PUSH1 0x20 ADD ADD MLOAD PUSH20 0xFFFFFFFFFFFFFFFFFFFFFFFFFFFFFFFFFFFFFFFF AND PUSH4 0xF242432A DUP13 DUP6 DUP2 MLOAD DUP2 LT PUSH2 0x14C4 JUMPI PUSH2 0x14C3 PUSH2 0x2713 JUMP JUMPDEST JUMPDEST PUSH1 0x20 MUL PUSH1 0x20 ADD ADD MLOAD DUP13 DUP7 DUP2 MLOAD DUP2 LT PUSH2 0x14DF JUMPI PUSH2 0x14DE PUSH2 0x2713 JUMP JUMPDEST JUMPDEST PUSH1 0x20 MUL PUSH1 0x20 ADD ADD MLOAD DUP13 DUP8 DUP2 MLOAD DUP2 LT PUSH2 0x14FA JUMPI PUSH2 0x14F9 PUSH2 0x2713 JUMP JUMPDEST JUMPDEST PUSH1 0x20 MUL PUSH1 0x20 ADD ADD MLOAD DUP13 DUP9 DUP2 MLOAD DUP2 LT PUSH2 0x1515 JUMPI PUSH2 0x1514 PUSH2 0x2713 JUMP JUMPDEST JUMPDEST PUSH1 0x20 MUL PUSH1 0x20 ADD ADD MLOAD PUSH1 0x40 MLOAD DUP6 PUSH4 0xFFFFFFFF AND PUSH1 0xE0 SHL DUP2 MSTORE PUSH1 0x4 ADD PUSH2 0x153C SWAP5 SWAP4 SWAP3 SWAP2 SWAP1 PUSH2 0x3064 JUMP JUMPDEST PUSH1 0x0 PUSH1 0x40 MLOAD DUP1 DUP4 SUB DUP2 PUSH1 0x0 DUP8 DUP1 EXTCODESIZE ISZERO DUP1 ISZERO PUSH2 0x1556 JUMPI PUSH1 0x0 DUP1 REVERT JUMPDEST POP GAS CALL ISZERO DUP1 ISZERO PUSH2 0x156A JUMPI RETURNDATASIZE PUSH1 0x0 DUP1 RETURNDATACOPY RETURNDATASIZE PUSH1 0x0 REVERT JUMPDEST POP POP POP POP PUSH1 0x0 DUP12 DUP5 DUP2 MLOAD DUP2 LT PUSH2 0x1583 JUMPI PUSH2 0x1582 PUSH2 0x2713 JUMP JUMPDEST JUMPDEST PUSH1 0x20 MUL PUSH1 0x20 ADD ADD MLOAD SWAP1 POP DUP1 PUSH20 0xFFFFFFFFFFFFFFFFFFFFFFFFFFFFFFFFFFFFFFFF AND PUSH2 0x8FC DUP4 SWAP1 DUP2 ISZERO MUL SWAP1 PUSH1 0x40 MLOAD PUSH1 0x0 PUSH1 0x40 MLOAD DUP1 DUP4 SUB DUP2 DUP6 DUP9 DUP9 CALL SWAP4 POP POP POP POP ISZERO DUP1 ISZERO PUSH2 0x15D3 JUMPI RETURNDATASIZE PUSH1 0x0 DUP1 RETURNDATACOPY RETURNDATASIZE PUSH1 0x0 REVERT JUMPDEST POP POP POP POP PUSH2 0x19E4 JUMP JUMPDEST PUSH1 0x1 DUP13 DUP3 DUP2 MLOAD DUP2 LT PUSH2 0x15F1 JUMPI PUSH2 0x15F0 PUSH2 0x2713 JUMP JUMPDEST JUMPDEST PUSH1 0x20 MUL PUSH1 0x20 ADD ADD MLOAD SUB PUSH2 0x19E3 JUMPI PUSH1 0x0 DUP14 DUP3 DUP2 MLOAD DUP2 LT PUSH2 0x1613 JUMPI PUSH2 0x1612 PUSH2 0x2713 JUMP JUMPDEST JUMPDEST PUSH1 0x20 MUL PUSH1 0x20 ADD ADD MLOAD PUSH20 0xFFFFFFFFFFFFFFFFFFFFFFFFFFFFFFFFFFFFFFFF AND PUSH4 0x6352211E DUP10 DUP5 DUP2 MLOAD DUP2 LT PUSH2 0x1649 JUMPI PUSH2 0x1648 PUSH2 0x2713 JUMP JUMPDEST JUMPDEST PUSH1 0x20 MUL PUSH1 0x20 ADD ADD MLOAD PUSH1 0x40 MLOAD DUP3 PUSH4 0xFFFFFFFF AND PUSH1 0xE0 SHL DUP2 MSTORE PUSH1 0x4 ADD PUSH2 0x166D SWAP2 SWAP1 PUSH2 0x2A55 JUMP JUMPDEST PUSH1 0x20 PUSH1 0x40 MLOAD DUP1 DUP4 SUB DUP2 DUP7 GAS STATICCALL ISZERO DUP1 ISZERO PUSH2 0x168A JUMPI RETURNDATASIZE PUSH1 0x0 DUP1 RETURNDATACOPY RETURNDATASIZE PUSH1 0x0 REVERT JUMPDEST POP POP POP POP PUSH1 0x40 MLOAD RETURNDATASIZE PUSH1 0x1F NOT PUSH1 0x1F DUP3 ADD AND DUP3 ADD DUP1 PUSH1 0x40 MSTORE POP DUP2 ADD SWAP1 PUSH2 0x16AE SWAP2 SWAP1 PUSH2 0x2A85 JUMP JUMPDEST SWAP1 POP DUP8 DUP3 DUP2 MLOAD DUP2 LT PUSH2 0x16C3 JUMPI PUSH2 0x16C2 PUSH2 0x2713 JUMP JUMPDEST JUMPDEST PUSH1 0x20 MUL PUSH1 0x20 ADD ADD MLOAD DUP14 DUP4 DUP2 MLOAD DUP2 LT PUSH2 0x16DE JUMPI PUSH2 0x16DD PUSH2 0x2713 JUMP JUMPDEST JUMPDEST PUSH1 0x20 MUL PUSH1 0x20 ADD ADD MLOAD DUP16 DUP5 DUP2 MLOAD DUP2 LT PUSH2 0x16F9 JUMPI PUSH2 0x16F8 PUSH2 0x2713 JUMP JUMPDEST JUMPDEST PUSH1 0x20 MUL PUSH1 0x20 ADD ADD MLOAD PUSH20 0xFFFFFFFFFFFFFFFFFFFFFFFFFFFFFFFFFFFFFFFF AND PUSH32 0x5477F9965F93D173424EF8E21FAC70C586B2FDB903ECF743D7A0973E6BFE3C94 DUP5 DUP14 DUP8 DUP2 MLOAD DUP2 LT PUSH2 0x174C JUMPI PUSH2 0x174B PUSH2 0x2713 JUMP JUMPDEST JUMPDEST PUSH1 0x20 MUL PUSH1 0x20 ADD ADD MLOAD PUSH1 0x1 DUP11 DUP10 DUP2 MLOAD DUP2 LT PUSH2 0x1769 JUMPI PUSH2 0x1768 PUSH2 0x2713 JUMP JUMPDEST JUMPDEST PUSH1 0x20 MUL PUSH1 0x20 ADD ADD MLOAD PUSH1 0x40 MLOAD PUSH2 0x1781 SWAP5 SWAP4 SWAP3 SWAP2 SWAP1 PUSH2 0x3156 JUMP JUMPDEST PUSH1 0x40 MLOAD DUP1 SWAP2 SUB SWAP1 LOG4 PUSH1 0x0 PUSH1 0x2 PUSH1 0x0 DUP11 DUP6 DUP2 MLOAD DUP2 LT PUSH2 0x17A2 JUMPI PUSH2 0x17A1 PUSH2 0x2713 JUMP JUMPDEST JUMPDEST PUSH1 0x20 MUL PUSH1 0x20 ADD ADD MLOAD DUP2 MSTORE PUSH1 0x20 ADD SWAP1 DUP2 MSTORE PUSH1 0x20 ADD PUSH1 0x0 KECCAK256 SLOAD SUB PUSH2 0x17F9 JUMPI PUSH1 0x40 MLOAD PUSH32 0x8C379A000000000000000000000000000000000000000000000000000000000 DUP2 MSTORE PUSH1 0x4 ADD PUSH2 0x17F0 SWAP1 PUSH2 0x31E7 JUMP JUMPDEST PUSH1 0x40 MLOAD DUP1 SWAP2 SUB SWAP1 REVERT JUMPDEST PUSH1 0x2 PUSH1 0x0 DUP10 DUP5 DUP2 MLOAD DUP2 LT PUSH2 0x1810 JUMPI PUSH2 0x180F PUSH2 0x2713 JUMP JUMPDEST JUMPDEST PUSH1 0x20 MUL PUSH1 0x20 ADD ADD MLOAD DUP2 MSTORE PUSH1 0x20 ADD SWAP1 DUP2 MSTORE PUSH1 0x20 ADD PUSH1 0x0 KECCAK256 PUSH1 0x0 SWAP1 SSTORE DUP14 DUP3 DUP2 MLOAD DUP2 LT PUSH2 0x183D JUMPI PUSH2 0x183C PUSH2 0x2713 JUMP JUMPDEST JUMPDEST PUSH1 0x20 MUL PUSH1 0x20 ADD ADD MLOAD PUSH20 0xFFFFFFFFFFFFFFFFFFFFFFFFFFFFFFFFFFFFFFFF AND PUSH4 0x42842E0E DUP16 DUP5 DUP2 MLOAD DUP2 LT PUSH2 0x1873 JUMPI PUSH2 0x1872 PUSH2 0x2713 JUMP JUMPDEST JUMPDEST PUSH1 0x20 MUL PUSH1 0x20 ADD ADD MLOAD PUSH20 0xFFFFFFFFFFFFFFFFFFFFFFFFFFFFFFFFFFFFFFFF AND PUSH4 0x6352211E DUP12 DUP7 DUP2 MLOAD DUP2 LT PUSH2 0x18A9 JUMPI PUSH2 0x18A8 PUSH2 0x2713 JUMP JUMPDEST JUMPDEST PUSH1 0x20 MUL PUSH1 0x20 ADD ADD MLOAD PUSH1 0x40 MLOAD DUP3 PUSH4 0xFFFFFFFF AND PUSH1 0xE0 SHL DUP2 MSTORE PUSH1 0x4 ADD PUSH2 0x18CD SWAP2 SWAP1 PUSH2 0x2A55 JUMP JUMPDEST PUSH1 0x20 PUSH1 0x40 MLOAD DUP1 DUP4 SUB DUP2 DUP7 GAS STATICCALL ISZERO DUP1 ISZERO PUSH2 0x18EA JUMPI RETURNDATASIZE PUSH1 0x0 DUP1 RETURNDATACOPY RETURNDATASIZE PUSH1 0x0 REVERT JUMPDEST POP POP POP POP PUSH1 0x40 MLOAD RETURNDATASIZE PUSH1 0x1F NOT PUSH1 0x1F DUP3 ADD AND DUP3 ADD DUP1 PUSH1 0x40 MSTORE POP DUP2 ADD SWAP1 PUSH2 0x190E SWAP2 SWAP1 PUSH2 0x2A85 JUMP JUMPDEST DUP12 DUP6 DUP2 MLOAD DUP2 LT PUSH2 0x1921 JUMPI PUSH2 0x1920 PUSH2 0x2713 JUMP JUMPDEST JUMPDEST PUSH1 0x20 MUL PUSH1 0x20 ADD ADD MLOAD DUP12 DUP7 DUP2 MLOAD DUP2 LT PUSH2 0x193C JUMPI PUSH2 0x193B PUSH2 0x2713 JUMP JUMPDEST JUMPDEST PUSH1 0x20 MUL PUSH1 0x20 ADD ADD MLOAD PUSH1 0x40 MLOAD DUP5 PUSH4 0xFFFFFFFF AND PUSH1 0xE0 SHL DUP2 MSTORE PUSH1 0x4 ADD PUSH2 0x1962 SWAP4 SWAP3 SWAP2 SWAP1 PUSH2 0x3207 JUMP JUMPDEST PUSH1 0x0 PUSH1 0x40 MLOAD DUP1 DUP4 SUB DUP2 PUSH1 0x0 DUP8 DUP1 EXTCODESIZE ISZERO DUP1 ISZERO PUSH2 0x197C JUMPI PUSH1 0x0 DUP1 REVERT JUMPDEST POP GAS CALL ISZERO DUP1 ISZERO PUSH2 0x1990 JUMPI RETURNDATASIZE PUSH1 0x0 DUP1 RETURNDATACOPY RETURNDATASIZE PUSH1 0x0 REVERT JUMPDEST POP POP POP POP PUSH1 0x0 CALLVALUE SWAP1 POP DUP2 PUSH20 0xFFFFFFFFFFFFFFFFFFFFFFFFFFFFFFFFFFFFFFFF AND PUSH2 0x8FC DUP3 SWAP1 DUP2 ISZERO MUL SWAP1 PUSH1 0x40 MLOAD PUSH1 0x0 PUSH1 0x40 MLOAD DUP1 DUP4 SUB DUP2 DUP6 DUP9 DUP9 CALL SWAP4 POP POP POP POP ISZERO DUP1 ISZERO PUSH2 0x19DF JUMPI RETURNDATASIZE PUSH1 0x0 DUP1 RETURNDATACOPY RETURNDATASIZE PUSH1 0x0 REVERT JUMPDEST POP POP POP JUMPDEST JUMPDEST DUP1 DUP1 PUSH2 0x19EF SWAP1 PUSH2 0x27AA JUMP JUMPDEST SWAP2 POP POP PUSH2 0xD37 JUMP JUMPDEST POP POP POP POP POP POP POP POP POP POP POP POP POP JUMP JUMPDEST PUSH1 0x60 PUSH1 0x0 DUP3 SUB PUSH2 0x1A4D JUMPI PUSH1 0x40 MLOAD DUP1 PUSH1 0x40 ADD PUSH1 0x40 MSTORE DUP1 PUSH1 0x1 DUP2 MSTORE PUSH1 0x20 ADD PUSH32 0x3000000000000000000000000000000000000000000000000000000000000000 DUP2 MSTORE POP SWAP1 POP PUSH2 0x1B89 JUMP JUMPDEST PUSH1 0x0 DUP3 SWAP1 POP PUSH1 0x0 JUMPDEST PUSH1 0x0 DUP3 EQ PUSH2 0x1A7F JUMPI DUP1 DUP1 PUSH2 0x1A68 SWAP1 PUSH2 0x27AA JUMP JUMPDEST SWAP2 POP POP PUSH1 0xA DUP3 PUSH2 0x1A78 SWAP2 SWAP1 PUSH2 0x2863 JUMP JUMPDEST SWAP2 POP PUSH2 0x1A55 JUMP JUMPDEST PUSH1 0x0 DUP2 PUSH8 0xFFFFFFFFFFFFFFFF DUP2 GT ISZERO PUSH2 0x1A9B JUMPI PUSH2 0x1A9A PUSH2 0x1C16 JUMP JUMPDEST JUMPDEST PUSH1 0x40 MLOAD SWAP1 DUP1 DUP3 MSTORE DUP1 PUSH1 0x1F ADD PUSH1 0x1F NOT AND PUSH1 0x20 ADD DUP3 ADD PUSH1 0x40 MSTORE DUP1 ISZERO PUSH2 0x1ACD JUMPI DUP2 PUSH1 0x20 ADD PUSH1 0x1 DUP3 MUL DUP1 CALLDATASIZE DUP4 CALLDATACOPY DUP1 DUP3 ADD SWAP2 POP POP SWAP1 POP JUMPDEST POP SWAP1 POP PUSH1 0x0 DUP3 SWAP1 POP JUMPDEST PUSH1 0x0 DUP7 EQ PUSH2 0x1B81 JUMPI PUSH1 0x1 DUP2 PUSH2 0x1AEB SWAP2 SWAP1 PUSH2 0x2FF9 JUMP JUMPDEST SWAP1 POP PUSH1 0x0 PUSH1 0xA DUP1 DUP9 PUSH2 0x1AFD SWAP2 SWAP1 PUSH2 0x2863 JUMP JUMPDEST PUSH2 0x1B07 SWAP2 SWAP1 PUSH2 0x27F2 JUMP JUMPDEST DUP8 PUSH2 0x1B12 SWAP2 SWAP1 PUSH2 0x2FF9 JUMP JUMPDEST PUSH1 0x30 PUSH2 0x1B1E SWAP2 SWAP1 PUSH2 0x324B JUMP JUMPDEST SWAP1 POP PUSH1 0x0 DUP2 PUSH1 0xF8 SHL SWAP1 POP DUP1 DUP5 DUP5 DUP2 MLOAD DUP2 LT PUSH2 0x1B3C JUMPI PUSH2 0x1B3B PUSH2 0x2713 JUMP JUMPDEST JUMPDEST PUSH1 0x20 ADD ADD SWAP1 PUSH31 0xFFFFFFFFFFFFFFFFFFFFFFFFFFFFFFFFFFFFFFFFFFFFFFFFFFFFFFFFFFFFFF NOT AND SWAP1 DUP2 PUSH1 0x0 BYTE SWAP1 MSTORE8 POP PUSH1 0xA DUP9 PUSH2 0x1B78 SWAP2 SWAP1 PUSH2 0x2863 JUMP JUMPDEST SWAP8 POP POP POP PUSH2 0x1AD6 JUMP JUMPDEST DUP2 SWAP5 POP POP POP POP POP JUMPDEST SWAP2 SWAP1 POP JUMP JUMPDEST PUSH1 0x0 PUSH1 0x40 MLOAD SWAP1 POP SWAP1 JUMP JUMPDEST PUSH1 0x0 DUP1 REVERT JUMPDEST PUSH1 0x0 DUP1 REVERT JUMPDEST PUSH1 0x0 PUSH20 0xFFFFFFFFFFFFFFFFFFFFFFFFFFFFFFFFFFFFFFFF DUP3 AND SWAP1 POP SWAP2 SWAP1 POP JUMP JUMPDEST PUSH1 0x0 PUSH2 0x1BCD DUP3 PUSH2 0x1BA2 JUMP JUMPDEST SWAP1 POP SWAP2 SWAP1 POP JUMP JUMPDEST PUSH2 0x1BDD DUP2 PUSH2 0x1BC2 JUMP JUMPDEST DUP2 EQ PUSH2 0x1BE8 JUMPI PUSH1 0x0 DUP1 REVERT JUMPDEST POP JUMP JUMPDEST PUSH1 0x0 DUP2 CALLDATALOAD SWAP1 POP PUSH2 0x1BFA DUP2 PUSH2 0x1BD4 JUMP JUMPDEST SWAP3 SWAP2 POP POP JUMP JUMPDEST PUSH1 0x0 DUP1 REVERT JUMPDEST PUSH1 0x0 PUSH1 0x1F NOT PUSH1 0x1F DUP4 ADD AND SWAP1 POP SWAP2 SWAP1 POP JUMP JUMPDEST PUSH32 0x4E487B7100000000000000000000000000000000000000000000000000000000 PUSH1 0x0 MSTORE PUSH1 0x41 PUSH1 0x4 MSTORE PUSH1 0x24 PUSH1 0x0 REVERT JUMPDEST PUSH2 0x1C4E DUP3 PUSH2 0x1C05 JUMP JUMPDEST DUP2 ADD DUP2 DUP2 LT PUSH8 0xFFFFFFFFFFFFFFFF DUP3 GT OR ISZERO PUSH2 0x1C6D JUMPI PUSH2 0x1C6C PUSH2 0x1C16 JUMP JUMPDEST JUMPDEST DUP1 PUSH1 0x40 MSTORE POP POP POP JUMP JUMPDEST PUSH1 0x0 PUSH2 0x1C80 PUSH2 0x1B8E JUMP JUMPDEST SWAP1 POP PUSH2 0x1C8C DUP3 DUP3 PUSH2 0x1C45 JUMP JUMPDEST SWAP2 SWAP1 POP JUMP JUMPDEST PUSH1 0x0 PUSH8 0xFFFFFFFFFFFFFFFF DUP3 GT ISZERO PUSH2 0x1CAC JUMPI PUSH2 0x1CAB PUSH2 0x1C16 JUMP JUMPDEST JUMPDEST PUSH1 0x20 DUP3 MUL SWAP1 POP PUSH1 0x20 DUP2 ADD SWAP1 POP SWAP2 SWAP1 POP JUMP JUMPDEST PUSH1 0x0 DUP1 REVERT JUMPDEST PUSH1 0x0 PUSH2 0x1CD5 PUSH2 0x1CD0 DUP5 PUSH2 0x1C91 JUMP JUMPDEST PUSH2 0x1C76 JUMP JUMPDEST SWAP1 POP DUP1 DUP4 DUP3 MSTORE PUSH1 0x20 DUP3 ADD SWAP1 POP PUSH1 0x20 DUP5 MUL DUP4 ADD DUP6 DUP2 GT ISZERO PUSH2 0x1CF8 JUMPI PUSH2 0x1CF7 PUSH2 0x1CBD JUMP JUMPDEST JUMPDEST DUP4 JUMPDEST DUP2 DUP2 LT ISZERO PUSH2 0x1D21 JUMPI DUP1 PUSH2 0x1D0D DUP9 DUP3 PUSH2 0x1BEB JUMP JUMPDEST DUP5 MSTORE PUSH1 0x20 DUP5 ADD SWAP4 POP POP PUSH1 0x20 DUP2 ADD SWAP1 POP PUSH2 0x1CFA JUMP JUMPDEST POP POP POP SWAP4 SWAP3 POP POP POP JUMP JUMPDEST PUSH1 0x0 DUP3 PUSH1 0x1F DUP4 ADD SLT PUSH2 0x1D40 JUMPI PUSH2 0x1D3F PUSH2 0x1C00 JUMP JUMPDEST JUMPDEST DUP2 CALLDATALOAD PUSH2 0x1D50 DUP5 DUP3 PUSH1 0x20 DUP7 ADD PUSH2 0x1CC2 JUMP JUMPDEST SWAP2 POP POP SWAP3 SWAP2 POP POP JUMP JUMPDEST PUSH1 0x0 PUSH8 0xFFFFFFFFFFFFFFFF DUP3 GT ISZERO PUSH2 0x1D74 JUMPI PUSH2 0x1D73 PUSH2 0x1C16 JUMP JUMPDEST JUMPDEST PUSH1 0x20 DUP3 MUL SWAP1 POP PUSH1 0x20 DUP2 ADD SWAP1 POP SWAP2 SWAP1 POP JUMP JUMPDEST PUSH1 0x0 DUP1 REVERT JUMPDEST PUSH1 0x0 PUSH8 0xFFFFFFFFFFFFFFFF DUP3 GT ISZERO PUSH2 0x1DA5 JUMPI PUSH2 0x1DA4 PUSH2 0x1C16 JUMP JUMPDEST JUMPDEST PUSH2 0x1DAE DUP3 PUSH2 0x1C05 JUMP JUMPDEST SWAP1 POP PUSH1 0x20 DUP2 ADD SWAP1 POP SWAP2 SWAP1 POP JUMP JUMPDEST DUP3 DUP2 DUP4 CALLDATACOPY PUSH1 0x0 DUP4 DUP4 ADD MSTORE POP POP POP JUMP JUMPDEST PUSH1 0x0 PUSH2 0x1DDD PUSH2 0x1DD8 DUP5 PUSH2 0x1D8A JUMP JUMPDEST PUSH2 0x1C76 JUMP JUMPDEST SWAP1 POP DUP3 DUP2 MSTORE PUSH1 0x20 DUP2 ADD DUP5 DUP5 DUP5 ADD GT ISZERO PUSH2 0x1DF9 JUMPI PUSH2 0x1DF8 PUSH2 0x1D85 JUMP JUMPDEST JUMPDEST PUSH2 0x1E04 DUP5 DUP3 DUP6 PUSH2 0x1DBB JUMP JUMPDEST POP SWAP4 SWAP3 POP POP POP JUMP JUMPDEST PUSH1 0x0 DUP3 PUSH1 0x1F DUP4 ADD SLT PUSH2 0x1E21 JUMPI PUSH2 0x1E20 PUSH2 0x1C00 JUMP JUMPDEST JUMPDEST DUP2 CALLDATALOAD PUSH2 0x1E31 DUP5 DUP3 PUSH1 0x20 DUP7 ADD PUSH2 0x1DCA JUMP JUMPDEST SWAP2 POP POP SWAP3 SWAP2 POP POP JUMP JUMPDEST PUSH1 0x0 PUSH2 0x1E4D PUSH2 0x1E48 DUP5 PUSH2 0x1D59 JUMP JUMPDEST PUSH2 0x1C76 JUMP JUMPDEST SWAP1 POP DUP1 DUP4 DUP3 MSTORE PUSH1 0x20 DUP3 ADD SWAP1 POP PUSH1 0x20 DUP5 MUL DUP4 ADD DUP6 DUP2 GT ISZERO PUSH2 0x1E70 JUMPI PUSH2 0x1E6F PUSH2 0x1CBD JUMP JUMPDEST JUMPDEST DUP4 JUMPDEST DUP2 DUP2 LT ISZERO PUSH2 0x1EB7 JUMPI DUP1 CALLDATALOAD PUSH8 0xFFFFFFFFFFFFFFFF DUP2 GT ISZERO PUSH2 0x1E95 JUMPI PUSH2 0x1E94 PUSH2 0x1C00 JUMP JUMPDEST JUMPDEST DUP1 DUP7 ADD PUSH2 0x1EA2 DUP10 DUP3 PUSH2 0x1E0C JUMP JUMPDEST DUP6 MSTORE PUSH1 0x20 DUP6 ADD SWAP5 POP POP POP PUSH1 0x20 DUP2 ADD SWAP1 POP PUSH2 0x1E72 JUMP JUMPDEST POP POP POP SWAP4 SWAP3 POP POP POP JUMP JUMPDEST PUSH1 0x0 DUP3 PUSH1 0x1F DUP4 ADD SLT PUSH2 0x1ED6 JUMPI PUSH2 0x1ED5 PUSH2 0x1C00 JUMP JUMPDEST JUMPDEST DUP2 CALLDATALOAD PUSH2 0x1EE6 DUP5 DUP3 PUSH1 0x20 DUP7 ADD PUSH2 0x1E3A JUMP JUMPDEST SWAP2 POP POP SWAP3 SWAP2 POP POP JUMP JUMPDEST PUSH1 0x0 PUSH8 0xFFFFFFFFFFFFFFFF DUP3 GT ISZERO PUSH2 0x1F0A JUMPI PUSH2 0x1F09 PUSH2 0x1C16 JUMP JUMPDEST JUMPDEST PUSH1 0x20 DUP3 MUL SWAP1 POP PUSH1 0x20 DUP2 ADD SWAP1 POP SWAP2 SWAP1 POP JUMP JUMPDEST PUSH1 0x0 DUP2 SWAP1 POP SWAP2 SWAP1 POP JUMP JUMPDEST PUSH2 0x1F2E DUP2 PUSH2 0x1F1B JUMP JUMPDEST DUP2 EQ PUSH2 0x1F39 JUMPI PUSH1 0x0 DUP1 REVERT JUMPDEST POP JUMP JUMPDEST PUSH1 0x0 DUP2 CALLDATALOAD SWAP1 POP PUSH2 0x1F4B DUP2 PUSH2 0x1F25 JUMP JUMPDEST SWAP3 SWAP2 POP POP JUMP JUMPDEST PUSH1 0x0 PUSH2 0x1F64 PUSH2 0x1F5F DUP5 PUSH2 0x1EEF JUMP JUMPDEST PUSH2 0x1C76 JUMP JUMPDEST SWAP1 POP DUP1 DUP4 DUP3 MSTORE PUSH1 0x20 DUP3 ADD SWAP1 POP PUSH1 0x20 DUP5 MUL DUP4 ADD DUP6 DUP2 GT ISZERO PUSH2 0x1F87 JUMPI PUSH2 0x1F86 PUSH2 0x1CBD JUMP JUMPDEST JUMPDEST DUP4 JUMPDEST DUP2 DUP2 LT ISZERO PUSH2 0x1FB0 JUMPI DUP1 PUSH2 0x1F9C DUP9 DUP3 PUSH2 0x1F3C JUMP JUMPDEST DUP5 MSTORE PUSH1 0x20 DUP5 ADD SWAP4 POP POP PUSH1 0x20 DUP2 ADD SWAP1 POP PUSH2 0x1F89 JUMP JUMPDEST POP POP POP SWAP4 SWAP3 POP POP POP JUMP JUMPDEST PUSH1 0x0 DUP3 PUSH1 0x1F DUP4 ADD SLT PUSH2 0x1FCF JUMPI PUSH2 0x1FCE PUSH2 0x1C00 JUMP JUMPDEST JUMPDEST DUP2 CALLDATALOAD PUSH2 0x1FDF DUP5 DUP3 PUSH1 0x20 DUP7 ADD PUSH2 0x1F51 JUMP JUMPDEST SWAP2 POP POP SWAP3 SWAP2 POP POP JUMP JUMPDEST PUSH1 0x0 DUP1 PUSH1 0x0 DUP1 PUSH1 0x80 DUP6 DUP8 SUB SLT ISZERO PUSH2 0x2002 JUMPI PUSH2 0x2001 PUSH2 0x1B98 JUMP JUMPDEST JUMPDEST PUSH1 0x0 PUSH2 0x2010 DUP8 DUP3 DUP9 ADD PUSH2 0x1BEB JUMP JUMPDEST SWAP5 POP POP PUSH1 0x20 DUP6 ADD CALLDATALOAD PUSH8 0xFFFFFFFFFFFFFFFF DUP2 GT ISZERO PUSH2 0x2031 JUMPI PUSH2 0x2030 PUSH2 0x1B9D JUMP JUMPDEST JUMPDEST PUSH2 0x203D DUP8 DUP3 DUP9 ADD PUSH2 0x1D2B JUMP JUMPDEST SWAP4 POP POP PUSH1 0x40 DUP6 ADD CALLDATALOAD PUSH8 0xFFFFFFFFFFFFFFFF DUP2 GT ISZERO PUSH2 0x205E JUMPI PUSH2 0x205D PUSH2 0x1B9D JUMP JUMPDEST JUMPDEST PUSH2 0x206A DUP8 DUP3 DUP9 ADD PUSH2 0x1EC1 JUMP JUMPDEST SWAP3 POP POP PUSH1 0x60 DUP6 ADD CALLDATALOAD PUSH8 0xFFFFFFFFFFFFFFFF DUP2 GT ISZERO PUSH2 0x208B JUMPI PUSH2 0x208A PUSH2 0x1B9D JUMP JUMPDEST JUMPDEST PUSH2 0x2097 DUP8 DUP3 DUP9 ADD PUSH2 0x1FBA JUMP JUMPDEST SWAP2 POP POP SWAP3 SWAP6 SWAP2 SWAP5 POP SWAP3 POP JUMP JUMPDEST PUSH1 0x0 PUSH8 0xFFFFFFFFFFFFFFFF DUP3 GT ISZERO PUSH2 0x20BE JUMPI PUSH2 0x20BD PUSH2 0x1C16 JUMP JUMPDEST JUMPDEST PUSH2 0x20C7 DUP3 PUSH2 0x1C05 JUMP JUMPDEST SWAP1 POP PUSH1 0x20 DUP2 ADD SWAP1 POP SWAP2 SWAP1 POP JUMP JUMPDEST PUSH1 0x0 PUSH2 0x20E7 PUSH2 0x20E2 DUP5 PUSH2 0x20A3 JUMP JUMPDEST PUSH2 0x1C76 JUMP JUMPDEST SWAP1 POP DUP3 DUP2 MSTORE PUSH1 0x20 DUP2 ADD DUP5 DUP5 DUP5 ADD GT ISZERO PUSH2 0x2103 JUMPI PUSH2 0x2102 PUSH2 0x1D85 JUMP JUMPDEST JUMPDEST PUSH2 0x210E DUP5 DUP3 DUP6 PUSH2 0x1DBB JUMP JUMPDEST POP SWAP4 SWAP3 POP POP POP JUMP JUMPDEST PUSH1 0x0 DUP3 PUSH1 0x1F DUP4 ADD SLT PUSH2 0x212B JUMPI PUSH2 0x212A PUSH2 0x1C00 JUMP JUMPDEST JUMPDEST DUP2 CALLDATALOAD PUSH2 0x213B DUP5 DUP3 PUSH1 0x20 DUP7 ADD PUSH2 0x20D4 JUMP JUMPDEST SWAP2 POP POP SWAP3 SWAP2 POP POP JUMP JUMPDEST PUSH1 0x0 PUSH1 0x20 DUP3 DUP5 SUB SLT ISZERO PUSH2 0x215A JUMPI PUSH2 0x2159 PUSH2 0x1B98 JUMP JUMPDEST JUMPDEST PUSH1 0x0 DUP3 ADD CALLDATALOAD PUSH8 0xFFFFFFFFFFFFFFFF DUP2 GT ISZERO PUSH2 0x2178 JUMPI PUSH2 0x2177 PUSH2 0x1B9D JUMP JUMPDEST JUMPDEST PUSH2 0x2184 DUP5 DUP3 DUP6 ADD PUSH2 0x2116 JUMP JUMPDEST SWAP2 POP POP SWAP3 SWAP2 POP POP JUMP JUMPDEST PUSH1 0x0 DUP2 MLOAD SWAP1 POP SWAP2 SWAP1 POP JUMP JUMPDEST PUSH1 0x0 DUP3 DUP3 MSTORE PUSH1 0x20 DUP3 ADD SWAP1 POP SWAP3 SWAP2 POP POP JUMP JUMPDEST PUSH1 0x0 JUMPDEST DUP4 DUP2 LT ISZERO PUSH2 0x21C7 JUMPI DUP1 DUP3 ADD MLOAD DUP2 DUP5 ADD MSTORE PUSH1 0x20 DUP2 ADD SWAP1 POP PUSH2 0x21AC JUMP JUMPDEST PUSH1 0x0 DUP5 DUP5 ADD MSTORE POP POP POP POP JUMP JUMPDEST PUSH1 0x0 PUSH2 0x21DE DUP3 PUSH2 0x218D JUMP JUMPDEST PUSH2 0x21E8 DUP2 DUP6 PUSH2 0x2198 JUMP JUMPDEST SWAP4 POP PUSH2 0x21F8 DUP2 DUP6 PUSH1 0x20 DUP7 ADD PUSH2 0x21A9 JUMP JUMPDEST PUSH2 0x2201 DUP2 PUSH2 0x1C05 JUMP JUMPDEST DUP5 ADD SWAP2 POP POP SWAP3 SWAP2 POP POP JUMP JUMPDEST PUSH1 0x0 PUSH1 0x20 DUP3 ADD SWAP1 POP DUP2 DUP2 SUB PUSH1 0x0 DUP4 ADD MSTORE PUSH2 0x2226 DUP2 DUP5 PUSH2 0x21D3 JUMP JUMPDEST SWAP1 POP SWAP3 SWAP2 POP POP JUMP JUMPDEST PUSH1 0x0 DUP1 PUSH1 0x0 DUP1 PUSH1 0x0 DUP1 PUSH1 0xC0 DUP8 DUP10 SUB SLT ISZERO PUSH2 0x224B JUMPI PUSH2 0x224A PUSH2 0x1B98 JUMP JUMPDEST JUMPDEST PUSH1 0x0 PUSH2 0x2259 DUP10 DUP3 DUP11 ADD PUSH2 0x1BEB JUMP JUMPDEST SWAP7 POP POP PUSH1 0x20 DUP8 ADD CALLDATALOAD PUSH8 0xFFFFFFFFFFFFFFFF DUP2 GT ISZERO PUSH2 0x227A JUMPI PUSH2 0x2279 PUSH2 0x1B9D JUMP JUMPDEST JUMPDEST PUSH2 0x2286 DUP10 DUP3 DUP11 ADD PUSH2 0x1D2B JUMP JUMPDEST SWAP6 POP POP PUSH1 0x40 DUP8 ADD CALLDATALOAD PUSH8 0xFFFFFFFFFFFFFFFF DUP2 GT ISZERO PUSH2 0x22A7 JUMPI PUSH2 0x22A6 PUSH2 0x1B9D JUMP JUMPDEST JUMPDEST PUSH2 0x22B3 DUP10 DUP3 DUP11 ADD PUSH2 0x1FBA JUMP JUMPDEST SWAP5 POP POP PUSH1 0x60 DUP8 ADD CALLDATALOAD PUSH8 0xFFFFFFFFFFFFFFFF DUP2 GT ISZERO PUSH2 0x22D4 JUMPI PUSH2 0x22D3 PUSH2 0x1B9D JUMP JUMPDEST JUMPDEST PUSH2 0x22E0 DUP10 DUP3 DUP11 ADD PUSH2 0x1EC1 JUMP JUMPDEST SWAP4 POP POP PUSH1 0x80 DUP8 ADD CALLDATALOAD PUSH8 0xFFFFFFFFFFFFFFFF DUP2 GT ISZERO PUSH2 0x2301 JUMPI PUSH2 0x2300 PUSH2 0x1B9D JUMP JUMPDEST JUMPDEST PUSH2 0x230D DUP10 DUP3 DUP11 ADD PUSH2 0x1EC1 JUMP JUMPDEST SWAP3 POP POP PUSH1 0xA0 DUP8 ADD CALLDATALOAD PUSH8 0xFFFFFFFFFFFFFFFF DUP2 GT ISZERO PUSH2 0x232E JUMPI PUSH2 0x232D PUSH2 0x1B9D JUMP JUMPDEST JUMPDEST PUSH2 0x233A DUP10 DUP3 DUP11 ADD PUSH2 0x1FBA JUMP JUMPDEST SWAP2 POP POP SWAP3 SWAP6 POP SWAP3 SWAP6 POP SWAP3 SWAP6 JUMP JUMPDEST PUSH1 0x0 DUP1 PUSH1 0x0 PUSH1 0x60 DUP5 DUP7 SUB SLT ISZERO PUSH2 0x2360 JUMPI PUSH2 0x235F PUSH2 0x1B98 JUMP JUMPDEST JUMPDEST PUSH1 0x0 PUSH2 0x236E DUP7 DUP3 DUP8 ADD PUSH2 0x1BEB JUMP JUMPDEST SWAP4 POP POP PUSH1 0x20 PUSH2 0x237F DUP7 DUP3 DUP8 ADD PUSH2 0x1F3C JUMP JUMPDEST SWAP3 POP POP PUSH1 0x40 PUSH2 0x2390 DUP7 DUP3 DUP8 ADD PUSH2 0x1F3C JUMP JUMPDEST SWAP2 POP POP SWAP3 POP SWAP3 POP SWAP3 JUMP JUMPDEST PUSH1 0x0 DUP1 PUSH1 0x40 DUP4 DUP6 SUB SLT ISZERO PUSH2 0x23B1 JUMPI PUSH2 0x23B0 PUSH2 0x1B98 JUMP JUMPDEST JUMPDEST PUSH1 0x0 PUSH2 0x23BF DUP6 DUP3 DUP7 ADD PUSH2 0x1BEB JUMP JUMPDEST SWAP3 POP POP PUSH1 0x20 PUSH2 0x23D0 DUP6 DUP3 DUP7 ADD PUSH2 0x1F3C JUMP JUMPDEST SWAP2 POP POP SWAP3 POP SWAP3 SWAP1 POP JUMP JUMPDEST PUSH1 0x0 DUP1 PUSH1 0x0 DUP1 PUSH1 0x0 DUP1 PUSH1 0x0 DUP1 PUSH1 0x0 DUP1 PUSH1 0x0 PUSH2 0x160 DUP13 DUP15 SUB SLT ISZERO PUSH2 0x2400 JUMPI PUSH2 0x23FF PUSH2 0x1B98 JUMP JUMPDEST JUMPDEST PUSH1 0x0 DUP13 ADD CALLDATALOAD PUSH8 0xFFFFFFFFFFFFFFFF DUP2 GT ISZERO PUSH2 0x241E JUMPI PUSH2 0x241D PUSH2 0x1B9D JUMP JUMPDEST JUMPDEST PUSH2 0x242A DUP15 DUP3 DUP16 ADD PUSH2 0x1D2B JUMP JUMPDEST SWAP12 POP POP PUSH1 0x20 DUP13 ADD CALLDATALOAD PUSH8 0xFFFFFFFFFFFFFFFF DUP2 GT ISZERO PUSH2 0x244B JUMPI PUSH2 0x244A PUSH2 0x1B9D JUMP JUMPDEST JUMPDEST PUSH2 0x2457 DUP15 DUP3 DUP16 ADD PUSH2 0x1FBA JUMP JUMPDEST SWAP11 POP POP PUSH1 0x40 DUP13 ADD CALLDATALOAD PUSH8 0xFFFFFFFFFFFFFFFF DUP2 GT ISZERO PUSH2 0x2478 JUMPI PUSH2 0x2477 PUSH2 0x1B9D JUMP JUMPDEST JUMPDEST PUSH2 0x2484 DUP15 DUP3 DUP16 ADD PUSH2 0x1EC1 JUMP JUMPDEST SWAP10 POP POP PUSH1 0x60 DUP13 ADD CALLDATALOAD PUSH8 0xFFFFFFFFFFFFFFFF DUP2 GT ISZERO PUSH2 0x24A5 JUMPI PUSH2 0x24A4 PUSH2 0x1B9D JUMP JUMPDEST JUMPDEST PUSH2 0x24B1 DUP15 DUP3 DUP16 ADD PUSH2 0x1EC1 JUMP JUMPDEST SWAP9 POP POP PUSH1 0x80 DUP13 ADD CALLDATALOAD PUSH8 0xFFFFFFFFFFFFFFFF DUP2 GT ISZERO PUSH2 0x24D2 JUMPI PUSH2 0x24D1 PUSH2 0x1B9D JUMP JUMPDEST JUMPDEST PUSH2 0x24DE DUP15 DUP3 DUP16 ADD PUSH2 0x1D2B JUMP JUMPDEST SWAP8 POP POP PUSH1 0xA0 DUP13 ADD CALLDATALOAD PUSH8 0xFFFFFFFFFFFFFFFF DUP2 GT ISZERO PUSH2 0x24FF JUMPI PUSH2 0x24FE PUSH2 0x1B9D JUMP JUMPDEST JUMPDEST PUSH2 0x250B DUP15 DUP3 DUP16 ADD PUSH2 0x1D2B JUMP JUMPDEST SWAP7 POP POP PUSH1 0xC0 DUP13 ADD CALLDATALOAD PUSH8 0xFFFFFFFFFFFFFFFF DUP2 GT ISZERO PUSH2 0x252C JUMPI PUSH2 0x252B PUSH2 0x1B9D JUMP JUMPDEST JUMPDEST PUSH2 0x2538 DUP15 DUP3 DUP16 ADD PUSH2 0x1FBA JUMP JUMPDEST SWAP6 POP POP PUSH1 0xE0 DUP13 ADD CALLDATALOAD PUSH8 0xFFFFFFFFFFFFFFFF DUP2 GT ISZERO PUSH2 0x2559 JUMPI PUSH2 0x2558 PUSH2 0x1B9D JUMP JUMPDEST JUMPDEST PUSH2 0x2565 DUP15 DUP3 DUP16 ADD PUSH2 0x1FBA JUMP JUMPDEST SWAP5 POP POP PUSH2 0x100 DUP13 ADD CALLDATALOAD PUSH8 0xFFFFFFFFFFFFFFFF DUP2 GT ISZERO PUSH2 0x2587 JUMPI PUSH2 0x2586 PUSH2 0x1B9D JUMP JUMPDEST JUMPDEST PUSH2 0x2593 DUP15 DUP3 DUP16 ADD PUSH2 0x1EC1 JUMP JUMPDEST SWAP4 POP POP PUSH2 0x120 DUP13 ADD CALLDATALOAD PUSH8 0xFFFFFFFFFFFFFFFF DUP2 GT ISZERO PUSH2 0x25B5 JUMPI PUSH2 0x25B4 PUSH2 0x1B9D JUMP JUMPDEST JUMPDEST PUSH2 0x25C1 DUP15 DUP3 DUP16 ADD PUSH2 0x1EC1 JUMP JUMPDEST SWAP3 POP POP PUSH2 0x140 DUP13 ADD CALLDATALOAD PUSH8 0xFFFFFFFFFFFFFFFF DUP2 GT ISZERO PUSH2 0x25E3 JUMPI PUSH2 0x25E2 PUSH2 0x1B9D JUMP JUMPDEST JUMPDEST PUSH2 0x25EF DUP15 DUP3 DUP16 ADD PUSH2 0x1FBA JUMP JUMPDEST SWAP2 POP POP SWAP3 SWAP6 SWAP9 SWAP12 POP SWAP3 SWAP6 SWAP9 SWAP12 SWAP1 SWAP4 SWAP7 SWAP10 POP JUMP JUMPDEST PUSH32 0x6C656E677468206E6F742073616D650000000000000000000000000000000000 PUSH1 0x0 DUP3 ADD MSTORE POP JUMP JUMPDEST PUSH1 0x0 PUSH2 0x2638 PUSH1 0xF DUP4 PUSH2 0x2198 JUMP JUMPDEST SWAP2 POP PUSH2 0x2643 DUP3 PUSH2 0x2602 JUMP JUMPDEST PUSH1 0x20 DUP3 ADD SWAP1 POP SWAP2 SWAP1 POP JUMP JUMPDEST PUSH1 0x0 PUSH1 0x20 DUP3 ADD SWAP1 POP DUP2 DUP2 SUB PUSH1 0x0 DUP4 ADD MSTORE PUSH2 0x2667 DUP2 PUSH2 0x262B JUMP JUMPDEST SWAP1 POP SWAP2 SWAP1 POP JUMP JUMPDEST PUSH1 0x0 DUP2 MLOAD SWAP1 POP PUSH2 0x267D DUP2 PUSH2 0x1F25 JUMP JUMPDEST SWAP3 SWAP2 POP POP JUMP JUMPDEST PUSH1 0x0 PUSH1 0x20 DUP3 DUP5 SUB SLT ISZERO PUSH2 0x2699 JUMPI PUSH2 0x2698 PUSH2 0x1B98 JUMP JUMPDEST JUMPDEST PUSH1 0x0 PUSH2 0x26A7 DUP5 DUP3 DUP6 ADD PUSH2 0x266E JUMP JUMPDEST SWAP2 POP POP SWAP3 SWAP2 POP POP JUMP JUMPDEST PUSH32 0x4E487B7100000000000000000000000000000000000000000000000000000000 PUSH1 0x0 MSTORE PUSH1 0x11 PUSH1 0x4 MSTORE PUSH1 0x24 PUSH1 0x0 REVERT JUMPDEST PUSH1 0x0 PUSH2 0x26EA DUP3 PUSH2 0x1F1B JUMP JUMPDEST SWAP2 POP PUSH2 0x26F5 DUP4 PUSH2 0x1F1B JUMP JUMPDEST SWAP3 POP DUP3 DUP3 ADD SWAP1 POP DUP1 DUP3 GT ISZERO PUSH2 0x270D JUMPI PUSH2 0x270C PUSH2 0x26B0 JUMP JUMPDEST JUMPDEST SWAP3 SWAP2 POP POP JUMP JUMPDEST PUSH32 0x4E487B7100000000000000000000000000000000000000000000000000000000 PUSH1 0x0 MSTORE PUSH1 0x32 PUSH1 0x4 MSTORE PUSH1 0x24 PUSH1 0x0 REVERT JUMPDEST PUSH2 0x274B DUP2 PUSH2 0x1BC2 JUMP JUMPDEST DUP3 MSTORE POP POP JUMP JUMPDEST PUSH1 0x0 PUSH1 0x40 DUP3 ADD SWAP1 POP PUSH2 0x2766 PUSH1 0x0 DUP4 ADD DUP6 PUSH2 0x2742 JUMP JUMPDEST PUSH2 0x2773 PUSH1 0x20 DUP4 ADD DUP5 PUSH2 0x2742 JUMP JUMPDEST SWAP4 SWAP3 POP POP POP JUMP JUMPDEST PUSH1 0x0 PUSH1 0x40 DUP3 ADD SWAP1 POP PUSH2 0x278F PUSH1 0x0 DUP4 ADD DUP6 PUSH2 0x2742 JUMP JUMPDEST DUP2 DUP2 SUB PUSH1 0x20 DUP4 ADD MSTORE PUSH2 0x27A1 DUP2 DUP5 PUSH2 0x21D3 JUMP JUMPDEST SWAP1 POP SWAP4 SWAP3 POP POP POP JUMP JUMPDEST PUSH1 0x0 PUSH2 0x27B5 DUP3 PUSH2 0x1F1B JUMP JUMPDEST SWAP2 POP PUSH32 0xFFFFFFFFFFFFFFFFFFFFFFFFFFFFFFFFFFFFFFFFFFFFFFFFFFFFFFFFFFFFFFFF DUP3 SUB PUSH2 0x27E7 JUMPI PUSH2 0x27E6 PUSH2 0x26B0 JUMP JUMPDEST JUMPDEST PUSH1 0x1 DUP3 ADD SWAP1 POP SWAP2 SWAP1 POP JUMP JUMPDEST PUSH1 0x0 PUSH2 0x27FD DUP3 PUSH2 0x1F1B JUMP JUMPDEST SWAP2 POP PUSH2 0x2808 DUP4 PUSH2 0x1F1B JUMP JUMPDEST SWAP3 POP DUP3 DUP3 MUL PUSH2 0x2816 DUP2 PUSH2 0x1F1B JUMP JUMPDEST SWAP2 POP DUP3 DUP3 DIV DUP5 EQ DUP4 ISZERO OR PUSH2 0x282D JUMPI PUSH2 0x282C PUSH2 0x26B0 JUMP JUMPDEST JUMPDEST POP SWAP3 SWAP2 POP POP JUMP JUMPDEST PUSH32 0x4E487B7100000000000000000000000000000000000000000000000000000000 PUSH1 0x0 MSTORE PUSH1 0x12 PUSH1 0x4 MSTORE PUSH1 0x24 PUSH1 0x0 REVERT JUMPDEST PUSH1 0x0 PUSH2 0x286E DUP3 PUSH2 0x1F1B JUMP JUMPDEST SWAP2 POP PUSH2 0x2879 DUP4 PUSH2 0x1F1B JUMP JUMPDEST SWAP3 POP DUP3 PUSH2 0x2889 JUMPI PUSH2 0x2888 PUSH2 0x2834 JUMP JUMPDEST JUMPDEST DUP3 DUP3 DIV SWAP1 POP SWAP3 SWAP2 POP POP JUMP JUMPDEST PUSH1 0x0 PUSH2 0x289F DUP3 PUSH2 0x1F1B JUMP JUMPDEST SWAP2 POP PUSH2 0x28AA DUP4 PUSH2 0x1F1B JUMP JUMPDEST SWAP3 POP DUP3 PUSH2 0x28BA JUMPI PUSH2 0x28B9 PUSH2 0x2834 JUMP JUMPDEST JUMPDEST DUP3 DUP3 MOD SWAP1 POP SWAP3 SWAP2 POP POP JUMP JUMPDEST PUSH1 0x0 DUP2 SWAP1 POP SWAP3 SWAP2 POP POP JUMP JUMPDEST PUSH32 0x3078000000000000000000000000000000000000000000000000000000000000 PUSH1 0x0 DUP3 ADD MSTORE POP JUMP JUMPDEST PUSH1 0x0 PUSH2 0x2906 PUSH1 0x2 DUP4 PUSH2 0x28C5 JUMP JUMPDEST SWAP2 POP PUSH2 0x2911 DUP3 PUSH2 0x28D0 JUMP JUMPDEST PUSH1 0x2 DUP3 ADD SWAP1 POP SWAP2 SWAP1 POP JUMP JUMPDEST PUSH1 0x0 DUP2 MLOAD SWAP1 POP SWAP2 SWAP1 POP JUMP JUMPDEST PUSH1 0x0 DUP2 SWAP1 POP SWAP3 SWAP2 POP POP JUMP JUMPDEST PUSH1 0x0 PUSH2 0x293D DUP3 PUSH2 0x291C JUMP JUMPDEST PUSH2 0x2947 DUP2 DUP6 PUSH2 0x2927 JUMP JUMPDEST SWAP4 POP PUSH2 0x2957 DUP2 DUP6 PUSH1 0x20 DUP7 ADD PUSH2 0x21A9 JUMP JUMPDEST DUP1 DUP5 ADD SWAP2 POP POP SWAP3 SWAP2 POP POP JUMP JUMPDEST PUSH1 0x0 PUSH2 0x296E DUP3 PUSH2 0x28F9 JUMP JUMPDEST SWAP2 POP PUSH2 0x297A DUP3 DUP5 PUSH2 0x2932 JUMP JUMPDEST SWAP2 POP DUP2 SWAP1 POP SWAP3 SWAP2 POP POP JUMP JUMPDEST PUSH2 0x298E DUP2 PUSH2 0x1F1B JUMP JUMPDEST DUP3 MSTORE POP POP JUMP JUMPDEST PUSH1 0x0 PUSH1 0xA0 DUP3 ADD SWAP1 POP PUSH2 0x29A9 PUSH1 0x0 DUP4 ADD DUP9 PUSH2 0x2742 JUMP JUMPDEST PUSH2 0x29B6 PUSH1 0x20 DUP4 ADD DUP8 PUSH2 0x2985 JUMP JUMPDEST DUP2 DUP2 SUB PUSH1 0x40 DUP4 ADD MSTORE PUSH2 0x29C8 DUP2 DUP7 PUSH2 0x21D3 JUMP JUMPDEST SWAP1 POP DUP2 DUP2 SUB PUSH1 0x60 DUP4 ADD MSTORE PUSH2 0x29DC DUP2 DUP6 PUSH2 0x21D3 JUMP JUMPDEST SWAP1 POP PUSH2 0x29EB PUSH1 0x80 DUP4 ADD DUP5 PUSH2 0x2985 JUMP JUMPDEST SWAP7 SWAP6 POP POP POP POP POP POP JUMP JUMPDEST PUSH32 0x4E487B7100000000000000000000000000000000000000000000000000000000 PUSH1 0x0 MSTORE PUSH1 0x22 PUSH1 0x4 MSTORE PUSH1 0x24 PUSH1 0x0 REVERT JUMPDEST PUSH1 0x0 PUSH1 0x2 DUP3 DIV SWAP1 POP PUSH1 0x1 DUP3 AND DUP1 PUSH2 0x2A3C JUMPI PUSH1 0x7F DUP3 AND SWAP2 POP JUMPDEST PUSH1 0x20 DUP3 LT DUP2 SUB PUSH2 0x2A4F JUMPI PUSH2 0x2A4E PUSH2 0x29F5 JUMP JUMPDEST JUMPDEST POP SWAP2 SWAP1 POP JUMP JUMPDEST PUSH1 0x0 PUSH1 0x20 DUP3 ADD SWAP1 POP PUSH2 0x2A6A PUSH1 0x0 DUP4 ADD DUP5 PUSH2 0x2985 JUMP JUMPDEST SWAP3 SWAP2 POP POP JUMP JUMPDEST PUSH1 0x0 DUP2 MLOAD SWAP1 POP PUSH2 0x2A7F DUP2 PUSH2 0x1BD4 JUMP JUMPDEST SWAP3 SWAP2 POP POP JUMP JUMPDEST PUSH1 0x0 PUSH1 0x20 DUP3 DUP5 SUB SLT ISZERO PUSH2 0x2A9B JUMPI PUSH2 0x2A9A PUSH2 0x1B98 JUMP JUMPDEST JUMPDEST PUSH1 0x0 PUSH2 0x2AA9 DUP5 DUP3 DUP6 ADD PUSH2 0x2A70 JUMP JUMPDEST SWAP2 POP POP SWAP3 SWAP2 POP POP JUMP JUMPDEST PUSH32 0x5065726D697373696F6E2064656E6965643A6E66742069742773206E6F742079 PUSH1 0x0 DUP3 ADD MSTORE PUSH32 0x6F75727300000000000000000000000000000000000000000000000000000000 PUSH1 0x20 DUP3 ADD MSTORE POP JUMP JUMPDEST PUSH1 0x0 PUSH2 0x2B0E PUSH1 0x24 DUP4 PUSH2 0x2198 JUMP JUMPDEST SWAP2 POP PUSH2 0x2B19 DUP3 PUSH2 0x2AB2 JUMP JUMPDEST PUSH1 0x40 DUP3 ADD SWAP1 POP SWAP2 SWAP1 POP JUMP JUMPDEST PUSH1 0x0 PUSH1 0x20 DUP3 ADD SWAP1 POP DUP2 DUP2 SUB PUSH1 0x0 DUP4 ADD MSTORE PUSH2 0x2B3D DUP2 PUSH2 0x2B01 JUMP JUMPDEST SWAP1 POP SWAP2 SWAP1 POP JUMP JUMPDEST PUSH32 0x7072696365206D757374206D6F7265207468616E207468652030000000000000 PUSH1 0x0 DUP3 ADD MSTORE POP JUMP JUMPDEST PUSH1 0x0 PUSH2 0x2B7A PUSH1 0x1A DUP4 PUSH2 0x2198 JUMP JUMPDEST SWAP2 POP PUSH2 0x2B85 DUP3 PUSH2 0x2B44 JUMP JUMPDEST PUSH1 0x20 DUP3 ADD SWAP1 POP SWAP2 SWAP1 POP JUMP JUMPDEST PUSH1 0x0 PUSH1 0x20 DUP3 ADD SWAP1 POP DUP2 DUP2 SUB PUSH1 0x0 DUP4 ADD MSTORE PUSH2 0x2BA9 DUP2 PUSH2 0x2B6D JUMP JUMPDEST SWAP1 POP SWAP2 SWAP1 POP JUMP JUMPDEST PUSH1 0x0 PUSH1 0x20 DUP3 ADD SWAP1 POP PUSH2 0x2BC5 PUSH1 0x0 DUP4 ADD DUP5 PUSH2 0x2742 JUMP JUMPDEST SWAP3 SWAP2 POP POP JUMP JUMPDEST PUSH32 0x6E6F742073656C6C696E67000000000000000000000000000000000000000000 PUSH1 0x0 DUP3 ADD MSTORE POP JUMP JUMPDEST PUSH1 0x0 PUSH2 0x2C01 PUSH1 0xB DUP4 PUSH2 0x2198 JUMP JUMPDEST SWAP2 POP PUSH2 0x2C0C DUP3 PUSH2 0x2BCB JUMP JUMPDEST PUSH1 0x20 DUP3 ADD SWAP1 POP SWAP2 SWAP1 POP JUMP JUMPDEST PUSH1 0x0 PUSH1 0x20 DUP3 ADD SWAP1 POP DUP2 DUP2 SUB PUSH1 0x0 DUP4 ADD MSTORE PUSH2 0x2C30 DUP2 PUSH2 0x2BF4 JUMP JUMPDEST SWAP1 POP SWAP2 SWAP1 POP JUMP JUMPDEST PUSH32 0x496E636F72726563742070726963650000000000000000000000000000000000 PUSH1 0x0 DUP3 ADD MSTORE POP JUMP JUMPDEST PUSH1 0x0 PUSH2 0x2C6D PUSH1 0xF DUP4 PUSH2 0x2198 JUMP JUMPDEST SWAP2 POP PUSH2 0x2C78 DUP3 PUSH2 0x2C37 JUMP JUMPDEST PUSH1 0x20 DUP3 ADD SWAP1 POP SWAP2 SWAP1 POP JUMP JUMPDEST PUSH1 0x0 PUSH1 0x20 DUP3 ADD SWAP1 POP DUP2 DUP2 SUB PUSH1 0x0 DUP4 ADD MSTORE PUSH2 0x2C9C DUP2 PUSH2 0x2C60 JUMP JUMPDEST SWAP1 POP SWAP2 SWAP1 POP JUMP JUMPDEST PUSH32 0x76616C756520213D2073756D2076616C75657300000000000000000000000000 PUSH1 0x0 DUP3 ADD MSTORE POP JUMP JUMPDEST PUSH1 0x0 PUSH2 0x2CD9 PUSH1 0x13 DUP4 PUSH2 0x2198 JUMP JUMPDEST SWAP2 POP PUSH2 0x2CE4 DUP3 PUSH2 0x2CA3 JUMP JUMPDEST PUSH1 0x20 DUP3 ADD SWAP1 POP SWAP2 SWAP1 POP JUMP JUMPDEST PUSH1 0x0 PUSH1 0x20 DUP3 ADD SWAP1 POP DUP2 DUP2 SUB PUSH1 0x0 DUP4 ADD MSTORE PUSH2 0x2D08 DUP2 PUSH2 0x2CCC JUMP JUMPDEST SWAP1 POP SWAP2 SWAP1 POP JUMP JUMPDEST PUSH1 0x0 PUSH1 0x80 DUP3 ADD SWAP1 POP PUSH2 0x2D24 PUSH1 0x0 DUP4 ADD DUP8 PUSH2 0x2742 JUMP JUMPDEST PUSH2 0x2D31 PUSH1 0x20 DUP4 ADD DUP7 PUSH2 0x2742 JUMP JUMPDEST PUSH2 0x2D3E PUSH1 0x40 DUP4 ADD DUP6 PUSH2 0x2985 JUMP JUMPDEST PUSH2 0x2D4B PUSH1 0x60 DUP4 ADD DUP5 PUSH2 0x2985 JUMP JUMPDEST SWAP6 SWAP5 POP POP POP POP POP JUMP JUMPDEST PUSH1 0x0 DUP2 SWAP1 POP DUP2 PUSH1 0x0 MSTORE PUSH1 0x20 PUSH1 0x0 KECCAK256 SWAP1 POP SWAP2 SWAP1 POP JUMP JUMPDEST PUSH1 0x0 DUP2 SLOAD PUSH2 0x2D76 DUP2 PUSH2 0x2A24 JUMP JUMPDEST PUSH2 0x2D80 DUP2 DUP7 PUSH2 0x28C5 JUMP JUMPDEST SWAP5 POP PUSH1 0x1 DUP3 AND PUSH1 0x0 DUP2 EQ PUSH2 0x2D9B JUMPI PUSH1 0x1 DUP2 EQ PUSH2 0x2DB0 JUMPI PUSH2 0x2DE3 JUMP JUMPDEST PUSH1 0xFF NOT DUP4 AND DUP7 MSTORE DUP2 ISZERO ISZERO DUP3 MUL DUP7 ADD SWAP4 POP PUSH2 0x2DE3 JUMP JUMPDEST PUSH2 0x2DB9 DUP6 PUSH2 0x2D54 JUMP JUMPDEST PUSH1 0x0 JUMPDEST DUP4 DUP2 LT ISZERO PUSH2 0x2DDB JUMPI DUP2 SLOAD DUP2 DUP10 ADD MSTORE PUSH1 0x1 DUP3 ADD SWAP2 POP PUSH1 0x20 DUP2 ADD SWAP1 POP PUSH2 0x2DBC JUMP JUMPDEST DUP4 DUP9 ADD SWAP6 POP POP POP JUMPDEST POP POP POP SWAP3 SWAP2 POP POP JUMP JUMPDEST PUSH1 0x0 PUSH2 0x2DF7 DUP3 PUSH2 0x218D JUMP JUMPDEST PUSH2 0x2E01 DUP2 DUP6 PUSH2 0x28C5 JUMP JUMPDEST SWAP4 POP PUSH2 0x2E11 DUP2 DUP6 PUSH1 0x20 DUP7 ADD PUSH2 0x21A9 JUMP JUMPDEST DUP1 DUP5 ADD SWAP2 POP POP SWAP3 SWAP2 POP POP JUMP JUMPDEST PUSH1 0x0 PUSH2 0x2E29 DUP3 DUP7 PUSH2 0x2D69 JUMP JUMPDEST SWAP2 POP PUSH2 0x2E35 DUP3 DUP6 PUSH2 0x2DEC JUMP JUMPDEST SWAP2 POP PUSH2 0x2E41 DUP3 DUP5 PUSH2 0x2DEC JUMP JUMPDEST SWAP2 POP DUP2 SWAP1 POP SWAP5 SWAP4 POP POP POP POP JUMP JUMPDEST PUSH1 0x0 DUP2 SWAP1 POP SWAP2 SWAP1 POP JUMP JUMPDEST PUSH1 0x0 DUP2 SWAP1 POP SWAP2 SWAP1 POP JUMP JUMPDEST PUSH2 0x2E73 PUSH2 0x2E6E DUP3 PUSH2 0x2E4E JUMP JUMPDEST PUSH2 0x2E58 JUMP JUMPDEST DUP3 MSTORE POP POP JUMP JUMPDEST PUSH1 0x0 PUSH2 0x2E85 DUP3 DUP5 PUSH2 0x2E62 JUMP JUMPDEST PUSH1 0x20 DUP3 ADD SWAP2 POP DUP2 SWAP1 POP SWAP3 SWAP2 POP POP JUMP JUMPDEST PUSH1 0x0 PUSH2 0x2EA0 DUP3 DUP5 PUSH2 0x2DEC JUMP JUMPDEST SWAP2 POP DUP2 SWAP1 POP SWAP3 SWAP2 POP POP JUMP JUMPDEST PUSH32 0x68617368206973206572726F7200000000000000000000000000000000000000 PUSH1 0x0 DUP3 ADD MSTORE POP JUMP JUMPDEST PUSH1 0x0 PUSH2 0x2EE1 PUSH1 0xD DUP4 PUSH2 0x2198 JUMP JUMPDEST SWAP2 POP PUSH2 0x2EEC DUP3 PUSH2 0x2EAB JUMP JUMPDEST PUSH1 0x20 DUP3 ADD SWAP1 POP SWAP2 SWAP1 POP JUMP JUMPDEST PUSH1 0x0 PUSH1 0x20 DUP3 ADD SWAP1 POP DUP2 DUP2 SUB PUSH1 0x0 DUP4 ADD MSTORE PUSH2 0x2F10 DUP2 PUSH2 0x2ED4 JUMP JUMPDEST SWAP1 POP SWAP2 SWAP1 POP JUMP JUMPDEST PUSH1 0x0 PUSH2 0x2F2A PUSH2 0x2F25 DUP5 PUSH2 0x1D8A JUMP JUMPDEST PUSH2 0x1C76 JUMP JUMPDEST SWAP1 POP DUP3 DUP2 MSTORE PUSH1 0x20 DUP2 ADD DUP5 DUP5 DUP5 ADD GT ISZERO PUSH2 0x2F46 JUMPI PUSH2 0x2F45 PUSH2 0x1D85 JUMP JUMPDEST JUMPDEST PUSH2 0x2F51 DUP5 DUP3 DUP6 PUSH2 0x21A9 JUMP JUMPDEST POP SWAP4 SWAP3 POP POP POP JUMP JUMPDEST PUSH1 0x0 DUP3 PUSH1 0x1F DUP4 ADD SLT PUSH2 0x2F6E JUMPI PUSH2 0x2F6D PUSH2 0x1C00 JUMP JUMPDEST JUMPDEST DUP2 MLOAD PUSH2 0x2F7E DUP5 DUP3 PUSH1 0x20 DUP7 ADD PUSH2 0x2F17 JUMP JUMPDEST SWAP2 POP POP SWAP3 SWAP2 POP POP JUMP JUMPDEST PUSH1 0x0 PUSH1 0x20 DUP3 DUP5 SUB SLT ISZERO PUSH2 0x2F9D JUMPI PUSH2 0x2F9C PUSH2 0x1B98 JUMP JUMPDEST JUMPDEST PUSH1 0x0 DUP3 ADD MLOAD PUSH8 0xFFFFFFFFFFFFFFFF DUP2 GT ISZERO PUSH2 0x2FBB JUMPI PUSH2 0x2FBA PUSH2 0x1B9D JUMP JUMPDEST JUMPDEST PUSH2 0x2FC7 DUP5 DUP3 DUP6 ADD PUSH2 0x2F59 JUMP JUMPDEST SWAP2 POP POP SWAP3 SWAP2 POP POP JUMP JUMPDEST PUSH1 0x0 PUSH1 0x40 DUP3 ADD SWAP1 POP PUSH2 0x2FE5 PUSH1 0x0 DUP4 ADD DUP6 PUSH2 0x2742 JUMP JUMPDEST PUSH2 0x2FF2 PUSH1 0x20 DUP4 ADD DUP5 PUSH2 0x2985 JUMP JUMPDEST SWAP4 SWAP3 POP POP POP JUMP JUMPDEST PUSH1 0x0 PUSH2 0x3004 DUP3 PUSH2 0x1F1B JUMP JUMPDEST SWAP2 POP PUSH2 0x300F DUP4 PUSH2 0x1F1B JUMP JUMPDEST SWAP3 POP DUP3 DUP3 SUB SWAP1 POP DUP2 DUP2 GT ISZERO PUSH2 0x3027 JUMPI PUSH2 0x3026 PUSH2 0x26B0 JUMP JUMPDEST JUMPDEST SWAP3 SWAP2 POP POP JUMP JUMPDEST PUSH1 0x0 DUP3 DUP3 MSTORE PUSH1 0x20 DUP3 ADD SWAP1 POP SWAP3 SWAP2 POP POP JUMP JUMPDEST POP JUMP JUMPDEST PUSH1 0x0 PUSH2 0x304E PUSH1 0x0 DUP4 PUSH2 0x302D JUMP JUMPDEST SWAP2 POP PUSH2 0x3059 DUP3 PUSH2 0x303E JUMP JUMPDEST PUSH1 0x0 DUP3 ADD SWAP1 POP SWAP2 SWAP1 POP JUMP JUMPDEST PUSH1 0x0 PUSH1 0xA0 DUP3 ADD SWAP1 POP PUSH2 0x3079 PUSH1 0x0 DUP4 ADD DUP8 PUSH2 0x2742 JUMP JUMPDEST PUSH2 0x3086 PUSH1 0x20 DUP4 ADD DUP7 PUSH2 0x2742 JUMP JUMPDEST PUSH2 0x3093 PUSH1 0x40 DUP4 ADD DUP6 PUSH2 0x2985 JUMP JUMPDEST PUSH2 0x30A0 PUSH1 0x60 DUP4 ADD DUP5 PUSH2 0x2985 JUMP JUMPDEST DUP2 DUP2 SUB PUSH1 0x80 DUP4 ADD MSTORE PUSH2 0x30B1 DUP2 PUSH2 0x3041 JUMP JUMPDEST SWAP1 POP SWAP6 SWAP5 POP POP POP POP POP JUMP JUMPDEST PUSH1 0x0 DUP2 SWAP1 POP SWAP2 SWAP1 POP JUMP JUMPDEST PUSH1 0x0 PUSH2 0x30E1 PUSH2 0x30DC PUSH2 0x30D7 DUP5 PUSH2 0x1BA2 JUMP JUMPDEST PUSH2 0x30BC JUMP JUMPDEST PUSH2 0x1BA2 JUMP JUMPDEST SWAP1 POP SWAP2 SWAP1 POP JUMP JUMPDEST PUSH1 0x0 PUSH2 0x30F3 DUP3 PUSH2 0x30C6 JUMP JUMPDEST SWAP1 POP SWAP2 SWAP1 POP JUMP JUMPDEST PUSH1 0x0 PUSH2 0x3105 DUP3 PUSH2 0x30E8 JUMP JUMPDEST SWAP1 POP SWAP2 SWAP1 POP JUMP JUMPDEST PUSH2 0x3115 DUP2 PUSH2 0x30FA JUMP JUMPDEST DUP3 MSTORE POP POP JUMP JUMPDEST PUSH1 0x0 DUP2 SWAP1 POP SWAP2 SWAP1 POP JUMP JUMPDEST PUSH1 0x0 PUSH2 0x3140 PUSH2 0x313B PUSH2 0x3136 DUP5 PUSH2 0x311B JUMP JUMPDEST PUSH2 0x30BC JUMP JUMPDEST PUSH2 0x1F1B JUMP JUMPDEST SWAP1 POP SWAP2 SWAP1 POP JUMP JUMPDEST PUSH2 0x3150 DUP2 PUSH2 0x3125 JUMP JUMPDEST DUP3 MSTORE POP POP JUMP JUMPDEST PUSH1 0x0 PUSH1 0x80 DUP3 ADD SWAP1 POP PUSH2 0x316B PUSH1 0x0 DUP4 ADD DUP8 PUSH2 0x310C JUMP JUMPDEST PUSH2 0x3178 PUSH1 0x20 DUP4 ADD DUP7 PUSH2 0x2742 JUMP JUMPDEST PUSH2 0x3185 PUSH1 0x40 DUP4 ADD DUP6 PUSH2 0x3147 JUMP JUMPDEST PUSH2 0x3192 PUSH1 0x60 DUP4 ADD DUP5 PUSH2 0x2985 JUMP JUMPDEST SWAP6 SWAP5 POP POP POP POP POP JUMP JUMPDEST PUSH32 0x4974656D206E6F742073656C6C696E6700000000000000000000000000000000 PUSH1 0x0 DUP3 ADD MSTORE POP JUMP JUMPDEST PUSH1 0x0 PUSH2 0x31D1 PUSH1 0x10 DUP4 PUSH2 0x2198 JUMP JUMPDEST SWAP2 POP PUSH2 0x31DC DUP3 PUSH2 0x319B JUMP JUMPDEST PUSH1 0x20 DUP3 ADD SWAP1 POP SWAP2 SWAP1 POP JUMP JUMPDEST PUSH1 0x0 PUSH1 0x20 DUP3 ADD SWAP1 POP DUP2 DUP2 SUB PUSH1 0x0 DUP4 ADD MSTORE PUSH2 0x3200 DUP2 PUSH2 0x31C4 JUMP JUMPDEST SWAP1 POP SWAP2 SWAP1 POP JUMP JUMPDEST PUSH1 0x0 PUSH1 0x60 DUP3 ADD SWAP1 POP PUSH2 0x321C PUSH1 0x0 DUP4 ADD DUP7 PUSH2 0x2742 JUMP JUMPDEST PUSH2 0x3229 PUSH1 0x20 DUP4 ADD DUP6 PUSH2 0x2742 JUMP JUMPDEST PUSH2 0x3236 PUSH1 0x40 DUP4 ADD DUP5 PUSH2 0x2985 JUMP JUMPDEST SWAP5 SWAP4 POP POP POP POP JUMP JUMPDEST PUSH1 0x0 PUSH1 0xFF DUP3 AND SWAP1 POP SWAP2 SWAP1 POP JUMP JUMPDEST PUSH1 0x0 PUSH2 0x3256 DUP3 PUSH2 0x323E JUMP JUMPDEST SWAP2 POP PUSH2 0x3261 DUP4 PUSH2 0x323E JUMP JUMPDEST SWAP3 POP DUP3 DUP3 ADD SWAP1 POP PUSH1 0xFF DUP2 GT ISZERO PUSH2 0x327A JUMPI PUSH2 0x3279 PUSH2 0x26B0 JUMP JUMPDEST JUMPDEST SWAP3 SWAP2 POP POP JUMP INVALID LOG2 PUSH5 0x6970667358 0x22 SLT KECCAK256 0x2E 0xB2 0xDE PUSH32 0x83D92FBEE588BC706E1F7E458DEA3E188A86E8AB31BD161AC5811D7964736F6C PUSH4 0x43000811 STOP CALLER "},"methodIdentifiers":{"batchAll(address[],uint256[],string[],string[],address[],address[],uint256[],uint256[],string[],string[],uint256[])":"abc04d8a","batchLockt1155(address,address[],uint256[],string[],string[],uint256[])":"486115c1","batchMint721(address,address[],string[],uint256[])":"1546f67f","bytesToHex(bytes)":"451d89fa","cancelSell(address,uint256)":"aa6ecb55","sell(address,uint256,uint256)":"6a272462","version()":"54fd4d50"}}}}}