{"contracts/Erc721Factory.sol":{"Erc721Factory":{"abi":[{"inputs":[{"internalType":"string","name":"_versoion","type":"string"},{"internalType":"address","name":"_robot","type":"address"}],"stateMutability":"nonpayable","type":"constructor"},{"anonymous":false,"inputs":[{"indexed":true,"internalType":"address","name":"erc721","type":"address"}],"name":"Created","type":"event"},{"inputs":[{"internalType":"string","name":"_name","type":"string"},{"internalType":"string","name":"_symbol","type":"string"}],"name":"createErc721","outputs":[{"internalType":"address","name":"erc721","type":"address"}],"stateMutability":"nonpayable","type":"function"},{"inputs":[],"name":"version","outputs":[{"internalType":"string","name":"","type":"string"}],"stateMutability":"view","type":"function"}],"evm":{"bytecode":{"linkReferences":{},"object":"608060405234610208576125238038038061001981610221565b9283398101906040818303126102085780516001600160401b039081811161020857820190601f848184011215610208578251938285116101f257602094601f199461006a84830187168801610221565b97828952878383010111610208579086929160005b82811061020d575050600090880183015201516001600160a01b03811694908590036102085785519283116101f25760019384548581811c911680156101e8575b838210146101d25783811161018c575b508192841160011461012c57505081929394600092610121575b5050600019600383901b1c191690821b1790555b600280546001600160a01b0319169190911790556040516122dc90816102478239f35b0151905038806100ea565b6000858152828120918516979193925b888210610175575050838596971061015c575b505050811b0190556100fe565b015160001960f88460031b161c1916905538808061014f565b80878596829496860151815501950193019061013c565b85600052826000208480870160051c8201928588106101c9575b0160051c019086905b8281106101bd5750506100d0565b600081550186906101af565b925081926101a6565b634e487b7160e01b600052602260045260246000fd5b90607f16906100c0565b634e487b7160e01b600052604160045260246000fd5b600080fd5b8181018501518a820186015288940161007f565b6040519190601f01601f191682016001600160401b038111838210176101f25760405256fe6080604052600436101562000014575b600080fd5b6000803560e01c90816354fd4d501462000043575063574620cf146200003957600080fd5b6200000f620002b7565b346200011d57806003193601126200011d578060018054906200006682620004a3565b91826080528181169081600014620000fc5750600114620000a4575b62000091607f198401620001cd565b60405180620000a0816200016e565b0390f35b8091925083527fb10e2d527612073b26eecdfd717e6a320cf44b4afac2b0732d9fcbe2b7fa0cf65b828410620000e75750505060a0620000919101828062000082565b81816020925460a087015201930192620000cc565b91505062000091935060a0925060ff19168252151560051b01828062000082565b80fd5b60009103126200000f57565b919082519283825260005b84811062000159575050826000602080949584010152601f8019910116010190565b60208183018101518483018201520162000137565b90602091828152608051808483015260005b818110620001a2575060409293506000838284010152601f8019910116010190565b60a081015183820160400152840162000180565b50634e487b7160e01b600052604160045260246000fd5b601f80199101166080016080811067ffffffffffffffff821117620001f157604052565b620001fb620001b6565b604052565b67ffffffffffffffff8111620001f157604052565b90601f8019910116810190811067ffffffffffffffff821117620001f157604052565b9062000248604051928362000215565b565b81601f820112156200000f5780359067ffffffffffffffff8211620002a7575b6040519262000284601f8401601f19166020018562000215565b828452602083830101116200000f57816000926020809301838601378301015290565b620002b1620001b6565b6200026a565b50346200000f5760403660031901126200000f5767ffffffffffffffff6004358181116200000f57620002ef9036906004016200024a565b906024359081116200000f576200030b9036906004016200024a565b90611cbe916200031e6020840162000238565b8381526020810193620005e985396200033b600160005401600055565b600080546040516bffffffffffffffffffffffff193360601b16602082019081526034808301939093529181529195916200037860548262000215565b51902091519085f560025490926001600160a01b03808516939216918591843b156200047857620003be6040519485938493635c6d8da160e01b855260048501620004e0565b038183865af1801562000493575b6200047c575b50803b15620004785760405163a843c51f60e01b81523360048201527f1449abf21e49fd025f33495e77f7b1461caefdd3d4bb646424a3f445c4576a5b9392620000a0929091848160248183865af1801562000468575b6200044a575b5060405194848695a26001600160a01b031682526020820190565b806200045a620004619262000200565b8062000120565b386200042f565b62000472620005db565b62000429565b8280fd5b806200045a6200048c9262000200565b38620003d2565b6200049d620005db565b620003cc565b90600182811c92168015620004d5575b6020831014620004bf57565b634e487b7160e01b600052602260045260246000fd5b91607f1691620004b3565b93929190620004fc6200050c916080875260808701906200012c565b602092868203848801526200012c565b9084820360408601526000916001908154916200052983620004a3565b80835292818116908115620005b957506001146200055d575b5050506001600160a01b039092166060949094019390935250565b60008181529394509091907fb10e2d527612073b26eecdfd717e6a320cf44b4afac2b0732d9fcbe2b7fa0cf65b828510620005a5575050500101606062000248388062000542565b80548486018701529385019381016200058a565b60ff191683860152505090151560051b01019050606062000248388062000542565b506040513d6000823e3d90fdfe60803462000354576001600160401b03906040818101838111838210176200033e578152600682526020916545524337323160d01b83820152815193828501858110828211176200033e57835260048552634537323160e01b8486015281518181116200033e576000948554916001948584811c9416801562000333575b838510146200031f578190601f94858111620002cc575b508390858311600114620002685789926200025c575b5050600019600383901b1c191690851b1786555b8651928311620002485783548481811c911680156200023d575b828210146200022957828111620001e1575b50809183116001146200017a5750849582939495926200016e575b5050600019600383901b1c191690821b1790555b60078054336001600160a01b03198216811790925591519290916001600160a01b0316907f8be0079c531659141344cd1fd0a4f28419497f9722a3daafe3b4186f6b6457e09080a361196490816200035a8239f35b01519050388062000105565b90601f198316968487528287209287905b898210620001c9575050838596979810620001af575b505050811b01905562000119565b015160001960f88460031b161c19169055388080620001a1565b8087859682949686015181550195019301906200018b565b8487528187208380860160051c8201928487106200021f575b0160051c019085905b82811062000213575050620000ea565b88815501859062000203565b92508192620001fa565b634e487b7160e01b87526022600452602487fd5b90607f1690620000d8565b634e487b7160e01b86526041600452602486fd5b015190503880620000aa565b898052848a208894509190601f1984168b5b87828210620002b557505084116200029b575b505050811b018655620000be565b015160001960f88460031b161c191690553880806200028d565b8385015186558b979095019493840193016200027a565b9091508880528389208580850160051c82019286861062000315575b918991869594930160051c01915b8281106200030657505062000094565b8b8155859450899101620002f6565b92508192620002e8565b634e487b7160e01b88526022600452602488fd5b93607f16936200007d565b634e487b7160e01b600052604160045260246000fd5b600080fdfe6080604081815260048036101561001557600080fd5b600092833560e01c90816301ffc9a7146111695750806306fdde03146110bf578063081812fc1461109f578063095ea7b314610f4057806323b872dd14610f165780633f8a4d6714610eed57806342842e0e14610ec457806354fd4d5014610e1a5780635c6d8da11461099b5780636352211e1461096a57806370a08231146108d4578063715018a6146108745780638da5cb5b1461084b57806395d89b4114610766578063a22cb4651461069b578063a843c51f14610670578063b88d4fde1461060b578063c87b56dd146104fd578063d0def52114610203578063e00dd161146101e4578063e985e9c5146101a95763f2fde38b1461011557600080fd5b346101a55760203660031901126101a55761012e611215565b91610137611340565b6001600160a01b03831615610153578361015084611398565b80f35b906020608492519162461bcd60e51b8352820152602660248201527f4f776e61626c653a206e6577206f776e657220697320746865207a65726f206160448201526564647265737360d01b6064820152fd5b8280fd5b5050346101e057806003193601126101e0576020906101d76101c9611215565b6101d1611230565b906118ec565b90519015158152f35b5080fd5b5050346101e057816003193601126101e057602090600c549051908152f35b5090346101a557806003193601126101a55761021d611215565b67ffffffffffffffff90602480358381116104f95761023f9036908701611322565b9060019485600c54019384600c5560018060a01b03169384156104b7576000818152600260205260409020546001600160a01b03166104755784895260209460038652828a208054908982018092116104635755818a5260028652828a2080546001600160a01b0319168217905581908a7fddf252ad1be2c89b69c2b068fc378daa952ba7f163c4a11628f55a4df523b3ef8180a46000818152600260205260409020546001600160a01b03161561040a5788526006845287209582519485116103f957505061030f85546118b2565b601f81116103b3575b5081601f841160011461035257509282939183928794610347575b50501b916000199060031b1c191617905580f35b015192503880610333565b919083601f1981168789528489209489905b888383106103995750505010610380575b505050811b01905580f35b015160001960f88460031b161c19169055388080610375565b858701518855909601959485019487935090810190610364565b858752828720601f850160051c8101918486106103ef575b601f0160051c019085905b8281106103e4575050610318565b8881550185906103d6565b90915081906103cb565b634e487b7160e01b88526041905286fd5b815162461bcd60e51b8152808901869052602e818501527f45524337323155524953746f726167653a2055524920736574206f66206e6f6e60448201526d32bc34b9ba32b73a103a37b5b2b760911b6064820152608490fd5b634e487b7160e01b8c5260118b52858cfd5b815162461bcd60e51b81526020818a0152601c818501527f4552433732313a20746f6b656e20616c7265616479206d696e746564000000006044820152606490fd5b815162461bcd60e51b81526020818a01819052818501527f4552433732313a206d696e7420746f20746865207a65726f20616464726573736044820152606490fd5b8680fd5b5090346101a557602091826003193601126106075735600081815260026020526040902054610536906001600160a01b031615156113e1565b835260068252808320928151809482908054610551816118b2565b918285526001918883821691826000146105e05750506001146105a2575b50505061059e9392916105839103866112ad565b815161058e8161127b565b52519282849384528301906111d5565b0390f35b8552868520879350859291905b8284106105c8575050508201018161058361059e61056f565b8054848b0186015289955088949093019281016105af565b60ff19168782015293151560051b86019093019350849250610583915061059e905061056f565b8380fd5b8382346101e05760803660031901126101e057610626611215565b61062e611230565b9060643567ffffffffffffffff811161066c573660238201121561066c5761015093816024610662933693013591016112eb565b91604435916114f1565b8480fd5b50346101a55760203660031901126101a55761068a611215565b91610693611340565b610137611340565b5090346101a557806003193601126101a5576106b5611215565b906024359182151580930361066c576001600160a01b0316923384146107245750338452600560205280842083855260205280842060ff1981541660ff8416179055519081527f17307eab39ab6107e8899845ad3d59bd9653f200f220920489ca2b5937696c3160203392a380f35b6020606492519162461bcd60e51b8352820152601960248201527f4552433732313a20617070726f766520746f2063616c6c6572000000000000006044820152fd5b5050346101e057816003193601126101e05780519082600954610788816118b2565b8085529160019180831690811561082357506001146107c6575b5050506107b48261059e9403836112ad565b519182916020835260208301906111d5565b9450600985527f6e1540171b6c0c960b71a7020d9f60077f6af931a8bbf590da0223dacf75c7af5b82861061080b575050506107b482602061059e95820101946107a2565b805460208787018101919091529095019481016107ee565b61059e9750869350602092506107b494915060ff191682840152151560051b820101946107a2565b5050346101e057816003193601126101e05760075490516001600160a01b039091168152602090f35b83346108d157806003193601126108d15761088d611340565b600780546001600160a01b0319811690915581906001600160a01b03167f8be0079c531659141344cd1fd0a4f28419497f9722a3daafe3b4186f6b6457e08280a380f35b80fd5b508290346101e05760203660031901126101e0576001600160a01b036108f8611215565b169081156109155760208480858581526003845220549051908152f35b608490602085519162461bcd60e51b8352820152602960248201527f4552433732313a2061646472657373207a65726f206973206e6f7420612076616044820152683634b21037bbb732b960b91b6064820152fd5b5091346108d15760203660031901126108d1575061098a6020923561142d565b90516001600160a01b039091168152f35b5082346108d15760803660031901126108d15767ffffffffffffffff82358181116101a5576109cd9036908501611322565b90602435818111610607576109e59036908601611322565b9160443582811161066c576109fd9036908701611322565b946064356001600160a01b0381169490859003610e16578251848111610d095780610a296008546118b2565b94601f95868111610daa575b50602090868311600114610d27578992610d1c575b50508160011b916000199060031b1c1916176008555b805190848211610d09578190610a776009546118b2565b858111610c9d575b50602090858311600114610c1a578892610c0f575b50508160011b916000199060031b1c1916176009555b8551928311610bfc5750610abf600a546118b2565b818111610b9c575b506020908211600114610b1b57839482939492610b10575b50508160011b916000199060031b1c191617600a555b6bffffffffffffffffffffffff60a01b600b541617600b5580f35b015190508480610adf565b600a84527fc65a7bb8d6351c1cf70c95a316cc6a92839c986682d98bc35f958f4883f9d2a890601f198316855b818110610b8457509583600195969710610b6b575b505050811b01600a55610af5565b015160001960f88460031b161c19169055848080610b5d565b9192602060018192868b015181550194019201610b48565b600a85527fc65a7bb8d6351c1cf70c95a316cc6a92839c986682d98bc35f958f4883f9d2a88280850160051c82019260208610610bf3575b0160051c01905b818110610be85750610ac7565b858155600101610bdb565b92508192610bd4565b634e487b7160e01b855260419052602484fd5b015190508880610a94565b600989527f6e1540171b6c0c960b71a7020d9f60077f6af931a8bbf590da0223dacf75c7af9250601f198416895b818110610c855750908460019594939210610c6c575b505050811b01600955610aaa565b015160001960f88460031b161c19169055888080610c5e565b92936020600181928786015181550195019301610c48565b909150600988527f6e1540171b6c0c960b71a7020d9f60077f6af931a8bbf590da0223dacf75c7af8580850160051c82019260208610610d00575b9085949392910160051c01905b818110610cf25750610a7f565b898155849350600101610ce5565b92508192610cd8565b634e487b7160e01b875260418352602487fd5b015190508980610a4a565b60088a527ff3f7a9fe364faab93b216da50a3214154f22a0a2b415b23a84c8169e8b636ee39250601f1984168a5b818110610d925750908460019594939210610d79575b505050811b01600855610a60565b015160001960f88460031b161c19169055898080610d6b565b92936020600181928786015181550195019301610d55565b909150600889527ff3f7a9fe364faab93b216da50a3214154f22a0a2b415b23a84c8169e8b636ee38680850160051c82019260208610610e0d575b9085949392910160051c01905b818110610dff5750610a35565b8a8155849350600101610df2565b92508192610de5565b8580fd5b5050346101e057816003193601126101e05780519082600a54610e3c816118b2565b808552916001918083169081156108235750600114610e67575050506107b48261059e9403836112ad565b9450600a85527fc65a7bb8d6351c1cf70c95a316cc6a92839c986682d98bc35f958f4883f9d2a85b828610610eac575050506107b482602061059e95820101946107a2565b80546020878701810191909152909501948101610e8f565b5050346101e05761015090610ed836611246565b91925192610ee58461127b565b8584526114f1565b5050346101e057816003193601126101e057600b5490516001600160a01b039091168152602090f35b83346108d157610150610f2836611246565b91610f3b610f36843361158c565b61148e565b6115e7565b50346101a557816003193601126101a557610f59611215565b9060243592610f678461142d565b6001600160a01b03938416939290838116858114611052573314908115611040575b5015610fd857848652602052842080546001600160a01b03191683179055610fb08361142d565b167f8c5be1e5ebec7d5bd14f71427d1e84f3dd0314c0f7b2291e5b200ac8c7c3b9258480a480f35b6020608492519162461bcd60e51b8352820152603e60248201527f4552433732313a20617070726f76652063616c6c6572206973206e6f7420746f60448201527f6b656e206f776e6572206e6f7220617070726f76656420666f7220616c6c00006064820152fd5b61104c915033906118ec565b38610f89565b835162461bcd60e51b8152602081850152602160248201527f4552433732313a20617070726f76616c20746f2063757272656e74206f776e656044820152603960f91b6064820152608490fd5b5091346108d15760203660031901126108d1575061098a60209235611450565b5050346101e057816003193601126101e057805190826008546110e1816118b2565b80855291600191808316908115610823575060011461110c575050506107b48261059e9403836112ad565b9450600885527ff3f7a9fe364faab93b216da50a3214154f22a0a2b415b23a84c8169e8b636ee35b828610611151575050506107b482602061059e95820101946107a2565b80546020878701810191909152909501948101611134565b925050346101a55760203660031901126101a5573563ffffffff60e01b81168091036101a557602092506380ac58cd60e01b81149081156111c4575b81156111b3575b5015158152f35b6301ffc9a760e01b149050386111ac565b635b5e139f60e01b811491506111a5565b919082519283825260005b848110611201575050826000602080949584010152601f8019910116010190565b6020818301810151848301820152016111e0565b600435906001600160a01b038216820361122b57565b600080fd5b602435906001600160a01b038216820361122b57565b606090600319011261122b576001600160a01b0390600435828116810361122b5791602435908116810361122b579060443590565b6020810190811067ffffffffffffffff82111761129757604052565b634e487b7160e01b600052604160045260246000fd5b90601f8019910116810190811067ffffffffffffffff82111761129757604052565b67ffffffffffffffff811161129757601f01601f191660200190565b9291926112f7826112cf565b9161130560405193846112ad565b82948184528183011161122b578281602093846000960137010152565b9080601f8301121561122b5781602061133d933591016112eb565b90565b6007546001600160a01b0316330361135457565b606460405162461bcd60e51b815260206004820152602060248201527f4f776e61626c653a2063616c6c6572206973206e6f7420746865206f776e65726044820152fd5b600780546001600160a01b039283166001600160a01b0319821681179092559091167f8be0079c531659141344cd1fd0a4f28419497f9722a3daafe3b4186f6b6457e0600080a3565b156113e857565b60405162461bcd60e51b815260206004820152601860248201527f4552433732313a20696e76616c696420746f6b656e20494400000000000000006044820152606490fd5b6000908152600260205260409020546001600160a01b031661133d8115156113e1565b600081815260026020526040902054611473906001600160a01b031615156113e1565b6000908152600460205260409020546001600160a01b031690565b1561149557565b60405162461bcd60e51b815260206004820152602e60248201527f4552433732313a2063616c6c6572206973206e6f7420746f6b656e206f776e6560448201526d1c881b9bdc88185c1c1c9bdd995960921b6064820152608490fd5b90611515939291611505610f36843361158c565b6115108383836115e7565b611791565b1561151c57565b60405162461bcd60e51b81528061153560048201611539565b0390fd5b60809060208152603260208201527f4552433732313a207472616e7366657220746f206e6f6e20455243373231526560408201527131b2b4bb32b91034b6b83632b6b2b73a32b960711b60608201520190565b6115958261142d565b9160018060a01b03908183169282851684149485156115d4575b505083156115be575b50505090565b6115ca91929350611450565b16143880806115b8565b6115df9295506118ec565b9238806115af565b6115f08361142d565b6001600160a01b03929183169190831682900361173e5782169182156116ed576000908482526004602052848260408120926bffffffffffffffffffffffff60a01b938481541690556116428361142d565b167f8c5be1e5ebec7d5bd14f71427d1e84f3dd0314c0f7b2291e5b200ac8c7c3b9258280a482825260036020526040822080546000198101919082116116d95755838252600360205260408220805490600182018092116116d957558482526002602052604082208054909116841790557fddf252ad1be2c89b69c2b068fc378daa952ba7f163c4a11628f55a4df523b3ef9080a4565b634e487b7160e01b84526011600452602484fd5b60405162461bcd60e51b8152602060048201526024808201527f4552433732313a207472616e7366657220746f20746865207a65726f206164646044820152637265737360e01b6064820152608490fd5b60405162461bcd60e51b815260206004820152602560248201527f4552433732313a207472616e736665722066726f6d20696e636f72726563742060448201526437bbb732b960d91b6064820152608490fd5b9293600093909291803b156118a7579484916117eb9660405180948193630a85bd0160e11b9788845233600485015260018060a01b0380921660248501526044840152608060648401528260209b8c9760848301906111d5565b0393165af1849181611867575b50611856575050503d60001461184e573d611812816112cf565b9061182060405192836112ad565b81528091833d92013e5b8051918261184b5760405162461bcd60e51b81528061153560048201611539565b01fd5b50606061182a565b6001600160e01b0319161492509050565b9091508581813d83116118a0575b61187f81836112ad565b8101031261066c57516001600160e01b03198116810361066c5790386117f8565b503d611875565b505050915050600190565b90600182811c921680156118e2575b60208310146118cc57565b634e487b7160e01b600052602260045260246000fd5b91607f16916118c1565b600b546001600160a01b039283169291908216830361190d57505050600190565b16600052600560205260406000209060005260205260ff604060002054169056fea2646970667358221220ef4ef2cd4de635c4f632b41145898bf5276cc1f9f199d76e59c934c85cf2183a64736f6c63430008110033a264697066735822122084aaa53477c2e0c66b7baeab6f67bd2aa5bf5275bcdb23fc8adf44c4cb21b06164736f6c63430008110033","opcodes":"PUSH1 0x80 PUSH1 0x40 MSTORE CALLVALUE PUSH2 0x208 JUMPI PUSH2 0x2523 DUP1 CODESIZE SUB DUP1 PUSH2 0x19 DUP2 PUSH2 0x221 JUMP JUMPDEST SWAP3 DUP4 CODECOPY DUP2 ADD SWAP1 PUSH1 0x40 DUP2 DUP4 SUB SLT PUSH2 0x208 JUMPI DUP1 MLOAD PUSH1 0x1 PUSH1 0x1 PUSH1 0x40 SHL SUB SWAP1 DUP2 DUP2 GT PUSH2 0x208 JUMPI DUP3 ADD SWAP1 PUSH1 0x1F DUP5 DUP2 DUP5 ADD SLT ISZERO PUSH2 0x208 JUMPI DUP3 MLOAD SWAP4 DUP3 DUP6 GT PUSH2 0x1F2 JUMPI PUSH1 0x20 SWAP5 PUSH1 0x1F NOT SWAP5 PUSH2 0x6A DUP5 DUP4 ADD DUP8 AND DUP9 ADD PUSH2 0x221 JUMP JUMPDEST SWAP8 DUP3 DUP10 MSTORE DUP8 DUP4 DUP4 ADD ADD GT PUSH2 0x208 JUMPI SWAP1 DUP7 SWAP3 SWAP2 PUSH1 0x0 JUMPDEST DUP3 DUP2 LT PUSH2 0x20D JUMPI POP POP PUSH1 0x0 SWAP1 DUP9 ADD DUP4 ADD MSTORE ADD MLOAD PUSH1 0x1 PUSH1 0x1 PUSH1 0xA0 SHL SUB DUP2 AND SWAP5 SWAP1 DUP6 SWAP1 SUB PUSH2 0x208 JUMPI DUP6 MLOAD SWAP3 DUP4 GT PUSH2 0x1F2 JUMPI PUSH1 0x1 SWAP4 DUP5 SLOAD DUP6 DUP2 DUP2 SHR SWAP2 AND DUP1 ISZERO PUSH2 0x1E8 JUMPI JUMPDEST DUP4 DUP3 LT EQ PUSH2 0x1D2 JUMPI DUP4 DUP2 GT PUSH2 0x18C JUMPI JUMPDEST POP DUP2 SWAP3 DUP5 GT PUSH1 0x1 EQ PUSH2 0x12C JUMPI POP POP DUP2 SWAP3 SWAP4 SWAP5 PUSH1 0x0 SWAP3 PUSH2 0x121 JUMPI JUMPDEST POP POP PUSH1 0x0 NOT PUSH1 0x3 DUP4 SWAP1 SHL SHR NOT AND SWAP1 DUP3 SHL OR SWAP1 SSTORE JUMPDEST PUSH1 0x2 DUP1 SLOAD PUSH1 0x1 PUSH1 0x1 PUSH1 0xA0 SHL SUB NOT AND SWAP2 SWAP1 SWAP2 OR SWAP1 SSTORE PUSH1 0x40 MLOAD PUSH2 0x22DC SWAP1 DUP2 PUSH2 0x247 DUP3 CODECOPY RETURN JUMPDEST ADD MLOAD SWAP1 POP CODESIZE DUP1 PUSH2 0xEA JUMP JUMPDEST PUSH1 0x0 DUP6 DUP2 MSTORE DUP3 DUP2 KECCAK256 SWAP2 DUP6 AND SWAP8 SWAP2 SWAP4 SWAP3 JUMPDEST DUP9 DUP3 LT PUSH2 0x175 JUMPI POP POP DUP4 DUP6 SWAP7 SWAP8 LT PUSH2 0x15C JUMPI JUMPDEST POP POP POP DUP2 SHL ADD SWAP1 SSTORE PUSH2 0xFE JUMP JUMPDEST ADD MLOAD PUSH1 0x0 NOT PUSH1 0xF8 DUP5 PUSH1 0x3 SHL AND SHR NOT AND SWAP1 SSTORE CODESIZE DUP1 DUP1 PUSH2 0x14F JUMP JUMPDEST DUP1 DUP8 DUP6 SWAP7 DUP3 SWAP5 SWAP7 DUP7 ADD MLOAD DUP2 SSTORE ADD SWAP6 ADD SWAP4 ADD SWAP1 PUSH2 0x13C JUMP JUMPDEST DUP6 PUSH1 0x0 MSTORE DUP3 PUSH1 0x0 KECCAK256 DUP5 DUP1 DUP8 ADD PUSH1 0x5 SHR DUP3 ADD SWAP3 DUP6 DUP9 LT PUSH2 0x1C9 JUMPI JUMPDEST ADD PUSH1 0x5 SHR ADD SWAP1 DUP7 SWAP1 JUMPDEST DUP3 DUP2 LT PUSH2 0x1BD JUMPI POP POP PUSH2 0xD0 JUMP JUMPDEST PUSH1 0x0 DUP2 SSTORE ADD DUP7 SWAP1 PUSH2 0x1AF JUMP JUMPDEST SWAP3 POP DUP2 SWAP3 PUSH2 0x1A6 JUMP JUMPDEST PUSH4 0x4E487B71 PUSH1 0xE0 SHL PUSH1 0x0 MSTORE PUSH1 0x22 PUSH1 0x4 MSTORE PUSH1 0x24 PUSH1 0x0 REVERT JUMPDEST SWAP1 PUSH1 0x7F AND SWAP1 PUSH2 0xC0 JUMP JUMPDEST PUSH4 0x4E487B71 PUSH1 0xE0 SHL PUSH1 0x0 MSTORE PUSH1 0x41 PUSH1 0x4 MSTORE PUSH1 0x24 PUSH1 0x0 REVERT JUMPDEST PUSH1 0x0 DUP1 REVERT JUMPDEST DUP2 DUP2 ADD DUP6 ADD MLOAD DUP11 DUP3 ADD DUP7 ADD MSTORE DUP9 SWAP5 ADD PUSH2 0x7F JUMP JUMPDEST PUSH1 0x40 MLOAD SWAP2 SWAP1 PUSH1 0x1F ADD PUSH1 0x1F NOT AND DUP3 ADD PUSH1 0x1 PUSH1 0x1 PUSH1 0x40 SHL SUB DUP2 GT DUP4 DUP3 LT OR PUSH2 0x1F2 JUMPI PUSH1 0x40 MSTORE JUMP INVALID PUSH1 0x80 PUSH1 0x40 MSTORE PUSH1 0x4 CALLDATASIZE LT ISZERO PUSH3 0x14 JUMPI JUMPDEST PUSH1 0x0 DUP1 REVERT JUMPDEST PUSH1 0x0 DUP1 CALLDATALOAD PUSH1 0xE0 SHR SWAP1 DUP2 PUSH4 0x54FD4D50 EQ PUSH3 0x43 JUMPI POP PUSH4 0x574620CF EQ PUSH3 0x39 JUMPI PUSH1 0x0 DUP1 REVERT JUMPDEST PUSH3 0xF PUSH3 0x2B7 JUMP JUMPDEST CALLVALUE PUSH3 0x11D JUMPI DUP1 PUSH1 0x3 NOT CALLDATASIZE ADD SLT PUSH3 0x11D JUMPI DUP1 PUSH1 0x1 DUP1 SLOAD SWAP1 PUSH3 0x66 DUP3 PUSH3 0x4A3 JUMP JUMPDEST SWAP2 DUP3 PUSH1 0x80 MSTORE DUP2 DUP2 AND SWAP1 DUP2 PUSH1 0x0 EQ PUSH3 0xFC JUMPI POP PUSH1 0x1 EQ PUSH3 0xA4 JUMPI JUMPDEST PUSH3 0x91 PUSH1 0x7F NOT DUP5 ADD PUSH3 0x1CD JUMP JUMPDEST PUSH1 0x40 MLOAD DUP1 PUSH3 0xA0 DUP2 PUSH3 0x16E JUMP JUMPDEST SUB SWAP1 RETURN JUMPDEST DUP1 SWAP2 SWAP3 POP DUP4 MSTORE PUSH32 0xB10E2D527612073B26EECDFD717E6A320CF44B4AFAC2B0732D9FCBE2B7FA0CF6 JUMPDEST DUP3 DUP5 LT PUSH3 0xE7 JUMPI POP POP POP PUSH1 0xA0 PUSH3 0x91 SWAP2 ADD DUP3 DUP1 PUSH3 0x82 JUMP JUMPDEST DUP2 DUP2 PUSH1 0x20 SWAP3 SLOAD PUSH1 0xA0 DUP8 ADD MSTORE ADD SWAP4 ADD SWAP3 PUSH3 0xCC JUMP JUMPDEST SWAP2 POP POP PUSH3 0x91 SWAP4 POP PUSH1 0xA0 SWAP3 POP PUSH1 0xFF NOT AND DUP3 MSTORE ISZERO ISZERO PUSH1 0x5 SHL ADD DUP3 DUP1 PUSH3 0x82 JUMP JUMPDEST DUP1 REVERT JUMPDEST PUSH1 0x0 SWAP2 SUB SLT PUSH3 0xF JUMPI JUMP JUMPDEST SWAP2 SWAP1 DUP3 MLOAD SWAP3 DUP4 DUP3 MSTORE PUSH1 0x0 JUMPDEST DUP5 DUP2 LT PUSH3 0x159 JUMPI POP POP DUP3 PUSH1 0x0 PUSH1 0x20 DUP1 SWAP5 SWAP6 DUP5 ADD ADD MSTORE PUSH1 0x1F DUP1 NOT SWAP2 ADD AND ADD ADD SWAP1 JUMP JUMPDEST PUSH1 0x20 DUP2 DUP4 ADD DUP2 ADD MLOAD DUP5 DUP4 ADD DUP3 ADD MSTORE ADD PUSH3 0x137 JUMP JUMPDEST SWAP1 PUSH1 0x20 SWAP2 DUP3 DUP2 MSTORE PUSH1 0x80 MLOAD DUP1 DUP5 DUP4 ADD MSTORE PUSH1 0x0 JUMPDEST DUP2 DUP2 LT PUSH3 0x1A2 JUMPI POP PUSH1 0x40 SWAP3 SWAP4 POP PUSH1 0x0 DUP4 DUP3 DUP5 ADD ADD MSTORE PUSH1 0x1F DUP1 NOT SWAP2 ADD AND ADD ADD SWAP1 JUMP JUMPDEST PUSH1 0xA0 DUP2 ADD MLOAD DUP4 DUP3 ADD PUSH1 0x40 ADD MSTORE DUP5 ADD PUSH3 0x180 JUMP JUMPDEST POP PUSH4 0x4E487B71 PUSH1 0xE0 SHL PUSH1 0x0 MSTORE PUSH1 0x41 PUSH1 0x4 MSTORE PUSH1 0x24 PUSH1 0x0 REVERT JUMPDEST PUSH1 0x1F DUP1 NOT SWAP2 ADD AND PUSH1 0x80 ADD PUSH1 0x80 DUP2 LT PUSH8 0xFFFFFFFFFFFFFFFF DUP3 GT OR PUSH3 0x1F1 JUMPI PUSH1 0x40 MSTORE JUMP JUMPDEST PUSH3 0x1FB PUSH3 0x1B6 JUMP JUMPDEST PUSH1 0x40 MSTORE JUMP JUMPDEST PUSH8 0xFFFFFFFFFFFFFFFF DUP2 GT PUSH3 0x1F1 JUMPI PUSH1 0x40 MSTORE JUMP JUMPDEST SWAP1 PUSH1 0x1F DUP1 NOT SWAP2 ADD AND DUP2 ADD SWAP1 DUP2 LT PUSH8 0xFFFFFFFFFFFFFFFF DUP3 GT OR PUSH3 0x1F1 JUMPI PUSH1 0x40 MSTORE JUMP JUMPDEST SWAP1 PUSH3 0x248 PUSH1 0x40 MLOAD SWAP3 DUP4 PUSH3 0x215 JUMP JUMPDEST JUMP JUMPDEST DUP2 PUSH1 0x1F DUP3 ADD SLT ISZERO PUSH3 0xF JUMPI DUP1 CALLDATALOAD SWAP1 PUSH8 0xFFFFFFFFFFFFFFFF DUP3 GT PUSH3 0x2A7 JUMPI JUMPDEST PUSH1 0x40 MLOAD SWAP3 PUSH3 0x284 PUSH1 0x1F DUP5 ADD PUSH1 0x1F NOT AND PUSH1 0x20 ADD DUP6 PUSH3 0x215 JUMP JUMPDEST DUP3 DUP5 MSTORE PUSH1 0x20 DUP4 DUP4 ADD ADD GT PUSH3 0xF JUMPI DUP2 PUSH1 0x0 SWAP3 PUSH1 0x20 DUP1 SWAP4 ADD DUP4 DUP7 ADD CALLDATACOPY DUP4 ADD ADD MSTORE SWAP1 JUMP JUMPDEST PUSH3 0x2B1 PUSH3 0x1B6 JUMP JUMPDEST PUSH3 0x26A JUMP JUMPDEST POP CALLVALUE PUSH3 0xF JUMPI PUSH1 0x40 CALLDATASIZE PUSH1 0x3 NOT ADD SLT PUSH3 0xF JUMPI PUSH8 0xFFFFFFFFFFFFFFFF PUSH1 0x4 CALLDATALOAD DUP2 DUP2 GT PUSH3 0xF JUMPI PUSH3 0x2EF SWAP1 CALLDATASIZE SWAP1 PUSH1 0x4 ADD PUSH3 0x24A JUMP JUMPDEST SWAP1 PUSH1 0x24 CALLDATALOAD SWAP1 DUP2 GT PUSH3 0xF JUMPI PUSH3 0x30B SWAP1 CALLDATASIZE SWAP1 PUSH1 0x4 ADD PUSH3 0x24A JUMP JUMPDEST SWAP1 PUSH2 0x1CBE SWAP2 PUSH3 0x31E PUSH1 0x20 DUP5 ADD PUSH3 0x238 JUMP JUMPDEST DUP4 DUP2 MSTORE PUSH1 0x20 DUP2 ADD SWAP4 PUSH3 0x5E9 DUP6 CODECOPY PUSH3 0x33B PUSH1 0x1 PUSH1 0x0 SLOAD ADD PUSH1 0x0 SSTORE JUMP JUMPDEST PUSH1 0x0 DUP1 SLOAD PUSH1 0x40 MLOAD PUSH12 0xFFFFFFFFFFFFFFFFFFFFFFFF NOT CALLER PUSH1 0x60 SHL AND PUSH1 0x20 DUP3 ADD SWAP1 DUP2 MSTORE PUSH1 0x34 DUP1 DUP4 ADD SWAP4 SWAP1 SWAP4 MSTORE SWAP2 DUP2 MSTORE SWAP2 SWAP6 SWAP2 PUSH3 0x378 PUSH1 0x54 DUP3 PUSH3 0x215 JUMP JUMPDEST MLOAD SWAP1 KECCAK256 SWAP2 MLOAD SWAP1 DUP6 CREATE2 PUSH1 0x2 SLOAD SWAP1 SWAP3 PUSH1 0x1 PUSH1 0x1 PUSH1 0xA0 SHL SUB DUP1 DUP6 AND SWAP4 SWAP3 AND SWAP2 DUP6 SWAP2 DUP5 EXTCODESIZE ISZERO PUSH3 0x478 JUMPI PUSH3 0x3BE PUSH1 0x40 MLOAD SWAP5 DUP6 SWAP4 DUP5 SWAP4 PUSH4 0x5C6D8DA1 PUSH1 0xE0 SHL DUP6 MSTORE PUSH1 0x4 DUP6 ADD PUSH3 0x4E0 JUMP JUMPDEST SUB DUP2 DUP4 DUP7 GAS CALL DUP1 ISZERO PUSH3 0x493 JUMPI JUMPDEST PUSH3 0x47C JUMPI JUMPDEST POP DUP1 EXTCODESIZE ISZERO PUSH3 0x478 JUMPI PUSH1 0x40 MLOAD PUSH4 0xA843C51F PUSH1 0xE0 SHL DUP2 MSTORE CALLER PUSH1 0x4 DUP3 ADD MSTORE PUSH32 0x1449ABF21E49FD025F33495E77F7B1461CAEFDD3D4BB646424A3F445C4576A5B SWAP4 SWAP3 PUSH3 0xA0 SWAP3 SWAP1 SWAP2 DUP5 DUP2 PUSH1 0x24 DUP2 DUP4 DUP7 GAS CALL DUP1 ISZERO PUSH3 0x468 JUMPI JUMPDEST PUSH3 0x44A JUMPI JUMPDEST POP PUSH1 0x40 MLOAD SWAP5 DUP5 DUP7 SWAP6 LOG2 PUSH1 0x1 PUSH1 0x1 PUSH1 0xA0 SHL SUB AND DUP3 MSTORE PUSH1 0x20 DUP3 ADD SWAP1 JUMP JUMPDEST DUP1 PUSH3 0x45A PUSH3 0x461 SWAP3 PUSH3 0x200 JUMP JUMPDEST DUP1 PUSH3 0x120 JUMP JUMPDEST CODESIZE PUSH3 0x42F JUMP JUMPDEST PUSH3 0x472 PUSH3 0x5DB JUMP JUMPDEST PUSH3 0x429 JUMP JUMPDEST DUP3 DUP1 REVERT JUMPDEST DUP1 PUSH3 0x45A PUSH3 0x48C SWAP3 PUSH3 0x200 JUMP JUMPDEST CODESIZE PUSH3 0x3D2 JUMP JUMPDEST PUSH3 0x49D PUSH3 0x5DB JUMP JUMPDEST PUSH3 0x3CC JUMP JUMPDEST SWAP1 PUSH1 0x1 DUP3 DUP2 SHR SWAP3 AND DUP1 ISZERO PUSH3 0x4D5 JUMPI JUMPDEST PUSH1 0x20 DUP4 LT EQ PUSH3 0x4BF JUMPI JUMP JUMPDEST PUSH4 0x4E487B71 PUSH1 0xE0 SHL PUSH1 0x0 MSTORE PUSH1 0x22 PUSH1 0x4 MSTORE PUSH1 0x24 PUSH1 0x0 REVERT JUMPDEST SWAP2 PUSH1 0x7F AND SWAP2 PUSH3 0x4B3 JUMP JUMPDEST SWAP4 SWAP3 SWAP2 SWAP1 PUSH3 0x4FC PUSH3 0x50C SWAP2 PUSH1 0x80 DUP8 MSTORE PUSH1 0x80 DUP8 ADD SWAP1 PUSH3 0x12C JUMP JUMPDEST PUSH1 0x20 SWAP3 DUP7 DUP3 SUB DUP5 DUP9 ADD MSTORE PUSH3 0x12C JUMP JUMPDEST SWAP1 DUP5 DUP3 SUB PUSH1 0x40 DUP7 ADD MSTORE PUSH1 0x0 SWAP2 PUSH1 0x1 SWAP1 DUP2 SLOAD SWAP2 PUSH3 0x529 DUP4 PUSH3 0x4A3 JUMP JUMPDEST DUP1 DUP4 MSTORE SWAP3 DUP2 DUP2 AND SWAP1 DUP2 ISZERO PUSH3 0x5B9 JUMPI POP PUSH1 0x1 EQ PUSH3 0x55D JUMPI JUMPDEST POP POP POP PUSH1 0x1 PUSH1 0x1 PUSH1 0xA0 SHL SUB SWAP1 SWAP3 AND PUSH1 0x60 SWAP5 SWAP1 SWAP5 ADD SWAP4 SWAP1 SWAP4 MSTORE POP JUMP JUMPDEST PUSH1 0x0 DUP2 DUP2 MSTORE SWAP4 SWAP5 POP SWAP1 SWAP2 SWAP1 PUSH32 0xB10E2D527612073B26EECDFD717E6A320CF44B4AFAC2B0732D9FCBE2B7FA0CF6 JUMPDEST DUP3 DUP6 LT PUSH3 0x5A5 JUMPI POP POP POP ADD ADD PUSH1 0x60 PUSH3 0x248 CODESIZE DUP1 PUSH3 0x542 JUMP JUMPDEST DUP1 SLOAD DUP5 DUP7 ADD DUP8 ADD MSTORE SWAP4 DUP6 ADD SWAP4 DUP2 ADD PUSH3 0x58A JUMP JUMPDEST PUSH1 0xFF NOT AND DUP4 DUP7 ADD MSTORE POP POP SWAP1 ISZERO ISZERO PUSH1 0x5 SHL ADD ADD SWAP1 POP PUSH1 0x60 PUSH3 0x248 CODESIZE DUP1 PUSH3 0x542 JUMP JUMPDEST POP PUSH1 0x40 MLOAD RETURNDATASIZE PUSH1 0x0 DUP3 RETURNDATACOPY RETURNDATASIZE SWAP1 REVERT INVALID PUSH1 0x80 CALLVALUE PUSH3 0x354 JUMPI PUSH1 0x1 PUSH1 0x1 PUSH1 0x40 SHL SUB SWAP1 PUSH1 0x40 DUP2 DUP2 ADD DUP4 DUP2 GT DUP4 DUP3 LT OR PUSH3 0x33E JUMPI DUP2 MSTORE PUSH1 0x6 DUP3 MSTORE PUSH1 0x20 SWAP2 PUSH6 0x455243373231 PUSH1 0xD0 SHL DUP4 DUP3 ADD MSTORE DUP2 MLOAD SWAP4 DUP3 DUP6 ADD DUP6 DUP2 LT DUP3 DUP3 GT OR PUSH3 0x33E JUMPI DUP4 MSTORE PUSH1 0x4 DUP6 MSTORE PUSH4 0x45373231 PUSH1 0xE0 SHL DUP5 DUP7 ADD MSTORE DUP2 MLOAD DUP2 DUP2 GT PUSH3 0x33E JUMPI PUSH1 0x0 SWAP5 DUP6 SLOAD SWAP2 PUSH1 0x1 SWAP5 DUP6 DUP5 DUP2 SHR SWAP5 AND DUP1 ISZERO PUSH3 0x333 JUMPI JUMPDEST DUP4 DUP6 LT EQ PUSH3 0x31F JUMPI DUP2 SWAP1 PUSH1 0x1F SWAP5 DUP6 DUP2 GT PUSH3 0x2CC JUMPI JUMPDEST POP DUP4 SWAP1 DUP6 DUP4 GT PUSH1 0x1 EQ PUSH3 0x268 JUMPI DUP10 SWAP3 PUSH3 0x25C JUMPI JUMPDEST POP POP PUSH1 0x0 NOT PUSH1 0x3 DUP4 SWAP1 SHL SHR NOT AND SWAP1 DUP6 SHL OR DUP7 SSTORE JUMPDEST DUP7 MLOAD SWAP3 DUP4 GT PUSH3 0x248 JUMPI DUP4 SLOAD DUP5 DUP2 DUP2 SHR SWAP2 AND DUP1 ISZERO PUSH3 0x23D JUMPI JUMPDEST DUP3 DUP3 LT EQ PUSH3 0x229 JUMPI DUP3 DUP2 GT PUSH3 0x1E1 JUMPI JUMPDEST POP DUP1 SWAP2 DUP4 GT PUSH1 0x1 EQ PUSH3 0x17A JUMPI POP DUP5 SWAP6 DUP3 SWAP4 SWAP5 SWAP6 SWAP3 PUSH3 0x16E JUMPI JUMPDEST POP POP PUSH1 0x0 NOT PUSH1 0x3 DUP4 SWAP1 SHL SHR NOT AND SWAP1 DUP3 SHL OR SWAP1 SSTORE JUMPDEST PUSH1 0x7 DUP1 SLOAD CALLER PUSH1 0x1 PUSH1 0x1 PUSH1 0xA0 SHL SUB NOT DUP3 AND DUP2 OR SWAP1 SWAP3 SSTORE SWAP2 MLOAD SWAP3 SWAP1 SWAP2 PUSH1 0x1 PUSH1 0x1 PUSH1 0xA0 SHL SUB AND SWAP1 PUSH32 0x8BE0079C531659141344CD1FD0A4F28419497F9722A3DAAFE3B4186F6B6457E0 SWAP1 DUP1 LOG3 PUSH2 0x1964 SWAP1 DUP2 PUSH3 0x35A DUP3 CODECOPY RETURN JUMPDEST ADD MLOAD SWAP1 POP CODESIZE DUP1 PUSH3 0x105 JUMP JUMPDEST SWAP1 PUSH1 0x1F NOT DUP4 AND SWAP7 DUP5 DUP8 MSTORE DUP3 DUP8 KECCAK256 SWAP3 DUP8 SWAP1 JUMPDEST DUP10 DUP3 LT PUSH3 0x1C9 JUMPI POP POP DUP4 DUP6 SWAP7 SWAP8 SWAP9 LT PUSH3 0x1AF JUMPI JUMPDEST POP POP POP DUP2 SHL ADD SWAP1 SSTORE PUSH3 0x119 JUMP JUMPDEST ADD MLOAD PUSH1 0x0 NOT PUSH1 0xF8 DUP5 PUSH1 0x3 SHL AND SHR NOT AND SWAP1 SSTORE CODESIZE DUP1 DUP1 PUSH3 0x1A1 JUMP JUMPDEST DUP1 DUP8 DUP6 SWAP7 DUP3 SWAP5 SWAP7 DUP7 ADD MLOAD DUP2 SSTORE ADD SWAP6 ADD SWAP4 ADD SWAP1 PUSH3 0x18B JUMP JUMPDEST DUP5 DUP8 MSTORE DUP2 DUP8 KECCAK256 DUP4 DUP1 DUP7 ADD PUSH1 0x5 SHR DUP3 ADD SWAP3 DUP5 DUP8 LT PUSH3 0x21F JUMPI JUMPDEST ADD PUSH1 0x5 SHR ADD SWAP1 DUP6 SWAP1 JUMPDEST DUP3 DUP2 LT PUSH3 0x213 JUMPI POP POP PUSH3 0xEA JUMP JUMPDEST DUP9 DUP2 SSTORE ADD DUP6 SWAP1 PUSH3 0x203 JUMP JUMPDEST SWAP3 POP DUP2 SWAP3 PUSH3 0x1FA JUMP JUMPDEST PUSH4 0x4E487B71 PUSH1 0xE0 SHL DUP8 MSTORE PUSH1 0x22 PUSH1 0x4 MSTORE PUSH1 0x24 DUP8 REVERT JUMPDEST SWAP1 PUSH1 0x7F AND SWAP1 PUSH3 0xD8 JUMP JUMPDEST PUSH4 0x4E487B71 PUSH1 0xE0 SHL DUP7 MSTORE PUSH1 0x41 PUSH1 0x4 MSTORE PUSH1 0x24 DUP7 REVERT JUMPDEST ADD MLOAD SWAP1 POP CODESIZE DUP1 PUSH3 0xAA JUMP JUMPDEST DUP10 DUP1 MSTORE DUP5 DUP11 KECCAK256 DUP9 SWAP5 POP SWAP2 SWAP1 PUSH1 0x1F NOT DUP5 AND DUP12 JUMPDEST DUP8 DUP3 DUP3 LT PUSH3 0x2B5 JUMPI POP POP DUP5 GT PUSH3 0x29B JUMPI JUMPDEST POP POP POP DUP2 SHL ADD DUP7 SSTORE PUSH3 0xBE JUMP JUMPDEST ADD MLOAD PUSH1 0x0 NOT PUSH1 0xF8 DUP5 PUSH1 0x3 SHL AND SHR NOT AND SWAP1 SSTORE CODESIZE DUP1 DUP1 PUSH3 0x28D JUMP JUMPDEST DUP4 DUP6 ADD MLOAD DUP7 SSTORE DUP12 SWAP8 SWAP1 SWAP6 ADD SWAP5 SWAP4 DUP5 ADD SWAP4 ADD PUSH3 0x27A JUMP JUMPDEST SWAP1 SWAP2 POP DUP9 DUP1 MSTORE DUP4 DUP10 KECCAK256 DUP6 DUP1 DUP6 ADD PUSH1 0x5 SHR DUP3 ADD SWAP3 DUP7 DUP7 LT PUSH3 0x315 JUMPI JUMPDEST SWAP2 DUP10 SWAP2 DUP7 SWAP6 SWAP5 SWAP4 ADD PUSH1 0x5 SHR ADD SWAP2 JUMPDEST DUP3 DUP2 LT PUSH3 0x306 JUMPI POP POP PUSH3 0x94 JUMP JUMPDEST DUP12 DUP2 SSTORE DUP6 SWAP5 POP DUP10 SWAP2 ADD PUSH3 0x2F6 JUMP JUMPDEST SWAP3 POP DUP2 SWAP3 PUSH3 0x2E8 JUMP JUMPDEST PUSH4 0x4E487B71 PUSH1 0xE0 SHL DUP9 MSTORE PUSH1 0x22 PUSH1 0x4 MSTORE PUSH1 0x24 DUP9 REVERT JUMPDEST SWAP4 PUSH1 0x7F AND SWAP4 PUSH3 0x7D JUMP JUMPDEST PUSH4 0x4E487B71 PUSH1 0xE0 SHL PUSH1 0x0 MSTORE PUSH1 0x41 PUSH1 0x4 MSTORE PUSH1 0x24 PUSH1 0x0 REVERT JUMPDEST PUSH1 0x0 DUP1 REVERT INVALID PUSH1 0x80 PUSH1 0x40 DUP2 DUP2 MSTORE PUSH1 0x4 DUP1 CALLDATASIZE LT ISZERO PUSH2 0x15 JUMPI PUSH1 0x0 DUP1 REVERT JUMPDEST PUSH1 0x0 SWAP3 DUP4 CALLDATALOAD PUSH1 0xE0 SHR SWAP1 DUP2 PUSH4 0x1FFC9A7 EQ PUSH2 0x1169 JUMPI POP DUP1 PUSH4 0x6FDDE03 EQ PUSH2 0x10BF JUMPI DUP1 PUSH4 0x81812FC EQ PUSH2 0x109F JUMPI DUP1 PUSH4 0x95EA7B3 EQ PUSH2 0xF40 JUMPI DUP1 PUSH4 0x23B872DD EQ PUSH2 0xF16 JUMPI DUP1 PUSH4 0x3F8A4D67 EQ PUSH2 0xEED JUMPI DUP1 PUSH4 0x42842E0E EQ PUSH2 0xEC4 JUMPI DUP1 PUSH4 0x54FD4D50 EQ PUSH2 0xE1A JUMPI DUP1 PUSH4 0x5C6D8DA1 EQ PUSH2 0x99B JUMPI DUP1 PUSH4 0x6352211E EQ PUSH2 0x96A JUMPI DUP1 PUSH4 0x70A08231 EQ PUSH2 0x8D4 JUMPI DUP1 PUSH4 0x715018A6 EQ PUSH2 0x874 JUMPI DUP1 PUSH4 0x8DA5CB5B EQ PUSH2 0x84B JUMPI DUP1 PUSH4 0x95D89B41 EQ PUSH2 0x766 JUMPI DUP1 PUSH4 0xA22CB465 EQ PUSH2 0x69B JUMPI DUP1 PUSH4 0xA843C51F EQ PUSH2 0x670 JUMPI DUP1 PUSH4 0xB88D4FDE EQ PUSH2 0x60B JUMPI DUP1 PUSH4 0xC87B56DD EQ PUSH2 0x4FD JUMPI DUP1 PUSH4 0xD0DEF521 EQ PUSH2 0x203 JUMPI DUP1 PUSH4 0xE00DD161 EQ PUSH2 0x1E4 JUMPI DUP1 PUSH4 0xE985E9C5 EQ PUSH2 0x1A9 JUMPI PUSH4 0xF2FDE38B EQ PUSH2 0x115 JUMPI PUSH1 0x0 DUP1 REVERT JUMPDEST CALLVALUE PUSH2 0x1A5 JUMPI PUSH1 0x20 CALLDATASIZE PUSH1 0x3 NOT ADD SLT PUSH2 0x1A5 JUMPI PUSH2 0x12E PUSH2 0x1215 JUMP JUMPDEST SWAP2 PUSH2 0x137 PUSH2 0x1340 JUMP JUMPDEST PUSH1 0x1 PUSH1 0x1 PUSH1 0xA0 SHL SUB DUP4 AND ISZERO PUSH2 0x153 JUMPI DUP4 PUSH2 0x150 DUP5 PUSH2 0x1398 JUMP JUMPDEST DUP1 RETURN JUMPDEST SWAP1 PUSH1 0x20 PUSH1 0x84 SWAP3 MLOAD SWAP2 PUSH3 0x461BCD PUSH1 0xE5 SHL DUP4 MSTORE DUP3 ADD MSTORE PUSH1 0x26 PUSH1 0x24 DUP3 ADD MSTORE PUSH32 0x4F776E61626C653A206E6577206F776E657220697320746865207A65726F2061 PUSH1 0x44 DUP3 ADD MSTORE PUSH6 0x646472657373 PUSH1 0xD0 SHL PUSH1 0x64 DUP3 ADD MSTORE REVERT JUMPDEST DUP3 DUP1 REVERT JUMPDEST POP POP CALLVALUE PUSH2 0x1E0 JUMPI DUP1 PUSH1 0x3 NOT CALLDATASIZE ADD SLT PUSH2 0x1E0 JUMPI PUSH1 0x20 SWAP1 PUSH2 0x1D7 PUSH2 0x1C9 PUSH2 0x1215 JUMP JUMPDEST PUSH2 0x1D1 PUSH2 0x1230 JUMP JUMPDEST SWAP1 PUSH2 0x18EC JUMP JUMPDEST SWAP1 MLOAD SWAP1 ISZERO ISZERO DUP2 MSTORE RETURN JUMPDEST POP DUP1 REVERT JUMPDEST POP POP CALLVALUE PUSH2 0x1E0 JUMPI DUP2 PUSH1 0x3 NOT CALLDATASIZE ADD SLT PUSH2 0x1E0 JUMPI PUSH1 0x20 SWAP1 PUSH1 0xC SLOAD SWAP1 MLOAD SWAP1 DUP2 MSTORE RETURN JUMPDEST POP SWAP1 CALLVALUE PUSH2 0x1A5 JUMPI DUP1 PUSH1 0x3 NOT CALLDATASIZE ADD SLT PUSH2 0x1A5 JUMPI PUSH2 0x21D PUSH2 0x1215 JUMP JUMPDEST PUSH8 0xFFFFFFFFFFFFFFFF SWAP1 PUSH1 0x24 DUP1 CALLDATALOAD DUP4 DUP2 GT PUSH2 0x4F9 JUMPI PUSH2 0x23F SWAP1 CALLDATASIZE SWAP1 DUP8 ADD PUSH2 0x1322 JUMP JUMPDEST SWAP1 PUSH1 0x1 SWAP5 DUP6 PUSH1 0xC SLOAD ADD SWAP4 DUP5 PUSH1 0xC SSTORE PUSH1 0x1 DUP1 PUSH1 0xA0 SHL SUB AND SWAP4 DUP5 ISZERO PUSH2 0x4B7 JUMPI PUSH1 0x0 DUP2 DUP2 MSTORE PUSH1 0x2 PUSH1 0x20 MSTORE PUSH1 0x40 SWAP1 KECCAK256 SLOAD PUSH1 0x1 PUSH1 0x1 PUSH1 0xA0 SHL SUB AND PUSH2 0x475 JUMPI DUP5 DUP10 MSTORE PUSH1 0x20 SWAP5 PUSH1 0x3 DUP7 MSTORE DUP3 DUP11 KECCAK256 DUP1 SLOAD SWAP1 DUP10 DUP3 ADD DUP1 SWAP3 GT PUSH2 0x463 JUMPI SSTORE DUP2 DUP11 MSTORE PUSH1 0x2 DUP7 MSTORE DUP3 DUP11 KECCAK256 DUP1 SLOAD PUSH1 0x1 PUSH1 0x1 PUSH1 0xA0 SHL SUB NOT AND DUP3 OR SWAP1 SSTORE DUP2 SWAP1 DUP11 PUSH32 0xDDF252AD1BE2C89B69C2B068FC378DAA952BA7F163C4A11628F55A4DF523B3EF DUP2 DUP1 LOG4 PUSH1 0x0 DUP2 DUP2 MSTORE PUSH1 0x2 PUSH1 0x20 MSTORE PUSH1 0x40 SWAP1 KECCAK256 SLOAD PUSH1 0x1 PUSH1 0x1 PUSH1 0xA0 SHL SUB AND ISZERO PUSH2 0x40A JUMPI DUP9 MSTORE PUSH1 0x6 DUP5 MSTORE DUP8 KECCAK256 SWAP6 DUP3 MLOAD SWAP5 DUP6 GT PUSH2 0x3F9 JUMPI POP POP PUSH2 0x30F DUP6 SLOAD PUSH2 0x18B2 JUMP JUMPDEST PUSH1 0x1F DUP2 GT PUSH2 0x3B3 JUMPI JUMPDEST POP DUP2 PUSH1 0x1F DUP5 GT PUSH1 0x1 EQ PUSH2 0x352 JUMPI POP SWAP3 DUP3 SWAP4 SWAP2 DUP4 SWAP3 DUP8 SWAP5 PUSH2 0x347 JUMPI JUMPDEST POP POP SHL SWAP2 PUSH1 0x0 NOT SWAP1 PUSH1 0x3 SHL SHR NOT AND OR SWAP1 SSTORE DUP1 RETURN JUMPDEST ADD MLOAD SWAP3 POP CODESIZE DUP1 PUSH2 0x333 JUMP JUMPDEST SWAP2 SWAP1 DUP4 PUSH1 0x1F NOT DUP2 AND DUP8 DUP10 MSTORE DUP5 DUP10 KECCAK256 SWAP5 DUP10 SWAP1 JUMPDEST DUP9 DUP4 DUP4 LT PUSH2 0x399 JUMPI POP POP POP LT PUSH2 0x380 JUMPI JUMPDEST POP POP POP DUP2 SHL ADD SWAP1 SSTORE DUP1 RETURN JUMPDEST ADD MLOAD PUSH1 0x0 NOT PUSH1 0xF8 DUP5 PUSH1 0x3 SHL AND SHR NOT AND SWAP1 SSTORE CODESIZE DUP1 DUP1 PUSH2 0x375 JUMP JUMPDEST DUP6 DUP8 ADD MLOAD DUP9 SSTORE SWAP1 SWAP7 ADD SWAP6 SWAP5 DUP6 ADD SWAP5 DUP8 SWAP4 POP SWAP1 DUP2 ADD SWAP1 PUSH2 0x364 JUMP JUMPDEST DUP6 DUP8 MSTORE DUP3 DUP8 KECCAK256 PUSH1 0x1F DUP6 ADD PUSH1 0x5 SHR DUP2 ADD SWAP2 DUP5 DUP7 LT PUSH2 0x3EF JUMPI JUMPDEST PUSH1 0x1F ADD PUSH1 0x5 SHR ADD SWAP1 DUP6 SWAP1 JUMPDEST DUP3 DUP2 LT PUSH2 0x3E4 JUMPI POP POP PUSH2 0x318 JUMP JUMPDEST DUP9 DUP2 SSTORE ADD DUP6 SWAP1 PUSH2 0x3D6 JUMP JUMPDEST SWAP1 SWAP2 POP DUP2 SWAP1 PUSH2 0x3CB JUMP JUMPDEST PUSH4 0x4E487B71 PUSH1 0xE0 SHL DUP9 MSTORE PUSH1 0x41 SWAP1 MSTORE DUP7 REVERT JUMPDEST DUP2 MLOAD PUSH3 0x461BCD PUSH1 0xE5 SHL DUP2 MSTORE DUP1 DUP10 ADD DUP7 SWAP1 MSTORE PUSH1 0x2E DUP2 DUP6 ADD MSTORE PUSH32 0x45524337323155524953746F726167653A2055524920736574206F66206E6F6E PUSH1 0x44 DUP3 ADD MSTORE PUSH14 0x32BC34B9BA32B73A103A37B5B2B7 PUSH1 0x91 SHL PUSH1 0x64 DUP3 ADD MSTORE PUSH1 0x84 SWAP1 REVERT JUMPDEST PUSH4 0x4E487B71 PUSH1 0xE0 SHL DUP13 MSTORE PUSH1 0x11 DUP12 MSTORE DUP6 DUP13 REVERT JUMPDEST DUP2 MLOAD PUSH3 0x461BCD PUSH1 0xE5 SHL DUP2 MSTORE PUSH1 0x20 DUP2 DUP11 ADD MSTORE PUSH1 0x1C DUP2 DUP6 ADD MSTORE PUSH32 0x4552433732313A20746F6B656E20616C7265616479206D696E74656400000000 PUSH1 0x44 DUP3 ADD MSTORE PUSH1 0x64 SWAP1 REVERT JUMPDEST DUP2 MLOAD PUSH3 0x461BCD PUSH1 0xE5 SHL DUP2 MSTORE PUSH1 0x20 DUP2 DUP11 ADD DUP2 SWAP1 MSTORE DUP2 DUP6 ADD MSTORE PUSH32 0x4552433732313A206D696E7420746F20746865207A65726F2061646472657373 PUSH1 0x44 DUP3 ADD MSTORE PUSH1 0x64 SWAP1 REVERT JUMPDEST DUP7 DUP1 REVERT JUMPDEST POP SWAP1 CALLVALUE PUSH2 0x1A5 JUMPI PUSH1 0x20 SWAP2 DUP3 PUSH1 0x3 NOT CALLDATASIZE ADD SLT PUSH2 0x607 JUMPI CALLDATALOAD PUSH1 0x0 DUP2 DUP2 MSTORE PUSH1 0x2 PUSH1 0x20 MSTORE PUSH1 0x40 SWAP1 KECCAK256 SLOAD PUSH2 0x536 SWAP1 PUSH1 0x1 PUSH1 0x1 PUSH1 0xA0 SHL SUB AND ISZERO ISZERO PUSH2 0x13E1 JUMP JUMPDEST DUP4 MSTORE PUSH1 0x6 DUP3 MSTORE DUP1 DUP4 KECCAK256 SWAP3 DUP2 MLOAD DUP1 SWAP5 DUP3 SWAP1 DUP1 SLOAD PUSH2 0x551 DUP2 PUSH2 0x18B2 JUMP JUMPDEST SWAP2 DUP3 DUP6 MSTORE PUSH1 0x1 SWAP2 DUP9 DUP4 DUP3 AND SWAP2 DUP3 PUSH1 0x0 EQ PUSH2 0x5E0 JUMPI POP POP PUSH1 0x1 EQ PUSH2 0x5A2 JUMPI JUMPDEST POP POP POP PUSH2 0x59E SWAP4 SWAP3 SWAP2 PUSH2 0x583 SWAP2 SUB DUP7 PUSH2 0x12AD JUMP JUMPDEST DUP2 MLOAD PUSH2 0x58E DUP2 PUSH2 0x127B JUMP JUMPDEST MSTORE MLOAD SWAP3 DUP3 DUP5 SWAP4 DUP5 MSTORE DUP4 ADD SWAP1 PUSH2 0x11D5 JUMP JUMPDEST SUB SWAP1 RETURN JUMPDEST DUP6 MSTORE DUP7 DUP6 KECCAK256 DUP8 SWAP4 POP DUP6 SWAP3 SWAP2 SWAP1 JUMPDEST DUP3 DUP5 LT PUSH2 0x5C8 JUMPI POP POP POP DUP3 ADD ADD DUP2 PUSH2 0x583 PUSH2 0x59E PUSH2 0x56F JUMP JUMPDEST DUP1 SLOAD DUP5 DUP12 ADD DUP7 ADD MSTORE DUP10 SWAP6 POP DUP9 SWAP5 SWAP1 SWAP4 ADD SWAP3 DUP2 ADD PUSH2 0x5AF JUMP JUMPDEST PUSH1 0xFF NOT AND DUP8 DUP3 ADD MSTORE SWAP4 ISZERO ISZERO PUSH1 0x5 SHL DUP7 ADD SWAP1 SWAP4 ADD SWAP4 POP DUP5 SWAP3 POP PUSH2 0x583 SWAP2 POP PUSH2 0x59E SWAP1 POP PUSH2 0x56F JUMP JUMPDEST DUP4 DUP1 REVERT JUMPDEST DUP4 DUP3 CALLVALUE PUSH2 0x1E0 JUMPI PUSH1 0x80 CALLDATASIZE PUSH1 0x3 NOT ADD SLT PUSH2 0x1E0 JUMPI PUSH2 0x626 PUSH2 0x1215 JUMP JUMPDEST PUSH2 0x62E PUSH2 0x1230 JUMP JUMPDEST SWAP1 PUSH1 0x64 CALLDATALOAD PUSH8 0xFFFFFFFFFFFFFFFF DUP2 GT PUSH2 0x66C JUMPI CALLDATASIZE PUSH1 0x23 DUP3 ADD SLT ISZERO PUSH2 0x66C JUMPI PUSH2 0x150 SWAP4 DUP2 PUSH1 0x24 PUSH2 0x662 SWAP4 CALLDATASIZE SWAP4 ADD CALLDATALOAD SWAP2 ADD PUSH2 0x12EB JUMP JUMPDEST SWAP2 PUSH1 0x44 CALLDATALOAD SWAP2 PUSH2 0x14F1 JUMP JUMPDEST DUP5 DUP1 REVERT JUMPDEST POP CALLVALUE PUSH2 0x1A5 JUMPI PUSH1 0x20 CALLDATASIZE PUSH1 0x3 NOT ADD SLT PUSH2 0x1A5 JUMPI PUSH2 0x68A PUSH2 0x1215 JUMP JUMPDEST SWAP2 PUSH2 0x693 PUSH2 0x1340 JUMP JUMPDEST PUSH2 0x137 PUSH2 0x1340 JUMP JUMPDEST POP SWAP1 CALLVALUE PUSH2 0x1A5 JUMPI DUP1 PUSH1 0x3 NOT CALLDATASIZE ADD SLT PUSH2 0x1A5 JUMPI PUSH2 0x6B5 PUSH2 0x1215 JUMP JUMPDEST SWAP1 PUSH1 0x24 CALLDATALOAD SWAP2 DUP3 ISZERO ISZERO DUP1 SWAP4 SUB PUSH2 0x66C JUMPI PUSH1 0x1 PUSH1 0x1 PUSH1 0xA0 SHL SUB AND SWAP3 CALLER DUP5 EQ PUSH2 0x724 JUMPI POP CALLER DUP5 MSTORE PUSH1 0x5 PUSH1 0x20 MSTORE DUP1 DUP5 KECCAK256 DUP4 DUP6 MSTORE PUSH1 0x20 MSTORE DUP1 DUP5 KECCAK256 PUSH1 0xFF NOT DUP2 SLOAD AND PUSH1 0xFF DUP5 AND OR SWAP1 SSTORE MLOAD SWAP1 DUP2 MSTORE PUSH32 0x17307EAB39AB6107E8899845AD3D59BD9653F200F220920489CA2B5937696C31 PUSH1 0x20 CALLER SWAP3 LOG3 DUP1 RETURN JUMPDEST PUSH1 0x20 PUSH1 0x64 SWAP3 MLOAD SWAP2 PUSH3 0x461BCD PUSH1 0xE5 SHL DUP4 MSTORE DUP3 ADD MSTORE PUSH1 0x19 PUSH1 0x24 DUP3 ADD MSTORE PUSH32 0x4552433732313A20617070726F766520746F2063616C6C657200000000000000 PUSH1 0x44 DUP3 ADD MSTORE REVERT JUMPDEST POP POP CALLVALUE PUSH2 0x1E0 JUMPI DUP2 PUSH1 0x3 NOT CALLDATASIZE ADD SLT PUSH2 0x1E0 JUMPI DUP1 MLOAD SWAP1 DUP3 PUSH1 0x9 SLOAD PUSH2 0x788 DUP2 PUSH2 0x18B2 JUMP JUMPDEST DUP1 DUP6 MSTORE SWAP2 PUSH1 0x1 SWAP2 DUP1 DUP4 AND SWAP1 DUP2 ISZERO PUSH2 0x823 JUMPI POP PUSH1 0x1 EQ PUSH2 0x7C6 JUMPI JUMPDEST POP POP POP PUSH2 0x7B4 DUP3 PUSH2 0x59E SWAP5 SUB DUP4 PUSH2 0x12AD JUMP JUMPDEST MLOAD SWAP2 DUP3 SWAP2 PUSH1 0x20 DUP4 MSTORE PUSH1 0x20 DUP4 ADD SWAP1 PUSH2 0x11D5 JUMP JUMPDEST SWAP5 POP PUSH1 0x9 DUP6 MSTORE PUSH32 0x6E1540171B6C0C960B71A7020D9F60077F6AF931A8BBF590DA0223DACF75C7AF JUMPDEST DUP3 DUP7 LT PUSH2 0x80B JUMPI POP POP POP PUSH2 0x7B4 DUP3 PUSH1 0x20 PUSH2 0x59E SWAP6 DUP3 ADD ADD SWAP5 PUSH2 0x7A2 JUMP JUMPDEST DUP1 SLOAD PUSH1 0x20 DUP8 DUP8 ADD DUP2 ADD SWAP2 SWAP1 SWAP2 MSTORE SWAP1 SWAP6 ADD SWAP5 DUP2 ADD PUSH2 0x7EE JUMP JUMPDEST PUSH2 0x59E SWAP8 POP DUP7 SWAP4 POP PUSH1 0x20 SWAP3 POP PUSH2 0x7B4 SWAP5 SWAP2 POP PUSH1 0xFF NOT AND DUP3 DUP5 ADD MSTORE ISZERO ISZERO PUSH1 0x5 SHL DUP3 ADD ADD SWAP5 PUSH2 0x7A2 JUMP JUMPDEST POP POP CALLVALUE PUSH2 0x1E0 JUMPI DUP2 PUSH1 0x3 NOT CALLDATASIZE ADD SLT PUSH2 0x1E0 JUMPI PUSH1 0x7 SLOAD SWAP1 MLOAD PUSH1 0x1 PUSH1 0x1 PUSH1 0xA0 SHL SUB SWAP1 SWAP2 AND DUP2 MSTORE PUSH1 0x20 SWAP1 RETURN JUMPDEST DUP4 CALLVALUE PUSH2 0x8D1 JUMPI DUP1 PUSH1 0x3 NOT CALLDATASIZE ADD SLT PUSH2 0x8D1 JUMPI PUSH2 0x88D PUSH2 0x1340 JUMP JUMPDEST PUSH1 0x7 DUP1 SLOAD PUSH1 0x1 PUSH1 0x1 PUSH1 0xA0 SHL SUB NOT DUP2 AND SWAP1 SWAP2 SSTORE DUP2 SWAP1 PUSH1 0x1 PUSH1 0x1 PUSH1 0xA0 SHL SUB AND PUSH32 0x8BE0079C531659141344CD1FD0A4F28419497F9722A3DAAFE3B4186F6B6457E0 DUP3 DUP1 LOG3 DUP1 RETURN JUMPDEST DUP1 REVERT JUMPDEST POP DUP3 SWAP1 CALLVALUE PUSH2 0x1E0 JUMPI PUSH1 0x20 CALLDATASIZE PUSH1 0x3 NOT ADD SLT PUSH2 0x1E0 JUMPI PUSH1 0x1 PUSH1 0x1 PUSH1 0xA0 SHL SUB PUSH2 0x8F8 PUSH2 0x1215 JUMP JUMPDEST AND SWAP1 DUP2 ISZERO PUSH2 0x915 JUMPI PUSH1 0x20 DUP5 DUP1 DUP6 DUP6 DUP2 MSTORE PUSH1 0x3 DUP5 MSTORE KECCAK256 SLOAD SWAP1 MLOAD SWAP1 DUP2 MSTORE RETURN JUMPDEST PUSH1 0x84 SWAP1 PUSH1 0x20 DUP6 MLOAD SWAP2 PUSH3 0x461BCD PUSH1 0xE5 SHL DUP4 MSTORE DUP3 ADD MSTORE PUSH1 0x29 PUSH1 0x24 DUP3 ADD MSTORE PUSH32 0x4552433732313A2061646472657373207A65726F206973206E6F742061207661 PUSH1 0x44 DUP3 ADD MSTORE PUSH9 0x3634B21037BBB732B9 PUSH1 0xB9 SHL PUSH1 0x64 DUP3 ADD MSTORE REVERT JUMPDEST POP SWAP2 CALLVALUE PUSH2 0x8D1 JUMPI PUSH1 0x20 CALLDATASIZE PUSH1 0x3 NOT ADD SLT PUSH2 0x8D1 JUMPI POP PUSH2 0x98A PUSH1 0x20 SWAP3 CALLDATALOAD PUSH2 0x142D JUMP JUMPDEST SWAP1 MLOAD PUSH1 0x1 PUSH1 0x1 PUSH1 0xA0 SHL SUB SWAP1 SWAP2 AND DUP2 MSTORE RETURN JUMPDEST POP DUP3 CALLVALUE PUSH2 0x8D1 JUMPI PUSH1 0x80 CALLDATASIZE PUSH1 0x3 NOT ADD SLT PUSH2 0x8D1 JUMPI PUSH8 0xFFFFFFFFFFFFFFFF DUP3 CALLDATALOAD DUP2 DUP2 GT PUSH2 0x1A5 JUMPI PUSH2 0x9CD SWAP1 CALLDATASIZE SWAP1 DUP6 ADD PUSH2 0x1322 JUMP JUMPDEST SWAP1 PUSH1 0x24 CALLDATALOAD DUP2 DUP2 GT PUSH2 0x607 JUMPI PUSH2 0x9E5 SWAP1 CALLDATASIZE SWAP1 DUP7 ADD PUSH2 0x1322 JUMP JUMPDEST SWAP2 PUSH1 0x44 CALLDATALOAD DUP3 DUP2 GT PUSH2 0x66C JUMPI PUSH2 0x9FD SWAP1 CALLDATASIZE SWAP1 DUP8 ADD PUSH2 0x1322 JUMP JUMPDEST SWAP5 PUSH1 0x64 CALLDATALOAD PUSH1 0x1 PUSH1 0x1 PUSH1 0xA0 SHL SUB DUP2 AND SWAP5 SWAP1 DUP6 SWAP1 SUB PUSH2 0xE16 JUMPI DUP3 MLOAD DUP5 DUP2 GT PUSH2 0xD09 JUMPI DUP1 PUSH2 0xA29 PUSH1 0x8 SLOAD PUSH2 0x18B2 JUMP JUMPDEST SWAP5 PUSH1 0x1F SWAP6 DUP7 DUP2 GT PUSH2 0xDAA JUMPI JUMPDEST POP PUSH1 0x20 SWAP1 DUP7 DUP4 GT PUSH1 0x1 EQ PUSH2 0xD27 JUMPI DUP10 SWAP3 PUSH2 0xD1C JUMPI JUMPDEST POP POP DUP2 PUSH1 0x1 SHL SWAP2 PUSH1 0x0 NOT SWAP1 PUSH1 0x3 SHL SHR NOT AND OR PUSH1 0x8 SSTORE JUMPDEST DUP1 MLOAD SWAP1 DUP5 DUP3 GT PUSH2 0xD09 JUMPI DUP2 SWAP1 PUSH2 0xA77 PUSH1 0x9 SLOAD PUSH2 0x18B2 JUMP JUMPDEST DUP6 DUP2 GT PUSH2 0xC9D JUMPI JUMPDEST POP PUSH1 0x20 SWAP1 DUP6 DUP4 GT PUSH1 0x1 EQ PUSH2 0xC1A JUMPI DUP9 SWAP3 PUSH2 0xC0F JUMPI JUMPDEST POP POP DUP2 PUSH1 0x1 SHL SWAP2 PUSH1 0x0 NOT SWAP1 PUSH1 0x3 SHL SHR NOT AND OR PUSH1 0x9 SSTORE JUMPDEST DUP6 MLOAD SWAP3 DUP4 GT PUSH2 0xBFC JUMPI POP PUSH2 0xABF PUSH1 0xA SLOAD PUSH2 0x18B2 JUMP JUMPDEST DUP2 DUP2 GT PUSH2 0xB9C JUMPI JUMPDEST POP PUSH1 0x20 SWAP1 DUP3 GT PUSH1 0x1 EQ PUSH2 0xB1B JUMPI DUP4 SWAP5 DUP3 SWAP4 SWAP5 SWAP3 PUSH2 0xB10 JUMPI JUMPDEST POP POP DUP2 PUSH1 0x1 SHL SWAP2 PUSH1 0x0 NOT SWAP1 PUSH1 0x3 SHL SHR NOT AND OR PUSH1 0xA SSTORE JUMPDEST PUSH12 0xFFFFFFFFFFFFFFFFFFFFFFFF PUSH1 0xA0 SHL PUSH1 0xB SLOAD AND OR PUSH1 0xB SSTORE DUP1 RETURN JUMPDEST ADD MLOAD SWAP1 POP DUP5 DUP1 PUSH2 0xADF JUMP JUMPDEST PUSH1 0xA DUP5 MSTORE PUSH32 0xC65A7BB8D6351C1CF70C95A316CC6A92839C986682D98BC35F958F4883F9D2A8 SWAP1 PUSH1 0x1F NOT DUP4 AND DUP6 JUMPDEST DUP2 DUP2 LT PUSH2 0xB84 JUMPI POP SWAP6 DUP4 PUSH1 0x1 SWAP6 SWAP7 SWAP8 LT PUSH2 0xB6B JUMPI JUMPDEST POP POP POP DUP2 SHL ADD PUSH1 0xA SSTORE PUSH2 0xAF5 JUMP JUMPDEST ADD MLOAD PUSH1 0x0 NOT PUSH1 0xF8 DUP5 PUSH1 0x3 SHL AND SHR NOT AND SWAP1 SSTORE DUP5 DUP1 DUP1 PUSH2 0xB5D JUMP JUMPDEST SWAP2 SWAP3 PUSH1 0x20 PUSH1 0x1 DUP2 SWAP3 DUP7 DUP12 ADD MLOAD DUP2 SSTORE ADD SWAP5 ADD SWAP3 ADD PUSH2 0xB48 JUMP JUMPDEST PUSH1 0xA DUP6 MSTORE PUSH32 0xC65A7BB8D6351C1CF70C95A316CC6A92839C986682D98BC35F958F4883F9D2A8 DUP3 DUP1 DUP6 ADD PUSH1 0x5 SHR DUP3 ADD SWAP3 PUSH1 0x20 DUP7 LT PUSH2 0xBF3 JUMPI JUMPDEST ADD PUSH1 0x5 SHR ADD SWAP1 JUMPDEST DUP2 DUP2 LT PUSH2 0xBE8 JUMPI POP PUSH2 0xAC7 JUMP JUMPDEST DUP6 DUP2 SSTORE PUSH1 0x1 ADD PUSH2 0xBDB JUMP JUMPDEST SWAP3 POP DUP2 SWAP3 PUSH2 0xBD4 JUMP JUMPDEST PUSH4 0x4E487B71 PUSH1 0xE0 SHL DUP6 MSTORE PUSH1 0x41 SWAP1 MSTORE PUSH1 0x24 DUP5 REVERT JUMPDEST ADD MLOAD SWAP1 POP DUP9 DUP1 PUSH2 0xA94 JUMP JUMPDEST PUSH1 0x9 DUP10 MSTORE PUSH32 0x6E1540171B6C0C960B71A7020D9F60077F6AF931A8BBF590DA0223DACF75C7AF SWAP3 POP PUSH1 0x1F NOT DUP5 AND DUP10 JUMPDEST DUP2 DUP2 LT PUSH2 0xC85 JUMPI POP SWAP1 DUP5 PUSH1 0x1 SWAP6 SWAP5 SWAP4 SWAP3 LT PUSH2 0xC6C JUMPI JUMPDEST POP POP POP DUP2 SHL ADD PUSH1 0x9 SSTORE PUSH2 0xAAA JUMP JUMPDEST ADD MLOAD PUSH1 0x0 NOT PUSH1 0xF8 DUP5 PUSH1 0x3 SHL AND SHR NOT AND SWAP1 SSTORE DUP9 DUP1 DUP1 PUSH2 0xC5E JUMP JUMPDEST SWAP3 SWAP4 PUSH1 0x20 PUSH1 0x1 DUP2 SWAP3 DUP8 DUP7 ADD MLOAD DUP2 SSTORE ADD SWAP6 ADD SWAP4 ADD PUSH2 0xC48 JUMP JUMPDEST SWAP1 SWAP2 POP PUSH1 0x9 DUP9 MSTORE PUSH32 0x6E1540171B6C0C960B71A7020D9F60077F6AF931A8BBF590DA0223DACF75C7AF DUP6 DUP1 DUP6 ADD PUSH1 0x5 SHR DUP3 ADD SWAP3 PUSH1 0x20 DUP7 LT PUSH2 0xD00 JUMPI JUMPDEST SWAP1 DUP6 SWAP5 SWAP4 SWAP3 SWAP2 ADD PUSH1 0x5 SHR ADD SWAP1 JUMPDEST DUP2 DUP2 LT PUSH2 0xCF2 JUMPI POP PUSH2 0xA7F JUMP JUMPDEST DUP10 DUP2 SSTORE DUP5 SWAP4 POP PUSH1 0x1 ADD PUSH2 0xCE5 JUMP JUMPDEST SWAP3 POP DUP2 SWAP3 PUSH2 0xCD8 JUMP JUMPDEST PUSH4 0x4E487B71 PUSH1 0xE0 SHL DUP8 MSTORE PUSH1 0x41 DUP4 MSTORE PUSH1 0x24 DUP8 REVERT JUMPDEST ADD MLOAD SWAP1 POP DUP10 DUP1 PUSH2 0xA4A JUMP JUMPDEST PUSH1 0x8 DUP11 MSTORE PUSH32 0xF3F7A9FE364FAAB93B216DA50A3214154F22A0A2B415B23A84C8169E8B636EE3 SWAP3 POP PUSH1 0x1F NOT DUP5 AND DUP11 JUMPDEST DUP2 DUP2 LT PUSH2 0xD92 JUMPI POP SWAP1 DUP5 PUSH1 0x1 SWAP6 SWAP5 SWAP4 SWAP3 LT PUSH2 0xD79 JUMPI JUMPDEST POP POP POP DUP2 SHL ADD PUSH1 0x8 SSTORE PUSH2 0xA60 JUMP JUMPDEST ADD MLOAD PUSH1 0x0 NOT PUSH1 0xF8 DUP5 PUSH1 0x3 SHL AND SHR NOT AND SWAP1 SSTORE DUP10 DUP1 DUP1 PUSH2 0xD6B JUMP JUMPDEST SWAP3 SWAP4 PUSH1 0x20 PUSH1 0x1 DUP2 SWAP3 DUP8 DUP7 ADD MLOAD DUP2 SSTORE ADD SWAP6 ADD SWAP4 ADD PUSH2 0xD55 JUMP JUMPDEST SWAP1 SWAP2 POP PUSH1 0x8 DUP10 MSTORE PUSH32 0xF3F7A9FE364FAAB93B216DA50A3214154F22A0A2B415B23A84C8169E8B636EE3 DUP7 DUP1 DUP6 ADD PUSH1 0x5 SHR DUP3 ADD SWAP3 PUSH1 0x20 DUP7 LT PUSH2 0xE0D JUMPI JUMPDEST SWAP1 DUP6 SWAP5 SWAP4 SWAP3 SWAP2 ADD PUSH1 0x5 SHR ADD SWAP1 JUMPDEST DUP2 DUP2 LT PUSH2 0xDFF JUMPI POP PUSH2 0xA35 JUMP JUMPDEST DUP11 DUP2 SSTORE DUP5 SWAP4 POP PUSH1 0x1 ADD PUSH2 0xDF2 JUMP JUMPDEST SWAP3 POP DUP2 SWAP3 PUSH2 0xDE5 JUMP JUMPDEST DUP6 DUP1 REVERT JUMPDEST POP POP CALLVALUE PUSH2 0x1E0 JUMPI DUP2 PUSH1 0x3 NOT CALLDATASIZE ADD SLT PUSH2 0x1E0 JUMPI DUP1 MLOAD SWAP1 DUP3 PUSH1 0xA SLOAD PUSH2 0xE3C DUP2 PUSH2 0x18B2 JUMP JUMPDEST DUP1 DUP6 MSTORE SWAP2 PUSH1 0x1 SWAP2 DUP1 DUP4 AND SWAP1 DUP2 ISZERO PUSH2 0x823 JUMPI POP PUSH1 0x1 EQ PUSH2 0xE67 JUMPI POP POP POP PUSH2 0x7B4 DUP3 PUSH2 0x59E SWAP5 SUB DUP4 PUSH2 0x12AD JUMP JUMPDEST SWAP5 POP PUSH1 0xA DUP6 MSTORE PUSH32 0xC65A7BB8D6351C1CF70C95A316CC6A92839C986682D98BC35F958F4883F9D2A8 JUMPDEST DUP3 DUP7 LT PUSH2 0xEAC JUMPI POP POP POP PUSH2 0x7B4 DUP3 PUSH1 0x20 PUSH2 0x59E SWAP6 DUP3 ADD ADD SWAP5 PUSH2 0x7A2 JUMP JUMPDEST DUP1 SLOAD PUSH1 0x20 DUP8 DUP8 ADD DUP2 ADD SWAP2 SWAP1 SWAP2 MSTORE SWAP1 SWAP6 ADD SWAP5 DUP2 ADD PUSH2 0xE8F JUMP JUMPDEST POP POP CALLVALUE PUSH2 0x1E0 JUMPI PUSH2 0x150 SWAP1 PUSH2 0xED8 CALLDATASIZE PUSH2 0x1246 JUMP JUMPDEST SWAP2 SWAP3 MLOAD SWAP3 PUSH2 0xEE5 DUP5 PUSH2 0x127B JUMP JUMPDEST DUP6 DUP5 MSTORE PUSH2 0x14F1 JUMP JUMPDEST POP POP CALLVALUE PUSH2 0x1E0 JUMPI DUP2 PUSH1 0x3 NOT CALLDATASIZE ADD SLT PUSH2 0x1E0 JUMPI PUSH1 0xB SLOAD SWAP1 MLOAD PUSH1 0x1 PUSH1 0x1 PUSH1 0xA0 SHL SUB SWAP1 SWAP2 AND DUP2 MSTORE PUSH1 0x20 SWAP1 RETURN JUMPDEST DUP4 CALLVALUE PUSH2 0x8D1 JUMPI PUSH2 0x150 PUSH2 0xF28 CALLDATASIZE PUSH2 0x1246 JUMP JUMPDEST SWAP2 PUSH2 0xF3B PUSH2 0xF36 DUP5 CALLER PUSH2 0x158C JUMP JUMPDEST PUSH2 0x148E JUMP JUMPDEST PUSH2 0x15E7 JUMP JUMPDEST POP CALLVALUE PUSH2 0x1A5 JUMPI DUP2 PUSH1 0x3 NOT CALLDATASIZE ADD SLT PUSH2 0x1A5 JUMPI PUSH2 0xF59 PUSH2 0x1215 JUMP JUMPDEST SWAP1 PUSH1 0x24 CALLDATALOAD SWAP3 PUSH2 0xF67 DUP5 PUSH2 0x142D JUMP JUMPDEST PUSH1 0x1 PUSH1 0x1 PUSH1 0xA0 SHL SUB SWAP4 DUP5 AND SWAP4 SWAP3 SWAP1 DUP4 DUP2 AND DUP6 DUP2 EQ PUSH2 0x1052 JUMPI CALLER EQ SWAP1 DUP2 ISZERO PUSH2 0x1040 JUMPI JUMPDEST POP ISZERO PUSH2 0xFD8 JUMPI DUP5 DUP7 MSTORE PUSH1 0x20 MSTORE DUP5 KECCAK256 DUP1 SLOAD PUSH1 0x1 PUSH1 0x1 PUSH1 0xA0 SHL SUB NOT AND DUP4 OR SWAP1 SSTORE PUSH2 0xFB0 DUP4 PUSH2 0x142D JUMP JUMPDEST AND PUSH32 0x8C5BE1E5EBEC7D5BD14F71427D1E84F3DD0314C0F7B2291E5B200AC8C7C3B925 DUP5 DUP1 LOG4 DUP1 RETURN JUMPDEST PUSH1 0x20 PUSH1 0x84 SWAP3 MLOAD SWAP2 PUSH3 0x461BCD PUSH1 0xE5 SHL DUP4 MSTORE DUP3 ADD MSTORE PUSH1 0x3E PUSH1 0x24 DUP3 ADD MSTORE PUSH32 0x4552433732313A20617070726F76652063616C6C6572206973206E6F7420746F PUSH1 0x44 DUP3 ADD MSTORE PUSH32 0x6B656E206F776E6572206E6F7220617070726F76656420666F7220616C6C0000 PUSH1 0x64 DUP3 ADD MSTORE REVERT JUMPDEST PUSH2 0x104C SWAP2 POP CALLER SWAP1 PUSH2 0x18EC JUMP JUMPDEST CODESIZE PUSH2 0xF89 JUMP JUMPDEST DUP4 MLOAD PUSH3 0x461BCD PUSH1 0xE5 SHL DUP2 MSTORE PUSH1 0x20 DUP2 DUP6 ADD MSTORE PUSH1 0x21 PUSH1 0x24 DUP3 ADD MSTORE PUSH32 0x4552433732313A20617070726F76616C20746F2063757272656E74206F776E65 PUSH1 0x44 DUP3 ADD MSTORE PUSH1 0x39 PUSH1 0xF9 SHL PUSH1 0x64 DUP3 ADD MSTORE PUSH1 0x84 SWAP1 REVERT JUMPDEST POP SWAP2 CALLVALUE PUSH2 0x8D1 JUMPI PUSH1 0x20 CALLDATASIZE PUSH1 0x3 NOT ADD SLT PUSH2 0x8D1 JUMPI POP PUSH2 0x98A PUSH1 0x20 SWAP3 CALLDATALOAD PUSH2 0x1450 JUMP JUMPDEST POP POP CALLVALUE PUSH2 0x1E0 JUMPI DUP2 PUSH1 0x3 NOT CALLDATASIZE ADD SLT PUSH2 0x1E0 JUMPI DUP1 MLOAD SWAP1 DUP3 PUSH1 0x8 SLOAD PUSH2 0x10E1 DUP2 PUSH2 0x18B2 JUMP JUMPDEST DUP1 DUP6 MSTORE SWAP2 PUSH1 0x1 SWAP2 DUP1 DUP4 AND SWAP1 DUP2 ISZERO PUSH2 0x823 JUMPI POP PUSH1 0x1 EQ PUSH2 0x110C JUMPI POP POP POP PUSH2 0x7B4 DUP3 PUSH2 0x59E SWAP5 SUB DUP4 PUSH2 0x12AD JUMP JUMPDEST SWAP5 POP PUSH1 0x8 DUP6 MSTORE PUSH32 0xF3F7A9FE364FAAB93B216DA50A3214154F22A0A2B415B23A84C8169E8B636EE3 JUMPDEST DUP3 DUP7 LT PUSH2 0x1151 JUMPI POP POP POP PUSH2 0x7B4 DUP3 PUSH1 0x20 PUSH2 0x59E SWAP6 DUP3 ADD ADD SWAP5 PUSH2 0x7A2 JUMP JUMPDEST DUP1 SLOAD PUSH1 0x20 DUP8 DUP8 ADD DUP2 ADD SWAP2 SWAP1 SWAP2 MSTORE SWAP1 SWAP6 ADD SWAP5 DUP2 ADD PUSH2 0x1134 JUMP JUMPDEST SWAP3 POP POP CALLVALUE PUSH2 0x1A5 JUMPI PUSH1 0x20 CALLDATASIZE PUSH1 0x3 NOT ADD SLT PUSH2 0x1A5 JUMPI CALLDATALOAD PUSH4 0xFFFFFFFF PUSH1 0xE0 SHL DUP2 AND DUP1 SWAP2 SUB PUSH2 0x1A5 JUMPI PUSH1 0x20 SWAP3 POP PUSH4 0x80AC58CD PUSH1 0xE0 SHL DUP2 EQ SWAP1 DUP2 ISZERO PUSH2 0x11C4 JUMPI JUMPDEST DUP2 ISZERO PUSH2 0x11B3 JUMPI JUMPDEST POP ISZERO ISZERO DUP2 MSTORE RETURN JUMPDEST PUSH4 0x1FFC9A7 PUSH1 0xE0 SHL EQ SWAP1 POP CODESIZE PUSH2 0x11AC JUMP JUMPDEST PUSH4 0x5B5E139F PUSH1 0xE0 SHL DUP2 EQ SWAP2 POP PUSH2 0x11A5 JUMP JUMPDEST SWAP2 SWAP1 DUP3 MLOAD SWAP3 DUP4 DUP3 MSTORE PUSH1 0x0 JUMPDEST DUP5 DUP2 LT PUSH2 0x1201 JUMPI POP POP DUP3 PUSH1 0x0 PUSH1 0x20 DUP1 SWAP5 SWAP6 DUP5 ADD ADD MSTORE PUSH1 0x1F DUP1 NOT SWAP2 ADD AND ADD ADD SWAP1 JUMP JUMPDEST PUSH1 0x20 DUP2 DUP4 ADD DUP2 ADD MLOAD DUP5 DUP4 ADD DUP3 ADD MSTORE ADD PUSH2 0x11E0 JUMP JUMPDEST PUSH1 0x4 CALLDATALOAD SWAP1 PUSH1 0x1 PUSH1 0x1 PUSH1 0xA0 SHL SUB DUP3 AND DUP3 SUB PUSH2 0x122B JUMPI JUMP JUMPDEST PUSH1 0x0 DUP1 REVERT JUMPDEST PUSH1 0x24 CALLDATALOAD SWAP1 PUSH1 0x1 PUSH1 0x1 PUSH1 0xA0 SHL SUB DUP3 AND DUP3 SUB PUSH2 0x122B JUMPI JUMP JUMPDEST PUSH1 0x60 SWAP1 PUSH1 0x3 NOT ADD SLT PUSH2 0x122B JUMPI PUSH1 0x1 PUSH1 0x1 PUSH1 0xA0 SHL SUB SWAP1 PUSH1 0x4 CALLDATALOAD DUP3 DUP2 AND DUP2 SUB PUSH2 0x122B JUMPI SWAP2 PUSH1 0x24 CALLDATALOAD SWAP1 DUP2 AND DUP2 SUB PUSH2 0x122B JUMPI SWAP1 PUSH1 0x44 CALLDATALOAD SWAP1 JUMP JUMPDEST PUSH1 0x20 DUP2 ADD SWAP1 DUP2 LT PUSH8 0xFFFFFFFFFFFFFFFF DUP3 GT OR PUSH2 0x1297 JUMPI PUSH1 0x40 MSTORE JUMP JUMPDEST PUSH4 0x4E487B71 PUSH1 0xE0 SHL PUSH1 0x0 MSTORE PUSH1 0x41 PUSH1 0x4 MSTORE PUSH1 0x24 PUSH1 0x0 REVERT JUMPDEST SWAP1 PUSH1 0x1F DUP1 NOT SWAP2 ADD AND DUP2 ADD SWAP1 DUP2 LT PUSH8 0xFFFFFFFFFFFFFFFF DUP3 GT OR PUSH2 0x1297 JUMPI PUSH1 0x40 MSTORE JUMP JUMPDEST PUSH8 0xFFFFFFFFFFFFFFFF DUP2 GT PUSH2 0x1297 JUMPI PUSH1 0x1F ADD PUSH1 0x1F NOT AND PUSH1 0x20 ADD SWAP1 JUMP JUMPDEST SWAP3 SWAP2 SWAP3 PUSH2 0x12F7 DUP3 PUSH2 0x12CF JUMP JUMPDEST SWAP2 PUSH2 0x1305 PUSH1 0x40 MLOAD SWAP4 DUP5 PUSH2 0x12AD JUMP JUMPDEST DUP3 SWAP5 DUP2 DUP5 MSTORE DUP2 DUP4 ADD GT PUSH2 0x122B JUMPI DUP3 DUP2 PUSH1 0x20 SWAP4 DUP5 PUSH1 0x0 SWAP7 ADD CALLDATACOPY ADD ADD MSTORE JUMP JUMPDEST SWAP1 DUP1 PUSH1 0x1F DUP4 ADD SLT ISZERO PUSH2 0x122B JUMPI DUP2 PUSH1 0x20 PUSH2 0x133D SWAP4 CALLDATALOAD SWAP2 ADD PUSH2 0x12EB JUMP JUMPDEST SWAP1 JUMP JUMPDEST PUSH1 0x7 SLOAD PUSH1 0x1 PUSH1 0x1 PUSH1 0xA0 SHL SUB AND CALLER SUB PUSH2 0x1354 JUMPI JUMP JUMPDEST PUSH1 0x64 PUSH1 0x40 MLOAD PUSH3 0x461BCD PUSH1 0xE5 SHL DUP2 MSTORE PUSH1 0x20 PUSH1 0x4 DUP3 ADD MSTORE PUSH1 0x20 PUSH1 0x24 DUP3 ADD MSTORE PUSH32 0x4F776E61626C653A2063616C6C6572206973206E6F7420746865206F776E6572 PUSH1 0x44 DUP3 ADD MSTORE REVERT JUMPDEST PUSH1 0x7 DUP1 SLOAD PUSH1 0x1 PUSH1 0x1 PUSH1 0xA0 SHL SUB SWAP3 DUP4 AND PUSH1 0x1 PUSH1 0x1 PUSH1 0xA0 SHL SUB NOT DUP3 AND DUP2 OR SWAP1 SWAP3 SSTORE SWAP1 SWAP2 AND PUSH32 0x8BE0079C531659141344CD1FD0A4F28419497F9722A3DAAFE3B4186F6B6457E0 PUSH1 0x0 DUP1 LOG3 JUMP JUMPDEST ISZERO PUSH2 0x13E8 JUMPI JUMP JUMPDEST PUSH1 0x40 MLOAD PUSH3 0x461BCD PUSH1 0xE5 SHL DUP2 MSTORE PUSH1 0x20 PUSH1 0x4 DUP3 ADD MSTORE PUSH1 0x18 PUSH1 0x24 DUP3 ADD MSTORE PUSH32 0x4552433732313A20696E76616C696420746F6B656E2049440000000000000000 PUSH1 0x44 DUP3 ADD MSTORE PUSH1 0x64 SWAP1 REVERT JUMPDEST PUSH1 0x0 SWAP1 DUP2 MSTORE PUSH1 0x2 PUSH1 0x20 MSTORE PUSH1 0x40 SWAP1 KECCAK256 SLOAD PUSH1 0x1 PUSH1 0x1 PUSH1 0xA0 SHL SUB AND PUSH2 0x133D DUP2 ISZERO ISZERO PUSH2 0x13E1 JUMP JUMPDEST PUSH1 0x0 DUP2 DUP2 MSTORE PUSH1 0x2 PUSH1 0x20 MSTORE PUSH1 0x40 SWAP1 KECCAK256 SLOAD PUSH2 0x1473 SWAP1 PUSH1 0x1 PUSH1 0x1 PUSH1 0xA0 SHL SUB AND ISZERO ISZERO PUSH2 0x13E1 JUMP JUMPDEST PUSH1 0x0 SWAP1 DUP2 MSTORE PUSH1 0x4 PUSH1 0x20 MSTORE PUSH1 0x40 SWAP1 KECCAK256 SLOAD PUSH1 0x1 PUSH1 0x1 PUSH1 0xA0 SHL SUB AND SWAP1 JUMP JUMPDEST ISZERO PUSH2 0x1495 JUMPI JUMP JUMPDEST PUSH1 0x40 MLOAD PUSH3 0x461BCD PUSH1 0xE5 SHL DUP2 MSTORE PUSH1 0x20 PUSH1 0x4 DUP3 ADD MSTORE PUSH1 0x2E PUSH1 0x24 DUP3 ADD MSTORE PUSH32 0x4552433732313A2063616C6C6572206973206E6F7420746F6B656E206F776E65 PUSH1 0x44 DUP3 ADD MSTORE PUSH14 0x1C881B9BDC88185C1C1C9BDD9959 PUSH1 0x92 SHL PUSH1 0x64 DUP3 ADD MSTORE PUSH1 0x84 SWAP1 REVERT JUMPDEST SWAP1 PUSH2 0x1515 SWAP4 SWAP3 SWAP2 PUSH2 0x1505 PUSH2 0xF36 DUP5 CALLER PUSH2 0x158C JUMP JUMPDEST PUSH2 0x1510 DUP4 DUP4 DUP4 PUSH2 0x15E7 JUMP JUMPDEST PUSH2 0x1791 JUMP JUMPDEST ISZERO PUSH2 0x151C JUMPI JUMP JUMPDEST PUSH1 0x40 MLOAD PUSH3 0x461BCD PUSH1 0xE5 SHL DUP2 MSTORE DUP1 PUSH2 0x1535 PUSH1 0x4 DUP3 ADD PUSH2 0x1539 JUMP JUMPDEST SUB SWAP1 REVERT JUMPDEST PUSH1 0x80 SWAP1 PUSH1 0x20 DUP2 MSTORE PUSH1 0x32 PUSH1 0x20 DUP3 ADD MSTORE PUSH32 0x4552433732313A207472616E7366657220746F206E6F6E204552433732315265 PUSH1 0x40 DUP3 ADD MSTORE PUSH18 0x31B2B4BB32B91034B6B83632B6B2B73A32B9 PUSH1 0x71 SHL PUSH1 0x60 DUP3 ADD MSTORE ADD SWAP1 JUMP JUMPDEST PUSH2 0x1595 DUP3 PUSH2 0x142D JUMP JUMPDEST SWAP2 PUSH1 0x1 DUP1 PUSH1 0xA0 SHL SUB SWAP1 DUP2 DUP4 AND SWAP3 DUP3 DUP6 AND DUP5 EQ SWAP5 DUP6 ISZERO PUSH2 0x15D4 JUMPI JUMPDEST POP POP DUP4 ISZERO PUSH2 0x15BE JUMPI JUMPDEST POP POP POP SWAP1 JUMP JUMPDEST PUSH2 0x15CA SWAP2 SWAP3 SWAP4 POP PUSH2 0x1450 JUMP JUMPDEST AND EQ CODESIZE DUP1 DUP1 PUSH2 0x15B8 JUMP JUMPDEST PUSH2 0x15DF SWAP3 SWAP6 POP PUSH2 0x18EC JUMP JUMPDEST SWAP3 CODESIZE DUP1 PUSH2 0x15AF JUMP JUMPDEST PUSH2 0x15F0 DUP4 PUSH2 0x142D JUMP JUMPDEST PUSH1 0x1 PUSH1 0x1 PUSH1 0xA0 SHL SUB SWAP3 SWAP2 DUP4 AND SWAP2 SWAP1 DUP4 AND DUP3 SWAP1 SUB PUSH2 0x173E JUMPI DUP3 AND SWAP2 DUP3 ISZERO PUSH2 0x16ED JUMPI PUSH1 0x0 SWAP1 DUP5 DUP3 MSTORE PUSH1 0x4 PUSH1 0x20 MSTORE DUP5 DUP3 PUSH1 0x40 DUP2 KECCAK256 SWAP3 PUSH12 0xFFFFFFFFFFFFFFFFFFFFFFFF PUSH1 0xA0 SHL SWAP4 DUP5 DUP2 SLOAD AND SWAP1 SSTORE PUSH2 0x1642 DUP4 PUSH2 0x142D JUMP JUMPDEST AND PUSH32 0x8C5BE1E5EBEC7D5BD14F71427D1E84F3DD0314C0F7B2291E5B200AC8C7C3B925 DUP3 DUP1 LOG4 DUP3 DUP3 MSTORE PUSH1 0x3 PUSH1 0x20 MSTORE PUSH1 0x40 DUP3 KECCAK256 DUP1 SLOAD PUSH1 0x0 NOT DUP2 ADD SWAP2 SWAP1 DUP3 GT PUSH2 0x16D9 JUMPI SSTORE DUP4 DUP3 MSTORE PUSH1 0x3 PUSH1 0x20 MSTORE PUSH1 0x40 DUP3 KECCAK256 DUP1 SLOAD SWAP1 PUSH1 0x1 DUP3 ADD DUP1 SWAP3 GT PUSH2 0x16D9 JUMPI SSTORE DUP5 DUP3 MSTORE PUSH1 0x2 PUSH1 0x20 MSTORE PUSH1 0x40 DUP3 KECCAK256 DUP1 SLOAD SWAP1 SWAP2 AND DUP5 OR SWAP1 SSTORE PUSH32 0xDDF252AD1BE2C89B69C2B068FC378DAA952BA7F163C4A11628F55A4DF523B3EF SWAP1 DUP1 LOG4 JUMP JUMPDEST PUSH4 0x4E487B71 PUSH1 0xE0 SHL DUP5 MSTORE PUSH1 0x11 PUSH1 0x4 MSTORE PUSH1 0x24 DUP5 REVERT JUMPDEST PUSH1 0x40 MLOAD PUSH3 0x461BCD PUSH1 0xE5 SHL DUP2 MSTORE PUSH1 0x20 PUSH1 0x4 DUP3 ADD MSTORE PUSH1 0x24 DUP1 DUP3 ADD MSTORE PUSH32 0x4552433732313A207472616E7366657220746F20746865207A65726F20616464 PUSH1 0x44 DUP3 ADD MSTORE PUSH4 0x72657373 PUSH1 0xE0 SHL PUSH1 0x64 DUP3 ADD MSTORE PUSH1 0x84 SWAP1 REVERT JUMPDEST PUSH1 0x40 MLOAD PUSH3 0x461BCD PUSH1 0xE5 SHL DUP2 MSTORE PUSH1 0x20 PUSH1 0x4 DUP3 ADD MSTORE PUSH1 0x25 PUSH1 0x24 DUP3 ADD MSTORE PUSH32 0x4552433732313A207472616E736665722066726F6D20696E636F727265637420 PUSH1 0x44 DUP3 ADD MSTORE PUSH5 0x37BBB732B9 PUSH1 0xD9 SHL PUSH1 0x64 DUP3 ADD MSTORE PUSH1 0x84 SWAP1 REVERT JUMPDEST SWAP3 SWAP4 PUSH1 0x0 SWAP4 SWAP1 SWAP3 SWAP2 DUP1 EXTCODESIZE ISZERO PUSH2 0x18A7 JUMPI SWAP5 DUP5 SWAP2 PUSH2 0x17EB SWAP7 PUSH1 0x40 MLOAD DUP1 SWAP5 DUP2 SWAP4 PUSH4 0xA85BD01 PUSH1 0xE1 SHL SWAP8 DUP9 DUP5 MSTORE CALLER PUSH1 0x4 DUP6 ADD MSTORE PUSH1 0x1 DUP1 PUSH1 0xA0 SHL SUB DUP1 SWAP3 AND PUSH1 0x24 DUP6 ADD MSTORE PUSH1 0x44 DUP5 ADD MSTORE PUSH1 0x80 PUSH1 0x64 DUP5 ADD MSTORE DUP3 PUSH1 0x20 SWAP12 DUP13 SWAP8 PUSH1 0x84 DUP4 ADD SWAP1 PUSH2 0x11D5 JUMP JUMPDEST SUB SWAP4 AND GAS CALL DUP5 SWAP2 DUP2 PUSH2 0x1867 JUMPI JUMPDEST POP PUSH2 0x1856 JUMPI POP POP POP RETURNDATASIZE PUSH1 0x0 EQ PUSH2 0x184E JUMPI RETURNDATASIZE PUSH2 0x1812 DUP2 PUSH2 0x12CF JUMP JUMPDEST SWAP1 PUSH2 0x1820 PUSH1 0x40 MLOAD SWAP3 DUP4 PUSH2 0x12AD JUMP JUMPDEST DUP2 MSTORE DUP1 SWAP2 DUP4 RETURNDATASIZE SWAP3 ADD RETURNDATACOPY JUMPDEST DUP1 MLOAD SWAP2 DUP3 PUSH2 0x184B JUMPI PUSH1 0x40 MLOAD PUSH3 0x461BCD PUSH1 0xE5 SHL DUP2 MSTORE DUP1 PUSH2 0x1535 PUSH1 0x4 DUP3 ADD PUSH2 0x1539 JUMP JUMPDEST ADD REVERT JUMPDEST POP PUSH1 0x60 PUSH2 0x182A JUMP JUMPDEST PUSH1 0x1 PUSH1 0x1 PUSH1 0xE0 SHL SUB NOT AND EQ SWAP3 POP SWAP1 POP JUMP JUMPDEST SWAP1 SWAP2 POP DUP6 DUP2 DUP2 RETURNDATASIZE DUP4 GT PUSH2 0x18A0 JUMPI JUMPDEST PUSH2 0x187F DUP2 DUP4 PUSH2 0x12AD JUMP JUMPDEST DUP2 ADD SUB SLT PUSH2 0x66C JUMPI MLOAD PUSH1 0x1 PUSH1 0x1 PUSH1 0xE0 SHL SUB NOT DUP2 AND DUP2 SUB PUSH2 0x66C JUMPI SWAP1 CODESIZE PUSH2 0x17F8 JUMP JUMPDEST POP RETURNDATASIZE PUSH2 0x1875 JUMP JUMPDEST POP POP POP SWAP2 POP POP PUSH1 0x1 SWAP1 JUMP JUMPDEST SWAP1 PUSH1 0x1 DUP3 DUP2 SHR SWAP3 AND DUP1 ISZERO PUSH2 0x18E2 JUMPI JUMPDEST PUSH1 0x20 DUP4 LT EQ PUSH2 0x18CC JUMPI JUMP JUMPDEST PUSH4 0x4E487B71 PUSH1 0xE0 SHL PUSH1 0x0 MSTORE PUSH1 0x22 PUSH1 0x4 MSTORE PUSH1 0x24 PUSH1 0x0 REVERT JUMPDEST SWAP2 PUSH1 0x7F AND SWAP2 PUSH2 0x18C1 JUMP JUMPDEST PUSH1 0xB SLOAD PUSH1 0x1 PUSH1 0x1 PUSH1 0xA0 SHL SUB SWAP3 DUP4 AND SWAP3 SWAP2 SWAP1 DUP3 AND DUP4 SUB PUSH2 0x190D JUMPI POP POP POP PUSH1 0x1 SWAP1 JUMP JUMPDEST AND PUSH1 0x0 MSTORE PUSH1 0x5 PUSH1 0x20 MSTORE PUSH1 0x40 PUSH1 0x0 KECCAK256 SWAP1 PUSH1 0x0 MSTORE PUSH1 0x20 MSTORE PUSH1 0xFF PUSH1 0x40 PUSH1 0x0 KECCAK256 SLOAD AND SWAP1 JUMP INVALID LOG2 PUSH5 0x6970667358 0x22 SLT KECCAK256 0xEF 0x4E CALLCODE 0xCD 0x4D 0xE6 CALLDATALOAD 0xC4 0xF6 ORIGIN 0xB4 GT GASLIMIT DUP10 DUP12 CREATE2 0x27 PUSH13 0xC1F9F199D76E59C934C85CF218 GASPRICE PUSH5 0x736F6C6343 STOP ADDMOD GT STOP CALLER LOG2 PUSH5 0x6970667358 0x22 SLT KECCAK256 DUP5 0xAA 0xA5 CALLVALUE PUSH24 0xC2E0C66B7BAEAB6F67BD2AA5BF5275BCDB23FC8ADF44C4CB 0x21 0xB0 PUSH2 0x6473 PUSH16 0x6C634300081100330000000000000000 "},"methodIdentifiers":{"createErc721(string,string)":"574620cf","version()":"54fd4d50"}}}}}