{"contracts/Erc1155.sol":{"Erc1155":{"abi":[{"inputs":[{"internalType":"string","name":"__verison","type":"string"},{"internalType":"address","name":"__robot","type":"address"}],"stateMutability":"nonpayable","type":"constructor"},{"anonymous":false,"inputs":[{"indexed":true,"internalType":"address","name":"account","type":"address"},{"indexed":true,"internalType":"address","name":"operator","type":"address"},{"indexed":false,"internalType":"bool","name":"approved","type":"bool"}],"name":"ApprovalForAll","type":"event"},{"anonymous":false,"inputs":[{"indexed":true,"internalType":"address","name":"account","type":"address"},{"indexed":true,"internalType":"uint8","name":"rate","type":"uint8"}],"name":"Creator","type":"event"},{"anonymous":false,"inputs":[{"indexed":true,"internalType":"address","name":"previousOwner","type":"address"},{"indexed":true,"internalType":"address","name":"newOwner","type":"address"}],"name":"OwnershipTransferred","type":"event"},{"anonymous":false,"inputs":[{"indexed":true,"internalType":"address","name":"operator","type":"address"},{"indexed":true,"internalType":"address","name":"from","type":"address"},{"indexed":true,"internalType":"address","name":"to","type":"address"},{"indexed":false,"internalType":"uint256[]","name":"ids","type":"uint256[]"},{"indexed":false,"internalType":"uint256[]","name":"values","type":"uint256[]"}],"name":"TransferBatch","type":"event"},{"anonymous":false,"inputs":[{"indexed":true,"internalType":"address","name":"operator","type":"address"},{"indexed":true,"internalType":"address","name":"from","type":"address"},{"indexed":true,"internalType":"address","name":"to","type":"address"},{"indexed":false,"internalType":"uint256","name":"id","type":"uint256"},{"indexed":false,"internalType":"uint256","name":"value","type":"uint256"}],"name":"TransferSingle","type":"event"},{"anonymous":false,"inputs":[{"indexed":false,"internalType":"string","name":"value","type":"string"},{"indexed":true,"internalType":"uint256","name":"id","type":"uint256"}],"name":"URI","type":"event"},{"inputs":[{"internalType":"address","name":"account","type":"address"},{"internalType":"uint256","name":"id","type":"uint256"}],"name":"balanceOf","outputs":[{"internalType":"uint256","name":"","type":"uint256"}],"stateMutability":"view","type":"function"},{"inputs":[{"internalType":"address[]","name":"accounts","type":"address[]"},{"internalType":"uint256[]","name":"ids","type":"uint256[]"}],"name":"balanceOfBatch","outputs":[{"internalType":"uint256[]","name":"","type":"uint256[]"}],"stateMutability":"view","type":"function"},{"inputs":[],"name":"getRobot","outputs":[{"internalType":"address","name":"","type":"address"}],"stateMutability":"view","type":"function"},{"inputs":[{"internalType":"address","name":"account","type":"address"},{"internalType":"address","name":"operator","type":"address"}],"name":"isApprovedForAll","outputs":[{"internalType":"bool","name":"","type":"bool"}],"stateMutability":"view","type":"function"},{"inputs":[{"internalType":"address","name":"to","type":"address"},{"internalType":"uint256","name":"tokenId","type":"uint256"},{"internalType":"string","name":"name","type":"string"},{"internalType":"string","name":"tokenURI","type":"string"},{"internalType":"uint256","name":"amount","type":"uint256"}],"name":"mint","outputs":[],"stateMutability":"nonpayable","type":"function"},{"inputs":[],"name":"owner","outputs":[{"internalType":"address","name":"","type":"address"}],"stateMutability":"view","type":"function"},{"inputs":[],"name":"renounceOwnership","outputs":[],"stateMutability":"nonpayable","type":"function"},{"inputs":[{"internalType":"address","name":"from","type":"address"},{"internalType":"address","name":"to","type":"address"},{"internalType":"uint256[]","name":"ids","type":"uint256[]"},{"internalType":"uint256[]","name":"amounts","type":"uint256[]"},{"internalType":"bytes","name":"data","type":"bytes"}],"name":"safeBatchTransferFrom","outputs":[],"stateMutability":"nonpayable","type":"function"},{"inputs":[{"internalType":"address","name":"from","type":"address"},{"internalType":"address","name":"to","type":"address"},{"internalType":"uint256","name":"id","type":"uint256"},{"internalType":"uint256","name":"amount","type":"uint256"},{"internalType":"bytes","name":"data","type":"bytes"}],"name":"safeTransferFrom","outputs":[],"stateMutability":"nonpayable","type":"function"},{"inputs":[{"internalType":"address","name":"operator","type":"address"},{"internalType":"bool","name":"approved","type":"bool"}],"name":"setApprovalForAll","outputs":[],"stateMutability":"nonpayable","type":"function"},{"inputs":[{"internalType":"uint256","name":"tokenId","type":"uint256"},{"internalType":"string","name":"tokenURI","type":"string"}],"name":"setURI","outputs":[],"stateMutability":"nonpayable","type":"function"},{"inputs":[{"internalType":"bytes4","name":"interfaceId","type":"bytes4"}],"name":"supportsInterface","outputs":[{"internalType":"bool","name":"","type":"bool"}],"stateMutability":"view","type":"function"},{"inputs":[{"internalType":"address","name":"newOwner","type":"address"}],"name":"transferOwnership","outputs":[],"stateMutability":"nonpayable","type":"function"},{"inputs":[{"internalType":"uint256","name":"tokenId","type":"uint256"}],"name":"uri","outputs":[{"internalType":"string","name":"","type":"string"}],"stateMutability":"view","type":"function"},{"inputs":[],"name":"version","outputs":[{"internalType":"string","name":"","type":"string"}],"stateMutability":"view","type":"function"}],"evm":{"bytecode":{"linkReferences":{},"object":"608060405234620002c35762001da1803803806200001d81620002dd565b928339810190604081830312620002c35780516001600160401b0390818111620002c357820190601f848184011215620002c3578251938285116200026557602094601f19946200007484830187168801620002dd565b97828952878383010111620002c3579086929160005b828110620002c8575050600090880183015201516001600160a01b038082169590949091869003620002c3576040518281019080821086831117620002655760009160405252620000dd60025462000303565b8381116200029f575b506000600255620000f960035462000303565b8381116200027b575b50600060035560055460018060a01b03199533878316176005553391167f8be0079c531659141344cd1fd0a4f28419497f9722a3daafe3b4186f6b6457e0600080a3865193841162000265576200015b60065462000303565b83811162000227575b5081928411600114620001ba57505081929394600092620001ae575b50508160011b916000199060031b1c1916176006555b6008541617600855604051611a4790816200035a8239f35b01519050388062000180565b839291921695600660005282600020926000905b8882106200020e57505083600195969710620001f4575b505050811b0160065562000196565b015160001960f88460031b161c19169055388080620001e5565b80600185968294968601518155019501930190620001ce565b62000254906006600052836000208580880160051c8201928689106200025b575b0160051c019062000340565b3862000164565b9250819262000248565b634e487b7160e01b600052604160045260246000fd5b620002989060036000528484600020910160051c81019062000340565b3862000102565b620002bc9060026000528484600020910160051c81019062000340565b38620000e6565b600080fd5b8181018501518a82018601528894016200008a565b6040519190601f01601f191682016001600160401b038111838210176200026557604052565b90600182811c9216801562000335575b60208310146200031f57565b634e487b7160e01b600052602260045260246000fd5b91607f169162000313565b8181106200034c575050565b600081556001016200034056fe6040608081526004908136101561001557600080fd5b600091823560e01c8062fdd58e1461100b57806301ffc9a714610f9e5780630e89341c14610f6a5780632eb2c2d614610c795780633f8a4d6714610c505780634e1273f414610ab757806354fd4d50146109ce578063715018a61461096e578063862440e2146109305780638da5cb5b14610907578063a22cb4651461082a578063af72bd911461042f578063e985e9c5146103f4578063f242432a146101935763f2fde38b146100c557600080fd5b3461018f57602036600319011261018f576100de61103b565b906100e76111ed565b6001600160a01b0391821692831561013d575050600554826bffffffffffffffffffffffff60a01b821617600555167f8be0079c531659141344cd1fd0a4f28419497f9722a3daafe3b4186f6b6457e08380a380f35b906020608492519162461bcd60e51b8352820152602660248201527f4f776e61626c653a206e6577206f776e657220697320746865207a65726f206160448201526564647265737360d01b6064820152fd5b8280fd5b50903461018f5760a036600319011261018f576101ae61103b565b836101b7611056565b916044359060643560843567ffffffffffffffff81116103f0576101de9036908901611162565b926001600160a01b0383811693610200903386149081156103de575b50611319565b86169061020e82151561137d565b61021781611591565b5061022183611591565b5080865260209686885288872085885288528389882054610244828210156113d7565b838952888a528a8920878a528a5203898820558187528688528887208388528852888720610273858254611436565b905582858a51848152868b8201527fc3d58168c5ae7397731d063d5bbf3d657854427343f4c083240f7aacaa2d0f628c3392a43b6102af578580f35b889587946102f08a519788968795869463f23a6e6160e01b9c8d8752339087015260248601526044850152606484015260a0608484015260a483019061108f565b03925af18691816103af575b5061037e57505060019061030e6114ac565b6308c379a01461034b575b5061032e5750505b3880808381808080808580f35b5162461bcd60e51b81529150819061034790820161153c565b0390fd5b6103536114ca565b8061035e5750610319565b6103478591855193849362461bcd60e51b8552840152602483019061108f565b6001600160e01b031916039050610396575050610321565b5162461bcd60e51b815291508190610347908201611463565b6103d0919250843d86116103d7575b6103c881836110b4565b810190611443565b90386102fc565b503d6103be565b6103ea915033906119cf565b386101fa565b8480fd5b50503461042b578060031936011261042b5760209061042261041461103b565b61041c611056565b906119cf565b90519015158152f35b5080fd5b5082903461042b5760a036600319011261042b5761044b61103b565b602480359467ffffffffffffffff929190604435848111610826576104739036908701611162565b966064358581116108225761048b9036908801611162565b6084359461049883611790565b957fc5d2460186f7233c927e7db2dcc703c0e500b653ca82273b7bfad8045d85a4708551976020986104e68a82816104d9818301968781519384920161106c565b81010380845201826110b4565b5190200361081e578451918783018381108a82111761080c5786528a83526001600160a01b0381169081156107c05791818b94938a938e6105268a611591565b5061053085611591565b508981528086528a812082825286528a812061054d868254611436565b90558a518a815285878201527fc3d58168c5ae7397731d063d5bbf3d657854427343f4c083240f7aacaa2d0f628c3392a43b6106ab575b50505050506105939082611601565b865260098352852093865193841161069a5750506105b183546115c7565b601f8111610657575b5080601f83116001146105f557508394829394926105ea575b50508160011b916000199060031b1c191617905580f35b0151905084806105d3565b90601f198316958486528286209286905b88821061063f57505083600195969710610626575b505050811b01905580f35b015160001960f88460031b161c1916905584808061061b565b80600185968294968601518155019501930190610606565b838552818520601f840160051c810191838510610690575b601f0160051c01905b81811061068557506105ba565b858155600101610678565b909150819061066f565b634e487b7160e01b86526041905284fd5b8c808a6106ea8b519788968795869463f23a6e6160e01b9c8d875233908701528501528c6044850152606484015260a0608484015260a483019061108f565b03925af18a91816107a1575b5061077257505060016107076114ac565b6308c379a01461073e575b61072757610593905b9050868a868180610584565b825162461bcd60e51b815280610347818a0161153c565b6107466114ca565b806107515750610712565b845162461bcd60e51b8152808a01889052908190610347908289019061108f565b6001600160e01b0319160361078a576105939061071b565b825162461bcd60e51b815280610347818a01611463565b6107b9919250883d8a116103d7576103c881836110b4565b908c6106f6565b865162461bcd60e51b8152808c018a90526021818a01527f455243313135353a206d696e7420746f20746865207a65726f206164647265736044820152607360f81b6064820152608490fd5b634e487b7160e01b8c5260418b52878cfd5b8980fd5b8780fd5b8680fd5b50903461018f578060031936011261018f5761084461103b565b90602435918215158093036103f0576001600160a01b0316923384146108b35750338452600160205280842083855260205280842060ff1981541660ff8416179055519081527f17307eab39ab6107e8899845ad3d59bd9653f200f220920489ca2b5937696c3160203392a380f35b6020608492519162461bcd60e51b8352820152602960248201527f455243313135353a2073657474696e6720617070726f76616c20737461747573604482015268103337b91039b2b63360b91b6064820152fd5b50503461042b578160031936011261042b5760055490516001600160a01b039091168152602090f35b50903461018f5736600319011261042b576024359067ffffffffffffffff821161018f5761096461096b9236908301611162565b9035611601565b80f35b83346109cb57806003193601126109cb576109876111ed565b600580546001600160a01b0319811690915581906001600160a01b03167f8be0079c531659141344cd1fd0a4f28419497f9722a3daafe3b4186f6b6457e08280a380f35b80fd5b50503461042b578160031936011261042b57805190826006546109f0816115c7565b80855291600191808316908115610a8f5750600114610a32575b505050610a1c82610a2e9403836110b4565b5191829160208352602083019061108f565b0390f35b9450600685527ff652222313e28459528d920b65115c16c04f3efc82aaedc97be59f3f377c0d3f5b828610610a7757505050610a1c826020610a2e9582010194610a0a565b80546020878701810191909152909501948101610a5a565b610a2e975086935060209250610a1c94915060ff191682840152151560051b82010194610a0a565b503461018f578160031936011261018f57803567ffffffffffffffff8082116103f057366023830112156103f0578183013590610af3826110ec565b92610b00865194856110b4565b82845260209260248486019160051b83010191368311610c4c57602401905b828210610c2d57505050602435908111610c2957610b409036908501611104565b928251845103610bd65750815194610b57866110ec565b95610b64865197886110b4565b808752610b73601f19916110ec565b0136838801375b8251811015610bc457610bbf90610baf6001600160a01b03610b9c83876112ef565b5116610ba883886112ef565b5190611245565b610bb982896112ef565b526112ca565b610b7a565b845182815280610a2e818501896111b9565b60849185519162461bcd60e51b8352820152602960248201527f455243313135353a206163636f756e747320616e6420696473206c656e677468604482015268040dad2e6dac2e8c6d60bb1b6064820152fd5b8580fd5b81356001600160a01b038116810361081e578152908401908401610b1f565b8880fd5b50503461042b578160031936011261042b5760085490516001600160a01b039091168152602090f35b503461018f576003199160a036840112610f6657610c9561103b565b92610c9e611056565b9367ffffffffffffffff9360443585811161082257610cc09036908301611104565b90606435868111610c4c57610cd89036908301611104565b95608435908111610c4c57610cf09036908301611162565b936001600160a01b0384811694610d11903387149081156103de5750611319565b8351885103610f1257881694610d2886151561137d565b895b8a8551821015610dae579089610da28a610da994610d5385610d4c818d6112ef565b51956112ef565b51938082526020908282528383208d84528252858d8585205490610d79838310156113d7565b838652858552868620908652845203848420558252818152828220908d83525220918254611436565b90556112ca565b610d2a565b50509094939596929197848789518a81527f4a39dc06d4c0dbc64b70af90fd698a233a518aa5d07e595d983b8c0526c8f7fb610dec8c8301886111b9565b91808303602082015280610e0133948b6111b9565b0390a43b610e0d578880f35b8651948593849363bc197c8160e01b98898652338c87015260248601526044850160a0905260a48501610e3f916111b9565b82858203016064860152610e52916111b9565b90838203016084840152610e659161108f565b0381885a94602095f1859181610ef2575b50610edc5750506001610e876114ac565b6308c379a014610ea5575b61032e5750505b38808080808080808880f35b610ead6114ca565b80610eb85750610e92565b905061034791602094505193849362461bcd60e51b8552840152602483019061108f565b6001600160e01b03191603610396575050610e99565b610f0b91925060203d81116103d7576103c881836110b4565b9038610e76565b865162461bcd60e51b8152602081850152602860248201527f455243313135353a2069647320616e6420616d6f756e7473206c656e677468206044820152670dad2e6dac2e8c6d60c31b6064820152608490fd5b8380fd5b5091346109cb5760203660031901126109cb5750610f8b610a2e9235611790565b905191829160208352602083019061108f565b503461018f57602036600319011261018f57359063ffffffff60e01b821680920361018f5760209250636cdb3d1360e11b8214918215610ffa575b8215610fe9575b50519015158152f35b6301ffc9a760e01b14915038610fe0565b6303a24d0760e21b81149250610fd9565b50503461042b578060031936011261042b5760209061103461102b61103b565b60243590611245565b9051908152f35b600435906001600160a01b038216820361105157565b600080fd5b602435906001600160a01b038216820361105157565b60005b83811061107f5750506000910152565b818101518382015260200161106f565b906020916110a88151809281855285808601910161106c565b601f01601f1916010190565b90601f8019910116810190811067ffffffffffffffff8211176110d657604052565b634e487b7160e01b600052604160045260246000fd5b67ffffffffffffffff81116110d65760051b60200190565b81601f820112156110515780359161111b836110ec565b9261112960405194856110b4565b808452602092838086019260051b820101928311611051578301905b828210611153575050505090565b81358152908301908301611145565b81601f820112156110515780359067ffffffffffffffff82116110d65760405192611197601f8401601f1916602001856110b4565b8284526020838301011161105157816000926020809301838601378301015290565b90815180825260208080930193019160005b8281106111d9575050505090565b8351855293810193928101926001016111cb565b6005546001600160a01b0316330361120157565b606460405162461bcd60e51b815260206004820152602060248201527f4f776e61626c653a2063616c6c6572206973206e6f7420746865206f776e65726044820152fd5b6001600160a01b031690811561127257600052600060205260406000209060005260205260406000205490565b60405162461bcd60e51b815260206004820152602a60248201527f455243313135353a2061646472657373207a65726f206973206e6f742061207660448201526930b634b21037bbb732b960b11b6064820152608490fd5b60001981146112d95760010190565b634e487b7160e01b600052601160045260246000fd5b80518210156113035760209160051b010190565b634e487b7160e01b600052603260045260246000fd5b1561132057565b60405162461bcd60e51b815260206004820152602f60248201527f455243313135353a2063616c6c6572206973206e6f7420746f6b656e206f776e60448201526e195c881b9bdc88185c1c1c9bdd9959608a1b6064820152608490fd5b1561138457565b60405162461bcd60e51b815260206004820152602560248201527f455243313135353a207472616e7366657220746f20746865207a65726f206164604482015264647265737360d81b6064820152608490fd5b156113de57565b60405162461bcd60e51b815260206004820152602a60248201527f455243313135353a20696e73756666696369656e742062616c616e636520666f60448201526939103a3930b739b332b960b11b6064820152608490fd5b919082018092116112d957565b9081602091031261105157516001600160e01b0319811681036110515790565b60809060208152602860208201527f455243313135353a204552433131353552656365697665722072656a656374656040820152676420746f6b656e7360c01b60608201520190565b60009060033d116114b957565b905060046000803e60005160e01c90565b600060443d1061152857604051600319913d83016004833e815167ffffffffffffffff918282113d60248401111761152b57818401948551938411611533573d8501016020848701011161152b5750611528929101602001906110b4565b90565b949350505050565b50949350505050565b60809060208152603460208201527f455243313135353a207472616e7366657220746f206e6f6e20455243313135356040820152732932b1b2b4bb32b91034b6b83632b6b2b73a32b960611b60608201520190565b604051906040820182811067ffffffffffffffff8211176110d65760405260018252602082016020368237825115611303575290565b90600182811c921680156115f7575b60208310146115e157565b634e487b7160e01b600052602260045260246000fd5b91607f16916115d6565b90600082815260209060048252604081209083519067ffffffffffffffff821161177c5761162f83546115c7565b601f8111611739575b508390601f83116001146116b257907f6bb7ff708619ba0610cba295a58592e0451dee2622938c8755667688daf3529b95836116a7575b50508160011b916000199060031b1c19161790555b61168d83611790565b906116a260405192828493845283019061108f565b0390a2565b01519050388061166f565b91929394601f198416858452868420935b81811061172257509160019391857f6bb7ff708619ba0610cba295a58592e0451dee2622938c8755667688daf3529b9897969410611709575b505050811b019055611684565b015160001960f88460031b161c191690553880806116fc565b9293876001819287860151815501950193016116c3565b838252848220601f840160051c810191868510611772575b601f0160051c01905b8181106117675750611638565b82815560010161175a565b9091508190611751565b634e487b7160e01b81526041600452602490fd5b6000908152602090600482526040812090604051908091835492816117b4856115c7565b91828252878201966001968988821691826000146119b1575050600114611973575b506117e3925003826110b4565b8051156118b85760405194859383600354916117fe836115c7565b928181169081156118975750600114611837575b505050506118286115289483925193849161106c565b0103601f1981018352826110b4565b909192969450600382527fc2575a0e9e593c00f959f8c92f12db2869c3395a3b0502d05e2516446f71f85b5b83831061188157505050611528946118289185010192943880611812565b8054898401890152889650918701918101611863565b60ff1916888601525050508015150284010191506118286115283880611812565b50604051600254909493508492826118cf836115c7565b8086529282811690811561195157506001146118f5575b505050611528925003826110b4565b600281527f405787fa12a823e0f2b7631cc41b3ba8828b3321ca811111fa75cd3aa3bb5ace95935091905b81831061193957505061152893508201013880806118e6565b85548784018501529485019486945091830191611920565b9250505061152894925060ff191682840152151560051b8201013880806118e6565b915050835281868085208686915b8583106119985750506117e39350820101386117d6565b8091929450548385880101520191018790868593611981565b60ff19168a526117e395151560051b85010192503891506117d69050565b6008546001600160a01b03928316929190821683036119f057505050600190565b16600052600160205260406000209060005260205260ff604060002054169056fea2646970667358221220263a218d5cda9567e3945d07966d6311b0550e4656742758ae6d126547c4f65064736f6c63430008110033","opcodes":"PUSH1 0x80 PUSH1 0x40 MSTORE CALLVALUE PUSH3 0x2C3 JUMPI PUSH3 0x1DA1 DUP1 CODESIZE SUB DUP1 PUSH3 0x1D DUP2 PUSH3 0x2DD JUMP JUMPDEST SWAP3 DUP4 CODECOPY DUP2 ADD SWAP1 PUSH1 0x40 DUP2 DUP4 SUB SLT PUSH3 0x2C3 JUMPI DUP1 MLOAD PUSH1 0x1 PUSH1 0x1 PUSH1 0x40 SHL SUB SWAP1 DUP2 DUP2 GT PUSH3 0x2C3 JUMPI DUP3 ADD SWAP1 PUSH1 0x1F DUP5 DUP2 DUP5 ADD SLT ISZERO PUSH3 0x2C3 JUMPI DUP3 MLOAD SWAP4 DUP3 DUP6 GT PUSH3 0x265 JUMPI PUSH1 0x20 SWAP5 PUSH1 0x1F NOT SWAP5 PUSH3 0x74 DUP5 DUP4 ADD DUP8 AND DUP9 ADD PUSH3 0x2DD JUMP JUMPDEST SWAP8 DUP3 DUP10 MSTORE DUP8 DUP4 DUP4 ADD ADD GT PUSH3 0x2C3 JUMPI SWAP1 DUP7 SWAP3 SWAP2 PUSH1 0x0 JUMPDEST DUP3 DUP2 LT PUSH3 0x2C8 JUMPI POP POP PUSH1 0x0 SWAP1 DUP9 ADD DUP4 ADD MSTORE ADD MLOAD PUSH1 0x1 PUSH1 0x1 PUSH1 0xA0 SHL SUB DUP1 DUP3 AND SWAP6 SWAP1 SWAP5 SWAP1 SWAP2 DUP7 SWAP1 SUB PUSH3 0x2C3 JUMPI PUSH1 0x40 MLOAD DUP3 DUP2 ADD SWAP1 DUP1 DUP3 LT DUP7 DUP4 GT OR PUSH3 0x265 JUMPI PUSH1 0x0 SWAP2 PUSH1 0x40 MSTORE MSTORE PUSH3 0xDD PUSH1 0x2 SLOAD PUSH3 0x303 JUMP JUMPDEST DUP4 DUP2 GT PUSH3 0x29F JUMPI JUMPDEST POP PUSH1 0x0 PUSH1 0x2 SSTORE PUSH3 0xF9 PUSH1 0x3 SLOAD PUSH3 0x303 JUMP JUMPDEST DUP4 DUP2 GT PUSH3 0x27B JUMPI JUMPDEST POP PUSH1 0x0 PUSH1 0x3 SSTORE PUSH1 0x5 SLOAD PUSH1 0x1 DUP1 PUSH1 0xA0 SHL SUB NOT SWAP6 CALLER DUP8 DUP4 AND OR PUSH1 0x5 SSTORE CALLER SWAP2 AND PUSH32 0x8BE0079C531659141344CD1FD0A4F28419497F9722A3DAAFE3B4186F6B6457E0 PUSH1 0x0 DUP1 LOG3 DUP7 MLOAD SWAP4 DUP5 GT PUSH3 0x265 JUMPI PUSH3 0x15B PUSH1 0x6 SLOAD PUSH3 0x303 JUMP JUMPDEST DUP4 DUP2 GT PUSH3 0x227 JUMPI JUMPDEST POP DUP2 SWAP3 DUP5 GT PUSH1 0x1 EQ PUSH3 0x1BA JUMPI POP POP DUP2 SWAP3 SWAP4 SWAP5 PUSH1 0x0 SWAP3 PUSH3 0x1AE JUMPI JUMPDEST POP POP DUP2 PUSH1 0x1 SHL SWAP2 PUSH1 0x0 NOT SWAP1 PUSH1 0x3 SHL SHR NOT AND OR PUSH1 0x6 SSTORE JUMPDEST PUSH1 0x8 SLOAD AND OR PUSH1 0x8 SSTORE PUSH1 0x40 MLOAD PUSH2 0x1A47 SWAP1 DUP2 PUSH3 0x35A DUP3 CODECOPY RETURN JUMPDEST ADD MLOAD SWAP1 POP CODESIZE DUP1 PUSH3 0x180 JUMP JUMPDEST DUP4 SWAP3 SWAP2 SWAP3 AND SWAP6 PUSH1 0x6 PUSH1 0x0 MSTORE DUP3 PUSH1 0x0 KECCAK256 SWAP3 PUSH1 0x0 SWAP1 JUMPDEST DUP9 DUP3 LT PUSH3 0x20E JUMPI POP POP DUP4 PUSH1 0x1 SWAP6 SWAP7 SWAP8 LT PUSH3 0x1F4 JUMPI JUMPDEST POP POP POP DUP2 SHL ADD PUSH1 0x6 SSTORE PUSH3 0x196 JUMP JUMPDEST ADD MLOAD PUSH1 0x0 NOT PUSH1 0xF8 DUP5 PUSH1 0x3 SHL AND SHR NOT AND SWAP1 SSTORE CODESIZE DUP1 DUP1 PUSH3 0x1E5 JUMP JUMPDEST DUP1 PUSH1 0x1 DUP6 SWAP7 DUP3 SWAP5 SWAP7 DUP7 ADD MLOAD DUP2 SSTORE ADD SWAP6 ADD SWAP4 ADD SWAP1 PUSH3 0x1CE JUMP JUMPDEST PUSH3 0x254 SWAP1 PUSH1 0x6 PUSH1 0x0 MSTORE DUP4 PUSH1 0x0 KECCAK256 DUP6 DUP1 DUP9 ADD PUSH1 0x5 SHR DUP3 ADD SWAP3 DUP7 DUP10 LT PUSH3 0x25B JUMPI JUMPDEST ADD PUSH1 0x5 SHR ADD SWAP1 PUSH3 0x340 JUMP JUMPDEST CODESIZE PUSH3 0x164 JUMP JUMPDEST SWAP3 POP DUP2 SWAP3 PUSH3 0x248 JUMP JUMPDEST PUSH4 0x4E487B71 PUSH1 0xE0 SHL PUSH1 0x0 MSTORE PUSH1 0x41 PUSH1 0x4 MSTORE PUSH1 0x24 PUSH1 0x0 REVERT JUMPDEST PUSH3 0x298 SWAP1 PUSH1 0x3 PUSH1 0x0 MSTORE DUP5 DUP5 PUSH1 0x0 KECCAK256 SWAP2 ADD PUSH1 0x5 SHR DUP2 ADD SWAP1 PUSH3 0x340 JUMP JUMPDEST CODESIZE PUSH3 0x102 JUMP JUMPDEST PUSH3 0x2BC SWAP1 PUSH1 0x2 PUSH1 0x0 MSTORE DUP5 DUP5 PUSH1 0x0 KECCAK256 SWAP2 ADD PUSH1 0x5 SHR DUP2 ADD SWAP1 PUSH3 0x340 JUMP JUMPDEST CODESIZE PUSH3 0xE6 JUMP JUMPDEST PUSH1 0x0 DUP1 REVERT JUMPDEST DUP2 DUP2 ADD DUP6 ADD MLOAD DUP11 DUP3 ADD DUP7 ADD MSTORE DUP9 SWAP5 ADD PUSH3 0x8A JUMP JUMPDEST PUSH1 0x40 MLOAD SWAP2 SWAP1 PUSH1 0x1F ADD PUSH1 0x1F NOT AND DUP3 ADD PUSH1 0x1 PUSH1 0x1 PUSH1 0x40 SHL SUB DUP2 GT DUP4 DUP3 LT OR PUSH3 0x265 JUMPI PUSH1 0x40 MSTORE JUMP JUMPDEST SWAP1 PUSH1 0x1 DUP3 DUP2 SHR SWAP3 AND DUP1 ISZERO PUSH3 0x335 JUMPI JUMPDEST PUSH1 0x20 DUP4 LT EQ PUSH3 0x31F JUMPI JUMP JUMPDEST PUSH4 0x4E487B71 PUSH1 0xE0 SHL PUSH1 0x0 MSTORE PUSH1 0x22 PUSH1 0x4 MSTORE PUSH1 0x24 PUSH1 0x0 REVERT JUMPDEST SWAP2 PUSH1 0x7F AND SWAP2 PUSH3 0x313 JUMP JUMPDEST DUP2 DUP2 LT PUSH3 0x34C JUMPI POP POP JUMP JUMPDEST PUSH1 0x0 DUP2 SSTORE PUSH1 0x1 ADD PUSH3 0x340 JUMP INVALID PUSH1 0x40 PUSH1 0x80 DUP2 MSTORE PUSH1 0x4 SWAP1 DUP2 CALLDATASIZE LT ISZERO PUSH2 0x15 JUMPI PUSH1 0x0 DUP1 REVERT JUMPDEST PUSH1 0x0 SWAP2 DUP3 CALLDATALOAD PUSH1 0xE0 SHR DUP1 PUSH3 0xFDD58E EQ PUSH2 0x100B JUMPI DUP1 PUSH4 0x1FFC9A7 EQ PUSH2 0xF9E JUMPI DUP1 PUSH4 0xE89341C EQ PUSH2 0xF6A JUMPI DUP1 PUSH4 0x2EB2C2D6 EQ PUSH2 0xC79 JUMPI DUP1 PUSH4 0x3F8A4D67 EQ PUSH2 0xC50 JUMPI DUP1 PUSH4 0x4E1273F4 EQ PUSH2 0xAB7 JUMPI DUP1 PUSH4 0x54FD4D50 EQ PUSH2 0x9CE JUMPI DUP1 PUSH4 0x715018A6 EQ PUSH2 0x96E JUMPI DUP1 PUSH4 0x862440E2 EQ PUSH2 0x930 JUMPI DUP1 PUSH4 0x8DA5CB5B EQ PUSH2 0x907 JUMPI DUP1 PUSH4 0xA22CB465 EQ PUSH2 0x82A JUMPI DUP1 PUSH4 0xAF72BD91 EQ PUSH2 0x42F JUMPI DUP1 PUSH4 0xE985E9C5 EQ PUSH2 0x3F4 JUMPI DUP1 PUSH4 0xF242432A EQ PUSH2 0x193 JUMPI PUSH4 0xF2FDE38B EQ PUSH2 0xC5 JUMPI PUSH1 0x0 DUP1 REVERT JUMPDEST CALLVALUE PUSH2 0x18F JUMPI PUSH1 0x20 CALLDATASIZE PUSH1 0x3 NOT ADD SLT PUSH2 0x18F JUMPI PUSH2 0xDE PUSH2 0x103B JUMP JUMPDEST SWAP1 PUSH2 0xE7 PUSH2 0x11ED JUMP JUMPDEST PUSH1 0x1 PUSH1 0x1 PUSH1 0xA0 SHL SUB SWAP2 DUP3 AND SWAP3 DUP4 ISZERO PUSH2 0x13D JUMPI POP POP PUSH1 0x5 SLOAD DUP3 PUSH12 0xFFFFFFFFFFFFFFFFFFFFFFFF PUSH1 0xA0 SHL DUP3 AND OR PUSH1 0x5 SSTORE AND PUSH32 0x8BE0079C531659141344CD1FD0A4F28419497F9722A3DAAFE3B4186F6B6457E0 DUP4 DUP1 LOG3 DUP1 RETURN JUMPDEST SWAP1 PUSH1 0x20 PUSH1 0x84 SWAP3 MLOAD SWAP2 PUSH3 0x461BCD PUSH1 0xE5 SHL DUP4 MSTORE DUP3 ADD MSTORE PUSH1 0x26 PUSH1 0x24 DUP3 ADD MSTORE PUSH32 0x4F776E61626C653A206E6577206F776E657220697320746865207A65726F2061 PUSH1 0x44 DUP3 ADD MSTORE PUSH6 0x646472657373 PUSH1 0xD0 SHL PUSH1 0x64 DUP3 ADD MSTORE REVERT JUMPDEST DUP3 DUP1 REVERT JUMPDEST POP SWAP1 CALLVALUE PUSH2 0x18F JUMPI PUSH1 0xA0 CALLDATASIZE PUSH1 0x3 NOT ADD SLT PUSH2 0x18F JUMPI PUSH2 0x1AE PUSH2 0x103B JUMP JUMPDEST DUP4 PUSH2 0x1B7 PUSH2 0x1056 JUMP JUMPDEST SWAP2 PUSH1 0x44 CALLDATALOAD SWAP1 PUSH1 0x64 CALLDATALOAD PUSH1 0x84 CALLDATALOAD PUSH8 0xFFFFFFFFFFFFFFFF DUP2 GT PUSH2 0x3F0 JUMPI PUSH2 0x1DE SWAP1 CALLDATASIZE SWAP1 DUP10 ADD PUSH2 0x1162 JUMP JUMPDEST SWAP3 PUSH1 0x1 PUSH1 0x1 PUSH1 0xA0 SHL SUB DUP4 DUP2 AND SWAP4 PUSH2 0x200 SWAP1 CALLER DUP7 EQ SWAP1 DUP2 ISZERO PUSH2 0x3DE JUMPI JUMPDEST POP PUSH2 0x1319 JUMP JUMPDEST DUP7 AND SWAP1 PUSH2 0x20E DUP3 ISZERO ISZERO PUSH2 0x137D JUMP JUMPDEST PUSH2 0x217 DUP2 PUSH2 0x1591 JUMP JUMPDEST POP PUSH2 0x221 DUP4 PUSH2 0x1591 JUMP JUMPDEST POP DUP1 DUP7 MSTORE PUSH1 0x20 SWAP7 DUP7 DUP9 MSTORE DUP9 DUP8 KECCAK256 DUP6 DUP9 MSTORE DUP9 MSTORE DUP4 DUP10 DUP9 KECCAK256 SLOAD PUSH2 0x244 DUP3 DUP3 LT ISZERO PUSH2 0x13D7 JUMP JUMPDEST DUP4 DUP10 MSTORE DUP9 DUP11 MSTORE DUP11 DUP10 KECCAK256 DUP8 DUP11 MSTORE DUP11 MSTORE SUB DUP10 DUP9 KECCAK256 SSTORE DUP2 DUP8 MSTORE DUP7 DUP9 MSTORE DUP9 DUP8 KECCAK256 DUP4 DUP9 MSTORE DUP9 MSTORE DUP9 DUP8 KECCAK256 PUSH2 0x273 DUP6 DUP3 SLOAD PUSH2 0x1436 JUMP JUMPDEST SWAP1 SSTORE DUP3 DUP6 DUP11 MLOAD DUP5 DUP2 MSTORE DUP7 DUP12 DUP3 ADD MSTORE PUSH32 0xC3D58168C5AE7397731D063D5BBF3D657854427343F4C083240F7AACAA2D0F62 DUP13 CALLER SWAP3 LOG4 EXTCODESIZE PUSH2 0x2AF JUMPI DUP6 DUP1 RETURN JUMPDEST DUP9 SWAP6 DUP8 SWAP5 PUSH2 0x2F0 DUP11 MLOAD SWAP8 DUP9 SWAP7 DUP8 SWAP6 DUP7 SWAP5 PUSH4 0xF23A6E61 PUSH1 0xE0 SHL SWAP13 DUP14 DUP8 MSTORE CALLER SWAP1 DUP8 ADD MSTORE PUSH1 0x24 DUP7 ADD MSTORE PUSH1 0x44 DUP6 ADD MSTORE PUSH1 0x64 DUP5 ADD MSTORE PUSH1 0xA0 PUSH1 0x84 DUP5 ADD MSTORE PUSH1 0xA4 DUP4 ADD SWAP1 PUSH2 0x108F JUMP JUMPDEST SUB SWAP3 GAS CALL DUP7 SWAP2 DUP2 PUSH2 0x3AF JUMPI JUMPDEST POP PUSH2 0x37E JUMPI POP POP PUSH1 0x1 SWAP1 PUSH2 0x30E PUSH2 0x14AC JUMP JUMPDEST PUSH4 0x8C379A0 EQ PUSH2 0x34B JUMPI JUMPDEST POP PUSH2 0x32E JUMPI POP POP JUMPDEST CODESIZE DUP1 DUP1 DUP4 DUP2 DUP1 DUP1 DUP1 DUP1 DUP6 DUP1 RETURN JUMPDEST MLOAD PUSH3 0x461BCD PUSH1 0xE5 SHL DUP2 MSTORE SWAP2 POP DUP2 SWAP1 PUSH2 0x347 SWAP1 DUP3 ADD PUSH2 0x153C JUMP JUMPDEST SUB SWAP1 REVERT JUMPDEST PUSH2 0x353 PUSH2 0x14CA JUMP JUMPDEST DUP1 PUSH2 0x35E JUMPI POP PUSH2 0x319 JUMP JUMPDEST PUSH2 0x347 DUP6 SWAP2 DUP6 MLOAD SWAP4 DUP5 SWAP4 PUSH3 0x461BCD PUSH1 0xE5 SHL DUP6 MSTORE DUP5 ADD MSTORE PUSH1 0x24 DUP4 ADD SWAP1 PUSH2 0x108F JUMP JUMPDEST PUSH1 0x1 PUSH1 0x1 PUSH1 0xE0 SHL SUB NOT AND SUB SWAP1 POP PUSH2 0x396 JUMPI POP POP PUSH2 0x321 JUMP JUMPDEST MLOAD PUSH3 0x461BCD PUSH1 0xE5 SHL DUP2 MSTORE SWAP2 POP DUP2 SWAP1 PUSH2 0x347 SWAP1 DUP3 ADD PUSH2 0x1463 JUMP JUMPDEST PUSH2 0x3D0 SWAP2 SWAP3 POP DUP5 RETURNDATASIZE DUP7 GT PUSH2 0x3D7 JUMPI JUMPDEST PUSH2 0x3C8 DUP2 DUP4 PUSH2 0x10B4 JUMP JUMPDEST DUP2 ADD SWAP1 PUSH2 0x1443 JUMP JUMPDEST SWAP1 CODESIZE PUSH2 0x2FC JUMP JUMPDEST POP RETURNDATASIZE PUSH2 0x3BE JUMP JUMPDEST PUSH2 0x3EA SWAP2 POP CALLER SWAP1 PUSH2 0x19CF JUMP JUMPDEST CODESIZE PUSH2 0x1FA JUMP JUMPDEST DUP5 DUP1 REVERT JUMPDEST POP POP CALLVALUE PUSH2 0x42B JUMPI DUP1 PUSH1 0x3 NOT CALLDATASIZE ADD SLT PUSH2 0x42B JUMPI PUSH1 0x20 SWAP1 PUSH2 0x422 PUSH2 0x414 PUSH2 0x103B JUMP JUMPDEST PUSH2 0x41C PUSH2 0x1056 JUMP JUMPDEST SWAP1 PUSH2 0x19CF JUMP JUMPDEST SWAP1 MLOAD SWAP1 ISZERO ISZERO DUP2 MSTORE RETURN JUMPDEST POP DUP1 REVERT JUMPDEST POP DUP3 SWAP1 CALLVALUE PUSH2 0x42B JUMPI PUSH1 0xA0 CALLDATASIZE PUSH1 0x3 NOT ADD SLT PUSH2 0x42B JUMPI PUSH2 0x44B PUSH2 0x103B JUMP JUMPDEST PUSH1 0x24 DUP1 CALLDATALOAD SWAP5 PUSH8 0xFFFFFFFFFFFFFFFF SWAP3 SWAP2 SWAP1 PUSH1 0x44 CALLDATALOAD DUP5 DUP2 GT PUSH2 0x826 JUMPI PUSH2 0x473 SWAP1 CALLDATASIZE SWAP1 DUP8 ADD PUSH2 0x1162 JUMP JUMPDEST SWAP7 PUSH1 0x64 CALLDATALOAD DUP6 DUP2 GT PUSH2 0x822 JUMPI PUSH2 0x48B SWAP1 CALLDATASIZE SWAP1 DUP9 ADD PUSH2 0x1162 JUMP JUMPDEST PUSH1 0x84 CALLDATALOAD SWAP5 PUSH2 0x498 DUP4 PUSH2 0x1790 JUMP JUMPDEST SWAP6 PUSH32 0xC5D2460186F7233C927E7DB2DCC703C0E500B653CA82273B7BFAD8045D85A470 DUP6 MLOAD SWAP8 PUSH1 0x20 SWAP9 PUSH2 0x4E6 DUP11 DUP3 DUP2 PUSH2 0x4D9 DUP2 DUP4 ADD SWAP7 DUP8 DUP2 MLOAD SWAP4 DUP5 SWAP3 ADD PUSH2 0x106C JUMP JUMPDEST DUP2 ADD SUB DUP1 DUP5 MSTORE ADD DUP3 PUSH2 0x10B4 JUMP JUMPDEST MLOAD SWAP1 KECCAK256 SUB PUSH2 0x81E JUMPI DUP5 MLOAD SWAP2 DUP8 DUP4 ADD DUP4 DUP2 LT DUP11 DUP3 GT OR PUSH2 0x80C JUMPI DUP7 MSTORE DUP11 DUP4 MSTORE PUSH1 0x1 PUSH1 0x1 PUSH1 0xA0 SHL SUB DUP2 AND SWAP1 DUP2 ISZERO PUSH2 0x7C0 JUMPI SWAP2 DUP2 DUP12 SWAP5 SWAP4 DUP11 SWAP4 DUP15 PUSH2 0x526 DUP11 PUSH2 0x1591 JUMP JUMPDEST POP PUSH2 0x530 DUP6 PUSH2 0x1591 JUMP JUMPDEST POP DUP10 DUP2 MSTORE DUP1 DUP7 MSTORE DUP11 DUP2 KECCAK256 DUP3 DUP3 MSTORE DUP7 MSTORE DUP11 DUP2 KECCAK256 PUSH2 0x54D DUP7 DUP3 SLOAD PUSH2 0x1436 JUMP JUMPDEST SWAP1 SSTORE DUP11 MLOAD DUP11 DUP2 MSTORE DUP6 DUP8 DUP3 ADD MSTORE PUSH32 0xC3D58168C5AE7397731D063D5BBF3D657854427343F4C083240F7AACAA2D0F62 DUP13 CALLER SWAP3 LOG4 EXTCODESIZE PUSH2 0x6AB JUMPI JUMPDEST POP POP POP POP POP PUSH2 0x593 SWAP1 DUP3 PUSH2 0x1601 JUMP JUMPDEST DUP7 MSTORE PUSH1 0x9 DUP4 MSTORE DUP6 KECCAK256 SWAP4 DUP7 MLOAD SWAP4 DUP5 GT PUSH2 0x69A JUMPI POP POP PUSH2 0x5B1 DUP4 SLOAD PUSH2 0x15C7 JUMP JUMPDEST PUSH1 0x1F DUP2 GT PUSH2 0x657 JUMPI JUMPDEST POP DUP1 PUSH1 0x1F DUP4 GT PUSH1 0x1 EQ PUSH2 0x5F5 JUMPI POP DUP4 SWAP5 DUP3 SWAP4 SWAP5 SWAP3 PUSH2 0x5EA JUMPI JUMPDEST POP POP DUP2 PUSH1 0x1 SHL SWAP2 PUSH1 0x0 NOT SWAP1 PUSH1 0x3 SHL SHR NOT AND OR SWAP1 SSTORE DUP1 RETURN JUMPDEST ADD MLOAD SWAP1 POP DUP5 DUP1 PUSH2 0x5D3 JUMP JUMPDEST SWAP1 PUSH1 0x1F NOT DUP4 AND SWAP6 DUP5 DUP7 MSTORE DUP3 DUP7 KECCAK256 SWAP3 DUP7 SWAP1 JUMPDEST DUP9 DUP3 LT PUSH2 0x63F JUMPI POP POP DUP4 PUSH1 0x1 SWAP6 SWAP7 SWAP8 LT PUSH2 0x626 JUMPI JUMPDEST POP POP POP DUP2 SHL ADD SWAP1 SSTORE DUP1 RETURN JUMPDEST ADD MLOAD PUSH1 0x0 NOT PUSH1 0xF8 DUP5 PUSH1 0x3 SHL AND SHR NOT AND SWAP1 SSTORE DUP5 DUP1 DUP1 PUSH2 0x61B JUMP JUMPDEST DUP1 PUSH1 0x1 DUP6 SWAP7 DUP3 SWAP5 SWAP7 DUP7 ADD MLOAD DUP2 SSTORE ADD SWAP6 ADD SWAP4 ADD SWAP1 PUSH2 0x606 JUMP JUMPDEST DUP4 DUP6 MSTORE DUP2 DUP6 KECCAK256 PUSH1 0x1F DUP5 ADD PUSH1 0x5 SHR DUP2 ADD SWAP2 DUP4 DUP6 LT PUSH2 0x690 JUMPI JUMPDEST PUSH1 0x1F ADD PUSH1 0x5 SHR ADD SWAP1 JUMPDEST DUP2 DUP2 LT PUSH2 0x685 JUMPI POP PUSH2 0x5BA JUMP JUMPDEST DUP6 DUP2 SSTORE PUSH1 0x1 ADD PUSH2 0x678 JUMP JUMPDEST SWAP1 SWAP2 POP DUP2 SWAP1 PUSH2 0x66F JUMP JUMPDEST PUSH4 0x4E487B71 PUSH1 0xE0 SHL DUP7 MSTORE PUSH1 0x41 SWAP1 MSTORE DUP5 REVERT JUMPDEST DUP13 DUP1 DUP11 PUSH2 0x6EA DUP12 MLOAD SWAP8 DUP9 SWAP7 DUP8 SWAP6 DUP7 SWAP5 PUSH4 0xF23A6E61 PUSH1 0xE0 SHL SWAP13 DUP14 DUP8 MSTORE CALLER SWAP1 DUP8 ADD MSTORE DUP6 ADD MSTORE DUP13 PUSH1 0x44 DUP6 ADD MSTORE PUSH1 0x64 DUP5 ADD MSTORE PUSH1 0xA0 PUSH1 0x84 DUP5 ADD MSTORE PUSH1 0xA4 DUP4 ADD SWAP1 PUSH2 0x108F JUMP JUMPDEST SUB SWAP3 GAS CALL DUP11 SWAP2 DUP2 PUSH2 0x7A1 JUMPI JUMPDEST POP PUSH2 0x772 JUMPI POP POP PUSH1 0x1 PUSH2 0x707 PUSH2 0x14AC JUMP JUMPDEST PUSH4 0x8C379A0 EQ PUSH2 0x73E JUMPI JUMPDEST PUSH2 0x727 JUMPI PUSH2 0x593 SWAP1 JUMPDEST SWAP1 POP DUP7 DUP11 DUP7 DUP2 DUP1 PUSH2 0x584 JUMP JUMPDEST DUP3 MLOAD PUSH3 0x461BCD PUSH1 0xE5 SHL DUP2 MSTORE DUP1 PUSH2 0x347 DUP2 DUP11 ADD PUSH2 0x153C JUMP JUMPDEST PUSH2 0x746 PUSH2 0x14CA JUMP JUMPDEST DUP1 PUSH2 0x751 JUMPI POP PUSH2 0x712 JUMP JUMPDEST DUP5 MLOAD PUSH3 0x461BCD PUSH1 0xE5 SHL DUP2 MSTORE DUP1 DUP11 ADD DUP9 SWAP1 MSTORE SWAP1 DUP2 SWAP1 PUSH2 0x347 SWAP1 DUP3 DUP10 ADD SWAP1 PUSH2 0x108F JUMP JUMPDEST PUSH1 0x1 PUSH1 0x1 PUSH1 0xE0 SHL SUB NOT AND SUB PUSH2 0x78A JUMPI PUSH2 0x593 SWAP1 PUSH2 0x71B JUMP JUMPDEST DUP3 MLOAD PUSH3 0x461BCD PUSH1 0xE5 SHL DUP2 MSTORE DUP1 PUSH2 0x347 DUP2 DUP11 ADD PUSH2 0x1463 JUMP JUMPDEST PUSH2 0x7B9 SWAP2 SWAP3 POP DUP9 RETURNDATASIZE DUP11 GT PUSH2 0x3D7 JUMPI PUSH2 0x3C8 DUP2 DUP4 PUSH2 0x10B4 JUMP JUMPDEST SWAP1 DUP13 PUSH2 0x6F6 JUMP JUMPDEST DUP7 MLOAD PUSH3 0x461BCD PUSH1 0xE5 SHL DUP2 MSTORE DUP1 DUP13 ADD DUP11 SWAP1 MSTORE PUSH1 0x21 DUP2 DUP11 ADD MSTORE PUSH32 0x455243313135353A206D696E7420746F20746865207A65726F20616464726573 PUSH1 0x44 DUP3 ADD MSTORE PUSH1 0x73 PUSH1 0xF8 SHL PUSH1 0x64 DUP3 ADD MSTORE PUSH1 0x84 SWAP1 REVERT JUMPDEST PUSH4 0x4E487B71 PUSH1 0xE0 SHL DUP13 MSTORE PUSH1 0x41 DUP12 MSTORE DUP8 DUP13 REVERT JUMPDEST DUP10 DUP1 REVERT JUMPDEST DUP8 DUP1 REVERT JUMPDEST DUP7 DUP1 REVERT JUMPDEST POP SWAP1 CALLVALUE PUSH2 0x18F JUMPI DUP1 PUSH1 0x3 NOT CALLDATASIZE ADD SLT PUSH2 0x18F JUMPI PUSH2 0x844 PUSH2 0x103B JUMP JUMPDEST SWAP1 PUSH1 0x24 CALLDATALOAD SWAP2 DUP3 ISZERO ISZERO DUP1 SWAP4 SUB PUSH2 0x3F0 JUMPI PUSH1 0x1 PUSH1 0x1 PUSH1 0xA0 SHL SUB AND SWAP3 CALLER DUP5 EQ PUSH2 0x8B3 JUMPI POP CALLER DUP5 MSTORE PUSH1 0x1 PUSH1 0x20 MSTORE DUP1 DUP5 KECCAK256 DUP4 DUP6 MSTORE PUSH1 0x20 MSTORE DUP1 DUP5 KECCAK256 PUSH1 0xFF NOT DUP2 SLOAD AND PUSH1 0xFF DUP5 AND OR SWAP1 SSTORE MLOAD SWAP1 DUP2 MSTORE PUSH32 0x17307EAB39AB6107E8899845AD3D59BD9653F200F220920489CA2B5937696C31 PUSH1 0x20 CALLER SWAP3 LOG3 DUP1 RETURN JUMPDEST PUSH1 0x20 PUSH1 0x84 SWAP3 MLOAD SWAP2 PUSH3 0x461BCD PUSH1 0xE5 SHL DUP4 MSTORE DUP3 ADD MSTORE PUSH1 0x29 PUSH1 0x24 DUP3 ADD MSTORE PUSH32 0x455243313135353A2073657474696E6720617070726F76616C20737461747573 PUSH1 0x44 DUP3 ADD MSTORE PUSH9 0x103337B91039B2B633 PUSH1 0xB9 SHL PUSH1 0x64 DUP3 ADD MSTORE REVERT JUMPDEST POP POP CALLVALUE PUSH2 0x42B JUMPI DUP2 PUSH1 0x3 NOT CALLDATASIZE ADD SLT PUSH2 0x42B JUMPI PUSH1 0x5 SLOAD SWAP1 MLOAD PUSH1 0x1 PUSH1 0x1 PUSH1 0xA0 SHL SUB SWAP1 SWAP2 AND DUP2 MSTORE PUSH1 0x20 SWAP1 RETURN JUMPDEST POP SWAP1 CALLVALUE PUSH2 0x18F JUMPI CALLDATASIZE PUSH1 0x3 NOT ADD SLT PUSH2 0x42B JUMPI PUSH1 0x24 CALLDATALOAD SWAP1 PUSH8 0xFFFFFFFFFFFFFFFF DUP3 GT PUSH2 0x18F JUMPI PUSH2 0x964 PUSH2 0x96B SWAP3 CALLDATASIZE SWAP1 DUP4 ADD PUSH2 0x1162 JUMP JUMPDEST SWAP1 CALLDATALOAD PUSH2 0x1601 JUMP JUMPDEST DUP1 RETURN JUMPDEST DUP4 CALLVALUE PUSH2 0x9CB JUMPI DUP1 PUSH1 0x3 NOT CALLDATASIZE ADD SLT PUSH2 0x9CB JUMPI PUSH2 0x987 PUSH2 0x11ED JUMP JUMPDEST PUSH1 0x5 DUP1 SLOAD PUSH1 0x1 PUSH1 0x1 PUSH1 0xA0 SHL SUB NOT DUP2 AND SWAP1 SWAP2 SSTORE DUP2 SWAP1 PUSH1 0x1 PUSH1 0x1 PUSH1 0xA0 SHL SUB AND PUSH32 0x8BE0079C531659141344CD1FD0A4F28419497F9722A3DAAFE3B4186F6B6457E0 DUP3 DUP1 LOG3 DUP1 RETURN JUMPDEST DUP1 REVERT JUMPDEST POP POP CALLVALUE PUSH2 0x42B JUMPI DUP2 PUSH1 0x3 NOT CALLDATASIZE ADD SLT PUSH2 0x42B JUMPI DUP1 MLOAD SWAP1 DUP3 PUSH1 0x6 SLOAD PUSH2 0x9F0 DUP2 PUSH2 0x15C7 JUMP JUMPDEST DUP1 DUP6 MSTORE SWAP2 PUSH1 0x1 SWAP2 DUP1 DUP4 AND SWAP1 DUP2 ISZERO PUSH2 0xA8F JUMPI POP PUSH1 0x1 EQ PUSH2 0xA32 JUMPI JUMPDEST POP POP POP PUSH2 0xA1C DUP3 PUSH2 0xA2E SWAP5 SUB DUP4 PUSH2 0x10B4 JUMP JUMPDEST MLOAD SWAP2 DUP3 SWAP2 PUSH1 0x20 DUP4 MSTORE PUSH1 0x20 DUP4 ADD SWAP1 PUSH2 0x108F JUMP JUMPDEST SUB SWAP1 RETURN JUMPDEST SWAP5 POP PUSH1 0x6 DUP6 MSTORE PUSH32 0xF652222313E28459528D920B65115C16C04F3EFC82AAEDC97BE59F3F377C0D3F JUMPDEST DUP3 DUP7 LT PUSH2 0xA77 JUMPI POP POP POP PUSH2 0xA1C DUP3 PUSH1 0x20 PUSH2 0xA2E SWAP6 DUP3 ADD ADD SWAP5 PUSH2 0xA0A JUMP JUMPDEST DUP1 SLOAD PUSH1 0x20 DUP8 DUP8 ADD DUP2 ADD SWAP2 SWAP1 SWAP2 MSTORE SWAP1 SWAP6 ADD SWAP5 DUP2 ADD PUSH2 0xA5A JUMP JUMPDEST PUSH2 0xA2E SWAP8 POP DUP7 SWAP4 POP PUSH1 0x20 SWAP3 POP PUSH2 0xA1C SWAP5 SWAP2 POP PUSH1 0xFF NOT AND DUP3 DUP5 ADD MSTORE ISZERO ISZERO PUSH1 0x5 SHL DUP3 ADD ADD SWAP5 PUSH2 0xA0A JUMP JUMPDEST POP CALLVALUE PUSH2 0x18F JUMPI DUP2 PUSH1 0x3 NOT CALLDATASIZE ADD SLT PUSH2 0x18F JUMPI DUP1 CALLDATALOAD PUSH8 0xFFFFFFFFFFFFFFFF DUP1 DUP3 GT PUSH2 0x3F0 JUMPI CALLDATASIZE PUSH1 0x23 DUP4 ADD SLT ISZERO PUSH2 0x3F0 JUMPI DUP2 DUP4 ADD CALLDATALOAD SWAP1 PUSH2 0xAF3 DUP3 PUSH2 0x10EC JUMP JUMPDEST SWAP3 PUSH2 0xB00 DUP7 MLOAD SWAP5 DUP6 PUSH2 0x10B4 JUMP JUMPDEST DUP3 DUP5 MSTORE PUSH1 0x20 SWAP3 PUSH1 0x24 DUP5 DUP7 ADD SWAP2 PUSH1 0x5 SHL DUP4 ADD ADD SWAP2 CALLDATASIZE DUP4 GT PUSH2 0xC4C JUMPI PUSH1 0x24 ADD SWAP1 JUMPDEST DUP3 DUP3 LT PUSH2 0xC2D JUMPI POP POP POP PUSH1 0x24 CALLDATALOAD SWAP1 DUP2 GT PUSH2 0xC29 JUMPI PUSH2 0xB40 SWAP1 CALLDATASIZE SWAP1 DUP6 ADD PUSH2 0x1104 JUMP JUMPDEST SWAP3 DUP3 MLOAD DUP5 MLOAD SUB PUSH2 0xBD6 JUMPI POP DUP2 MLOAD SWAP5 PUSH2 0xB57 DUP7 PUSH2 0x10EC JUMP JUMPDEST SWAP6 PUSH2 0xB64 DUP7 MLOAD SWAP8 DUP9 PUSH2 0x10B4 JUMP JUMPDEST DUP1 DUP8 MSTORE PUSH2 0xB73 PUSH1 0x1F NOT SWAP2 PUSH2 0x10EC JUMP JUMPDEST ADD CALLDATASIZE DUP4 DUP9 ADD CALLDATACOPY JUMPDEST DUP3 MLOAD DUP2 LT ISZERO PUSH2 0xBC4 JUMPI PUSH2 0xBBF SWAP1 PUSH2 0xBAF PUSH1 0x1 PUSH1 0x1 PUSH1 0xA0 SHL SUB PUSH2 0xB9C DUP4 DUP8 PUSH2 0x12EF JUMP JUMPDEST MLOAD AND PUSH2 0xBA8 DUP4 DUP9 PUSH2 0x12EF JUMP JUMPDEST MLOAD SWAP1 PUSH2 0x1245 JUMP JUMPDEST PUSH2 0xBB9 DUP3 DUP10 PUSH2 0x12EF JUMP JUMPDEST MSTORE PUSH2 0x12CA JUMP JUMPDEST PUSH2 0xB7A JUMP JUMPDEST DUP5 MLOAD DUP3 DUP2 MSTORE DUP1 PUSH2 0xA2E DUP2 DUP6 ADD DUP10 PUSH2 0x11B9 JUMP JUMPDEST PUSH1 0x84 SWAP2 DUP6 MLOAD SWAP2 PUSH3 0x461BCD PUSH1 0xE5 SHL DUP4 MSTORE DUP3 ADD MSTORE PUSH1 0x29 PUSH1 0x24 DUP3 ADD MSTORE PUSH32 0x455243313135353A206163636F756E747320616E6420696473206C656E677468 PUSH1 0x44 DUP3 ADD MSTORE PUSH9 0x40DAD2E6DAC2E8C6D PUSH1 0xBB SHL PUSH1 0x64 DUP3 ADD MSTORE REVERT JUMPDEST DUP6 DUP1 REVERT JUMPDEST DUP2 CALLDATALOAD PUSH1 0x1 PUSH1 0x1 PUSH1 0xA0 SHL SUB DUP2 AND DUP2 SUB PUSH2 0x81E JUMPI DUP2 MSTORE SWAP1 DUP5 ADD SWAP1 DUP5 ADD PUSH2 0xB1F JUMP JUMPDEST DUP9 DUP1 REVERT JUMPDEST POP POP CALLVALUE PUSH2 0x42B JUMPI DUP2 PUSH1 0x3 NOT CALLDATASIZE ADD SLT PUSH2 0x42B JUMPI PUSH1 0x8 SLOAD SWAP1 MLOAD PUSH1 0x1 PUSH1 0x1 PUSH1 0xA0 SHL SUB SWAP1 SWAP2 AND DUP2 MSTORE PUSH1 0x20 SWAP1 RETURN JUMPDEST POP CALLVALUE PUSH2 0x18F JUMPI PUSH1 0x3 NOT SWAP2 PUSH1 0xA0 CALLDATASIZE DUP5 ADD SLT PUSH2 0xF66 JUMPI PUSH2 0xC95 PUSH2 0x103B JUMP JUMPDEST SWAP3 PUSH2 0xC9E PUSH2 0x1056 JUMP JUMPDEST SWAP4 PUSH8 0xFFFFFFFFFFFFFFFF SWAP4 PUSH1 0x44 CALLDATALOAD DUP6 DUP2 GT PUSH2 0x822 JUMPI PUSH2 0xCC0 SWAP1 CALLDATASIZE SWAP1 DUP4 ADD PUSH2 0x1104 JUMP JUMPDEST SWAP1 PUSH1 0x64 CALLDATALOAD DUP7 DUP2 GT PUSH2 0xC4C JUMPI PUSH2 0xCD8 SWAP1 CALLDATASIZE SWAP1 DUP4 ADD PUSH2 0x1104 JUMP JUMPDEST SWAP6 PUSH1 0x84 CALLDATALOAD SWAP1 DUP2 GT PUSH2 0xC4C JUMPI PUSH2 0xCF0 SWAP1 CALLDATASIZE SWAP1 DUP4 ADD PUSH2 0x1162 JUMP JUMPDEST SWAP4 PUSH1 0x1 PUSH1 0x1 PUSH1 0xA0 SHL SUB DUP5 DUP2 AND SWAP5 PUSH2 0xD11 SWAP1 CALLER DUP8 EQ SWAP1 DUP2 ISZERO PUSH2 0x3DE JUMPI POP PUSH2 0x1319 JUMP JUMPDEST DUP4 MLOAD DUP9 MLOAD SUB PUSH2 0xF12 JUMPI DUP9 AND SWAP5 PUSH2 0xD28 DUP7 ISZERO ISZERO PUSH2 0x137D JUMP JUMPDEST DUP10 JUMPDEST DUP11 DUP6 MLOAD DUP3 LT ISZERO PUSH2 0xDAE JUMPI SWAP1 DUP10 PUSH2 0xDA2 DUP11 PUSH2 0xDA9 SWAP5 PUSH2 0xD53 DUP6 PUSH2 0xD4C DUP2 DUP14 PUSH2 0x12EF JUMP JUMPDEST MLOAD SWAP6 PUSH2 0x12EF JUMP JUMPDEST MLOAD SWAP4 DUP1 DUP3 MSTORE PUSH1 0x20 SWAP1 DUP3 DUP3 MSTORE DUP4 DUP4 KECCAK256 DUP14 DUP5 MSTORE DUP3 MSTORE DUP6 DUP14 DUP6 DUP6 KECCAK256 SLOAD SWAP1 PUSH2 0xD79 DUP4 DUP4 LT ISZERO PUSH2 0x13D7 JUMP JUMPDEST DUP4 DUP7 MSTORE DUP6 DUP6 MSTORE DUP7 DUP7 KECCAK256 SWAP1 DUP7 MSTORE DUP5 MSTORE SUB DUP5 DUP5 KECCAK256 SSTORE DUP3 MSTORE DUP2 DUP2 MSTORE DUP3 DUP3 KECCAK256 SWAP1 DUP14 DUP4 MSTORE MSTORE KECCAK256 SWAP2 DUP3 SLOAD PUSH2 0x1436 JUMP JUMPDEST SWAP1 SSTORE PUSH2 0x12CA JUMP JUMPDEST PUSH2 0xD2A JUMP JUMPDEST POP POP SWAP1 SWAP5 SWAP4 SWAP6 SWAP7 SWAP3 SWAP2 SWAP8 DUP5 DUP8 DUP10 MLOAD DUP11 DUP2 MSTORE PUSH32 0x4A39DC06D4C0DBC64B70AF90FD698A233A518AA5D07E595D983B8C0526C8F7FB PUSH2 0xDEC DUP13 DUP4 ADD DUP9 PUSH2 0x11B9 JUMP JUMPDEST SWAP2 DUP1 DUP4 SUB PUSH1 0x20 DUP3 ADD MSTORE DUP1 PUSH2 0xE01 CALLER SWAP5 DUP12 PUSH2 0x11B9 JUMP JUMPDEST SUB SWAP1 LOG4 EXTCODESIZE PUSH2 0xE0D JUMPI DUP9 DUP1 RETURN JUMPDEST DUP7 MLOAD SWAP5 DUP6 SWAP4 DUP5 SWAP4 PUSH4 0xBC197C81 PUSH1 0xE0 SHL SWAP9 DUP10 DUP7 MSTORE CALLER DUP13 DUP8 ADD MSTORE PUSH1 0x24 DUP7 ADD MSTORE PUSH1 0x44 DUP6 ADD PUSH1 0xA0 SWAP1 MSTORE PUSH1 0xA4 DUP6 ADD PUSH2 0xE3F SWAP2 PUSH2 0x11B9 JUMP JUMPDEST DUP3 DUP6 DUP3 SUB ADD PUSH1 0x64 DUP7 ADD MSTORE PUSH2 0xE52 SWAP2 PUSH2 0x11B9 JUMP JUMPDEST SWAP1 DUP4 DUP3 SUB ADD PUSH1 0x84 DUP5 ADD MSTORE PUSH2 0xE65 SWAP2 PUSH2 0x108F JUMP JUMPDEST SUB DUP2 DUP9 GAS SWAP5 PUSH1 0x20 SWAP6 CALL DUP6 SWAP2 DUP2 PUSH2 0xEF2 JUMPI JUMPDEST POP PUSH2 0xEDC JUMPI POP POP PUSH1 0x1 PUSH2 0xE87 PUSH2 0x14AC JUMP JUMPDEST PUSH4 0x8C379A0 EQ PUSH2 0xEA5 JUMPI JUMPDEST PUSH2 0x32E JUMPI POP POP JUMPDEST CODESIZE DUP1 DUP1 DUP1 DUP1 DUP1 DUP1 DUP1 DUP9 DUP1 RETURN JUMPDEST PUSH2 0xEAD PUSH2 0x14CA JUMP JUMPDEST DUP1 PUSH2 0xEB8 JUMPI POP PUSH2 0xE92 JUMP JUMPDEST SWAP1 POP PUSH2 0x347 SWAP2 PUSH1 0x20 SWAP5 POP MLOAD SWAP4 DUP5 SWAP4 PUSH3 0x461BCD PUSH1 0xE5 SHL DUP6 MSTORE DUP5 ADD MSTORE PUSH1 0x24 DUP4 ADD SWAP1 PUSH2 0x108F JUMP JUMPDEST PUSH1 0x1 PUSH1 0x1 PUSH1 0xE0 SHL SUB NOT AND SUB PUSH2 0x396 JUMPI POP POP PUSH2 0xE99 JUMP JUMPDEST PUSH2 0xF0B SWAP2 SWAP3 POP PUSH1 0x20 RETURNDATASIZE DUP2 GT PUSH2 0x3D7 JUMPI PUSH2 0x3C8 DUP2 DUP4 PUSH2 0x10B4 JUMP JUMPDEST SWAP1 CODESIZE PUSH2 0xE76 JUMP JUMPDEST DUP7 MLOAD PUSH3 0x461BCD PUSH1 0xE5 SHL DUP2 MSTORE PUSH1 0x20 DUP2 DUP6 ADD MSTORE PUSH1 0x28 PUSH1 0x24 DUP3 ADD MSTORE PUSH32 0x455243313135353A2069647320616E6420616D6F756E7473206C656E67746820 PUSH1 0x44 DUP3 ADD MSTORE PUSH8 0xDAD2E6DAC2E8C6D PUSH1 0xC3 SHL PUSH1 0x64 DUP3 ADD MSTORE PUSH1 0x84 SWAP1 REVERT JUMPDEST DUP4 DUP1 REVERT JUMPDEST POP SWAP2 CALLVALUE PUSH2 0x9CB JUMPI PUSH1 0x20 CALLDATASIZE PUSH1 0x3 NOT ADD SLT PUSH2 0x9CB JUMPI POP PUSH2 0xF8B PUSH2 0xA2E SWAP3 CALLDATALOAD PUSH2 0x1790 JUMP JUMPDEST SWAP1 MLOAD SWAP2 DUP3 SWAP2 PUSH1 0x20 DUP4 MSTORE PUSH1 0x20 DUP4 ADD SWAP1 PUSH2 0x108F JUMP JUMPDEST POP CALLVALUE PUSH2 0x18F JUMPI PUSH1 0x20 CALLDATASIZE PUSH1 0x3 NOT ADD SLT PUSH2 0x18F JUMPI CALLDATALOAD SWAP1 PUSH4 0xFFFFFFFF PUSH1 0xE0 SHL DUP3 AND DUP1 SWAP3 SUB PUSH2 0x18F JUMPI PUSH1 0x20 SWAP3 POP PUSH4 0x6CDB3D13 PUSH1 0xE1 SHL DUP3 EQ SWAP2 DUP3 ISZERO PUSH2 0xFFA JUMPI JUMPDEST DUP3 ISZERO PUSH2 0xFE9 JUMPI JUMPDEST POP MLOAD SWAP1 ISZERO ISZERO DUP2 MSTORE RETURN JUMPDEST PUSH4 0x1FFC9A7 PUSH1 0xE0 SHL EQ SWAP2 POP CODESIZE PUSH2 0xFE0 JUMP JUMPDEST PUSH4 0x3A24D07 PUSH1 0xE2 SHL DUP2 EQ SWAP3 POP PUSH2 0xFD9 JUMP JUMPDEST POP POP CALLVALUE PUSH2 0x42B JUMPI DUP1 PUSH1 0x3 NOT CALLDATASIZE ADD SLT PUSH2 0x42B JUMPI PUSH1 0x20 SWAP1 PUSH2 0x1034 PUSH2 0x102B PUSH2 0x103B JUMP JUMPDEST PUSH1 0x24 CALLDATALOAD SWAP1 PUSH2 0x1245 JUMP JUMPDEST SWAP1 MLOAD SWAP1 DUP2 MSTORE RETURN JUMPDEST PUSH1 0x4 CALLDATALOAD SWAP1 PUSH1 0x1 PUSH1 0x1 PUSH1 0xA0 SHL SUB DUP3 AND DUP3 SUB PUSH2 0x1051 JUMPI JUMP JUMPDEST PUSH1 0x0 DUP1 REVERT JUMPDEST PUSH1 0x24 CALLDATALOAD SWAP1 PUSH1 0x1 PUSH1 0x1 PUSH1 0xA0 SHL SUB DUP3 AND DUP3 SUB PUSH2 0x1051 JUMPI JUMP JUMPDEST PUSH1 0x0 JUMPDEST DUP4 DUP2 LT PUSH2 0x107F JUMPI POP POP PUSH1 0x0 SWAP2 ADD MSTORE JUMP JUMPDEST DUP2 DUP2 ADD MLOAD DUP4 DUP3 ADD MSTORE PUSH1 0x20 ADD PUSH2 0x106F JUMP JUMPDEST SWAP1 PUSH1 0x20 SWAP2 PUSH2 0x10A8 DUP2 MLOAD DUP1 SWAP3 DUP2 DUP6 MSTORE DUP6 DUP1 DUP7 ADD SWAP2 ADD PUSH2 0x106C JUMP JUMPDEST PUSH1 0x1F ADD PUSH1 0x1F NOT AND ADD ADD SWAP1 JUMP JUMPDEST SWAP1 PUSH1 0x1F DUP1 NOT SWAP2 ADD AND DUP2 ADD SWAP1 DUP2 LT PUSH8 0xFFFFFFFFFFFFFFFF DUP3 GT OR PUSH2 0x10D6 JUMPI PUSH1 0x40 MSTORE JUMP JUMPDEST PUSH4 0x4E487B71 PUSH1 0xE0 SHL PUSH1 0x0 MSTORE PUSH1 0x41 PUSH1 0x4 MSTORE PUSH1 0x24 PUSH1 0x0 REVERT JUMPDEST PUSH8 0xFFFFFFFFFFFFFFFF DUP2 GT PUSH2 0x10D6 JUMPI PUSH1 0x5 SHL PUSH1 0x20 ADD SWAP1 JUMP JUMPDEST DUP2 PUSH1 0x1F DUP3 ADD SLT ISZERO PUSH2 0x1051 JUMPI DUP1 CALLDATALOAD SWAP2 PUSH2 0x111B DUP4 PUSH2 0x10EC JUMP JUMPDEST SWAP3 PUSH2 0x1129 PUSH1 0x40 MLOAD SWAP5 DUP6 PUSH2 0x10B4 JUMP JUMPDEST DUP1 DUP5 MSTORE PUSH1 0x20 SWAP3 DUP4 DUP1 DUP7 ADD SWAP3 PUSH1 0x5 SHL DUP3 ADD ADD SWAP3 DUP4 GT PUSH2 0x1051 JUMPI DUP4 ADD SWAP1 JUMPDEST DUP3 DUP3 LT PUSH2 0x1153 JUMPI POP POP POP POP SWAP1 JUMP JUMPDEST DUP2 CALLDATALOAD DUP2 MSTORE SWAP1 DUP4 ADD SWAP1 DUP4 ADD PUSH2 0x1145 JUMP JUMPDEST DUP2 PUSH1 0x1F DUP3 ADD SLT ISZERO PUSH2 0x1051 JUMPI DUP1 CALLDATALOAD SWAP1 PUSH8 0xFFFFFFFFFFFFFFFF DUP3 GT PUSH2 0x10D6 JUMPI PUSH1 0x40 MLOAD SWAP3 PUSH2 0x1197 PUSH1 0x1F DUP5 ADD PUSH1 0x1F NOT AND PUSH1 0x20 ADD DUP6 PUSH2 0x10B4 JUMP JUMPDEST DUP3 DUP5 MSTORE PUSH1 0x20 DUP4 DUP4 ADD ADD GT PUSH2 0x1051 JUMPI DUP2 PUSH1 0x0 SWAP3 PUSH1 0x20 DUP1 SWAP4 ADD DUP4 DUP7 ADD CALLDATACOPY DUP4 ADD ADD MSTORE SWAP1 JUMP JUMPDEST SWAP1 DUP2 MLOAD DUP1 DUP3 MSTORE PUSH1 0x20 DUP1 DUP1 SWAP4 ADD SWAP4 ADD SWAP2 PUSH1 0x0 JUMPDEST DUP3 DUP2 LT PUSH2 0x11D9 JUMPI POP POP POP POP SWAP1 JUMP JUMPDEST DUP4 MLOAD DUP6 MSTORE SWAP4 DUP2 ADD SWAP4 SWAP3 DUP2 ADD SWAP3 PUSH1 0x1 ADD PUSH2 0x11CB JUMP JUMPDEST PUSH1 0x5 SLOAD PUSH1 0x1 PUSH1 0x1 PUSH1 0xA0 SHL SUB AND CALLER SUB PUSH2 0x1201 JUMPI JUMP JUMPDEST PUSH1 0x64 PUSH1 0x40 MLOAD PUSH3 0x461BCD PUSH1 0xE5 SHL DUP2 MSTORE PUSH1 0x20 PUSH1 0x4 DUP3 ADD MSTORE PUSH1 0x20 PUSH1 0x24 DUP3 ADD MSTORE PUSH32 0x4F776E61626C653A2063616C6C6572206973206E6F7420746865206F776E6572 PUSH1 0x44 DUP3 ADD MSTORE REVERT JUMPDEST PUSH1 0x1 PUSH1 0x1 PUSH1 0xA0 SHL SUB AND SWAP1 DUP2 ISZERO PUSH2 0x1272 JUMPI PUSH1 0x0 MSTORE PUSH1 0x0 PUSH1 0x20 MSTORE PUSH1 0x40 PUSH1 0x0 KECCAK256 SWAP1 PUSH1 0x0 MSTORE PUSH1 0x20 MSTORE PUSH1 0x40 PUSH1 0x0 KECCAK256 SLOAD SWAP1 JUMP JUMPDEST PUSH1 0x40 MLOAD PUSH3 0x461BCD PUSH1 0xE5 SHL DUP2 MSTORE PUSH1 0x20 PUSH1 0x4 DUP3 ADD MSTORE PUSH1 0x2A PUSH1 0x24 DUP3 ADD MSTORE PUSH32 0x455243313135353A2061646472657373207A65726F206973206E6F7420612076 PUSH1 0x44 DUP3 ADD MSTORE PUSH10 0x30B634B21037BBB732B9 PUSH1 0xB1 SHL PUSH1 0x64 DUP3 ADD MSTORE PUSH1 0x84 SWAP1 REVERT JUMPDEST PUSH1 0x0 NOT DUP2 EQ PUSH2 0x12D9 JUMPI PUSH1 0x1 ADD SWAP1 JUMP JUMPDEST PUSH4 0x4E487B71 PUSH1 0xE0 SHL PUSH1 0x0 MSTORE PUSH1 0x11 PUSH1 0x4 MSTORE PUSH1 0x24 PUSH1 0x0 REVERT JUMPDEST DUP1 MLOAD DUP3 LT ISZERO PUSH2 0x1303 JUMPI PUSH1 0x20 SWAP2 PUSH1 0x5 SHL ADD ADD SWAP1 JUMP JUMPDEST PUSH4 0x4E487B71 PUSH1 0xE0 SHL PUSH1 0x0 MSTORE PUSH1 0x32 PUSH1 0x4 MSTORE PUSH1 0x24 PUSH1 0x0 REVERT JUMPDEST ISZERO PUSH2 0x1320 JUMPI JUMP JUMPDEST PUSH1 0x40 MLOAD PUSH3 0x461BCD PUSH1 0xE5 SHL DUP2 MSTORE PUSH1 0x20 PUSH1 0x4 DUP3 ADD MSTORE PUSH1 0x2F PUSH1 0x24 DUP3 ADD MSTORE PUSH32 0x455243313135353A2063616C6C6572206973206E6F7420746F6B656E206F776E PUSH1 0x44 DUP3 ADD MSTORE PUSH15 0x195C881B9BDC88185C1C1C9BDD9959 PUSH1 0x8A SHL PUSH1 0x64 DUP3 ADD MSTORE PUSH1 0x84 SWAP1 REVERT JUMPDEST ISZERO PUSH2 0x1384 JUMPI JUMP JUMPDEST PUSH1 0x40 MLOAD PUSH3 0x461BCD PUSH1 0xE5 SHL DUP2 MSTORE PUSH1 0x20 PUSH1 0x4 DUP3 ADD MSTORE PUSH1 0x25 PUSH1 0x24 DUP3 ADD MSTORE PUSH32 0x455243313135353A207472616E7366657220746F20746865207A65726F206164 PUSH1 0x44 DUP3 ADD MSTORE PUSH5 0x6472657373 PUSH1 0xD8 SHL PUSH1 0x64 DUP3 ADD MSTORE PUSH1 0x84 SWAP1 REVERT JUMPDEST ISZERO PUSH2 0x13DE JUMPI JUMP JUMPDEST PUSH1 0x40 MLOAD PUSH3 0x461BCD PUSH1 0xE5 SHL DUP2 MSTORE PUSH1 0x20 PUSH1 0x4 DUP3 ADD MSTORE PUSH1 0x2A PUSH1 0x24 DUP3 ADD MSTORE PUSH32 0x455243313135353A20696E73756666696369656E742062616C616E636520666F PUSH1 0x44 DUP3 ADD MSTORE PUSH10 0x39103A3930B739B332B9 PUSH1 0xB1 SHL PUSH1 0x64 DUP3 ADD MSTORE PUSH1 0x84 SWAP1 REVERT JUMPDEST SWAP2 SWAP1 DUP3 ADD DUP1 SWAP3 GT PUSH2 0x12D9 JUMPI JUMP JUMPDEST SWAP1 DUP2 PUSH1 0x20 SWAP2 SUB SLT PUSH2 0x1051 JUMPI MLOAD PUSH1 0x1 PUSH1 0x1 PUSH1 0xE0 SHL SUB NOT DUP2 AND DUP2 SUB PUSH2 0x1051 JUMPI SWAP1 JUMP JUMPDEST PUSH1 0x80 SWAP1 PUSH1 0x20 DUP2 MSTORE PUSH1 0x28 PUSH1 0x20 DUP3 ADD MSTORE PUSH32 0x455243313135353A204552433131353552656365697665722072656A65637465 PUSH1 0x40 DUP3 ADD MSTORE PUSH8 0x6420746F6B656E73 PUSH1 0xC0 SHL PUSH1 0x60 DUP3 ADD MSTORE ADD SWAP1 JUMP JUMPDEST PUSH1 0x0 SWAP1 PUSH1 0x3 RETURNDATASIZE GT PUSH2 0x14B9 JUMPI JUMP JUMPDEST SWAP1 POP PUSH1 0x4 PUSH1 0x0 DUP1 RETURNDATACOPY PUSH1 0x0 MLOAD PUSH1 0xE0 SHR SWAP1 JUMP JUMPDEST PUSH1 0x0 PUSH1 0x44 RETURNDATASIZE LT PUSH2 0x1528 JUMPI PUSH1 0x40 MLOAD PUSH1 0x3 NOT SWAP2 RETURNDATASIZE DUP4 ADD PUSH1 0x4 DUP4 RETURNDATACOPY DUP2 MLOAD PUSH8 0xFFFFFFFFFFFFFFFF SWAP2 DUP3 DUP3 GT RETURNDATASIZE PUSH1 0x24 DUP5 ADD GT OR PUSH2 0x152B JUMPI DUP2 DUP5 ADD SWAP5 DUP6 MLOAD SWAP4 DUP5 GT PUSH2 0x1533 JUMPI RETURNDATASIZE DUP6 ADD ADD PUSH1 0x20 DUP5 DUP8 ADD ADD GT PUSH2 0x152B JUMPI POP PUSH2 0x1528 SWAP3 SWAP2 ADD PUSH1 0x20 ADD SWAP1 PUSH2 0x10B4 JUMP JUMPDEST SWAP1 JUMP JUMPDEST SWAP5 SWAP4 POP POP POP POP JUMP JUMPDEST POP SWAP5 SWAP4 POP POP POP POP JUMP JUMPDEST PUSH1 0x80 SWAP1 PUSH1 0x20 DUP2 MSTORE PUSH1 0x34 PUSH1 0x20 DUP3 ADD MSTORE PUSH32 0x455243313135353A207472616E7366657220746F206E6F6E2045524331313535 PUSH1 0x40 DUP3 ADD MSTORE PUSH20 0x2932B1B2B4BB32B91034B6B83632B6B2B73A32B9 PUSH1 0x61 SHL PUSH1 0x60 DUP3 ADD MSTORE ADD SWAP1 JUMP JUMPDEST PUSH1 0x40 MLOAD SWAP1 PUSH1 0x40 DUP3 ADD DUP3 DUP2 LT PUSH8 0xFFFFFFFFFFFFFFFF DUP3 GT OR PUSH2 0x10D6 JUMPI PUSH1 0x40 MSTORE PUSH1 0x1 DUP3 MSTORE PUSH1 0x20 DUP3 ADD PUSH1 0x20 CALLDATASIZE DUP3 CALLDATACOPY DUP3 MLOAD ISZERO PUSH2 0x1303 JUMPI MSTORE SWAP1 JUMP JUMPDEST SWAP1 PUSH1 0x1 DUP3 DUP2 SHR SWAP3 AND DUP1 ISZERO PUSH2 0x15F7 JUMPI JUMPDEST PUSH1 0x20 DUP4 LT EQ PUSH2 0x15E1 JUMPI JUMP JUMPDEST PUSH4 0x4E487B71 PUSH1 0xE0 SHL PUSH1 0x0 MSTORE PUSH1 0x22 PUSH1 0x4 MSTORE PUSH1 0x24 PUSH1 0x0 REVERT JUMPDEST SWAP2 PUSH1 0x7F AND SWAP2 PUSH2 0x15D6 JUMP JUMPDEST SWAP1 PUSH1 0x0 DUP3 DUP2 MSTORE PUSH1 0x20 SWAP1 PUSH1 0x4 DUP3 MSTORE PUSH1 0x40 DUP2 KECCAK256 SWAP1 DUP4 MLOAD SWAP1 PUSH8 0xFFFFFFFFFFFFFFFF DUP3 GT PUSH2 0x177C JUMPI PUSH2 0x162F DUP4 SLOAD PUSH2 0x15C7 JUMP JUMPDEST PUSH1 0x1F DUP2 GT PUSH2 0x1739 JUMPI JUMPDEST POP DUP4 SWAP1 PUSH1 0x1F DUP4 GT PUSH1 0x1 EQ PUSH2 0x16B2 JUMPI SWAP1 PUSH32 0x6BB7FF708619BA0610CBA295A58592E0451DEE2622938C8755667688DAF3529B SWAP6 DUP4 PUSH2 0x16A7 JUMPI JUMPDEST POP POP DUP2 PUSH1 0x1 SHL SWAP2 PUSH1 0x0 NOT SWAP1 PUSH1 0x3 SHL SHR NOT AND OR SWAP1 SSTORE JUMPDEST PUSH2 0x168D DUP4 PUSH2 0x1790 JUMP JUMPDEST SWAP1 PUSH2 0x16A2 PUSH1 0x40 MLOAD SWAP3 DUP3 DUP5 SWAP4 DUP5 MSTORE DUP4 ADD SWAP1 PUSH2 0x108F JUMP JUMPDEST SUB SWAP1 LOG2 JUMP JUMPDEST ADD MLOAD SWAP1 POP CODESIZE DUP1 PUSH2 0x166F JUMP JUMPDEST SWAP2 SWAP3 SWAP4 SWAP5 PUSH1 0x1F NOT DUP5 AND DUP6 DUP5 MSTORE DUP7 DUP5 KECCAK256 SWAP4 JUMPDEST DUP2 DUP2 LT PUSH2 0x1722 JUMPI POP SWAP2 PUSH1 0x1 SWAP4 SWAP2 DUP6 PUSH32 0x6BB7FF708619BA0610CBA295A58592E0451DEE2622938C8755667688DAF3529B SWAP9 SWAP8 SWAP7 SWAP5 LT PUSH2 0x1709 JUMPI JUMPDEST POP POP POP DUP2 SHL ADD SWAP1 SSTORE PUSH2 0x1684 JUMP JUMPDEST ADD MLOAD PUSH1 0x0 NOT PUSH1 0xF8 DUP5 PUSH1 0x3 SHL AND SHR NOT AND SWAP1 SSTORE CODESIZE DUP1 DUP1 PUSH2 0x16FC JUMP JUMPDEST SWAP3 SWAP4 DUP8 PUSH1 0x1 DUP2 SWAP3 DUP8 DUP7 ADD MLOAD DUP2 SSTORE ADD SWAP6 ADD SWAP4 ADD PUSH2 0x16C3 JUMP JUMPDEST DUP4 DUP3 MSTORE DUP5 DUP3 KECCAK256 PUSH1 0x1F DUP5 ADD PUSH1 0x5 SHR DUP2 ADD SWAP2 DUP7 DUP6 LT PUSH2 0x1772 JUMPI JUMPDEST PUSH1 0x1F ADD PUSH1 0x5 SHR ADD SWAP1 JUMPDEST DUP2 DUP2 LT PUSH2 0x1767 JUMPI POP PUSH2 0x1638 JUMP JUMPDEST DUP3 DUP2 SSTORE PUSH1 0x1 ADD PUSH2 0x175A JUMP JUMPDEST SWAP1 SWAP2 POP DUP2 SWAP1 PUSH2 0x1751 JUMP JUMPDEST PUSH4 0x4E487B71 PUSH1 0xE0 SHL DUP2 MSTORE PUSH1 0x41 PUSH1 0x4 MSTORE PUSH1 0x24 SWAP1 REVERT JUMPDEST PUSH1 0x0 SWAP1 DUP2 MSTORE PUSH1 0x20 SWAP1 PUSH1 0x4 DUP3 MSTORE PUSH1 0x40 DUP2 KECCAK256 SWAP1 PUSH1 0x40 MLOAD SWAP1 DUP1 SWAP2 DUP4 SLOAD SWAP3 DUP2 PUSH2 0x17B4 DUP6 PUSH2 0x15C7 JUMP JUMPDEST SWAP2 DUP3 DUP3 MSTORE DUP8 DUP3 ADD SWAP7 PUSH1 0x1 SWAP7 DUP10 DUP9 DUP3 AND SWAP2 DUP3 PUSH1 0x0 EQ PUSH2 0x19B1 JUMPI POP POP PUSH1 0x1 EQ PUSH2 0x1973 JUMPI JUMPDEST POP PUSH2 0x17E3 SWAP3 POP SUB DUP3 PUSH2 0x10B4 JUMP JUMPDEST DUP1 MLOAD ISZERO PUSH2 0x18B8 JUMPI PUSH1 0x40 MLOAD SWAP5 DUP6 SWAP4 DUP4 PUSH1 0x3 SLOAD SWAP2 PUSH2 0x17FE DUP4 PUSH2 0x15C7 JUMP JUMPDEST SWAP3 DUP2 DUP2 AND SWAP1 DUP2 ISZERO PUSH2 0x1897 JUMPI POP PUSH1 0x1 EQ PUSH2 0x1837 JUMPI JUMPDEST POP POP POP POP PUSH2 0x1828 PUSH2 0x1528 SWAP5 DUP4 SWAP3 MLOAD SWAP4 DUP5 SWAP2 PUSH2 0x106C JUMP JUMPDEST ADD SUB PUSH1 0x1F NOT DUP2 ADD DUP4 MSTORE DUP3 PUSH2 0x10B4 JUMP JUMPDEST SWAP1 SWAP2 SWAP3 SWAP7 SWAP5 POP PUSH1 0x3 DUP3 MSTORE PUSH32 0xC2575A0E9E593C00F959F8C92F12DB2869C3395A3B0502D05E2516446F71F85B JUMPDEST DUP4 DUP4 LT PUSH2 0x1881 JUMPI POP POP POP PUSH2 0x1528 SWAP5 PUSH2 0x1828 SWAP2 DUP6 ADD ADD SWAP3 SWAP5 CODESIZE DUP1 PUSH2 0x1812 JUMP JUMPDEST DUP1 SLOAD DUP10 DUP5 ADD DUP10 ADD MSTORE DUP9 SWAP7 POP SWAP2 DUP8 ADD SWAP2 DUP2 ADD PUSH2 0x1863 JUMP JUMPDEST PUSH1 0xFF NOT AND DUP9 DUP7 ADD MSTORE POP POP POP DUP1 ISZERO ISZERO MUL DUP5 ADD ADD SWAP2 POP PUSH2 0x1828 PUSH2 0x1528 CODESIZE DUP1 PUSH2 0x1812 JUMP JUMPDEST POP PUSH1 0x40 MLOAD PUSH1 0x2 SLOAD SWAP1 SWAP5 SWAP4 POP DUP5 SWAP3 DUP3 PUSH2 0x18CF DUP4 PUSH2 0x15C7 JUMP JUMPDEST DUP1 DUP7 MSTORE SWAP3 DUP3 DUP2 AND SWAP1 DUP2 ISZERO PUSH2 0x1951 JUMPI POP PUSH1 0x1 EQ PUSH2 0x18F5 JUMPI JUMPDEST POP POP POP PUSH2 0x1528 SWAP3 POP SUB DUP3 PUSH2 0x10B4 JUMP JUMPDEST PUSH1 0x2 DUP2 MSTORE PUSH32 0x405787FA12A823E0F2B7631CC41B3BA8828B3321CA811111FA75CD3AA3BB5ACE SWAP6 SWAP4 POP SWAP2 SWAP1 JUMPDEST DUP2 DUP4 LT PUSH2 0x1939 JUMPI POP POP PUSH2 0x1528 SWAP4 POP DUP3 ADD ADD CODESIZE DUP1 DUP1 PUSH2 0x18E6 JUMP JUMPDEST DUP6 SLOAD DUP8 DUP5 ADD DUP6 ADD MSTORE SWAP5 DUP6 ADD SWAP5 DUP7 SWAP5 POP SWAP2 DUP4 ADD SWAP2 PUSH2 0x1920 JUMP JUMPDEST SWAP3 POP POP POP PUSH2 0x1528 SWAP5 SWAP3 POP PUSH1 0xFF NOT AND DUP3 DUP5 ADD MSTORE ISZERO ISZERO PUSH1 0x5 SHL DUP3 ADD ADD CODESIZE DUP1 DUP1 PUSH2 0x18E6 JUMP JUMPDEST SWAP2 POP POP DUP4 MSTORE DUP2 DUP7 DUP1 DUP6 KECCAK256 DUP7 DUP7 SWAP2 JUMPDEST DUP6 DUP4 LT PUSH2 0x1998 JUMPI POP POP PUSH2 0x17E3 SWAP4 POP DUP3 ADD ADD CODESIZE PUSH2 0x17D6 JUMP JUMPDEST DUP1 SWAP2 SWAP3 SWAP5 POP SLOAD DUP4 DUP6 DUP9 ADD ADD MSTORE ADD SWAP2 ADD DUP8 SWAP1 DUP7 DUP6 SWAP4 PUSH2 0x1981 JUMP JUMPDEST PUSH1 0xFF NOT AND DUP11 MSTORE PUSH2 0x17E3 SWAP6 ISZERO ISZERO PUSH1 0x5 SHL DUP6 ADD ADD SWAP3 POP CODESIZE SWAP2 POP PUSH2 0x17D6 SWAP1 POP JUMP JUMPDEST PUSH1 0x8 SLOAD PUSH1 0x1 PUSH1 0x1 PUSH1 0xA0 SHL SUB SWAP3 DUP4 AND SWAP3 SWAP2 SWAP1 DUP3 AND DUP4 SUB PUSH2 0x19F0 JUMPI POP POP POP PUSH1 0x1 SWAP1 JUMP JUMPDEST AND PUSH1 0x0 MSTORE PUSH1 0x1 PUSH1 0x20 MSTORE PUSH1 0x40 PUSH1 0x0 KECCAK256 SWAP1 PUSH1 0x0 MSTORE PUSH1 0x20 MSTORE PUSH1 0xFF PUSH1 0x40 PUSH1 0x0 KECCAK256 SLOAD AND SWAP1 JUMP INVALID LOG2 PUSH5 0x6970667358 0x22 SLT KECCAK256 0x26 GASPRICE 0x21 DUP14 0x5C 0xDA SWAP6 PUSH8 0xE3945D07966D6311 0xB0 SSTORE 0xE CHAINID JUMP PUSH21 0x2758AE6D126547C4F65064736F6C63430008110033 "},"methodIdentifiers":{"balanceOf(address,uint256)":"00fdd58e","balanceOfBatch(address[],uint256[])":"4e1273f4","getRobot()":"3f8a4d67","isApprovedForAll(address,address)":"e985e9c5","mint(address,uint256,string,string,uint256)":"af72bd91","owner()":"8da5cb5b","renounceOwnership()":"715018a6","safeBatchTransferFrom(address,address,uint256[],uint256[],bytes)":"2eb2c2d6","safeTransferFrom(address,address,uint256,uint256,bytes)":"f242432a","setApprovalForAll(address,bool)":"a22cb465","setURI(uint256,string)":"862440e2","supportsInterface(bytes4)":"01ffc9a7","transferOwnership(address)":"f2fde38b","uri(uint256)":"0e89341c","version()":"54fd4d50"}}}}}