{"contracts/Robot.sol":{"Robot":{"abi":[{"inputs":[{"internalType":"string","name":"_versoion","type":"string"},{"internalType":"string","name":"_salt","type":"string"}],"stateMutability":"nonpayable","type":"constructor"},{"anonymous":false,"inputs":[{"indexed":true,"internalType":"address","name":"contractAddress","type":"address"},{"indexed":true,"internalType":"uint256","name":"cType","type":"uint256"},{"indexed":true,"internalType":"uint256","name":"tokenId","type":"uint256"},{"indexed":false,"internalType":"address","name":"from","type":"address"},{"indexed":false,"internalType":"address","name":"to","type":"address"},{"indexed":false,"internalType":"uint256","name":"amount","type":"uint256"},{"indexed":false,"internalType":"uint256","name":"price","type":"uint256"}],"name":"Buy","type":"event"},{"anonymous":false,"inputs":[{"indexed":true,"internalType":"address","name":"c","type":"address"},{"indexed":true,"internalType":"uint256","name":"tokenId","type":"uint256"}],"name":"CancelSell721","type":"event"},{"anonymous":false,"inputs":[{"indexed":true,"internalType":"uint256","name":"tokenId","type":"uint256"},{"indexed":true,"internalType":"uint256","name":"amount","type":"uint256"},{"indexed":true,"internalType":"address","name":"owner","type":"address"}],"name":"Mint1155","type":"event"},{"anonymous":false,"inputs":[{"indexed":true,"internalType":"address","name":"c","type":"address"},{"indexed":true,"internalType":"uint256","name":"tokenId","type":"uint256"},{"indexed":true,"internalType":"uint256","name":"collectionId","type":"uint256"},{"indexed":false,"internalType":"address","name":"createBy","type":"address"},{"indexed":false,"internalType":"address","name":"to","type":"address"}],"name":"Mint721","type":"event"},{"anonymous":false,"inputs":[{"indexed":true,"internalType":"address","name":"c","type":"address"},{"indexed":true,"internalType":"uint256","name":"tokenId","type":"uint256"},{"indexed":true,"internalType":"uint256","name":"price","type":"uint256"}],"name":"Sell721","type":"event"},{"inputs":[{"internalType":"address[]","name":"addresses","type":"address[]"},{"internalType":"uint256[]","name":"types","type":"uint256[]"},{"internalType":"string[]","name":"orderIds","type":"string[]"},{"internalType":"string[]","name":"orderHashs","type":"string[]"},{"internalType":"address[]","name":"froms","type":"address[]"},{"internalType":"address[]","name":"tos","type":"address[]"},{"internalType":"uint256[]","name":"tokenIds","type":"uint256[]"},{"internalType":"uint256[]","name":"amounts","type":"uint256[]"},{"internalType":"string[]","name":"tokenURIs","type":"string[]"},{"internalType":"string[]","name":"names","type":"string[]"},{"internalType":"uint256[]","name":"values","type":"uint256[]"},{"internalType":"uint256[]","name":"supplys","type":"uint256[]"},{"internalType":"string[]","name":"supplysHash","type":"string[]"}],"name":"batchAll","outputs":[],"stateMutability":"payable","type":"function"},{"inputs":[{"internalType":"address","name":"erc1155","type":"address"},{"internalType":"address[]","name":"tos","type":"address[]"},{"internalType":"uint256[]","name":"tokenIds","type":"uint256[]"},{"internalType":"string[]","name":"names","type":"string[]"},{"internalType":"string[]","name":"tokenURIs","type":"string[]"},{"internalType":"uint256[]","name":"amounts","type":"uint256[]"},{"internalType":"uint256[]","name":"supplys","type":"uint256[]"},{"internalType":"string[]","name":"supplysHash","type":"string[]"}],"name":"batchLockt1155","outputs":[],"stateMutability":"payable","type":"function"},{"inputs":[{"internalType":"address","name":"erc721","type":"address"},{"internalType":"address[]","name":"accounts","type":"address[]"},{"internalType":"string[]","name":"tokenURIs","type":"string[]"},{"internalType":"uint256[]","name":"collectionIds","type":"uint256[]"}],"name":"batchMint721","outputs":[],"stateMutability":"nonpayable","type":"function"},{"inputs":[{"internalType":"address[]","name":"c","type":"address[]"},{"internalType":"uint256[]","name":"tokenIds","type":"uint256[]"},{"internalType":"uint256[]","name":"prices","type":"uint256[]"}],"name":"batchSell","outputs":[],"stateMutability":"nonpayable","type":"function"},{"inputs":[{"internalType":"bytes","name":"buffer","type":"bytes"}],"name":"bytesToHex","outputs":[{"internalType":"string","name":"","type":"string"}],"stateMutability":"pure","type":"function"},{"inputs":[{"internalType":"address","name":"c","type":"address"},{"internalType":"uint256","name":"tokenId","type":"uint256"}],"name":"cancelSell","outputs":[],"stateMutability":"nonpayable","type":"function"},{"inputs":[{"internalType":"address","name":"c","type":"address"},{"internalType":"uint256","name":"tokenId","type":"uint256"},{"internalType":"uint256","name":"price","type":"uint256"}],"name":"sell","outputs":[],"stateMutability":"nonpayable","type":"function"},{"inputs":[],"name":"version","outputs":[{"internalType":"string","name":"","type":"string"}],"stateMutability":"view","type":"function"}],"evm":{"bytecode":{"linkReferences":{},"object":"6080604052346200031957620025d5803803806200001d816200031e565b928339810190604081830312620003195780516001600160401b03908181116200031957836200004f91840162000344565b916020938482015183811162000319576200006b920162000344565b825190828211620003035760008054926001958685811c95168015620002f8575b88861014620002e4578190601f9586811162000291575b5088908683116001146200022d57849262000221575b5050600019600383901b1c191690861b1781555b81519384116200020d5784548581811c9116801562000202575b87821014620001ee57838111620001a6575b50859284116001146200014157839495509262000135575b5050600019600383901b1c191690821b1790555b60405161221e9081620003b78239f35b01519050388062000111565b9190601f1984169585845280842093905b8782106200018e5750508385961062000174575b505050811b01905562000125565b015160001960f88460031b161c1916905538808062000166565b80878596829496860151815501950193019062000152565b8582528682208480870160051c820192898810620001e4575b0160051c019086905b828110620001d8575050620000f9565b838155018690620001c8565b92508192620001bf565b634e487b7160e01b82526022600452602482fd5b90607f1690620000e7565b634e487b7160e01b81526041600452602490fd5b015190503880620000b9565b8480528985208994509190601f198416865b8c8282106200027a575050841162000260575b505050811b018155620000cd565b015160001960f88460031b161c1916905538808062000252565b8385015186558c979095019493840193016200023f565b9091508380528884208680850160051c8201928b8610620002da575b918a91869594930160051c01915b828110620002cb575050620000a3565b8681558594508a9101620002bb565b92508192620002ad565b634e487b7160e01b83526022600452602483fd5b94607f16946200008c565b634e487b7160e01b600052604160045260246000fd5b600080fd5b6040519190601f01601f191682016001600160401b038111838210176200030357604052565b919080601f84011215620003195782516001600160401b03811162000303576020906200037a601f8201601f191683016200031e565b92818452828287010111620003195760005b818110620003a257508260009394955001015290565b85810183015184820184015282016200038c56fe60e0604052600436101561001257600080fd5b60003560e01c80631546f67f146118735780633edbed19146116d8578063451d89fa146116915780634aa099a31461134e57806354fd4d501461126b5780636a272462146111ad578063aa6ecb55146110b15763df36914a1461007457600080fd5b6101a03660031901126108d6576004356001600160401b0381116108d6576100a0903690600401611aea565b6080526024356001600160401b0381116108d6576100c2903690600401611c3c565b6044356001600160401b0381116108d6576100e1903690600401611baa565b906064356001600160401b0381116108d657610101903690600401611baa565b906084356001600160401b0381116108d657610121903690600401611aea565b60c05260a4356001600160401b0381116108d657610143903690600401611aea565b9060c4356001600160401b0381116108d657610163903690600401611c3c565b9060e4356001600160401b0381116108d657610183903690600401611c3c565b60a052610104356001600160401b0381116108d6576101a6903690600401611baa565b946001600160401b0361012435116108d6576101c83661012435600401611baa565b93610144356001600160401b0381116108d6576101e9903690600401611c3c565b946001600160401b0361016435116108d65761020b3661016435600401611c3c565b976001600160401b0361018435116108d65761022d3661018435600401611baa565b9860805151865180911490816110a6575b508061109b575b8061108e575b80611081575b80611076575b80611069575b8061105c575b80611051575b80611046575b61027890611efd565b6000998a5b89518c1015610324578b6001610293828b611f3b565b51146102be575b6102b8916102ab6102b2928d611f3b565b5190611d9a565b9b611d4e565b9a61027d565b6102c8908b611f3b565b516102d38d8b611f3b565b516000526002602052604060002054036102ed578b61029a565b60405162461bcd60e51b815260206004820152600f60248201526e496e636f727265637420707269636560881b6044820152606490fd5b8a9099949699979597340361100b5760005b6080515181101561100957600261034d8289611f3b565b5103610d36576103db610360828d611f3b565b5160206103bd610379610373868c611f3b565b5161206f565b6040519283916103ae82808501976103a06103938a611f4f565b9182815194859201611c9a565b019182815194859201611c9a565b0103601f198101835282611ab2565b519020604051906020820152602081526103d681611a97565b611da7565b604051610405602082816103f88183019687815193849201611c9a565b8101038084520182611ab2565b5190206104128284611f3b565b51604051610430602082816103f88183019687815193849201611c9a565b51902003610cfb576080516001600160a01b039061044f908390611f3b565b5116600061045d838d611f3b565b516024604051809481936303a24d0760e21b835260048301525afa80156108b257600090610c60575b7fc5d2460186f7233c927e7db2dcc703c0e500b653ca82273b7bfad8045d85a47091506040516104c6602082816103f88183019687815193849201611c9a565b5190200361091e576104d8818b611f3b565b516104e58260a051611f3b565b5160c0516001600160a01b03906104fd908590611f3b565b5116917f8effabb75f28a28d3080db6e33fd63bab02725de42cda7b8fd1132dc90d0e8c8600080a461059160208b60018060a01b0361053e85608051611f3b565b511661055f8560018060a01b036105578260c051611f3b565b511693611f3b565b51604051627eeac760e11b81526001600160a01b03909316600484015260248301529092839190829081906044820190565b03915afa80156108b2576000906108ea575b6105b491506102ab8360a051611f3b565b6105be8286611f3b565b51106108d65761066b61061a6105d4838d611f3b565b516105e26103738589611f3b565b6103bd60206040518093828201956105f987611f4f565b90815261060e82518093868085019101611c9a565b01038084520182611ab2565b604051610637602082816103f88183019687815193849201611c9a565b5190206106448386611f3b565b51604051610662602082816103f88183019687815193849201611c9a565b51902014611fdd565b6080516001600160a01b0390610682908390611f3b565b511660018060a01b036106978360c051611f3b565b51166106a3838d611f3b565b51916106af848c611f3b565b51906106bb858a611f3b565b51936106c98660a051611f3b565b51823b156108d6576000946106f686926040519889978896879563af72bd9160e01b875260048701612020565b03925af180156108b2576108db575b505b6080516001600160a01b039061071e908390611f3b565b511661072a8289611f3b565b51610735838d611f3b565b51917f5477f9965f93d173424ef8e21fac70c586b2fdb903ecf743d7a0973e6bfe3c9460808d60018060a01b0361076e8860c051611f3b565b5116906001600160a01b0390610785908990611f3b565b51168c61079f896107988160a051611f3b565b5192611f3b565b5191604051938452602084015260408301526060820152a46107c18187611f3b565b516080516001600160a01b03906107d9908490611f3b565b5116908a8c6108148560018060a01b036107f58260c051611f3b565b5116936001600160a01b039061080c908390611f3b565b511692611f3b565b51936108228660a051611f3b565b5192813b156108d657600060c49281956040519889968795637921219560e11b8752600487015260248601526044850152606484015260a060848401528160a48401525af19182156108b2576000928392839283926108c7575b5060c0516001600160a01b0390610894908890611f3b565b51168282156108be575bf1156108b2576108ad90611d4e565b610336565b6040513d6000823e3d90fd5b506108fc61089e565b6108d090611a6e565b3861087c565b600080fd5b6108e490611a6e565b8b610705565b506020813d602011610916575b8161090460209383611ab2565b810103126108d6576105b490516105a3565b3d91506108f7565b61093760208b60018060a01b0361053e85608051611f3b565b03915afa9081156108b257600091610c2e575b506109578260a051611f3b565b51111561070757610968818b611f3b565b516109da6109788360a051611f3b565b5160208d60018060a01b0361098f87608051611f3b565b51166109a88760018060a01b036105578260c051611f3b565b51604051627eeac760e11b81526001600160a01b03909316600484015260248301529093849190829081906044820190565b03915afa9081156108b257600091610bf8575b6109f79250612062565b60c0516001600160a01b0390610a0e908590611f3b565b5116917f8effabb75f28a28d3080db6e33fd63bab02725de42cda7b8fd1132dc90d0e8c8600080a4610a4f60208b60018060a01b0361053e85608051611f3b565b03915afa80156108b257600090610bc4575b610a7291506102ab8360a051611f3b565b610a7c8286611f3b565b51106108d657610a9261061a6105d4838d611f3b565b8960018060a01b03610aa683608051611f3b565b511660018060a01b03610abb8460c051611f3b565b511690610ac88484611f3b565b5190610ad4858d611f3b565b5191610b21610ae3878c611f3b565b51956020610af38960a051611f3b565b519160018060a01b03610b088b608051611f3b565b51166109a88b60018060a01b036105578260c051611f3b565b03915afa9081156108b257600091610b8e575b610b3e9250612062565b823b156108d657600094610b6a86926040519889978896879563af72bd9160e01b875260048701612020565b03925af180156108b257610b7f575b50610707565b610b8890611a6e565b8b610b79565b90506020823d602011610bbc575b81610ba960209383611ab2565b810103126108d657610b3e915190610b34565b3d9150610b9c565b506020813d602011610bf0575b81610bde60209383611ab2565b810103126108d657610a729051610a61565b3d9150610bd1565b90506020823d602011610c26575b81610c1360209383611ab2565b810103126108d6576109f79151906109ed565b3d9150610c06565b90506020813d602011610c58575b81610c4960209383611ab2565b810103126108d657518c61094a565b3d9150610c3c565b503d806000833e610c718183611ab2565b8101906020818303126108d6578051906001600160401b0382116108d657019080601f830112156108d657815191610ca883611b58565b91610cb66040519384611ab2565b838352602084830101116108d6577fc5d2460186f7233c927e7db2dcc703c0e500b653ca82273b7bfad8045d85a47092610cf69160208085019101611c9a565b610486565b60405162461bcd60e51b81526020600482015260136024820152723b30b63ab2903430b9b41034b99032b93937b960691b6044820152606490fd5b6001610d428289611f3b565b5114610d52575b6108ad90611d4e565b6080516001600160a01b0390610d69908390611f3b565b51166020610d77838d611f3b565b516024604051809481936331a9108f60e11b835260048301525afa9081156108b257600091610fea575b50898b897f5477f9965f93d173424ef8e21fac70c586b2fdb903ecf743d7a0973e6bfe3c9460808b610e0c88610df681610def8160018060a01b03610de7828a51611f3b565b511699611f3b565b5198611f3b565b51976001600160a01b039061080c908390611f3b565b51604080516001600160a01b038a16815260208101939093526001908301526060820152a4610e3b828c611f3b565b51600052600260205260406000205415610fb257610e59828c611f3b565b5160005260026020526000604081205560018060a01b03610e7c83608051611f3b565b5116908b6020610e998560018060a01b0361055782608051611f3b565b516024604051809481936331a9108f60e11b835260048301525afa9081156108b257848d8f92600094610f7b575b50610ee191906001600160a01b039061080c908390611f3b565b5193803b156108d657600092836064926040519788958694632142170760e11b865260018060a01b03166004860152602485015260448401525af19182156108b257600092839283928392610f6c575b50610f3c868c611f3b565b519082908215610f62575b6001600160a01b031690f1610d49576040513d6000823e3d90fd5b6108fc9150610f47565b610f7590611a6e565b38610f31565b610ee192919450610fa39060203d602011610fab575b610f9b8183611ab2565b810190612125565b939091610ec7565b503d610f91565b60405162461bcd60e51b815260206004820152601060248201526f4974656d206e6f742073656c6c696e6760801b6044820152606490fd5b611003915060203d602011610fab57610f9b8183611ab2565b8c610da1565b005b60405162461bcd60e51b815260206004820152601360248201527276616c756520213d2073756d2076616c75657360681b6044820152606490fd5b50825188511461026f565b508151835114610269565b5060a05151825114610263565b50865160a051511461025d565b508351875114610257565b5060c05151845114610251565b50885160c051511461024b565b508451895114610245565b90508551143861023e565b346108d65760403660031901126108d6576110ca611a58565b6024359060018060a01b03809116906040516331a9108f60e11b81528360048201526020918282602481875afa9081156108b2576111139260009261118e575b50163314612144565b82600052600281526040600020541561115c576002908360005252600060408120557fa5700e6e137f0686a6aeb9ae573396b3ce22f929686865812dbda871081193b9600080a3005b6064906040519062461bcd60e51b82526004820152600b60248201526a6e6f742073656c6c696e6760a81b6044820152fd5b6111a6919250843d8611610fab57610f9b8183611ab2565b908661110a565b346108d65760603660031901126108d6576111c6611a58565b6024356044359160018060a01b0380911690604051906331a9108f60e11b8252836004830152602082602481865afa9081156108b257611210926000926112525750163314612144565b61121b83151561219c565b816000526002602052826040600020557fcf5c0bd1db1bda5f264be4f84ee9dcd59f04653ca22197bbf710f2c3bb2b7c76600080a4005b6111a691925060203d8111610fab57610f9b8183611ab2565b346108d65760003660031901126108d6576040516000805461128c81611ce2565b8084529060019081811690811561132757506001146112ce575b6112ca846112b681860382611ab2565b604051918291602083526020830190611cbd565b0390f35b600080805292507f290decd9548b62a8d60345a988386fc84ba6bc95484008f6362f93160ef3e5635b82841061130f5750505081016020016112b6826112a6565b805460208587018101919091529093019281016112f7565b60ff191660208087019190915292151560051b850190920192506112b691508390506112a6565b6101003660031901126108d657611363611a58565b6001600160401b036024358181116108d657611383903690600401611aea565b916044358281116108d65761139c903690600401611c3c565b906064358381116108d6576113b5903690600401611baa565b906084358481116108d6576113ce903690600401611baa565b9160a4358581116108d6576113e7903690600401611c3c565b9560c4358681116108d657611400903690600401611c3c565b9560e4359081116108d657611419903690600401611baa565b90805186518091149081611686575b508061167b575b80611670575b61144190979497611efd565b6001600160a01b039687169360005b825181101561100957886114648285611f3b565b511690611471818a611f3b565b51604051627eeac760e11b81526001600160a01b03939093166004840152602483015260209182816044818b5afa80156108b2578c839260009261163c575b506114be926102ab91611f3b565b6114c88285611f3b565b51106108d6578a868a6115e1846115da8f610def8f996115d3858f948f8f6115cb918e611592868f818161158d829f839e61156f8561154a819d61151d61037384611516816107989e611f3b565b5193611f3b565b611533866040518093828201956105f987611f4f565b51902060405190858201528481526103d681611a97565b6040516115668582816103f88183019687815193849201611c9a565b51902093611f3b565b51906106626040519182816103f88183019687815193849201611c9a565b611f3b565b518561159e8585611f3b565b5116917f8effabb75f28a28d3080db6e33fd63bab02725de42cda7b8fd1132dc90d0e8c8600080a4611f3b565b511698611f3b565b5197611f3b565b5194611f3b565b51928a3b156108d65760009361160c91604051978895869563af72bd9160e01b875260048701612020565b0381838b5af19182156108b2576116289261162d575b50611d4e565b611450565b61163690611a6e565b8b611622565b925050508281813d8311611669575b6116558183611ab2565b810103126108d6575181908c6114be6114b0565b503d61164b565b508451835114611435565b50875185511461142f565b905088511489611428565b346108d65760203660031901126108d6576004356001600160401b0381116108d657366023820112156108d6576112b66103d66112ca923690602481600401359101611b73565b346108d65760603660031901126108d6576001600160401b036004358181116108d657611709903690600401611aea565b9060249081358181116108d657611724903690600401611c3c565b906044359081116108d65761173d903690600401611c3c565b611754845183518091149081611868575b50611efd565b60005b8451811015611009576001600160a01b0390816117748288611f3b565b5116916117818286611f3b565b516040519384916331a9108f60e11b83526004830152818860209384935afa9384156108b257611846946117c19160009161184b575b5083163314612144565b6117d66117ce8487611f3b565b51151561219c565b60026117e28487611f3b565b51916117ee8589611f3b565b51600052526040600020556118038288611f3b565b511661180f8286611f3b565b5161181a8386611f3b565b51917fcf5c0bd1db1bda5f264be4f84ee9dcd59f04653ca22197bbf710f2c3bb2b7c76600080a4611d4e565b611757565b6118629150833d8511610fab57610f9b8183611ab2565b8a6117b7565b90508251148661174e565b346108d65760803660031901126108d65761188c611a58565b6001600160401b03602480358281116108d6576118ad903690600401611aea565b9160449384358281116108d6576118c8903690600401611baa565b916064359081116108d6576118e1903690600401611c3c565b906118fc855184518091149081611a4d575b50959295611efd565b6001600160a01b039081169160005b81518110156110095760405163e00dd16160e01b81526020908181600481895afa9081156108b257600091611a20575b5060018101809111611a0b57857fa491b2906955de9b9a0a0e6d8d87c1688f5207237fe435504138a6b00e7e92e86040611975868d611f3b565b519488611982888a611f3b565b5116825191338352820152a4826119998284611f3b565b5116906119a68187611f3b565b5191853b156108d6576119dc92600091604051948592839263d0def52160e01b8452600484015260408c8401528d830190611cbd565b038183895af19182156108b2576119f7926119fc5750611d4e565b61190b565b611a0590611a6e565b89611622565b87634e487b7160e01b60005260116004526000fd5b90508181813d8311611a46575b611a378183611ab2565b810103126108d657518a61193b565b503d611a2d565b9050835114886118f3565b600435906001600160a01b03821682036108d657565b6001600160401b038111611a8157604052565b634e487b7160e01b600052604160045260246000fd5b604081019081106001600160401b03821117611a8157604052565b90601f801991011681019081106001600160401b03821117611a8157604052565b6001600160401b038111611a815760051b60200190565b81601f820112156108d657803591611b0183611ad3565b92611b0f6040519485611ab2565b808452602092838086019260051b8201019283116108d6578301905b828210611b39575050505090565b81356001600160a01b03811681036108d6578152908301908301611b2b565b6001600160401b038111611a8157601f01601f191660200190565b929192611b7f82611b58565b91611b8d6040519384611ab2565b8294818452818301116108d6578281602093846000960137010152565b81601f820112156108d657803590611bc182611ad3565b92604092611bd184519586611ab2565b808552602093848087019260051b850101938385116108d657858101925b858410611c00575050505050505090565b83356001600160401b0381116108d657820185603f820112156108d6578791611c3187838786809601359101611b73565b815201930192611bef565b81601f820112156108d657803591611c5383611ad3565b92611c616040519485611ab2565b808452602092838086019260051b8201019283116108d6578301905b828210611c8b575050505090565b81358152908301908301611c7d565b60005b838110611cad5750506000910152565b8181015183820152602001611c9d565b90602091611cd681518092818552858086019101611c9a565b601f01601f1916010190565b90600182811c92168015611d12575b6020831014611cfc57565b634e487b7160e01b600052602260045260246000fd5b91607f1691611cf1565b90611d2682611b58565b611d336040519182611ab2565b8281528092611d44601f1991611b58565b0190602036910137565b6000198114611d5d5760010190565b634e487b7160e01b600052601160045260246000fd5b908151811015611d84570160200190565b634e487b7160e01b600052603260045260246000fd5b91908201809211611d5d57565b8051600181811b600292808204841490151715611d5d57611dc88291611d1c565b93604051611dd581611a97565b601081526f181899199a1a9b1b9c1cb0b131b232b360811b60208201526000925b611e3a575b505050506022611e3791604051809461060f60f31b6020830152611e288151809260208786019101611c9a565b81010390810184520182611ab2565b90565b8151831015611ef857611e4d8383611d73565b519281518015611ee25760f8946001600160f81b0319918291611e749190881c0485611d73565b51169482871b95838704891484151715611d5d5760001a611e95878b611d73565b53611ea08386611d73565b51901c83518015611ee257611eb6910684611d73565b511690858501809511611d5d578594611ed6611edc9360001a918a611d73565b53611d4e565b92611df6565b634e487b7160e01b600052601260045260246000fd5b611dfb565b15611f0457565b60405162461bcd60e51b815260206004820152600f60248201526e6c656e677468206e6f742073616d6560881b6044820152606490fd5b8051821015611d845760209160051b010190565b90600091600190815491611f6283611ce2565b92818116908115611fca5750600114611f7a57505050565b8091929394506000527fb10e2d527612073b26eecdfd717e6a320cf44b4afac2b0732d9fcbe2b7fa0cf6906000915b848310611fb7575050500190565b8181602092548587015201920191611fa9565b60ff191683525050811515909102019150565b15611fe457565b60405162461bcd60e51b815260206004820152601460248201527339bab838363c903430b9b41034b99032b93937b960611b6044820152606490fd5b9594939060809361205d9361204f9260018060a01b03168952602089015260a0604089015260a0880190611cbd565b908682036060880152611cbd565b930152565b91908203918211611d5d57565b80156121075780816000925b6120f357508061208a83611d1c565b92915b61209657505090565b6000198201918211611d5d5781600a80830492818402918483041484151715611d5d576120c660ff928392612062565b16603001908111611d5d5760f81b6001600160f81b03191660001a906120ec9085611d73565b538061208d565b916120ff600a91611d4e565b92048061207b565b5060405161211481611a97565b60018152600360fc1b602082015290565b908160209103126108d657516001600160a01b03811681036108d65790565b1561214b57565b60405162461bcd60e51b8152602060048201526024808201527f5065726d697373696f6e2064656e6965643a6e66742069742773206e6f7420796044820152636f75727360e01b6064820152608490fd5b156121a357565b60405162461bcd60e51b815260206004820152601a60248201527f7072696365206d757374206d6f7265207468616e2074686520300000000000006044820152606490fdfea2646970667358221220cb908c5d844dc9f03d6ee5d161fdf30fafadfe3f5add015424ac1655efee904364736f6c63430008110033","opcodes":"PUSH1 0x80 PUSH1 0x40 MSTORE CALLVALUE PUSH3 0x319 JUMPI PUSH3 0x25D5 DUP1 CODESIZE SUB DUP1 PUSH3 0x1D DUP2 PUSH3 0x31E JUMP JUMPDEST SWAP3 DUP4 CODECOPY DUP2 ADD SWAP1 PUSH1 0x40 DUP2 DUP4 SUB SLT PUSH3 0x319 JUMPI DUP1 MLOAD PUSH1 0x1 PUSH1 0x1 PUSH1 0x40 SHL SUB SWAP1 DUP2 DUP2 GT PUSH3 0x319 JUMPI DUP4 PUSH3 0x4F SWAP2 DUP5 ADD PUSH3 0x344 JUMP JUMPDEST SWAP2 PUSH1 0x20 SWAP4 DUP5 DUP3 ADD MLOAD DUP4 DUP2 GT PUSH3 0x319 JUMPI PUSH3 0x6B SWAP3 ADD PUSH3 0x344 JUMP JUMPDEST DUP3 MLOAD SWAP1 DUP3 DUP3 GT PUSH3 0x303 JUMPI PUSH1 0x0 DUP1 SLOAD SWAP3 PUSH1 0x1 SWAP6 DUP7 DUP6 DUP2 SHR SWAP6 AND DUP1 ISZERO PUSH3 0x2F8 JUMPI JUMPDEST DUP9 DUP7 LT EQ PUSH3 0x2E4 JUMPI DUP2 SWAP1 PUSH1 0x1F SWAP6 DUP7 DUP2 GT PUSH3 0x291 JUMPI JUMPDEST POP DUP9 SWAP1 DUP7 DUP4 GT PUSH1 0x1 EQ PUSH3 0x22D JUMPI DUP5 SWAP3 PUSH3 0x221 JUMPI JUMPDEST POP POP PUSH1 0x0 NOT PUSH1 0x3 DUP4 SWAP1 SHL SHR NOT AND SWAP1 DUP7 SHL OR DUP2 SSTORE JUMPDEST DUP2 MLOAD SWAP4 DUP5 GT PUSH3 0x20D JUMPI DUP5 SLOAD DUP6 DUP2 DUP2 SHR SWAP2 AND DUP1 ISZERO PUSH3 0x202 JUMPI JUMPDEST DUP8 DUP3 LT EQ PUSH3 0x1EE JUMPI DUP4 DUP2 GT PUSH3 0x1A6 JUMPI JUMPDEST POP DUP6 SWAP3 DUP5 GT PUSH1 0x1 EQ PUSH3 0x141 JUMPI DUP4 SWAP5 SWAP6 POP SWAP3 PUSH3 0x135 JUMPI JUMPDEST POP POP PUSH1 0x0 NOT PUSH1 0x3 DUP4 SWAP1 SHL SHR NOT AND SWAP1 DUP3 SHL OR SWAP1 SSTORE JUMPDEST PUSH1 0x40 MLOAD PUSH2 0x221E SWAP1 DUP2 PUSH3 0x3B7 DUP3 CODECOPY RETURN JUMPDEST ADD MLOAD SWAP1 POP CODESIZE DUP1 PUSH3 0x111 JUMP JUMPDEST SWAP2 SWAP1 PUSH1 0x1F NOT DUP5 AND SWAP6 DUP6 DUP5 MSTORE DUP1 DUP5 KECCAK256 SWAP4 SWAP1 JUMPDEST DUP8 DUP3 LT PUSH3 0x18E JUMPI POP POP DUP4 DUP6 SWAP7 LT PUSH3 0x174 JUMPI JUMPDEST POP POP POP DUP2 SHL ADD SWAP1 SSTORE PUSH3 0x125 JUMP JUMPDEST ADD MLOAD PUSH1 0x0 NOT PUSH1 0xF8 DUP5 PUSH1 0x3 SHL AND SHR NOT AND SWAP1 SSTORE CODESIZE DUP1 DUP1 PUSH3 0x166 JUMP JUMPDEST DUP1 DUP8 DUP6 SWAP7 DUP3 SWAP5 SWAP7 DUP7 ADD MLOAD DUP2 SSTORE ADD SWAP6 ADD SWAP4 ADD SWAP1 PUSH3 0x152 JUMP JUMPDEST DUP6 DUP3 MSTORE DUP7 DUP3 KECCAK256 DUP5 DUP1 DUP8 ADD PUSH1 0x5 SHR DUP3 ADD SWAP3 DUP10 DUP9 LT PUSH3 0x1E4 JUMPI JUMPDEST ADD PUSH1 0x5 SHR ADD SWAP1 DUP7 SWAP1 JUMPDEST DUP3 DUP2 LT PUSH3 0x1D8 JUMPI POP POP PUSH3 0xF9 JUMP JUMPDEST DUP4 DUP2 SSTORE ADD DUP7 SWAP1 PUSH3 0x1C8 JUMP JUMPDEST SWAP3 POP DUP2 SWAP3 PUSH3 0x1BF JUMP JUMPDEST PUSH4 0x4E487B71 PUSH1 0xE0 SHL DUP3 MSTORE PUSH1 0x22 PUSH1 0x4 MSTORE PUSH1 0x24 DUP3 REVERT JUMPDEST SWAP1 PUSH1 0x7F AND SWAP1 PUSH3 0xE7 JUMP JUMPDEST PUSH4 0x4E487B71 PUSH1 0xE0 SHL DUP2 MSTORE PUSH1 0x41 PUSH1 0x4 MSTORE PUSH1 0x24 SWAP1 REVERT JUMPDEST ADD MLOAD SWAP1 POP CODESIZE DUP1 PUSH3 0xB9 JUMP JUMPDEST DUP5 DUP1 MSTORE DUP10 DUP6 KECCAK256 DUP10 SWAP5 POP SWAP2 SWAP1 PUSH1 0x1F NOT DUP5 AND DUP7 JUMPDEST DUP13 DUP3 DUP3 LT PUSH3 0x27A JUMPI POP POP DUP5 GT PUSH3 0x260 JUMPI JUMPDEST POP POP POP DUP2 SHL ADD DUP2 SSTORE PUSH3 0xCD JUMP JUMPDEST ADD MLOAD PUSH1 0x0 NOT PUSH1 0xF8 DUP5 PUSH1 0x3 SHL AND SHR NOT AND SWAP1 SSTORE CODESIZE DUP1 DUP1 PUSH3 0x252 JUMP JUMPDEST DUP4 DUP6 ADD MLOAD DUP7 SSTORE DUP13 SWAP8 SWAP1 SWAP6 ADD SWAP5 SWAP4 DUP5 ADD SWAP4 ADD PUSH3 0x23F JUMP JUMPDEST SWAP1 SWAP2 POP DUP4 DUP1 MSTORE DUP9 DUP5 KECCAK256 DUP7 DUP1 DUP6 ADD PUSH1 0x5 SHR DUP3 ADD SWAP3 DUP12 DUP7 LT PUSH3 0x2DA JUMPI JUMPDEST SWAP2 DUP11 SWAP2 DUP7 SWAP6 SWAP5 SWAP4 ADD PUSH1 0x5 SHR ADD SWAP2 JUMPDEST DUP3 DUP2 LT PUSH3 0x2CB JUMPI POP POP PUSH3 0xA3 JUMP JUMPDEST DUP7 DUP2 SSTORE DUP6 SWAP5 POP DUP11 SWAP2 ADD PUSH3 0x2BB JUMP JUMPDEST SWAP3 POP DUP2 SWAP3 PUSH3 0x2AD JUMP JUMPDEST PUSH4 0x4E487B71 PUSH1 0xE0 SHL DUP4 MSTORE PUSH1 0x22 PUSH1 0x4 MSTORE PUSH1 0x24 DUP4 REVERT JUMPDEST SWAP5 PUSH1 0x7F AND SWAP5 PUSH3 0x8C JUMP JUMPDEST PUSH4 0x4E487B71 PUSH1 0xE0 SHL PUSH1 0x0 MSTORE PUSH1 0x41 PUSH1 0x4 MSTORE PUSH1 0x24 PUSH1 0x0 REVERT JUMPDEST PUSH1 0x0 DUP1 REVERT JUMPDEST PUSH1 0x40 MLOAD SWAP2 SWAP1 PUSH1 0x1F ADD PUSH1 0x1F NOT AND DUP3 ADD PUSH1 0x1 PUSH1 0x1 PUSH1 0x40 SHL SUB DUP2 GT DUP4 DUP3 LT OR PUSH3 0x303 JUMPI PUSH1 0x40 MSTORE JUMP JUMPDEST SWAP2 SWAP1 DUP1 PUSH1 0x1F DUP5 ADD SLT ISZERO PUSH3 0x319 JUMPI DUP3 MLOAD PUSH1 0x1 PUSH1 0x1 PUSH1 0x40 SHL SUB DUP2 GT PUSH3 0x303 JUMPI PUSH1 0x20 SWAP1 PUSH3 0x37A PUSH1 0x1F DUP3 ADD PUSH1 0x1F NOT AND DUP4 ADD PUSH3 0x31E JUMP JUMPDEST SWAP3 DUP2 DUP5 MSTORE DUP3 DUP3 DUP8 ADD ADD GT PUSH3 0x319 JUMPI PUSH1 0x0 JUMPDEST DUP2 DUP2 LT PUSH3 0x3A2 JUMPI POP DUP3 PUSH1 0x0 SWAP4 SWAP5 SWAP6 POP ADD ADD MSTORE SWAP1 JUMP JUMPDEST DUP6 DUP2 ADD DUP4 ADD MLOAD DUP5 DUP3 ADD DUP5 ADD MSTORE DUP3 ADD PUSH3 0x38C JUMP INVALID PUSH1 0xE0 PUSH1 0x40 MSTORE PUSH1 0x4 CALLDATASIZE LT ISZERO PUSH2 0x12 JUMPI PUSH1 0x0 DUP1 REVERT JUMPDEST PUSH1 0x0 CALLDATALOAD PUSH1 0xE0 SHR DUP1 PUSH4 0x1546F67F EQ PUSH2 0x1873 JUMPI DUP1 PUSH4 0x3EDBED19 EQ PUSH2 0x16D8 JUMPI DUP1 PUSH4 0x451D89FA EQ PUSH2 0x1691 JUMPI DUP1 PUSH4 0x4AA099A3 EQ PUSH2 0x134E JUMPI DUP1 PUSH4 0x54FD4D50 EQ PUSH2 0x126B JUMPI DUP1 PUSH4 0x6A272462 EQ PUSH2 0x11AD JUMPI DUP1 PUSH4 0xAA6ECB55 EQ PUSH2 0x10B1 JUMPI PUSH4 0xDF36914A EQ PUSH2 0x74 JUMPI PUSH1 0x0 DUP1 REVERT JUMPDEST PUSH2 0x1A0 CALLDATASIZE PUSH1 0x3 NOT ADD SLT PUSH2 0x8D6 JUMPI PUSH1 0x4 CALLDATALOAD PUSH1 0x1 PUSH1 0x1 PUSH1 0x40 SHL SUB DUP2 GT PUSH2 0x8D6 JUMPI PUSH2 0xA0 SWAP1 CALLDATASIZE SWAP1 PUSH1 0x4 ADD PUSH2 0x1AEA JUMP JUMPDEST PUSH1 0x80 MSTORE PUSH1 0x24 CALLDATALOAD PUSH1 0x1 PUSH1 0x1 PUSH1 0x40 SHL SUB DUP2 GT PUSH2 0x8D6 JUMPI PUSH2 0xC2 SWAP1 CALLDATASIZE SWAP1 PUSH1 0x4 ADD PUSH2 0x1C3C JUMP JUMPDEST PUSH1 0x44 CALLDATALOAD PUSH1 0x1 PUSH1 0x1 PUSH1 0x40 SHL SUB DUP2 GT PUSH2 0x8D6 JUMPI PUSH2 0xE1 SWAP1 CALLDATASIZE SWAP1 PUSH1 0x4 ADD PUSH2 0x1BAA JUMP JUMPDEST SWAP1 PUSH1 0x64 CALLDATALOAD PUSH1 0x1 PUSH1 0x1 PUSH1 0x40 SHL SUB DUP2 GT PUSH2 0x8D6 JUMPI PUSH2 0x101 SWAP1 CALLDATASIZE SWAP1 PUSH1 0x4 ADD PUSH2 0x1BAA JUMP JUMPDEST SWAP1 PUSH1 0x84 CALLDATALOAD PUSH1 0x1 PUSH1 0x1 PUSH1 0x40 SHL SUB DUP2 GT PUSH2 0x8D6 JUMPI PUSH2 0x121 SWAP1 CALLDATASIZE SWAP1 PUSH1 0x4 ADD PUSH2 0x1AEA JUMP JUMPDEST PUSH1 0xC0 MSTORE PUSH1 0xA4 CALLDATALOAD PUSH1 0x1 PUSH1 0x1 PUSH1 0x40 SHL SUB DUP2 GT PUSH2 0x8D6 JUMPI PUSH2 0x143 SWAP1 CALLDATASIZE SWAP1 PUSH1 0x4 ADD PUSH2 0x1AEA JUMP JUMPDEST SWAP1 PUSH1 0xC4 CALLDATALOAD PUSH1 0x1 PUSH1 0x1 PUSH1 0x40 SHL SUB DUP2 GT PUSH2 0x8D6 JUMPI PUSH2 0x163 SWAP1 CALLDATASIZE SWAP1 PUSH1 0x4 ADD PUSH2 0x1C3C JUMP JUMPDEST SWAP1 PUSH1 0xE4 CALLDATALOAD PUSH1 0x1 PUSH1 0x1 PUSH1 0x40 SHL SUB DUP2 GT PUSH2 0x8D6 JUMPI PUSH2 0x183 SWAP1 CALLDATASIZE SWAP1 PUSH1 0x4 ADD PUSH2 0x1C3C JUMP JUMPDEST PUSH1 0xA0 MSTORE PUSH2 0x104 CALLDATALOAD PUSH1 0x1 PUSH1 0x1 PUSH1 0x40 SHL SUB DUP2 GT PUSH2 0x8D6 JUMPI PUSH2 0x1A6 SWAP1 CALLDATASIZE SWAP1 PUSH1 0x4 ADD PUSH2 0x1BAA JUMP JUMPDEST SWAP5 PUSH1 0x1 PUSH1 0x1 PUSH1 0x40 SHL SUB PUSH2 0x124 CALLDATALOAD GT PUSH2 0x8D6 JUMPI PUSH2 0x1C8 CALLDATASIZE PUSH2 0x124 CALLDATALOAD PUSH1 0x4 ADD PUSH2 0x1BAA JUMP JUMPDEST SWAP4 PUSH2 0x144 CALLDATALOAD PUSH1 0x1 PUSH1 0x1 PUSH1 0x40 SHL SUB DUP2 GT PUSH2 0x8D6 JUMPI PUSH2 0x1E9 SWAP1 CALLDATASIZE SWAP1 PUSH1 0x4 ADD PUSH2 0x1C3C JUMP JUMPDEST SWAP5 PUSH1 0x1 PUSH1 0x1 PUSH1 0x40 SHL SUB PUSH2 0x164 CALLDATALOAD GT PUSH2 0x8D6 JUMPI PUSH2 0x20B CALLDATASIZE PUSH2 0x164 CALLDATALOAD PUSH1 0x4 ADD PUSH2 0x1C3C JUMP JUMPDEST SWAP8 PUSH1 0x1 PUSH1 0x1 PUSH1 0x40 SHL SUB PUSH2 0x184 CALLDATALOAD GT PUSH2 0x8D6 JUMPI PUSH2 0x22D CALLDATASIZE PUSH2 0x184 CALLDATALOAD PUSH1 0x4 ADD PUSH2 0x1BAA JUMP JUMPDEST SWAP9 PUSH1 0x80 MLOAD MLOAD DUP7 MLOAD DUP1 SWAP2 EQ SWAP1 DUP2 PUSH2 0x10A6 JUMPI JUMPDEST POP DUP1 PUSH2 0x109B JUMPI JUMPDEST DUP1 PUSH2 0x108E JUMPI JUMPDEST DUP1 PUSH2 0x1081 JUMPI JUMPDEST DUP1 PUSH2 0x1076 JUMPI JUMPDEST DUP1 PUSH2 0x1069 JUMPI JUMPDEST DUP1 PUSH2 0x105C JUMPI JUMPDEST DUP1 PUSH2 0x1051 JUMPI JUMPDEST DUP1 PUSH2 0x1046 JUMPI JUMPDEST PUSH2 0x278 SWAP1 PUSH2 0x1EFD JUMP JUMPDEST PUSH1 0x0 SWAP10 DUP11 JUMPDEST DUP10 MLOAD DUP13 LT ISZERO PUSH2 0x324 JUMPI DUP12 PUSH1 0x1 PUSH2 0x293 DUP3 DUP12 PUSH2 0x1F3B JUMP JUMPDEST MLOAD EQ PUSH2 0x2BE JUMPI JUMPDEST PUSH2 0x2B8 SWAP2 PUSH2 0x2AB PUSH2 0x2B2 SWAP3 DUP14 PUSH2 0x1F3B JUMP JUMPDEST MLOAD SWAP1 PUSH2 0x1D9A JUMP JUMPDEST SWAP12 PUSH2 0x1D4E JUMP JUMPDEST SWAP11 PUSH2 0x27D JUMP JUMPDEST PUSH2 0x2C8 SWAP1 DUP12 PUSH2 0x1F3B JUMP JUMPDEST MLOAD PUSH2 0x2D3 DUP14 DUP12 PUSH2 0x1F3B JUMP JUMPDEST MLOAD PUSH1 0x0 MSTORE PUSH1 0x2 PUSH1 0x20 MSTORE PUSH1 0x40 PUSH1 0x0 KECCAK256 SLOAD SUB PUSH2 0x2ED JUMPI DUP12 PUSH2 0x29A JUMP JUMPDEST PUSH1 0x40 MLOAD PUSH3 0x461BCD PUSH1 0xE5 SHL DUP2 MSTORE PUSH1 0x20 PUSH1 0x4 DUP3 ADD MSTORE PUSH1 0xF PUSH1 0x24 DUP3 ADD MSTORE PUSH15 0x496E636F7272656374207072696365 PUSH1 0x88 SHL PUSH1 0x44 DUP3 ADD MSTORE PUSH1 0x64 SWAP1 REVERT JUMPDEST DUP11 SWAP1 SWAP10 SWAP5 SWAP7 SWAP10 SWAP8 SWAP6 SWAP8 CALLVALUE SUB PUSH2 0x100B JUMPI PUSH1 0x0 JUMPDEST PUSH1 0x80 MLOAD MLOAD DUP2 LT ISZERO PUSH2 0x1009 JUMPI PUSH1 0x2 PUSH2 0x34D DUP3 DUP10 PUSH2 0x1F3B JUMP JUMPDEST MLOAD SUB PUSH2 0xD36 JUMPI PUSH2 0x3DB PUSH2 0x360 DUP3 DUP14 PUSH2 0x1F3B JUMP JUMPDEST MLOAD PUSH1 0x20 PUSH2 0x3BD PUSH2 0x379 PUSH2 0x373 DUP7 DUP13 PUSH2 0x1F3B JUMP JUMPDEST MLOAD PUSH2 0x206F JUMP JUMPDEST PUSH1 0x40 MLOAD SWAP3 DUP4 SWAP2 PUSH2 0x3AE DUP3 DUP1 DUP6 ADD SWAP8 PUSH2 0x3A0 PUSH2 0x393 DUP11 PUSH2 0x1F4F JUMP JUMPDEST SWAP2 DUP3 DUP2 MLOAD SWAP5 DUP6 SWAP3 ADD PUSH2 0x1C9A JUMP JUMPDEST ADD SWAP2 DUP3 DUP2 MLOAD SWAP5 DUP6 SWAP3 ADD PUSH2 0x1C9A JUMP JUMPDEST ADD SUB PUSH1 0x1F NOT DUP2 ADD DUP4 MSTORE DUP3 PUSH2 0x1AB2 JUMP JUMPDEST MLOAD SWAP1 KECCAK256 PUSH1 0x40 MLOAD SWAP1 PUSH1 0x20 DUP3 ADD MSTORE PUSH1 0x20 DUP2 MSTORE PUSH2 0x3D6 DUP2 PUSH2 0x1A97 JUMP JUMPDEST PUSH2 0x1DA7 JUMP JUMPDEST PUSH1 0x40 MLOAD PUSH2 0x405 PUSH1 0x20 DUP3 DUP2 PUSH2 0x3F8 DUP2 DUP4 ADD SWAP7 DUP8 DUP2 MLOAD SWAP4 DUP5 SWAP3 ADD PUSH2 0x1C9A JUMP JUMPDEST DUP2 ADD SUB DUP1 DUP5 MSTORE ADD DUP3 PUSH2 0x1AB2 JUMP JUMPDEST MLOAD SWAP1 KECCAK256 PUSH2 0x412 DUP3 DUP5 PUSH2 0x1F3B JUMP JUMPDEST MLOAD PUSH1 0x40 MLOAD PUSH2 0x430 PUSH1 0x20 DUP3 DUP2 PUSH2 0x3F8 DUP2 DUP4 ADD SWAP7 DUP8 DUP2 MLOAD SWAP4 DUP5 SWAP3 ADD PUSH2 0x1C9A JUMP JUMPDEST MLOAD SWAP1 KECCAK256 SUB PUSH2 0xCFB JUMPI PUSH1 0x80 MLOAD PUSH1 0x1 PUSH1 0x1 PUSH1 0xA0 SHL SUB SWAP1 PUSH2 0x44F SWAP1 DUP4 SWAP1 PUSH2 0x1F3B JUMP JUMPDEST MLOAD AND PUSH1 0x0 PUSH2 0x45D DUP4 DUP14 PUSH2 0x1F3B JUMP JUMPDEST MLOAD PUSH1 0x24 PUSH1 0x40 MLOAD DUP1 SWAP5 DUP2 SWAP4 PUSH4 0x3A24D07 PUSH1 0xE2 SHL DUP4 MSTORE PUSH1 0x4 DUP4 ADD MSTORE GAS STATICCALL DUP1 ISZERO PUSH2 0x8B2 JUMPI PUSH1 0x0 SWAP1 PUSH2 0xC60 JUMPI JUMPDEST PUSH32 0xC5D2460186F7233C927E7DB2DCC703C0E500B653CA82273B7BFAD8045D85A470 SWAP2 POP PUSH1 0x40 MLOAD PUSH2 0x4C6 PUSH1 0x20 DUP3 DUP2 PUSH2 0x3F8 DUP2 DUP4 ADD SWAP7 DUP8 DUP2 MLOAD SWAP4 DUP5 SWAP3 ADD PUSH2 0x1C9A JUMP JUMPDEST MLOAD SWAP1 KECCAK256 SUB PUSH2 0x91E JUMPI PUSH2 0x4D8 DUP2 DUP12 PUSH2 0x1F3B JUMP JUMPDEST MLOAD PUSH2 0x4E5 DUP3 PUSH1 0xA0 MLOAD PUSH2 0x1F3B JUMP JUMPDEST MLOAD PUSH1 0xC0 MLOAD PUSH1 0x1 PUSH1 0x1 PUSH1 0xA0 SHL SUB SWAP1 PUSH2 0x4FD SWAP1 DUP6 SWAP1 PUSH2 0x1F3B JUMP JUMPDEST MLOAD AND SWAP2 PUSH32 0x8EFFABB75F28A28D3080DB6E33FD63BAB02725DE42CDA7B8FD1132DC90D0E8C8 PUSH1 0x0 DUP1 LOG4 PUSH2 0x591 PUSH1 0x20 DUP12 PUSH1 0x1 DUP1 PUSH1 0xA0 SHL SUB PUSH2 0x53E DUP6 PUSH1 0x80 MLOAD PUSH2 0x1F3B JUMP JUMPDEST MLOAD AND PUSH2 0x55F DUP6 PUSH1 0x1 DUP1 PUSH1 0xA0 SHL SUB PUSH2 0x557 DUP3 PUSH1 0xC0 MLOAD PUSH2 0x1F3B JUMP JUMPDEST MLOAD AND SWAP4 PUSH2 0x1F3B JUMP JUMPDEST MLOAD PUSH1 0x40 MLOAD PUSH3 0x7EEAC7 PUSH1 0xE1 SHL DUP2 MSTORE PUSH1 0x1 PUSH1 0x1 PUSH1 0xA0 SHL SUB SWAP1 SWAP4 AND PUSH1 0x4 DUP5 ADD MSTORE PUSH1 0x24 DUP4 ADD MSTORE SWAP1 SWAP3 DUP4 SWAP2 SWAP1 DUP3 SWAP1 DUP2 SWAP1 PUSH1 0x44 DUP3 ADD SWAP1 JUMP JUMPDEST SUB SWAP2 GAS STATICCALL DUP1 ISZERO PUSH2 0x8B2 JUMPI PUSH1 0x0 SWAP1 PUSH2 0x8EA JUMPI JUMPDEST PUSH2 0x5B4 SWAP2 POP PUSH2 0x2AB DUP4 PUSH1 0xA0 MLOAD PUSH2 0x1F3B JUMP JUMPDEST PUSH2 0x5BE DUP3 DUP7 PUSH2 0x1F3B JUMP JUMPDEST MLOAD LT PUSH2 0x8D6 JUMPI PUSH2 0x66B PUSH2 0x61A PUSH2 0x5D4 DUP4 DUP14 PUSH2 0x1F3B JUMP JUMPDEST MLOAD PUSH2 0x5E2 PUSH2 0x373 DUP6 DUP10 PUSH2 0x1F3B JUMP JUMPDEST PUSH2 0x3BD PUSH1 0x20 PUSH1 0x40 MLOAD DUP1 SWAP4 DUP3 DUP3 ADD SWAP6 PUSH2 0x5F9 DUP8 PUSH2 0x1F4F JUMP JUMPDEST SWAP1 DUP2 MSTORE PUSH2 0x60E DUP3 MLOAD DUP1 SWAP4 DUP7 DUP1 DUP6 ADD SWAP2 ADD PUSH2 0x1C9A JUMP JUMPDEST ADD SUB DUP1 DUP5 MSTORE ADD DUP3 PUSH2 0x1AB2 JUMP JUMPDEST PUSH1 0x40 MLOAD PUSH2 0x637 PUSH1 0x20 DUP3 DUP2 PUSH2 0x3F8 DUP2 DUP4 ADD SWAP7 DUP8 DUP2 MLOAD SWAP4 DUP5 SWAP3 ADD PUSH2 0x1C9A JUMP JUMPDEST MLOAD SWAP1 KECCAK256 PUSH2 0x644 DUP4 DUP7 PUSH2 0x1F3B JUMP JUMPDEST MLOAD PUSH1 0x40 MLOAD PUSH2 0x662 PUSH1 0x20 DUP3 DUP2 PUSH2 0x3F8 DUP2 DUP4 ADD SWAP7 DUP8 DUP2 MLOAD SWAP4 DUP5 SWAP3 ADD PUSH2 0x1C9A JUMP JUMPDEST MLOAD SWAP1 KECCAK256 EQ PUSH2 0x1FDD JUMP JUMPDEST PUSH1 0x80 MLOAD PUSH1 0x1 PUSH1 0x1 PUSH1 0xA0 SHL SUB SWAP1 PUSH2 0x682 SWAP1 DUP4 SWAP1 PUSH2 0x1F3B JUMP JUMPDEST MLOAD AND PUSH1 0x1 DUP1 PUSH1 0xA0 SHL SUB PUSH2 0x697 DUP4 PUSH1 0xC0 MLOAD PUSH2 0x1F3B JUMP JUMPDEST MLOAD AND PUSH2 0x6A3 DUP4 DUP14 PUSH2 0x1F3B JUMP JUMPDEST MLOAD SWAP2 PUSH2 0x6AF DUP5 DUP13 PUSH2 0x1F3B JUMP JUMPDEST MLOAD SWAP1 PUSH2 0x6BB DUP6 DUP11 PUSH2 0x1F3B JUMP JUMPDEST MLOAD SWAP4 PUSH2 0x6C9 DUP7 PUSH1 0xA0 MLOAD PUSH2 0x1F3B JUMP JUMPDEST MLOAD DUP3 EXTCODESIZE ISZERO PUSH2 0x8D6 JUMPI PUSH1 0x0 SWAP5 PUSH2 0x6F6 DUP7 SWAP3 PUSH1 0x40 MLOAD SWAP9 DUP10 SWAP8 DUP9 SWAP7 DUP8 SWAP6 PUSH4 0xAF72BD91 PUSH1 0xE0 SHL DUP8 MSTORE PUSH1 0x4 DUP8 ADD PUSH2 0x2020 JUMP JUMPDEST SUB SWAP3 GAS CALL DUP1 ISZERO PUSH2 0x8B2 JUMPI PUSH2 0x8DB JUMPI JUMPDEST POP JUMPDEST PUSH1 0x80 MLOAD PUSH1 0x1 PUSH1 0x1 PUSH1 0xA0 SHL SUB SWAP1 PUSH2 0x71E SWAP1 DUP4 SWAP1 PUSH2 0x1F3B JUMP JUMPDEST MLOAD AND PUSH2 0x72A DUP3 DUP10 PUSH2 0x1F3B JUMP JUMPDEST MLOAD PUSH2 0x735 DUP4 DUP14 PUSH2 0x1F3B JUMP JUMPDEST MLOAD SWAP2 PUSH32 0x5477F9965F93D173424EF8E21FAC70C586B2FDB903ECF743D7A0973E6BFE3C94 PUSH1 0x80 DUP14 PUSH1 0x1 DUP1 PUSH1 0xA0 SHL SUB PUSH2 0x76E DUP9 PUSH1 0xC0 MLOAD PUSH2 0x1F3B JUMP JUMPDEST MLOAD AND SWAP1 PUSH1 0x1 PUSH1 0x1 PUSH1 0xA0 SHL SUB SWAP1 PUSH2 0x785 SWAP1 DUP10 SWAP1 PUSH2 0x1F3B JUMP JUMPDEST MLOAD AND DUP13 PUSH2 0x79F DUP10 PUSH2 0x798 DUP2 PUSH1 0xA0 MLOAD PUSH2 0x1F3B JUMP JUMPDEST MLOAD SWAP3 PUSH2 0x1F3B JUMP JUMPDEST MLOAD SWAP2 PUSH1 0x40 MLOAD SWAP4 DUP5 MSTORE PUSH1 0x20 DUP5 ADD MSTORE PUSH1 0x40 DUP4 ADD MSTORE PUSH1 0x60 DUP3 ADD MSTORE LOG4 PUSH2 0x7C1 DUP2 DUP8 PUSH2 0x1F3B JUMP JUMPDEST MLOAD PUSH1 0x80 MLOAD PUSH1 0x1 PUSH1 0x1 PUSH1 0xA0 SHL SUB SWAP1 PUSH2 0x7D9 SWAP1 DUP5 SWAP1 PUSH2 0x1F3B JUMP JUMPDEST MLOAD AND SWAP1 DUP11 DUP13 PUSH2 0x814 DUP6 PUSH1 0x1 DUP1 PUSH1 0xA0 SHL SUB PUSH2 0x7F5 DUP3 PUSH1 0xC0 MLOAD PUSH2 0x1F3B JUMP JUMPDEST MLOAD AND SWAP4 PUSH1 0x1 PUSH1 0x1 PUSH1 0xA0 SHL SUB SWAP1 PUSH2 0x80C SWAP1 DUP4 SWAP1 PUSH2 0x1F3B JUMP JUMPDEST MLOAD AND SWAP3 PUSH2 0x1F3B JUMP JUMPDEST MLOAD SWAP4 PUSH2 0x822 DUP7 PUSH1 0xA0 MLOAD PUSH2 0x1F3B JUMP JUMPDEST MLOAD SWAP3 DUP2 EXTCODESIZE ISZERO PUSH2 0x8D6 JUMPI PUSH1 0x0 PUSH1 0xC4 SWAP3 DUP2 SWAP6 PUSH1 0x40 MLOAD SWAP9 DUP10 SWAP7 DUP8 SWAP6 PUSH4 0x79212195 PUSH1 0xE1 SHL DUP8 MSTORE PUSH1 0x4 DUP8 ADD MSTORE PUSH1 0x24 DUP7 ADD MSTORE PUSH1 0x44 DUP6 ADD MSTORE PUSH1 0x64 DUP5 ADD MSTORE PUSH1 0xA0 PUSH1 0x84 DUP5 ADD MSTORE DUP2 PUSH1 0xA4 DUP5 ADD MSTORE GAS CALL SWAP2 DUP3 ISZERO PUSH2 0x8B2 JUMPI PUSH1 0x0 SWAP3 DUP4 SWAP3 DUP4 SWAP3 DUP4 SWAP3 PUSH2 0x8C7 JUMPI JUMPDEST POP PUSH1 0xC0 MLOAD PUSH1 0x1 PUSH1 0x1 PUSH1 0xA0 SHL SUB SWAP1 PUSH2 0x894 SWAP1 DUP9 SWAP1 PUSH2 0x1F3B JUMP JUMPDEST MLOAD AND DUP3 DUP3 ISZERO PUSH2 0x8BE JUMPI JUMPDEST CALL ISZERO PUSH2 0x8B2 JUMPI PUSH2 0x8AD SWAP1 PUSH2 0x1D4E JUMP JUMPDEST PUSH2 0x336 JUMP JUMPDEST PUSH1 0x40 MLOAD RETURNDATASIZE PUSH1 0x0 DUP3 RETURNDATACOPY RETURNDATASIZE SWAP1 REVERT JUMPDEST POP PUSH2 0x8FC PUSH2 0x89E JUMP JUMPDEST PUSH2 0x8D0 SWAP1 PUSH2 0x1A6E JUMP JUMPDEST CODESIZE PUSH2 0x87C JUMP JUMPDEST PUSH1 0x0 DUP1 REVERT JUMPDEST PUSH2 0x8E4 SWAP1 PUSH2 0x1A6E JUMP JUMPDEST DUP12 PUSH2 0x705 JUMP JUMPDEST POP PUSH1 0x20 DUP2 RETURNDATASIZE PUSH1 0x20 GT PUSH2 0x916 JUMPI JUMPDEST DUP2 PUSH2 0x904 PUSH1 0x20 SWAP4 DUP4 PUSH2 0x1AB2 JUMP JUMPDEST DUP2 ADD SUB SLT PUSH2 0x8D6 JUMPI PUSH2 0x5B4 SWAP1 MLOAD PUSH2 0x5A3 JUMP JUMPDEST RETURNDATASIZE SWAP2 POP PUSH2 0x8F7 JUMP JUMPDEST PUSH2 0x937 PUSH1 0x20 DUP12 PUSH1 0x1 DUP1 PUSH1 0xA0 SHL SUB PUSH2 0x53E DUP6 PUSH1 0x80 MLOAD PUSH2 0x1F3B JUMP JUMPDEST SUB SWAP2 GAS STATICCALL SWAP1 DUP2 ISZERO PUSH2 0x8B2 JUMPI PUSH1 0x0 SWAP2 PUSH2 0xC2E JUMPI JUMPDEST POP PUSH2 0x957 DUP3 PUSH1 0xA0 MLOAD PUSH2 0x1F3B JUMP JUMPDEST MLOAD GT ISZERO PUSH2 0x707 JUMPI PUSH2 0x968 DUP2 DUP12 PUSH2 0x1F3B JUMP JUMPDEST MLOAD PUSH2 0x9DA PUSH2 0x978 DUP4 PUSH1 0xA0 MLOAD PUSH2 0x1F3B JUMP JUMPDEST MLOAD PUSH1 0x20 DUP14 PUSH1 0x1 DUP1 PUSH1 0xA0 SHL SUB PUSH2 0x98F DUP8 PUSH1 0x80 MLOAD PUSH2 0x1F3B JUMP JUMPDEST MLOAD AND PUSH2 0x9A8 DUP8 PUSH1 0x1 DUP1 PUSH1 0xA0 SHL SUB PUSH2 0x557 DUP3 PUSH1 0xC0 MLOAD PUSH2 0x1F3B JUMP JUMPDEST MLOAD PUSH1 0x40 MLOAD PUSH3 0x7EEAC7 PUSH1 0xE1 SHL DUP2 MSTORE PUSH1 0x1 PUSH1 0x1 PUSH1 0xA0 SHL SUB SWAP1 SWAP4 AND PUSH1 0x4 DUP5 ADD MSTORE PUSH1 0x24 DUP4 ADD MSTORE SWAP1 SWAP4 DUP5 SWAP2 SWAP1 DUP3 SWAP1 DUP2 SWAP1 PUSH1 0x44 DUP3 ADD SWAP1 JUMP JUMPDEST SUB SWAP2 GAS STATICCALL SWAP1 DUP2 ISZERO PUSH2 0x8B2 JUMPI PUSH1 0x0 SWAP2 PUSH2 0xBF8 JUMPI JUMPDEST PUSH2 0x9F7 SWAP3 POP PUSH2 0x2062 JUMP JUMPDEST PUSH1 0xC0 MLOAD PUSH1 0x1 PUSH1 0x1 PUSH1 0xA0 SHL SUB SWAP1 PUSH2 0xA0E SWAP1 DUP6 SWAP1 PUSH2 0x1F3B JUMP JUMPDEST MLOAD AND SWAP2 PUSH32 0x8EFFABB75F28A28D3080DB6E33FD63BAB02725DE42CDA7B8FD1132DC90D0E8C8 PUSH1 0x0 DUP1 LOG4 PUSH2 0xA4F PUSH1 0x20 DUP12 PUSH1 0x1 DUP1 PUSH1 0xA0 SHL SUB PUSH2 0x53E DUP6 PUSH1 0x80 MLOAD PUSH2 0x1F3B JUMP JUMPDEST SUB SWAP2 GAS STATICCALL DUP1 ISZERO PUSH2 0x8B2 JUMPI PUSH1 0x0 SWAP1 PUSH2 0xBC4 JUMPI JUMPDEST PUSH2 0xA72 SWAP2 POP PUSH2 0x2AB DUP4 PUSH1 0xA0 MLOAD PUSH2 0x1F3B JUMP JUMPDEST PUSH2 0xA7C DUP3 DUP7 PUSH2 0x1F3B JUMP JUMPDEST MLOAD LT PUSH2 0x8D6 JUMPI PUSH2 0xA92 PUSH2 0x61A PUSH2 0x5D4 DUP4 DUP14 PUSH2 0x1F3B JUMP JUMPDEST DUP10 PUSH1 0x1 DUP1 PUSH1 0xA0 SHL SUB PUSH2 0xAA6 DUP4 PUSH1 0x80 MLOAD PUSH2 0x1F3B JUMP JUMPDEST MLOAD AND PUSH1 0x1 DUP1 PUSH1 0xA0 SHL SUB PUSH2 0xABB DUP5 PUSH1 0xC0 MLOAD PUSH2 0x1F3B JUMP JUMPDEST MLOAD AND SWAP1 PUSH2 0xAC8 DUP5 DUP5 PUSH2 0x1F3B JUMP JUMPDEST MLOAD SWAP1 PUSH2 0xAD4 DUP6 DUP14 PUSH2 0x1F3B JUMP JUMPDEST MLOAD SWAP2 PUSH2 0xB21 PUSH2 0xAE3 DUP8 DUP13 PUSH2 0x1F3B JUMP JUMPDEST MLOAD SWAP6 PUSH1 0x20 PUSH2 0xAF3 DUP10 PUSH1 0xA0 MLOAD PUSH2 0x1F3B JUMP JUMPDEST MLOAD SWAP2 PUSH1 0x1 DUP1 PUSH1 0xA0 SHL SUB PUSH2 0xB08 DUP12 PUSH1 0x80 MLOAD PUSH2 0x1F3B JUMP JUMPDEST MLOAD AND PUSH2 0x9A8 DUP12 PUSH1 0x1 DUP1 PUSH1 0xA0 SHL SUB PUSH2 0x557 DUP3 PUSH1 0xC0 MLOAD PUSH2 0x1F3B JUMP JUMPDEST SUB SWAP2 GAS STATICCALL SWAP1 DUP2 ISZERO PUSH2 0x8B2 JUMPI PUSH1 0x0 SWAP2 PUSH2 0xB8E JUMPI JUMPDEST PUSH2 0xB3E SWAP3 POP PUSH2 0x2062 JUMP JUMPDEST DUP3 EXTCODESIZE ISZERO PUSH2 0x8D6 JUMPI PUSH1 0x0 SWAP5 PUSH2 0xB6A DUP7 SWAP3 PUSH1 0x40 MLOAD SWAP9 DUP10 SWAP8 DUP9 SWAP7 DUP8 SWAP6 PUSH4 0xAF72BD91 PUSH1 0xE0 SHL DUP8 MSTORE PUSH1 0x4 DUP8 ADD PUSH2 0x2020 JUMP JUMPDEST SUB SWAP3 GAS CALL DUP1 ISZERO PUSH2 0x8B2 JUMPI PUSH2 0xB7F JUMPI JUMPDEST POP PUSH2 0x707 JUMP JUMPDEST PUSH2 0xB88 SWAP1 PUSH2 0x1A6E JUMP JUMPDEST DUP12 PUSH2 0xB79 JUMP JUMPDEST SWAP1 POP PUSH1 0x20 DUP3 RETURNDATASIZE PUSH1 0x20 GT PUSH2 0xBBC JUMPI JUMPDEST DUP2 PUSH2 0xBA9 PUSH1 0x20 SWAP4 DUP4 PUSH2 0x1AB2 JUMP JUMPDEST DUP2 ADD SUB SLT PUSH2 0x8D6 JUMPI PUSH2 0xB3E SWAP2 MLOAD SWAP1 PUSH2 0xB34 JUMP JUMPDEST RETURNDATASIZE SWAP2 POP PUSH2 0xB9C JUMP JUMPDEST POP PUSH1 0x20 DUP2 RETURNDATASIZE PUSH1 0x20 GT PUSH2 0xBF0 JUMPI JUMPDEST DUP2 PUSH2 0xBDE PUSH1 0x20 SWAP4 DUP4 PUSH2 0x1AB2 JUMP JUMPDEST DUP2 ADD SUB SLT PUSH2 0x8D6 JUMPI PUSH2 0xA72 SWAP1 MLOAD PUSH2 0xA61 JUMP JUMPDEST RETURNDATASIZE SWAP2 POP PUSH2 0xBD1 JUMP JUMPDEST SWAP1 POP PUSH1 0x20 DUP3 RETURNDATASIZE PUSH1 0x20 GT PUSH2 0xC26 JUMPI JUMPDEST DUP2 PUSH2 0xC13 PUSH1 0x20 SWAP4 DUP4 PUSH2 0x1AB2 JUMP JUMPDEST DUP2 ADD SUB SLT PUSH2 0x8D6 JUMPI PUSH2 0x9F7 SWAP2 MLOAD SWAP1 PUSH2 0x9ED JUMP JUMPDEST RETURNDATASIZE SWAP2 POP PUSH2 0xC06 JUMP JUMPDEST SWAP1 POP PUSH1 0x20 DUP2 RETURNDATASIZE PUSH1 0x20 GT PUSH2 0xC58 JUMPI JUMPDEST DUP2 PUSH2 0xC49 PUSH1 0x20 SWAP4 DUP4 PUSH2 0x1AB2 JUMP JUMPDEST DUP2 ADD SUB SLT PUSH2 0x8D6 JUMPI MLOAD DUP13 PUSH2 0x94A JUMP JUMPDEST RETURNDATASIZE SWAP2 POP PUSH2 0xC3C JUMP JUMPDEST POP RETURNDATASIZE DUP1 PUSH1 0x0 DUP4 RETURNDATACOPY PUSH2 0xC71 DUP2 DUP4 PUSH2 0x1AB2 JUMP JUMPDEST DUP2 ADD SWAP1 PUSH1 0x20 DUP2 DUP4 SUB SLT PUSH2 0x8D6 JUMPI DUP1 MLOAD SWAP1 PUSH1 0x1 PUSH1 0x1 PUSH1 0x40 SHL SUB DUP3 GT PUSH2 0x8D6 JUMPI ADD SWAP1 DUP1 PUSH1 0x1F DUP4 ADD SLT ISZERO PUSH2 0x8D6 JUMPI DUP2 MLOAD SWAP2 PUSH2 0xCA8 DUP4 PUSH2 0x1B58 JUMP JUMPDEST SWAP2 PUSH2 0xCB6 PUSH1 0x40 MLOAD SWAP4 DUP5 PUSH2 0x1AB2 JUMP JUMPDEST DUP4 DUP4 MSTORE PUSH1 0x20 DUP5 DUP4 ADD ADD GT PUSH2 0x8D6 JUMPI PUSH32 0xC5D2460186F7233C927E7DB2DCC703C0E500B653CA82273B7BFAD8045D85A470 SWAP3 PUSH2 0xCF6 SWAP2 PUSH1 0x20 DUP1 DUP6 ADD SWAP2 ADD PUSH2 0x1C9A JUMP JUMPDEST PUSH2 0x486 JUMP JUMPDEST PUSH1 0x40 MLOAD PUSH3 0x461BCD PUSH1 0xE5 SHL DUP2 MSTORE PUSH1 0x20 PUSH1 0x4 DUP3 ADD MSTORE PUSH1 0x13 PUSH1 0x24 DUP3 ADD MSTORE PUSH19 0x3B30B63AB2903430B9B41034B99032B93937B9 PUSH1 0x69 SHL PUSH1 0x44 DUP3 ADD MSTORE PUSH1 0x64 SWAP1 REVERT JUMPDEST PUSH1 0x1 PUSH2 0xD42 DUP3 DUP10 PUSH2 0x1F3B JUMP JUMPDEST MLOAD EQ PUSH2 0xD52 JUMPI JUMPDEST PUSH2 0x8AD SWAP1 PUSH2 0x1D4E JUMP JUMPDEST PUSH1 0x80 MLOAD PUSH1 0x1 PUSH1 0x1 PUSH1 0xA0 SHL SUB SWAP1 PUSH2 0xD69 SWAP1 DUP4 SWAP1 PUSH2 0x1F3B JUMP JUMPDEST MLOAD AND PUSH1 0x20 PUSH2 0xD77 DUP4 DUP14 PUSH2 0x1F3B JUMP JUMPDEST MLOAD PUSH1 0x24 PUSH1 0x40 MLOAD DUP1 SWAP5 DUP2 SWAP4 PUSH4 0x31A9108F PUSH1 0xE1 SHL DUP4 MSTORE PUSH1 0x4 DUP4 ADD MSTORE GAS STATICCALL SWAP1 DUP2 ISZERO PUSH2 0x8B2 JUMPI PUSH1 0x0 SWAP2 PUSH2 0xFEA JUMPI JUMPDEST POP DUP10 DUP12 DUP10 PUSH32 0x5477F9965F93D173424EF8E21FAC70C586B2FDB903ECF743D7A0973E6BFE3C94 PUSH1 0x80 DUP12 PUSH2 0xE0C DUP9 PUSH2 0xDF6 DUP2 PUSH2 0xDEF DUP2 PUSH1 0x1 DUP1 PUSH1 0xA0 SHL SUB PUSH2 0xDE7 DUP3 DUP11 MLOAD PUSH2 0x1F3B JUMP JUMPDEST MLOAD AND SWAP10 PUSH2 0x1F3B JUMP JUMPDEST MLOAD SWAP9 PUSH2 0x1F3B JUMP JUMPDEST MLOAD SWAP8 PUSH1 0x1 PUSH1 0x1 PUSH1 0xA0 SHL SUB SWAP1 PUSH2 0x80C SWAP1 DUP4 SWAP1 PUSH2 0x1F3B JUMP JUMPDEST MLOAD PUSH1 0x40 DUP1 MLOAD PUSH1 0x1 PUSH1 0x1 PUSH1 0xA0 SHL SUB DUP11 AND DUP2 MSTORE PUSH1 0x20 DUP2 ADD SWAP4 SWAP1 SWAP4 MSTORE PUSH1 0x1 SWAP1 DUP4 ADD MSTORE PUSH1 0x60 DUP3 ADD MSTORE LOG4 PUSH2 0xE3B DUP3 DUP13 PUSH2 0x1F3B JUMP JUMPDEST MLOAD PUSH1 0x0 MSTORE PUSH1 0x2 PUSH1 0x20 MSTORE PUSH1 0x40 PUSH1 0x0 KECCAK256 SLOAD ISZERO PUSH2 0xFB2 JUMPI PUSH2 0xE59 DUP3 DUP13 PUSH2 0x1F3B JUMP JUMPDEST MLOAD PUSH1 0x0 MSTORE PUSH1 0x2 PUSH1 0x20 MSTORE PUSH1 0x0 PUSH1 0x40 DUP2 KECCAK256 SSTORE PUSH1 0x1 DUP1 PUSH1 0xA0 SHL SUB PUSH2 0xE7C DUP4 PUSH1 0x80 MLOAD PUSH2 0x1F3B JUMP JUMPDEST MLOAD AND SWAP1 DUP12 PUSH1 0x20 PUSH2 0xE99 DUP6 PUSH1 0x1 DUP1 PUSH1 0xA0 SHL SUB PUSH2 0x557 DUP3 PUSH1 0x80 MLOAD PUSH2 0x1F3B JUMP JUMPDEST MLOAD PUSH1 0x24 PUSH1 0x40 MLOAD DUP1 SWAP5 DUP2 SWAP4 PUSH4 0x31A9108F PUSH1 0xE1 SHL DUP4 MSTORE PUSH1 0x4 DUP4 ADD MSTORE GAS STATICCALL SWAP1 DUP2 ISZERO PUSH2 0x8B2 JUMPI DUP5 DUP14 DUP16 SWAP3 PUSH1 0x0 SWAP5 PUSH2 0xF7B JUMPI JUMPDEST POP PUSH2 0xEE1 SWAP2 SWAP1 PUSH1 0x1 PUSH1 0x1 PUSH1 0xA0 SHL SUB SWAP1 PUSH2 0x80C SWAP1 DUP4 SWAP1 PUSH2 0x1F3B JUMP JUMPDEST MLOAD SWAP4 DUP1 EXTCODESIZE ISZERO PUSH2 0x8D6 JUMPI PUSH1 0x0 SWAP3 DUP4 PUSH1 0x64 SWAP3 PUSH1 0x40 MLOAD SWAP8 DUP9 SWAP6 DUP7 SWAP5 PUSH4 0x21421707 PUSH1 0xE1 SHL DUP7 MSTORE PUSH1 0x1 DUP1 PUSH1 0xA0 SHL SUB AND PUSH1 0x4 DUP7 ADD MSTORE PUSH1 0x24 DUP6 ADD MSTORE PUSH1 0x44 DUP5 ADD MSTORE GAS CALL SWAP2 DUP3 ISZERO PUSH2 0x8B2 JUMPI PUSH1 0x0 SWAP3 DUP4 SWAP3 DUP4 SWAP3 DUP4 SWAP3 PUSH2 0xF6C JUMPI JUMPDEST POP PUSH2 0xF3C DUP7 DUP13 PUSH2 0x1F3B JUMP JUMPDEST MLOAD SWAP1 DUP3 SWAP1 DUP3 ISZERO PUSH2 0xF62 JUMPI JUMPDEST PUSH1 0x1 PUSH1 0x1 PUSH1 0xA0 SHL SUB AND SWAP1 CALL PUSH2 0xD49 JUMPI PUSH1 0x40 MLOAD RETURNDATASIZE PUSH1 0x0 DUP3 RETURNDATACOPY RETURNDATASIZE SWAP1 REVERT JUMPDEST PUSH2 0x8FC SWAP2 POP PUSH2 0xF47 JUMP JUMPDEST PUSH2 0xF75 SWAP1 PUSH2 0x1A6E JUMP JUMPDEST CODESIZE PUSH2 0xF31 JUMP JUMPDEST PUSH2 0xEE1 SWAP3 SWAP2 SWAP5 POP PUSH2 0xFA3 SWAP1 PUSH1 0x20 RETURNDATASIZE PUSH1 0x20 GT PUSH2 0xFAB JUMPI JUMPDEST PUSH2 0xF9B DUP2 DUP4 PUSH2 0x1AB2 JUMP JUMPDEST DUP2 ADD SWAP1 PUSH2 0x2125 JUMP JUMPDEST SWAP4 SWAP1 SWAP2 PUSH2 0xEC7 JUMP JUMPDEST POP RETURNDATASIZE PUSH2 0xF91 JUMP JUMPDEST PUSH1 0x40 MLOAD PUSH3 0x461BCD PUSH1 0xE5 SHL DUP2 MSTORE PUSH1 0x20 PUSH1 0x4 DUP3 ADD MSTORE PUSH1 0x10 PUSH1 0x24 DUP3 ADD MSTORE PUSH16 0x4974656D206E6F742073656C6C696E67 PUSH1 0x80 SHL PUSH1 0x44 DUP3 ADD MSTORE PUSH1 0x64 SWAP1 REVERT JUMPDEST PUSH2 0x1003 SWAP2 POP PUSH1 0x20 RETURNDATASIZE PUSH1 0x20 GT PUSH2 0xFAB JUMPI PUSH2 0xF9B DUP2 DUP4 PUSH2 0x1AB2 JUMP JUMPDEST DUP13 PUSH2 0xDA1 JUMP JUMPDEST STOP JUMPDEST PUSH1 0x40 MLOAD PUSH3 0x461BCD PUSH1 0xE5 SHL DUP2 MSTORE PUSH1 0x20 PUSH1 0x4 DUP3 ADD MSTORE PUSH1 0x13 PUSH1 0x24 DUP3 ADD MSTORE PUSH19 0x76616C756520213D2073756D2076616C756573 PUSH1 0x68 SHL PUSH1 0x44 DUP3 ADD MSTORE PUSH1 0x64 SWAP1 REVERT JUMPDEST POP DUP3 MLOAD DUP9 MLOAD EQ PUSH2 0x26F JUMP JUMPDEST POP DUP2 MLOAD DUP4 MLOAD EQ PUSH2 0x269 JUMP JUMPDEST POP PUSH1 0xA0 MLOAD MLOAD DUP3 MLOAD EQ PUSH2 0x263 JUMP JUMPDEST POP DUP7 MLOAD PUSH1 0xA0 MLOAD MLOAD EQ PUSH2 0x25D JUMP JUMPDEST POP DUP4 MLOAD DUP8 MLOAD EQ PUSH2 0x257 JUMP JUMPDEST POP PUSH1 0xC0 MLOAD MLOAD DUP5 MLOAD EQ PUSH2 0x251 JUMP JUMPDEST POP DUP9 MLOAD PUSH1 0xC0 MLOAD MLOAD EQ PUSH2 0x24B JUMP JUMPDEST POP DUP5 MLOAD DUP10 MLOAD EQ PUSH2 0x245 JUMP JUMPDEST SWAP1 POP DUP6 MLOAD EQ CODESIZE PUSH2 0x23E JUMP JUMPDEST CALLVALUE PUSH2 0x8D6 JUMPI PUSH1 0x40 CALLDATASIZE PUSH1 0x3 NOT ADD SLT PUSH2 0x8D6 JUMPI PUSH2 0x10CA PUSH2 0x1A58 JUMP JUMPDEST PUSH1 0x24 CALLDATALOAD SWAP1 PUSH1 0x1 DUP1 PUSH1 0xA0 SHL SUB DUP1 SWAP2 AND SWAP1 PUSH1 0x40 MLOAD PUSH4 0x31A9108F PUSH1 0xE1 SHL DUP2 MSTORE DUP4 PUSH1 0x4 DUP3 ADD MSTORE PUSH1 0x20 SWAP2 DUP3 DUP3 PUSH1 0x24 DUP2 DUP8 GAS STATICCALL SWAP1 DUP2 ISZERO PUSH2 0x8B2 JUMPI PUSH2 0x1113 SWAP3 PUSH1 0x0 SWAP3 PUSH2 0x118E JUMPI JUMPDEST POP AND CALLER EQ PUSH2 0x2144 JUMP JUMPDEST DUP3 PUSH1 0x0 MSTORE PUSH1 0x2 DUP2 MSTORE PUSH1 0x40 PUSH1 0x0 KECCAK256 SLOAD ISZERO PUSH2 0x115C JUMPI PUSH1 0x2 SWAP1 DUP4 PUSH1 0x0 MSTORE MSTORE PUSH1 0x0 PUSH1 0x40 DUP2 KECCAK256 SSTORE PUSH32 0xA5700E6E137F0686A6AEB9AE573396B3CE22F929686865812DBDA871081193B9 PUSH1 0x0 DUP1 LOG3 STOP JUMPDEST PUSH1 0x64 SWAP1 PUSH1 0x40 MLOAD SWAP1 PUSH3 0x461BCD PUSH1 0xE5 SHL DUP3 MSTORE PUSH1 0x4 DUP3 ADD MSTORE PUSH1 0xB PUSH1 0x24 DUP3 ADD MSTORE PUSH11 0x6E6F742073656C6C696E67 PUSH1 0xA8 SHL PUSH1 0x44 DUP3 ADD MSTORE REVERT JUMPDEST PUSH2 0x11A6 SWAP2 SWAP3 POP DUP5 RETURNDATASIZE DUP7 GT PUSH2 0xFAB JUMPI PUSH2 0xF9B DUP2 DUP4 PUSH2 0x1AB2 JUMP JUMPDEST SWAP1 DUP7 PUSH2 0x110A JUMP JUMPDEST CALLVALUE PUSH2 0x8D6 JUMPI PUSH1 0x60 CALLDATASIZE PUSH1 0x3 NOT ADD SLT PUSH2 0x8D6 JUMPI PUSH2 0x11C6 PUSH2 0x1A58 JUMP JUMPDEST PUSH1 0x24 CALLDATALOAD PUSH1 0x44 CALLDATALOAD SWAP2 PUSH1 0x1 DUP1 PUSH1 0xA0 SHL SUB DUP1 SWAP2 AND SWAP1 PUSH1 0x40 MLOAD SWAP1 PUSH4 0x31A9108F PUSH1 0xE1 SHL DUP3 MSTORE DUP4 PUSH1 0x4 DUP4 ADD MSTORE PUSH1 0x20 DUP3 PUSH1 0x24 DUP2 DUP7 GAS STATICCALL SWAP1 DUP2 ISZERO PUSH2 0x8B2 JUMPI PUSH2 0x1210 SWAP3 PUSH1 0x0 SWAP3 PUSH2 0x1252 JUMPI POP AND CALLER EQ PUSH2 0x2144 JUMP JUMPDEST PUSH2 0x121B DUP4 ISZERO ISZERO PUSH2 0x219C JUMP JUMPDEST DUP2 PUSH1 0x0 MSTORE PUSH1 0x2 PUSH1 0x20 MSTORE DUP3 PUSH1 0x40 PUSH1 0x0 KECCAK256 SSTORE PUSH32 0xCF5C0BD1DB1BDA5F264BE4F84EE9DCD59F04653CA22197BBF710F2C3BB2B7C76 PUSH1 0x0 DUP1 LOG4 STOP JUMPDEST PUSH2 0x11A6 SWAP2 SWAP3 POP PUSH1 0x20 RETURNDATASIZE DUP2 GT PUSH2 0xFAB JUMPI PUSH2 0xF9B DUP2 DUP4 PUSH2 0x1AB2 JUMP JUMPDEST CALLVALUE PUSH2 0x8D6 JUMPI PUSH1 0x0 CALLDATASIZE PUSH1 0x3 NOT ADD SLT PUSH2 0x8D6 JUMPI PUSH1 0x40 MLOAD PUSH1 0x0 DUP1 SLOAD PUSH2 0x128C DUP2 PUSH2 0x1CE2 JUMP JUMPDEST DUP1 DUP5 MSTORE SWAP1 PUSH1 0x1 SWAP1 DUP2 DUP2 AND SWAP1 DUP2 ISZERO PUSH2 0x1327 JUMPI POP PUSH1 0x1 EQ PUSH2 0x12CE JUMPI JUMPDEST PUSH2 0x12CA DUP5 PUSH2 0x12B6 DUP2 DUP7 SUB DUP3 PUSH2 0x1AB2 JUMP JUMPDEST PUSH1 0x40 MLOAD SWAP2 DUP3 SWAP2 PUSH1 0x20 DUP4 MSTORE PUSH1 0x20 DUP4 ADD SWAP1 PUSH2 0x1CBD JUMP JUMPDEST SUB SWAP1 RETURN JUMPDEST PUSH1 0x0 DUP1 DUP1 MSTORE SWAP3 POP PUSH32 0x290DECD9548B62A8D60345A988386FC84BA6BC95484008F6362F93160EF3E563 JUMPDEST DUP3 DUP5 LT PUSH2 0x130F JUMPI POP POP POP DUP2 ADD PUSH1 0x20 ADD PUSH2 0x12B6 DUP3 PUSH2 0x12A6 JUMP JUMPDEST DUP1 SLOAD PUSH1 0x20 DUP6 DUP8 ADD DUP2 ADD SWAP2 SWAP1 SWAP2 MSTORE SWAP1 SWAP4 ADD SWAP3 DUP2 ADD PUSH2 0x12F7 JUMP JUMPDEST PUSH1 0xFF NOT AND PUSH1 0x20 DUP1 DUP8 ADD SWAP2 SWAP1 SWAP2 MSTORE SWAP3 ISZERO ISZERO PUSH1 0x5 SHL DUP6 ADD SWAP1 SWAP3 ADD SWAP3 POP PUSH2 0x12B6 SWAP2 POP DUP4 SWAP1 POP PUSH2 0x12A6 JUMP JUMPDEST PUSH2 0x100 CALLDATASIZE PUSH1 0x3 NOT ADD SLT PUSH2 0x8D6 JUMPI PUSH2 0x1363 PUSH2 0x1A58 JUMP JUMPDEST PUSH1 0x1 PUSH1 0x1 PUSH1 0x40 SHL SUB PUSH1 0x24 CALLDATALOAD DUP2 DUP2 GT PUSH2 0x8D6 JUMPI PUSH2 0x1383 SWAP1 CALLDATASIZE SWAP1 PUSH1 0x4 ADD PUSH2 0x1AEA JUMP JUMPDEST SWAP2 PUSH1 0x44 CALLDATALOAD DUP3 DUP2 GT PUSH2 0x8D6 JUMPI PUSH2 0x139C SWAP1 CALLDATASIZE SWAP1 PUSH1 0x4 ADD PUSH2 0x1C3C JUMP JUMPDEST SWAP1 PUSH1 0x64 CALLDATALOAD DUP4 DUP2 GT PUSH2 0x8D6 JUMPI PUSH2 0x13B5 SWAP1 CALLDATASIZE SWAP1 PUSH1 0x4 ADD PUSH2 0x1BAA JUMP JUMPDEST SWAP1 PUSH1 0x84 CALLDATALOAD DUP5 DUP2 GT PUSH2 0x8D6 JUMPI PUSH2 0x13CE SWAP1 CALLDATASIZE SWAP1 PUSH1 0x4 ADD PUSH2 0x1BAA JUMP JUMPDEST SWAP2 PUSH1 0xA4 CALLDATALOAD DUP6 DUP2 GT PUSH2 0x8D6 JUMPI PUSH2 0x13E7 SWAP1 CALLDATASIZE SWAP1 PUSH1 0x4 ADD PUSH2 0x1C3C JUMP JUMPDEST SWAP6 PUSH1 0xC4 CALLDATALOAD DUP7 DUP2 GT PUSH2 0x8D6 JUMPI PUSH2 0x1400 SWAP1 CALLDATASIZE SWAP1 PUSH1 0x4 ADD PUSH2 0x1C3C JUMP JUMPDEST SWAP6 PUSH1 0xE4 CALLDATALOAD SWAP1 DUP2 GT PUSH2 0x8D6 JUMPI PUSH2 0x1419 SWAP1 CALLDATASIZE SWAP1 PUSH1 0x4 ADD PUSH2 0x1BAA JUMP JUMPDEST SWAP1 DUP1 MLOAD DUP7 MLOAD DUP1 SWAP2 EQ SWAP1 DUP2 PUSH2 0x1686 JUMPI JUMPDEST POP DUP1 PUSH2 0x167B JUMPI JUMPDEST DUP1 PUSH2 0x1670 JUMPI JUMPDEST PUSH2 0x1441 SWAP1 SWAP8 SWAP5 SWAP8 PUSH2 0x1EFD JUMP JUMPDEST PUSH1 0x1 PUSH1 0x1 PUSH1 0xA0 SHL SUB SWAP7 DUP8 AND SWAP4 PUSH1 0x0 JUMPDEST DUP3 MLOAD DUP2 LT ISZERO PUSH2 0x1009 JUMPI DUP9 PUSH2 0x1464 DUP3 DUP6 PUSH2 0x1F3B JUMP JUMPDEST MLOAD AND SWAP1 PUSH2 0x1471 DUP2 DUP11 PUSH2 0x1F3B JUMP JUMPDEST MLOAD PUSH1 0x40 MLOAD PUSH3 0x7EEAC7 PUSH1 0xE1 SHL DUP2 MSTORE PUSH1 0x1 PUSH1 0x1 PUSH1 0xA0 SHL SUB SWAP4 SWAP1 SWAP4 AND PUSH1 0x4 DUP5 ADD MSTORE PUSH1 0x24 DUP4 ADD MSTORE PUSH1 0x20 SWAP2 DUP3 DUP2 PUSH1 0x44 DUP2 DUP12 GAS STATICCALL DUP1 ISZERO PUSH2 0x8B2 JUMPI DUP13 DUP4 SWAP3 PUSH1 0x0 SWAP3 PUSH2 0x163C JUMPI JUMPDEST POP PUSH2 0x14BE SWAP3 PUSH2 0x2AB SWAP2 PUSH2 0x1F3B JUMP JUMPDEST PUSH2 0x14C8 DUP3 DUP6 PUSH2 0x1F3B JUMP JUMPDEST MLOAD LT PUSH2 0x8D6 JUMPI DUP11 DUP7 DUP11 PUSH2 0x15E1 DUP5 PUSH2 0x15DA DUP16 PUSH2 0xDEF DUP16 SWAP10 PUSH2 0x15D3 DUP6 DUP16 SWAP5 DUP16 DUP16 PUSH2 0x15CB SWAP2 DUP15 PUSH2 0x1592 DUP7 DUP16 DUP2 DUP2 PUSH2 0x158D DUP3 SWAP16 DUP4 SWAP15 PUSH2 0x156F DUP6 PUSH2 0x154A DUP2 SWAP14 PUSH2 0x151D PUSH2 0x373 DUP5 PUSH2 0x1516 DUP2 PUSH2 0x798 SWAP15 PUSH2 0x1F3B JUMP JUMPDEST MLOAD SWAP4 PUSH2 0x1F3B JUMP JUMPDEST PUSH2 0x1533 DUP7 PUSH1 0x40 MLOAD DUP1 SWAP4 DUP3 DUP3 ADD SWAP6 PUSH2 0x5F9 DUP8 PUSH2 0x1F4F JUMP JUMPDEST MLOAD SWAP1 KECCAK256 PUSH1 0x40 MLOAD SWAP1 DUP6 DUP3 ADD MSTORE DUP5 DUP2 MSTORE PUSH2 0x3D6 DUP2 PUSH2 0x1A97 JUMP JUMPDEST PUSH1 0x40 MLOAD PUSH2 0x1566 DUP6 DUP3 DUP2 PUSH2 0x3F8 DUP2 DUP4 ADD SWAP7 DUP8 DUP2 MLOAD SWAP4 DUP5 SWAP3 ADD PUSH2 0x1C9A JUMP JUMPDEST MLOAD SWAP1 KECCAK256 SWAP4 PUSH2 0x1F3B JUMP JUMPDEST MLOAD SWAP1 PUSH2 0x662 PUSH1 0x40 MLOAD SWAP2 DUP3 DUP2 PUSH2 0x3F8 DUP2 DUP4 ADD SWAP7 DUP8 DUP2 MLOAD SWAP4 DUP5 SWAP3 ADD PUSH2 0x1C9A JUMP JUMPDEST PUSH2 0x1F3B JUMP JUMPDEST MLOAD DUP6 PUSH2 0x159E DUP6 DUP6 PUSH2 0x1F3B JUMP JUMPDEST MLOAD AND SWAP2 PUSH32 0x8EFFABB75F28A28D3080DB6E33FD63BAB02725DE42CDA7B8FD1132DC90D0E8C8 PUSH1 0x0 DUP1 LOG4 PUSH2 0x1F3B JUMP JUMPDEST MLOAD AND SWAP9 PUSH2 0x1F3B JUMP JUMPDEST MLOAD SWAP8 PUSH2 0x1F3B JUMP JUMPDEST MLOAD SWAP5 PUSH2 0x1F3B JUMP JUMPDEST MLOAD SWAP3 DUP11 EXTCODESIZE ISZERO PUSH2 0x8D6 JUMPI PUSH1 0x0 SWAP4 PUSH2 0x160C SWAP2 PUSH1 0x40 MLOAD SWAP8 DUP9 SWAP6 DUP7 SWAP6 PUSH4 0xAF72BD91 PUSH1 0xE0 SHL DUP8 MSTORE PUSH1 0x4 DUP8 ADD PUSH2 0x2020 JUMP JUMPDEST SUB DUP2 DUP4 DUP12 GAS CALL SWAP2 DUP3 ISZERO PUSH2 0x8B2 JUMPI PUSH2 0x1628 SWAP3 PUSH2 0x162D JUMPI JUMPDEST POP PUSH2 0x1D4E JUMP JUMPDEST PUSH2 0x1450 JUMP JUMPDEST PUSH2 0x1636 SWAP1 PUSH2 0x1A6E JUMP JUMPDEST DUP12 PUSH2 0x1622 JUMP JUMPDEST SWAP3 POP POP POP DUP3 DUP2 DUP2 RETURNDATASIZE DUP4 GT PUSH2 0x1669 JUMPI JUMPDEST PUSH2 0x1655 DUP2 DUP4 PUSH2 0x1AB2 JUMP JUMPDEST DUP2 ADD SUB SLT PUSH2 0x8D6 JUMPI MLOAD DUP2 SWAP1 DUP13 PUSH2 0x14BE PUSH2 0x14B0 JUMP JUMPDEST POP RETURNDATASIZE PUSH2 0x164B JUMP JUMPDEST POP DUP5 MLOAD DUP4 MLOAD EQ PUSH2 0x1435 JUMP JUMPDEST POP DUP8 MLOAD DUP6 MLOAD EQ PUSH2 0x142F JUMP JUMPDEST SWAP1 POP DUP9 MLOAD EQ DUP10 PUSH2 0x1428 JUMP JUMPDEST CALLVALUE PUSH2 0x8D6 JUMPI PUSH1 0x20 CALLDATASIZE PUSH1 0x3 NOT ADD SLT PUSH2 0x8D6 JUMPI PUSH1 0x4 CALLDATALOAD PUSH1 0x1 PUSH1 0x1 PUSH1 0x40 SHL SUB DUP2 GT PUSH2 0x8D6 JUMPI CALLDATASIZE PUSH1 0x23 DUP3 ADD SLT ISZERO PUSH2 0x8D6 JUMPI PUSH2 0x12B6 PUSH2 0x3D6 PUSH2 0x12CA SWAP3 CALLDATASIZE SWAP1 PUSH1 0x24 DUP2 PUSH1 0x4 ADD CALLDATALOAD SWAP2 ADD PUSH2 0x1B73 JUMP JUMPDEST CALLVALUE PUSH2 0x8D6 JUMPI PUSH1 0x60 CALLDATASIZE PUSH1 0x3 NOT ADD SLT PUSH2 0x8D6 JUMPI PUSH1 0x1 PUSH1 0x1 PUSH1 0x40 SHL SUB PUSH1 0x4 CALLDATALOAD DUP2 DUP2 GT PUSH2 0x8D6 JUMPI PUSH2 0x1709 SWAP1 CALLDATASIZE SWAP1 PUSH1 0x4 ADD PUSH2 0x1AEA JUMP JUMPDEST SWAP1 PUSH1 0x24 SWAP1 DUP2 CALLDATALOAD DUP2 DUP2 GT PUSH2 0x8D6 JUMPI PUSH2 0x1724 SWAP1 CALLDATASIZE SWAP1 PUSH1 0x4 ADD PUSH2 0x1C3C JUMP JUMPDEST SWAP1 PUSH1 0x44 CALLDATALOAD SWAP1 DUP2 GT PUSH2 0x8D6 JUMPI PUSH2 0x173D SWAP1 CALLDATASIZE SWAP1 PUSH1 0x4 ADD PUSH2 0x1C3C JUMP JUMPDEST PUSH2 0x1754 DUP5 MLOAD DUP4 MLOAD DUP1 SWAP2 EQ SWAP1 DUP2 PUSH2 0x1868 JUMPI JUMPDEST POP PUSH2 0x1EFD JUMP JUMPDEST PUSH1 0x0 JUMPDEST DUP5 MLOAD DUP2 LT ISZERO PUSH2 0x1009 JUMPI PUSH1 0x1 PUSH1 0x1 PUSH1 0xA0 SHL SUB SWAP1 DUP2 PUSH2 0x1774 DUP3 DUP9 PUSH2 0x1F3B JUMP JUMPDEST MLOAD AND SWAP2 PUSH2 0x1781 DUP3 DUP7 PUSH2 0x1F3B JUMP JUMPDEST MLOAD PUSH1 0x40 MLOAD SWAP4 DUP5 SWAP2 PUSH4 0x31A9108F PUSH1 0xE1 SHL DUP4 MSTORE PUSH1 0x4 DUP4 ADD MSTORE DUP2 DUP9 PUSH1 0x20 SWAP4 DUP5 SWAP4 GAS STATICCALL SWAP4 DUP5 ISZERO PUSH2 0x8B2 JUMPI PUSH2 0x1846 SWAP5 PUSH2 0x17C1 SWAP2 PUSH1 0x0 SWAP2 PUSH2 0x184B JUMPI JUMPDEST POP DUP4 AND CALLER EQ PUSH2 0x2144 JUMP JUMPDEST PUSH2 0x17D6 PUSH2 0x17CE DUP5 DUP8 PUSH2 0x1F3B JUMP JUMPDEST MLOAD ISZERO ISZERO PUSH2 0x219C JUMP JUMPDEST PUSH1 0x2 PUSH2 0x17E2 DUP5 DUP8 PUSH2 0x1F3B JUMP JUMPDEST MLOAD SWAP2 PUSH2 0x17EE DUP6 DUP10 PUSH2 0x1F3B JUMP JUMPDEST MLOAD PUSH1 0x0 MSTORE MSTORE PUSH1 0x40 PUSH1 0x0 KECCAK256 SSTORE PUSH2 0x1803 DUP3 DUP9 PUSH2 0x1F3B JUMP JUMPDEST MLOAD AND PUSH2 0x180F DUP3 DUP7 PUSH2 0x1F3B JUMP JUMPDEST MLOAD PUSH2 0x181A DUP4 DUP7 PUSH2 0x1F3B JUMP JUMPDEST MLOAD SWAP2 PUSH32 0xCF5C0BD1DB1BDA5F264BE4F84EE9DCD59F04653CA22197BBF710F2C3BB2B7C76 PUSH1 0x0 DUP1 LOG4 PUSH2 0x1D4E JUMP JUMPDEST PUSH2 0x1757 JUMP JUMPDEST PUSH2 0x1862 SWAP2 POP DUP4 RETURNDATASIZE DUP6 GT PUSH2 0xFAB JUMPI PUSH2 0xF9B DUP2 DUP4 PUSH2 0x1AB2 JUMP JUMPDEST DUP11 PUSH2 0x17B7 JUMP JUMPDEST SWAP1 POP DUP3 MLOAD EQ DUP7 PUSH2 0x174E JUMP JUMPDEST CALLVALUE PUSH2 0x8D6 JUMPI PUSH1 0x80 CALLDATASIZE PUSH1 0x3 NOT ADD SLT PUSH2 0x8D6 JUMPI PUSH2 0x188C PUSH2 0x1A58 JUMP JUMPDEST PUSH1 0x1 PUSH1 0x1 PUSH1 0x40 SHL SUB PUSH1 0x24 DUP1 CALLDATALOAD DUP3 DUP2 GT PUSH2 0x8D6 JUMPI PUSH2 0x18AD SWAP1 CALLDATASIZE SWAP1 PUSH1 0x4 ADD PUSH2 0x1AEA JUMP JUMPDEST SWAP2 PUSH1 0x44 SWAP4 DUP5 CALLDATALOAD DUP3 DUP2 GT PUSH2 0x8D6 JUMPI PUSH2 0x18C8 SWAP1 CALLDATASIZE SWAP1 PUSH1 0x4 ADD PUSH2 0x1BAA JUMP JUMPDEST SWAP2 PUSH1 0x64 CALLDATALOAD SWAP1 DUP2 GT PUSH2 0x8D6 JUMPI PUSH2 0x18E1 SWAP1 CALLDATASIZE SWAP1 PUSH1 0x4 ADD PUSH2 0x1C3C JUMP JUMPDEST SWAP1 PUSH2 0x18FC DUP6 MLOAD DUP5 MLOAD DUP1 SWAP2 EQ SWAP1 DUP2 PUSH2 0x1A4D JUMPI JUMPDEST POP SWAP6 SWAP3 SWAP6 PUSH2 0x1EFD JUMP JUMPDEST PUSH1 0x1 PUSH1 0x1 PUSH1 0xA0 SHL SUB SWAP1 DUP2 AND SWAP2 PUSH1 0x0 JUMPDEST DUP2 MLOAD DUP2 LT ISZERO PUSH2 0x1009 JUMPI PUSH1 0x40 MLOAD PUSH4 0xE00DD161 PUSH1 0xE0 SHL DUP2 MSTORE PUSH1 0x20 SWAP1 DUP2 DUP2 PUSH1 0x4 DUP2 DUP10 GAS STATICCALL SWAP1 DUP2 ISZERO PUSH2 0x8B2 JUMPI PUSH1 0x0 SWAP2 PUSH2 0x1A20 JUMPI JUMPDEST POP PUSH1 0x1 DUP2 ADD DUP1 SWAP2 GT PUSH2 0x1A0B JUMPI DUP6 PUSH32 0xA491B2906955DE9B9A0A0E6D8D87C1688F5207237FE435504138A6B00E7E92E8 PUSH1 0x40 PUSH2 0x1975 DUP7 DUP14 PUSH2 0x1F3B JUMP JUMPDEST MLOAD SWAP5 DUP9 PUSH2 0x1982 DUP9 DUP11 PUSH2 0x1F3B JUMP JUMPDEST MLOAD AND DUP3 MLOAD SWAP2 CALLER DUP4 MSTORE DUP3 ADD MSTORE LOG4 DUP3 PUSH2 0x1999 DUP3 DUP5 PUSH2 0x1F3B JUMP JUMPDEST MLOAD AND SWAP1 PUSH2 0x19A6 DUP2 DUP8 PUSH2 0x1F3B JUMP JUMPDEST MLOAD SWAP2 DUP6 EXTCODESIZE ISZERO PUSH2 0x8D6 JUMPI PUSH2 0x19DC SWAP3 PUSH1 0x0 SWAP2 PUSH1 0x40 MLOAD SWAP5 DUP6 SWAP3 DUP4 SWAP3 PUSH4 0xD0DEF521 PUSH1 0xE0 SHL DUP5 MSTORE PUSH1 0x4 DUP5 ADD MSTORE PUSH1 0x40 DUP13 DUP5 ADD MSTORE DUP14 DUP4 ADD SWAP1 PUSH2 0x1CBD JUMP JUMPDEST SUB DUP2 DUP4 DUP10 GAS CALL SWAP2 DUP3 ISZERO PUSH2 0x8B2 JUMPI PUSH2 0x19F7 SWAP3 PUSH2 0x19FC JUMPI POP PUSH2 0x1D4E JUMP JUMPDEST PUSH2 0x190B JUMP JUMPDEST PUSH2 0x1A05 SWAP1 PUSH2 0x1A6E JUMP JUMPDEST DUP10 PUSH2 0x1622 JUMP JUMPDEST DUP8 PUSH4 0x4E487B71 PUSH1 0xE0 SHL PUSH1 0x0 MSTORE PUSH1 0x11 PUSH1 0x4 MSTORE PUSH1 0x0 REVERT JUMPDEST SWAP1 POP DUP2 DUP2 DUP2 RETURNDATASIZE DUP4 GT PUSH2 0x1A46 JUMPI JUMPDEST PUSH2 0x1A37 DUP2 DUP4 PUSH2 0x1AB2 JUMP JUMPDEST DUP2 ADD SUB SLT PUSH2 0x8D6 JUMPI MLOAD DUP11 PUSH2 0x193B JUMP JUMPDEST POP RETURNDATASIZE PUSH2 0x1A2D JUMP JUMPDEST SWAP1 POP DUP4 MLOAD EQ DUP9 PUSH2 0x18F3 JUMP JUMPDEST PUSH1 0x4 CALLDATALOAD SWAP1 PUSH1 0x1 PUSH1 0x1 PUSH1 0xA0 SHL SUB DUP3 AND DUP3 SUB PUSH2 0x8D6 JUMPI JUMP JUMPDEST PUSH1 0x1 PUSH1 0x1 PUSH1 0x40 SHL SUB DUP2 GT PUSH2 0x1A81 JUMPI PUSH1 0x40 MSTORE JUMP JUMPDEST PUSH4 0x4E487B71 PUSH1 0xE0 SHL PUSH1 0x0 MSTORE PUSH1 0x41 PUSH1 0x4 MSTORE PUSH1 0x24 PUSH1 0x0 REVERT JUMPDEST PUSH1 0x40 DUP2 ADD SWAP1 DUP2 LT PUSH1 0x1 PUSH1 0x1 PUSH1 0x40 SHL SUB DUP3 GT OR PUSH2 0x1A81 JUMPI PUSH1 0x40 MSTORE JUMP JUMPDEST SWAP1 PUSH1 0x1F DUP1 NOT SWAP2 ADD AND DUP2 ADD SWAP1 DUP2 LT PUSH1 0x1 PUSH1 0x1 PUSH1 0x40 SHL SUB DUP3 GT OR PUSH2 0x1A81 JUMPI PUSH1 0x40 MSTORE JUMP JUMPDEST PUSH1 0x1 PUSH1 0x1 PUSH1 0x40 SHL SUB DUP2 GT PUSH2 0x1A81 JUMPI PUSH1 0x5 SHL PUSH1 0x20 ADD SWAP1 JUMP JUMPDEST DUP2 PUSH1 0x1F DUP3 ADD SLT ISZERO PUSH2 0x8D6 JUMPI DUP1 CALLDATALOAD SWAP2 PUSH2 0x1B01 DUP4 PUSH2 0x1AD3 JUMP JUMPDEST SWAP3 PUSH2 0x1B0F PUSH1 0x40 MLOAD SWAP5 DUP6 PUSH2 0x1AB2 JUMP JUMPDEST DUP1 DUP5 MSTORE PUSH1 0x20 SWAP3 DUP4 DUP1 DUP7 ADD SWAP3 PUSH1 0x5 SHL DUP3 ADD ADD SWAP3 DUP4 GT PUSH2 0x8D6 JUMPI DUP4 ADD SWAP1 JUMPDEST DUP3 DUP3 LT PUSH2 0x1B39 JUMPI POP POP POP POP SWAP1 JUMP JUMPDEST DUP2 CALLDATALOAD PUSH1 0x1 PUSH1 0x1 PUSH1 0xA0 SHL SUB DUP2 AND DUP2 SUB PUSH2 0x8D6 JUMPI DUP2 MSTORE SWAP1 DUP4 ADD SWAP1 DUP4 ADD PUSH2 0x1B2B JUMP JUMPDEST PUSH1 0x1 PUSH1 0x1 PUSH1 0x40 SHL SUB DUP2 GT PUSH2 0x1A81 JUMPI PUSH1 0x1F ADD PUSH1 0x1F NOT AND PUSH1 0x20 ADD SWAP1 JUMP JUMPDEST SWAP3 SWAP2 SWAP3 PUSH2 0x1B7F DUP3 PUSH2 0x1B58 JUMP JUMPDEST SWAP2 PUSH2 0x1B8D PUSH1 0x40 MLOAD SWAP4 DUP5 PUSH2 0x1AB2 JUMP JUMPDEST DUP3 SWAP5 DUP2 DUP5 MSTORE DUP2 DUP4 ADD GT PUSH2 0x8D6 JUMPI DUP3 DUP2 PUSH1 0x20 SWAP4 DUP5 PUSH1 0x0 SWAP7 ADD CALLDATACOPY ADD ADD MSTORE JUMP JUMPDEST DUP2 PUSH1 0x1F DUP3 ADD SLT ISZERO PUSH2 0x8D6 JUMPI DUP1 CALLDATALOAD SWAP1 PUSH2 0x1BC1 DUP3 PUSH2 0x1AD3 JUMP JUMPDEST SWAP3 PUSH1 0x40 SWAP3 PUSH2 0x1BD1 DUP5 MLOAD SWAP6 DUP7 PUSH2 0x1AB2 JUMP JUMPDEST DUP1 DUP6 MSTORE PUSH1 0x20 SWAP4 DUP5 DUP1 DUP8 ADD SWAP3 PUSH1 0x5 SHL DUP6 ADD ADD SWAP4 DUP4 DUP6 GT PUSH2 0x8D6 JUMPI DUP6 DUP2 ADD SWAP3 JUMPDEST DUP6 DUP5 LT PUSH2 0x1C00 JUMPI POP POP POP POP POP POP POP SWAP1 JUMP JUMPDEST DUP4 CALLDATALOAD PUSH1 0x1 PUSH1 0x1 PUSH1 0x40 SHL SUB DUP2 GT PUSH2 0x8D6 JUMPI DUP3 ADD DUP6 PUSH1 0x3F DUP3 ADD SLT ISZERO PUSH2 0x8D6 JUMPI DUP8 SWAP2 PUSH2 0x1C31 DUP8 DUP4 DUP8 DUP7 DUP1 SWAP7 ADD CALLDATALOAD SWAP2 ADD PUSH2 0x1B73 JUMP JUMPDEST DUP2 MSTORE ADD SWAP4 ADD SWAP3 PUSH2 0x1BEF JUMP JUMPDEST DUP2 PUSH1 0x1F DUP3 ADD SLT ISZERO PUSH2 0x8D6 JUMPI DUP1 CALLDATALOAD SWAP2 PUSH2 0x1C53 DUP4 PUSH2 0x1AD3 JUMP JUMPDEST SWAP3 PUSH2 0x1C61 PUSH1 0x40 MLOAD SWAP5 DUP6 PUSH2 0x1AB2 JUMP JUMPDEST DUP1 DUP5 MSTORE PUSH1 0x20 SWAP3 DUP4 DUP1 DUP7 ADD SWAP3 PUSH1 0x5 SHL DUP3 ADD ADD SWAP3 DUP4 GT PUSH2 0x8D6 JUMPI DUP4 ADD SWAP1 JUMPDEST DUP3 DUP3 LT PUSH2 0x1C8B JUMPI POP POP POP POP SWAP1 JUMP JUMPDEST DUP2 CALLDATALOAD DUP2 MSTORE SWAP1 DUP4 ADD SWAP1 DUP4 ADD PUSH2 0x1C7D JUMP JUMPDEST PUSH1 0x0 JUMPDEST DUP4 DUP2 LT PUSH2 0x1CAD JUMPI POP POP PUSH1 0x0 SWAP2 ADD MSTORE JUMP JUMPDEST DUP2 DUP2 ADD MLOAD DUP4 DUP3 ADD MSTORE PUSH1 0x20 ADD PUSH2 0x1C9D JUMP JUMPDEST SWAP1 PUSH1 0x20 SWAP2 PUSH2 0x1CD6 DUP2 MLOAD DUP1 SWAP3 DUP2 DUP6 MSTORE DUP6 DUP1 DUP7 ADD SWAP2 ADD PUSH2 0x1C9A JUMP JUMPDEST PUSH1 0x1F ADD PUSH1 0x1F NOT AND ADD ADD SWAP1 JUMP JUMPDEST SWAP1 PUSH1 0x1 DUP3 DUP2 SHR SWAP3 AND DUP1 ISZERO PUSH2 0x1D12 JUMPI JUMPDEST PUSH1 0x20 DUP4 LT EQ PUSH2 0x1CFC JUMPI JUMP JUMPDEST PUSH4 0x4E487B71 PUSH1 0xE0 SHL PUSH1 0x0 MSTORE PUSH1 0x22 PUSH1 0x4 MSTORE PUSH1 0x24 PUSH1 0x0 REVERT JUMPDEST SWAP2 PUSH1 0x7F AND SWAP2 PUSH2 0x1CF1 JUMP JUMPDEST SWAP1 PUSH2 0x1D26 DUP3 PUSH2 0x1B58 JUMP JUMPDEST PUSH2 0x1D33 PUSH1 0x40 MLOAD SWAP2 DUP3 PUSH2 0x1AB2 JUMP JUMPDEST DUP3 DUP2 MSTORE DUP1 SWAP3 PUSH2 0x1D44 PUSH1 0x1F NOT SWAP2 PUSH2 0x1B58 JUMP JUMPDEST ADD SWAP1 PUSH1 0x20 CALLDATASIZE SWAP2 ADD CALLDATACOPY JUMP JUMPDEST PUSH1 0x0 NOT DUP2 EQ PUSH2 0x1D5D JUMPI PUSH1 0x1 ADD SWAP1 JUMP JUMPDEST PUSH4 0x4E487B71 PUSH1 0xE0 SHL PUSH1 0x0 MSTORE PUSH1 0x11 PUSH1 0x4 MSTORE PUSH1 0x24 PUSH1 0x0 REVERT JUMPDEST SWAP1 DUP2 MLOAD DUP2 LT ISZERO PUSH2 0x1D84 JUMPI ADD PUSH1 0x20 ADD SWAP1 JUMP JUMPDEST PUSH4 0x4E487B71 PUSH1 0xE0 SHL PUSH1 0x0 MSTORE PUSH1 0x32 PUSH1 0x4 MSTORE PUSH1 0x24 PUSH1 0x0 REVERT JUMPDEST SWAP2 SWAP1 DUP3 ADD DUP1 SWAP3 GT PUSH2 0x1D5D JUMPI JUMP JUMPDEST DUP1 MLOAD PUSH1 0x1 DUP2 DUP2 SHL PUSH1 0x2 SWAP3 DUP1 DUP3 DIV DUP5 EQ SWAP1 ISZERO OR ISZERO PUSH2 0x1D5D JUMPI PUSH2 0x1DC8 DUP3 SWAP2 PUSH2 0x1D1C JUMP JUMPDEST SWAP4 PUSH1 0x40 MLOAD PUSH2 0x1DD5 DUP2 PUSH2 0x1A97 JUMP JUMPDEST PUSH1 0x10 DUP2 MSTORE PUSH16 0x181899199A1A9B1B9C1CB0B131B232B3 PUSH1 0x81 SHL PUSH1 0x20 DUP3 ADD MSTORE PUSH1 0x0 SWAP3 JUMPDEST PUSH2 0x1E3A JUMPI JUMPDEST POP POP POP POP PUSH1 0x22 PUSH2 0x1E37 SWAP2 PUSH1 0x40 MLOAD DUP1 SWAP5 PUSH2 0x60F PUSH1 0xF3 SHL PUSH1 0x20 DUP4 ADD MSTORE PUSH2 0x1E28 DUP2 MLOAD DUP1 SWAP3 PUSH1 0x20 DUP8 DUP7 ADD SWAP2 ADD PUSH2 0x1C9A JUMP JUMPDEST DUP2 ADD SUB SWAP1 DUP2 ADD DUP5 MSTORE ADD DUP3 PUSH2 0x1AB2 JUMP JUMPDEST SWAP1 JUMP JUMPDEST DUP2 MLOAD DUP4 LT ISZERO PUSH2 0x1EF8 JUMPI PUSH2 0x1E4D DUP4 DUP4 PUSH2 0x1D73 JUMP JUMPDEST MLOAD SWAP3 DUP2 MLOAD DUP1 ISZERO PUSH2 0x1EE2 JUMPI PUSH1 0xF8 SWAP5 PUSH1 0x1 PUSH1 0x1 PUSH1 0xF8 SHL SUB NOT SWAP2 DUP3 SWAP2 PUSH2 0x1E74 SWAP2 SWAP1 DUP9 SHR DIV DUP6 PUSH2 0x1D73 JUMP JUMPDEST MLOAD AND SWAP5 DUP3 DUP8 SHL SWAP6 DUP4 DUP8 DIV DUP10 EQ DUP5 ISZERO OR ISZERO PUSH2 0x1D5D JUMPI PUSH1 0x0 BYTE PUSH2 0x1E95 DUP8 DUP12 PUSH2 0x1D73 JUMP JUMPDEST MSTORE8 PUSH2 0x1EA0 DUP4 DUP7 PUSH2 0x1D73 JUMP JUMPDEST MLOAD SWAP1 SHR DUP4 MLOAD DUP1 ISZERO PUSH2 0x1EE2 JUMPI PUSH2 0x1EB6 SWAP2 MOD DUP5 PUSH2 0x1D73 JUMP JUMPDEST MLOAD AND SWAP1 DUP6 DUP6 ADD DUP1 SWAP6 GT PUSH2 0x1D5D JUMPI DUP6 SWAP5 PUSH2 0x1ED6 PUSH2 0x1EDC SWAP4 PUSH1 0x0 BYTE SWAP2 DUP11 PUSH2 0x1D73 JUMP JUMPDEST MSTORE8 PUSH2 0x1D4E JUMP JUMPDEST SWAP3 PUSH2 0x1DF6 JUMP JUMPDEST PUSH4 0x4E487B71 PUSH1 0xE0 SHL PUSH1 0x0 MSTORE PUSH1 0x12 PUSH1 0x4 MSTORE PUSH1 0x24 PUSH1 0x0 REVERT JUMPDEST PUSH2 0x1DFB JUMP JUMPDEST ISZERO PUSH2 0x1F04 JUMPI JUMP JUMPDEST PUSH1 0x40 MLOAD PUSH3 0x461BCD PUSH1 0xE5 SHL DUP2 MSTORE PUSH1 0x20 PUSH1 0x4 DUP3 ADD MSTORE PUSH1 0xF PUSH1 0x24 DUP3 ADD MSTORE PUSH15 0x6C656E677468206E6F742073616D65 PUSH1 0x88 SHL PUSH1 0x44 DUP3 ADD MSTORE PUSH1 0x64 SWAP1 REVERT JUMPDEST DUP1 MLOAD DUP3 LT ISZERO PUSH2 0x1D84 JUMPI PUSH1 0x20 SWAP2 PUSH1 0x5 SHL ADD ADD SWAP1 JUMP JUMPDEST SWAP1 PUSH1 0x0 SWAP2 PUSH1 0x1 SWAP1 DUP2 SLOAD SWAP2 PUSH2 0x1F62 DUP4 PUSH2 0x1CE2 JUMP JUMPDEST SWAP3 DUP2 DUP2 AND SWAP1 DUP2 ISZERO PUSH2 0x1FCA JUMPI POP PUSH1 0x1 EQ PUSH2 0x1F7A JUMPI POP POP POP JUMP JUMPDEST DUP1 SWAP2 SWAP3 SWAP4 SWAP5 POP PUSH1 0x0 MSTORE PUSH32 0xB10E2D527612073B26EECDFD717E6A320CF44B4AFAC2B0732D9FCBE2B7FA0CF6 SWAP1 PUSH1 0x0 SWAP2 JUMPDEST DUP5 DUP4 LT PUSH2 0x1FB7 JUMPI POP POP POP ADD SWAP1 JUMP JUMPDEST DUP2 DUP2 PUSH1 0x20 SWAP3 SLOAD DUP6 DUP8 ADD MSTORE ADD SWAP3 ADD SWAP2 PUSH2 0x1FA9 JUMP JUMPDEST PUSH1 0xFF NOT AND DUP4 MSTORE POP POP DUP2 ISZERO ISZERO SWAP1 SWAP2 MUL ADD SWAP2 POP JUMP JUMPDEST ISZERO PUSH2 0x1FE4 JUMPI JUMP JUMPDEST PUSH1 0x40 MLOAD PUSH3 0x461BCD PUSH1 0xE5 SHL DUP2 MSTORE PUSH1 0x20 PUSH1 0x4 DUP3 ADD MSTORE PUSH1 0x14 PUSH1 0x24 DUP3 ADD MSTORE PUSH20 0x39BAB838363C903430B9B41034B99032B93937B9 PUSH1 0x61 SHL PUSH1 0x44 DUP3 ADD MSTORE PUSH1 0x64 SWAP1 REVERT JUMPDEST SWAP6 SWAP5 SWAP4 SWAP1 PUSH1 0x80 SWAP4 PUSH2 0x205D SWAP4 PUSH2 0x204F SWAP3 PUSH1 0x1 DUP1 PUSH1 0xA0 SHL SUB AND DUP10 MSTORE PUSH1 0x20 DUP10 ADD MSTORE PUSH1 0xA0 PUSH1 0x40 DUP10 ADD MSTORE PUSH1 0xA0 DUP9 ADD SWAP1 PUSH2 0x1CBD JUMP JUMPDEST SWAP1 DUP7 DUP3 SUB PUSH1 0x60 DUP9 ADD MSTORE PUSH2 0x1CBD JUMP JUMPDEST SWAP4 ADD MSTORE JUMP JUMPDEST SWAP2 SWAP1 DUP3 SUB SWAP2 DUP3 GT PUSH2 0x1D5D JUMPI JUMP JUMPDEST DUP1 ISZERO PUSH2 0x2107 JUMPI DUP1 DUP2 PUSH1 0x0 SWAP3 JUMPDEST PUSH2 0x20F3 JUMPI POP DUP1 PUSH2 0x208A DUP4 PUSH2 0x1D1C JUMP JUMPDEST SWAP3 SWAP2 JUMPDEST PUSH2 0x2096 JUMPI POP POP SWAP1 JUMP JUMPDEST PUSH1 0x0 NOT DUP3 ADD SWAP2 DUP3 GT PUSH2 0x1D5D JUMPI DUP2 PUSH1 0xA DUP1 DUP4 DIV SWAP3 DUP2 DUP5 MUL SWAP2 DUP5 DUP4 DIV EQ DUP5 ISZERO OR ISZERO PUSH2 0x1D5D JUMPI PUSH2 0x20C6 PUSH1 0xFF SWAP3 DUP4 SWAP3 PUSH2 0x2062 JUMP JUMPDEST AND PUSH1 0x30 ADD SWAP1 DUP2 GT PUSH2 0x1D5D JUMPI PUSH1 0xF8 SHL PUSH1 0x1 PUSH1 0x1 PUSH1 0xF8 SHL SUB NOT AND PUSH1 0x0 BYTE SWAP1 PUSH2 0x20EC SWAP1 DUP6 PUSH2 0x1D73 JUMP JUMPDEST MSTORE8 DUP1 PUSH2 0x208D JUMP JUMPDEST SWAP2 PUSH2 0x20FF PUSH1 0xA SWAP2 PUSH2 0x1D4E JUMP JUMPDEST SWAP3 DIV DUP1 PUSH2 0x207B JUMP JUMPDEST POP PUSH1 0x40 MLOAD PUSH2 0x2114 DUP2 PUSH2 0x1A97 JUMP JUMPDEST PUSH1 0x1 DUP2 MSTORE PUSH1 0x3 PUSH1 0xFC SHL PUSH1 0x20 DUP3 ADD MSTORE SWAP1 JUMP JUMPDEST SWAP1 DUP2 PUSH1 0x20 SWAP2 SUB SLT PUSH2 0x8D6 JUMPI MLOAD PUSH1 0x1 PUSH1 0x1 PUSH1 0xA0 SHL SUB DUP2 AND DUP2 SUB PUSH2 0x8D6 JUMPI SWAP1 JUMP JUMPDEST ISZERO PUSH2 0x214B JUMPI JUMP JUMPDEST PUSH1 0x40 MLOAD PUSH3 0x461BCD PUSH1 0xE5 SHL DUP2 MSTORE PUSH1 0x20 PUSH1 0x4 DUP3 ADD MSTORE PUSH1 0x24 DUP1 DUP3 ADD MSTORE PUSH32 0x5065726D697373696F6E2064656E6965643A6E66742069742773206E6F742079 PUSH1 0x44 DUP3 ADD MSTORE PUSH4 0x6F757273 PUSH1 0xE0 SHL PUSH1 0x64 DUP3 ADD MSTORE PUSH1 0x84 SWAP1 REVERT JUMPDEST ISZERO PUSH2 0x21A3 JUMPI JUMP JUMPDEST PUSH1 0x40 MLOAD PUSH3 0x461BCD PUSH1 0xE5 SHL DUP2 MSTORE PUSH1 0x20 PUSH1 0x4 DUP3 ADD MSTORE PUSH1 0x1A PUSH1 0x24 DUP3 ADD MSTORE PUSH32 0x7072696365206D757374206D6F7265207468616E207468652030000000000000 PUSH1 0x44 DUP3 ADD MSTORE PUSH1 0x64 SWAP1 REVERT INVALID LOG2 PUSH5 0x6970667358 0x22 SLT KECCAK256 0xCB SWAP1 DUP13 0x5D DUP5 0x4D 0xC9 CREATE RETURNDATASIZE PUSH15 0xE5D161FDF30FAFADFE3F5ADD015424 0xAC AND SSTORE 0xEF 0xEE SWAP1 NUMBER PUSH5 0x736F6C6343 STOP ADDMOD GT STOP CALLER "},"methodIdentifiers":{"batchAll(address[],uint256[],string[],string[],address[],address[],uint256[],uint256[],string[],string[],uint256[],uint256[],string[])":"df36914a","batchLockt1155(address,address[],uint256[],string[],string[],uint256[],uint256[],string[])":"4aa099a3","batchMint721(address,address[],string[],uint256[])":"1546f67f","batchSell(address[],uint256[],uint256[])":"3edbed19","bytesToHex(bytes)":"451d89fa","cancelSell(address,uint256)":"aa6ecb55","sell(address,uint256,uint256)":"6a272462","version()":"54fd4d50"}}}}}