{
  "_format": "hh-sol-artifact-1",
  "contractName": "Erc1155",
  "sourceName": "contracts/Erc1155.sol",
  "abi": [
    {
      "inputs": [
        {
          "internalType": "string",
          "name": "__verison",
          "type": "string"
        },
        {
          "internalType": "address",
          "name": "__robot",
          "type": "address"
        }
      ],
      "stateMutability": "nonpayable",
      "type": "constructor"
    },
    {
      "anonymous": false,
      "inputs": [
        {
          "indexed": true,
          "internalType": "address",
          "name": "account",
          "type": "address"
        },
        {
          "indexed": true,
          "internalType": "address",
          "name": "operator",
          "type": "address"
        },
        {
          "indexed": false,
          "internalType": "bool",
          "name": "approved",
          "type": "bool"
        }
      ],
      "name": "ApprovalForAll",
      "type": "event"
    },
    {
      "anonymous": false,
      "inputs": [
        {
          "indexed": true,
          "internalType": "address",
          "name": "account",
          "type": "address"
        },
        {
          "indexed": true,
          "internalType": "uint8",
          "name": "rate",
          "type": "uint8"
        }
      ],
      "name": "Creator",
      "type": "event"
    },
    {
      "anonymous": false,
      "inputs": [
        {
          "indexed": true,
          "internalType": "address",
          "name": "previousOwner",
          "type": "address"
        },
        {
          "indexed": true,
          "internalType": "address",
          "name": "newOwner",
          "type": "address"
        }
      ],
      "name": "OwnershipTransferred",
      "type": "event"
    },
    {
      "anonymous": false,
      "inputs": [
        {
          "indexed": true,
          "internalType": "address",
          "name": "operator",
          "type": "address"
        },
        {
          "indexed": true,
          "internalType": "address",
          "name": "from",
          "type": "address"
        },
        {
          "indexed": true,
          "internalType": "address",
          "name": "to",
          "type": "address"
        },
        {
          "indexed": false,
          "internalType": "uint256[]",
          "name": "ids",
          "type": "uint256[]"
        },
        {
          "indexed": false,
          "internalType": "uint256[]",
          "name": "values",
          "type": "uint256[]"
        }
      ],
      "name": "TransferBatch",
      "type": "event"
    },
    {
      "anonymous": false,
      "inputs": [
        {
          "indexed": true,
          "internalType": "address",
          "name": "operator",
          "type": "address"
        },
        {
          "indexed": true,
          "internalType": "address",
          "name": "from",
          "type": "address"
        },
        {
          "indexed": true,
          "internalType": "address",
          "name": "to",
          "type": "address"
        },
        {
          "indexed": false,
          "internalType": "uint256",
          "name": "id",
          "type": "uint256"
        },
        {
          "indexed": false,
          "internalType": "uint256",
          "name": "value",
          "type": "uint256"
        }
      ],
      "name": "TransferSingle",
      "type": "event"
    },
    {
      "anonymous": false,
      "inputs": [
        {
          "indexed": false,
          "internalType": "string",
          "name": "value",
          "type": "string"
        },
        {
          "indexed": true,
          "internalType": "uint256",
          "name": "id",
          "type": "uint256"
        }
      ],
      "name": "URI",
      "type": "event"
    },
    {
      "inputs": [
        {
          "internalType": "address",
          "name": "account",
          "type": "address"
        },
        {
          "internalType": "uint256",
          "name": "id",
          "type": "uint256"
        }
      ],
      "name": "balanceOf",
      "outputs": [
        {
          "internalType": "uint256",
          "name": "",
          "type": "uint256"
        }
      ],
      "stateMutability": "view",
      "type": "function"
    },
    {
      "inputs": [
        {
          "internalType": "address[]",
          "name": "accounts",
          "type": "address[]"
        },
        {
          "internalType": "uint256[]",
          "name": "ids",
          "type": "uint256[]"
        }
      ],
      "name": "balanceOfBatch",
      "outputs": [
        {
          "internalType": "uint256[]",
          "name": "",
          "type": "uint256[]"
        }
      ],
      "stateMutability": "view",
      "type": "function"
    },
    {
      "inputs": [],
      "name": "getRobot",
      "outputs": [
        {
          "internalType": "address",
          "name": "",
          "type": "address"
        }
      ],
      "stateMutability": "view",
      "type": "function"
    },
    {
      "inputs": [
        {
          "internalType": "address",
          "name": "account",
          "type": "address"
        },
        {
          "internalType": "address",
          "name": "operator",
          "type": "address"
        }
      ],
      "name": "isApprovedForAll",
      "outputs": [
        {
          "internalType": "bool",
          "name": "",
          "type": "bool"
        }
      ],
      "stateMutability": "view",
      "type": "function"
    },
    {
      "inputs": [
        {
          "internalType": "address",
          "name": "to",
          "type": "address"
        },
        {
          "internalType": "uint256",
          "name": "tokenId",
          "type": "uint256"
        },
        {
          "internalType": "string",
          "name": "name",
          "type": "string"
        },
        {
          "internalType": "string",
          "name": "tokenURI",
          "type": "string"
        },
        {
          "internalType": "uint256",
          "name": "amount",
          "type": "uint256"
        }
      ],
      "name": "mint",
      "outputs": [],
      "stateMutability": "nonpayable",
      "type": "function"
    },
    {
      "inputs": [],
      "name": "owner",
      "outputs": [
        {
          "internalType": "address",
          "name": "",
          "type": "address"
        }
      ],
      "stateMutability": "view",
      "type": "function"
    },
    {
      "inputs": [],
      "name": "renounceOwnership",
      "outputs": [],
      "stateMutability": "nonpayable",
      "type": "function"
    },
    {
      "inputs": [
        {
          "internalType": "address",
          "name": "from",
          "type": "address"
        },
        {
          "internalType": "address",
          "name": "to",
          "type": "address"
        },
        {
          "internalType": "uint256[]",
          "name": "ids",
          "type": "uint256[]"
        },
        {
          "internalType": "uint256[]",
          "name": "amounts",
          "type": "uint256[]"
        },
        {
          "internalType": "bytes",
          "name": "data",
          "type": "bytes"
        }
      ],
      "name": "safeBatchTransferFrom",
      "outputs": [],
      "stateMutability": "nonpayable",
      "type": "function"
    },
    {
      "inputs": [
        {
          "internalType": "address",
          "name": "from",
          "type": "address"
        },
        {
          "internalType": "address",
          "name": "to",
          "type": "address"
        },
        {
          "internalType": "uint256",
          "name": "id",
          "type": "uint256"
        },
        {
          "internalType": "uint256",
          "name": "amount",
          "type": "uint256"
        },
        {
          "internalType": "bytes",
          "name": "data",
          "type": "bytes"
        }
      ],
      "name": "safeTransferFrom",
      "outputs": [],
      "stateMutability": "nonpayable",
      "type": "function"
    },
    {
      "inputs": [
        {
          "internalType": "address",
          "name": "operator",
          "type": "address"
        },
        {
          "internalType": "bool",
          "name": "approved",
          "type": "bool"
        }
      ],
      "name": "setApprovalForAll",
      "outputs": [],
      "stateMutability": "nonpayable",
      "type": "function"
    },
    {
      "inputs": [
        {
          "internalType": "uint256",
          "name": "tokenId",
          "type": "uint256"
        },
        {
          "internalType": "string",
          "name": "tokenURI",
          "type": "string"
        }
      ],
      "name": "setURI",
      "outputs": [],
      "stateMutability": "nonpayable",
      "type": "function"
    },
    {
      "inputs": [
        {
          "internalType": "bytes4",
          "name": "interfaceId",
          "type": "bytes4"
        }
      ],
      "name": "supportsInterface",
      "outputs": [
        {
          "internalType": "bool",
          "name": "",
          "type": "bool"
        }
      ],
      "stateMutability": "view",
      "type": "function"
    },
    {
      "inputs": [
        {
          "internalType": "address",
          "name": "newOwner",
          "type": "address"
        }
      ],
      "name": "transferOwnership",
      "outputs": [],
      "stateMutability": "nonpayable",
      "type": "function"
    },
    {
      "inputs": [
        {
          "internalType": "uint256",
          "name": "tokenId",
          "type": "uint256"
        }
      ],
      "name": "uri",
      "outputs": [
        {
          "internalType": "string",
          "name": "",
          "type": "string"
        }
      ],
      "stateMutability": "view",
      "type": "function"
    },
    {
      "inputs": [],
      "name": "version",
      "outputs": [
        {
          "internalType": "string",
          "name": "",
          "type": "string"
        }
      ],
      "stateMutability": "view",
      "type": "function"
    }
  ],
  "bytecode": "0x608060405234620002c35762001da1803803806200001d81620002dd565b928339810190604081830312620002c35780516001600160401b0390818111620002c357820190601f848184011215620002c3578251938285116200026557602094601f19946200007484830187168801620002dd565b97828952878383010111620002c3579086929160005b828110620002c8575050600090880183015201516001600160a01b038082169590949091869003620002c3576040518281019080821086831117620002655760009160405252620000dd60025462000303565b8381116200029f575b506000600255620000f960035462000303565b8381116200027b575b50600060035560055460018060a01b03199533878316176005553391167f8be0079c531659141344cd1fd0a4f28419497f9722a3daafe3b4186f6b6457e0600080a3865193841162000265576200015b60065462000303565b83811162000227575b5081928411600114620001ba57505081929394600092620001ae575b50508160011b916000199060031b1c1916176006555b6008541617600855604051611a4790816200035a8239f35b01519050388062000180565b839291921695600660005282600020926000905b8882106200020e57505083600195969710620001f4575b505050811b0160065562000196565b015160001960f88460031b161c19169055388080620001e5565b80600185968294968601518155019501930190620001ce565b62000254906006600052836000208580880160051c8201928689106200025b575b0160051c019062000340565b3862000164565b9250819262000248565b634e487b7160e01b600052604160045260246000fd5b620002989060036000528484600020910160051c81019062000340565b3862000102565b620002bc9060026000528484600020910160051c81019062000340565b38620000e6565b600080fd5b8181018501518a82018601528894016200008a565b6040519190601f01601f191682016001600160401b038111838210176200026557604052565b90600182811c9216801562000335575b60208310146200031f57565b634e487b7160e01b600052602260045260246000fd5b91607f169162000313565b8181106200034c575050565b600081556001016200034056fe6040608081526004908136101561001557600080fd5b600091823560e01c8062fdd58e1461100b57806301ffc9a714610f9e5780630e89341c14610f6a5780632eb2c2d614610c795780633f8a4d6714610c505780634e1273f414610ab757806354fd4d50146109ce578063715018a61461096e578063862440e2146109305780638da5cb5b14610907578063a22cb4651461082a578063af72bd911461042f578063e985e9c5146103f4578063f242432a146101935763f2fde38b146100c557600080fd5b3461018f57602036600319011261018f576100de61103b565b906100e76111ed565b6001600160a01b0391821692831561013d575050600554826bffffffffffffffffffffffff60a01b821617600555167f8be0079c531659141344cd1fd0a4f28419497f9722a3daafe3b4186f6b6457e08380a380f35b906020608492519162461bcd60e51b8352820152602660248201527f4f776e61626c653a206e6577206f776e657220697320746865207a65726f206160448201526564647265737360d01b6064820152fd5b8280fd5b50903461018f5760a036600319011261018f576101ae61103b565b836101b7611056565b916044359060643560843567ffffffffffffffff81116103f0576101de9036908901611162565b926001600160a01b0383811693610200903386149081156103de575b50611319565b86169061020e82151561137d565b61021781611591565b5061022183611591565b5080865260209686885288872085885288528389882054610244828210156113d7565b838952888a528a8920878a528a5203898820558187528688528887208388528852888720610273858254611436565b905582858a51848152868b8201527fc3d58168c5ae7397731d063d5bbf3d657854427343f4c083240f7aacaa2d0f628c3392a43b6102af578580f35b889587946102f08a519788968795869463f23a6e6160e01b9c8d8752339087015260248601526044850152606484015260a0608484015260a483019061108f565b03925af18691816103af575b5061037e57505060019061030e6114ac565b6308c379a01461034b575b5061032e5750505b3880808381808080808580f35b5162461bcd60e51b81529150819061034790820161153c565b0390fd5b6103536114ca565b8061035e5750610319565b6103478591855193849362461bcd60e51b8552840152602483019061108f565b6001600160e01b031916039050610396575050610321565b5162461bcd60e51b815291508190610347908201611463565b6103d0919250843d86116103d7575b6103c881836110b4565b810190611443565b90386102fc565b503d6103be565b6103ea915033906119cf565b386101fa565b8480fd5b50503461042b578060031936011261042b5760209061042261041461103b565b61041c611056565b906119cf565b90519015158152f35b5080fd5b5082903461042b5760a036600319011261042b5761044b61103b565b602480359467ffffffffffffffff929190604435848111610826576104739036908701611162565b966064358581116108225761048b9036908801611162565b6084359461049883611790565b957fc5d2460186f7233c927e7db2dcc703c0e500b653ca82273b7bfad8045d85a4708551976020986104e68a82816104d9818301968781519384920161106c565b81010380845201826110b4565b5190200361081e578451918783018381108a82111761080c5786528a83526001600160a01b0381169081156107c05791818b94938a938e6105268a611591565b5061053085611591565b508981528086528a812082825286528a812061054d868254611436565b90558a518a815285878201527fc3d58168c5ae7397731d063d5bbf3d657854427343f4c083240f7aacaa2d0f628c3392a43b6106ab575b50505050506105939082611601565b865260098352852093865193841161069a5750506105b183546115c7565b601f8111610657575b5080601f83116001146105f557508394829394926105ea575b50508160011b916000199060031b1c191617905580f35b0151905084806105d3565b90601f198316958486528286209286905b88821061063f57505083600195969710610626575b505050811b01905580f35b015160001960f88460031b161c1916905584808061061b565b80600185968294968601518155019501930190610606565b838552818520601f840160051c810191838510610690575b601f0160051c01905b81811061068557506105ba565b858155600101610678565b909150819061066f565b634e487b7160e01b86526041905284fd5b8c808a6106ea8b519788968795869463f23a6e6160e01b9c8d875233908701528501528c6044850152606484015260a0608484015260a483019061108f565b03925af18a91816107a1575b5061077257505060016107076114ac565b6308c379a01461073e575b61072757610593905b9050868a868180610584565b825162461bcd60e51b815280610347818a0161153c565b6107466114ca565b806107515750610712565b845162461bcd60e51b8152808a01889052908190610347908289019061108f565b6001600160e01b0319160361078a576105939061071b565b825162461bcd60e51b815280610347818a01611463565b6107b9919250883d8a116103d7576103c881836110b4565b908c6106f6565b865162461bcd60e51b8152808c018a90526021818a01527f455243313135353a206d696e7420746f20746865207a65726f206164647265736044820152607360f81b6064820152608490fd5b634e487b7160e01b8c5260418b52878cfd5b8980fd5b8780fd5b8680fd5b50903461018f578060031936011261018f5761084461103b565b90602435918215158093036103f0576001600160a01b0316923384146108b35750338452600160205280842083855260205280842060ff1981541660ff8416179055519081527f17307eab39ab6107e8899845ad3d59bd9653f200f220920489ca2b5937696c3160203392a380f35b6020608492519162461bcd60e51b8352820152602960248201527f455243313135353a2073657474696e6720617070726f76616c20737461747573604482015268103337b91039b2b63360b91b6064820152fd5b50503461042b578160031936011261042b5760055490516001600160a01b039091168152602090f35b50903461018f5736600319011261042b576024359067ffffffffffffffff821161018f5761096461096b9236908301611162565b9035611601565b80f35b83346109cb57806003193601126109cb576109876111ed565b600580546001600160a01b0319811690915581906001600160a01b03167f8be0079c531659141344cd1fd0a4f28419497f9722a3daafe3b4186f6b6457e08280a380f35b80fd5b50503461042b578160031936011261042b57805190826006546109f0816115c7565b80855291600191808316908115610a8f5750600114610a32575b505050610a1c82610a2e9403836110b4565b5191829160208352602083019061108f565b0390f35b9450600685527ff652222313e28459528d920b65115c16c04f3efc82aaedc97be59f3f377c0d3f5b828610610a7757505050610a1c826020610a2e9582010194610a0a565b80546020878701810191909152909501948101610a5a565b610a2e975086935060209250610a1c94915060ff191682840152151560051b82010194610a0a565b503461018f578160031936011261018f57803567ffffffffffffffff8082116103f057366023830112156103f0578183013590610af3826110ec565b92610b00865194856110b4565b82845260209260248486019160051b83010191368311610c4c57602401905b828210610c2d57505050602435908111610c2957610b409036908501611104565b928251845103610bd65750815194610b57866110ec565b95610b64865197886110b4565b808752610b73601f19916110ec565b0136838801375b8251811015610bc457610bbf90610baf6001600160a01b03610b9c83876112ef565b5116610ba883886112ef565b5190611245565b610bb982896112ef565b526112ca565b610b7a565b845182815280610a2e818501896111b9565b60849185519162461bcd60e51b8352820152602960248201527f455243313135353a206163636f756e747320616e6420696473206c656e677468604482015268040dad2e6dac2e8c6d60bb1b6064820152fd5b8580fd5b81356001600160a01b038116810361081e578152908401908401610b1f565b8880fd5b50503461042b578160031936011261042b5760085490516001600160a01b039091168152602090f35b503461018f576003199160a036840112610f6657610c9561103b565b92610c9e611056565b9367ffffffffffffffff9360443585811161082257610cc09036908301611104565b90606435868111610c4c57610cd89036908301611104565b95608435908111610c4c57610cf09036908301611162565b936001600160a01b0384811694610d11903387149081156103de5750611319565b8351885103610f1257881694610d2886151561137d565b895b8a8551821015610dae579089610da28a610da994610d5385610d4c818d6112ef565b51956112ef565b51938082526020908282528383208d84528252858d8585205490610d79838310156113d7565b838652858552868620908652845203848420558252818152828220908d83525220918254611436565b90556112ca565b610d2a565b50509094939596929197848789518a81527f4a39dc06d4c0dbc64b70af90fd698a233a518aa5d07e595d983b8c0526c8f7fb610dec8c8301886111b9565b91808303602082015280610e0133948b6111b9565b0390a43b610e0d578880f35b8651948593849363bc197c8160e01b98898652338c87015260248601526044850160a0905260a48501610e3f916111b9565b82858203016064860152610e52916111b9565b90838203016084840152610e659161108f565b0381885a94602095f1859181610ef2575b50610edc5750506001610e876114ac565b6308c379a014610ea5575b61032e5750505b38808080808080808880f35b610ead6114ca565b80610eb85750610e92565b905061034791602094505193849362461bcd60e51b8552840152602483019061108f565b6001600160e01b03191603610396575050610e99565b610f0b91925060203d81116103d7576103c881836110b4565b9038610e76565b865162461bcd60e51b8152602081850152602860248201527f455243313135353a2069647320616e6420616d6f756e7473206c656e677468206044820152670dad2e6dac2e8c6d60c31b6064820152608490fd5b8380fd5b5091346109cb5760203660031901126109cb5750610f8b610a2e9235611790565b905191829160208352602083019061108f565b503461018f57602036600319011261018f57359063ffffffff60e01b821680920361018f5760209250636cdb3d1360e11b8214918215610ffa575b8215610fe9575b50519015158152f35b6301ffc9a760e01b14915038610fe0565b6303a24d0760e21b81149250610fd9565b50503461042b578060031936011261042b5760209061103461102b61103b565b60243590611245565b9051908152f35b600435906001600160a01b038216820361105157565b600080fd5b602435906001600160a01b038216820361105157565b60005b83811061107f5750506000910152565b818101518382015260200161106f565b906020916110a88151809281855285808601910161106c565b601f01601f1916010190565b90601f8019910116810190811067ffffffffffffffff8211176110d657604052565b634e487b7160e01b600052604160045260246000fd5b67ffffffffffffffff81116110d65760051b60200190565b81601f820112156110515780359161111b836110ec565b9261112960405194856110b4565b808452602092838086019260051b820101928311611051578301905b828210611153575050505090565b81358152908301908301611145565b81601f820112156110515780359067ffffffffffffffff82116110d65760405192611197601f8401601f1916602001856110b4565b8284526020838301011161105157816000926020809301838601378301015290565b90815180825260208080930193019160005b8281106111d9575050505090565b8351855293810193928101926001016111cb565b6005546001600160a01b0316330361120157565b606460405162461bcd60e51b815260206004820152602060248201527f4f776e61626c653a2063616c6c6572206973206e6f7420746865206f776e65726044820152fd5b6001600160a01b031690811561127257600052600060205260406000209060005260205260406000205490565b60405162461bcd60e51b815260206004820152602a60248201527f455243313135353a2061646472657373207a65726f206973206e6f742061207660448201526930b634b21037bbb732b960b11b6064820152608490fd5b60001981146112d95760010190565b634e487b7160e01b600052601160045260246000fd5b80518210156113035760209160051b010190565b634e487b7160e01b600052603260045260246000fd5b1561132057565b60405162461bcd60e51b815260206004820152602f60248201527f455243313135353a2063616c6c6572206973206e6f7420746f6b656e206f776e60448201526e195c881b9bdc88185c1c1c9bdd9959608a1b6064820152608490fd5b1561138457565b60405162461bcd60e51b815260206004820152602560248201527f455243313135353a207472616e7366657220746f20746865207a65726f206164604482015264647265737360d81b6064820152608490fd5b156113de57565b60405162461bcd60e51b815260206004820152602a60248201527f455243313135353a20696e73756666696369656e742062616c616e636520666f60448201526939103a3930b739b332b960b11b6064820152608490fd5b919082018092116112d957565b9081602091031261105157516001600160e01b0319811681036110515790565b60809060208152602860208201527f455243313135353a204552433131353552656365697665722072656a656374656040820152676420746f6b656e7360c01b60608201520190565b60009060033d116114b957565b905060046000803e60005160e01c90565b600060443d1061152857604051600319913d83016004833e815167ffffffffffffffff918282113d60248401111761152b57818401948551938411611533573d8501016020848701011161152b5750611528929101602001906110b4565b90565b949350505050565b50949350505050565b60809060208152603460208201527f455243313135353a207472616e7366657220746f206e6f6e20455243313135356040820152732932b1b2b4bb32b91034b6b83632b6b2b73a32b960611b60608201520190565b604051906040820182811067ffffffffffffffff8211176110d65760405260018252602082016020368237825115611303575290565b90600182811c921680156115f7575b60208310146115e157565b634e487b7160e01b600052602260045260246000fd5b91607f16916115d6565b90600082815260209060048252604081209083519067ffffffffffffffff821161177c5761162f83546115c7565b601f8111611739575b508390601f83116001146116b257907f6bb7ff708619ba0610cba295a58592e0451dee2622938c8755667688daf3529b95836116a7575b50508160011b916000199060031b1c19161790555b61168d83611790565b906116a260405192828493845283019061108f565b0390a2565b01519050388061166f565b91929394601f198416858452868420935b81811061172257509160019391857f6bb7ff708619ba0610cba295a58592e0451dee2622938c8755667688daf3529b9897969410611709575b505050811b019055611684565b015160001960f88460031b161c191690553880806116fc565b9293876001819287860151815501950193016116c3565b838252848220601f840160051c810191868510611772575b601f0160051c01905b8181106117675750611638565b82815560010161175a565b9091508190611751565b634e487b7160e01b81526041600452602490fd5b6000908152602090600482526040812090604051908091835492816117b4856115c7565b91828252878201966001968988821691826000146119b1575050600114611973575b506117e3925003826110b4565b8051156118b85760405194859383600354916117fe836115c7565b928181169081156118975750600114611837575b505050506118286115289483925193849161106c565b0103601f1981018352826110b4565b909192969450600382527fc2575a0e9e593c00f959f8c92f12db2869c3395a3b0502d05e2516446f71f85b5b83831061188157505050611528946118289185010192943880611812565b8054898401890152889650918701918101611863565b60ff1916888601525050508015150284010191506118286115283880611812565b50604051600254909493508492826118cf836115c7565b8086529282811690811561195157506001146118f5575b505050611528925003826110b4565b600281527f405787fa12a823e0f2b7631cc41b3ba8828b3321ca811111fa75cd3aa3bb5ace95935091905b81831061193957505061152893508201013880806118e6565b85548784018501529485019486945091830191611920565b9250505061152894925060ff191682840152151560051b8201013880806118e6565b915050835281868085208686915b8583106119985750506117e39350820101386117d6565b8091929450548385880101520191018790868593611981565b60ff19168a526117e395151560051b85010192503891506117d69050565b6008546001600160a01b03928316929190821683036119f057505050600190565b16600052600160205260406000209060005260205260ff604060002054169056fea2646970667358221220263a218d5cda9567e3945d07966d6311b0550e4656742758ae6d126547c4f65064736f6c63430008110033",
  "linkReferences": {},
  "deployedLinkReferences": {}
}