{
  "_format": "hh-sol-artifact-1",
  "contractName": "Erc1155",
  "sourceName": "contracts/Erc1155.sol",
  "abi": [
    {
      "inputs": [
        {
          "internalType": "string",
          "name": "__verison",
          "type": "string"
        },
        {
          "internalType": "address",
          "name": "__robot",
          "type": "address"
        }
      ],
      "stateMutability": "nonpayable",
      "type": "constructor"
    },
    {
      "anonymous": false,
      "inputs": [
        {
          "indexed": true,
          "internalType": "address",
          "name": "account",
          "type": "address"
        },
        {
          "indexed": true,
          "internalType": "address",
          "name": "operator",
          "type": "address"
        },
        {
          "indexed": false,
          "internalType": "bool",
          "name": "approved",
          "type": "bool"
        }
      ],
      "name": "ApprovalForAll",
      "type": "event"
    },
    {
      "anonymous": false,
      "inputs": [
        {
          "indexed": true,
          "internalType": "address",
          "name": "account",
          "type": "address"
        },
        {
          "indexed": true,
          "internalType": "uint8",
          "name": "rate",
          "type": "uint8"
        }
      ],
      "name": "Creator",
      "type": "event"
    },
    {
      "anonymous": false,
      "inputs": [
        {
          "indexed": true,
          "internalType": "address",
          "name": "previousOwner",
          "type": "address"
        },
        {
          "indexed": true,
          "internalType": "address",
          "name": "newOwner",
          "type": "address"
        }
      ],
      "name": "OwnershipTransferred",
      "type": "event"
    },
    {
      "anonymous": false,
      "inputs": [
        {
          "indexed": true,
          "internalType": "address",
          "name": "operator",
          "type": "address"
        },
        {
          "indexed": true,
          "internalType": "address",
          "name": "from",
          "type": "address"
        },
        {
          "indexed": true,
          "internalType": "address",
          "name": "to",
          "type": "address"
        },
        {
          "indexed": false,
          "internalType": "uint256[]",
          "name": "ids",
          "type": "uint256[]"
        },
        {
          "indexed": false,
          "internalType": "uint256[]",
          "name": "values",
          "type": "uint256[]"
        }
      ],
      "name": "TransferBatch",
      "type": "event"
    },
    {
      "anonymous": false,
      "inputs": [
        {
          "indexed": true,
          "internalType": "address",
          "name": "operator",
          "type": "address"
        },
        {
          "indexed": true,
          "internalType": "address",
          "name": "from",
          "type": "address"
        },
        {
          "indexed": true,
          "internalType": "address",
          "name": "to",
          "type": "address"
        },
        {
          "indexed": false,
          "internalType": "uint256",
          "name": "id",
          "type": "uint256"
        },
        {
          "indexed": false,
          "internalType": "uint256",
          "name": "value",
          "type": "uint256"
        }
      ],
      "name": "TransferSingle",
      "type": "event"
    },
    {
      "anonymous": false,
      "inputs": [
        {
          "indexed": false,
          "internalType": "string",
          "name": "value",
          "type": "string"
        },
        {
          "indexed": true,
          "internalType": "uint256",
          "name": "id",
          "type": "uint256"
        }
      ],
      "name": "URI",
      "type": "event"
    },
    {
      "inputs": [
        {
          "internalType": "address",
          "name": "account",
          "type": "address"
        },
        {
          "internalType": "uint256",
          "name": "id",
          "type": "uint256"
        }
      ],
      "name": "balanceOf",
      "outputs": [
        {
          "internalType": "uint256",
          "name": "",
          "type": "uint256"
        }
      ],
      "stateMutability": "view",
      "type": "function"
    },
    {
      "inputs": [
        {
          "internalType": "address[]",
          "name": "accounts",
          "type": "address[]"
        },
        {
          "internalType": "uint256[]",
          "name": "ids",
          "type": "uint256[]"
        }
      ],
      "name": "balanceOfBatch",
      "outputs": [
        {
          "internalType": "uint256[]",
          "name": "",
          "type": "uint256[]"
        }
      ],
      "stateMutability": "view",
      "type": "function"
    },
    {
      "inputs": [],
      "name": "getRobot",
      "outputs": [
        {
          "internalType": "address",
          "name": "",
          "type": "address"
        }
      ],
      "stateMutability": "view",
      "type": "function"
    },
    {
      "inputs": [
        {
          "internalType": "address",
          "name": "account",
          "type": "address"
        },
        {
          "internalType": "address",
          "name": "operator",
          "type": "address"
        }
      ],
      "name": "isApprovedForAll",
      "outputs": [
        {
          "internalType": "bool",
          "name": "",
          "type": "bool"
        }
      ],
      "stateMutability": "view",
      "type": "function"
    },
    {
      "inputs": [
        {
          "internalType": "address",
          "name": "to",
          "type": "address"
        },
        {
          "internalType": "uint256",
          "name": "tokenId",
          "type": "uint256"
        },
        {
          "internalType": "string",
          "name": "name",
          "type": "string"
        },
        {
          "internalType": "string",
          "name": "tokenURI",
          "type": "string"
        },
        {
          "internalType": "uint256",
          "name": "amount",
          "type": "uint256"
        }
      ],
      "name": "mint",
      "outputs": [],
      "stateMutability": "nonpayable",
      "type": "function"
    },
    {
      "inputs": [],
      "name": "owner",
      "outputs": [
        {
          "internalType": "address",
          "name": "",
          "type": "address"
        }
      ],
      "stateMutability": "view",
      "type": "function"
    },
    {
      "inputs": [],
      "name": "renounceOwnership",
      "outputs": [],
      "stateMutability": "nonpayable",
      "type": "function"
    },
    {
      "inputs": [
        {
          "internalType": "address",
          "name": "from",
          "type": "address"
        },
        {
          "internalType": "address",
          "name": "to",
          "type": "address"
        },
        {
          "internalType": "uint256[]",
          "name": "ids",
          "type": "uint256[]"
        },
        {
          "internalType": "uint256[]",
          "name": "amounts",
          "type": "uint256[]"
        },
        {
          "internalType": "bytes",
          "name": "data",
          "type": "bytes"
        }
      ],
      "name": "safeBatchTransferFrom",
      "outputs": [],
      "stateMutability": "nonpayable",
      "type": "function"
    },
    {
      "inputs": [
        {
          "internalType": "address",
          "name": "from",
          "type": "address"
        },
        {
          "internalType": "address",
          "name": "to",
          "type": "address"
        },
        {
          "internalType": "uint256",
          "name": "id",
          "type": "uint256"
        },
        {
          "internalType": "uint256",
          "name": "amount",
          "type": "uint256"
        },
        {
          "internalType": "bytes",
          "name": "data",
          "type": "bytes"
        }
      ],
      "name": "safeTransferFrom",
      "outputs": [],
      "stateMutability": "nonpayable",
      "type": "function"
    },
    {
      "inputs": [
        {
          "internalType": "address",
          "name": "operator",
          "type": "address"
        },
        {
          "internalType": "bool",
          "name": "approved",
          "type": "bool"
        }
      ],
      "name": "setApprovalForAll",
      "outputs": [],
      "stateMutability": "nonpayable",
      "type": "function"
    },
    {
      "inputs": [
        {
          "internalType": "uint256",
          "name": "tokenId",
          "type": "uint256"
        },
        {
          "internalType": "string",
          "name": "tokenURI",
          "type": "string"
        }
      ],
      "name": "setURI",
      "outputs": [],
      "stateMutability": "nonpayable",
      "type": "function"
    },
    {
      "inputs": [
        {
          "internalType": "bytes4",
          "name": "interfaceId",
          "type": "bytes4"
        }
      ],
      "name": "supportsInterface",
      "outputs": [
        {
          "internalType": "bool",
          "name": "",
          "type": "bool"
        }
      ],
      "stateMutability": "view",
      "type": "function"
    },
    {
      "inputs": [
        {
          "internalType": "address",
          "name": "newOwner",
          "type": "address"
        }
      ],
      "name": "transferOwnership",
      "outputs": [],
      "stateMutability": "nonpayable",
      "type": "function"
    },
    {
      "inputs": [
        {
          "internalType": "uint256",
          "name": "tokenId",
          "type": "uint256"
        }
      ],
      "name": "uri",
      "outputs": [
        {
          "internalType": "string",
          "name": "",
          "type": "string"
        }
      ],
      "stateMutability": "view",
      "type": "function"
    },
    {
      "inputs": [],
      "name": "version",
      "outputs": [
        {
          "internalType": "string",
          "name": "",
          "type": "string"
        }
      ],
      "stateMutability": "view",
      "type": "function"
    }
  ],
  "bytecode": "0x6080604052604051806020016040528060008152506003908162000024919062000452565b503480156200003257600080fd5b5060405162003b8938038062003b89833981810160405281019062000058919062000702565b604051806020016040528060008152506200007981620000f560201b60201c565b506200009a6200008e6200010a60201b60201c565b6200011260201b60201c565b8160069081620000ab919062000452565b5080600860006101000a81548173ffffffffffffffffffffffffffffffffffffffff021916908373ffffffffffffffffffffffffffffffffffffffff160217905550505062000768565b806002908162000106919062000452565b5050565b600033905090565b6000600560009054906101000a900473ffffffffffffffffffffffffffffffffffffffff16905081600560006101000a81548173ffffffffffffffffffffffffffffffffffffffff021916908373ffffffffffffffffffffffffffffffffffffffff1602179055508173ffffffffffffffffffffffffffffffffffffffff168173ffffffffffffffffffffffffffffffffffffffff167f8be0079c531659141344cd1fd0a4f28419497f9722a3daafe3b4186f6b6457e060405160405180910390a35050565b600081519050919050565b7f4e487b7100000000000000000000000000000000000000000000000000000000600052604160045260246000fd5b7f4e487b7100000000000000000000000000000000000000000000000000000000600052602260045260246000fd5b600060028204905060018216806200025a57607f821691505b60208210810362000270576200026f62000212565b5b50919050565b60008190508160005260206000209050919050565b60006020601f8301049050919050565b600082821b905092915050565b600060088302620002da7fffffffffffffffffffffffffffffffffffffffffffffffffffffffffffffffff826200029b565b620002e686836200029b565b95508019841693508086168417925050509392505050565b6000819050919050565b6000819050919050565b6000620003336200032d6200032784620002fe565b62000308565b620002fe565b9050919050565b6000819050919050565b6200034f8362000312565b620003676200035e826200033a565b848454620002a8565b825550505050565b600090565b6200037e6200036f565b6200038b81848462000344565b505050565b5b81811015620003b357620003a760008262000374565b60018101905062000391565b5050565b601f8211156200040257620003cc8162000276565b620003d7846200028b565b81016020851015620003e7578190505b620003ff620003f6856200028b565b83018262000390565b50505b505050565b600082821c905092915050565b6000620004276000198460080262000407565b1980831691505092915050565b600062000442838362000414565b9150826002028217905092915050565b6200045d82620001d8565b67ffffffffffffffff811115620004795762000478620001e3565b5b62000485825462000241565b62000492828285620003b7565b600060209050601f831160018114620004ca5760008415620004b5578287015190505b620004c1858262000434565b86555062000531565b601f198416620004da8662000276565b60005b828110156200050457848901518255600182019150602085019450602081019050620004dd565b8683101562000524578489015162000520601f89168262000414565b8355505b6001600288020188555050505b505050505050565b6000604051905090565b600080fd5b600080fd5b600080fd5b600080fd5b6000601f19601f8301169050919050565b620005738262000557565b810181811067ffffffffffffffff82111715620005955762000594620001e3565b5b80604052505050565b6000620005aa62000539565b9050620005b8828262000568565b919050565b600067ffffffffffffffff821115620005db57620005da620001e3565b5b620005e68262000557565b9050602081019050919050565b60005b8381101562000613578082015181840152602081019050620005f6565b60008484015250505050565b6000620006366200063084620005bd565b6200059e565b90508281526020810184848401111562000655576200065462000552565b5b62000662848285620005f3565b509392505050565b600082601f8301126200068257620006816200054d565b5b8151620006948482602086016200061f565b91505092915050565b600073ffffffffffffffffffffffffffffffffffffffff82169050919050565b6000620006ca826200069d565b9050919050565b620006dc81620006bd565b8114620006e857600080fd5b50565b600081519050620006fc81620006d1565b92915050565b600080604083850312156200071c576200071b62000543565b5b600083015167ffffffffffffffff8111156200073d576200073c62000548565b5b6200074b858286016200066a565b92505060206200075e85828601620006eb565b9150509250929050565b61341180620007786000396000f3fe608060405234801561001057600080fd5b50600436106100f45760003560e01c8063715018a611610097578063af72bd9111610066578063af72bd9114610271578063e985e9c51461028d578063f242432a146102bd578063f2fde38b146102d9576100f4565b8063715018a614610211578063862440e21461021b5780638da5cb5b14610237578063a22cb46514610255576100f4565b80632eb2c2d6116100d35780632eb2c2d6146101895780633f8a4d67146101a55780634e1273f4146101c357806354fd4d50146101f3576100f4565b8062fdd58e146100f957806301ffc9a7146101295780630e89341c14610159575b600080fd5b610113600480360381019061010e9190611bca565b6102f5565b6040516101209190611c19565b60405180910390f35b610143600480360381019061013e9190611c8c565b6103bd565b6040516101509190611cd4565b60405180910390f35b610173600480360381019061016e9190611cef565b61049f565b6040516101809190611dac565b60405180910390f35b6101a3600480360381019061019e9190611fcb565b6104b1565b005b6101ad610552565b6040516101ba91906120a9565b60405180910390f35b6101dd60048036038101906101d89190612187565b61057c565b6040516101ea91906122bd565b60405180910390f35b6101fb610695565b6040516102089190611dac565b60405180910390f35b610219610727565b005b61023560048036038101906102309190612380565b61073b565b005b61023f610749565b60405161024c91906120a9565b60405180910390f35b61026f600480360381019061026a9190612408565b610773565b005b61028b60048036038101906102869190612448565b610789565b005b6102a760048036038101906102a291906124fb565b610830565b6040516102b49190611cd4565b60405180910390f35b6102d760048036038101906102d2919061253b565b6108a3565b005b6102f360048036038101906102ee91906125d2565b610944565b005b60008073ffffffffffffffffffffffffffffffffffffffff168373ffffffffffffffffffffffffffffffffffffffff1603610365576040517f08c379a000000000000000000000000000000000000000000000000000000000815260040161035c90612671565b60405180910390fd5b60008083815260200190815260200160002060008473ffffffffffffffffffffffffffffffffffffffff1673ffffffffffffffffffffffffffffffffffffffff16815260200190815260200160002054905092915050565b60007fd9b67a26000000000000000000000000000000000000000000000000000000007bffffffffffffffffffffffffffffffffffffffffffffffffffffffff1916827bffffffffffffffffffffffffffffffffffffffffffffffffffffffff1916148061048857507f0e89341c000000000000000000000000000000000000000000000000000000007bffffffffffffffffffffffffffffffffffffffffffffffffffffffff1916827bffffffffffffffffffffffffffffffffffffffffffffffffffffffff1916145b806104985750610497826109c7565b5b9050919050565b60606104aa82610a31565b9050919050565b6104b9610b16565b73ffffffffffffffffffffffffffffffffffffffff168573ffffffffffffffffffffffffffffffffffffffff1614806104ff57506104fe856104f9610b16565b610830565b5b61053e576040517f08c379a000000000000000000000000000000000000000000000000000000000815260040161053590612703565b60405180910390fd5b61054b8585858585610b1e565b5050505050565b6000600860009054906101000a900473ffffffffffffffffffffffffffffffffffffffff16905090565b606081518351146105c2576040517f08c379a00000000000000000000000000000000000000000000000000000000081526004016105b990612795565b60405180910390fd5b6000835167ffffffffffffffff8111156105df576105de611dd3565b5b60405190808252806020026020018201604052801561060d5781602001602082028036833780820191505090505b50905060005b845181101561068a5761065a858281518110610632576106316127b5565b5b602002602001015185838151811061064d5761064c6127b5565b5b60200260200101516102f5565b82828151811061066d5761066c6127b5565b5b6020026020010181815250508061068390612813565b9050610613565b508091505092915050565b6060600680546106a49061288a565b80601f01602080910402602001604051908101604052809291908181526020018280546106d09061288a565b801561071d5780601f106106f25761010080835404028352916020019161071d565b820191906000526020600020905b81548152906001019060200180831161070057829003601f168201915b5050505050905090565b61072f610e3f565b6107396000610ebd565b565b6107458282610f83565b5050565b6000600560009054906101000a900473ffffffffffffffffffffffffffffffffffffffff16905090565b61078561077e610b16565b8383610fe8565b5050565b7fc5d2460186f7233c927e7db2dcc703c0e500b653ca82273b7bfad8045d85a4706107b38561049f565b6040516020016107c391906128f7565b60405160208183030381529060405280519060200120146107e357600080fd5b6107fe85858360405180602001604052806000815250611154565b6108088483610f83565b826009600086815260200190815260200160002090816108289190612aba565b505050505050565b6000600860009054906101000a900473ffffffffffffffffffffffffffffffffffffffff1673ffffffffffffffffffffffffffffffffffffffff168273ffffffffffffffffffffffffffffffffffffffff1603610890576001905061089d565b61089a8383611304565b90505b92915050565b6108ab610b16565b73ffffffffffffffffffffffffffffffffffffffff168573ffffffffffffffffffffffffffffffffffffffff1614806108f157506108f0856108eb610b16565b610830565b5b610930576040517f08c379a000000000000000000000000000000000000000000000000000000000815260040161092790612703565b60405180910390fd5b61093d8585858585611398565b5050505050565b61094c610e3f565b600073ffffffffffffffffffffffffffffffffffffffff168173ffffffffffffffffffffffffffffffffffffffff16036109bb576040517f08c379a00000000000000000000000000000000000000000000000000000000081526004016109b290612bfe565b60405180910390fd5b6109c481610ebd565b50565b60007f01ffc9a7000000000000000000000000000000000000000000000000000000007bffffffffffffffffffffffffffffffffffffffffffffffffffffffff1916827bffffffffffffffffffffffffffffffffffffffffffffffffffffffff1916149050919050565b60606000600460008481526020019081526020016000208054610a539061288a565b80601f0160208091040260200160405190810160405280929190818152602001828054610a7f9061288a565b8015610acc5780601f10610aa157610100808354040283529160200191610acc565b820191906000526020600020905b815481529060010190602001808311610aaf57829003601f168201915b505050505090506000815111610aea57610ae583611633565b610b0e565b600381604051602001610afe929190612ca1565b6040516020818303038152906040525b915050919050565b600033905090565b8151835114610b62576040517f08c379a0000000000000000000000000000000000000000000000000000000008152600401610b5990612d37565b60405180910390fd5b600073ffffffffffffffffffffffffffffffffffffffff168473ffffffffffffffffffffffffffffffffffffffff1603610bd1576040517f08c379a0000000000000000000000000000000000000000000000000000000008152600401610bc890612dc9565b60405180910390fd5b6000610bdb610b16565b9050610beb8187878787876116c7565b60005b8451811015610d9c576000858281518110610c0c57610c0b6127b5565b5b602002602001015190506000858381518110610c2b57610c2a6127b5565b5b60200260200101519050600080600084815260200190815260200160002060008b73ffffffffffffffffffffffffffffffffffffffff1673ffffffffffffffffffffffffffffffffffffffff16815260200190815260200160002054905081811015610ccc576040517f08c379a0000000000000000000000000000000000000000000000000000000008152600401610cc390612e5b565b60405180910390fd5b81810360008085815260200190815260200160002060008c73ffffffffffffffffffffffffffffffffffffffff1673ffffffffffffffffffffffffffffffffffffffff168152602001908152602001600020819055508160008085815260200190815260200160002060008b73ffffffffffffffffffffffffffffffffffffffff1673ffffffffffffffffffffffffffffffffffffffff1681526020019081526020016000206000828254610d819190612e7b565b9250508190555050505080610d9590612813565b9050610bee565b508473ffffffffffffffffffffffffffffffffffffffff168673ffffffffffffffffffffffffffffffffffffffff168273ffffffffffffffffffffffffffffffffffffffff167f4a39dc06d4c0dbc64b70af90fd698a233a518aa5d07e595d983b8c0526c8f7fb8787604051610e13929190612eaf565b60405180910390a4610e298187878787876116cf565b610e378187878787876116d7565b505050505050565b610e47610b16565b73ffffffffffffffffffffffffffffffffffffffff16610e65610749565b73ffffffffffffffffffffffffffffffffffffffff1614610ebb576040517f08c379a0000000000000000000000000000000000000000000000000000000008152600401610eb290612f32565b60405180910390fd5b565b6000600560009054906101000a900473ffffffffffffffffffffffffffffffffffffffff16905081600560006101000a81548173ffffffffffffffffffffffffffffffffffffffff021916908373ffffffffffffffffffffffffffffffffffffffff1602179055508173ffffffffffffffffffffffffffffffffffffffff168173ffffffffffffffffffffffffffffffffffffffff167f8be0079c531659141344cd1fd0a4f28419497f9722a3daafe3b4186f6b6457e060405160405180910390a35050565b80600460008481526020019081526020016000209081610fa39190612aba565b50817f6bb7ff708619ba0610cba295a58592e0451dee2622938c8755667688daf3529b610fcf8461049f565b604051610fdc9190611dac565b60405180910390a25050565b8173ffffffffffffffffffffffffffffffffffffffff168373ffffffffffffffffffffffffffffffffffffffff1603611056576040517f08c379a000000000000000000000000000000000000000000000000000000000815260040161104d90612fc4565b60405180910390fd5b80600160008573ffffffffffffffffffffffffffffffffffffffff1673ffffffffffffffffffffffffffffffffffffffff16815260200190815260200160002060008473ffffffffffffffffffffffffffffffffffffffff1673ffffffffffffffffffffffffffffffffffffffff16815260200190815260200160002060006101000a81548160ff0219169083151502179055508173ffffffffffffffffffffffffffffffffffffffff168373ffffffffffffffffffffffffffffffffffffffff167f17307eab39ab6107e8899845ad3d59bd9653f200f220920489ca2b5937696c31836040516111479190611cd4565b60405180910390a3505050565b600073ffffffffffffffffffffffffffffffffffffffff168473ffffffffffffffffffffffffffffffffffffffff16036111c3576040517f08c379a00000000000000000000000000000000000000000000000000000000081526004016111ba90613056565b60405180910390fd5b60006111cd610b16565b905060006111da856118ae565b905060006111e7856118ae565b90506111f8836000898585896116c7565b8460008088815260200190815260200160002060008973ffffffffffffffffffffffffffffffffffffffff1673ffffffffffffffffffffffffffffffffffffffff16815260200190815260200160002060008282546112579190612e7b565b925050819055508673ffffffffffffffffffffffffffffffffffffffff16600073ffffffffffffffffffffffffffffffffffffffff168473ffffffffffffffffffffffffffffffffffffffff167fc3d58168c5ae7397731d063d5bbf3d657854427343f4c083240f7aacaa2d0f6289896040516112d5929190613076565b60405180910390a46112ec836000898585896116cf565b6112fb83600089898989611928565b50505050505050565b6000600160008473ffffffffffffffffffffffffffffffffffffffff1673ffffffffffffffffffffffffffffffffffffffff16815260200190815260200160002060008373ffffffffffffffffffffffffffffffffffffffff1673ffffffffffffffffffffffffffffffffffffffff16815260200190815260200160002060009054906101000a900460ff16905092915050565b600073ffffffffffffffffffffffffffffffffffffffff168473ffffffffffffffffffffffffffffffffffffffff1603611407576040517f08c379a00000000000000000000000000000000000000000000000000000000081526004016113fe90612dc9565b60405180910390fd5b6000611411610b16565b9050600061141e856118ae565b9050600061142b856118ae565b905061143b8389898585896116c7565b600080600088815260200190815260200160002060008a73ffffffffffffffffffffffffffffffffffffffff1673ffffffffffffffffffffffffffffffffffffffff168152602001908152602001600020549050858110156114d2576040517f08c379a00000000000000000000000000000000000000000000000000000000081526004016114c990612e5b565b60405180910390fd5b85810360008089815260200190815260200160002060008b73ffffffffffffffffffffffffffffffffffffffff1673ffffffffffffffffffffffffffffffffffffffff168152602001908152602001600020819055508560008089815260200190815260200160002060008a73ffffffffffffffffffffffffffffffffffffffff1673ffffffffffffffffffffffffffffffffffffffff16815260200190815260200160002060008282546115879190612e7b565b925050819055508773ffffffffffffffffffffffffffffffffffffffff168973ffffffffffffffffffffffffffffffffffffffff168573ffffffffffffffffffffffffffffffffffffffff167fc3d58168c5ae7397731d063d5bbf3d657854427343f4c083240f7aacaa2d0f628a8a604051611604929190613076565b60405180910390a461161a848a8a86868a6116cf565b611628848a8a8a8a8a611928565b505050505050505050565b6060600280546116429061288a565b80601f016020809104026020016040519081016040528092919081815260200182805461166e9061288a565b80156116bb5780601f10611690576101008083540402835291602001916116bb565b820191906000526020600020905b81548152906001019060200180831161169e57829003601f168201915b50505050509050919050565b505050505050565b505050505050565b6116f68473ffffffffffffffffffffffffffffffffffffffff16611aff565b156118a6578373ffffffffffffffffffffffffffffffffffffffff1663bc197c8187878686866040518663ffffffff1660e01b815260040161173c9594939291906130f4565b6020604051808303816000875af192505050801561177857506040513d601f19601f820116820180604052508101906117759190613171565b60015b61181d576117846131ab565b806308c379a0036117e057506117986131cd565b806117a357506117e2565b806040517f08c379a00000000000000000000000000000000000000000000000000000000081526004016117d79190611dac565b60405180910390fd5b505b6040517f08c379a0000000000000000000000000000000000000000000000000000000008152600401611814906132cf565b60405180910390fd5b63bc197c8160e01b7bffffffffffffffffffffffffffffffffffffffffffffffffffffffff1916817bffffffffffffffffffffffffffffffffffffffffffffffffffffffff1916146118a4576040517f08c379a000000000000000000000000000000000000000000000000000000000815260040161189b90613361565b60405180910390fd5b505b505050505050565b60606000600167ffffffffffffffff8111156118cd576118cc611dd3565b5b6040519080825280602002602001820160405280156118fb5781602001602082028036833780820191505090505b5090508281600081518110611913576119126127b5565b5b60200260200101818152505080915050919050565b6119478473ffffffffffffffffffffffffffffffffffffffff16611aff565b15611af7578373ffffffffffffffffffffffffffffffffffffffff1663f23a6e6187878686866040518663ffffffff1660e01b815260040161198d959493929190613381565b6020604051808303816000875af19250505080156119c957506040513d601f19601f820116820180604052508101906119c69190613171565b60015b611a6e576119d56131ab565b806308c379a003611a3157506119e96131cd565b806119f45750611a33565b806040517f08c379a0000000000000000000000000000000000000000000000000000000008152600401611a289190611dac565b60405180910390fd5b505b6040517f08c379a0000000000000000000000000000000000000000000000000000000008152600401611a65906132cf565b60405180910390fd5b63f23a6e6160e01b7bffffffffffffffffffffffffffffffffffffffffffffffffffffffff1916817bffffffffffffffffffffffffffffffffffffffffffffffffffffffff191614611af5576040517f08c379a0000000000000000000000000000000000000000000000000000000008152600401611aec90613361565b60405180910390fd5b505b505050505050565b6000808273ffffffffffffffffffffffffffffffffffffffff163b119050919050565b6000604051905090565b600080fd5b600080fd5b600073ffffffffffffffffffffffffffffffffffffffff82169050919050565b6000611b6182611b36565b9050919050565b611b7181611b56565b8114611b7c57600080fd5b50565b600081359050611b8e81611b68565b92915050565b6000819050919050565b611ba781611b94565b8114611bb257600080fd5b50565b600081359050611bc481611b9e565b92915050565b60008060408385031215611be157611be0611b2c565b5b6000611bef85828601611b7f565b9250506020611c0085828601611bb5565b9150509250929050565b611c1381611b94565b82525050565b6000602082019050611c2e6000830184611c0a565b92915050565b60007fffffffff0000000000000000000000000000000000000000000000000000000082169050919050565b611c6981611c34565b8114611c7457600080fd5b50565b600081359050611c8681611c60565b92915050565b600060208284031215611ca257611ca1611b2c565b5b6000611cb084828501611c77565b91505092915050565b60008115159050919050565b611cce81611cb9565b82525050565b6000602082019050611ce96000830184611cc5565b92915050565b600060208284031215611d0557611d04611b2c565b5b6000611d1384828501611bb5565b91505092915050565b600081519050919050565b600082825260208201905092915050565b60005b83811015611d56578082015181840152602081019050611d3b565b60008484015250505050565b6000601f19601f8301169050919050565b6000611d7e82611d1c565b611d888185611d27565b9350611d98818560208601611d38565b611da181611d62565b840191505092915050565b60006020820190508181036000830152611dc68184611d73565b905092915050565b600080fd5b7f4e487b7100000000000000000000000000000000000000000000000000000000600052604160045260246000fd5b611e0b82611d62565b810181811067ffffffffffffffff82111715611e2a57611e29611dd3565b5b80604052505050565b6000611e3d611b22565b9050611e498282611e02565b919050565b600067ffffffffffffffff821115611e6957611e68611dd3565b5b602082029050602081019050919050565b600080fd5b6000611e92611e8d84611e4e565b611e33565b90508083825260208201905060208402830185811115611eb557611eb4611e7a565b5b835b81811015611ede5780611eca8882611bb5565b845260208401935050602081019050611eb7565b5050509392505050565b600082601f830112611efd57611efc611dce565b5b8135611f0d848260208601611e7f565b91505092915050565b600080fd5b600067ffffffffffffffff821115611f3657611f35611dd3565b5b611f3f82611d62565b9050602081019050919050565b82818337600083830152505050565b6000611f6e611f6984611f1b565b611e33565b905082815260208101848484011115611f8a57611f89611f16565b5b611f95848285611f4c565b509392505050565b600082601f830112611fb257611fb1611dce565b5b8135611fc2848260208601611f5b565b91505092915050565b600080600080600060a08688031215611fe757611fe6611b2c565b5b6000611ff588828901611b7f565b955050602061200688828901611b7f565b945050604086013567ffffffffffffffff81111561202757612026611b31565b5b61203388828901611ee8565b935050606086013567ffffffffffffffff81111561205457612053611b31565b5b61206088828901611ee8565b925050608086013567ffffffffffffffff81111561208157612080611b31565b5b61208d88828901611f9d565b9150509295509295909350565b6120a381611b56565b82525050565b60006020820190506120be600083018461209a565b92915050565b600067ffffffffffffffff8211156120df576120de611dd3565b5b602082029050602081019050919050565b60006121036120fe846120c4565b611e33565b9050808382526020820190506020840283018581111561212657612125611e7a565b5b835b8181101561214f578061213b8882611b7f565b845260208401935050602081019050612128565b5050509392505050565b600082601f83011261216e5761216d611dce565b5b813561217e8482602086016120f0565b91505092915050565b6000806040838503121561219e5761219d611b2c565b5b600083013567ffffffffffffffff8111156121bc576121bb611b31565b5b6121c885828601612159565b925050602083013567ffffffffffffffff8111156121e9576121e8611b31565b5b6121f585828601611ee8565b9150509250929050565b600081519050919050565b600082825260208201905092915050565b6000819050602082019050919050565b61223481611b94565b82525050565b6000612246838361222b565b60208301905092915050565b6000602082019050919050565b600061226a826121ff565b612274818561220a565b935061227f8361221b565b8060005b838110156122b0578151612297888261223a565b97506122a283612252565b925050600181019050612283565b5085935050505092915050565b600060208201905081810360008301526122d7818461225f565b905092915050565b600067ffffffffffffffff8211156122fa576122f9611dd3565b5b61230382611d62565b9050602081019050919050565b600061232361231e846122df565b611e33565b90508281526020810184848401111561233f5761233e611f16565b5b61234a848285611f4c565b509392505050565b600082601f83011261236757612366611dce565b5b8135612377848260208601612310565b91505092915050565b6000806040838503121561239757612396611b2c565b5b60006123a585828601611bb5565b925050602083013567ffffffffffffffff8111156123c6576123c5611b31565b5b6123d285828601612352565b9150509250929050565b6123e581611cb9565b81146123f057600080fd5b50565b600081359050612402816123dc565b92915050565b6000806040838503121561241f5761241e611b2c565b5b600061242d85828601611b7f565b925050602061243e858286016123f3565b9150509250929050565b600080600080600060a0868803121561246457612463611b2c565b5b600061247288828901611b7f565b955050602061248388828901611bb5565b945050604086013567ffffffffffffffff8111156124a4576124a3611b31565b5b6124b088828901612352565b935050606086013567ffffffffffffffff8111156124d1576124d0611b31565b5b6124dd88828901612352565b92505060806124ee88828901611bb5565b9150509295509295909350565b6000806040838503121561251257612511611b2c565b5b600061252085828601611b7f565b925050602061253185828601611b7f565b9150509250929050565b600080600080600060a0868803121561255757612556611b2c565b5b600061256588828901611b7f565b955050602061257688828901611b7f565b945050604061258788828901611bb5565b935050606061259888828901611bb5565b925050608086013567ffffffffffffffff8111156125b9576125b8611b31565b5b6125c588828901611f9d565b9150509295509295909350565b6000602082840312156125e8576125e7611b2c565b5b60006125f684828501611b7f565b91505092915050565b7f455243313135353a2061646472657373207a65726f206973206e6f742061207660008201527f616c6964206f776e657200000000000000000000000000000000000000000000602082015250565b600061265b602a83611d27565b9150612666826125ff565b604082019050919050565b6000602082019050818103600083015261268a8161264e565b9050919050565b7f455243313135353a2063616c6c6572206973206e6f7420746f6b656e206f776e60008201527f6572206e6f7220617070726f7665640000000000000000000000000000000000602082015250565b60006126ed602f83611d27565b91506126f882612691565b604082019050919050565b6000602082019050818103600083015261271c816126e0565b9050919050565b7f455243313135353a206163636f756e747320616e6420696473206c656e67746860008201527f206d69736d617463680000000000000000000000000000000000000000000000602082015250565b600061277f602983611d27565b915061278a82612723565b604082019050919050565b600060208201905081810360008301526127ae81612772565b9050919050565b7f4e487b7100000000000000000000000000000000000000000000000000000000600052603260045260246000fd5b7f4e487b7100000000000000000000000000000000000000000000000000000000600052601160045260246000fd5b600061281e82611b94565b91507fffffffffffffffffffffffffffffffffffffffffffffffffffffffffffffffff82036128505761284f6127e4565b5b600182019050919050565b7f4e487b7100000000000000000000000000000000000000000000000000000000600052602260045260246000fd5b600060028204905060018216806128a257607f821691505b6020821081036128b5576128b461285b565b5b50919050565b600081905092915050565b60006128d182611d1c565b6128db81856128bb565b93506128eb818560208601611d38565b80840191505092915050565b600061290382846128c6565b915081905092915050565b60008190508160005260206000209050919050565b60006020601f8301049050919050565b600082821b905092915050565b6000600883026129707fffffffffffffffffffffffffffffffffffffffffffffffffffffffffffffffff82612933565b61297a8683612933565b95508019841693508086168417925050509392505050565b6000819050919050565b60006129b76129b26129ad84611b94565b612992565b611b94565b9050919050565b6000819050919050565b6129d18361299c565b6129e56129dd826129be565b848454612940565b825550505050565b600090565b6129fa6129ed565b612a058184846129c8565b505050565b5b81811015612a2957612a1e6000826129f2565b600181019050612a0b565b5050565b601f821115612a6e57612a3f8161290e565b612a4884612923565b81016020851015612a57578190505b612a6b612a6385612923565b830182612a0a565b50505b505050565b600082821c905092915050565b6000612a9160001984600802612a73565b1980831691505092915050565b6000612aaa8383612a80565b9150826002028217905092915050565b612ac382611d1c565b67ffffffffffffffff811115612adc57612adb611dd3565b5b612ae6825461288a565b612af1828285612a2d565b600060209050601f831160018114612b245760008415612b12578287015190505b612b1c8582612a9e565b865550612b84565b601f198416612b328661290e565b60005b82811015612b5a57848901518255600182019150602085019450602081019050612b35565b86831015612b775784890151612b73601f891682612a80565b8355505b6001600288020188555050505b505050505050565b7f4f776e61626c653a206e6577206f776e657220697320746865207a65726f206160008201527f6464726573730000000000000000000000000000000000000000000000000000602082015250565b6000612be8602683611d27565b9150612bf382612b8c565b604082019050919050565b60006020820190508181036000830152612c1781612bdb565b9050919050565b60008154612c2b8161288a565b612c3581866128bb565b94506001821660008114612c505760018114612c6557612c98565b60ff1983168652811515820286019350612c98565b612c6e8561290e565b60005b83811015612c9057815481890152600182019150602081019050612c71565b838801955050505b50505092915050565b6000612cad8285612c1e565b9150612cb982846128c6565b91508190509392505050565b7f455243313135353a2069647320616e6420616d6f756e7473206c656e6774682060008201527f6d69736d61746368000000000000000000000000000000000000000000000000602082015250565b6000612d21602883611d27565b9150612d2c82612cc5565b604082019050919050565b60006020820190508181036000830152612d5081612d14565b9050919050565b7f455243313135353a207472616e7366657220746f20746865207a65726f20616460008201527f6472657373000000000000000000000000000000000000000000000000000000602082015250565b6000612db3602583611d27565b9150612dbe82612d57565b604082019050919050565b60006020820190508181036000830152612de281612da6565b9050919050565b7f455243313135353a20696e73756666696369656e742062616c616e636520666f60008201527f72207472616e7366657200000000000000000000000000000000000000000000602082015250565b6000612e45602a83611d27565b9150612e5082612de9565b604082019050919050565b60006020820190508181036000830152612e7481612e38565b9050919050565b6000612e8682611b94565b9150612e9183611b94565b9250828201905080821115612ea957612ea86127e4565b5b92915050565b60006040820190508181036000830152612ec9818561225f565b90508181036020830152612edd818461225f565b90509392505050565b7f4f776e61626c653a2063616c6c6572206973206e6f7420746865206f776e6572600082015250565b6000612f1c602083611d27565b9150612f2782612ee6565b602082019050919050565b60006020820190508181036000830152612f4b81612f0f565b9050919050565b7f455243313135353a2073657474696e6720617070726f76616c2073746174757360008201527f20666f722073656c660000000000000000000000000000000000000000000000602082015250565b6000612fae602983611d27565b9150612fb982612f52565b604082019050919050565b60006020820190508181036000830152612fdd81612fa1565b9050919050565b7f455243313135353a206d696e7420746f20746865207a65726f2061646472657360008201527f7300000000000000000000000000000000000000000000000000000000000000602082015250565b6000613040602183611d27565b915061304b82612fe4565b604082019050919050565b6000602082019050818103600083015261306f81613033565b9050919050565b600060408201905061308b6000830185611c0a565b6130986020830184611c0a565b9392505050565b600081519050919050565b600082825260208201905092915050565b60006130c68261309f565b6130d081856130aa565b93506130e0818560208601611d38565b6130e981611d62565b840191505092915050565b600060a082019050613109600083018861209a565b613116602083018761209a565b8181036040830152613128818661225f565b9050818103606083015261313c818561225f565b9050818103608083015261315081846130bb565b90509695505050505050565b60008151905061316b81611c60565b92915050565b60006020828403121561318757613186611b2c565b5b60006131958482850161315c565b91505092915050565b60008160e01c9050919050565b600060033d11156131ca5760046000803e6131c760005161319e565b90505b90565b600060443d1061325a576131df611b22565b60043d036004823e80513d602482011167ffffffffffffffff8211171561320757505061325a565b808201805167ffffffffffffffff811115613225575050505061325a565b80602083010160043d03850181111561324257505050505061325a565b61325182602001850186611e02565b82955050505050505b90565b7f455243313135353a207472616e7366657220746f206e6f6e204552433131353560008201527f526563656976657220696d706c656d656e746572000000000000000000000000602082015250565b60006132b9603483611d27565b91506132c48261325d565b604082019050919050565b600060208201905081810360008301526132e8816132ac565b9050919050565b7f455243313135353a204552433131353552656365697665722072656a6563746560008201527f6420746f6b656e73000000000000000000000000000000000000000000000000602082015250565b600061334b602883611d27565b9150613356826132ef565b604082019050919050565b6000602082019050818103600083015261337a8161333e565b9050919050565b600060a082019050613396600083018861209a565b6133a3602083018761209a565b6133b06040830186611c0a565b6133bd6060830185611c0a565b81810360808301526133cf81846130bb565b9050969550505050505056fea26469706673582212203b87a863c4d4cf04d887b8898f511c895a3a9242a1b4fe4cd03484cee659050c64736f6c63430008110033",
  "linkReferences": {},
  "deployedLinkReferences": {}
}