{
  "_format": "hh-sol-artifact-1",
  "contractName": "Robot",
  "sourceName": "contracts/Robot.sol",
  "abi": [
    {
      "inputs": [
        {
          "internalType": "string",
          "name": "_versoion",
          "type": "string"
        }
      ],
      "stateMutability": "nonpayable",
      "type": "constructor"
    },
    {
      "anonymous": false,
      "inputs": [
        {
          "indexed": true,
          "internalType": "address",
          "name": "contractAddress",
          "type": "address"
        },
        {
          "indexed": true,
          "internalType": "uint256",
          "name": "cType",
          "type": "uint256"
        },
        {
          "indexed": true,
          "internalType": "uint256",
          "name": "tokenId",
          "type": "uint256"
        },
        {
          "indexed": false,
          "internalType": "address",
          "name": "from",
          "type": "address"
        },
        {
          "indexed": false,
          "internalType": "address",
          "name": "to",
          "type": "address"
        },
        {
          "indexed": false,
          "internalType": "uint256",
          "name": "amount",
          "type": "uint256"
        },
        {
          "indexed": false,
          "internalType": "uint256",
          "name": "price",
          "type": "uint256"
        }
      ],
      "name": "Buy",
      "type": "event"
    },
    {
      "anonymous": false,
      "inputs": [
        {
          "indexed": true,
          "internalType": "address",
          "name": "contractAddress",
          "type": "address"
        },
        {
          "indexed": true,
          "internalType": "string",
          "name": "name",
          "type": "string"
        },
        {
          "indexed": true,
          "internalType": "string",
          "name": "tokenURI",
          "type": "string"
        },
        {
          "indexed": false,
          "internalType": "address",
          "name": "to",
          "type": "address"
        },
        {
          "indexed": false,
          "internalType": "uint256",
          "name": "tokenId",
          "type": "uint256"
        },
        {
          "indexed": false,
          "internalType": "uint256",
          "name": "amount",
          "type": "uint256"
        }
      ],
      "name": "Lock",
      "type": "event"
    },
    {
      "inputs": [
        {
          "internalType": "address[]",
          "name": "addresses",
          "type": "address[]"
        },
        {
          "internalType": "uint256[]",
          "name": "types",
          "type": "uint256[]"
        },
        {
          "internalType": "string[]",
          "name": "orderIds",
          "type": "string[]"
        },
        {
          "internalType": "string[]",
          "name": "orderHashs",
          "type": "string[]"
        },
        {
          "internalType": "address[]",
          "name": "froms",
          "type": "address[]"
        },
        {
          "internalType": "address[]",
          "name": "tos",
          "type": "address[]"
        },
        {
          "internalType": "uint256[]",
          "name": "tokenIds",
          "type": "uint256[]"
        },
        {
          "internalType": "uint256[]",
          "name": "amounts",
          "type": "uint256[]"
        },
        {
          "internalType": "string[]",
          "name": "tokenURIs",
          "type": "string[]"
        },
        {
          "internalType": "string[]",
          "name": "names",
          "type": "string[]"
        },
        {
          "internalType": "uint256[]",
          "name": "values",
          "type": "uint256[]"
        }
      ],
      "name": "batchAll",
      "outputs": [],
      "stateMutability": "payable",
      "type": "function"
    },
    {
      "inputs": [
        {
          "internalType": "address",
          "name": "erc1155",
          "type": "address"
        },
        {
          "internalType": "address[]",
          "name": "tos",
          "type": "address[]"
        },
        {
          "internalType": "uint256[]",
          "name": "tokenIds",
          "type": "uint256[]"
        },
        {
          "internalType": "string[]",
          "name": "names",
          "type": "string[]"
        },
        {
          "internalType": "string[]",
          "name": "tokenURIs",
          "type": "string[]"
        },
        {
          "internalType": "uint256[]",
          "name": "amounts",
          "type": "uint256[]"
        }
      ],
      "name": "batchLockt1155",
      "outputs": [],
      "stateMutability": "payable",
      "type": "function"
    },
    {
      "inputs": [
        {
          "internalType": "address",
          "name": "erc721",
          "type": "address"
        },
        {
          "internalType": "address[]",
          "name": "accounts",
          "type": "address[]"
        },
        {
          "internalType": "string[]",
          "name": "tokenURIs",
          "type": "string[]"
        },
        {
          "internalType": "string[]",
          "name": "collectionIds",
          "type": "string[]"
        }
      ],
      "name": "batchMint721",
      "outputs": [],
      "stateMutability": "nonpayable",
      "type": "function"
    },
    {
      "inputs": [],
      "name": "version",
      "outputs": [
        {
          "internalType": "string",
          "name": "",
          "type": "string"
        }
      ],
      "stateMutability": "view",
      "type": "function"
    }
  ],
  "bytecode": "0x60806040523480156200001157600080fd5b506040516200201d3803806200201d8339818101604052810190620000379190620001e3565b80600090816200004891906200047f565b505062000566565b6000604051905090565b600080fd5b600080fd5b600080fd5b600080fd5b6000601f19601f8301169050919050565b7f4e487b7100000000000000000000000000000000000000000000000000000000600052604160045260246000fd5b620000b9826200006e565b810181811067ffffffffffffffff82111715620000db57620000da6200007f565b5b80604052505050565b6000620000f062000050565b9050620000fe8282620000ae565b919050565b600067ffffffffffffffff8211156200012157620001206200007f565b5b6200012c826200006e565b9050602081019050919050565b60005b83811015620001595780820151818401526020810190506200013c565b60008484015250505050565b60006200017c620001768462000103565b620000e4565b9050828152602081018484840111156200019b576200019a62000069565b5b620001a884828562000139565b509392505050565b600082601f830112620001c857620001c762000064565b5b8151620001da84826020860162000165565b91505092915050565b600060208284031215620001fc57620001fb6200005a565b5b600082015167ffffffffffffffff8111156200021d576200021c6200005f565b5b6200022b84828501620001b0565b91505092915050565b600081519050919050565b7f4e487b7100000000000000000000000000000000000000000000000000000000600052602260045260246000fd5b600060028204905060018216806200028757607f821691505b6020821081036200029d576200029c6200023f565b5b50919050565b60008190508160005260206000209050919050565b60006020601f8301049050919050565b600082821b905092915050565b600060088302620003077fffffffffffffffffffffffffffffffffffffffffffffffffffffffffffffffff82620002c8565b620003138683620002c8565b95508019841693508086168417925050509392505050565b6000819050919050565b6000819050919050565b6000620003606200035a62000354846200032b565b62000335565b6200032b565b9050919050565b6000819050919050565b6200037c836200033f565b620003946200038b8262000367565b848454620002d5565b825550505050565b600090565b620003ab6200039c565b620003b881848462000371565b505050565b5b81811015620003e057620003d4600082620003a1565b600181019050620003be565b5050565b601f8211156200042f57620003f981620002a3565b6200040484620002b8565b8101602085101562000414578190505b6200042c6200042385620002b8565b830182620003bd565b50505b505050565b600082821c905092915050565b6000620004546000198460080262000434565b1980831691505092915050565b60006200046f838362000441565b9150826002028217905092915050565b6200048a8262000234565b67ffffffffffffffff811115620004a657620004a56200007f565b5b620004b282546200026e565b620004bf828285620003e4565b600060209050601f831160018114620004f75760008415620004e2578287015190505b620004ee858262000461565b8655506200055e565b601f1984166200050786620002a3565b60005b8281101562000531578489015182556001820191506020850194506020810190506200050a565b868310156200055157848901516200054d601f89168262000441565b8355505b6001600288020188555050505b505050505050565b611aa780620005766000396000f3fe60806040526004361061003f5760003560e01c8063486115c11461004457806354fd4d5014610060578063abc04d8a1461008b578063d6c2a1c7146100a7575b600080fd5b61005e60048036038101906100599190611035565b6100d0565b005b34801561006c57600080fd5b50610075610358565b60405161008291906111cd565b60405180910390f35b6100a560048036038101906100a091906111ef565b6103ea565b005b3480156100b357600080fd5b506100ce60048036038101906100c99190611417565b610a93565b005b835185511480156100e2575080518451145b80156100ef575081518151145b80156100fc575082518251145b61013b576040517f08c379a00000000000000000000000000000000000000000000000000000000081526004016101329061151e565b60405180910390fd5b60005b855181101561034f5782818151811061015a5761015961153e565b5b602002602001015160405161016f91906115a9565b604051809103902084828151811061018a5761018961153e565b5b602002602001015160405161019f91906115a9565b60405180910390208873ffffffffffffffffffffffffffffffffffffffff167fc37dc1b1fab95366f4247bdfb31bdec1e49642e878c0316766b469b1af36f0738985815181106101f2576101f161153e565b5b602002602001015189868151811061020d5761020c61153e565b5b60200260200101518787815181106102285761022761153e565b5b602002602001015160405161023f939291906115de565b60405180910390a48673ffffffffffffffffffffffffffffffffffffffff1663af72bd918783815181106102765761027561153e565b5b60200260200101518784815181106102915761029061153e565b5b60200260200101518785815181106102ac576102ab61153e565b5b60200260200101518786815181106102c7576102c661153e565b5b60200260200101518787815181106102e2576102e161153e565b5b60200260200101516040518663ffffffff1660e01b815260040161030a959493929190611615565b600060405180830381600087803b15801561032457600080fd5b505af1158015610338573d6000803e3d6000fd5b505050508080610347906116a5565b91505061013e565b50505050505050565b6060600080546103679061171c565b80601f01602080910402602001604051908101604052809291908181526020018280546103939061171c565b80156103e05780601f106103b5576101008083540402835291602001916103e0565b820191906000526020600020905b8154815290600101906020018083116103c357829003601f168201915b5050505050905090565b89518b511480156103fc575088518a51145b8015610409575087518951145b8015610416575086518851145b8015610423575085518751145b8015610430575084518651145b801561043d575083518551145b801561044a575082518451145b8015610457575081518351145b8015610464575080518251145b6104a3576040517f08c379a000000000000000000000000000000000000000000000000000000000815260040161049a9061151e565b60405180910390fd5b6000805b82518110156104eb578281815181106104c3576104c261153e565b5b6020026020010151826104d6919061174d565b915080806104e3906116a5565b9150506104a7565b5034811461052e576040517f08c379a0000000000000000000000000000000000000000000000000000000008152600401610525906117cd565b60405180910390fd5b60005b8c51811015610a845760028c828151811061054f5761054e61153e565b5b6020026020010151036107eb5786818151811061056f5761056e61153e565b5b60200260200101518c828151811061058a5761058961153e565b5b60200260200101518e83815181106105a5576105a461153e565b5b602002602001015173ffffffffffffffffffffffffffffffffffffffff167f5477f9965f93d173424ef8e21fac70c586b2fdb903ecf743d7a0973e6bfe3c948c85815181106105f7576105f661153e565b5b60200260200101518c86815181106106125761061161153e565b5b60200260200101518b878151811061062d5761062c61153e565b5b60200260200101518988815181106106485761064761153e565b5b602002602001015160405161066094939291906117ed565b60405180910390a48c818151811061067b5761067a61153e565b5b602002602001015173ffffffffffffffffffffffffffffffffffffffff1663144e17108483815181106106b1576106b061153e565b5b60200260200101518d84815181106106cc576106cb61153e565b5b60200260200101518d85815181106106e7576106e661153e565b5b60200260200101518d86815181106107025761070161153e565b5b60200260200101518d878151811061071d5761071c61153e565b5b60200260200101518d88815181106107385761073761153e565b5b60200260200101518d89815181106107535761075261153e565b5b60200260200101518d8a8151811061076e5761076d61153e565b5b60200260200101518d8b815181106107895761078861153e565b5b60200260200101516040518a63ffffffff1660e01b81526004016107b4989796959493929190611832565b6000604051808303818588803b1580156107cd57600080fd5b505af11580156107e1573d6000803e3d6000fd5b5050505050610a71565b60018c8281518110610800576107ff61153e565b5b602002602001015103610a705760008d82815181106108225761082161153e565b5b602002602001015173ffffffffffffffffffffffffffffffffffffffff166312e8ac068984815181106108585761085761153e565b5b60200260200101516040518263ffffffff1660e01b815260040161087c91906118cc565b602060405180830381865afa158015610899573d6000803e3d6000fd5b505050506040513d601f19601f820116820180604052508101906108bd91906118fc565b90508782815181106108d2576108d161153e565b5b60200260200101518d83815181106108ed576108ec61153e565b5b60200260200101518f84815181106109085761090761153e565b5b602002602001015173ffffffffffffffffffffffffffffffffffffffff167f5477f9965f93d173424ef8e21fac70c586b2fdb903ecf743d7a0973e6bfe3c94848d878151811061095b5761095a61153e565b5b602002602001015160018a89815181106109785761097761153e565b5b6020026020010151604051610990949392919061196e565b60405180910390a48d82815181106109ab576109aa61153e565b5b602002602001015173ffffffffffffffffffffffffffffffffffffffff16637deb60258584815181106109e1576109e061153e565b5b60200260200101518a85815181106109fc576109fb61153e565b5b60200260200101518c8681518110610a1757610a1661153e565b5b60200260200101516040518463ffffffff1660e01b8152600401610a3c9291906119b3565b6000604051808303818588803b158015610a5557600080fd5b505af1158015610a69573d6000803e3d6000fd5b5050505050505b5b8080610a7c906116a5565b915050610531565b50505050505050505050505050565b81518351148015610aa5575080518251145b610ae4576040517f08c379a0000000000000000000000000000000000000000000000000000000008152600401610adb9061151e565b60405180910390fd5b60005b8351811015610bd4578473ffffffffffffffffffffffffffffffffffffffff1663ba3737cc858381518110610b1f57610b1e61153e565b5b6020026020010151858481518110610b3a57610b3961153e565b5b6020026020010151858581518110610b5557610b5461153e565b5b6020026020010151336040518563ffffffff1660e01b8152600401610b7d94939291906119dc565b6020604051808303816000875af1158015610b9c573d6000803e3d6000fd5b505050506040513d601f19601f82011682018060405250810190610bc09190611a44565b508080610bcc906116a5565b915050610ae7565b5050505050565b6000604051905090565b600080fd5b600080fd5b600073ffffffffffffffffffffffffffffffffffffffff82169050919050565b6000610c1a82610bef565b9050919050565b610c2a81610c0f565b8114610c3557600080fd5b50565b600081359050610c4781610c21565b92915050565b600080fd5b6000601f19601f8301169050919050565b7f4e487b7100000000000000000000000000000000000000000000000000000000600052604160045260246000fd5b610c9b82610c52565b810181811067ffffffffffffffff82111715610cba57610cb9610c63565b5b80604052505050565b6000610ccd610bdb565b9050610cd98282610c92565b919050565b600067ffffffffffffffff821115610cf957610cf8610c63565b5b602082029050602081019050919050565b600080fd5b6000610d22610d1d84610cde565b610cc3565b90508083825260208201905060208402830185811115610d4557610d44610d0a565b5b835b81811015610d6e5780610d5a8882610c38565b845260208401935050602081019050610d47565b5050509392505050565b600082601f830112610d8d57610d8c610c4d565b5b8135610d9d848260208601610d0f565b91505092915050565b600067ffffffffffffffff821115610dc157610dc0610c63565b5b602082029050602081019050919050565b6000819050919050565b610de581610dd2565b8114610df057600080fd5b50565b600081359050610e0281610ddc565b92915050565b6000610e1b610e1684610da6565b610cc3565b90508083825260208201905060208402830185811115610e3e57610e3d610d0a565b5b835b81811015610e675780610e538882610df3565b845260208401935050602081019050610e40565b5050509392505050565b600082601f830112610e8657610e85610c4d565b5b8135610e96848260208601610e08565b91505092915050565b600067ffffffffffffffff821115610eba57610eb9610c63565b5b602082029050602081019050919050565b600080fd5b600067ffffffffffffffff821115610eeb57610eea610c63565b5b610ef482610c52565b9050602081019050919050565b82818337600083830152505050565b6000610f23610f1e84610ed0565b610cc3565b905082815260208101848484011115610f3f57610f3e610ecb565b5b610f4a848285610f01565b509392505050565b600082601f830112610f6757610f66610c4d565b5b8135610f77848260208601610f10565b91505092915050565b6000610f93610f8e84610e9f565b610cc3565b90508083825260208201905060208402830185811115610fb657610fb5610d0a565b5b835b81811015610ffd57803567ffffffffffffffff811115610fdb57610fda610c4d565b5b808601610fe88982610f52565b85526020850194505050602081019050610fb8565b5050509392505050565b600082601f83011261101c5761101b610c4d565b5b813561102c848260208601610f80565b91505092915050565b60008060008060008060c0878903121561105257611051610be5565b5b600061106089828a01610c38565b965050602087013567ffffffffffffffff81111561108157611080610bea565b5b61108d89828a01610d78565b955050604087013567ffffffffffffffff8111156110ae576110ad610bea565b5b6110ba89828a01610e71565b945050606087013567ffffffffffffffff8111156110db576110da610bea565b5b6110e789828a01611007565b935050608087013567ffffffffffffffff81111561110857611107610bea565b5b61111489828a01611007565b92505060a087013567ffffffffffffffff81111561113557611134610bea565b5b61114189828a01610e71565b9150509295509295509295565b600081519050919050565b600082825260208201905092915050565b60005b8381101561118857808201518184015260208101905061116d565b60008484015250505050565b600061119f8261114e565b6111a98185611159565b93506111b981856020860161116a565b6111c281610c52565b840191505092915050565b600060208201905081810360008301526111e78184611194565b905092915050565b60008060008060008060008060008060006101608c8e03121561121557611214610be5565b5b60008c013567ffffffffffffffff81111561123357611232610bea565b5b61123f8e828f01610d78565b9b505060208c013567ffffffffffffffff8111156112605761125f610bea565b5b61126c8e828f01610e71565b9a505060408c013567ffffffffffffffff81111561128d5761128c610bea565b5b6112998e828f01611007565b99505060608c013567ffffffffffffffff8111156112ba576112b9610bea565b5b6112c68e828f01611007565b98505060808c013567ffffffffffffffff8111156112e7576112e6610bea565b5b6112f38e828f01610d78565b97505060a08c013567ffffffffffffffff81111561131457611313610bea565b5b6113208e828f01610d78565b96505060c08c013567ffffffffffffffff81111561134157611340610bea565b5b61134d8e828f01610e71565b95505060e08c013567ffffffffffffffff81111561136e5761136d610bea565b5b61137a8e828f01610e71565b9450506101008c013567ffffffffffffffff81111561139c5761139b610bea565b5b6113a88e828f01611007565b9350506101208c013567ffffffffffffffff8111156113ca576113c9610bea565b5b6113d68e828f01611007565b9250506101408c013567ffffffffffffffff8111156113f8576113f7610bea565b5b6114048e828f01610e71565b9150509295989b509295989b9093969950565b6000806000806080858703121561143157611430610be5565b5b600061143f87828801610c38565b945050602085013567ffffffffffffffff8111156114605761145f610bea565b5b61146c87828801610d78565b935050604085013567ffffffffffffffff81111561148d5761148c610bea565b5b61149987828801611007565b925050606085013567ffffffffffffffff8111156114ba576114b9610bea565b5b6114c687828801611007565b91505092959194509250565b7f6c656e677468206e6f742073616d650000000000000000000000000000000000600082015250565b6000611508600f83611159565b9150611513826114d2565b602082019050919050565b60006020820190508181036000830152611537816114fb565b9050919050565b7f4e487b7100000000000000000000000000000000000000000000000000000000600052603260045260246000fd5b600081905092915050565b60006115838261114e565b61158d818561156d565b935061159d81856020860161116a565b80840191505092915050565b60006115b58284611578565b915081905092915050565b6115c981610c0f565b82525050565b6115d881610dd2565b82525050565b60006060820190506115f360008301866115c0565b61160060208301856115cf565b61160d60408301846115cf565b949350505050565b600060a08201905061162a60008301886115c0565b61163760208301876115cf565b81810360408301526116498186611194565b9050818103606083015261165d8185611194565b905061166c60808301846115cf565b9695505050505050565b7f4e487b7100000000000000000000000000000000000000000000000000000000600052601160045260246000fd5b60006116b082610dd2565b91507fffffffffffffffffffffffffffffffffffffffffffffffffffffffffffffffff82036116e2576116e1611676565b5b600182019050919050565b7f4e487b7100000000000000000000000000000000000000000000000000000000600052602260045260246000fd5b6000600282049050600182168061173457607f821691505b602082108103611747576117466116ed565b5b50919050565b600061175882610dd2565b915061176383610dd2565b925082820190508082111561177b5761177a611676565b5b92915050565b7f76616c756520213d2073756d2076616c75657300000000000000000000000000600082015250565b60006117b7601383611159565b91506117c282611781565b602082019050919050565b600060208201905081810360008301526117e6816117aa565b9050919050565b600060808201905061180260008301876115c0565b61180f60208301866115c0565b61181c60408301856115cf565b61182960608301846115cf565b95945050505050565b600061010082019050818103600083015261184d818b611194565b90508181036020830152611861818a611194565b905061187060408301896115c0565b61187d60608301886115c0565b61188a60808301876115cf565b61189760a08301866115cf565b81810360c08301526118a98185611194565b905081810360e08301526118bd8184611194565b90509998505050505050505050565b60006020820190506118e160008301846115cf565b92915050565b6000815190506118f681610c21565b92915050565b60006020828403121561191257611911610be5565b5b6000611920848285016118e7565b91505092915050565b6000819050919050565b6000819050919050565b600061195861195361194e84611929565b611933565b610dd2565b9050919050565b6119688161193d565b82525050565b600060808201905061198360008301876115c0565b61199060208301866115c0565b61199d604083018561195f565b6119aa60608301846115cf565b95945050505050565b60006040820190506119c860008301856115cf565b6119d560208301846115c0565b9392505050565b60006080820190506119f160008301876115c0565b8181036020830152611a038186611194565b90508181036040830152611a178185611194565b9050611a2660608301846115c0565b95945050505050565b600081519050611a3e81610ddc565b92915050565b600060208284031215611a5a57611a59610be5565b5b6000611a6884828501611a2f565b9150509291505056fea2646970667358221220fa6146b45d0064727ceae8c8d7f0714b2cb9c4edc4baa8f78171387a3381425b64736f6c63430008110033",
  "linkReferences": {},
  "deployedLinkReferences": {}
}